{
  "contractName": "ContractRegistry",
  "abi": [
    {
      "constant": true,
      "inputs": [],
      "name": "isApproved",
      "outputs": [
        {
          "name": "",
          "type": "bool"
        }
      ],
      "payable": false,
      "stateMutability": "view",
      "type": "function"
    },
    {
      "constant": false,
      "inputs": [
        {
          "name": "_address",
          "type": "address"
        }
      ],
      "name": "revokeApproval",
      "outputs": [],
      "payable": false,
      "stateMutability": "nonpayable",
      "type": "function"
    },
    {
      "constant": true,
      "inputs": [],
      "name": "owner",
      "outputs": [
        {
          "name": "",
          "type": "address"
        }
      ],
      "payable": false,
      "stateMutability": "view",
      "type": "function"
    },
    {
      "constant": true,
      "inputs": [],
      "name": "isOwner",
      "outputs": [
        {
          "name": "",
          "type": "bool"
        }
      ],
      "payable": false,
      "stateMutability": "view",
      "type": "function"
    },
    {
      "constant": true,
      "inputs": [],
      "name": "eventRegistry",
      "outputs": [
        {
          "name": "",
          "type": "address"
        }
      ],
      "payable": false,
      "stateMutability": "view",
      "type": "function"
    },
    {
      "constant": true,
      "inputs": [],
      "name": "nodeRegistry",
      "outputs": [
        {
          "name": "",
          "type": "address"
        }
      ],
      "payable": false,
      "stateMutability": "view",
      "type": "function"
    },
    {
      "constant": false,
      "inputs": [
        {
          "name": "newOwner",
          "type": "address"
        }
      ],
      "name": "transferOwnership",
      "outputs": [],
      "payable": false,
      "stateMutability": "nonpayable",
      "type": "function"
    },
    {
      "constant": false,
      "inputs": [
        {
          "name": "_address",
          "type": "address"
        }
      ],
      "name": "approveAddress",
      "outputs": [],
      "payable": false,
      "stateMutability": "nonpayable",
      "type": "function"
    },
    {
      "constant": true,
      "inputs": [],
      "name": "userRoles",
      "outputs": [
        {
          "name": "",
          "type": "address"
        }
      ],
      "payable": false,
      "stateMutability": "view",
      "type": "function"
    },
    {
      "anonymous": false,
      "inputs": [
        {
          "indexed": false,
          "name": "_contractType",
          "type": "uint256"
        },
        {
          "indexed": false,
          "name": "_newAddress",
          "type": "address"
        }
      ],
      "name": "ContractChange",
      "type": "event"
    },
    {
      "anonymous": false,
      "inputs": [
        {
          "indexed": true,
          "name": "previousOwner",
          "type": "address"
        },
        {
          "indexed": true,
          "name": "newOwner",
          "type": "address"
        }
      ],
      "name": "OwnershipTransferred",
      "type": "event"
    },
    {
      "constant": false,
      "inputs": [
        {
          "name": "_eventRegistry",
          "type": "address"
        }
      ],
      "name": "setEventRegistry",
      "outputs": [],
      "payable": false,
      "stateMutability": "nonpayable",
      "type": "function"
    },
    {
      "constant": false,
      "inputs": [
        {
          "name": "_nodeRegistry",
          "type": "address"
        }
      ],
      "name": "setNodeRegistry",
      "outputs": [],
      "payable": false,
      "stateMutability": "nonpayable",
      "type": "function"
    },
    {
      "constant": false,
      "inputs": [
        {
          "name": "_userRoles",
          "type": "address"
        }
      ],
      "name": "setUserRoles",
      "outputs": [],
      "payable": false,
      "stateMutability": "nonpayable",
      "type": "function"
    },
    {
      "constant": false,
      "inputs": [
        {
          "name": "_contracts",
          "type": "address[3]"
        }
      ],
      "name": "setContracts",
      "outputs": [],
      "payable": false,
      "stateMutability": "nonpayable",
      "type": "function"
    },
    {
      "constant": true,
      "inputs": [],
      "name": "getContracts",
      "outputs": [
        {
          "name": "",
          "type": "address[3]"
        }
      ],
      "payable": false,
      "stateMutability": "view",
      "type": "function"
    }
  ],
  "bytecode": "0x6080604081905260008054600160a060020a0319163317808255600160a060020a0316917f8be0079c531659141344cd1fd0a4f28419497f9722a3daafe3b4186f6b6457e0908290a3610668806100576000396000f3fe608060405234801561001057600080fd5b5060043610610107576000357c010000000000000000000000000000000000000000000000000000000090048063acaacad5116100a9578063e1164b7211610083578063e1164b721461026a578063f2fde38b14610290578063fabf657a146102b6578063ff16fb6b146102dc57610107565b8063acaacad51461021a578063c3a2a93a14610222578063d9b5c4a51461026257610107565b8063484685b0116100e5578063484685b0146101a25780638da5cb5b146101c85780638f32d59b146101ec5780639a1166d5146101f457610107565b80632382a7771461010c57806328f371aa1461016057806346655f441461017c575b600080fd5b61015e6004803603606081101561012257600080fd5b81019080806060019060038060200260405190810160405280929190826003602002808284376000920191909152509194506102e49350505050565b005b610168610321565b604080519115158252519081900360200190f35b61015e6004803603602081101561019257600080fd5b5035600160a060020a0316610347565b61015e600480360360208110156101b857600080fd5b5035600160a060020a03166103c8565b6101d06103fc565b60408051600160a060020a039092168252519081900360200190f35b61016861040b565b61015e6004803603602081101561020a57600080fd5b5035600160a060020a031661041c565b6101d061047f565b61022a61048e565b6040518082606080838360005b8381101561024f578181015183820152602001610237565b5050505090500191505060405180910390f35b6101d06104c9565b61015e6004803603602081101561028057600080fd5b5035600160a060020a03166104d8565b61015e600480360360208110156102a657600080fd5b5035600160a060020a031661053b565b61015e600480360360208110156102cc57600080fd5b5035600160a060020a0316610557565b6101d0610591565b6102ec610321565b15156102f757600080fd5b80516103029061041c565b6020810151610310906104d8565b604081015161031e90610347565b50565b3360009081526001602052604081205460ff1680610342575061034261040b565b905090565b61034f610321565b151561035a57600080fd5b6004805473ffffffffffffffffffffffffffffffffffffffff1916600160a060020a0383161790557f8949e4d9ec12a0f7d04e5d551a64144418a0b822e3e3491278f93e0f4c9a0a3760025b60408051918252600160a060020a03841660208301528051918290030190a150565b6103d061040b565b15156103db57600080fd5b600160a060020a03166000908152600160205260409020805460ff19169055565b600054600160a060020a031690565b600054600160a060020a0316331490565b610424610321565b151561042f57600080fd5b6002805473ffffffffffffffffffffffffffffffffffffffff1916600160a060020a0383161790557f8949e4d9ec12a0f7d04e5d551a64144418a0b822e3e3491278f93e0f4c9a0a3760006103a6565b600254600160a060020a031681565b61049661061d565b5060408051606081018252600254600160a060020a03908116825260035481166020830152600454169181019190915290565b600354600160a060020a031681565b6104e0610321565b15156104eb57600080fd5b6003805473ffffffffffffffffffffffffffffffffffffffff1916600160a060020a0383161790557f8949e4d9ec12a0f7d04e5d551a64144418a0b822e3e3491278f93e0f4c9a0a3760016103a6565b61054361040b565b151561054e57600080fd5b61031e816105a0565b61055f61040b565b151561056a57600080fd5b600160a060020a03166000908152600160208190526040909120805460ff19169091179055565b600454600160a060020a031681565b600160a060020a03811615156105b557600080fd5b60008054604051600160a060020a03808516939216917f8be0079c531659141344cd1fd0a4f28419497f9722a3daafe3b4186f6b6457e091a36000805473ffffffffffffffffffffffffffffffffffffffff1916600160a060020a0392909216919091179055565b606060405190810160405280600390602082028038833950919291505056fea165627a7a723058202603037bc84e0fe04fd93af0682cfabb9f69963395222af0436a928d5f6b00a00029",
  "source": "pragma solidity ^0.5.3;\n\n\nimport \"./utility/Approvable.sol\";\n\n\ncontract ContractRegistry is Approvable {\n    address public eventRegistry;\n    address public nodeRegistry;\n    address public userRoles;\n\n    enum Contracts {\n        EventRegistry,\n        NodeRegistry,\n        UserRoles\n    }\n\n    event ContractChange(uint _contractType, address _newAddress);\n\n    function setEventRegistry(address _eventRegistry) public onlyApproved {\n        eventRegistry = _eventRegistry;\n        emit ContractChange(uint(Contracts.EventRegistry), _eventRegistry);\n    }\n\n    function setNodeRegistry(address _nodeRegistry) public onlyApproved {\n        nodeRegistry = _nodeRegistry;\n        emit ContractChange(uint(Contracts.NodeRegistry), _nodeRegistry);\n    }\n\n    function setUserRoles(address _userRoles) public onlyApproved {\n        userRoles = _userRoles;\n        emit ContractChange(uint(Contracts.UserRoles), _userRoles);\n    }\n\n    // Enables setting all contracts in one call - [EventRegistry, NodeRegistry, UserRoles]\n    function setContracts(address[3] memory _contracts) public onlyApproved {\n        setEventRegistry(_contracts[uint(Contracts.EventRegistry)]);\n        setNodeRegistry(_contracts[uint(Contracts.NodeRegistry)]);\n        setUserRoles(_contracts[uint(Contracts.UserRoles)]);\n    }\n\n    function getContracts() public view returns(address[3] memory) {\n        return [\n            eventRegistry,\n            nodeRegistry,\n            userRoles\n        ];\n    }\n}",
  "sourcePath": "/Users/hiphop/code/verity-event/contracts/ContractRegistry.sol",
  "compiler": {
    "name": "solc",
    "version": "0.5.3+commit.10d17f24.Emscripten.clang"
  },
  "schemaVersion": "3.0.1",
  "updatedAt": "2019-02-04T13:32:53.451Z",
  "devdoc": {
    "methods": {
      "isOwner()": {
        "return": "true if `msg.sender` is the owner of the contract."
      },
      "owner()": {
        "return": "the address of the owner."
      },
      "transferOwnership(address)": {
        "details": "Allows the current owner to transfer control of the contract to a newOwner.",
        "params": {
          "newOwner": "The address to transfer ownership to."
        }
      }
    }
  },
  "userdoc": {
    "methods": {}
  }
}