{
  "contractName": "ContractRegistry",
  "abi": [
    {
      "constant": true,
      "inputs": [],
      "name": "creationBlock",
      "outputs": [
        {
          "name": "",
          "type": "uint256"
        }
      ],
      "payable": false,
      "stateMutability": "view",
      "type": "function"
    },
    {
      "constant": true,
      "inputs": [],
      "name": "isApproved",
      "outputs": [
        {
          "name": "",
          "type": "bool"
        }
      ],
      "payable": false,
      "stateMutability": "view",
      "type": "function"
    },
    {
      "constant": false,
      "inputs": [
        {
          "name": "_address",
          "type": "address"
        }
      ],
      "name": "revokeApproval",
      "outputs": [],
      "payable": false,
      "stateMutability": "nonpayable",
      "type": "function"
    },
    {
      "constant": true,
      "inputs": [],
      "name": "owner",
      "outputs": [
        {
          "name": "",
          "type": "address"
        }
      ],
      "payable": false,
      "stateMutability": "view",
      "type": "function"
    },
    {
      "constant": true,
      "inputs": [],
      "name": "isOwner",
      "outputs": [
        {
          "name": "",
          "type": "bool"
        }
      ],
      "payable": false,
      "stateMutability": "view",
      "type": "function"
    },
    {
      "constant": true,
      "inputs": [],
      "name": "eventRegistry",
      "outputs": [
        {
          "name": "",
          "type": "address"
        }
      ],
      "payable": false,
      "stateMutability": "view",
      "type": "function"
    },
    {
      "constant": true,
      "inputs": [],
      "name": "creationTime",
      "outputs": [
        {
          "name": "",
          "type": "uint256"
        }
      ],
      "payable": false,
      "stateMutability": "view",
      "type": "function"
    },
    {
      "constant": true,
      "inputs": [],
      "name": "nodeRegistry",
      "outputs": [
        {
          "name": "",
          "type": "address"
        }
      ],
      "payable": false,
      "stateMutability": "view",
      "type": "function"
    },
    {
      "constant": false,
      "inputs": [
        {
          "name": "newOwner",
          "type": "address"
        }
      ],
      "name": "transferOwnership",
      "outputs": [],
      "payable": false,
      "stateMutability": "nonpayable",
      "type": "function"
    },
    {
      "constant": false,
      "inputs": [
        {
          "name": "_address",
          "type": "address"
        }
      ],
      "name": "approveAddress",
      "outputs": [],
      "payable": false,
      "stateMutability": "nonpayable",
      "type": "function"
    },
    {
      "constant": true,
      "inputs": [],
      "name": "userRoles",
      "outputs": [
        {
          "name": "",
          "type": "address"
        }
      ],
      "payable": false,
      "stateMutability": "view",
      "type": "function"
    },
    {
      "anonymous": false,
      "inputs": [
        {
          "indexed": false,
          "name": "_contractType",
          "type": "uint256"
        },
        {
          "indexed": false,
          "name": "_newAddress",
          "type": "address"
        }
      ],
      "name": "ContractChange",
      "type": "event"
    },
    {
      "anonymous": false,
      "inputs": [
        {
          "indexed": true,
          "name": "previousOwner",
          "type": "address"
        },
        {
          "indexed": true,
          "name": "newOwner",
          "type": "address"
        }
      ],
      "name": "OwnershipTransferred",
      "type": "event"
    },
    {
      "constant": false,
      "inputs": [
        {
          "name": "_eventRegistry",
          "type": "address"
        }
      ],
      "name": "setEventRegistry",
      "outputs": [],
      "payable": false,
      "stateMutability": "nonpayable",
      "type": "function"
    },
    {
      "constant": false,
      "inputs": [
        {
          "name": "_nodeRegistry",
          "type": "address"
        }
      ],
      "name": "setNodeRegistry",
      "outputs": [],
      "payable": false,
      "stateMutability": "nonpayable",
      "type": "function"
    },
    {
      "constant": false,
      "inputs": [
        {
          "name": "_userRoles",
          "type": "address"
        }
      ],
      "name": "setUserRoles",
      "outputs": [],
      "payable": false,
      "stateMutability": "nonpayable",
      "type": "function"
    },
    {
      "constant": false,
      "inputs": [
        {
          "name": "_contracts",
          "type": "address[3]"
        }
      ],
      "name": "setContracts",
      "outputs": [],
      "payable": false,
      "stateMutability": "nonpayable",
      "type": "function"
    },
    {
      "constant": true,
      "inputs": [],
      "name": "getContracts",
      "outputs": [
        {
          "name": "",
          "type": "address[3]"
        }
      ],
      "payable": false,
      "stateMutability": "view",
      "type": "function"
    }
  ],
  "bytecode": "0x608060408190524360009081554260015560028054600160a060020a031916331790819055600160a060020a0316917f8be0079c531659141344cd1fd0a4f28419497f9722a3daafe3b4186f6b6457e0908290a36106aa806100626000396000f3fe608060405234801561001057600080fd5b506004361061011d576000357c010000000000000000000000000000000000000000000000000000000090048063acaacad5116100b4578063e1164b7211610083578063e1164b72146102a2578063f2fde38b146102c8578063fabf657a146102ee578063ff16fb6b146103145761011d565b8063acaacad51461024a578063c3a2a93a14610252578063d8270dce14610292578063d9b5c4a51461029a5761011d565b8063484685b0116100f0578063484685b0146101d25780638da5cb5b146101f85780638f32d59b1461021c5780639a1166d5146102245761011d565b806317634514146101225780632382a7771461013c57806328f371aa1461019057806346655f44146101ac575b600080fd5b61012a61031c565b60408051918252519081900360200190f35b61018e6004803603606081101561015257600080fd5b81019080806060019060038060200260405190810160405280929190826003602002808284376000920191909152509194506103229350505050565b005b61019861035f565b604080519115158252519081900360200190f35b61018e600480360360208110156101c257600080fd5b5035600160a060020a0316610385565b61018e600480360360208110156101e857600080fd5b5035600160a060020a0316610406565b61020061043a565b60408051600160a060020a039092168252519081900360200190f35b610198610449565b61018e6004803603602081101561023a57600080fd5b5035600160a060020a031661045a565b6102006104bd565b61025a6104cc565b6040518082606080838360005b8381101561027f578181015183820152602001610267565b5050505090500191505060405180910390f35b61012a610507565b61020061050d565b61018e600480360360208110156102b857600080fd5b5035600160a060020a031661051c565b61018e600480360360208110156102de57600080fd5b5035600160a060020a031661057f565b61018e6004803603602081101561030457600080fd5b5035600160a060020a031661059b565b6102006105d2565b60005481565b61032a61035f565b151561033557600080fd5b80516103409061045a565b602081015161034e9061051c565b604081015161035c90610385565b50565b3360009081526003602052604081205460ff16806103805750610380610449565b905090565b61038d61035f565b151561039857600080fd5b6006805473ffffffffffffffffffffffffffffffffffffffff1916600160a060020a0383161790557f8949e4d9ec12a0f7d04e5d551a64144418a0b822e3e3491278f93e0f4c9a0a3760025b60408051918252600160a060020a03841660208301528051918290030190a150565b61040e610449565b151561041957600080fd5b600160a060020a03166000908152600360205260409020805460ff19169055565b600254600160a060020a031690565b600254600160a060020a0316331490565b61046261035f565b151561046d57600080fd5b6004805473ffffffffffffffffffffffffffffffffffffffff1916600160a060020a0383161790557f8949e4d9ec12a0f7d04e5d551a64144418a0b822e3e3491278f93e0f4c9a0a3760006103e4565b600454600160a060020a031681565b6104d461065f565b5060408051606081018252600454600160a060020a03908116825260055481166020830152600654169181019190915290565b60015481565b600554600160a060020a031681565b61052461035f565b151561052f57600080fd5b6005805473ffffffffffffffffffffffffffffffffffffffff1916600160a060020a0383161790557f8949e4d9ec12a0f7d04e5d551a64144418a0b822e3e3491278f93e0f4c9a0a3760016103e4565b610587610449565b151561059257600080fd5b61035c816105e1565b6105a3610449565b15156105ae57600080fd5b600160a060020a03166000908152600360205260409020805460ff19166001179055565b600654600160a060020a031681565b600160a060020a03811615156105f657600080fd5b600254604051600160a060020a038084169216907f8be0079c531659141344cd1fd0a4f28419497f9722a3daafe3b4186f6b6457e090600090a36002805473ffffffffffffffffffffffffffffffffffffffff1916600160a060020a0392909216919091179055565b606060405190810160405280600390602082028038833950919291505056fea165627a7a7230582050a61c4e51306c603d92890494654b404ee67869b18ad89f18f6b740884701680029",
  "source": "pragma solidity ^0.5.3;\n\n\nimport \"./utility/Approvable.sol\";\nimport \"./utility/StoringCreationMeta.sol\";\n\n\ncontract ContractRegistry is StoringCreationMeta, Approvable {\n    address public eventRegistry;\n    address public nodeRegistry;\n    address public userRoles;\n\n    enum Contracts {\n        EventRegistry,\n        NodeRegistry,\n        UserRoles\n    }\n\n    event ContractChange(uint _contractType, address _newAddress);\n\n    function setEventRegistry(address _eventRegistry) public onlyApproved {\n        eventRegistry = _eventRegistry;\n        emit ContractChange(uint(Contracts.EventRegistry), _eventRegistry);\n    }\n\n    function setNodeRegistry(address _nodeRegistry) public onlyApproved {\n        nodeRegistry = _nodeRegistry;\n        emit ContractChange(uint(Contracts.NodeRegistry), _nodeRegistry);\n    }\n\n    function setUserRoles(address _userRoles) public onlyApproved {\n        userRoles = _userRoles;\n        emit ContractChange(uint(Contracts.UserRoles), _userRoles);\n    }\n\n    // Enables setting all contracts in one call - [EventRegistry, NodeRegistry, UserRoles]\n    function setContracts(address[3] memory _contracts) public onlyApproved {\n        setEventRegistry(_contracts[uint(Contracts.EventRegistry)]);\n        setNodeRegistry(_contracts[uint(Contracts.NodeRegistry)]);\n        setUserRoles(_contracts[uint(Contracts.UserRoles)]);\n    }\n\n    function getContracts() public view returns(address[3] memory) {\n        return [\n            eventRegistry,\n            nodeRegistry,\n            userRoles\n        ];\n    }\n}",
  "sourcePath": "/Users/hiphop/code/verity-event/contracts/ContractRegistry.sol",
  "compiler": {
    "name": "solc",
    "version": "0.5.3+commit.10d17f24.Emscripten.clang"
  },
  "schemaVersion": "3.0.1",
  "updatedAt": "2019-03-04T09:52:38.163Z",
  "devdoc": {
    "methods": {
      "isOwner()": {
        "return": "true if `msg.sender` is the owner of the contract."
      },
      "owner()": {
        "return": "the address of the owner."
      },
      "transferOwnership(address)": {
        "details": "Allows the current owner to transfer control of the contract to a newOwner.",
        "params": {
          "newOwner": "The address to transfer ownership to."
        }
      }
    }
  },
  "userdoc": {
    "methods": {}
  }
}