{
  "contractName": "ContractRegistry",
  "abi": [
    {
      "constant": true,
      "inputs": [],
      "name": "creationBlock",
      "outputs": [
        {
          "name": "",
          "type": "uint256"
        }
      ],
      "payable": false,
      "stateMutability": "view",
      "type": "function"
    },
    {
      "constant": true,
      "inputs": [],
      "name": "isApproved",
      "outputs": [
        {
          "name": "",
          "type": "bool"
        }
      ],
      "payable": false,
      "stateMutability": "view",
      "type": "function"
    },
    {
      "constant": false,
      "inputs": [
        {
          "name": "_address",
          "type": "address"
        }
      ],
      "name": "revokeApproval",
      "outputs": [],
      "payable": false,
      "stateMutability": "nonpayable",
      "type": "function"
    },
    {
      "constant": true,
      "inputs": [],
      "name": "owner",
      "outputs": [
        {
          "name": "",
          "type": "address"
        }
      ],
      "payable": false,
      "stateMutability": "view",
      "type": "function"
    },
    {
      "constant": true,
      "inputs": [],
      "name": "isOwner",
      "outputs": [
        {
          "name": "",
          "type": "bool"
        }
      ],
      "payable": false,
      "stateMutability": "view",
      "type": "function"
    },
    {
      "constant": true,
      "inputs": [],
      "name": "eventRegistry",
      "outputs": [
        {
          "name": "",
          "type": "address"
        }
      ],
      "payable": false,
      "stateMutability": "view",
      "type": "function"
    },
    {
      "constant": true,
      "inputs": [],
      "name": "creationTime",
      "outputs": [
        {
          "name": "",
          "type": "uint256"
        }
      ],
      "payable": false,
      "stateMutability": "view",
      "type": "function"
    },
    {
      "constant": true,
      "inputs": [],
      "name": "nodeRegistry",
      "outputs": [
        {
          "name": "",
          "type": "address"
        }
      ],
      "payable": false,
      "stateMutability": "view",
      "type": "function"
    },
    {
      "constant": false,
      "inputs": [
        {
          "name": "newOwner",
          "type": "address"
        }
      ],
      "name": "transferOwnership",
      "outputs": [],
      "payable": false,
      "stateMutability": "nonpayable",
      "type": "function"
    },
    {
      "constant": false,
      "inputs": [
        {
          "name": "_address",
          "type": "address"
        }
      ],
      "name": "approveAddress",
      "outputs": [],
      "payable": false,
      "stateMutability": "nonpayable",
      "type": "function"
    },
    {
      "constant": true,
      "inputs": [],
      "name": "userRoles",
      "outputs": [
        {
          "name": "",
          "type": "address"
        }
      ],
      "payable": false,
      "stateMutability": "view",
      "type": "function"
    },
    {
      "anonymous": false,
      "inputs": [
        {
          "indexed": false,
          "name": "_contractType",
          "type": "uint256"
        },
        {
          "indexed": false,
          "name": "_newAddress",
          "type": "address"
        }
      ],
      "name": "ContractChange",
      "type": "event"
    },
    {
      "anonymous": false,
      "inputs": [
        {
          "indexed": true,
          "name": "previousOwner",
          "type": "address"
        },
        {
          "indexed": true,
          "name": "newOwner",
          "type": "address"
        }
      ],
      "name": "OwnershipTransferred",
      "type": "event"
    },
    {
      "constant": false,
      "inputs": [
        {
          "name": "_eventRegistry",
          "type": "address"
        }
      ],
      "name": "setEventRegistry",
      "outputs": [],
      "payable": false,
      "stateMutability": "nonpayable",
      "type": "function"
    },
    {
      "constant": false,
      "inputs": [
        {
          "name": "_nodeRegistry",
          "type": "address"
        }
      ],
      "name": "setNodeRegistry",
      "outputs": [],
      "payable": false,
      "stateMutability": "nonpayable",
      "type": "function"
    },
    {
      "constant": false,
      "inputs": [
        {
          "name": "_userRoles",
          "type": "address"
        }
      ],
      "name": "setUserRoles",
      "outputs": [],
      "payable": false,
      "stateMutability": "nonpayable",
      "type": "function"
    },
    {
      "constant": false,
      "inputs": [
        {
          "name": "_contracts",
          "type": "address[3]"
        }
      ],
      "name": "setContracts",
      "outputs": [],
      "payable": false,
      "stateMutability": "nonpayable",
      "type": "function"
    },
    {
      "constant": true,
      "inputs": [],
      "name": "getContracts",
      "outputs": [
        {
          "name": "",
          "type": "address[3]"
        }
      ],
      "payable": false,
      "stateMutability": "view",
      "type": "function"
    },
    {
      "constant": true,
      "inputs": [],
      "name": "getEventRegistryHistory",
      "outputs": [
        {
          "name": "",
          "type": "address[]"
        }
      ],
      "payable": false,
      "stateMutability": "view",
      "type": "function"
    },
    {
      "constant": true,
      "inputs": [],
      "name": "getNodeRegistryHistory",
      "outputs": [
        {
          "name": "",
          "type": "address[]"
        }
      ],
      "payable": false,
      "stateMutability": "view",
      "type": "function"
    },
    {
      "constant": true,
      "inputs": [],
      "name": "getUserRolesHistory",
      "outputs": [
        {
          "name": "",
          "type": "address[]"
        }
      ],
      "payable": false,
      "stateMutability": "view",
      "type": "function"
    }
  ],
  "bytecode": "0x608060408190524360009081554260015560028054600160a060020a031916331790819055600160a060020a0316917f8be0079c531659141344cd1fd0a4f28419497f9722a3daafe3b4186f6b6457e0908290a36109fc806100626000396000f3fe608060405234801561001057600080fd5b506004361061013e576000357c0100000000000000000000000000000000000000000000000000000000900480639ab42c43116100ca578063e1164b721161008e578063e1164b7214610323578063e2a85c5d14610349578063f2fde38b14610351578063fabf657a14610377578063ff16fb6b1461039d5761013e565b80639ab42c43146102c3578063acaacad5146102cb578063c3a2a93a146102d3578063d8270dce14610313578063d9b5c4a51461031b5761013e565b8063484685b011610111578063484685b0146101f357806370d43aeb146102195780638da5cb5b146102715780638f32d59b146102955780639a1166d51461029d5761013e565b806317634514146101435780632382a7771461015d57806328f371aa146101b157806346655f44146101cd575b600080fd5b61014b6103a5565b60408051918252519081900360200190f35b6101af6004803603606081101561017357600080fd5b81019080806060019060038060200260405190810160405280929190826003602002808284376000920191909152509194506103ab9350505050565b005b6101b96103e6565b604080519115158252519081900360200190f35b6101af600480360360208110156101e357600080fd5b5035600160a060020a031661040c565b6101af6004803603602081101561020957600080fd5b5035600160a060020a03166104fd565b61022161052f565b60408051602080825283518183015283519192839290830191858101910280838360005b8381101561025d578181015183820152602001610245565b505050509050019250505060405180910390f35b610279610591565b60408051600160a060020a039092168252519081900360200190f35b6101b96105a0565b6101af600480360360208110156102b357600080fd5b5035600160a060020a03166105b1565b6102216106f3565b610279610753565b6102db610762565b6040518082606080838360005b838110156103005781810151838201526020016102e8565b5050505090500191505060405180910390f35b61014b61079d565b6102796107a3565b6101af6004803603602081101561033957600080fd5b5035600160a060020a03166107b2565b610221610885565b6101af6004803603602081101561036757600080fd5b5035600160a060020a03166108e5565b6101af6004803603602081101561038d57600080fd5b5035600160a060020a03166108ff565b610279610934565b60005481565b6103b36103e6565b6103bc57600080fd5b80516103c7906105b1565b60208101516103d5906107b2565b60408101516103e39061040c565b50565b3360009081526003602052604081205460ff168061040757506104076105a0565b905090565b6104146103e6565b61041d57600080fd5b600654600160a060020a0382811691161415610438576103e3565b600654600160a060020a03161561049c57600654600980546001810182556000919091527f6e1540171b6c0c960b71a7020d9f60077f6af931a8bbf590da0223dacf75c7af018054600160a060020a031916600160a060020a039092169190911790555b60068054600160a060020a031916600160a060020a0383161790557f8949e4d9ec12a0f7d04e5d551a64144418a0b822e3e3491278f93e0f4c9a0a3760025b60408051918252600160a060020a03841660208301528051918290030190a150565b6105056105a0565b61050e57600080fd5b600160a060020a03166000908152600360205260409020805460ff19169055565b6060600880548060200260200160405190810160405280929190818152602001828054801561058757602002820191906000526020600020905b8154600160a060020a03168152600190910190602001808311610569575b5050505050905090565b600254600160a060020a031690565b600254600160a060020a0316331490565b6105b96103e6565b6105c257600080fd5b600454600160a060020a03828116911614156105dd576103e3565b600454600160a060020a0316156106b05760048054600780546001818101835560009283527fa66cc928b5edb82af9bd49922954155ab7b0942694bea4ce44661d9a8736c6889091018054600160a060020a031916600160a060020a039485161790558354604080517f19a21d400000000000000000000000000000000000000000000000000000000081529586019290925290519216926319a21d40926024808301939282900301818387803b15801561069757600080fd5b505af11580156106ab573d6000803e3d6000fd5b505050505b60048054600160a060020a031916600160a060020a0383161790557f8949e4d9ec12a0f7d04e5d551a64144418a0b822e3e3491278f93e0f4c9a0a3760006104db565b6060600780548060200260200160405190810160405280929190818152602001828054801561058757602002820191906000526020600020908154600160a060020a03168152600190910190602001808311610569575050505050905090565b600454600160a060020a031681565b61076a6109b2565b5060408051606081018252600454600160a060020a03908116825260055481166020830152600654169181019190915290565b60015481565b600554600160a060020a031681565b6107ba6103e6565b6107c357600080fd5b600554600160a060020a03828116911614156107de576103e3565b600554600160a060020a03161561084257600554600880546001810182556000919091527ff3f7a9fe364faab93b216da50a3214154f22a0a2b415b23a84c8169e8b636ee3018054600160a060020a031916600160a060020a039092169190911790555b60058054600160a060020a031916600160a060020a0383161790557f8949e4d9ec12a0f7d04e5d551a64144418a0b822e3e3491278f93e0f4c9a0a3760016104db565b6060600980548060200260200160405190810160405280929190818152602001828054801561058757602002820191906000526020600020908154600160a060020a03168152600190910190602001808311610569575050505050905090565b6108ed6105a0565b6108f657600080fd5b6103e381610943565b6109076105a0565b61091057600080fd5b600160a060020a03166000908152600360205260409020805460ff19166001179055565b600654600160a060020a031681565b600160a060020a03811661095657600080fd5b600254604051600160a060020a038084169216907f8be0079c531659141344cd1fd0a4f28419497f9722a3daafe3b4186f6b6457e090600090a360028054600160a060020a031916600160a060020a0392909216919091179055565b6040518060600160405280600390602082028038833950919291505056fea165627a7a723058207345748374a46d95730133ccfd2d9656f7d26e5cebb54e8a621d36ac17f4a9080029",
  "source": "pragma solidity ^0.5.7;\n\n\nimport \"./utility/Approvable.sol\";\nimport \"./utility/StoringCreationMeta.sol\";\n\ninterface EventRegistryI {\n    function lockRegistry(bool _locked) external;\n}\n\ncontract ContractRegistry is StoringCreationMeta, Approvable {\n    address public eventRegistry;\n    address public nodeRegistry;\n    address public userRoles;\n\n    enum Contracts {\n        EventRegistry,\n        NodeRegistry,\n        UserRoles\n    }\n\n    address[] eventRegistryHistory;\n    address[] nodeRegistryHistory;\n    address[] userRolesHistory;\n\n    event ContractChange(uint _contractType, address _newAddress);\n\n    function setEventRegistry(address _eventRegistry) public onlyApproved {\n        if(eventRegistry == _eventRegistry) {\n            return;\n        }\n\n        if(eventRegistry != address(0x0)) {\n            eventRegistryHistory.push(eventRegistry);\n            EventRegistryI(eventRegistry).lockRegistry(true);\n        }\n\n        eventRegistry = _eventRegistry;\n        emit ContractChange(uint(Contracts.EventRegistry), _eventRegistry);\n    }\n\n    function setNodeRegistry(address _nodeRegistry) public onlyApproved {\n        if(nodeRegistry == _nodeRegistry) {\n            return;\n        }\n\n        if(nodeRegistry != address(0x0)) {\n            nodeRegistryHistory.push(nodeRegistry);\n        }\n\n        nodeRegistry = _nodeRegistry;\n        emit ContractChange(uint(Contracts.NodeRegistry), _nodeRegistry);\n    }\n\n    function setUserRoles(address _userRoles) public onlyApproved {\n        if(userRoles == _userRoles) {\n            return;\n        }\n\n        if(userRoles != address(0x0)) {\n            userRolesHistory.push(userRoles);\n        }\n\n        userRoles = _userRoles;\n        emit ContractChange(uint(Contracts.UserRoles), _userRoles);\n    }\n\n    // Enables setting all contracts in one call - [EventRegistry, NodeRegistry, UserRoles]\n    function setContracts(address[3] memory _contracts) public onlyApproved {\n        setEventRegistry(_contracts[uint(Contracts.EventRegistry)]);\n        setNodeRegistry(_contracts[uint(Contracts.NodeRegistry)]);\n        setUserRoles(_contracts[uint(Contracts.UserRoles)]);\n    }\n\n    function getContracts() public view returns(address[3] memory) {\n        return [\n            eventRegistry,\n            nodeRegistry,\n            userRoles\n        ];\n    }\n\n    function getEventRegistryHistory() public view returns(address[] memory) {\n        return eventRegistryHistory;\n    }\n\n    function getNodeRegistryHistory() public view returns(address[] memory) {\n        return nodeRegistryHistory;\n    }\n\n    function getUserRolesHistory() public view returns(address[] memory) {\n        return userRolesHistory;\n    }\n}",
  "sourcePath": "/Users/hiphop/code/verity-event/contracts/ContractRegistry.sol",
  "compiler": {
    "name": "solc",
    "version": "0.5.7+commit.6da8b019.Emscripten.clang"
  },
  "schemaVersion": "3.0.1",
  "updatedAt": "2019-03-29T09:35:14.316Z",
  "devdoc": {
    "methods": {
      "isOwner()": {
        "return": "true if `msg.sender` is the owner of the contract."
      },
      "owner()": {
        "return": "the address of the owner."
      },
      "transferOwnership(address)": {
        "details": "Allows the current owner to transfer control of the contract to a newOwner.",
        "params": {
          "newOwner": "The address to transfer ownership to."
        }
      }
    }
  },
  "userdoc": {
    "methods": {}
  }
}