{
  "contractName": "EventRegistry",
  "abi": [
    {
      "constant": true,
      "inputs": [],
      "name": "creationBlock",
      "outputs": [
        {
          "name": "",
          "type": "uint256"
        }
      ],
      "payable": false,
      "stateMutability": "view",
      "type": "function"
    },
    {
      "constant": true,
      "inputs": [],
      "name": "isApproved",
      "outputs": [
        {
          "name": "",
          "type": "bool"
        }
      ],
      "payable": false,
      "stateMutability": "view",
      "type": "function"
    },
    {
      "constant": false,
      "inputs": [
        {
          "name": "_address",
          "type": "address"
        }
      ],
      "name": "revokeApproval",
      "outputs": [],
      "payable": false,
      "stateMutability": "nonpayable",
      "type": "function"
    },
    {
      "constant": true,
      "inputs": [],
      "name": "restricted",
      "outputs": [
        {
          "name": "",
          "type": "bool"
        }
      ],
      "payable": false,
      "stateMutability": "view",
      "type": "function"
    },
    {
      "constant": true,
      "inputs": [],
      "name": "owner",
      "outputs": [
        {
          "name": "",
          "type": "address"
        }
      ],
      "payable": false,
      "stateMutability": "view",
      "type": "function"
    },
    {
      "constant": true,
      "inputs": [],
      "name": "isOwner",
      "outputs": [
        {
          "name": "",
          "type": "bool"
        }
      ],
      "payable": false,
      "stateMutability": "view",
      "type": "function"
    },
    {
      "constant": true,
      "inputs": [],
      "name": "creationTime",
      "outputs": [
        {
          "name": "",
          "type": "uint256"
        }
      ],
      "payable": false,
      "stateMutability": "view",
      "type": "function"
    },
    {
      "constant": false,
      "inputs": [
        {
          "name": "newOwner",
          "type": "address"
        }
      ],
      "name": "transferOwnership",
      "outputs": [],
      "payable": false,
      "stateMutability": "nonpayable",
      "type": "function"
    },
    {
      "constant": false,
      "inputs": [
        {
          "name": "_address",
          "type": "address"
        }
      ],
      "name": "approveAddress",
      "outputs": [],
      "payable": false,
      "stateMutability": "nonpayable",
      "type": "function"
    },
    {
      "constant": true,
      "inputs": [],
      "name": "userRoles",
      "outputs": [
        {
          "name": "",
          "type": "address"
        }
      ],
      "payable": false,
      "stateMutability": "view",
      "type": "function"
    },
    {
      "inputs": [
        {
          "name": "_restricted",
          "type": "bool"
        },
        {
          "name": "_userRoles",
          "type": "address"
        }
      ],
      "payable": false,
      "stateMutability": "nonpayable",
      "type": "constructor"
    },
    {
      "anonymous": false,
      "inputs": [
        {
          "indexed": false,
          "name": "eventAddress",
          "type": "address"
        }
      ],
      "name": "NewVerityEvent",
      "type": "event"
    },
    {
      "anonymous": false,
      "inputs": [
        {
          "indexed": true,
          "name": "previousOwner",
          "type": "address"
        },
        {
          "indexed": true,
          "name": "newOwner",
          "type": "address"
        }
      ],
      "name": "OwnershipTransferred",
      "type": "event"
    },
    {
      "constant": false,
      "inputs": [],
      "name": "registerEvent",
      "outputs": [],
      "payable": false,
      "stateMutability": "nonpayable",
      "type": "function"
    },
    {
      "constant": false,
      "inputs": [
        {
          "name": "_restricted",
          "type": "bool"
        }
      ],
      "name": "setRestricted",
      "outputs": [],
      "payable": false,
      "stateMutability": "nonpayable",
      "type": "function"
    },
    {
      "constant": false,
      "inputs": [
        {
          "name": "_userRoles",
          "type": "address"
        }
      ],
      "name": "setUserRoles",
      "outputs": [],
      "payable": false,
      "stateMutability": "nonpayable",
      "type": "function"
    },
    {
      "constant": true,
      "inputs": [],
      "name": "getUserEvents",
      "outputs": [
        {
          "name": "",
          "type": "address[]"
        }
      ],
      "payable": false,
      "stateMutability": "view",
      "type": "function"
    },
    {
      "constant": false,
      "inputs": [
        {
          "name": "_user",
          "type": "address"
        }
      ],
      "name": "addEventToUser",
      "outputs": [],
      "payable": false,
      "stateMutability": "nonpayable",
      "type": "function"
    },
    {
      "constant": true,
      "inputs": [],
      "name": "getEventsLength",
      "outputs": [
        {
          "name": "",
          "type": "uint256"
        }
      ],
      "payable": false,
      "stateMutability": "view",
      "type": "function"
    },
    {
      "constant": true,
      "inputs": [
        {
          "name": "_ids",
          "type": "uint256[]"
        }
      ],
      "name": "getEventsByIds",
      "outputs": [
        {
          "name": "",
          "type": "uint256[]"
        },
        {
          "name": "",
          "type": "address[]"
        }
      ],
      "payable": false,
      "stateMutability": "view",
      "type": "function"
    },
    {
      "constant": true,
      "inputs": [
        {
          "name": "_user",
          "type": "address"
        }
      ],
      "name": "getUserEventsLength",
      "outputs": [
        {
          "name": "",
          "type": "uint256"
        }
      ],
      "payable": false,
      "stateMutability": "view",
      "type": "function"
    },
    {
      "constant": true,
      "inputs": [
        {
          "name": "_user",
          "type": "address"
        },
        {
          "name": "_ids",
          "type": "uint256[]"
        }
      ],
      "name": "getUserEventsByIds",
      "outputs": [
        {
          "name": "",
          "type": "uint256[]"
        },
        {
          "name": "",
          "type": "address[]"
        }
      ],
      "payable": false,
      "stateMutability": "view",
      "type": "function"
    }
  ],
  "bytecode": "0x608060405234801561001057600080fd5b50604051604080610c8c8339810180604052604081101561003057600080fd5b5080516020909101514360009081554260015560028054600160a060020a031916331790819055604051600160a060020a039190911691907f8be0079c531659141344cd1fd0a4f28419497f9722a3daafe3b4186f6b6457e0908290a360048054600160a060020a031916600160a060020a03929092169190911760a060020a60ff0219167401000000000000000000000000000000000000000092151592909202919091179055610ba5806100e76000396000f3fe608060405234801561001057600080fd5b506004361061013e576000357c0100000000000000000000000000000000000000000000000000000000900480638f32d59b116100ca578063c4130ae01161008e578063c4130ae0146104b5578063d8270dce146104bd578063f2fde38b146104c5578063fabf657a146104eb578063ff16fb6b146105115761013e565b80638f32d59b1461027257806398c7458e1461027a578063b22528e4146103b6578063b37cc2f014610469578063b9d3514d1461048f5761013e565b806346655f441161011157806346655f44146101f257806347fc216e14610218578063484685b0146102205780637072c6b1146102465780638da5cb5b1461024e5761013e565b80630f97756114610143578063176345141461019b57806324daddc5146101b557806328f371aa146101d6575b600080fd5b61014b610519565b60408051602080825283518183015283519192839290830191858101910280838360005b8381101561018757818101518382015260200161016f565b505050509050019250505060405180910390f35b6101a3610584565b60408051918252519081900360200190f35b6101d4600480360360208110156101cb57600080fd5b5035151561058a565b005b6101de6105dd565b604080519115158252519081900360200190f35b6101d46004803603602081101561020857600080fd5b5035600160a060020a0316610603565b6101a3610645565b6101d46004803603602081101561023657600080fd5b5035600160a060020a031661064b565b6101de61067f565b6102566106a0565b60408051600160a060020a039092168252519081900360200190f35b6101de6106af565b61031d6004803603602081101561029057600080fd5b8101906020810181356401000000008111156102ab57600080fd5b8201836020820111156102bd57600080fd5b803590602001918460208302840111640100000000831117156102df57600080fd5b9190808060200260200160405190810160405280939291908181526020018383602002808284376000920191909152509295506106c0945050505050565b604051808060200180602001838103835285818151815260200191508051906020019060200280838360005b83811015610361578181015183820152602001610349565b50505050905001838103825284818151815260200191508051906020019060200280838360005b838110156103a0578181015183820152602001610388565b5050505090500194505050505060405180910390f35b61031d600480360360408110156103cc57600080fd5b600160a060020a0382351691908101906040810160208201356401000000008111156103f757600080fd5b82018360208201111561040957600080fd5b8035906020019184602083028401116401000000008311171561042b57600080fd5b919080806020026020016040519081016040528093929190818152602001838360200280828437600092019190915250929550610770945050505050565b6101a36004803603602081101561047f57600080fd5b5035600160a060020a0316610838565b6101d4600480360360208110156104a557600080fd5b5035600160a060020a0316610853565b6101d46108b7565b6101a3610a68565b6101d4600480360360208110156104db57600080fd5b5035600160a060020a0316610a6e565b6101d46004803603602081101561050157600080fd5b5035600160a060020a0316610a8d565b610256610ac4565b3360009081526007602090815260409182902080548351818402810184019094528084526060939283018282801561057a57602002820191906000526020600020905b8154600160a060020a0316815260019091019060200180831161055c575b5050505050905090565b60005481565b6105926105dd565b151561059d57600080fd5b60048054911515740100000000000000000000000000000000000000000274ff000000000000000000000000000000000000000019909216919091179055565b3360009081526003602052604081205460ff16806105fe57506105fe6106af565b905090565b61060b6105dd565b151561061657600080fd5b6004805473ffffffffffffffffffffffffffffffffffffffff1916600160a060020a0392909216919091179055565b60055490565b6106536106af565b151561065e57600080fd5b600160a060020a03166000908152600360205260409020805460ff19169055565b60045474010000000000000000000000000000000000000000900460ff1681565b600254600160a060020a031690565b600254600160a060020a0316331490565b606080606083516040519080825280602002602001820160405280156106f0578160200160208202803883390190505b50905060005b8451811015610768576005858281518110151561070f57fe5b602090810290910101518154811061072357fe5b6000918252602090912001548251600160a060020a039091169083908390811061074957fe5b600160a060020a039092166020928302909101909101526001016106f6565b509293915050565b606080606083516040519080825280602002602001820160405280156107a0578160200160208202803883390190505b50905060005b845181101561082e57600160a060020a038616600090815260076020526040902085518690839081106107d557fe5b60209081029091010151815481106107e957fe5b6000918252602090912001548251600160a060020a039091169083908390811061080f57fe5b600160a060020a039092166020928302909101909101526001016107a6565b5092949293505050565b600160a060020a031660009081526007602052604090205490565b3360009081526006602052604090205460ff16151561087157600080fd5b600160a060020a0316600090815260076020908152604082208054600181018255908352912001805473ffffffffffffffffffffffffffffffffffffffff191633179055565b60045474010000000000000000000000000000000000000000900460ff16156109c95760048054604080517f5c97f4a200000000000000000000000000000000000000000000000000000000815232938101939093526001602484015251600160a060020a0390911691635c97f4a2916044808301926020929190829003018186803b15801561094657600080fd5b505afa15801561095a573d6000803e3d6000fd5b505050506040513d602081101561097057600080fd5b505115156109c9576040517f08c379a0000000000000000000000000000000000000000000000000000000008152600401808060200182810382526028815260200180610b526028913960400191505060405180910390fd5b6005805460018181019092557f036b6384b5eca791c62761152d0c79bb0604c104a5fb6f4eb0703f3154bb3db001805473ffffffffffffffffffffffffffffffffffffffff191633908117909155600081815260066020908152604091829020805460ff19169094179093558051918252517f7ea59f1dd19bb0d7e64ec3908e38d7fee5d3f165903640ab459a8f13116f97f6929181900390910190a1565b60015481565b610a766106af565b1515610a8157600080fd5b610a8a81610ad3565b50565b610a956106af565b1515610aa057600080fd5b600160a060020a03166000908152600360205260409020805460ff19166001179055565b600454600160a060020a031681565b600160a060020a0381161515610ae857600080fd5b600254604051600160a060020a038084169216907f8be0079c531659141344cd1fd0a4f28419497f9722a3daafe3b4186f6b6457e090600090a36002805473ffffffffffffffffffffffffffffffffffffffff1916600160a060020a039290921691909117905556fe43726561746f72206e6f74207065726d697474656420746f207265676973746572206576656e742ea165627a7a723058208a06883df605499e3de2ea4cdee809c666cb5322a968df338365cc4827ccbb350029",
  "source": "pragma solidity ^0.5.3;\n\n\nimport \"./utility/StoringCreationMeta.sol\";\nimport \"./utility/Approvable.sol\";\nimport \"./UserRoles.sol\";\n\n\ncontract EventRegistry is StoringCreationMeta, Approvable {\n    address public userRoles;\n    bool public restricted;\n\n\n    address[] verityEvents;\n    mapping(address => bool) verityEventsMap;\n\n    mapping(address => address[]) userEvents;\n\n    event NewVerityEvent(address eventAddress);\n\n    constructor(bool _restricted, address _userRoles) public {\n        userRoles = _userRoles;\n        restricted = _restricted;\n    }\n\n    function registerEvent() public {\n        if (restricted) {\n            require(\n                UserRoles(userRoles).hasRole(tx.origin, 1),\n                \"Creator not permitted to register event.\"\n            );\n        }\n        verityEvents.push(msg.sender);\n        verityEventsMap[msg.sender] = true;\n        emit NewVerityEvent(msg.sender);\n    }\n\n    function setRestricted(bool _restricted) public onlyApproved {\n        restricted = _restricted;\n    }\n\n    function setUserRoles(address _userRoles) public onlyApproved {\n        userRoles = _userRoles;\n    }\n\n    function getUserEvents() public view returns(address[] memory) {\n        return userEvents[msg.sender];\n    }\n\n    function addEventToUser(address _user) external {\n        require(verityEventsMap[msg.sender]);\n\n        userEvents[_user].push(msg.sender);\n    }\n\n    function getEventsLength() public view returns(uint) {\n        return verityEvents.length;\n    }\n\n    function getEventsByIds(uint[] memory _ids) public view returns(uint[] memory, address[] memory) {\n        address[] memory _events = new address[](_ids.length);\n\n        for(uint i = 0; i < _ids.length; ++i) {\n            _events[i] = verityEvents[_ids[i]];\n        }\n\n        return (_ids, _events);\n    }\n\n    function getUserEventsLength(address _user)\n        public\n        view\n        returns(uint)\n    {\n        return userEvents[_user].length;\n    }\n\n    function getUserEventsByIds(address _user, uint[] memory _ids)\n        public\n        view\n        returns(uint[] memory, address[] memory)\n    {\n        address[] memory _events = new address[](_ids.length);\n\n        for(uint i = 0; i < _ids.length; ++i) {\n            _events[i] = userEvents[_user][_ids[i]];\n        }\n\n        return (_ids, _events);\n    }\n}",
  "sourcePath": "/Users/hiphop/code/verity-event/contracts/EventRegistry.sol",
  "compiler": {
    "name": "solc",
    "version": "0.5.3+commit.10d17f24.Emscripten.clang"
  },
  "schemaVersion": "3.0.1",
  "updatedAt": "2019-02-20T13:43:23.296Z",
  "devdoc": {
    "methods": {
      "isOwner()": {
        "return": "true if `msg.sender` is the owner of the contract."
      },
      "owner()": {
        "return": "the address of the owner."
      },
      "transferOwnership(address)": {
        "details": "Allows the current owner to transfer control of the contract to a newOwner.",
        "params": {
          "newOwner": "The address to transfer ownership to."
        }
      }
    }
  },
  "userdoc": {
    "methods": {}
  }
}