{
  "contractName": "EventRegistry",
  "abi": [
    {
      "constant": true,
      "inputs": [],
      "name": "creationBlock",
      "outputs": [
        {
          "name": "",
          "type": "uint256"
        }
      ],
      "payable": false,
      "stateMutability": "view",
      "type": "function"
    },
    {
      "constant": true,
      "inputs": [],
      "name": "isApproved",
      "outputs": [
        {
          "name": "",
          "type": "bool"
        }
      ],
      "payable": false,
      "stateMutability": "view",
      "type": "function"
    },
    {
      "constant": false,
      "inputs": [
        {
          "name": "_address",
          "type": "address"
        }
      ],
      "name": "revokeApproval",
      "outputs": [],
      "payable": false,
      "stateMutability": "nonpayable",
      "type": "function"
    },
    {
      "constant": true,
      "inputs": [],
      "name": "owner",
      "outputs": [
        {
          "name": "",
          "type": "address"
        }
      ],
      "payable": false,
      "stateMutability": "view",
      "type": "function"
    },
    {
      "constant": true,
      "inputs": [],
      "name": "isOwner",
      "outputs": [
        {
          "name": "",
          "type": "bool"
        }
      ],
      "payable": false,
      "stateMutability": "view",
      "type": "function"
    },
    {
      "constant": true,
      "inputs": [],
      "name": "creationTime",
      "outputs": [
        {
          "name": "",
          "type": "uint256"
        }
      ],
      "payable": false,
      "stateMutability": "view",
      "type": "function"
    },
    {
      "constant": false,
      "inputs": [
        {
          "name": "newOwner",
          "type": "address"
        }
      ],
      "name": "transferOwnership",
      "outputs": [],
      "payable": false,
      "stateMutability": "nonpayable",
      "type": "function"
    },
    {
      "constant": false,
      "inputs": [
        {
          "name": "_address",
          "type": "address"
        }
      ],
      "name": "approveAddress",
      "outputs": [],
      "payable": false,
      "stateMutability": "nonpayable",
      "type": "function"
    },
    {
      "anonymous": false,
      "inputs": [
        {
          "indexed": false,
          "name": "eventAddress",
          "type": "address"
        }
      ],
      "name": "NewVerityEvent",
      "type": "event"
    },
    {
      "anonymous": false,
      "inputs": [
        {
          "indexed": true,
          "name": "previousOwner",
          "type": "address"
        },
        {
          "indexed": true,
          "name": "newOwner",
          "type": "address"
        }
      ],
      "name": "OwnershipTransferred",
      "type": "event"
    },
    {
      "constant": false,
      "inputs": [],
      "name": "registerEvent",
      "outputs": [],
      "payable": false,
      "stateMutability": "nonpayable",
      "type": "function"
    },
    {
      "constant": true,
      "inputs": [],
      "name": "getUserEvents",
      "outputs": [
        {
          "name": "",
          "type": "address[]"
        }
      ],
      "payable": false,
      "stateMutability": "view",
      "type": "function"
    },
    {
      "constant": false,
      "inputs": [
        {
          "name": "_user",
          "type": "address"
        }
      ],
      "name": "addEventToUser",
      "outputs": [],
      "payable": false,
      "stateMutability": "nonpayable",
      "type": "function"
    },
    {
      "constant": true,
      "inputs": [],
      "name": "getEventsLength",
      "outputs": [
        {
          "name": "",
          "type": "uint256"
        }
      ],
      "payable": false,
      "stateMutability": "view",
      "type": "function"
    },
    {
      "constant": true,
      "inputs": [
        {
          "name": "_ids",
          "type": "uint256[]"
        }
      ],
      "name": "getEventsByIds",
      "outputs": [
        {
          "name": "",
          "type": "uint256[]"
        },
        {
          "name": "",
          "type": "address[]"
        }
      ],
      "payable": false,
      "stateMutability": "view",
      "type": "function"
    },
    {
      "constant": true,
      "inputs": [
        {
          "name": "_user",
          "type": "address"
        }
      ],
      "name": "getUserEventsLength",
      "outputs": [
        {
          "name": "",
          "type": "uint256"
        }
      ],
      "payable": false,
      "stateMutability": "view",
      "type": "function"
    },
    {
      "constant": true,
      "inputs": [
        {
          "name": "_user",
          "type": "address"
        },
        {
          "name": "_ids",
          "type": "uint256[]"
        }
      ],
      "name": "getUserEventsByIds",
      "outputs": [
        {
          "name": "",
          "type": "uint256[]"
        },
        {
          "name": "",
          "type": "address[]"
        }
      ],
      "payable": false,
      "stateMutability": "view",
      "type": "function"
    }
  ],
  "bytecode": "0x608060408190524360009081554260015560028054600160a060020a031916331790819055600160a060020a0316917f8be0079c531659141344cd1fd0a4f28419497f9722a3daafe3b4186f6b6457e0908290a3610925806100626000396000f3fe608060405234801561001057600080fd5b5060043610610112576000357c01000000000000000000000000000000000000000000000000000000009004806398c7458e116100b4578063c4130ae011610083578063c4130ae01461043c578063d8270dce14610444578063f2fde38b1461044c578063fabf657a1461047257610112565b806398c7458e14610201578063b22528e41461033d578063b37cc2f0146103f0578063b9d3514d1461041657610112565b806347fc216e116100f057806347fc216e146101a5578063484685b0146101ad5780638da5cb5b146101d55780638f32d59b146101f957610112565b80630f97756114610117578063176345141461016f57806328f371aa14610189575b600080fd5b61011f610498565b60408051602080825283518183015283519192839290830191858101910280838360005b8381101561015b578181015183820152602001610143565b505050509050019250505060405180910390f35b610177610503565b60408051918252519081900360200190f35b610191610509565b604080519115158252519081900360200190f35b61017761052f565b6101d3600480360360208110156101c357600080fd5b5035600160a060020a0316610535565b005b6101dd610569565b60408051600160a060020a039092168252519081900360200190f35b610191610578565b6102a46004803603602081101561021757600080fd5b81019060208101813564010000000081111561023257600080fd5b82018360208201111561024457600080fd5b8035906020019184602083028401116401000000008311171561026657600080fd5b919080806020026020016040519081016040528093929190818152602001838360200280828437600092019190915250929550610589945050505050565b604051808060200180602001838103835285818151815260200191508051906020019060200280838360005b838110156102e85781810151838201526020016102d0565b50505050905001838103825284818151815260200191508051906020019060200280838360005b8381101561032757818101518382015260200161030f565b5050505090500194505050505060405180910390f35b6102a46004803603604081101561035357600080fd5b600160a060020a03823516919081019060408101602082013564010000000081111561037e57600080fd5b82018360208201111561039057600080fd5b803590602001918460208302840111640100000000831117156103b257600080fd5b919080806020026020016040519081016040528093929190818152602001838360200280828437600092019190915250929550610639945050505050565b6101776004803603602081101561040657600080fd5b5035600160a060020a0316610701565b6101d36004803603602081101561042c57600080fd5b5035600160a060020a031661071c565b6101d3610780565b61017761081f565b6101d36004803603602081101561046257600080fd5b5035600160a060020a0316610825565b6101d36004803603602081101561048857600080fd5b5035600160a060020a0316610844565b336000908152600660209081526040918290208054835181840281018401909452808452606093928301828280156104f957602002820191906000526020600020905b8154600160a060020a031681526001909101906020018083116104db575b5050505050905090565b60005481565b3360009081526003602052604081205460ff168061052a575061052a610578565b905090565b60045490565b61053d610578565b151561054857600080fd5b600160a060020a03166000908152600360205260409020805460ff19169055565b600254600160a060020a031690565b600254600160a060020a0316331490565b606080606083516040519080825280602002602001820160405280156105b9578160200160208202803883390190505b50905060005b845181101561063157600485828151811015156105d857fe5b60209081029091010151815481106105ec57fe5b6000918252602090912001548251600160a060020a039091169083908390811061061257fe5b600160a060020a039092166020928302909101909101526001016105bf565b509293915050565b60608060608351604051908082528060200260200182016040528015610669578160200160208202803883390190505b50905060005b84518110156106f757600160a060020a0386166000908152600660205260409020855186908390811061069e57fe5b60209081029091010151815481106106b257fe5b6000918252602090912001548251600160a060020a03909116908390839081106106d857fe5b600160a060020a0390921660209283029091019091015260010161066f565b5092949293505050565b600160a060020a031660009081526006602052604090205490565b3360009081526005602052604090205460ff16151561073a57600080fd5b600160a060020a0316600090815260066020908152604082208054600181018255908352912001805473ffffffffffffffffffffffffffffffffffffffff191633179055565b6004805460018181019092557f8a35acfbc15ff81a39ae7d344fd709f28e8600b4aa8c65c6b64bfe7fe36bd19b01805473ffffffffffffffffffffffffffffffffffffffff191633908117909155600081815260056020908152604091829020805460ff19169094179093558051918252517f7ea59f1dd19bb0d7e64ec3908e38d7fee5d3f165903640ab459a8f13116f97f6929181900390910190a1565b60015481565b61082d610578565b151561083857600080fd5b6108418161087b565b50565b61084c610578565b151561085757600080fd5b600160a060020a03166000908152600360205260409020805460ff19166001179055565b600160a060020a038116151561089057600080fd5b600254604051600160a060020a038084169216907f8be0079c531659141344cd1fd0a4f28419497f9722a3daafe3b4186f6b6457e090600090a36002805473ffffffffffffffffffffffffffffffffffffffff1916600160a060020a039290921691909117905556fea165627a7a72305820631e1a1549736cdb190d55f29646be9012531f6fe37fb177db97059314de16370029",
  "source": "pragma solidity ^0.5.3;\n\n\nimport \"./utility/StoringCreationMeta.sol\";\nimport \"./utility/Approvable.sol\";\n\n\ncontract EventRegistry is StoringCreationMeta, Approvable {\n    address[] verityEvents;\n    mapping(address => bool) verityEventsMap;\n\n    mapping(address => address[]) userEvents;\n\n    event NewVerityEvent(address eventAddress);\n\n    function registerEvent() public {\n        verityEvents.push(msg.sender);\n        verityEventsMap[msg.sender] = true;\n        emit NewVerityEvent(msg.sender);\n    }\n\n    function getUserEvents() public view returns(address[] memory) {\n        return userEvents[msg.sender];\n    }\n\n    function addEventToUser(address _user) external {\n        require(verityEventsMap[msg.sender]);\n\n        userEvents[_user].push(msg.sender);\n    }\n\n    function getEventsLength() public view returns(uint) {\n        return verityEvents.length;\n    }\n\n    function getEventsByIds(uint[] memory _ids) public view returns(uint[] memory, address[] memory) {\n        address[] memory _events = new address[](_ids.length);\n\n        for(uint i = 0; i < _ids.length; ++i) {\n            _events[i] = verityEvents[_ids[i]];\n        }\n\n        return (_ids, _events);\n    }\n\n    function getUserEventsLength(address _user)\n        public\n        view\n        returns(uint)\n    {\n        return userEvents[_user].length;\n    }\n\n    function getUserEventsByIds(address _user, uint[] memory _ids)\n        public\n        view\n        returns(uint[] memory, address[] memory)\n    {\n        address[] memory _events = new address[](_ids.length);\n\n        for(uint i = 0; i < _ids.length; ++i) {\n            _events[i] = userEvents[_user][_ids[i]];\n        }\n\n        return (_ids, _events);\n    }\n}",
  "sourcePath": "/Users/hiphop/code/verity-event/contracts/EventRegistry.sol",
  "compiler": {
    "name": "solc",
    "version": "0.5.3+commit.10d17f24.Emscripten.clang"
  },
  "schemaVersion": "3.0.1",
  "updatedAt": "2019-02-07T11:36:40.474Z",
  "devdoc": {
    "methods": {
      "isOwner()": {
        "return": "true if `msg.sender` is the owner of the contract."
      },
      "owner()": {
        "return": "the address of the owner."
      },
      "transferOwnership(address)": {
        "details": "Allows the current owner to transfer control of the contract to a newOwner.",
        "params": {
          "newOwner": "The address to transfer ownership to."
        }
      }
    }
  },
  "userdoc": {
    "methods": {}
  }
}