{
  "contractName": "EventRegistry",
  "abi": [
    {
      "constant": true,
      "inputs": [],
      "name": "creationBlock",
      "outputs": [
        {
          "name": "",
          "type": "uint256"
        }
      ],
      "payable": false,
      "stateMutability": "view",
      "type": "function"
    },
    {
      "constant": true,
      "inputs": [],
      "name": "creationTime",
      "outputs": [
        {
          "name": "",
          "type": "uint256"
        }
      ],
      "payable": false,
      "stateMutability": "view",
      "type": "function"
    },
    {
      "anonymous": false,
      "inputs": [
        {
          "indexed": false,
          "name": "eventAddress",
          "type": "address"
        }
      ],
      "name": "NewVerityEvent",
      "type": "event"
    },
    {
      "constant": false,
      "inputs": [],
      "name": "registerEvent",
      "outputs": [],
      "payable": false,
      "stateMutability": "nonpayable",
      "type": "function"
    },
    {
      "constant": true,
      "inputs": [],
      "name": "getUserEvents",
      "outputs": [
        {
          "name": "",
          "type": "address[]"
        }
      ],
      "payable": false,
      "stateMutability": "view",
      "type": "function"
    },
    {
      "constant": false,
      "inputs": [
        {
          "name": "_user",
          "type": "address"
        }
      ],
      "name": "addEventToUser",
      "outputs": [],
      "payable": false,
      "stateMutability": "nonpayable",
      "type": "function"
    },
    {
      "constant": true,
      "inputs": [],
      "name": "getEventsLength",
      "outputs": [
        {
          "name": "",
          "type": "uint256"
        }
      ],
      "payable": false,
      "stateMutability": "view",
      "type": "function"
    },
    {
      "constant": true,
      "inputs": [
        {
          "name": "_ids",
          "type": "uint256[]"
        }
      ],
      "name": "getEventsByIds",
      "outputs": [
        {
          "name": "",
          "type": "uint256[]"
        },
        {
          "name": "",
          "type": "address[]"
        }
      ],
      "payable": false,
      "stateMutability": "view",
      "type": "function"
    },
    {
      "constant": true,
      "inputs": [
        {
          "name": "_user",
          "type": "address"
        }
      ],
      "name": "getUserEventsLength",
      "outputs": [
        {
          "name": "",
          "type": "uint256"
        }
      ],
      "payable": false,
      "stateMutability": "view",
      "type": "function"
    },
    {
      "constant": true,
      "inputs": [
        {
          "name": "_user",
          "type": "address"
        },
        {
          "name": "_ids",
          "type": "uint256[]"
        }
      ],
      "name": "getUserEventsByIds",
      "outputs": [
        {
          "name": "",
          "type": "uint256[]"
        },
        {
          "name": "",
          "type": "address[]"
        }
      ],
      "payable": false,
      "stateMutability": "view",
      "type": "function"
    }
  ],
  "bytecode": "0x608060405243600055426001556106bb8061001b6000396000f3fe608060405234801561001057600080fd5b50600436106100b0576000357c010000000000000000000000000000000000000000000000000000000090048063b22528e411610083578063b22528e41461026b578063b37cc2f01461031e578063b9d3514d14610344578063c4130ae01461036c578063d8270dce14610374576100b0565b80630f977561146100b5578063176345141461010d57806347fc216e1461012757806398c7458e1461012f575b600080fd5b6100bd61037c565b60408051602080825283518183015283519192839290830191858101910280838360005b838110156100f95781810151838201526020016100e1565b505050509050019250505060405180910390f35b6101156103e7565b60408051918252519081900360200190f35b6101156103ed565b6101d26004803603602081101561014557600080fd5b81019060208101813564010000000081111561016057600080fd5b82018360208201111561017257600080fd5b8035906020019184602083028401116401000000008311171561019457600080fd5b9190808060200260200160405190810160405280939291908181526020018383602002808284376000920191909152509295506103f3945050505050565b604051808060200180602001838103835285818151815260200191508051906020019060200280838360005b838110156102165781810151838201526020016101fe565b50505050905001838103825284818151815260200191508051906020019060200280838360005b8381101561025557818101518382015260200161023d565b5050505090500194505050505060405180910390f35b6101d26004803603604081101561028157600080fd5b600160a060020a0382351691908101906040810160208201356401000000008111156102ac57600080fd5b8201836020820111156102be57600080fd5b803590602001918460208302840111640100000000831117156102e057600080fd5b9190808060200260200160405190810160405280939291908181526020018383602002808284376000920191909152509295506104a3945050505050565b6101156004803603602081101561033457600080fd5b5035600160a060020a031661056b565b61036a6004803603602081101561035a57600080fd5b5035600160a060020a0316610586565b005b61036a6105ea565b610115610689565b336000908152600460209081526040918290208054835181840281018401909452808452606093928301828280156103dd57602002820191906000526020600020905b8154600160a060020a031681526001909101906020018083116103bf575b5050505050905090565b60005481565b60025490565b60608060608351604051908082528060200260200182016040528015610423578160200160208202803883390190505b50905060005b845181101561049b576002858281518110151561044257fe5b602090810290910101518154811061045657fe5b6000918252602090912001548251600160a060020a039091169083908390811061047c57fe5b600160a060020a03909216602092830290910190910152600101610429565b509293915050565b606080606083516040519080825280602002602001820160405280156104d3578160200160208202803883390190505b50905060005b845181101561056157600160a060020a0386166000908152600460205260409020855186908390811061050857fe5b602090810290910101518154811061051c57fe5b6000918252602090912001548251600160a060020a039091169083908390811061054257fe5b600160a060020a039092166020928302909101909101526001016104d9565b5092949293505050565b600160a060020a031660009081526004602052604090205490565b3360009081526003602052604090205460ff1615156105a457600080fd5b600160a060020a0316600090815260046020908152604082208054600181018255908352912001805473ffffffffffffffffffffffffffffffffffffffff191633179055565b6002805460018181019092557f405787fa12a823e0f2b7631cc41b3ba8828b3321ca811111fa75cd3aa3bb5ace01805473ffffffffffffffffffffffffffffffffffffffff191633908117909155600081815260036020908152604091829020805460ff19169094179093558051918252517f7ea59f1dd19bb0d7e64ec3908e38d7fee5d3f165903640ab459a8f13116f97f6929181900390910190a1565b6001548156fea165627a7a72305820952fa12ff1887e8be5a7a46f54f8694974e15efb50fd028005eb7946a1ba9f3e0029",
  "source": "pragma solidity ^0.5.3;\n\n\nimport \"./utility/CreationMeta.sol\";\n\n\ncontract EventRegistry is CreationMeta {\n    address[] verityEvents;\n    mapping(address => bool) verityEventsMap;\n\n    mapping(address => address[]) userEvents;\n\n    event NewVerityEvent(address eventAddress);\n\n    function registerEvent() public {\n        verityEvents.push(msg.sender);\n        verityEventsMap[msg.sender] = true;\n        emit NewVerityEvent(msg.sender);\n    }\n\n    function getUserEvents() public view returns(address[] memory) {\n        return userEvents[msg.sender];\n    }\n\n    function addEventToUser(address _user) external {\n        require(verityEventsMap[msg.sender]);\n\n        userEvents[_user].push(msg.sender);\n    }\n\n    function getEventsLength() public view returns(uint) {\n        return verityEvents.length;\n    }\n\n    function getEventsByIds(uint[] memory _ids) public view returns(uint[] memory, address[] memory) {\n        address[] memory _events = new address[](_ids.length);\n\n        for(uint i = 0; i < _ids.length; ++i) {\n            _events[i] = verityEvents[_ids[i]];\n        }\n\n        return (_ids, _events);\n    }\n\n    function getUserEventsLength(address _user)\n        public\n        view\n        returns(uint)\n    {\n        return userEvents[_user].length;\n    }\n\n    function getUserEventsByIds(address _user, uint[] memory _ids)\n        public\n        view\n        returns(uint[] memory, address[] memory)\n    {\n        address[] memory _events = new address[](_ids.length);\n\n        for(uint i = 0; i < _ids.length; ++i) {\n            _events[i] = userEvents[_user][_ids[i]];\n        }\n\n        return (_ids, _events);\n    }\n}",
  "sourcePath": "/Users/hiphop/code/verity-event/contracts/EventRegistry.sol",
  "compiler": {
    "name": "solc",
    "version": "0.5.3+commit.10d17f24.Emscripten.clang"
  },
  "schemaVersion": "3.0.1",
  "updatedAt": "2019-02-04T13:32:53.613Z",
  "devdoc": {
    "methods": {}
  },
  "userdoc": {
    "methods": {}
  }
}