{
  "contractName": "EventRegistry",
  "abi": [
    {
      "anonymous": false,
      "inputs": [
        {
          "indexed": false,
          "name": "eventAddress",
          "type": "address"
        }
      ],
      "name": "NewVerityEvent",
      "type": "event"
    },
    {
      "constant": false,
      "inputs": [],
      "name": "registerEvent",
      "outputs": [],
      "payable": false,
      "stateMutability": "nonpayable",
      "type": "function"
    },
    {
      "constant": true,
      "inputs": [],
      "name": "getUserEvents",
      "outputs": [
        {
          "name": "",
          "type": "address[]"
        }
      ],
      "payable": false,
      "stateMutability": "view",
      "type": "function"
    },
    {
      "constant": false,
      "inputs": [
        {
          "name": "_user",
          "type": "address"
        }
      ],
      "name": "addEventToUser",
      "outputs": [],
      "payable": false,
      "stateMutability": "nonpayable",
      "type": "function"
    },
    {
      "constant": true,
      "inputs": [],
      "name": "getEventsLength",
      "outputs": [
        {
          "name": "",
          "type": "uint256"
        }
      ],
      "payable": false,
      "stateMutability": "view",
      "type": "function"
    },
    {
      "constant": true,
      "inputs": [
        {
          "name": "_ids",
          "type": "uint256[]"
        }
      ],
      "name": "getEventsByIds",
      "outputs": [
        {
          "name": "",
          "type": "uint256[]"
        },
        {
          "name": "",
          "type": "address[]"
        }
      ],
      "payable": false,
      "stateMutability": "view",
      "type": "function"
    },
    {
      "constant": true,
      "inputs": [
        {
          "name": "_user",
          "type": "address"
        }
      ],
      "name": "getUserEventsLength",
      "outputs": [
        {
          "name": "",
          "type": "uint256"
        }
      ],
      "payable": false,
      "stateMutability": "view",
      "type": "function"
    },
    {
      "constant": true,
      "inputs": [
        {
          "name": "_user",
          "type": "address"
        },
        {
          "name": "_ids",
          "type": "uint256[]"
        }
      ],
      "name": "getUserEventsByIds",
      "outputs": [
        {
          "name": "",
          "type": "uint256[]"
        },
        {
          "name": "",
          "type": "address[]"
        }
      ],
      "payable": false,
      "stateMutability": "view",
      "type": "function"
    }
  ],
  "bytecode": "0x608060405234801561001057600080fd5b506105f5806100206000396000f3006080604052600436106100825763ffffffff7c01000000000000000000000000000000000000000000000000000000006000350416630f977561811461008757806347fc216e146100ec57806398c7458e14610113578063b22528e414610201578063b37cc2f014610264578063b9d3514d14610285578063c4130ae0146102a8575b600080fd5b34801561009357600080fd5b5061009c6102bd565b60408051602080825283518183015283519192839290830191858101910280838360005b838110156100d85781810151838201526020016100c0565b505050509050019250505060405180910390f35b3480156100f857600080fd5b50610101610328565b60408051918252519081900360200190f35b34801561011f57600080fd5b50604080516020600480358082013583810280860185019096528085526101689536959394602494938501929182918501908490808284375094975061032e9650505050505050565b604051808060200180602001838103835285818151815260200191508051906020019060200280838360005b838110156101ac578181015183820152602001610194565b50505050905001838103825284818151815260200191508051906020019060200280838360005b838110156101eb5781810151838201526020016101d3565b5050505090500194505050505060405180910390f35b34801561020d57600080fd5b50604080516020600460248035828101358481028087018601909752808652610168968435600160a060020a0316963696604495919490910192918291850190849080828437509497506103e29650505050505050565b34801561027057600080fd5b50610101600160a060020a03600435166104ae565b34801561029157600080fd5b506102a6600160a060020a03600435166104c9565b005b3480156102b457600080fd5b506102a661052d565b3360009081526002602090815260409182902080548351818402810184019094528084526060939283018282801561031e57602002820191906000526020600020905b8154600160a060020a03168152600190910190602001808311610300575b5050505050905090565b60005490565b606080606060008451604051908082528060200260200182016040528015610360578160200160208202803883390190505b509150600090505b84518110156103da576000858281518110151561038157fe5b602090810290910101518154811061039557fe5b6000918252602090912001548251600160a060020a03909116908390839081106103bb57fe5b600160a060020a03909216602092830290910190910152600101610368565b509293915050565b606080606060008451604051908082528060200260200182016040528015610414578160200160208202803883390190505b509150600090505b84518110156104a457600160a060020a0386166000908152600260205260409020855186908390811061044b57fe5b602090810290910101518154811061045f57fe5b6000918252602090912001548251600160a060020a039091169083908390811061048557fe5b600160a060020a0390921660209283029091019091015260010161041c565b5092949293505050565b600160a060020a031660009081526002602052604090205490565b3360009081526001602052604090205460ff1615156104e757600080fd5b600160a060020a0316600090815260026020908152604082208054600181018255908352912001805473ffffffffffffffffffffffffffffffffffffffff191633179055565b60008054600181810183557f290decd9548b62a8d60345a988386fc84ba6bc95484008f6362f93160ef3e563909101805473ffffffffffffffffffffffffffffffffffffffff1916339081179091558083526020828152604093849020805460ff1916909317909255825190815291517f7ea59f1dd19bb0d7e64ec3908e38d7fee5d3f165903640ab459a8f13116f97f69281900390910190a15600a165627a7a72305820fc661bef6c013d38b9dd4792cf5c1df1ef760cc99465b4698458f28232a8ac950029",
  "source": "pragma solidity 0.4.24;\n\n\ncontract EventRegistry {\n    address[] verityEvents;\n    mapping(address => bool) verityEventsMap;\n\n    mapping(address => address[]) userEvents;\n\n    event NewVerityEvent(address eventAddress);\n\n    function registerEvent() public {\n        verityEvents.push(msg.sender);\n        verityEventsMap[msg.sender] = true;\n        emit NewVerityEvent(msg.sender);\n    }\n\n    function getUserEvents() public view returns(address[]) {\n        return userEvents[msg.sender];\n    }\n\n    function addEventToUser(address _user) external {\n        require(verityEventsMap[msg.sender]);\n\n        userEvents[_user].push(msg.sender);\n    }\n\n    function getEventsLength() public view returns(uint) {\n        return verityEvents.length;\n    }\n\n    function getEventsByIds(uint[] _ids) public view returns(uint[], address[]) {\n        address[] memory _events = new address[](_ids.length);\n\n        for(uint i = 0; i < _ids.length; ++i) {\n            _events[i] = verityEvents[_ids[i]];\n        }\n\n        return (_ids, _events);\n    }\n\n    function getUserEventsLength(address _user)\n        public\n        view\n        returns(uint)\n    {\n        return userEvents[_user].length;\n    }\n\n    function getUserEventsByIds(address _user, uint[] _ids)\n        public\n        view\n        returns(uint[], address[])\n    {\n        address[] memory _events = new address[](_ids.length);\n\n        for(uint i = 0; i < _ids.length; ++i) {\n            _events[i] = userEvents[_user][_ids[i]];\n        }\n\n        return (_ids, _events);\n    }\n}",
  "sourcePath": "/Users/nejc/gitlab/verity/verity-contracts/verity-event/contracts/EventRegistry.sol",
  "compiler": {
    "name": "solc",
    "version": "0.4.24+commit.e67f0147.Emscripten.clang"
  },
  "schemaVersion": "2.0.1",
  "updatedAt": "2018-11-21T11:18:05.925Z"
}