{
  "contractName": "EventRegistry",
  "abi": [
    {
      "constant": true,
      "inputs": [],
      "name": "creationBlock",
      "outputs": [
        {
          "name": "",
          "type": "uint256"
        }
      ],
      "payable": false,
      "stateMutability": "view",
      "type": "function"
    },
    {
      "constant": true,
      "inputs": [],
      "name": "isApproved",
      "outputs": [
        {
          "name": "",
          "type": "bool"
        }
      ],
      "payable": false,
      "stateMutability": "view",
      "type": "function"
    },
    {
      "constant": false,
      "inputs": [
        {
          "name": "_address",
          "type": "address"
        }
      ],
      "name": "revokeApproval",
      "outputs": [],
      "payable": false,
      "stateMutability": "nonpayable",
      "type": "function"
    },
    {
      "constant": true,
      "inputs": [],
      "name": "restricted",
      "outputs": [
        {
          "name": "",
          "type": "bool"
        }
      ],
      "payable": false,
      "stateMutability": "view",
      "type": "function"
    },
    {
      "constant": true,
      "inputs": [],
      "name": "owner",
      "outputs": [
        {
          "name": "",
          "type": "address"
        }
      ],
      "payable": false,
      "stateMutability": "view",
      "type": "function"
    },
    {
      "constant": true,
      "inputs": [],
      "name": "isOwner",
      "outputs": [
        {
          "name": "",
          "type": "bool"
        }
      ],
      "payable": false,
      "stateMutability": "view",
      "type": "function"
    },
    {
      "constant": true,
      "inputs": [],
      "name": "locked",
      "outputs": [
        {
          "name": "",
          "type": "bool"
        }
      ],
      "payable": false,
      "stateMutability": "view",
      "type": "function"
    },
    {
      "constant": true,
      "inputs": [],
      "name": "creationTime",
      "outputs": [
        {
          "name": "",
          "type": "uint256"
        }
      ],
      "payable": false,
      "stateMutability": "view",
      "type": "function"
    },
    {
      "constant": false,
      "inputs": [
        {
          "name": "newOwner",
          "type": "address"
        }
      ],
      "name": "transferOwnership",
      "outputs": [],
      "payable": false,
      "stateMutability": "nonpayable",
      "type": "function"
    },
    {
      "constant": false,
      "inputs": [
        {
          "name": "_address",
          "type": "address"
        }
      ],
      "name": "approveAddress",
      "outputs": [],
      "payable": false,
      "stateMutability": "nonpayable",
      "type": "function"
    },
    {
      "constant": true,
      "inputs": [],
      "name": "userRoles",
      "outputs": [
        {
          "name": "",
          "type": "address"
        }
      ],
      "payable": false,
      "stateMutability": "view",
      "type": "function"
    },
    {
      "inputs": [
        {
          "name": "_restricted",
          "type": "bool"
        },
        {
          "name": "_userRoles",
          "type": "address"
        }
      ],
      "payable": false,
      "stateMutability": "nonpayable",
      "type": "constructor"
    },
    {
      "anonymous": false,
      "inputs": [
        {
          "indexed": false,
          "name": "eventAddress",
          "type": "address"
        }
      ],
      "name": "NewVerityEvent",
      "type": "event"
    },
    {
      "anonymous": false,
      "inputs": [
        {
          "indexed": true,
          "name": "_lock",
          "type": "bool"
        }
      ],
      "name": "LockStatusChange",
      "type": "event"
    },
    {
      "anonymous": false,
      "inputs": [
        {
          "indexed": true,
          "name": "_min",
          "type": "uint256"
        },
        {
          "indexed": true,
          "name": "_max",
          "type": "uint256"
        }
      ],
      "name": "AcceptedVersionsChange",
      "type": "event"
    },
    {
      "anonymous": false,
      "inputs": [
        {
          "indexed": true,
          "name": "previousOwner",
          "type": "address"
        },
        {
          "indexed": true,
          "name": "newOwner",
          "type": "address"
        }
      ],
      "name": "OwnershipTransferred",
      "type": "event"
    },
    {
      "constant": false,
      "inputs": [
        {
          "name": "_version",
          "type": "uint256"
        }
      ],
      "name": "registerEvent",
      "outputs": [],
      "payable": false,
      "stateMutability": "nonpayable",
      "type": "function"
    },
    {
      "constant": false,
      "inputs": [
        {
          "name": "_min",
          "type": "uint256"
        },
        {
          "name": "_max",
          "type": "uint256"
        }
      ],
      "name": "setAcceptedVersions",
      "outputs": [],
      "payable": false,
      "stateMutability": "nonpayable",
      "type": "function"
    },
    {
      "constant": true,
      "inputs": [],
      "name": "getAcceptedVersions",
      "outputs": [
        {
          "name": "",
          "type": "uint256[2]"
        }
      ],
      "payable": false,
      "stateMutability": "view",
      "type": "function"
    },
    {
      "constant": false,
      "inputs": [
        {
          "name": "_locked",
          "type": "bool"
        }
      ],
      "name": "lockRegistry",
      "outputs": [],
      "payable": false,
      "stateMutability": "nonpayable",
      "type": "function"
    },
    {
      "constant": false,
      "inputs": [
        {
          "name": "_restricted",
          "type": "bool"
        }
      ],
      "name": "setRestricted",
      "outputs": [],
      "payable": false,
      "stateMutability": "nonpayable",
      "type": "function"
    },
    {
      "constant": false,
      "inputs": [
        {
          "name": "_userRoles",
          "type": "address"
        }
      ],
      "name": "setUserRoles",
      "outputs": [],
      "payable": false,
      "stateMutability": "nonpayable",
      "type": "function"
    },
    {
      "constant": true,
      "inputs": [],
      "name": "getUserEvents",
      "outputs": [
        {
          "name": "",
          "type": "address[]"
        }
      ],
      "payable": false,
      "stateMutability": "view",
      "type": "function"
    },
    {
      "constant": false,
      "inputs": [
        {
          "name": "_user",
          "type": "address"
        }
      ],
      "name": "addEventToUser",
      "outputs": [],
      "payable": false,
      "stateMutability": "nonpayable",
      "type": "function"
    },
    {
      "constant": true,
      "inputs": [],
      "name": "getEventsLength",
      "outputs": [
        {
          "name": "",
          "type": "uint256"
        }
      ],
      "payable": false,
      "stateMutability": "view",
      "type": "function"
    },
    {
      "constant": true,
      "inputs": [
        {
          "name": "_ids",
          "type": "uint256[]"
        }
      ],
      "name": "getEventsByIds",
      "outputs": [
        {
          "name": "",
          "type": "uint256[]"
        },
        {
          "name": "",
          "type": "address[]"
        }
      ],
      "payable": false,
      "stateMutability": "view",
      "type": "function"
    },
    {
      "constant": true,
      "inputs": [
        {
          "name": "_user",
          "type": "address"
        }
      ],
      "name": "getUserEventsLength",
      "outputs": [
        {
          "name": "",
          "type": "uint256"
        }
      ],
      "payable": false,
      "stateMutability": "view",
      "type": "function"
    },
    {
      "constant": true,
      "inputs": [
        {
          "name": "_user",
          "type": "address"
        },
        {
          "name": "_ids",
          "type": "uint256[]"
        }
      ],
      "name": "getUserEventsByIds",
      "outputs": [
        {
          "name": "",
          "type": "uint256[]"
        },
        {
          "name": "",
          "type": "address[]"
        }
      ],
      "payable": false,
      "stateMutability": "view",
      "type": "function"
    }
  ],
  "bytecode": "0x6004805460a860020a60ff021916905560c06040526001608081815260a09190915261002f906005906002610109565b5034801561003c57600080fd5b506040516040806110e18339810180604052604081101561005c57600080fd5b5080516020909101514360009081554260015560028054600160a060020a031916331790819055604051600160a060020a039190911691907f8be0079c531659141344cd1fd0a4f28419497f9722a3daafe3b4186f6b6457e0908290a360048054600160a060020a031916600160a060020a03929092169190911760a060020a60ff0219167401000000000000000000000000000000000000000092151592909202919091179055610169565b826002810192821561013c579160200282015b8281111561013c578251829060ff1690559160200191906001019061011c565b5061014892915061014c565b5090565b61016691905b808211156101485760008155600101610152565b90565b610f69806101786000396000f3fe608060405234801561001057600080fd5b506004361061016a576000357c0100000000000000000000000000000000000000000000000000000000900480638da5cb5b116100e0578063b9d3514d11610099578063b9d3514d1461055d578063cf30901214610583578063d8270dce1461058b578063f2fde38b14610593578063fabf657a146105b9578063ff16fb6b146105df5761016a565b80638da5cb5b146102f95780638f32d59b1461031d57806398c7458e14610325578063ac8ccb3c14610461578063b22528e414610484578063b37cc2f0146105375761016a565b806324daddc51161013257806324daddc51461026257806328f371aa1461028157806346655f441461029d57806347fc216e146102c3578063484685b0146102cb5780637072c6b1146102f15761016a565b8063013ef9b01461016f5780630f977561146101b2578063176345141461020a57806319a21d4014610224578063207e110c14610245575b600080fd5b6101776105e7565b6040518082600260200280838360005b8381101561019f578181015183820152602001610187565b5050505090500191505060405180910390f35b6101ba610623565b60408051602080825283518183015283519192839290830191858101910280838360005b838110156101f65781810151838201526020016101de565b505050509050019250505060405180910390f35b61021261068d565b60408051918252519081900360200190f35b6102436004803603602081101561023a57600080fd5b50351515610693565b005b6102436004803603602081101561025b57600080fd5b503561071d565b6102436004803603602081101561027857600080fd5b5035151561098b565b6102896109de565b604080519115158252519081900360200190f35b610243600480360360208110156102b357600080fd5b5035600160a060020a0316610a04565b610212610a46565b610243600480360360208110156102e157600080fd5b5035600160a060020a0316610a4c565b610289610a80565b610301610aa1565b60408051600160a060020a039092168252519081900360200190f35b610289610ab0565b6103c86004803603602081101561033b57600080fd5b81019060208101813564010000000081111561035657600080fd5b82018360208201111561036857600080fd5b8035906020019184602083028401116401000000008311171561038a57600080fd5b919080806020026020016040519081016040528093929190818152602001838360200280828437600092019190915250929550610ac1945050505050565b604051808060200180602001838103835285818151815260200191508051906020019060200280838360005b8381101561040c5781810151838201526020016103f4565b50505050905001838103825284818151815260200191508051906020019060200280838360005b8381101561044b578181015183820152602001610433565b5050505090500194505050505060405180910390f35b6102436004803603604081101561047757600080fd5b5080359060200135610b71565b6103c86004803603604081101561049a57600080fd5b600160a060020a0382351691908101906040810160208201356401000000008111156104c557600080fd5b8201836020820111156104d757600080fd5b803590602001918460208302840111640100000000831117156104f957600080fd5b919080806020026020016040519081016040528093929190818152602001838360200280828437600092019190915250929550610c30945050505050565b6102126004803603602081101561054d57600080fd5b5035600160a060020a0316610cf8565b6102436004803603602081101561057357600080fd5b5035600160a060020a0316610d13565b610289610d77565b610212610d99565b610243600480360360208110156105a957600080fd5b5035600160a060020a0316610d9f565b610243600480360360208110156105cf57600080fd5b5035600160a060020a0316610dbe565b610301610df5565b6105ef610e9f565b60408051808201918290529060059060029082845b815481526020019060010190808311610604575b505050505090505b90565b3360009081526009602090815260409182902080548351818402810184019094528084526060939283018282801561061857602002820191906000526020600020905b8154600160a060020a03168152600190910190602001808311610666575050505050905090565b60005481565b61069b6109de565b15156106a657600080fd5b6004805475ff000000000000000000000000000000000000000000191675010000000000000000000000000000000000000000008315158102919091179182905560405160ff91909204161515907fafea44dec9885773880f5eb4a3fedd7bd68c771e24b3f46fcdfbd6620b8ea36990600090a250565b61072681610e04565b151561077c576040805160e560020a62461bcd02815260206004820152601560248201527f56657273696f6e206e6f742061636365707465642e0000000000000000000000604482015290519081900360640190fd5b6004547501000000000000000000000000000000000000000000900460ff16156107f0576040805160e560020a62461bcd02815260206004820152601760248201527f4576656e745265676973747279206973206c6f636b6564000000000000000000604482015290519081900360640190fd5b60045474010000000000000000000000000000000000000000900460ff16156108eb5760048054604080517f5c97f4a200000000000000000000000000000000000000000000000000000000815232938101939093526001602484015251600160a060020a0390911691635c97f4a2916044808301926020929190829003018186803b15801561087f57600080fd5b505afa158015610893573d6000803e3d6000fd5b505050506040513d60208110156108a957600080fd5b505115156108eb5760405160e560020a62461bcd028152600401808060200182810382526028815260200180610f166028913960400191505060405180910390fd5b6007805460018181019092557fa66cc928b5edb82af9bd49922954155ab7b0942694bea4ce44661d9a8736c68801805473ffffffffffffffffffffffffffffffffffffffff191633908117909155600081815260086020908152604091829020805460ff19169094179093558051918252517f7ea59f1dd19bb0d7e64ec3908e38d7fee5d3f165903640ab459a8f13116f97f6929181900390910190a150565b6109936109de565b151561099e57600080fd5b60048054911515740100000000000000000000000000000000000000000274ff000000000000000000000000000000000000000019909216919091179055565b3360009081526003602052604081205460ff16806109ff57506109ff610ab0565b905090565b610a0c6109de565b1515610a1757600080fd5b6004805473ffffffffffffffffffffffffffffffffffffffff1916600160a060020a0392909216919091179055565b60075490565b610a54610ab0565b1515610a5f57600080fd5b600160a060020a03166000908152600360205260409020805460ff19169055565b60045474010000000000000000000000000000000000000000900460ff1681565b600254600160a060020a031690565b600254600160a060020a0316331490565b60608060608351604051908082528060200260200182016040528015610af1578160200160208202803883390190505b50905060005b8451811015610b695760078582815181101515610b1057fe5b6020908102909101015181548110610b2457fe5b6000918252602090912001548251600160a060020a0390911690839083908110610b4a57fe5b600160a060020a03909216602092830290910190910152600101610af7565b509293915050565b610b796109de565b1515610b8457600080fd5b80821115610bdc576040805160e560020a62461bcd02815260206004820152601c60248201527f4d696e206d757374206265206d696e696572207468616e206d61782e00000000604482015290519081900360640190fd5b6040805180820190915282815260208101829052610bfe906005906002610ebd565b50604051819083907fa241adbb25ff959a07f325f9fbd11e879b3e301b03d88a705b1727f21c56aa1f90600090a35050565b60608060608351604051908082528060200260200182016040528015610c60578160200160208202803883390190505b50905060005b8451811015610cee57600160a060020a03861660009081526009602052604090208551869083908110610c9557fe5b6020908102909101015181548110610ca957fe5b6000918252602090912001548251600160a060020a0390911690839083908110610ccf57fe5b600160a060020a03909216602092830290910190910152600101610c66565b5092949293505050565b600160a060020a031660009081526009602052604090205490565b3360009081526008602052604090205460ff161515610d3157600080fd5b600160a060020a0316600090815260096020908152604082208054600181018255908352912001805473ffffffffffffffffffffffffffffffffffffffff191633179055565b6004547501000000000000000000000000000000000000000000900460ff1681565b60015481565b610da7610ab0565b1515610db257600080fd5b610dbb81610e21565b50565b610dc6610ab0565b1515610dd157600080fd5b600160a060020a03166000908152600360205260409020805460ff19166001179055565b600454600160a060020a031681565b6005546000908210801590610e1b57506006548211155b92915050565b600160a060020a0381161515610e3657600080fd5b600254604051600160a060020a038084169216907f8be0079c531659141344cd1fd0a4f28419497f9722a3daafe3b4186f6b6457e090600090a36002805473ffffffffffffffffffffffffffffffffffffffff1916600160a060020a0392909216919091179055565b60405180604001604052806002906020820280388339509192915050565b8260028101928215610eeb579160200282015b82811115610eeb578251825591602001919060010190610ed0565b50610ef7929150610efb565b5090565b61062091905b80821115610ef75760008155600101610f0156fe43726561746f72206e6f74207065726d697474656420746f207265676973746572206576656e742ea165627a7a72305820b48cbc80eb2eeb9a257bbfaaaadb97ff6ea4aa938e20197008c276779e78477a0029",
  "source": "pragma solidity ^0.5.5;\n\n\nimport \"./utility/StoringCreationMeta.sol\";\nimport \"./utility/Approvable.sol\";\nimport \"./UserRoles.sol\";\n\ncontract EventRegistry is StoringCreationMeta, Approvable {\n    address public userRoles;\n\n    // Specifies whether only allowed event creators are able to create events\n    bool public restricted;\n\n    // Prevents any new events to be added\n    bool public locked = false;\n\n    // Specifies the min & max accepted versions of VerityEvent FOR NEW EVENTS\n    // !! Change responsibly !!\n    uint[2] acceptedVersions = [1, 1];\n\n    address[] verityEvents;\n    mapping(address => bool) verityEventsMap;\n\n    mapping(address => address[]) userEvents;\n\n    event NewVerityEvent(address eventAddress);\n    event LockStatusChange(bool indexed _lock);\n    event AcceptedVersionsChange(uint indexed _min, uint indexed _max);\n\n    constructor(bool _restricted, address _userRoles) public {\n        userRoles = _userRoles;\n        restricted = _restricted;\n    }\n\n    function registerEvent(uint _version) public {\n        require(\n            _isAcceptedVersion(_version),\n            \"Version not accepted.\"\n        );\n        require(\n            locked == false,\n            \"EventRegistry is locked\"\n        );\n\n        if (restricted) {\n            require(\n                UserRoles(userRoles).hasRole(tx.origin, 1),\n                \"Creator not permitted to register event.\"\n            );\n        }\n        verityEvents.push(msg.sender);\n        verityEventsMap[msg.sender] = true;\n        emit NewVerityEvent(msg.sender);\n    }\n\n    function setAcceptedVersions(uint _min, uint _max) public onlyApproved {\n        require(\n            _min <= _max,\n            \"Min must be minier than max.\"\n        );\n        acceptedVersions = [_min, _max];\n        emit AcceptedVersionsChange(_min, _max);\n    }\n\n    function getAcceptedVersions() public view returns(uint[2] memory) {\n        return acceptedVersions;\n    }\n\n    function _isAcceptedVersion(uint _version) private view returns(bool) {\n        return _version >= acceptedVersions[0] &&\n                _version <= acceptedVersions[1];\n    }\n\n    function lockRegistry(bool _locked) public onlyApproved {\n        locked = _locked;\n        emit LockStatusChange(locked);\n    }\n\n    function setRestricted(bool _restricted) public onlyApproved {\n        restricted = _restricted;\n    }\n\n    function setUserRoles(address _userRoles) public onlyApproved {\n        userRoles = _userRoles;\n    }\n\n    function getUserEvents() public view returns(address[] memory) {\n        return userEvents[msg.sender];\n    }\n\n    function addEventToUser(address _user) external {\n        require(verityEventsMap[msg.sender]);\n\n        userEvents[_user].push(msg.sender);\n    }\n\n    function getEventsLength() public view returns(uint) {\n        return verityEvents.length;\n    }\n\n    function getEventsByIds(uint[] memory _ids) public view returns(uint[] memory, address[] memory) {\n        address[] memory _events = new address[](_ids.length);\n\n        for(uint i = 0; i < _ids.length; ++i) {\n            _events[i] = verityEvents[_ids[i]];\n        }\n\n        return (_ids, _events);\n    }\n\n    function getUserEventsLength(address _user)\n        public\n        view\n        returns(uint)\n    {\n        return userEvents[_user].length;\n    }\n\n    function getUserEventsByIds(address _user, uint[] memory _ids)\n        public\n        view\n        returns(uint[] memory, address[] memory)\n    {\n        address[] memory _events = new address[](_ids.length);\n\n        for(uint i = 0; i < _ids.length; ++i) {\n            _events[i] = userEvents[_user][_ids[i]];\n        }\n\n        return (_ids, _events);\n    }\n}",
  "sourcePath": "/Users/hiphop/code/verity-event/contracts/EventRegistry.sol",
  "compiler": {
    "name": "solc",
    "version": "0.5.5+commit.47a71e8f.Emscripten.clang"
  },
  "schemaVersion": "3.0.1",
  "updatedAt": "2019-03-27T12:12:36.923Z",
  "devdoc": {
    "methods": {
      "isOwner()": {
        "return": "true if `msg.sender` is the owner of the contract."
      },
      "owner()": {
        "return": "the address of the owner."
      },
      "transferOwnership(address)": {
        "details": "Allows the current owner to transfer control of the contract to a newOwner.",
        "params": {
          "newOwner": "The address to transfer ownership to."
        }
      }
    }
  },
  "userdoc": {
    "methods": {}
  }
}