{
  "contractName": "EventRegistry",
  "abi": [
    {
      "anonymous": false,
      "inputs": [
        {
          "indexed": false,
          "name": "eventAddress",
          "type": "address"
        }
      ],
      "name": "NewVerityEvent",
      "type": "event"
    },
    {
      "constant": false,
      "inputs": [],
      "name": "registerEvent",
      "outputs": [],
      "payable": false,
      "stateMutability": "nonpayable",
      "type": "function"
    },
    {
      "constant": true,
      "inputs": [],
      "name": "getUserEvents",
      "outputs": [
        {
          "name": "",
          "type": "address[]"
        }
      ],
      "payable": false,
      "stateMutability": "view",
      "type": "function"
    },
    {
      "constant": false,
      "inputs": [
        {
          "name": "_user",
          "type": "address"
        }
      ],
      "name": "addEventToUser",
      "outputs": [],
      "payable": false,
      "stateMutability": "nonpayable",
      "type": "function"
    },
    {
      "constant": true,
      "inputs": [],
      "name": "getEventsLength",
      "outputs": [
        {
          "name": "",
          "type": "uint256"
        }
      ],
      "payable": false,
      "stateMutability": "view",
      "type": "function"
    },
    {
      "constant": true,
      "inputs": [
        {
          "name": "_ids",
          "type": "uint256[]"
        }
      ],
      "name": "getEventsByIds",
      "outputs": [
        {
          "name": "",
          "type": "uint256[]"
        },
        {
          "name": "",
          "type": "address[]"
        }
      ],
      "payable": false,
      "stateMutability": "view",
      "type": "function"
    },
    {
      "constant": true,
      "inputs": [
        {
          "name": "_user",
          "type": "address"
        }
      ],
      "name": "getUserEventsLength",
      "outputs": [
        {
          "name": "",
          "type": "uint256"
        }
      ],
      "payable": false,
      "stateMutability": "view",
      "type": "function"
    },
    {
      "constant": true,
      "inputs": [
        {
          "name": "_user",
          "type": "address"
        },
        {
          "name": "_ids",
          "type": "uint256[]"
        }
      ],
      "name": "getUserEventsByIds",
      "outputs": [
        {
          "name": "",
          "type": "uint256[]"
        },
        {
          "name": "",
          "type": "address[]"
        }
      ],
      "payable": false,
      "stateMutability": "view",
      "type": "function"
    }
  ],
  "bytecode": "0x608060405234801561001057600080fd5b506106c3806100206000396000f3fe60806040526004361061007c577c010000000000000000000000000000000000000000000000000000000060003504630f977561811461008157806347fc216e146100e657806398c7458e1461010d578063b22528e414610256578063b37cc2f014610316578063b9d3514d14610349578063c4130ae01461037e575b600080fd5b34801561008d57600080fd5b50610096610393565b60408051602080825283518183015283519192839290830191858101910280838360005b838110156100d25781810151838201526020016100ba565b505050509050019250505060405180910390f35b3480156100f257600080fd5b506100fb6103fe565b60408051918252519081900360200190f35b34801561011957600080fd5b506101bd6004803603602081101561013057600080fd5b81019060208101813564010000000081111561014b57600080fd5b82018360208201111561015d57600080fd5b8035906020019184602083028401116401000000008311171561017f57600080fd5b919080806020026020016040519081016040528093929190818152602001838360200280828437600092019190915250929550610404945050505050565b604051808060200180602001838103835285818151815260200191508051906020019060200280838360005b838110156102015781810151838201526020016101e9565b50505050905001838103825284818151815260200191508051906020019060200280838360005b83811015610240578181015183820152602001610228565b5050505090500194505050505060405180910390f35b34801561026257600080fd5b506101bd6004803603604081101561027957600080fd5b600160a060020a0382351691908101906040810160208201356401000000008111156102a457600080fd5b8201836020820111156102b657600080fd5b803590602001918460208302840111640100000000831117156102d857600080fd5b9190808060200260200160405190810160405280939291908181526020018383602002808284376000920191909152509295506104b4945050505050565b34801561032257600080fd5b506100fb6004803603602081101561033957600080fd5b5035600160a060020a031661057c565b34801561035557600080fd5b5061037c6004803603602081101561036c57600080fd5b5035600160a060020a0316610597565b005b34801561038a57600080fd5b5061037c6105fb565b336000908152600260209081526040918290208054835181840281018401909452808452606093928301828280156103f457602002820191906000526020600020905b8154600160a060020a031681526001909101906020018083116103d6575b5050505050905090565b60005490565b60608060608351604051908082528060200260200182016040528015610434578160200160208202803883390190505b50905060005b84518110156104ac576000858281518110151561045357fe5b602090810290910101518154811061046757fe5b6000918252602090912001548251600160a060020a039091169083908390811061048d57fe5b600160a060020a0390921660209283029091019091015260010161043a565b509293915050565b606080606083516040519080825280602002602001820160405280156104e4578160200160208202803883390190505b50905060005b845181101561057257600160a060020a0386166000908152600260205260409020855186908390811061051957fe5b602090810290910101518154811061052d57fe5b6000918252602090912001548251600160a060020a039091169083908390811061055357fe5b600160a060020a039092166020928302909101909101526001016104ea565b5092949293505050565b600160a060020a031660009081526002602052604090205490565b3360009081526001602052604090205460ff1615156105b557600080fd5b600160a060020a0316600090815260026020908152604082208054600181018255908352912001805473ffffffffffffffffffffffffffffffffffffffff191633179055565b60008054600181810183557f290decd9548b62a8d60345a988386fc84ba6bc95484008f6362f93160ef3e563909101805473ffffffffffffffffffffffffffffffffffffffff1916339081179091558083526020828152604093849020805460ff1916909317909255825190815291517f7ea59f1dd19bb0d7e64ec3908e38d7fee5d3f165903640ab459a8f13116f97f69281900390910190a156fea165627a7a72305820a7b8a39c40eb5039ebcac47e938bf6626b963fcf9faebcfa8caa42266e9826d10029",
  "source": "pragma solidity ^0.5.0;\n\n\ncontract EventRegistry {\n    address[] verityEvents;\n    mapping(address => bool) verityEventsMap;\n\n    mapping(address => address[]) userEvents;\n\n    event NewVerityEvent(address eventAddress);\n\n    function registerEvent() public {\n        verityEvents.push(msg.sender);\n        verityEventsMap[msg.sender] = true;\n        emit NewVerityEvent(msg.sender);\n    }\n\n    function getUserEvents() public view returns(address[] memory) {\n        return userEvents[msg.sender];\n    }\n\n    function addEventToUser(address _user) external {\n        require(verityEventsMap[msg.sender]);\n\n        userEvents[_user].push(msg.sender);\n    }\n\n    function getEventsLength() public view returns(uint) {\n        return verityEvents.length;\n    }\n\n    function getEventsByIds(uint[] memory _ids) public view returns(uint[] memory, address[] memory) {\n        address[] memory _events = new address[](_ids.length);\n\n        for(uint i = 0; i < _ids.length; ++i) {\n            _events[i] = verityEvents[_ids[i]];\n        }\n\n        return (_ids, _events);\n    }\n\n    function getUserEventsLength(address _user)\n        public\n        view\n        returns(uint)\n    {\n        return userEvents[_user].length;\n    }\n\n    function getUserEventsByIds(address _user, uint[] memory _ids)\n        public\n        view\n        returns(uint[] memory, address[] memory)\n    {\n        address[] memory _events = new address[](_ids.length);\n\n        for(uint i = 0; i < _ids.length; ++i) {\n            _events[i] = userEvents[_user][_ids[i]];\n        }\n\n        return (_ids, _events);\n    }\n}",
  "sourcePath": "/Users/dejan/dev/verity-event/contracts/EventRegistry.sol",
  "compiler": {
    "name": "solc",
    "version": "0.5.1+commit.c8a2cb62.Emscripten.clang"
  },
  "schemaVersion": "3.0.0",
  "updatedAt": "2018-12-20T07:23:24.322Z",
  "devdoc": {
    "methods": {}
  },
  "userdoc": {
    "methods": {}
  }
}