{
  "contractName": "EventRegistry",
  "abi": [
    {
      "anonymous": false,
      "inputs": [
        {
          "indexed": false,
          "name": "eventAddress",
          "type": "address"
        }
      ],
      "name": "NewVerityEvent",
      "type": "event"
    },
    {
      "constant": false,
      "inputs": [],
      "name": "registerEvent",
      "outputs": [],
      "payable": false,
      "stateMutability": "nonpayable",
      "type": "function"
    },
    {
      "constant": true,
      "inputs": [],
      "name": "getUserEvents",
      "outputs": [
        {
          "name": "",
          "type": "address[]"
        }
      ],
      "payable": false,
      "stateMutability": "view",
      "type": "function"
    },
    {
      "constant": false,
      "inputs": [
        {
          "name": "_user",
          "type": "address"
        }
      ],
      "name": "addEventToUser",
      "outputs": [],
      "payable": false,
      "stateMutability": "nonpayable",
      "type": "function"
    }
  ],
  "bytecode": "0x608060405234801561001057600080fd5b5061027e806100206000396000f3006080604052600436106100565763ffffffff7c01000000000000000000000000000000000000000000000000000000006000350416630f977561811461005b578063b9d3514d146100c0578063c4130ae0146100f0575b600080fd5b34801561006757600080fd5b50610070610105565b60408051602080825283518183015283519192839290830191858101910280838360005b838110156100ac578181015183820152602001610094565b505050509050019250505060405180910390f35b3480156100cc57600080fd5b506100ee73ffffffffffffffffffffffffffffffffffffffff6004351661017d565b005b3480156100fc57600080fd5b506100ee6101cf565b3360009081526001602090815260409182902080548351818402810184019094528084526060939283018282801561017357602002820191906000526020600020905b815473ffffffffffffffffffffffffffffffffffffffff168152600190910190602001808311610148575b5050505050905090565b73ffffffffffffffffffffffffffffffffffffffff166000908152600160208181526040832080549283018155835290912001805473ffffffffffffffffffffffffffffffffffffffff191633179055565b600080546001810182559080527f290decd9548b62a8d60345a988386fc84ba6bc95484008f6362f93160ef3e56301805473ffffffffffffffffffffffffffffffffffffffff19163390811790915560408051918252517f7ea59f1dd19bb0d7e64ec3908e38d7fee5d3f165903640ab459a8f13116f97f69181900360200190a15600a165627a7a723058208461ffd6a8440eb754b321d749ab22aadb52656c054fe0b60ca2e3639435c2580029",
  "source": "pragma solidity 0.4.24;\n\n\ncontract EventRegistry {\n    address[] verityEvents;\n\n    mapping(address => address[]) userEvents;\n\n    event NewVerityEvent(address eventAddress);\n\n    function registerEvent() public {\n        verityEvents.push(msg.sender);\n        emit NewVerityEvent(msg.sender);\n    }\n\n    function getUserEvents() public view returns(address[]) {\n        return userEvents[msg.sender];\n    }\n\n    function addEventToUser(address _user) public {\n        userEvents[_user].push(msg.sender);\n    }\n}",
  "sourcePath": "/Users/nejc/gitlab/verity/verity-contracts/verity-event/contracts/EventRegistry.sol",
  "compiler": {
    "name": "solc",
    "version": "0.4.24+commit.e67f0147.Emscripten.clang"
  },
  "schemaVersion": "2.0.1",
  "updatedAt": "2018-10-10T09:00:52.407Z"
}