{
  "contractName": "EventRegistry",
  "abi": [
    {
      "anonymous": false,
      "inputs": [
        {
          "indexed": false,
          "name": "eventAddress",
          "type": "address"
        }
      ],
      "name": "NewVerityEvent",
      "type": "event"
    },
    {
      "constant": false,
      "inputs": [],
      "name": "registerEvent",
      "outputs": [],
      "payable": false,
      "stateMutability": "nonpayable",
      "type": "function"
    }
  ],
  "bytecode": "0x6080604052348015600f57600080fd5b506101068061001f6000396000f300608060405260043610603e5763ffffffff7c0100000000000000000000000000000000000000000000000000000000600035041663c4130ae081146043575b600080fd5b348015604e57600080fd5b5060556057565b005b600080546001810182559080527f290decd9548b62a8d60345a988386fc84ba6bc95484008f6362f93160ef3e56301805473ffffffffffffffffffffffffffffffffffffffff19163390811790915560408051918252517f7ea59f1dd19bb0d7e64ec3908e38d7fee5d3f165903640ab459a8f13116f97f69181900360200190a15600a165627a7a7230582042b5b7db7d4aea540a258454e31aea2c4f8ad41bf20c363a2b2960058b8c5af40029",
  "source": "pragma solidity 0.4.24;\n\n\ncontract EventRegistry {\n    address[] verityEvents;\n\n    event NewVerityEvent(address eventAddress);\n\n    function registerEvent() public {\n        verityEvents.push(msg.sender);\n        emit NewVerityEvent(msg.sender);\n    }\n}",
  "sourcePath": "/Users/nejc/gitlab/verity/verity-contracts/verity-event/contracts/EventRegistry.sol",
  "compiler": {
    "name": "solc",
    "version": "0.4.24+commit.e67f0147.Emscripten.clang"
  },
  "schemaVersion": "2.0.1",
  "updatedAt": "2018-09-27T12:29:53.335Z"
}