{
  "contractName": "Implementation",
  "abi": [
    {
      "constant": true,
      "inputs": [],
      "name": "rewardsValidationRound",
      "outputs": [
        {
          "name": "",
          "type": "uint256"
        }
      ],
      "payable": false,
      "stateMutability": "view",
      "type": "function"
    },
    {
      "constant": true,
      "inputs": [],
      "name": "eventRegistryAddress",
      "outputs": [
        {
          "name": "",
          "type": "address"
        }
      ],
      "payable": false,
      "stateMutability": "view",
      "type": "function"
    },
    {
      "constant": true,
      "inputs": [],
      "name": "eventCanceled",
      "outputs": [
        {
          "name": "",
          "type": "bool"
        }
      ],
      "payable": false,
      "stateMutability": "view",
      "type": "function"
    },
    {
      "constant": true,
      "inputs": [],
      "name": "dataFeedHash",
      "outputs": [
        {
          "name": "",
          "type": "string"
        }
      ],
      "payable": false,
      "stateMutability": "view",
      "type": "function"
    },
    {
      "constant": true,
      "inputs": [],
      "name": "ipfsEventHash",
      "outputs": [
        {
          "name": "",
          "type": "string"
        }
      ],
      "payable": false,
      "stateMutability": "view",
      "type": "function"
    },
    {
      "constant": true,
      "inputs": [],
      "name": "stakingAmount",
      "outputs": [
        {
          "name": "",
          "type": "uint256"
        }
      ],
      "payable": false,
      "stateMutability": "view",
      "type": "function"
    },
    {
      "constant": true,
      "inputs": [],
      "name": "eventName",
      "outputs": [
        {
          "name": "",
          "type": "string"
        }
      ],
      "payable": false,
      "stateMutability": "view",
      "type": "function"
    },
    {
      "constant": true,
      "inputs": [],
      "name": "owner",
      "outputs": [
        {
          "name": "",
          "type": "address"
        }
      ],
      "payable": false,
      "stateMutability": "view",
      "type": "function"
    },
    {
      "constant": true,
      "inputs": [],
      "name": "tokenAddress",
      "outputs": [
        {
          "name": "",
          "type": "address"
        }
      ],
      "payable": false,
      "stateMutability": "view",
      "type": "function"
    },
    {
      "constant": true,
      "inputs": [],
      "name": "leftoversRecoverableAfter",
      "outputs": [
        {
          "name": "",
          "type": "uint256"
        }
      ],
      "payable": false,
      "stateMutability": "view",
      "type": "function"
    },
    {
      "payable": true,
      "stateMutability": "payable",
      "type": "fallback"
    },
    {
      "anonymous": false,
      "inputs": [
        {
          "indexed": false,
          "name": "newState",
          "type": "uint8"
        }
      ],
      "name": "StateTransition",
      "type": "event"
    },
    {
      "anonymous": false,
      "inputs": [
        {
          "indexed": false,
          "name": "wallet",
          "type": "address"
        }
      ],
      "name": "JoinEvent",
      "type": "event"
    },
    {
      "anonymous": false,
      "inputs": [
        {
          "indexed": false,
          "name": "recipient",
          "type": "address"
        }
      ],
      "name": "ClaimReward",
      "type": "event"
    },
    {
      "anonymous": false,
      "inputs": [
        {
          "indexed": true,
          "name": "byAddress",
          "type": "address"
        },
        {
          "indexed": false,
          "name": "description",
          "type": "string"
        }
      ],
      "name": "Error",
      "type": "event"
    },
    {
      "anonymous": false,
      "inputs": [
        {
          "indexed": false,
          "name": "description",
          "type": "string"
        }
      ],
      "name": "EventFailed",
      "type": "event"
    },
    {
      "anonymous": false,
      "inputs": [
        {
          "indexed": false,
          "name": "validationRound",
          "type": "uint256"
        }
      ],
      "name": "ValidationStarted",
      "type": "event"
    },
    {
      "anonymous": false,
      "inputs": [
        {
          "indexed": false,
          "name": "validationRound",
          "type": "uint256"
        },
        {
          "indexed": false,
          "name": "newMaster",
          "type": "address"
        }
      ],
      "name": "ValidationRestart",
      "type": "event"
    },
    {
      "anonymous": false,
      "inputs": [
        {
          "indexed": false,
          "name": "byAddress",
          "type": "address"
        }
      ],
      "name": "DisputeTriggered",
      "type": "event"
    },
    {
      "anonymous": false,
      "inputs": [
        {
          "indexed": false,
          "name": "recipient",
          "type": "address"
        }
      ],
      "name": "ClaimStake",
      "type": "event"
    },
    {
      "constant": false,
      "inputs": [],
      "name": "joinEvent",
      "outputs": [],
      "payable": false,
      "stateMutability": "nonpayable",
      "type": "function"
    },
    {
      "constant": true,
      "inputs": [
        {
          "name": "_user",
          "type": "address"
        }
      ],
      "name": "isParticipating",
      "outputs": [
        {
          "name": "",
          "type": "bool"
        }
      ],
      "payable": false,
      "stateMutability": "view",
      "type": "function"
    },
    {
      "constant": true,
      "inputs": [],
      "name": "getParticipants",
      "outputs": [
        {
          "name": "",
          "type": "address[]"
        }
      ],
      "payable": false,
      "stateMutability": "view",
      "type": "function"
    },
    {
      "constant": true,
      "inputs": [],
      "name": "getEventTimes",
      "outputs": [
        {
          "name": "",
          "type": "uint256[5]"
        }
      ],
      "payable": false,
      "stateMutability": "view",
      "type": "function"
    },
    {
      "constant": false,
      "inputs": [
        {
          "name": "_addresses",
          "type": "address[]"
        },
        {
          "name": "_etherRewards",
          "type": "uint256[]"
        },
        {
          "name": "_tokenRewards",
          "type": "uint256[]"
        }
      ],
      "name": "setRewards",
      "outputs": [],
      "payable": false,
      "stateMutability": "nonpayable",
      "type": "function"
    },
    {
      "constant": false,
      "inputs": [
        {
          "name": "rewardsHash",
          "type": "string"
        }
      ],
      "name": "markRewardsSet",
      "outputs": [],
      "payable": false,
      "stateMutability": "nonpayable",
      "type": "function"
    },
    {
      "constant": false,
      "inputs": [
        {
          "name": "validationRound",
          "type": "uint256"
        }
      ],
      "name": "approveRewards",
      "outputs": [],
      "payable": false,
      "stateMutability": "nonpayable",
      "type": "function"
    },
    {
      "constant": false,
      "inputs": [
        {
          "name": "validationRound",
          "type": "uint256"
        },
        {
          "name": "altHash",
          "type": "string"
        }
      ],
      "name": "rejectRewards",
      "outputs": [],
      "payable": false,
      "stateMutability": "nonpayable",
      "type": "function"
    },
    {
      "constant": false,
      "inputs": [],
      "name": "triggerDispute",
      "outputs": [],
      "payable": false,
      "stateMutability": "nonpayable",
      "type": "function"
    },
    {
      "constant": true,
      "inputs": [],
      "name": "requiredNextDisputeAmount",
      "outputs": [
        {
          "name": "",
          "type": "uint256"
        }
      ],
      "payable": false,
      "stateMutability": "view",
      "type": "function"
    },
    {
      "constant": true,
      "inputs": [],
      "name": "getEventResolvers",
      "outputs": [
        {
          "name": "",
          "type": "address[]"
        }
      ],
      "payable": false,
      "stateMutability": "view",
      "type": "function"
    },
    {
      "constant": true,
      "inputs": [],
      "name": "isMasterNode",
      "outputs": [
        {
          "name": "",
          "type": "bool"
        }
      ],
      "payable": false,
      "stateMutability": "view",
      "type": "function"
    },
    {
      "constant": true,
      "inputs": [],
      "name": "getReward",
      "outputs": [
        {
          "name": "",
          "type": "uint256[2]"
        }
      ],
      "payable": false,
      "stateMutability": "view",
      "type": "function"
    },
    {
      "constant": true,
      "inputs": [],
      "name": "getRewardsIndex",
      "outputs": [
        {
          "name": "",
          "type": "address[]"
        }
      ],
      "payable": false,
      "stateMutability": "view",
      "type": "function"
    },
    {
      "constant": true,
      "inputs": [
        {
          "name": "_addresses",
          "type": "address[]"
        }
      ],
      "name": "getRewards",
      "outputs": [
        {
          "name": "",
          "type": "uint256[]"
        },
        {
          "name": "",
          "type": "uint256[]"
        }
      ],
      "payable": false,
      "stateMutability": "view",
      "type": "function"
    },
    {
      "constant": false,
      "inputs": [],
      "name": "claimReward",
      "outputs": [],
      "payable": false,
      "stateMutability": "nonpayable",
      "type": "function"
    },
    {
      "constant": false,
      "inputs": [],
      "name": "claimFailed",
      "outputs": [],
      "payable": false,
      "stateMutability": "nonpayable",
      "type": "function"
    },
    {
      "constant": false,
      "inputs": [
        {
          "name": "_hash",
          "type": "string"
        }
      ],
      "name": "setDataFeedHash",
      "outputs": [],
      "payable": false,
      "stateMutability": "nonpayable",
      "type": "function"
    },
    {
      "constant": false,
      "inputs": [
        {
          "name": "_results",
          "type": "bytes32[]"
        }
      ],
      "name": "setResults",
      "outputs": [],
      "payable": false,
      "stateMutability": "nonpayable",
      "type": "function"
    },
    {
      "constant": true,
      "inputs": [],
      "name": "getResults",
      "outputs": [
        {
          "name": "",
          "type": "bytes32[]"
        }
      ],
      "payable": false,
      "stateMutability": "view",
      "type": "function"
    },
    {
      "constant": true,
      "inputs": [],
      "name": "getState",
      "outputs": [
        {
          "name": "",
          "type": "uint256"
        }
      ],
      "payable": false,
      "stateMutability": "view",
      "type": "function"
    },
    {
      "constant": true,
      "inputs": [],
      "name": "getBalance",
      "outputs": [
        {
          "name": "",
          "type": "uint256[2]"
        }
      ],
      "payable": false,
      "stateMutability": "view",
      "type": "function"
    },
    {
      "constant": true,
      "inputs": [],
      "name": "getEventCategory",
      "outputs": [
        {
          "name": "",
          "type": "bytes32[2]"
        }
      ],
      "payable": false,
      "stateMutability": "view",
      "type": "function"
    },
    {
      "constant": true,
      "inputs": [],
      "name": "getConsensusRules",
      "outputs": [
        {
          "name": "",
          "type": "uint256[6]"
        }
      ],
      "payable": false,
      "stateMutability": "view",
      "type": "function"
    },
    {
      "constant": true,
      "inputs": [],
      "name": "getDisputeData",
      "outputs": [
        {
          "name": "",
          "type": "uint256[5]"
        },
        {
          "name": "",
          "type": "address"
        }
      ],
      "payable": false,
      "stateMutability": "view",
      "type": "function"
    },
    {
      "constant": false,
      "inputs": [],
      "name": "triggerStateChange",
      "outputs": [],
      "payable": false,
      "stateMutability": "nonpayable",
      "type": "function"
    },
    {
      "constant": false,
      "inputs": [],
      "name": "recoverLeftovers",
      "outputs": [],
      "payable": false,
      "stateMutability": "nonpayable",
      "type": "function"
    },
    {
      "constant": true,
      "inputs": [],
      "name": "getRequiredRoles",
      "outputs": [
        {
          "name": "",
          "type": "uint256[]"
        }
      ],
      "payable": false,
      "stateMutability": "view",
      "type": "function"
    },
    {
      "constant": false,
      "inputs": [],
      "name": "cancelEvent",
      "outputs": [],
      "payable": false,
      "stateMutability": "nonpayable",
      "type": "function"
    }
  ],
  "bytecode": "0x60806040526006805460ff19908116909155602f8054909116905534801561002657600080fd5b50614610806100366000396000f3fe60806040526004361061024c576000357c010000000000000000000000000000000000000000000000000000000090048063739a3e021161014b578063b88a802f116100c8578063f38a803f1161008c578063f38a803f14610c3d578063f4caee8814610c52578063f9010d1914610c85578063fb6c953714610c9a578063fce1a10c14610caf5761024c565b8063b88a802f14610b83578063d563f0c514610b98578063d6e9b01914610bad578063e0807f8914610c13578063efba9bd214610c285761024c565b80638da5cb5b1161010f5780638da5cb5b14610a555780639d76ea5814610a6a578063a77ae83914610a7f578063ab95b58614610aa9578063ac88490214610ad35761024c565b8063739a3e021461093257806374539f98146109475780638043c9c01461095c5780638126cb1e1461097157806381c2d87514610a2b5761024c565b80634227357c116101d95780634b766b951161019d5780634b766b95146106f7578063510ccb43146107aa57806352f91acf146108f357806354e33cf0146109085780635aa68ac01461091d5761024c565b80634227357c1461052b57806342380eaf146105b5578063437933cc146105ca57806345f99d511461067d5780634717f97c146106925761024c565b8063148b597c11610220578063148b597c1461031f578063181b3f5a146103345780631865c57d146103495780631a0ddce91461035e5780633d18b912146105165761024c565b8062f161421461024e578063073f03fb1461027557806311e956c8146102a657806312065fe0146102cf575b005b34801561025a57600080fd5b50610263610cc4565b60408051918252519081900360200190f35b34801561028157600080fd5b5061028a610cca565b60408051600160a060020a039092168252519081900360200190f35b3480156102b257600080fd5b506102bb610cd9565b604080519115158252519081900360200190f35b3480156102db57600080fd5b506102e4610ceb565b6040518082600260200280838360005b8381101561030c5781810151838201526020016102f4565b5050505090500191505060405180910390f35b34801561032b57600080fd5b506102bb610d9b565b34801561034057600080fd5b50610263610da9565b34801561035557600080fd5b50610263610df4565b34801561036a57600080fd5b5061024c6004803603606081101561038157600080fd5b81019060208101813564010000000081111561039c57600080fd5b8201836020820111156103ae57600080fd5b803590602001918460208302840111640100000000831117156103d057600080fd5b919080806020026020016040519081016040528093929190818152602001838360200280828437600092019190915250929594936020810193503591505064010000000081111561042057600080fd5b82018360208201111561043257600080fd5b8035906020019184602083028401116401000000008311171561045457600080fd5b91908080602002602001604051908101604052809392919081815260200183836020028082843760009201919091525092959493602081019350359150506401000000008111156104a457600080fd5b8201836020820111156104b657600080fd5b803590602001918460208302840111640100000000831117156104d857600080fd5b919080806020026020016040519081016040528093929190818152602001838360200280828437600092019190915250929550610e0d945050505050565b34801561052257600080fd5b506102e4611181565b34801561053757600080fd5b506105406111c3565b6040805160208082528351818301528351919283929083019185019080838360005b8381101561057a578181015183820152602001610562565b50505050905090810190601f1680156105a75780820380516001836020036101000a031916815260200191505b509250505060405180910390f35b3480156105c157600080fd5b50610540611251565b3480156105d657600080fd5b5061024c600480360360208110156105ed57600080fd5b81019060208101813564010000000081111561060857600080fd5b82018360208201111561061a57600080fd5b8035906020019184600183028401116401000000008311171561063c57600080fd5b91908080601f0160208091040260200160405190810160405280939291908181526020018383808284376000920191909152509295506112ac945050505050565b34801561068957600080fd5b5061024c6112da565b34801561069e57600080fd5b506106a7611623565b60408051602080825283518183015283519192839290830191858101910280838360005b838110156106e35781810151838201526020016106cb565b505050509050019250505060405180910390f35b34801561070357600080fd5b5061024c6004803603602081101561071a57600080fd5b81019060208101813564010000000081111561073557600080fd5b82018360208201111561074757600080fd5b8035906020019184600183028401116401000000008311171561076957600080fd5b91908080601f01602080910402602001604051908101604052809392919081815260200183838082843760009201919091525092955061167b945050505050565b3480156107b657600080fd5b5061085a600480360360208110156107cd57600080fd5b8101906020810181356401000000008111156107e857600080fd5b8201836020820111156107fa57600080fd5b8035906020019184602083028401116401000000008311171561081c57600080fd5b919080806020026020016040519081016040528093929190818152602001838360200280828437600092019190915250929550611906945050505050565b604051808060200180602001838103835285818151815260200191508051906020019060200280838360005b8381101561089e578181015183820152602001610886565b50505050905001838103825284818151815260200191508051906020019060200280838360005b838110156108dd5781810151838201526020016108c5565b5050505090500194505050505060405180910390f35b3480156108ff57600080fd5b5061024c611a41565b34801561091457600080fd5b506106a7611f5c565b34801561092957600080fd5b506106a7611fbd565b34801561093e57600080fd5b5061026361201d565b34801561095357600080fd5b506106a7612023565b34801561096857600080fd5b50610540612083565b34801561097d57600080fd5b5061024c6004803603604081101561099457600080fd5b813591908101906040810160208201356401000000008111156109b657600080fd5b8201836020820111156109c857600080fd5b803590602001918460018302840111640100000000831117156109ea57600080fd5b91908080601f0160208091040260200160405190810160405280939291908181526020018383808284376000920191909152509295506120de945050505050565b348015610a3757600080fd5b50610a4061244e565b60405181518152808260c080838360206102f4565b348015610a6157600080fd5b5061028a6124a4565b348015610a7657600080fd5b5061028a6124b3565b348015610a8b57600080fd5b5061024c60048036036020811015610aa257600080fd5b50356124c2565b348015610ab557600080fd5b50610abe6126e4565b60405181518152808260a080838360206102f4565b348015610adf57600080fd5b5061024c60048036036020811015610af657600080fd5b810190602081018135640100000000811115610b1157600080fd5b820183602082011115610b2357600080fd5b80359060200191846020830284011164010000000083111715610b4557600080fd5b919080806020026020016040519081016040528093929190818152602001838360200280828437600092019190915250929550612723945050505050565b348015610b8f57600080fd5b5061024c612976565b348015610ba457600080fd5b5061024c612dfc565b348015610bb957600080fd5b50610bc2612f15565b604051808360a080838360005b83811015610be7578181015183820152602001610bcf565b5050505090500182600160a060020a0316600160a060020a031681526020019250505060405180910390f35b348015610c1f57600080fd5b506106a7612f61565b348015610c3457600080fd5b5061024c612fb7565b348015610c4957600080fd5b5061026361328c565b348015610c5e57600080fd5b506102bb60048036036020811015610c7557600080fd5b5035600160a060020a0316613292565b348015610c9157600080fd5b5061024c6132b4565b348015610ca657600080fd5b5061024c6138f9565b348015610cbb57600080fd5b506102e4613a9d565b600f5481565b600254600160a060020a031681565b600754600160a060020a031633145b90565b610cf3614274565b604080518082018252308031825260015483517f70a08231000000000000000000000000000000000000000000000000000000008152600481019290925292519192602080850193600160a060020a03909216926370a082319260248083019392829003018186803b158015610d6857600080fd5b505afa158015610d7c573d6000803e3d6000fd5b505050506040513d6020811015610d9257600080fd5b50519052905090565b602f54610100900460ff1681565b601e546000901515610dbe5750601c54610ce8565b60205460011415610de757601e54601c54811515610dd857fe5b04601c60000154019050610ce8565b50602054601c5402610ce8565b602f5460009060ff166005811115610e0857fe5b905090565b600754600160a060020a03163314610e6f576040805160e560020a62461bcd02815260206004820152601d60248201527f4e6f7420612064657369676e61746564206d6173746572206e6f64652e000000604482015290519081900360640190fd5b6000602f5460ff166005811115610e8257fe5b148015610e9157506015544210155b15610e9e57610e9e613ad2565b6001602f5460ff166005811115610eb157fe5b148015610ec057506016544210155b15610f00576029546011541015610ef857610ef3606060405190810160405280603381526020016145b260339139613bac565b610f00565b610f00613ad2565b6003602f5460ff166005811115610f1357fe5b148015610f225750601f544210155b15610f2f57610f2f613ad2565b6002602f5460ff166005811115610f4257fe5b148015610f555750601a54601854014210155b15610f8657610f86604080519081016040528060208152602001600080516020614467833981519152815250613bac565b602f5460029060ff166005811115610f9a57fe5b816005811115610fa657fe5b14610fe55760405160e560020a62461bcd0281526004018080602001828103825260248152602001806144436024913960400191505060405180910390fd5b82518451148015610ff7575081518451145b151561100257600080fd5b600060065460ff16600281111561101557fe5b146110545760405160e560020a62461bcd02815260040180806020018281038252602681526020018061458c6026913960400191505060405180910390fd5b60005b845181101561117a57838181518110151561106e57fe5b9060200190602002015160136000878481518110151561108a57fe5b602090810291909101810151600160a060020a03168252818101929092526040908101600090812081805290925290205582518390829081106110c957fe5b906020019060200201516013600087848151811015156110e557fe5b602090810291909101810151600160a060020a03168252818101929092526040908101600090812060018252909252902055845160149086908390811061112857fe5b602090810291909101810151825460018082018555600094855292909320909201805473ffffffffffffffffffffffffffffffffffffffff1916600160a060020a039093169290921790915501611057565b5050505050565b611189614274565b5060408051808201825233600090815260136020908152838220828052808252848320548452600183528152929020549181019190915290565b6027805460408051602060026001851615610100026000190190941693909304601f810184900484028201840190925281815292918301828280156112495780601f1061121e57610100808354040283529160200191611249565b820191906000526020600020905b81548152906001019060200180831161122c57829003601f168201915b505050505081565b6019805460408051602060026001851615610100026000190190941693909304601f810184900484028201840190925281815292918301828280156112495780601f1061121e57610100808354040283529160200191611249565b600054600160a060020a031633146112c357600080fd5b80516112d690602790602084019061428f565b5050565b6112e333613292565b1515611339576040805160e560020a62461bcd02815260206004820152601260248201527f4e6f742070617274696369706174696e672e0000000000000000000000000000604482015290519081900360640190fd5b6000602f5460ff16600581111561134c57fe5b14801561135b57506015544210155b1561136857611368613ad2565b6001602f5460ff16600581111561137b57fe5b14801561138a57506016544210155b156113ca5760295460115410156113c2576113bd606060405190810160405280603381526020016145b260339139613bac565b6113ca565b6113ca613ad2565b6003602f5460ff1660058111156113dd57fe5b1480156113ec5750601f544210155b156113f9576113f9613ad2565b6002602f5460ff16600581111561140c57fe5b14801561141f5750601a54601854014210155b1561145057611450604080519081016040528060208152602001600080516020614467833981519152815250613bac565b602f5460059060ff168181111561146357fe5b81600581111561146f57fe5b146114ae5760405160e560020a62461bcd0281526004018080602001828103825260248152602001806144436024913960400191505060405180910390fd5b6000601b5411806114d65750601e5460001080156114d65750602254600160a060020a031633145b151561152c576040805160e560020a62461bcd02815260206004820152601160248201527f4e6f207374616b6520746f20636c61696d000000000000000000000000000000604482015290519081900360640190fd5b602254600090600160a060020a031633141561154757601c54015b601b546001546040805160e060020a63a9059cbb028152336004820152939092016024840181905291519192600160a060020a039091169163a9059cbb916044808201926020929091908290030181600087803b1580156115a757600080fd5b505af11580156115bb573d6000803e3d6000fd5b505050506040513d60208110156115d157600080fd5b505033600081815260106020908152604091829020805460ff19169055815192835290517f5a53668be860a256c7ff92bff48881a9db38994032e2b90e5a0bdd51921fbeb79281900390910190a15050565b6060602880548060200260200160405190810160405280929190818152602001828054801561167157602002820191906000526020600020905b81548152602001906001019080831161165d575b5050505050905090565b600754600160a060020a031633146116dd576040805160e560020a62461bcd02815260206004820152601d60248201527f4e6f7420612064657369676e61746564206d6173746572206e6f64652e000000604482015290519081900360640190fd5b6000602f5460ff1660058111156116f057fe5b1480156116ff57506015544210155b1561170c5761170c613ad2565b6001602f5460ff16600581111561171f57fe5b14801561172e57506016544210155b1561176e57602954601154101561176657611761606060405190810160405280603381526020016145b260339139613bac565b61176e565b61176e613ad2565b6003602f5460ff16600581111561178157fe5b1480156117905750601f544210155b1561179d5761179d613ad2565b6002602f5460ff1660058111156117b057fe5b1480156117c35750601a54601854014210155b156117f4576117f4604080519081016040528060208152602001600080516020614467833981519152815250613bac565b602f5460029060ff16600581111561180857fe5b81600581111561181457fe5b146118535760405160e560020a62461bcd0281526004018080602001828103825260248152602001806144436024913960400191505060405180910390fd5b600060065460ff16600281111561186657fe5b146118a55760405160e560020a62461bcd02815260040180806020018281038252602681526020018061458c6026913960400191505060405180910390fd5b81516118b890600890602085019061428f565b50600160098190556006805460ff19169091179055600f5460408051918252517f47c2e9e59e6d2347f314927d02f36b95696a09b5f0ac0bae119ff5ae937016559181900360200190a15050565b60608060608351604051908082528060200260200182016040528015611936578160200160208202803883390190505b50905060608451604051908082528060200260200182016040528015611966578160200160208202803883390190505b50905060005b8551811015611a365760136000878381518110151561198757fe5b602090810291909101810151600160a060020a03168252818101929092526040908101600090812081805290925290205483518490839081106119c657fe5b6020908102909101015285516013906000908890849081106119e457fe5b602090810291909101810151600160a060020a031682528181019290925260409081016000908120600182529092529020548251839083908110611a2457fe5b6020908102909101015260010161196c565b509092509050915091565b6000602f5460ff166005811115611a5457fe5b148015611a6357506015544210155b15611a7057611a70613ad2565b6001602f5460ff166005811115611a8357fe5b148015611a9257506016544210155b15611ad2576029546011541015611aca57611ac5606060405190810160405280603381526020016145b260339139613bac565b611ad2565b611ad2613ad2565b6003602f5460ff166005811115611ae557fe5b148015611af45750601f544210155b15611b0157611b01613ad2565b6002602f5460ff166005811115611b1457fe5b148015611b275750601a54601854014210155b15611b5857611b58604080519081016040528060208152602001600080516020614467833981519152815250613bac565b611b6133613292565b1515611bb7576040805160e560020a62461bcd02815260206004820152601260248201527f4e6f742070617274696369706174696e672e0000000000000000000000000000604482015290519081900360640190fd5b602f5460039060ff166005811115611bcb57fe5b816005811115611bd757fe5b14611c165760405160e560020a62461bcd0281526004018080602001828103825260248152602001806144436024913960400191505060405180910390fd5b6000611c20610da9565b600154604080517fdd62ed3e00000000000000000000000000000000000000000000000000000000815233600482015230602482015290519293508392600160a060020a039092169163dd62ed3e91604480820192602092909190829003018186803b158015611c8f57600080fd5b505afa158015611ca3573d6000803e3d6000fd5b505050506040513d6020811015611cb957600080fd5b50511015611cfb5760405160e560020a62461bcd0281526004018080602001828103825260258152602001806144876025913960400191505060405180910390fd5b3360009081526021602052604090205460ff1615611d63576040805160e560020a62461bcd02815260206004820152601c60248201527f416c726561647920747269676765726564206120646973707574652e00000000604482015290519081900360640190fd5b601e5460001015611dfa57600154602254601c546040805160e060020a63a9059cbb028152600160a060020a039384166004820152602481019290925251919092169163a9059cbb9160448083019260209291908290030181600087803b158015611dcd57600080fd5b505af1158015611de1573d6000803e3d6000fd5b505050506040513d6020811015611df757600080fd5b50505b601c818155601e80546001908101909155336000818152602160209081526040808320805460ff1916861790556022805473ffffffffffffffffffffffffffffffffffffffff1916851790559354945484517f23b872dd000000000000000000000000000000000000000000000000000000008152600481019490945230602485015260448401529251600160a060020a03909416936323b872dd936064808501949193918390030190829087803b158015611eb557600080fd5b505af1158015611ec9573d6000803e3d6000fd5b505050506040513d6020811015611edf57600080fd5b50611eea9050613cf2565b611ef2613e0f565b602f805460ff191660011790556023544281016017819055601681905501601855611f1b613ebf565b602e805460ff191690556040805133815290517ff6d97c5e133e50668a6b3607d8748ef6599c3303babb2b08a515a5a67369f45f9181900360200190a15050565b6060601480548060200260200160405190810160405280929190818152602001828054801561167157602002820191906000526020600020905b8154600160a060020a03168152600190910190602001808311611f96575050505050905090565b6060601180548060200260200160405190810160405280929190818152602001828054801561167157602002820191906000526020600020908154600160a060020a03168152600190910190602001808311611f96575050505050905090565b601b5481565b6060600380548060200260200160405190810160405280929190818152602001828054801561167157602002820191906000526020600020908154600160a060020a03168152600190910190602001808311611f96575050505050905090565b6024805460408051602060026001851615610100026000190190941693909304601f810184900484028201840190925281815292918301828280156112495780601f1061121e57610100808354040283529160200191611249565b602f5460029060ff1660058111156120f257fe5b8160058111156120fe57fe5b1461213d5760405160e560020a62461bcd0281526004018080602001828103825260248152602001806144436024913960400191505060405180910390fd5b8261214733613f07565b80156121585750612156610cd9565b155b15156121ae576040805160e560020a62461bcd02815260206004820152601b60248201527f4e6f7420612076616c69642073656e64657220616464726573732e0000000000604482015290519081900360640190fd5b600160065460ff1660028111156121c157fe5b14612216576040805160e560020a62461bcd02815260206004820152601760248201527f4e6f742076616c69646174696e6720726577617264732e000000000000000000604482015290519081900360640190fd5b600f54811461226f576040805160e560020a62461bcd02815260206004820152601a60248201527f56616c69646174696f6e20726f756e64206d69736d617463682e000000000000604482015290519081900360640190fd5b600f54336000908152600c6020526040902054106122d7576040805160e560020a62461bcd02815260206004820152601d60248201527f416c726561647920766f74656420666f72207468697320726f756e642e000000604482015290519081900360640190fd5b600a80546001019055600f54336000908152600c602090815260409182902092909255518451600e9286929182918401908083835b6020831061232b5780518252601f19909201916020918201910161230c565b51815160209384036101000a600019018019909216911617905292019485525060405193849003019092205460ff1615159150612440905057600b80546001810180835560009290925284516123a8917f0175b7a638427703f0dbe7bb9bbf987a2551717b34e79f33b5b1008d1fa01db90190602087019061428f565b50506007600601836040518082805190602001908083835b602083106123df5780518252601f1990920191602091820191016123c0565b51815160001960209485036101000a0190811690199190911617905292019485525060405193849003810190932080546001810182556000918252939020909201805473ffffffffffffffffffffffffffffffffffffffff19163317905550505b612448613f64565b50505050565b61245661430d565b6040805160c0810182526029548152602a546020820152602b5491810191909152602c546060820152602d546080820152602e5460a082019060ff16600181111561249d57fe5b9052905090565b600054600160a060020a031681565b600154600160a060020a031681565b602f5460029060ff1660058111156124d657fe5b8160058111156124e257fe5b146125215760405160e560020a62461bcd0281526004018080602001828103825260248152602001806144436024913960400191505060405180910390fd5b8161252b33613f07565b801561253c575061253a610cd9565b155b1515612592576040805160e560020a62461bcd02815260206004820152601b60248201527f4e6f7420612076616c69642073656e64657220616464726573732e0000000000604482015290519081900360640190fd5b600160065460ff1660028111156125a557fe5b146125fa576040805160e560020a62461bcd02815260206004820152601760248201527f4e6f742076616c69646174696e6720726577617264732e000000000000000000604482015290519081900360640190fd5b600f548114612653576040805160e560020a62461bcd02815260206004820152601a60248201527f56616c69646174696f6e20726f756e64206d69736d617463682e000000000000604482015290519081900360640190fd5b600f54336000908152600c6020526040902054106126bb576040805160e560020a62461bcd02815260206004820152601d60248201527f416c726561647920766f74656420666f72207468697320726f756e642e000000604482015290519081900360640190fd5b600980546001019055600f54336000908152600c60205260409020556126df613f7f565b505050565b6126ec61432c565b60a0604051908101604052806015548152602001601654815260200160175481526020016018548152602001601a54815250905090565b600754600160a060020a03163314612785576040805160e560020a62461bcd02815260206004820152601d60248201527f4e6f7420612064657369676e61746564206d6173746572206e6f64652e000000604482015290519081900360640190fd5b6000602f5460ff16600581111561279857fe5b1480156127a757506015544210155b156127b4576127b4613ad2565b6001602f5460ff1660058111156127c757fe5b1480156127d657506016544210155b1561281657602954601154101561280e57612809606060405190810160405280603381526020016145b260339139613bac565b612816565b612816613ad2565b6003602f5460ff16600581111561282957fe5b1480156128385750601f544210155b1561284557612845613ad2565b6002602f5460ff16600581111561285857fe5b14801561286b5750601a54601854014210155b1561289c5761289c604080519081016040528060208152602001600080516020614467833981519152815250613bac565b602f5460029060ff1660058111156128b057fe5b8160058111156128bc57fe5b146128fb5760405160e560020a62461bcd0281526004018080602001828103825260248152602001806144436024913960400191505060405180910390fd5b600060065460ff16600281111561290e57fe5b14612963576040805160e560020a62461bcd02815260206004820152601e60248201527f4f6e6c79206265666f72652076616c69646174696f6e207374617274732e0000604482015290519081900360640190fd5b81516126df90602890602085019061434b565b61297f33613292565b15156129d5576040805160e560020a62461bcd02815260206004820152601260248201527f4e6f742070617274696369706174696e672e0000000000000000000000000000604482015290519081900360640190fd5b6000602f5460ff1660058111156129e857fe5b1480156129f757506015544210155b15612a0457612a04613ad2565b6001602f5460ff166005811115612a1757fe5b148015612a2657506016544210155b15612a66576029546011541015612a5e57612a59606060405190810160405280603381526020016145b260339139613bac565b612a66565b612a66613ad2565b6003602f5460ff166005811115612a7957fe5b148015612a885750601f544210155b15612a9557612a95613ad2565b6002602f5460ff166005811115612aa857fe5b148015612abb5750601a54601854014210155b15612aec57612aec604080519081016040528060208152602001600080516020614467833981519152815250613bac565b602f5460049060ff166005811115612b0057fe5b816005811115612b0c57fe5b14612b4b5760405160e560020a62461bcd0281526004018080602001828103825260248152602001806144436024913960400191505060405180910390fd5b336000908152601360209081526040808320838052909152808220546001835291205481158015612b7a575080155b15612bc95733600160a060020a03166000805160206144ac8339815191526040518080602001828103825260258152602001806144cc6025913960400191505060405180910390a25050612df9565b33600090815260136020908152604080832083805290915290205430311080612c96575033600090815260136020908152604080832060018085529083529281902054925481517f70a082310000000000000000000000000000000000000000000000000000000081523060048201529151600160a060020a03909116926370a082319260248082019391829003018186803b158015612c6857600080fd5b505afa158015612c7c573d6000803e3d6000fd5b505050506040513d6020811015612c9257600080fd5b5051105b15612ce55733600160a060020a03166000805160206144ac8339815191526040518080602001828103825260458152602001806145476045913960600191505060405180910390a25050612df9565b33600081815260136020908152604080832083805290915280822082905560018252808220829055516108fc85150291859190818181858888f19350505050158015612d35573d6000803e3d6000fd5b506000811115612dc3576001546040805160e060020a63a9059cbb028152336004820152602481018490529051600160a060020a039092169163a9059cbb916044808201926020929091908290030181600087803b158015612d9657600080fd5b505af1158015612daa573d6000803e3d6000fd5b505050506040513d6020811015612dc057600080fd5b50505b6040805133815290517f63e32091e4445d16e29c33a6b264577c2d86694021aa4e6f4dd590048f5792e89181900360200190a150505b50565b6000602f5460ff166005811115612e0f57fe5b148015612e1e57506015544210155b15612e2b57612e2b613ad2565b6001602f5460ff166005811115612e3e57fe5b148015612e4d57506016544210155b15612e8d576029546011541015612e8557612e80606060405190810160405280603381526020016145b260339139613bac565b612e8d565b612e8d613ad2565b6003602f5460ff166005811115612ea057fe5b148015612eaf5750601f544210155b15612ebc57612ebc613ad2565b6002602f5460ff166005811115612ecf57fe5b148015612ee25750601a54601854014210155b15612f1357612f13604080519081016040528060208152602001600080516020614467833981519152815250613bac565b565b612f1d61432c565b506040805160a081018252601c548152601d546020808301919091525491810191909152601e546060820152601f546080820152602254600160a060020a03169091565b60606005805480602002602001604051908101604052809291908181526020018280548015611671576020028201919060005260206000209081548152602001906001019080831161165d575050505050905090565b600054600160a060020a03163314612fce57600080fd5b6000602f5460ff166005811115612fe157fe5b148015612ff057506015544210155b15612ffd57612ffd613ad2565b6001602f5460ff16600581111561301057fe5b14801561301f57506016544210155b1561305f57602954601154101561305757613052606060405190810160405280603381526020016145b260339139613bac565b61305f565b61305f613ad2565b6003602f5460ff16600581111561307257fe5b1480156130815750601f544210155b1561308e5761308e613ad2565b6002602f5460ff1660058111156130a157fe5b1480156130b45750601a54601854014210155b156130e5576130e5604080519081016040528060208152602001600080516020614467833981519152815250613bac565b6004602f5460ff1660058111156130f857fe5b148061311457506005602f5460ff16600581111561311257fe5b145b151561311f57600080fd5b601a54601854016224ea000142101561313757600080fd5b60008054604051600160a060020a0390911691303180156108fc02929091818181858888f19350505050158015613172573d6000803e3d6000fd5b50600154604080517f70a082310000000000000000000000000000000000000000000000000000000081523060048201529051600092600160a060020a0316916370a08231916024808301926020929190829003018186803b1580156131d757600080fd5b505afa1580156131eb573d6000803e3d6000fd5b505050506040513d602081101561320157600080fd5b5051600154600080546040805160e060020a63a9059cbb028152600160a060020a03928316600482015260248101869052905194955092169263a9059cbb926044808201936020939283900390910190829087803b15801561326257600080fd5b505af1158015613276573d6000803e3d6000fd5b505050506040513d60208110156126df57600080fd5b601a5481565b600160a060020a03811660009081526010602052604090205460ff165b919050565b6000602f5460ff1660058111156132c757fe5b1480156132d657506015544210155b156132e3576132e3613ad2565b6001602f5460ff1660058111156132f657fe5b14801561330557506016544210155b1561334557602954601154101561333d57613338606060405190810160405280603381526020016145b260339139613bac565b613345565b613345613ad2565b6003602f5460ff16600581111561335857fe5b1480156133675750601f544210155b1561337457613374613ad2565b6002602f5460ff16600581111561338757fe5b14801561339a5750601a54601854014210155b156133cb576133cb604080519081016040528060208152602001600080516020614467833981519152815250613bac565b60055460001080156134b0575060048054604080517f35fe903400000000000000000000000000000000000000000000000000000000815233938101848152602482019283526005805460448401819052600160a060020a03909516956335fe90349590949193606401908490801561346357602002820191906000526020600020905b81548152602001906001019080831161344f575b5050935050505060206040518083038186803b15801561348257600080fd5b505afa158015613496573d6000803e3d6000fd5b505050506040513d60208110156134ac57600080fd5b5051155b1561350b576040805160208082526012908201527f5065726d697373696f6e2064656e6965642e000000000000000000000000000081830152905133916000805160206144ac833981519152919081900360600190a2612f13565b602d546011541061356c57604080516020808252600e908201527f4576656e742069732066756c6c2e00000000000000000000000000000000000081830152905133916000805160206144ac833981519152919081900360600190a2612f13565b61357533613292565b156135d057604080516020808252601e908201527f596f752061726520616c72656164792070617274696369706174696e672e000081830152905133916000805160206144ac833981519152919081900360600190a2612f13565b6001602f5460ff1660058111156135e357fe5b146136305733600160a060020a03166000805160206144ac8339815191526040518080602001828103825260308152602001806145176030913960400191505060405180910390a2612f13565b6000601b541180156136d85750601b54600154604080517fdd62ed3e0000000000000000000000000000000000000000000000000000000081523360048201523060248201529051600160a060020a039092169163dd62ed3e91604480820192602092909190829003018186803b1580156136aa57600080fd5b505afa1580156136be573d6000803e3d6000fd5b505050506040513d60208110156136d457600080fd5b5051105b15613733576040805160208082526019908201527f4e6f7420656e6f75676820746f6b656e73207374616b65642e0000000000000081830152905133916000805160206144ac833981519152919081900360600190a2612f13565b6000601b5411156137e157600154601b54604080517f23b872dd000000000000000000000000000000000000000000000000000000008152336004820152306024820152604481019290925251600160a060020a03909216916323b872dd916064808201926020929091908290030181600087803b1580156137b457600080fd5b505af11580156137c8573d6000803e3d6000fd5b505050506040513d60208110156137de57600080fd5b50505b33600081815260106020526040808220805460ff1916600190811790915560118054918201815583527f31ecc21a745e3968a04e9570e4425bc18fa8019c68028196b546d1669c200c6801805473ffffffffffffffffffffffffffffffffffffffff19168417905560025481517fb9d3514d00000000000000000000000000000000000000000000000000000000815260048101949094529051600160a060020a03919091169263b9d3514d92602480830193919282900301818387803b1580156138ab57600080fd5b505af11580156138bf573d6000803e3d6000fd5b50506040805133815290517f0940fd5e528ae9fa6c086f42387c791c3854e0febdf0717c2da155c9dbf1e86c9350908190036020019150a1565b600054600160a060020a0316331461391057600080fd5b6017544210613969576040805160e560020a62461bcd02815260206004820152601660248201527f4576656e7420616c726561647920737461727465642e00000000000000000000604482015290519081900360640190fd5b602f805461ff0019166101001790554260185560408051808201909152601a81527f4576656e742063616e63656c65642062792063726561746f722e00000000000060208201526139b990613bac565b6000601b541115612f135760005b601154811015612df95760015460118054600160a060020a039092169163a9059cbb9190849081106139f557fe5b6000918252602080832090910154601b54604080517c010000000000000000000000000000000000000000000000000000000063ffffffff8816028152600160a060020a03909316600484015260248301919091525160448083019491928390030190829087803b158015613a6957600080fd5b505af1158015613a7d573d6000803e3d6000fd5b505050506040513d6020811015613a9357600080fd5b50506001016139c7565b613aa5614274565b6040805180820191829052602580548252909160029060266020850180831161165d575050505050905090565b6004602f5460ff166005811115613ae557fe5b10613b245760405160e560020a62461bcd0281526004018080602001828103825260268152602001806144f16026913960400191505060405180910390fd5b602f5460ff166005811115613b3557fe5b6001016005811115613b4357fe5b602f805460ff19166001836005811115613b5957fe5b0217905550602f546040517fb9eb8a309bf89f3159b39681f485b6430fec1035b2b457edbcdadcdece888c0b9160ff169080826005811115613b9757fe5b60ff16815260200191505060405180910390a1565b6004602f5460ff166005811115613bbf57fe5b10613bfe5760405160e560020a62461bcd0281526004018080602001828103825260268152602001806144f16026913960400191505060405180910390fd5b602f805460ff1916600517905560408051602080825283518183015283517f860b7e55e58bd6095b36c4b4016ed8a2e47cb8ebd020fa0e43b32649deb540c3938593928392918301919085019080838360005b83811015613c69578181015183820152602001613c51565b50505050905090810190601f168015613c965780820380516001836020036101000a031916815260200191505b509250505060405180910390a1602f546040517fb9eb8a309bf89f3159b39681f485b6430fec1035b2b457edbcdadcdece888c0b9160ff169080826005811115613cdc57fe5b60ff16815260200191505060405180910390a150565b60006009819055600a8190555b600b54811015613da657600b8054600d919083908110613d1b57fe5b906000526020600020016040518082805460018160011615610100020316600290048015613d805780601f10613d5e576101008083540402835291820191613d80565b820191906000526020600020905b815481529060010190602001808311613d6c575b50509283525050604051908190036020019020613d9e906000614385565b600101613cff565b50613db3600b60006143a3565b6006805460ff1916905560005b600354811015612df957600060076005016000600384815481101515613de257fe5b6000918252602080832090910154600160a060020a03168352820192909252604001902055600101613dc0565b60005b601454811015613eb257600060136000601484815481101515613e3157fe5b600091825260208083209190910154600160a060020a03168352828101939093526040918201812081805290925281209190915560148054601391839185908110613e7857fe5b600091825260208083209190910154600160a060020a03168352828101939093526040918201812060018083529352209190915501613e12565b50612f1360146000614385565b602b80546103e8606482810381028290049092019283905560298054808402929092049182019055602a805493820292909204928301909155602d8054929091019091019055565b6000805b600354811015613f5b5782600160a060020a0316600382815481101515613f2e57fe5b600091825260209091200154600160a060020a03161415613f535760019150506132af565b600101613f0b565b50600092915050565b602b54606403613f72613fc7565b10612f1357612f13613fe3565b602b54613f8a6140d3565b10612f13576006805460ff1916600217905560285415613fb957601d544201601f55613fb4613ad2565b612f13565b42601f55612f1360046140e9565b600354600a5460009190606402811515613fdd57fe5b04905090565b600160078001600760010160405180828054600181600116156101000203166002900480156140495780601f10614027576101008083540402835291820191614049565b820191906000526020600020905b815481529060010190602001808311614035575b50509283525050604051602091819003919091019020805460ff1916911515919091179055600b54600a54600f546009549290910360010191016000190111156140cb57613fb46040805190810160405280601a81526020017f436f6e73656e7375732063616e27742062652072656163686564000000000000815250613bac565b612f13614140565b60035460095460009190606402811515613fdd57fe5b602f805482919060ff1916600183600581111561410257fe5b0217905550602f546040517fb9eb8a309bf89f3159b39681f485b6430fec1035b2b457edbcdadcdece888c0b9160ff169080826005811115613cdc57fe5b600f80546001019055600b8054600d9190600090811061415c57fe5b9060005260206000200160405180828054600181600116156101000203166002900480156141c15780601f1061419f5761010080835404028352918201916141c1565b820191906000526020600020905b8154815290600101906020018083116141ad575b50509283525050604051908190036020019020805460009081106141e157fe5b6000918252602090912001546007805473ffffffffffffffffffffffffffffffffffffffff1916600160a060020a03909216919091179055614221613cf2565b614229613e0f565b600f5460075460408051928352600160a060020a03909116602083015280517f372d3c1251f28673c4ee2eaf015d5e07bf3145e2df993fd41cae9707f389eaa89281900390910190a1565b60408051808201825290600290829080388339509192915050565b828054600181600116156101000203166002900490600052602060002090601f016020900481019282601f106142d057805160ff19168380011785556142fd565b828001600101855582156142fd579182015b828111156142fd5782518255916020019190600101906142e2565b506143099291506143c1565b5090565b60c0604051908101604052806006906020820280388339509192915050565b60a0604051908101604052806005906020820280388339509192915050565b8280548282559060005260206000209081019282156142fd57916020028201828111156142fd5782518255916020019190600101906142e2565b5080546000825590600052602060002090810190612df991906143c1565b5080546000825590600052602060002090810190612df991906143db565b610ce891905b8082111561430957600081556001016143c7565b610ce891905b808211156143095760006143f582826143fe565b506001016143e1565b50805460018160011615610100020316600290046000825580601f106144245750612df9565b601f016020900490600052602060002090810190612df991906143c156fe4e6f7420706f737369626c6520696e2063757272656e74206576656e742073746174652e4576656e7420746f6f6b20746f6f206c6f6e6720746f20636f6d706c6574652e4e6f7420656e6f75676820746f6b656e73207374616b656420666f7220646973707574652ecfa5f641c29090a64bc13dcafdc8c23d82677807046c35d636ca9c57fc9cb257596f7520646f206e6f74206861766520616e79207265776172647320746f20636c61696d2e4576656e742073746174652063616e2774206265206d6f64696669656420616e796d6f72652e596f752063616e206e6f74206a6f696e20746865206576656e7420696e206974732063757272656e742073746174652e437269746963616c206572726f723a206e6f7420656e6f7567682062616c616e636520746f20706179206f7574207265776172642e20436f6e74616374205665726974792e4e6f7420706f737369626c6520696e20746869732076616c69646174696f6e2073746174652e4e6f7420656e6f756768207573657273206a6f696e656420666f72207265717569726564206d696e696d756d20766f7465732ea165627a7a72305820ea79b0df7b7de546618ac327d26f99de30b50a5dfd0a6f0609ea2fd4aa4c6c1b0029",
  "source": "pragma solidity ^0.5.3;\n\n\nimport './Store.sol';\nimport '../VerityToken.sol';\n\n\ninterface UserRolesI {\n    function hasAnyRole(address _user, uint[] calldata _roles) external view returns (bool);\n}\n\n\ncontract Implementation is Store {\n    event StateTransition(EventStates newState);\n    event JoinEvent(address wallet);\n    event ClaimReward(address recipient);\n    event Error(address indexed byAddress, string description);\n    event EventFailed(string description);\n    event ValidationStarted(uint validationRound);\n    event ValidationRestart(uint validationRound, address newMaster);\n    event DisputeTriggered(address byAddress);\n    event ClaimStake(address recipient);\n\n\n    /// A modifier signifiying that a certain method can only be used by the creator\n    /// of the contract.\n    /// Rollbacks the transaction on failure.\n    modifier onlyOwner() {\n        require(msg.sender == owner);\n        _;\n    }\n\n    /// A modifier signifiying that rewards can be set only by the designated master node.\n    /// Rollbacks the transaction on failure.\n    modifier onlyCurrentMaster() {\n        require(\n            msg.sender == rewardsValidation.currentMasterNode,\n            \"Not a designated master node.\"\n        );\n        _;\n    }\n\n    ///\tA modifier signifying that a certain method can only be used by a wallet\n    ///\tmarked as a participant.\n    ///\tRollbacks the transaction or failure.\n    modifier onlyParticipating() {\n        require(\n            isParticipating(msg.sender),\n            \"Not participating.\"\n        );\n        _;\n    }\n\n    /// A modifier signifying that a certain method can only be used when the event\n    /// is in a certain state.\n    /// @param _state The event's required state\n    /// Example:\n    /// \tfunction claimReward() onlyParticipanting onlyState(EventStates.Reward) {\n    /// \t\t// ... content\n    /// \t}\n    modifier onlyState(EventStates _state) {\n        require(\n            _state == eventState,\n            \"Not possible in current event state.\"\n        );\n        _;\n    }\n\n    /// A modifier taking care of all the timed state transitions.\n    /// Should always be used before all other modifiers, especially `onlyState`,\n    /// since it can change state.\n    /// Should probably be used in ALL non-constant (transaction) methods of\n    /// the contract.\n    modifier timedStateTransition() {\n        if (eventState == EventStates.Waiting && now >= applicationStartTime) {\n            advanceState();\n        }\n\n        if (eventState == EventStates.Application && now >= applicationEndTime) {\n            if (participantsIndex.length < consensusRules.minTotalVotes) {\n                markAsFailed(\"Not enough users joined for required minimum votes.\");\n            } else {\n                advanceState();\n            }\n        }\n\n        if (eventState == EventStates.DisputeTimeout && now >= dispute.expiresAt) {\n            advanceState();\n        }\n\n        if (\n            eventState == EventStates.Running &&\n            now >= eventEndTime + leftoversRecoverableAfter\n        ) {\n            markAsFailed(\"Event took too long to complete.\");\n        }\n        _;\n    }\n\n    modifier onlyChangeableState() {\n        require(\n            uint(eventState) < uint(EventStates.Reward),\n            \"Event state can't be modified anymore.\"\n        );\n        _;\n    }\n\n    modifier onlyAfterLefroversCanBeRecovered() {\n        require(\n            eventState == EventStates.Reward ||\n            eventState == EventStates.Failed\n        );\n        require(\n            now >= eventEndTime + leftoversRecoverableAfter + 4 weeks\n        );\n        _;\n    }\n\n    modifier canValidateRewards(uint forRound) {\n        require(\n            isNode(msg.sender) && !isMasterNode(),\n            \"Not a valid sender address.\"\n        );\n\n        require(\n            validationState == ValidationState.Validating,\n            \"Not validating rewards.\"\n        );\n\n        require(\n            forRound == rewardsValidationRound,\n            \"Validation round mismatch.\"\n        );\n\n        require(\n            rewardsValidation.votersRound[msg.sender] < rewardsValidationRound,\n            \"Already voted for this round.\"\n        );\n        _;\n    }\n\n    /// Ensure we can receive money at any time.\n    /// Not used, but we might want to extend the reward fund while event is running.\n    function() external payable {}\n\n    /// Apply for participation in this event.\n    /// Available only during the Application state.\n    /// A transaction to this function has to be done by the users themselves,\n    /// registering their wallet address as a participent.\n    /// The transaction does not have to include any funds.\n    function joinEvent()\n        public\n        timedStateTransition\n    {\n        if (\n            requiredUserRoles.length > 0 &&\n            !UserRolesI(permissionRegistry).hasAnyRole(msg.sender, requiredUserRoles)\n        ) {\n            emit Error(msg.sender, \"Permission denied.\");\n            return;\n        }\n\n        if (participantsIndex.length >= consensusRules.maxParticipants) {\n            emit Error(msg.sender, \"Event is full.\");\n            return;\n        }\n\n        if (isParticipating(msg.sender)) {\n            emit Error(msg.sender, \"You are already participating.\");\n            return;\n        }\n\n        if (eventState != EventStates.Application) {\n            emit Error(msg.sender, \"You can not join the event in its current state.\");\n            return;\n        }\n\n        if (\n            stakingAmount > 0 &&\n            VerityToken(tokenAddress).allowance(msg.sender, address(this)) < stakingAmount\n        ) {\n            emit Error(msg.sender, \"Not enough tokens staked.\");\n            return;\n        }\n\n        if (stakingAmount > 0) {\n            VerityToken(tokenAddress).transferFrom(msg.sender, address(this), stakingAmount);\n        }\n        participants[msg.sender] = true;\n        participantsIndex.push(msg.sender);\n        EventRegistryI(eventRegistryAddress).addEventToUser(msg.sender);\n        emit JoinEvent(msg.sender);\n    }\n\n    /// Checks whether an address is participating in this event.\n    /// @param _user The addres to check for participation\n    /// @return {bool} Whether the given address is a participant of this event\n    function isParticipating(address _user) public view returns(bool) {\n        return participants[_user];\n    }\n\n    function getParticipants() public view returns(address[] memory) {\n        return participantsIndex;\n    }\n\n    function getEventTimes() public view returns(uint[5] memory) {\n        return [\n            applicationStartTime,\n            applicationEndTime,\n            eventStartTime,\n            eventEndTime,\n            leftoversRecoverableAfter\n        ];\n    }\n\n    /// Assign the actual rewards.\n    /// Receives a list of addresses and a list rewards. Mapping between the two\n    /// is done by the addresses' and reward's numerical index in the list, so\n    /// order is important.\n    /// @param _addresses A list of addresses\n    /// @param _etherRewards A list of ether rewards, must be the exact same length as addresses\n    /// @param _tokenRewards A list of token rewards, must be the exact same length as addresses\n    function setRewards(\n        address[] memory _addresses,\n        uint[] memory _etherRewards,\n        uint[] memory _tokenRewards\n    )\n        public\n        onlyCurrentMaster\n        timedStateTransition\n        onlyState(EventStates.Running)\n    {\n        require(\n            _addresses.length == _etherRewards.length &&\n            _addresses.length == _tokenRewards.length\n        );\n\n        require(\n            validationState == ValidationState.WaitingForRewards,\n            \"Not possible in this validation state.\"\n        );\n\n        for (uint i = 0; i < _addresses.length; ++i) {\n            rewards[_addresses[i]][uint(RewardType.Ether)] = _etherRewards[i];\n            rewards[_addresses[i]][uint(RewardType.Token)] = _tokenRewards[i];\n            rewardsIndex.push(_addresses[i]);\n        }\n    }\n\n    /// Triggered by the master node once rewards are set and ready to validate\n    function markRewardsSet(string memory rewardsHash)\n        public\n        onlyCurrentMaster\n        timedStateTransition\n        onlyState(EventStates.Running)\n    {\n        require(\n            validationState == ValidationState.WaitingForRewards,\n            \"Not possible in this validation state.\"\n        );\n\n        rewardsValidation.rewardsHash = rewardsHash;\n        rewardsValidation.approvalCount = 1;\n        validationState = ValidationState.Validating;\n        emit ValidationStarted(rewardsValidationRound);\n    }\n\n    /// Called by event resolver nodes if they agree with rewards\n    function approveRewards(uint validationRound)\n        public\n        onlyState(EventStates.Running)\n        canValidateRewards(validationRound)\n    {\n        ++rewardsValidation.approvalCount;\n        rewardsValidation.votersRound[msg.sender] = rewardsValidationRound;\n        checkApprovalRatio();\n    }\n\n    /// Called by event resolvers if they don't agree with rewards\n    function rejectRewards(uint validationRound, string memory altHash)\n        public\n        onlyState(EventStates.Running)\n        canValidateRewards(validationRound)\n    {\n        ++rewardsValidation.rejectionCount;\n        rewardsValidation.votersRound[msg.sender] = rewardsValidationRound;\n\n        if (!rewardsValidation.rejectedHashes[altHash]) {\n            rewardsValidation.altHashes.push(altHash);\n            rewardsValidation.altHashVotes[altHash].push(msg.sender);\n        }\n\n        checkRejectionRatio();\n    }\n\n    /// Trigger a dispute.\n    function triggerDispute()\n        public\n        timedStateTransition\n        onlyParticipating\n        onlyState(EventStates.DisputeTimeout)\n    {\n        uint requiredDisputeAmount = requiredNextDisputeAmount();\n\n        require(\n            VerityToken(tokenAddress).allowance(msg.sender, address(this)) >=\n            requiredDisputeAmount,\n            \"Not enough tokens staked for dispute.\"\n        );\n\n        require(\n            dispute.disputers[msg.sender] == false,\n            \"Already triggered a dispute.\"\n        );\n\n        /// Return previoust staking amount to previous disputer\n        if (dispute.round > 0) {\n            VerityToken(tokenAddress).transfer(dispute.currentDisputer, dispute.amount);\n        }\n\n        dispute.amount = requiredDisputeAmount;\n        ++dispute.round;\n        dispute.disputers[msg.sender] = true;\n        dispute.currentDisputer = msg.sender;\n\n        /// Transfer staked amount\n        VerityToken(tokenAddress).transferFrom(msg.sender, address(this), dispute.amount);\n\n        /// Restart event\n        deleteValidationData();\n        deleteRewards();\n        eventState = EventStates.Application;\n        applicationEndTime = eventStartTime = now + disputeTimeExtension;\n        eventEndTime = eventStartTime + disputeTimeExtension;\n\n        increaseConsensusStrictness();\n\n        consensusRules.rewardsDistribution = RewardsDistribution.Linear;\n        emit DisputeTriggered(msg.sender);\n    }\n\n    function requiredNextDisputeAmount() public view returns(uint) {\n        if (dispute.round == 0) {\n            return dispute.amount;\n        } else if (dispute.multiplier == 1) {\n            return dispute.amount + dispute.amount / dispute.round;\n        } else {\n            return dispute.amount * dispute.multiplier;\n        }\n    }\n\n    /// Checks current approvals for threshold\n    function checkApprovalRatio() private {\n        if (approvalRatio() >= consensusRules.minConsensusRatio) {\n            validationState = ValidationState.Finished;\n            if (results.length != 0) {\n                dispute.expiresAt = now + dispute.timeout;\n                advanceState();\n            } else {\n                dispute.expiresAt = now;\n                setState(EventStates.Reward);\n            }\n        }\n    }\n\n    /// Checks current rejections for threshold\n    function checkRejectionRatio() private {\n        if (rejectionRatio() >= (100 - consensusRules.minConsensusRatio)) {\n            rejectCurrentValidation();\n        }\n    }\n\n    /// Handle the rejection of current rewards\n    function rejectCurrentValidation() private {\n        rewardsValidation.rejectedHashes[rewardsValidation.rewardsHash] = true;\n\n        // If approved votes are over the threshold all other hashes will also fail\n        if (\n            rewardsValidation.approvalCount + rewardsValidationRound - 1 >\n            rewardsValidation.rejectionCount - rewardsValidation.altHashes.length + 1\n        ) {\n            markAsFailed(\"Consensus can't be reached\");\n        } else {\n            restartValidation();\n        }\n    }\n\n    function restartValidation() private {\n        ++rewardsValidationRound;\n        rewardsValidation.currentMasterNode = rewardsValidation.altHashVotes[rewardsValidation.altHashes[0]][0];\n\n        deleteValidationData();\n        deleteRewards();\n\n        emit ValidationRestart(rewardsValidationRound, rewardsValidation.currentMasterNode);\n    }\n\n    /// Delete rewards.\n    function deleteRewards() private {\n        for (uint j = 0; j < rewardsIndex.length; ++j) {\n            rewards[rewardsIndex[j]][uint(RewardType.Ether)] = 0;\n            rewards[rewardsIndex[j]][uint(RewardType.Token)] = 0;\n        }\n        delete rewardsIndex;\n    }\n\n    /// Delete validation data\n    function deleteValidationData() private {\n        rewardsValidation.approvalCount = 0;\n        rewardsValidation.rejectionCount = 0;\n        for (uint i = 0; i < rewardsValidation.altHashes.length; ++i) {\n            delete rewardsValidation.altHashVotes[rewardsValidation.altHashes[i]];\n        }\n        delete rewardsValidation.altHashes;\n        validationState = ValidationState.WaitingForRewards;\n\n        for(uint j = 0; j < eventResolvers.length; ++j) {\n            rewardsValidation.votersRound[eventResolvers[j]] = 0;\n        }\n    }\n\n    /// Ratio of nodes that approved of current hash\n    function approvalRatio() private view returns(uint) {\n        return rewardsValidation.approvalCount * 100 / eventResolvers.length;\n    }\n\n    /// Ratio of nodes that rejected the current hash\n    function rejectionRatio() private view returns(uint) {\n        return rewardsValidation.rejectionCount * 100 / eventResolvers.length;\n    }\n\n    /// Returns the whole array of event resolvers.\n    function getEventResolvers() public view returns(address[] memory) {\n        return eventResolvers;\n    }\n\n    /// Checks if the address is current master node.\n    function isMasterNode() public view returns(bool) {\n        return rewardsValidation.currentMasterNode == msg.sender;\n    }\n\n    function isNode(address node) private view returns(bool) {\n        for(uint i = 0; i < eventResolvers.length; ++i) {\n            if(eventResolvers[i] == node) {\n                return true;\n            }\n        }\n        return false;\n    }\n\n    /// Returns the calling user's assigned rewards. Can be 0.\n    /// Only available to participating users in the Reward state, since rewards\n    /// are not assigned before that.\n    function getReward()\n        public\n        view\n        returns(uint[2] memory)\n    {\n        return [\n            rewards[msg.sender][uint(RewardType.Ether)],\n            rewards[msg.sender][uint(RewardType.Token)]\n        ];\n    }\n\n    /// Returns all the addresses that have rewards set.\n    function getRewardsIndex() public view returns(address[] memory) {\n        return rewardsIndex;\n    }\n\n    /// Returns rewards for specified addresses.\n    /// [[ethRewards, tokenRewards], [ethRewards, tokenRewards], ...]\n    function getRewards(address[] memory _addresses)\n        public\n        view\n        returns(uint[] memory, uint[] memory)\n    {\n        uint[] memory ethRewards = new uint[](_addresses.length);\n        uint[] memory tokenRewards = new uint[](_addresses.length);\n\n        for(uint i = 0; i < _addresses.length; ++i) {\n            ethRewards[i] = rewards[_addresses[i]][uint(RewardType.Ether)];\n            tokenRewards[i] = rewards[_addresses[i]][uint(RewardType.Token)];\n        }\n\n        return (ethRewards, tokenRewards);\n    }\n\n    /// Claim a reward.\n    /// Needs to be called by the users themselves.\n    /// Only available in the Reward state, after rewards have been received from\n    /// the validation nodes.\n    function claimReward()\n        public\n        onlyParticipating\n        timedStateTransition\n        onlyState(EventStates.Reward)\n    {\n        uint etherReward = rewards[msg.sender][uint(RewardType.Ether)];\n        uint tokenReward = rewards[msg.sender][uint(RewardType.Token)];\n\n        if (etherReward == 0 && tokenReward == 0) {\n            emit Error(msg.sender, \"You do not have any rewards to claim.\");\n            return;\n        }\n\n        if (\n            address(this).balance < rewards[msg.sender][uint(RewardType.Ether)] ||\n            VerityToken(tokenAddress).balanceOf(address(this)) < rewards[msg.sender][uint(RewardType.Token)]\n        ) {\n            emit Error(msg.sender, \"Critical error: not enough balance to pay out reward. Contact Verity.\");\n            return;\n        }\n\n        rewards[msg.sender][uint(RewardType.Ether)] = 0;\n        rewards[msg.sender][uint(RewardType.Token)] = 0;\n\n        msg.sender.transfer(etherReward);\n        if (tokenReward > 0) {\n            VerityToken(tokenAddress).transfer(msg.sender, tokenReward);\n        }\n\n        emit ClaimReward(msg.sender);\n    }\n\n    function claimFailed()\n        public\n        onlyParticipating\n        timedStateTransition\n        onlyState(EventStates.Failed)\n    {\n        require(\n            stakingAmount > 0 ||\n            (dispute.round > 0 && dispute.currentDisputer == msg.sender),\n            \"No stake to claim\"\n        );\n\n        uint amountToReturn = 0;\n\n        if (dispute.currentDisputer == msg.sender) {\n            amountToReturn += dispute.amount;\n        }\n\n        amountToReturn += stakingAmount;\n        VerityToken(tokenAddress).transfer(msg.sender, amountToReturn);\n        participants[msg.sender] = false;\n        emit ClaimStake(msg.sender);\n    }\n\n    function setDataFeedHash(string memory _hash) public onlyOwner {\n        dataFeedHash = _hash;\n    }\n\n    function setResults(bytes32[] memory _results)\n        public\n        onlyCurrentMaster\n        timedStateTransition\n        onlyState(EventStates.Running)\n    {\n        require(\n            validationState == ValidationState.WaitingForRewards,\n            \"Only before validation starts.\"\n        );\n\n        results = _results;\n    }\n\n    function getResults() public view returns(bytes32[] memory) {\n        return results;\n    }\n\n    function getState() public view returns(uint) {\n        return uint(eventState);\n    }\n\n    function getBalance() public view returns(uint[2] memory) {\n        return [\n            address(this).balance,\n            VerityToken(tokenAddress).balanceOf(address(this))\n        ];\n    }\n\n    function getEventCategory() public view returns(bytes32[2] memory) {\n        return eventCategory;\n    }\n\n    /// Returns an array of consensus rules.\n    /// [minTotalVotes, minConsensusVotes, minConsensusRatio, minParticipantRatio, maxParticipants]\n    function getConsensusRules() public view returns(uint[6] memory) {\n        return [\n            consensusRules.minTotalVotes,\n            consensusRules.minConsensusVotes,\n            consensusRules.minConsensusRatio,\n            consensusRules.minParticipantRatio,\n            consensusRules.maxParticipants,\n            uint(consensusRules.rewardsDistribution)\n        ];\n    }\n\n    /// Returns an array of dispute rules.\n    /// [dispute amount, dispute timeout, dispute round]\n    function getDisputeData() public view returns(uint[5] memory, address) {\n        return ([\n            dispute.amount,\n            dispute.timeout,\n            dispute.multiplier,\n            dispute.round,\n            dispute.expiresAt\n        ], dispute.currentDisputer);\n    }\n\n    function triggerStateChange() public timedStateTransition { }\n\n    function recoverLeftovers()\n        public\n        onlyOwner\n        timedStateTransition\n        onlyAfterLefroversCanBeRecovered\n    {\n        owner.transfer(address(this).balance);\n        uint tokenBalance = VerityToken(tokenAddress).balanceOf(address(this));\n        VerityToken(tokenAddress).transfer(owner, tokenBalance);\n    }\n\n    /// Advances the event's state to the next one. Only for internal use.\n    function advanceState() private onlyChangeableState {\n        eventState = EventStates(uint(eventState) + 1);\n        emit StateTransition(eventState);\n    }\n\n    function markAsFailed(string memory description) private onlyChangeableState {\n        eventState = EventStates.Failed;\n        emit EventFailed(description);\n        emit StateTransition(eventState);\n    }\n\n    function increaseConsensusStrictness() internal {\n        /// Increases by ~10% of remaning difference to 100%\n        consensusRules.minConsensusRatio += (100 - consensusRules.minConsensusRatio) * 100 / 1000;\n\n        /// Increase min votes required by ~10%\n        uint votesIncrease = consensusRules.minTotalVotes * 100 / 1000;\n        consensusRules.minTotalVotes += votesIncrease;\n\n        /// Increase min consensus votes by min votes increase multiplied with consensus ratio\n        consensusRules.minConsensusVotes += votesIncrease * consensusRules.minConsensusRatio / 100;\n\n        /// Increase max participants by sum of increase amounts of total and consensus votes\n        consensusRules.maxParticipants += votesIncrease + (votesIncrease * consensusRules.minConsensusRatio / 100);\n    }\n\n    function getRequiredRoles() public view returns(uint[] memory) {\n        return requiredUserRoles;\n    }\n\n    function cancelEvent()\n        public\n        onlyOwner\n    {\n        require(\n            now < eventStartTime,\n            \"Event already started.\"\n        );\n\n        eventCanceled = true;\n        eventEndTime = now;\n        markAsFailed(\"Event canceled by creator.\");\n\n        // Return stakes to potentially joined users\n        if(stakingAmount > 0) {\n            for(uint i = 0; i < participantsIndex.length; ++i) {\n                VerityToken(tokenAddress).transfer(participantsIndex[i], stakingAmount);\n            }\n        }\n    }\n\n    function setState(EventStates _state) private {\n        eventState = _state;\n        emit StateTransition(eventState);\n    }\n}",
  "sourcePath": "/Users/hiphop/code/verity-event/contracts/verity_event/Implementation.sol",
  "compiler": {
    "name": "solc",
    "version": "0.5.3+commit.10d17f24.Emscripten.clang"
  },
  "schemaVersion": "3.0.1",
  "updatedAt": "2019-02-20T13:43:23.350Z",
  "devdoc": {
    "methods": {
      "isParticipating(address)": {
        "params": {
          "_user": "The addres to check for participation"
        },
        "return": "{bool} Whether the given address is a participant of this event"
      },
      "setRewards(address[],uint256[],uint256[])": {
        "params": {
          "_addresses": "A list of addresses",
          "_etherRewards": "A list of ether rewards, must be the exact same length as addresses",
          "_tokenRewards": "A list of token rewards, must be the exact same length as addresses"
        }
      }
    }
  },
  "userdoc": {
    "methods": {
      "approveRewards(uint256)": {
        "notice": "Called by event resolver nodes if they agree with rewards"
      },
      "claimReward()": {
        "notice": "Claim a reward. Needs to be called by the users themselves. Only available in the Reward state, after rewards have been received from the validation nodes."
      },
      "getConsensusRules()": {
        "notice": "Returns an array of consensus rules. [minTotalVotes, minConsensusVotes, minConsensusRatio, minParticipantRatio, maxParticipants]"
      },
      "getDisputeData()": {
        "notice": "Returns an array of dispute rules. [dispute amount, dispute timeout, dispute round]"
      },
      "getEventResolvers()": {
        "notice": "Returns the whole array of event resolvers."
      },
      "getReward()": {
        "notice": "Returns the calling user's assigned rewards. Can be 0. Only available to participating users in the Reward state, since rewards are not assigned before that."
      },
      "getRewards(address[])": {
        "notice": "Returns rewards for specified addresses. [[ethRewards, tokenRewards], [ethRewards, tokenRewards], ...]"
      },
      "getRewardsIndex()": {
        "notice": "Returns all the addresses that have rewards set."
      },
      "isMasterNode()": {
        "notice": "Checks if the address is current master node."
      },
      "isParticipating(address)": {
        "notice": "Checks whether an address is participating in this event."
      },
      "joinEvent()": {
        "notice": "Apply for participation in this event. Available only during the Application state. A transaction to this function has to be done by the users themselves, registering their wallet address as a participent. The transaction does not have to include any funds."
      },
      "markRewardsSet(string)": {
        "notice": "Triggered by the master node once rewards are set and ready to validate"
      },
      "rejectRewards(uint256,string)": {
        "notice": "Called by event resolvers if they don't agree with rewards"
      },
      "setRewards(address[],uint256[],uint256[])": {
        "notice": "Assign the actual rewards. Receives a list of addresses and a list rewards. Mapping between the two is done by the addresses' and reward's numerical index in the list, so order is important."
      },
      "triggerDispute()": {
        "notice": "Trigger a dispute."
      }
    }
  }
}