{
  "contractName": "Implementation",
  "abi": [
    {
      "constant": true,
      "inputs": [],
      "name": "rewardsValidationRound",
      "outputs": [
        {
          "name": "",
          "type": "uint256"
        }
      ],
      "payable": false,
      "stateMutability": "view",
      "type": "function"
    },
    {
      "constant": true,
      "inputs": [],
      "name": "eventRegistryAddress",
      "outputs": [
        {
          "name": "",
          "type": "address"
        }
      ],
      "payable": false,
      "stateMutability": "view",
      "type": "function"
    },
    {
      "constant": true,
      "inputs": [],
      "name": "eventCanceled",
      "outputs": [
        {
          "name": "",
          "type": "bool"
        }
      ],
      "payable": false,
      "stateMutability": "view",
      "type": "function"
    },
    {
      "constant": true,
      "inputs": [],
      "name": "dataFeedHash",
      "outputs": [
        {
          "name": "",
          "type": "string"
        }
      ],
      "payable": false,
      "stateMutability": "view",
      "type": "function"
    },
    {
      "constant": true,
      "inputs": [],
      "name": "ipfsEventHash",
      "outputs": [
        {
          "name": "",
          "type": "string"
        }
      ],
      "payable": false,
      "stateMutability": "view",
      "type": "function"
    },
    {
      "constant": true,
      "inputs": [],
      "name": "version",
      "outputs": [
        {
          "name": "",
          "type": "uint256"
        }
      ],
      "payable": false,
      "stateMutability": "view",
      "type": "function"
    },
    {
      "constant": true,
      "inputs": [],
      "name": "stakingAmount",
      "outputs": [
        {
          "name": "",
          "type": "uint256"
        }
      ],
      "payable": false,
      "stateMutability": "view",
      "type": "function"
    },
    {
      "constant": true,
      "inputs": [],
      "name": "eventName",
      "outputs": [
        {
          "name": "",
          "type": "string"
        }
      ],
      "payable": false,
      "stateMutability": "view",
      "type": "function"
    },
    {
      "constant": true,
      "inputs": [],
      "name": "owner",
      "outputs": [
        {
          "name": "",
          "type": "address"
        }
      ],
      "payable": false,
      "stateMutability": "view",
      "type": "function"
    },
    {
      "constant": true,
      "inputs": [],
      "name": "tokenAddress",
      "outputs": [
        {
          "name": "",
          "type": "address"
        }
      ],
      "payable": false,
      "stateMutability": "view",
      "type": "function"
    },
    {
      "constant": true,
      "inputs": [],
      "name": "leftoversRecoverableAfter",
      "outputs": [
        {
          "name": "",
          "type": "uint256"
        }
      ],
      "payable": false,
      "stateMutability": "view",
      "type": "function"
    },
    {
      "payable": true,
      "stateMutability": "payable",
      "type": "fallback"
    },
    {
      "anonymous": false,
      "inputs": [
        {
          "indexed": false,
          "name": "newState",
          "type": "uint8"
        }
      ],
      "name": "StateTransition",
      "type": "event"
    },
    {
      "anonymous": false,
      "inputs": [
        {
          "indexed": false,
          "name": "wallet",
          "type": "address"
        }
      ],
      "name": "JoinEvent",
      "type": "event"
    },
    {
      "anonymous": false,
      "inputs": [
        {
          "indexed": true,
          "name": "recipient",
          "type": "address"
        },
        {
          "indexed": false,
          "name": "ethReward",
          "type": "uint256"
        },
        {
          "indexed": false,
          "name": "tokenReward",
          "type": "uint256"
        }
      ],
      "name": "ClaimReward",
      "type": "event"
    },
    {
      "anonymous": false,
      "inputs": [
        {
          "indexed": true,
          "name": "byAddress",
          "type": "address"
        },
        {
          "indexed": false,
          "name": "description",
          "type": "string"
        }
      ],
      "name": "Error",
      "type": "event"
    },
    {
      "anonymous": false,
      "inputs": [
        {
          "indexed": false,
          "name": "description",
          "type": "string"
        }
      ],
      "name": "EventFailed",
      "type": "event"
    },
    {
      "anonymous": false,
      "inputs": [
        {
          "indexed": false,
          "name": "validationRound",
          "type": "uint256"
        }
      ],
      "name": "ValidationStarted",
      "type": "event"
    },
    {
      "anonymous": false,
      "inputs": [
        {
          "indexed": false,
          "name": "validationRound",
          "type": "uint256"
        },
        {
          "indexed": false,
          "name": "newMaster",
          "type": "address"
        }
      ],
      "name": "ValidationRestart",
      "type": "event"
    },
    {
      "anonymous": false,
      "inputs": [
        {
          "indexed": false,
          "name": "byAddress",
          "type": "address"
        }
      ],
      "name": "DisputeTriggered",
      "type": "event"
    },
    {
      "anonymous": false,
      "inputs": [
        {
          "indexed": false,
          "name": "recipient",
          "type": "address"
        }
      ],
      "name": "ClaimStake",
      "type": "event"
    },
    {
      "constant": false,
      "inputs": [],
      "name": "joinEvent",
      "outputs": [],
      "payable": false,
      "stateMutability": "nonpayable",
      "type": "function"
    },
    {
      "constant": true,
      "inputs": [
        {
          "name": "_user",
          "type": "address"
        }
      ],
      "name": "isParticipating",
      "outputs": [
        {
          "name": "",
          "type": "bool"
        }
      ],
      "payable": false,
      "stateMutability": "view",
      "type": "function"
    },
    {
      "constant": true,
      "inputs": [],
      "name": "getParticipants",
      "outputs": [
        {
          "name": "",
          "type": "address[]"
        }
      ],
      "payable": false,
      "stateMutability": "view",
      "type": "function"
    },
    {
      "constant": true,
      "inputs": [],
      "name": "getEventTimes",
      "outputs": [
        {
          "name": "",
          "type": "uint256[5]"
        }
      ],
      "payable": false,
      "stateMutability": "view",
      "type": "function"
    },
    {
      "constant": false,
      "inputs": [
        {
          "name": "_addresses",
          "type": "address[]"
        },
        {
          "name": "_etherRewards",
          "type": "uint256[]"
        },
        {
          "name": "_tokenRewards",
          "type": "uint256[]"
        }
      ],
      "name": "setRewards",
      "outputs": [],
      "payable": false,
      "stateMutability": "nonpayable",
      "type": "function"
    },
    {
      "constant": false,
      "inputs": [
        {
          "name": "rewardsHash",
          "type": "string"
        }
      ],
      "name": "markRewardsSet",
      "outputs": [],
      "payable": false,
      "stateMutability": "nonpayable",
      "type": "function"
    },
    {
      "constant": false,
      "inputs": [
        {
          "name": "validationRound",
          "type": "uint256"
        }
      ],
      "name": "approveRewards",
      "outputs": [],
      "payable": false,
      "stateMutability": "nonpayable",
      "type": "function"
    },
    {
      "constant": false,
      "inputs": [
        {
          "name": "validationRound",
          "type": "uint256"
        },
        {
          "name": "altHash",
          "type": "string"
        }
      ],
      "name": "rejectRewards",
      "outputs": [],
      "payable": false,
      "stateMutability": "nonpayable",
      "type": "function"
    },
    {
      "constant": false,
      "inputs": [],
      "name": "triggerDispute",
      "outputs": [],
      "payable": false,
      "stateMutability": "nonpayable",
      "type": "function"
    },
    {
      "constant": true,
      "inputs": [],
      "name": "requiredNextDisputeAmount",
      "outputs": [
        {
          "name": "",
          "type": "uint256"
        }
      ],
      "payable": false,
      "stateMutability": "view",
      "type": "function"
    },
    {
      "constant": true,
      "inputs": [],
      "name": "getEventResolvers",
      "outputs": [
        {
          "name": "",
          "type": "address[]"
        }
      ],
      "payable": false,
      "stateMutability": "view",
      "type": "function"
    },
    {
      "constant": true,
      "inputs": [],
      "name": "isMasterNode",
      "outputs": [
        {
          "name": "",
          "type": "bool"
        }
      ],
      "payable": false,
      "stateMutability": "view",
      "type": "function"
    },
    {
      "constant": true,
      "inputs": [],
      "name": "getReward",
      "outputs": [
        {
          "name": "",
          "type": "uint256[2]"
        }
      ],
      "payable": false,
      "stateMutability": "view",
      "type": "function"
    },
    {
      "constant": true,
      "inputs": [],
      "name": "getRewardsIndex",
      "outputs": [
        {
          "name": "",
          "type": "address[]"
        }
      ],
      "payable": false,
      "stateMutability": "view",
      "type": "function"
    },
    {
      "constant": true,
      "inputs": [
        {
          "name": "_addresses",
          "type": "address[]"
        }
      ],
      "name": "getRewards",
      "outputs": [
        {
          "name": "",
          "type": "uint256[]"
        },
        {
          "name": "",
          "type": "uint256[]"
        }
      ],
      "payable": false,
      "stateMutability": "view",
      "type": "function"
    },
    {
      "constant": false,
      "inputs": [],
      "name": "claimReward",
      "outputs": [],
      "payable": false,
      "stateMutability": "nonpayable",
      "type": "function"
    },
    {
      "constant": false,
      "inputs": [],
      "name": "claimFailed",
      "outputs": [],
      "payable": false,
      "stateMutability": "nonpayable",
      "type": "function"
    },
    {
      "constant": false,
      "inputs": [
        {
          "name": "_hash",
          "type": "string"
        }
      ],
      "name": "setDataFeedHash",
      "outputs": [],
      "payable": false,
      "stateMutability": "nonpayable",
      "type": "function"
    },
    {
      "constant": false,
      "inputs": [
        {
          "name": "_results",
          "type": "bytes32[]"
        }
      ],
      "name": "setResults",
      "outputs": [],
      "payable": false,
      "stateMutability": "nonpayable",
      "type": "function"
    },
    {
      "constant": true,
      "inputs": [],
      "name": "getResults",
      "outputs": [
        {
          "name": "",
          "type": "bytes32[]"
        }
      ],
      "payable": false,
      "stateMutability": "view",
      "type": "function"
    },
    {
      "constant": true,
      "inputs": [],
      "name": "getState",
      "outputs": [
        {
          "name": "",
          "type": "uint256"
        }
      ],
      "payable": false,
      "stateMutability": "view",
      "type": "function"
    },
    {
      "constant": true,
      "inputs": [],
      "name": "getBalance",
      "outputs": [
        {
          "name": "",
          "type": "uint256[2]"
        }
      ],
      "payable": false,
      "stateMutability": "view",
      "type": "function"
    },
    {
      "constant": true,
      "inputs": [],
      "name": "getEventCategory",
      "outputs": [
        {
          "name": "",
          "type": "bytes32[2]"
        }
      ],
      "payable": false,
      "stateMutability": "view",
      "type": "function"
    },
    {
      "constant": true,
      "inputs": [],
      "name": "getConsensusRules",
      "outputs": [
        {
          "name": "",
          "type": "uint256[6]"
        }
      ],
      "payable": false,
      "stateMutability": "view",
      "type": "function"
    },
    {
      "constant": true,
      "inputs": [],
      "name": "getDisputeData",
      "outputs": [
        {
          "name": "",
          "type": "uint256[5]"
        },
        {
          "name": "",
          "type": "address"
        }
      ],
      "payable": false,
      "stateMutability": "view",
      "type": "function"
    },
    {
      "constant": false,
      "inputs": [],
      "name": "triggerStateChange",
      "outputs": [],
      "payable": false,
      "stateMutability": "nonpayable",
      "type": "function"
    },
    {
      "constant": false,
      "inputs": [],
      "name": "recoverLeftovers",
      "outputs": [],
      "payable": false,
      "stateMutability": "nonpayable",
      "type": "function"
    },
    {
      "constant": true,
      "inputs": [],
      "name": "getRequiredRoles",
      "outputs": [
        {
          "name": "",
          "type": "uint256[]"
        }
      ],
      "payable": false,
      "stateMutability": "view",
      "type": "function"
    },
    {
      "constant": false,
      "inputs": [],
      "name": "cancelEvent",
      "outputs": [],
      "payable": false,
      "stateMutability": "nonpayable",
      "type": "function"
    }
  ],
  "bytecode": "0x60806040526006805460ff19908116909155602f8054909116905534801561002657600080fd5b50614625806100366000396000f3fe608060405260043610610257576000357c010000000000000000000000000000000000000000000000000000000090048063739a3e021161014b578063b88a802f116100c8578063f38a803f1161008c578063f38a803f14610c5d578063f4caee8814610c72578063f9010d1914610ca5578063fb6c953714610cba578063fce1a10c14610ccf57610257565b8063b88a802f14610ba3578063d563f0c514610bb8578063d6e9b01914610bcd578063e0807f8914610c33578063efba9bd214610c4857610257565b80638da5cb5b1161010f5780638da5cb5b14610a755780639d76ea5814610a8a578063a77ae83914610a9f578063ab95b58614610ac9578063ac88490214610af357610257565b8063739a3e021461095257806374539f98146109675780638043c9c01461097c5780638126cb1e1461099157806381c2d87514610a4b57610257565b806342380eaf116101d9578063510ccb431161019d578063510ccb43146107b557806352f91acf146108fe57806354e33cf01461091357806354fd4d50146109285780635aa68ac01461093d57610257565b806342380eaf146105c0578063437933cc146105d557806345f99d51146106885780634717f97c1461069d5780634b766b951461070257610257565b8063181b3f5a11610220578063181b3f5a1461033f5780631865c57d146103545780631a0ddce9146103695780633d18b912146105215780634227357c1461053657610257565b8062f1614214610259578063073f03fb1461028057806311e956c8146102b157806312065fe0146102da578063148b597c1461032a575b005b34801561026557600080fd5b5061026e610ce4565b60408051918252519081900360200190f35b34801561028c57600080fd5b50610295610cea565b60408051600160a060020a039092168252519081900360200190f35b3480156102bd57600080fd5b506102c6610cf9565b604080519115158252519081900360200190f35b3480156102e657600080fd5b506102ef610d0b565b6040518082600260200280838360005b838110156103175781810151838201526020016102ff565b5050505090500191505060405180910390f35b34801561033657600080fd5b506102c6610dbb565b34801561034b57600080fd5b5061026e610dc9565b34801561036057600080fd5b5061026e610e14565b34801561037557600080fd5b506102576004803603606081101561038c57600080fd5b8101906020810181356401000000008111156103a757600080fd5b8201836020820111156103b957600080fd5b803590602001918460208302840111640100000000831117156103db57600080fd5b919080806020026020016040519081016040528093929190818152602001838360200280828437600092019190915250929594936020810193503591505064010000000081111561042b57600080fd5b82018360208201111561043d57600080fd5b8035906020019184602083028401116401000000008311171561045f57600080fd5b91908080602002602001604051908101604052809392919081815260200183836020028082843760009201919091525092959493602081019350359150506401000000008111156104af57600080fd5b8201836020820111156104c157600080fd5b803590602001918460208302840111640100000000831117156104e357600080fd5b919080806020026020016040519081016040528093929190818152602001838360200280828437600092019190915250929550610e2d945050505050565b34801561052d57600080fd5b506102ef6111a0565b34801561054257600080fd5b5061054b6111e2565b6040805160208082528351818301528351919283929083019185019080838360005b8381101561058557818101518382015260200161056d565b50505050905090810190601f1680156105b25780820380516001836020036101000a031916815260200191505b509250505060405180910390f35b3480156105cc57600080fd5b5061054b611270565b3480156105e157600080fd5b50610257600480360360208110156105f857600080fd5b81019060208101813564010000000081111561061357600080fd5b82018360208201111561062557600080fd5b8035906020019184600183028401116401000000008311171561064757600080fd5b91908080601f0160208091040260200160405190810160405280939291908181526020018383808284376000920191909152509295506112cb945050505050565b34801561069457600080fd5b506102576112f9565b3480156106a957600080fd5b506106b2611640565b60408051602080825283518183015283519192839290830191858101910280838360005b838110156106ee5781810151838201526020016106d6565b505050509050019250505060405180910390f35b34801561070e57600080fd5b506102576004803603602081101561072557600080fd5b81019060208101813564010000000081111561074057600080fd5b82018360208201111561075257600080fd5b8035906020019184600183028401116401000000008311171561077457600080fd5b91908080601f016020809104026020016040519081016040528093929190818152602001838380828437600092019190915250929550611698945050505050565b3480156107c157600080fd5b50610865600480360360208110156107d857600080fd5b8101906020810181356401000000008111156107f357600080fd5b82018360208201111561080557600080fd5b8035906020019184602083028401116401000000008311171561082757600080fd5b919080806020026020016040519081016040528093929190818152602001838360200280828437600092019190915250929550611922945050505050565b604051808060200180602001838103835285818151815260200191508051906020019060200280838360005b838110156108a9578181015183820152602001610891565b50505050905001838103825284818151815260200191508051906020019060200280838360005b838110156108e85781810151838201526020016108d0565b5050505090500194505050505060405180910390f35b34801561090a57600080fd5b50610257611a5d565b34801561091f57600080fd5b506106b2611f74565b34801561093457600080fd5b5061026e611fd5565b34801561094957600080fd5b506106b2611fda565b34801561095e57600080fd5b5061026e61203a565b34801561097357600080fd5b506106b2612040565b34801561098857600080fd5b5061054b6120a0565b34801561099d57600080fd5b50610257600480360360408110156109b457600080fd5b813591908101906040810160208201356401000000008111156109d657600080fd5b8201836020820111156109e857600080fd5b80359060200191846001830284011164010000000083111715610a0a57600080fd5b91908080601f0160208091040260200160405190810160405280939291908181526020018383808284376000920191909152509295506120fb945050505050565b348015610a5757600080fd5b50610a6061246b565b60405181518152808260c080838360206102ff565b348015610a8157600080fd5b506102956124c1565b348015610a9657600080fd5b506102956124d0565b348015610aab57600080fd5b5061025760048036036020811015610ac257600080fd5b50356124df565b348015610ad557600080fd5b50610ade612701565b60405181518152808260a080838360206102ff565b348015610aff57600080fd5b5061025760048036036020811015610b1657600080fd5b810190602081018135640100000000811115610b3157600080fd5b820183602082011115610b4357600080fd5b80359060200191846020830284011164010000000083111715610b6557600080fd5b91908080602002602001604051908101604052809392919081815260200183836020028082843760009201919091525092955061273f945050505050565b348015610baf57600080fd5b50610257612991565b348015610bc457600080fd5b50610257612e1a565b348015610bd957600080fd5b50610be2612f32565b604051808360a080838360005b83811015610c07578181015183820152602001610bef565b5050505090500182600160a060020a0316600160a060020a031681526020019250505060405180910390f35b348015610c3f57600080fd5b506106b2612f7e565b348015610c5457600080fd5b50610257612fd4565b348015610c6957600080fd5b5061026e6132a8565b348015610c7e57600080fd5b506102c660048036036020811015610c9557600080fd5b5035600160a060020a03166132ae565b348015610cb157600080fd5b506102576132d0565b348015610cc657600080fd5b50610257613910565b348015610cdb57600080fd5b506102ef613ab1565b600f5481565b600254600160a060020a031681565b600754600160a060020a031633145b90565b610d13614288565b604080518082018252308031825260015483517f70a08231000000000000000000000000000000000000000000000000000000008152600481019290925292519192602080850193600160a060020a03909216926370a082319260248083019392829003018186803b158015610d8857600080fd5b505afa158015610d9c573d6000803e3d6000fd5b505050506040513d6020811015610db257600080fd5b50519052905090565b602f54610100900460ff1681565b601e546000901515610dde5750601c54610d08565b60205460011415610e0757601e54601c54811515610df857fe5b04601c60000154019050610d08565b50602054601c5402610d08565b602f5460009060ff166005811115610e2857fe5b905090565b600754600160a060020a03163314610e8f576040805160e560020a62461bcd02815260206004820152601d60248201527f4e6f7420612064657369676e61746564206d6173746572206e6f64652e000000604482015290519081900360640190fd5b6000602f5460ff166005811115610ea257fe5b148015610eb157506015544210155b15610ebe57610ebe613ae6565b6001602f5460ff166005811115610ed157fe5b148015610ee057506016544210155b15610f1f576029546011541015610f1757610f126040518060600160405280603381526020016145c760339139613bc0565b610f1f565b610f1f613ae6565b6003602f5460ff166005811115610f3257fe5b148015610f415750601f544210155b15610f4e57610f4e613ae6565b6002602f5460ff166005811115610f6157fe5b148015610f745750601a54601854014210155b15610fa557610fa560405180604001604052806020815260200160008051602061447c833981519152815250613bc0565b602f5460029060ff166005811115610fb957fe5b816005811115610fc557fe5b146110045760405160e560020a62461bcd0281526004018080602001828103825260248152602001806144586024913960400191505060405180910390fd5b82518451148015611016575081518451145b151561102157600080fd5b600060065460ff16600281111561103457fe5b146110735760405160e560020a62461bcd0281526004018080602001828103825260268152602001806145a16026913960400191505060405180910390fd5b60005b845181101561119957838181518110151561108d57fe5b906020019060200201516013600087848151811015156110a957fe5b602090810291909101810151600160a060020a03168252818101929092526040908101600090812081805290925290205582518390829081106110e857fe5b9060200190602002015160136000878481518110151561110457fe5b602090810291909101810151600160a060020a03168252818101929092526040908101600090812060018252909252902055845160149086908390811061114757fe5b602090810291909101810151825460018082018555600094855292909320909201805473ffffffffffffffffffffffffffffffffffffffff1916600160a060020a039093169290921790915501611076565b5050505050565b6111a8614288565b5060408051808201825233600090815260136020908152838220828052808252848320548452600183528152929020549181019190915290565b6027805460408051602060026001851615610100026000190190941693909304601f810184900484028201840190925281815292918301828280156112685780601f1061123d57610100808354040283529160200191611268565b820191906000526020600020905b81548152906001019060200180831161124b57829003601f168201915b505050505081565b6019805460408051602060026001851615610100026000190190941693909304601f810184900484028201840190925281815292918301828280156112685780601f1061123d57610100808354040283529160200191611268565b600054600160a060020a031633146112e257600080fd5b80516112f59060279060208401906142a6565b5050565b611302336132ae565b1515611358576040805160e560020a62461bcd02815260206004820152601260248201527f4e6f742070617274696369706174696e672e0000000000000000000000000000604482015290519081900360640190fd5b6000602f5460ff16600581111561136b57fe5b14801561137a57506015544210155b1561138757611387613ae6565b6001602f5460ff16600581111561139a57fe5b1480156113a957506016544210155b156113e85760295460115410156113e0576113db6040518060600160405280603381526020016145c760339139613bc0565b6113e8565b6113e8613ae6565b6003602f5460ff1660058111156113fb57fe5b14801561140a5750601f544210155b1561141757611417613ae6565b6002602f5460ff16600581111561142a57fe5b14801561143d5750601a54601854014210155b1561146e5761146e60405180604001604052806020815260200160008051602061447c833981519152815250613bc0565b602f5460059060ff168181111561148157fe5b81600581111561148d57fe5b146114cc5760405160e560020a62461bcd0281526004018080602001828103825260248152602001806144586024913960400191505060405180910390fd5b6000601b5411806114f35750601e54158015906114f35750602254600160a060020a031633145b1515611549576040805160e560020a62461bcd02815260206004820152601160248201527f4e6f207374616b6520746f20636c61696d000000000000000000000000000000604482015290519081900360640190fd5b602254600090600160a060020a031633141561156457601c54015b601b546001546040805160e060020a63a9059cbb028152336004820152939092016024840181905291519192600160a060020a039091169163a9059cbb916044808201926020929091908290030181600087803b1580156115c457600080fd5b505af11580156115d8573d6000803e3d6000fd5b505050506040513d60208110156115ee57600080fd5b505033600081815260106020908152604091829020805460ff19169055815192835290517f5a53668be860a256c7ff92bff48881a9db38994032e2b90e5a0bdd51921fbeb79281900390910190a15050565b6060602880548060200260200160405190810160405280929190818152602001828054801561168e57602002820191906000526020600020905b81548152602001906001019080831161167a575b5050505050905090565b600754600160a060020a031633146116fa576040805160e560020a62461bcd02815260206004820152601d60248201527f4e6f7420612064657369676e61746564206d6173746572206e6f64652e000000604482015290519081900360640190fd5b6000602f5460ff16600581111561170d57fe5b14801561171c57506015544210155b1561172957611729613ae6565b6001602f5460ff16600581111561173c57fe5b14801561174b57506016544210155b1561178a5760295460115410156117825761177d6040518060600160405280603381526020016145c760339139613bc0565b61178a565b61178a613ae6565b6003602f5460ff16600581111561179d57fe5b1480156117ac5750601f544210155b156117b9576117b9613ae6565b6002602f5460ff1660058111156117cc57fe5b1480156117df5750601a54601854014210155b156118105761181060405180604001604052806020815260200160008051602061447c833981519152815250613bc0565b602f5460029060ff16600581111561182457fe5b81600581111561183057fe5b1461186f5760405160e560020a62461bcd0281526004018080602001828103825260248152602001806144586024913960400191505060405180910390fd5b600060065460ff16600281111561188257fe5b146118c15760405160e560020a62461bcd0281526004018080602001828103825260268152602001806145a16026913960400191505060405180910390fd5b81516118d49060089060208501906142a6565b50600160098190556006805460ff19169091179055600f5460408051918252517f47c2e9e59e6d2347f314927d02f36b95696a09b5f0ac0bae119ff5ae937016559181900360200190a15050565b60608060608351604051908082528060200260200182016040528015611952578160200160208202803883390190505b50905060608451604051908082528060200260200182016040528015611982578160200160208202803883390190505b50905060005b8551811015611a52576013600087838151811015156119a357fe5b602090810291909101810151600160a060020a03168252818101929092526040908101600090812081805290925290205483518490839081106119e257fe5b602090810290910101528551601390600090889084908110611a0057fe5b602090810291909101810151600160a060020a031682528181019290925260409081016000908120600182529092529020548251839083908110611a4057fe5b60209081029091010152600101611988565b509092509050915091565b6000602f5460ff166005811115611a7057fe5b148015611a7f57506015544210155b15611a8c57611a8c613ae6565b6001602f5460ff166005811115611a9f57fe5b148015611aae57506016544210155b15611aed576029546011541015611ae557611ae06040518060600160405280603381526020016145c760339139613bc0565b611aed565b611aed613ae6565b6003602f5460ff166005811115611b0057fe5b148015611b0f5750601f544210155b15611b1c57611b1c613ae6565b6002602f5460ff166005811115611b2f57fe5b148015611b425750601a54601854014210155b15611b7357611b7360405180604001604052806020815260200160008051602061447c833981519152815250613bc0565b611b7c336132ae565b1515611bd2576040805160e560020a62461bcd02815260206004820152601260248201527f4e6f742070617274696369706174696e672e0000000000000000000000000000604482015290519081900360640190fd5b602f5460039060ff166005811115611be657fe5b816005811115611bf257fe5b14611c315760405160e560020a62461bcd0281526004018080602001828103825260248152602001806144586024913960400191505060405180910390fd5b6000611c3b610dc9565b600154604080517fdd62ed3e00000000000000000000000000000000000000000000000000000000815233600482015230602482015290519293508392600160a060020a039092169163dd62ed3e91604480820192602092909190829003018186803b158015611caa57600080fd5b505afa158015611cbe573d6000803e3d6000fd5b505050506040513d6020811015611cd457600080fd5b50511015611d165760405160e560020a62461bcd02815260040180806020018281038252602581526020018061449c6025913960400191505060405180910390fd5b3360009081526021602052604090205460ff1615611d7e576040805160e560020a62461bcd02815260206004820152601c60248201527f416c726561647920747269676765726564206120646973707574652e00000000604482015290519081900360640190fd5b601e5415611e1257600154602254601c546040805160e060020a63a9059cbb028152600160a060020a039384166004820152602481019290925251919092169163a9059cbb9160448083019260209291908290030181600087803b158015611de557600080fd5b505af1158015611df9573d6000803e3d6000fd5b505050506040513d6020811015611e0f57600080fd5b50505b601c818155601e80546001908101909155336000818152602160209081526040808320805460ff1916861790556022805473ffffffffffffffffffffffffffffffffffffffff1916851790559354945484517f23b872dd000000000000000000000000000000000000000000000000000000008152600481019490945230602485015260448401529251600160a060020a03909416936323b872dd936064808501949193918390030190829087803b158015611ecd57600080fd5b505af1158015611ee1573d6000803e3d6000fd5b505050506040513d6020811015611ef757600080fd5b50611f029050613d06565b611f0a613e23565b602f805460ff191660011790556023544281016017819055601681905501601855611f33613ed3565b602e805460ff191690556040805133815290517ff6d97c5e133e50668a6b3607d8748ef6599c3303babb2b08a515a5a67369f45f9181900360200190a15050565b6060601480548060200260200160405190810160405280929190818152602001828054801561168e57602002820191906000526020600020905b8154600160a060020a03168152600190910190602001808311611fae575050505050905090565b600181565b6060601180548060200260200160405190810160405280929190818152602001828054801561168e57602002820191906000526020600020908154600160a060020a03168152600190910190602001808311611fae575050505050905090565b601b5481565b6060600380548060200260200160405190810160405280929190818152602001828054801561168e57602002820191906000526020600020908154600160a060020a03168152600190910190602001808311611fae575050505050905090565b6024805460408051602060026001851615610100026000190190941693909304601f810184900484028201840190925281815292918301828280156112685780601f1061123d57610100808354040283529160200191611268565b602f5460029060ff16600581111561210f57fe5b81600581111561211b57fe5b1461215a5760405160e560020a62461bcd0281526004018080602001828103825260248152602001806144586024913960400191505060405180910390fd5b8261216433613f1b565b80156121755750612173610cf9565b155b15156121cb576040805160e560020a62461bcd02815260206004820152601b60248201527f4e6f7420612076616c69642073656e64657220616464726573732e0000000000604482015290519081900360640190fd5b600160065460ff1660028111156121de57fe5b14612233576040805160e560020a62461bcd02815260206004820152601760248201527f4e6f742076616c69646174696e6720726577617264732e000000000000000000604482015290519081900360640190fd5b600f54811461228c576040805160e560020a62461bcd02815260206004820152601a60248201527f56616c69646174696f6e20726f756e64206d69736d617463682e000000000000604482015290519081900360640190fd5b600f54336000908152600c6020526040902054106122f4576040805160e560020a62461bcd02815260206004820152601d60248201527f416c726561647920766f74656420666f72207468697320726f756e642e000000604482015290519081900360640190fd5b600a80546001019055600f54336000908152600c602090815260409182902092909255518451600e9286929182918401908083835b602083106123485780518252601f199092019160209182019101612329565b51815160209384036101000a600019018019909216911617905292019485525060405193849003019092205460ff161515915061245d905057600b80546001810180835560009290925284516123c5917f0175b7a638427703f0dbe7bb9bbf987a2551717b34e79f33b5b1008d1fa01db9019060208701906142a6565b50506007600601836040518082805190602001908083835b602083106123fc5780518252601f1990920191602091820191016123dd565b51815160001960209485036101000a0190811690199190911617905292019485525060405193849003810190932080546001810182556000918252939020909201805473ffffffffffffffffffffffffffffffffffffffff19163317905550505b612465613f78565b50505050565b612473614324565b6040805160c0810182526029548152602a546020820152602b5491810191909152602c546060820152602d546080820152602e5460a082019060ff1660018111156124ba57fe5b9052905090565b600054600160a060020a031681565b600154600160a060020a031681565b602f5460029060ff1660058111156124f357fe5b8160058111156124ff57fe5b1461253e5760405160e560020a62461bcd0281526004018080602001828103825260248152602001806144586024913960400191505060405180910390fd5b8161254833613f1b565b80156125595750612557610cf9565b155b15156125af576040805160e560020a62461bcd02815260206004820152601b60248201527f4e6f7420612076616c69642073656e64657220616464726573732e0000000000604482015290519081900360640190fd5b600160065460ff1660028111156125c257fe5b14612617576040805160e560020a62461bcd02815260206004820152601760248201527f4e6f742076616c69646174696e6720726577617264732e000000000000000000604482015290519081900360640190fd5b600f548114612670576040805160e560020a62461bcd02815260206004820152601a60248201527f56616c69646174696f6e20726f756e64206d69736d617463682e000000000000604482015290519081900360640190fd5b600f54336000908152600c6020526040902054106126d8576040805160e560020a62461bcd02815260206004820152601d60248201527f416c726561647920766f74656420666f72207468697320726f756e642e000000604482015290519081900360640190fd5b600980546001019055600f54336000908152600c60205260409020556126fc613f93565b505050565b612709614342565b6040518060a001604052806015548152602001601654815260200160175481526020016018548152602001601a54815250905090565b600754600160a060020a031633146127a1576040805160e560020a62461bcd02815260206004820152601d60248201527f4e6f7420612064657369676e61746564206d6173746572206e6f64652e000000604482015290519081900360640190fd5b6000602f5460ff1660058111156127b457fe5b1480156127c357506015544210155b156127d0576127d0613ae6565b6001602f5460ff1660058111156127e357fe5b1480156127f257506016544210155b15612831576029546011541015612829576128246040518060600160405280603381526020016145c760339139613bc0565b612831565b612831613ae6565b6003602f5460ff16600581111561284457fe5b1480156128535750601f544210155b1561286057612860613ae6565b6002602f5460ff16600581111561287357fe5b1480156128865750601a54601854014210155b156128b7576128b760405180604001604052806020815260200160008051602061447c833981519152815250613bc0565b602f5460029060ff1660058111156128cb57fe5b8160058111156128d757fe5b146129165760405160e560020a62461bcd0281526004018080602001828103825260248152602001806144586024913960400191505060405180910390fd5b600060065460ff16600281111561292957fe5b1461297e576040805160e560020a62461bcd02815260206004820152601e60248201527f4f6e6c79206265666f72652076616c69646174696f6e207374617274732e0000604482015290519081900360640190fd5b81516126fc906028906020850190614360565b61299a336132ae565b15156129f0576040805160e560020a62461bcd02815260206004820152601260248201527f4e6f742070617274696369706174696e672e0000000000000000000000000000604482015290519081900360640190fd5b6000602f5460ff166005811115612a0357fe5b148015612a1257506015544210155b15612a1f57612a1f613ae6565b6001602f5460ff166005811115612a3257fe5b148015612a4157506016544210155b15612a80576029546011541015612a7857612a736040518060600160405280603381526020016145c760339139613bc0565b612a80565b612a80613ae6565b6003602f5460ff166005811115612a9357fe5b148015612aa25750601f544210155b15612aaf57612aaf613ae6565b6002602f5460ff166005811115612ac257fe5b148015612ad55750601a54601854014210155b15612b0657612b0660405180604001604052806020815260200160008051602061447c833981519152815250613bc0565b602f5460049060ff166005811115612b1a57fe5b816005811115612b2657fe5b14612b655760405160e560020a62461bcd0281526004018080602001828103825260248152602001806144586024913960400191505060405180910390fd5b336000908152601360209081526040808320838052909152808220546001835291205481158015612b94575080155b15612be35733600160a060020a03166000805160206144c18339815191526040518080602001828103825260258152602001806144e16025913960400191505060405180910390a25050612e17565b33600090815260136020908152604080832083805290915290205430311080612cb0575033600090815260136020908152604080832060018085529083529281902054925481517f70a082310000000000000000000000000000000000000000000000000000000081523060048201529151600160a060020a03909116926370a082319260248082019391829003018186803b158015612c8257600080fd5b505afa158015612c96573d6000803e3d6000fd5b505050506040513d6020811015612cac57600080fd5b5051105b15612cff5733600160a060020a03166000805160206144c183398151915260405180806020018281038252604581526020018061455c6045913960600191505060405180910390a25050612e17565b33600081815260136020908152604080832083805290915280822082905560018252808220829055516108fc85150291859190818181858888f19350505050158015612d4f573d6000803e3d6000fd5b508015612dda576001546040805160e060020a63a9059cbb028152336004820152602481018490529051600160a060020a039092169163a9059cbb916044808201926020929091908290030181600087803b158015612dad57600080fd5b505af1158015612dc1573d6000803e3d6000fd5b505050506040513d6020811015612dd757600080fd5b50505b6040805183815260208101839052815133927fe74e5c9d4ac1fc33412485f18c159a0a391efe287ab3fd271123f30e6bacf4e3928290030190a250505b50565b6000602f5460ff166005811115612e2d57fe5b148015612e3c57506015544210155b15612e4957612e49613ae6565b6001602f5460ff166005811115612e5c57fe5b148015612e6b57506016544210155b15612eaa576029546011541015612ea257612e9d6040518060600160405280603381526020016145c760339139613bc0565b612eaa565b612eaa613ae6565b6003602f5460ff166005811115612ebd57fe5b148015612ecc5750601f544210155b15612ed957612ed9613ae6565b6002602f5460ff166005811115612eec57fe5b148015612eff5750601a54601854014210155b15612f3057612f3060405180604001604052806020815260200160008051602061447c833981519152815250613bc0565b565b612f3a614342565b506040805160a081018252601c548152601d546020808301919091525491810191909152601e546060820152601f546080820152602254600160a060020a03169091565b6060600580548060200260200160405190810160405280929190818152602001828054801561168e576020028201919060005260206000209081548152602001906001019080831161167a575050505050905090565b600054600160a060020a03163314612feb57600080fd5b6000602f5460ff166005811115612ffe57fe5b14801561300d57506015544210155b1561301a5761301a613ae6565b6001602f5460ff16600581111561302d57fe5b14801561303c57506016544210155b1561307b5760295460115410156130735761306e6040518060600160405280603381526020016145c760339139613bc0565b61307b565b61307b613ae6565b6003602f5460ff16600581111561308e57fe5b14801561309d5750601f544210155b156130aa576130aa613ae6565b6002602f5460ff1660058111156130bd57fe5b1480156130d05750601a54601854014210155b156131015761310160405180604001604052806020815260200160008051602061447c833981519152815250613bc0565b6004602f5460ff16600581111561311457fe5b148061313057506005602f5460ff16600581111561312e57fe5b145b151561313b57600080fd5b601a54601854016224ea000142101561315357600080fd5b60008054604051600160a060020a0390911691303180156108fc02929091818181858888f1935050505015801561318e573d6000803e3d6000fd5b50600154604080517f70a082310000000000000000000000000000000000000000000000000000000081523060048201529051600092600160a060020a0316916370a08231916024808301926020929190829003018186803b1580156131f357600080fd5b505afa158015613207573d6000803e3d6000fd5b505050506040513d602081101561321d57600080fd5b5051600154600080546040805160e060020a63a9059cbb028152600160a060020a03928316600482015260248101869052905194955092169263a9059cbb926044808201936020939283900390910190829087803b15801561327e57600080fd5b505af1158015613292573d6000803e3d6000fd5b505050506040513d60208110156126fc57600080fd5b601a5481565b600160a060020a03811660009081526010602052604090205460ff165b919050565b6000602f5460ff1660058111156132e357fe5b1480156132f257506015544210155b156132ff576132ff613ae6565b6001602f5460ff16600581111561331257fe5b14801561332157506016544210155b15613360576029546011541015613358576133536040518060600160405280603381526020016145c760339139613bc0565b613360565b613360613ae6565b6003602f5460ff16600581111561337357fe5b1480156133825750601f544210155b1561338f5761338f613ae6565b6002602f5460ff1660058111156133a257fe5b1480156133b55750601a54601854014210155b156133e6576133e660405180604001604052806020815260200160008051602061447c833981519152815250613bc0565b600554158015906134ca575060048054604080517f35fe903400000000000000000000000000000000000000000000000000000000815233938101848152602482019283526005805460448401819052600160a060020a03909516956335fe90349590949193606401908490801561347d57602002820191906000526020600020905b815481526020019060010190808311613469575b5050935050505060206040518083038186803b15801561349c57600080fd5b505afa1580156134b0573d6000803e3d6000fd5b505050506040513d60208110156134c657600080fd5b5051155b15613525576040805160208082526012908201527f5065726d697373696f6e2064656e6965642e000000000000000000000000000081830152905133916000805160206144c1833981519152919081900360600190a2612f30565b602d546011541061358657604080516020808252600e908201527f4576656e742069732066756c6c2e00000000000000000000000000000000000081830152905133916000805160206144c1833981519152919081900360600190a2612f30565b61358f336132ae565b156135ea57604080516020808252601e908201527f596f752061726520616c72656164792070617274696369706174696e672e000081830152905133916000805160206144c1833981519152919081900360600190a2612f30565b6001602f5460ff1660058111156135fd57fe5b1461364a5733600160a060020a03166000805160206144c183398151915260405180806020018281038252603081526020018061452c6030913960400191505060405180910390a2612f30565b6000601b541180156136f25750601b54600154604080517fdd62ed3e0000000000000000000000000000000000000000000000000000000081523360048201523060248201529051600160a060020a039092169163dd62ed3e91604480820192602092909190829003018186803b1580156136c457600080fd5b505afa1580156136d8573d6000803e3d6000fd5b505050506040513d60208110156136ee57600080fd5b5051105b1561374d576040805160208082526019908201527f4e6f7420656e6f75676820746f6b656e73207374616b65642e0000000000000081830152905133916000805160206144c1833981519152919081900360600190a2612f30565b601b54156137f857600154601b54604080517f23b872dd000000000000000000000000000000000000000000000000000000008152336004820152306024820152604481019290925251600160a060020a03909216916323b872dd916064808201926020929091908290030181600087803b1580156137cb57600080fd5b505af11580156137df573d6000803e3d6000fd5b505050506040513d60208110156137f557600080fd5b50505b33600081815260106020526040808220805460ff1916600190811790915560118054918201815583527f31ecc21a745e3968a04e9570e4425bc18fa8019c68028196b546d1669c200c6801805473ffffffffffffffffffffffffffffffffffffffff19168417905560025481517fb9d3514d00000000000000000000000000000000000000000000000000000000815260048101949094529051600160a060020a03919091169263b9d3514d92602480830193919282900301818387803b1580156138c257600080fd5b505af11580156138d6573d6000803e3d6000fd5b50506040805133815290517f0940fd5e528ae9fa6c086f42387c791c3854e0febdf0717c2da155c9dbf1e86c9350908190036020019150a1565b600054600160a060020a0316331461392757600080fd5b6017544210613980576040805160e560020a62461bcd02815260206004820152601660248201527f4576656e7420616c726561647920737461727465642e00000000000000000000604482015290519081900360640190fd5b602f805461ff0019166101001790554260185560408051808201909152601a81527f4576656e742063616e63656c65642062792063726561746f722e00000000000060208201526139d090613bc0565b601b5415612f305760005b601154811015612e175760015460118054600160a060020a039092169163a9059cbb919084908110613a0957fe5b6000918252602080832090910154601b54604080517c010000000000000000000000000000000000000000000000000000000063ffffffff8816028152600160a060020a03909316600484015260248301919091525160448083019491928390030190829087803b158015613a7d57600080fd5b505af1158015613a91573d6000803e3d6000fd5b505050506040513d6020811015613aa757600080fd5b50506001016139db565b613ab9614288565b6040805180820191829052602580548252909160029060266020850180831161167a575050505050905090565b6004602f5460ff166005811115613af957fe5b10613b385760405160e560020a62461bcd0281526004018080602001828103825260268152602001806145066026913960400191505060405180910390fd5b602f5460ff166005811115613b4957fe5b6001016005811115613b5757fe5b602f805460ff19166001836005811115613b6d57fe5b0217905550602f546040517fb9eb8a309bf89f3159b39681f485b6430fec1035b2b457edbcdadcdece888c0b9160ff169080826005811115613bab57fe5b60ff16815260200191505060405180910390a1565b6004602f5460ff166005811115613bd357fe5b10613c125760405160e560020a62461bcd0281526004018080602001828103825260268152602001806145066026913960400191505060405180910390fd5b602f805460ff1916600517905560408051602080825283518183015283517f860b7e55e58bd6095b36c4b4016ed8a2e47cb8ebd020fa0e43b32649deb540c3938593928392918301919085019080838360005b83811015613c7d578181015183820152602001613c65565b50505050905090810190601f168015613caa5780820380516001836020036101000a031916815260200191505b509250505060405180910390a1602f546040517fb9eb8a309bf89f3159b39681f485b6430fec1035b2b457edbcdadcdece888c0b9160ff169080826005811115613cf057fe5b60ff16815260200191505060405180910390a150565b60006009819055600a8190555b600b54811015613dba57600b8054600d919083908110613d2f57fe5b906000526020600020016040518082805460018160011615610100020316600290048015613d945780601f10613d72576101008083540402835291820191613d94565b820191906000526020600020905b815481529060010190602001808311613d80575b50509283525050604051908190036020019020613db290600061439a565b600101613d13565b50613dc7600b60006143b8565b6006805460ff1916905560005b600354811015612e1757600060076005016000600384815481101515613df657fe5b6000918252602080832090910154600160a060020a03168352820192909252604001902055600101613dd4565b60005b601454811015613ec657600060136000601484815481101515613e4557fe5b600091825260208083209190910154600160a060020a03168352828101939093526040918201812081805290925281209190915560148054601391839185908110613e8c57fe5b600091825260208083209190910154600160a060020a03168352828101939093526040918201812060018083529352209190915501613e26565b50612f306014600061439a565b602b80546103e8606482810381028290049092019283905560298054808402929092049182019055602a805493820292909204928301909155602d8054929091019091019055565b6000805b600354811015613f6f5782600160a060020a0316600382815481101515613f4257fe5b600091825260209091200154600160a060020a03161415613f675760019150506132cb565b600101613f1f565b50600092915050565b602b54606403613f86613fdb565b10612f3057612f30613ff7565b602b54613f9e6140e7565b10612f30576006805460ff1916600217905560285415613fcd57601d544201601f55613fc8613ae6565b612f30565b42601f55612f3060046140fd565b600354600a5460009190606402811515613ff157fe5b04905090565b6001600780016007600101604051808280546001816001161561010002031660029004801561405d5780601f1061403b57610100808354040283529182019161405d565b820191906000526020600020905b815481529060010190602001808311614049575b50509283525050604051602091819003919091019020805460ff1916911515919091179055600b54600a54600f546009549290910360010191016000190111156140df57613fc86040518060400160405280601a81526020017f436f6e73656e7375732063616e27742062652072656163686564000000000000815250613bc0565b612f30614154565b60035460095460009190606402811515613ff157fe5b602f805482919060ff1916600183600581111561411657fe5b0217905550602f546040517fb9eb8a309bf89f3159b39681f485b6430fec1035b2b457edbcdadcdece888c0b9160ff169080826005811115613cf057fe5b600f80546001019055600b8054600d9190600090811061417057fe5b9060005260206000200160405180828054600181600116156101000203166002900480156141d55780601f106141b35761010080835404028352918201916141d5565b820191906000526020600020905b8154815290600101906020018083116141c1575b50509283525050604051908190036020019020805460009081106141f557fe5b6000918252602090912001546007805473ffffffffffffffffffffffffffffffffffffffff1916600160a060020a03909216919091179055614235613d06565b61423d613e23565b600f5460075460408051928352600160a060020a03909116602083015280517f372d3c1251f28673c4ee2eaf015d5e07bf3145e2df993fd41cae9707f389eaa89281900390910190a1565b60405180604001604052806002906020820280388339509192915050565b828054600181600116156101000203166002900490600052602060002090601f016020900481019282601f106142e757805160ff1916838001178555614314565b82800160010185558215614314579182015b828111156143145782518255916020019190600101906142f9565b506143209291506143d6565b5090565b6040518060c001604052806006906020820280388339509192915050565b6040518060a001604052806005906020820280388339509192915050565b82805482825590600052602060002090810192821561431457916020028201828111156143145782518255916020019190600101906142f9565b5080546000825590600052602060002090810190612e1791906143d6565b5080546000825590600052602060002090810190612e1791906143f0565b610d0891905b8082111561432057600081556001016143dc565b610d0891905b8082111561432057600061440a8282614413565b506001016143f6565b50805460018160011615610100020316600290046000825580601f106144395750612e17565b601f016020900490600052602060002090810190612e1791906143d656fe4e6f7420706f737369626c6520696e2063757272656e74206576656e742073746174652e4576656e7420746f6f6b20746f6f206c6f6e6720746f20636f6d706c6574652e4e6f7420656e6f75676820746f6b656e73207374616b656420666f7220646973707574652ecfa5f641c29090a64bc13dcafdc8c23d82677807046c35d636ca9c57fc9cb257596f7520646f206e6f74206861766520616e79207265776172647320746f20636c61696d2e4576656e742073746174652063616e2774206265206d6f64696669656420616e796d6f72652e596f752063616e206e6f74206a6f696e20746865206576656e7420696e206974732063757272656e742073746174652e437269746963616c206572726f723a206e6f7420656e6f7567682062616c616e636520746f20706179206f7574207265776172642e20436f6e74616374205665726974792e4e6f7420706f737369626c6520696e20746869732076616c69646174696f6e2073746174652e4e6f7420656e6f756768207573657273206a6f696e656420666f72207265717569726564206d696e696d756d20766f7465732ea165627a7a7230582039ad2f4ed2acfeddb48e6b597fe5ee121e450aa26b4f2efa7a7e0b94281eae0c0029",
  "source": "pragma solidity ^0.5.5;\n\n\nimport './Store.sol';\nimport '../VerityToken.sol';\n\n\ninterface UserRolesI {\n    function hasAnyRole(address _user, uint[] calldata _roles) external view returns (bool);\n}\n\n\ncontract Implementation is Store {\n    event StateTransition(EventStates newState);\n    event JoinEvent(address wallet);\n    event ClaimReward(address indexed recipient, uint ethReward, uint tokenReward);\n    event Error(address indexed byAddress, string description);\n    event EventFailed(string description);\n    event ValidationStarted(uint validationRound);\n    event ValidationRestart(uint validationRound, address newMaster);\n    event DisputeTriggered(address byAddress);\n    event ClaimStake(address recipient);\n\n\n    /// A modifier signifiying that a certain method can only be used by the creator\n    /// of the contract.\n    /// Rollbacks the transaction on failure.\n    modifier onlyOwner() {\n        require(msg.sender == owner);\n        _;\n    }\n\n    /// A modifier signifiying that rewards can be set only by the designated master node.\n    /// Rollbacks the transaction on failure.\n    modifier onlyCurrentMaster() {\n        require(\n            msg.sender == rewardsValidation.currentMasterNode,\n            \"Not a designated master node.\"\n        );\n        _;\n    }\n\n    ///\tA modifier signifying that a certain method can only be used by a wallet\n    ///\tmarked as a participant.\n    ///\tRollbacks the transaction or failure.\n    modifier onlyParticipating() {\n        require(\n            isParticipating(msg.sender),\n            \"Not participating.\"\n        );\n        _;\n    }\n\n    /// A modifier signifying that a certain method can only be used when the event\n    /// is in a certain state.\n    /// @param _state The event's required state\n    /// Example:\n    /// \tfunction claimReward() onlyParticipanting onlyState(EventStates.Reward) {\n    /// \t\t// ... content\n    /// \t}\n    modifier onlyState(EventStates _state) {\n        require(\n            _state == eventState,\n            \"Not possible in current event state.\"\n        );\n        _;\n    }\n\n    /// A modifier taking care of all the timed state transitions.\n    /// Should always be used before all other modifiers, especially `onlyState`,\n    /// since it can change state.\n    /// Should probably be used in ALL non-constant (transaction) methods of\n    /// the contract.\n    modifier timedStateTransition() {\n        if (eventState == EventStates.Waiting && now >= applicationStartTime) {\n            advanceState();\n        }\n\n        if (eventState == EventStates.Application && now >= applicationEndTime) {\n            if (participantsIndex.length < consensusRules.minTotalVotes) {\n                markAsFailed(\"Not enough users joined for required minimum votes.\");\n            } else {\n                advanceState();\n            }\n        }\n\n        if (eventState == EventStates.DisputeTimeout && now >= dispute.expiresAt) {\n            advanceState();\n        }\n\n        if (\n            eventState == EventStates.Running &&\n            now >= eventEndTime + leftoversRecoverableAfter\n        ) {\n            markAsFailed(\"Event took too long to complete.\");\n        }\n        _;\n    }\n\n    modifier onlyChangeableState() {\n        require(\n            uint(eventState) < uint(EventStates.Reward),\n            \"Event state can't be modified anymore.\"\n        );\n        _;\n    }\n\n    modifier onlyAfterLefroversCanBeRecovered() {\n        require(\n            eventState == EventStates.Reward ||\n            eventState == EventStates.Failed\n        );\n        require(\n            now >= eventEndTime + leftoversRecoverableAfter + 4 weeks\n        );\n        _;\n    }\n\n    modifier canValidateRewards(uint forRound) {\n        require(\n            isNode(msg.sender) && !isMasterNode(),\n            \"Not a valid sender address.\"\n        );\n\n        require(\n            validationState == ValidationState.Validating,\n            \"Not validating rewards.\"\n        );\n\n        require(\n            forRound == rewardsValidationRound,\n            \"Validation round mismatch.\"\n        );\n\n        require(\n            rewardsValidation.votersRound[msg.sender] < rewardsValidationRound,\n            \"Already voted for this round.\"\n        );\n        _;\n    }\n\n    /// Ensure we can receive money at any time.\n    /// Not used, but we might want to extend the reward fund while event is running.\n    function() external payable {}\n\n    /// Apply for participation in this event.\n    /// Available only during the Application state.\n    /// A transaction to this function has to be done by the users themselves,\n    /// registering their wallet address as a participent.\n    /// The transaction does not have to include any funds.\n    function joinEvent()\n        public\n        timedStateTransition\n    {\n        if (\n            requiredUserRoles.length > 0 &&\n            !UserRolesI(permissionRegistry).hasAnyRole(msg.sender, requiredUserRoles)\n        ) {\n            emit Error(msg.sender, \"Permission denied.\");\n            return;\n        }\n\n        if (participantsIndex.length >= consensusRules.maxParticipants) {\n            emit Error(msg.sender, \"Event is full.\");\n            return;\n        }\n\n        if (isParticipating(msg.sender)) {\n            emit Error(msg.sender, \"You are already participating.\");\n            return;\n        }\n\n        if (eventState != EventStates.Application) {\n            emit Error(msg.sender, \"You can not join the event in its current state.\");\n            return;\n        }\n\n        if (\n            stakingAmount > 0 &&\n            VerityToken(tokenAddress).allowance(msg.sender, address(this)) < stakingAmount\n        ) {\n            emit Error(msg.sender, \"Not enough tokens staked.\");\n            return;\n        }\n\n        if (stakingAmount > 0) {\n            VerityToken(tokenAddress).transferFrom(msg.sender, address(this), stakingAmount);\n        }\n        participants[msg.sender] = true;\n        participantsIndex.push(msg.sender);\n        EventRegistryI(eventRegistryAddress).addEventToUser(msg.sender);\n        emit JoinEvent(msg.sender);\n    }\n\n    /// Checks whether an address is participating in this event.\n    /// @param _user The addres to check for participation\n    /// @return {bool} Whether the given address is a participant of this event\n    function isParticipating(address _user) public view returns(bool) {\n        return participants[_user];\n    }\n\n    function getParticipants() public view returns(address[] memory) {\n        return participantsIndex;\n    }\n\n    function getEventTimes() public view returns(uint[5] memory) {\n        return [\n            applicationStartTime,\n            applicationEndTime,\n            eventStartTime,\n            eventEndTime,\n            leftoversRecoverableAfter\n        ];\n    }\n\n    /// Assign the actual rewards.\n    /// Receives a list of addresses and a list rewards. Mapping between the two\n    /// is done by the addresses' and reward's numerical index in the list, so\n    /// order is important.\n    /// @param _addresses A list of addresses\n    /// @param _etherRewards A list of ether rewards, must be the exact same length as addresses\n    /// @param _tokenRewards A list of token rewards, must be the exact same length as addresses\n    function setRewards(\n        address[] memory _addresses,\n        uint[] memory _etherRewards,\n        uint[] memory _tokenRewards\n    )\n        public\n        onlyCurrentMaster\n        timedStateTransition\n        onlyState(EventStates.Running)\n    {\n        require(\n            _addresses.length == _etherRewards.length &&\n            _addresses.length == _tokenRewards.length\n        );\n\n        require(\n            validationState == ValidationState.WaitingForRewards,\n            \"Not possible in this validation state.\"\n        );\n\n        for (uint i = 0; i < _addresses.length; ++i) {\n            rewards[_addresses[i]][uint(RewardType.Ether)] = _etherRewards[i];\n            rewards[_addresses[i]][uint(RewardType.Token)] = _tokenRewards[i];\n            rewardsIndex.push(_addresses[i]);\n        }\n    }\n\n    /// Triggered by the master node once rewards are set and ready to validate\n    function markRewardsSet(string memory rewardsHash)\n        public\n        onlyCurrentMaster\n        timedStateTransition\n        onlyState(EventStates.Running)\n    {\n        require(\n            validationState == ValidationState.WaitingForRewards,\n            \"Not possible in this validation state.\"\n        );\n\n        rewardsValidation.rewardsHash = rewardsHash;\n        rewardsValidation.approvalCount = 1;\n        validationState = ValidationState.Validating;\n        emit ValidationStarted(rewardsValidationRound);\n    }\n\n    /// Called by event resolver nodes if they agree with rewards\n    function approveRewards(uint validationRound)\n        public\n        onlyState(EventStates.Running)\n        canValidateRewards(validationRound)\n    {\n        ++rewardsValidation.approvalCount;\n        rewardsValidation.votersRound[msg.sender] = rewardsValidationRound;\n        checkApprovalRatio();\n    }\n\n    /// Called by event resolvers if they don't agree with rewards\n    function rejectRewards(uint validationRound, string memory altHash)\n        public\n        onlyState(EventStates.Running)\n        canValidateRewards(validationRound)\n    {\n        ++rewardsValidation.rejectionCount;\n        rewardsValidation.votersRound[msg.sender] = rewardsValidationRound;\n\n        if (!rewardsValidation.rejectedHashes[altHash]) {\n            rewardsValidation.altHashes.push(altHash);\n            rewardsValidation.altHashVotes[altHash].push(msg.sender);\n        }\n\n        checkRejectionRatio();\n    }\n\n    /// Trigger a dispute.\n    function triggerDispute()\n        public\n        timedStateTransition\n        onlyParticipating\n        onlyState(EventStates.DisputeTimeout)\n    {\n        uint requiredDisputeAmount = requiredNextDisputeAmount();\n\n        require(\n            VerityToken(tokenAddress).allowance(msg.sender, address(this)) >=\n            requiredDisputeAmount,\n            \"Not enough tokens staked for dispute.\"\n        );\n\n        require(\n            dispute.disputers[msg.sender] == false,\n            \"Already triggered a dispute.\"\n        );\n\n        /// Return previoust staking amount to previous disputer\n        if (dispute.round > 0) {\n            VerityToken(tokenAddress).transfer(dispute.currentDisputer, dispute.amount);\n        }\n\n        dispute.amount = requiredDisputeAmount;\n        ++dispute.round;\n        dispute.disputers[msg.sender] = true;\n        dispute.currentDisputer = msg.sender;\n\n        /// Transfer staked amount\n        VerityToken(tokenAddress).transferFrom(msg.sender, address(this), dispute.amount);\n\n        /// Restart event\n        deleteValidationData();\n        deleteRewards();\n        eventState = EventStates.Application;\n        applicationEndTime = eventStartTime = now + disputeTimeExtension;\n        eventEndTime = eventStartTime + disputeTimeExtension;\n\n        increaseConsensusStrictness();\n\n        consensusRules.rewardsDistribution = RewardsDistribution.Linear;\n        emit DisputeTriggered(msg.sender);\n    }\n\n    function requiredNextDisputeAmount() public view returns(uint) {\n        if (dispute.round == 0) {\n            return dispute.amount;\n        } else if (dispute.multiplier == 1) {\n            return dispute.amount + dispute.amount / dispute.round;\n        } else {\n            return dispute.amount * dispute.multiplier;\n        }\n    }\n\n    /// Checks current approvals for threshold\n    function checkApprovalRatio() private {\n        if (approvalRatio() >= consensusRules.minConsensusRatio) {\n            validationState = ValidationState.Finished;\n            if (results.length != 0) {\n                dispute.expiresAt = now + dispute.timeout;\n                advanceState();\n            } else {\n                dispute.expiresAt = now;\n                setState(EventStates.Reward);\n            }\n        }\n    }\n\n    /// Checks current rejections for threshold\n    function checkRejectionRatio() private {\n        if (rejectionRatio() >= (100 - consensusRules.minConsensusRatio)) {\n            rejectCurrentValidation();\n        }\n    }\n\n    /// Handle the rejection of current rewards\n    function rejectCurrentValidation() private {\n        rewardsValidation.rejectedHashes[rewardsValidation.rewardsHash] = true;\n\n        // If approved votes are over the threshold all other hashes will also fail\n        if (\n            rewardsValidation.approvalCount + rewardsValidationRound - 1 >\n            rewardsValidation.rejectionCount - rewardsValidation.altHashes.length + 1\n        ) {\n            markAsFailed(\"Consensus can't be reached\");\n        } else {\n            restartValidation();\n        }\n    }\n\n    function restartValidation() private {\n        ++rewardsValidationRound;\n        rewardsValidation.currentMasterNode = rewardsValidation.altHashVotes[rewardsValidation.altHashes[0]][0];\n\n        deleteValidationData();\n        deleteRewards();\n\n        emit ValidationRestart(rewardsValidationRound, rewardsValidation.currentMasterNode);\n    }\n\n    /// Delete rewards.\n    function deleteRewards() private {\n        for (uint j = 0; j < rewardsIndex.length; ++j) {\n            rewards[rewardsIndex[j]][uint(RewardType.Ether)] = 0;\n            rewards[rewardsIndex[j]][uint(RewardType.Token)] = 0;\n        }\n        delete rewardsIndex;\n    }\n\n    /// Delete validation data\n    function deleteValidationData() private {\n        rewardsValidation.approvalCount = 0;\n        rewardsValidation.rejectionCount = 0;\n        for (uint i = 0; i < rewardsValidation.altHashes.length; ++i) {\n            delete rewardsValidation.altHashVotes[rewardsValidation.altHashes[i]];\n        }\n        delete rewardsValidation.altHashes;\n        validationState = ValidationState.WaitingForRewards;\n\n        for(uint j = 0; j < eventResolvers.length; ++j) {\n            rewardsValidation.votersRound[eventResolvers[j]] = 0;\n        }\n    }\n\n    /// Ratio of nodes that approved of current hash\n    function approvalRatio() private view returns(uint) {\n        return rewardsValidation.approvalCount * 100 / eventResolvers.length;\n    }\n\n    /// Ratio of nodes that rejected the current hash\n    function rejectionRatio() private view returns(uint) {\n        return rewardsValidation.rejectionCount * 100 / eventResolvers.length;\n    }\n\n    /// Returns the whole array of event resolvers.\n    function getEventResolvers() public view returns(address[] memory) {\n        return eventResolvers;\n    }\n\n    /// Checks if the address is current master node.\n    function isMasterNode() public view returns(bool) {\n        return rewardsValidation.currentMasterNode == msg.sender;\n    }\n\n    function isNode(address node) private view returns(bool) {\n        for(uint i = 0; i < eventResolvers.length; ++i) {\n            if(eventResolvers[i] == node) {\n                return true;\n            }\n        }\n        return false;\n    }\n\n    /// Returns the calling user's assigned rewards. Can be 0.\n    /// Only available to participating users in the Reward state, since rewards\n    /// are not assigned before that.\n    function getReward()\n        public\n        view\n        returns(uint[2] memory)\n    {\n        return [\n            rewards[msg.sender][uint(RewardType.Ether)],\n            rewards[msg.sender][uint(RewardType.Token)]\n        ];\n    }\n\n    /// Returns all the addresses that have rewards set.\n    function getRewardsIndex() public view returns(address[] memory) {\n        return rewardsIndex;\n    }\n\n    /// Returns rewards for specified addresses.\n    /// [[ethRewards, tokenRewards], [ethRewards, tokenRewards], ...]\n    function getRewards(address[] memory _addresses)\n        public\n        view\n        returns(uint[] memory, uint[] memory)\n    {\n        uint[] memory ethRewards = new uint[](_addresses.length);\n        uint[] memory tokenRewards = new uint[](_addresses.length);\n\n        for(uint i = 0; i < _addresses.length; ++i) {\n            ethRewards[i] = rewards[_addresses[i]][uint(RewardType.Ether)];\n            tokenRewards[i] = rewards[_addresses[i]][uint(RewardType.Token)];\n        }\n\n        return (ethRewards, tokenRewards);\n    }\n\n    /// Claim a reward.\n    /// Needs to be called by the users themselves.\n    /// Only available in the Reward state, after rewards have been received from\n    /// the validation nodes.\n    function claimReward()\n        public\n        onlyParticipating\n        timedStateTransition\n        onlyState(EventStates.Reward)\n    {\n        uint etherReward = rewards[msg.sender][uint(RewardType.Ether)];\n        uint tokenReward = rewards[msg.sender][uint(RewardType.Token)];\n\n        if (etherReward == 0 && tokenReward == 0) {\n            emit Error(msg.sender, \"You do not have any rewards to claim.\");\n            return;\n        }\n\n        if (\n            address(this).balance < rewards[msg.sender][uint(RewardType.Ether)] ||\n            VerityToken(tokenAddress).balanceOf(address(this)) < rewards[msg.sender][uint(RewardType.Token)]\n        ) {\n            emit Error(msg.sender, \"Critical error: not enough balance to pay out reward. Contact Verity.\");\n            return;\n        }\n\n        rewards[msg.sender][uint(RewardType.Ether)] = 0;\n        rewards[msg.sender][uint(RewardType.Token)] = 0;\n\n        msg.sender.transfer(etherReward);\n        if (tokenReward > 0) {\n            VerityToken(tokenAddress).transfer(msg.sender, tokenReward);\n        }\n\n        emit ClaimReward(msg.sender, etherReward, tokenReward);\n    }\n\n    function claimFailed()\n        public\n        onlyParticipating\n        timedStateTransition\n        onlyState(EventStates.Failed)\n    {\n        require(\n            stakingAmount > 0 ||\n            (dispute.round > 0 && dispute.currentDisputer == msg.sender),\n            \"No stake to claim\"\n        );\n\n        uint amountToReturn = 0;\n\n        if (dispute.currentDisputer == msg.sender) {\n            amountToReturn += dispute.amount;\n        }\n\n        amountToReturn += stakingAmount;\n        VerityToken(tokenAddress).transfer(msg.sender, amountToReturn);\n        participants[msg.sender] = false;\n        emit ClaimStake(msg.sender);\n    }\n\n    function setDataFeedHash(string memory _hash) public onlyOwner {\n        dataFeedHash = _hash;\n    }\n\n    function setResults(bytes32[] memory _results)\n        public\n        onlyCurrentMaster\n        timedStateTransition\n        onlyState(EventStates.Running)\n    {\n        require(\n            validationState == ValidationState.WaitingForRewards,\n            \"Only before validation starts.\"\n        );\n\n        results = _results;\n    }\n\n    function getResults() public view returns(bytes32[] memory) {\n        return results;\n    }\n\n    function getState() public view returns(uint) {\n        return uint(eventState);\n    }\n\n    function getBalance() public view returns(uint[2] memory) {\n        return [\n            address(this).balance,\n            VerityToken(tokenAddress).balanceOf(address(this))\n        ];\n    }\n\n    function getEventCategory() public view returns(bytes32[2] memory) {\n        return eventCategory;\n    }\n\n    /// Returns an array of consensus rules.\n    /// [minTotalVotes, minConsensusVotes, minConsensusRatio, minParticipantRatio, maxParticipants]\n    function getConsensusRules() public view returns(uint[6] memory) {\n        return [\n            consensusRules.minTotalVotes,\n            consensusRules.minConsensusVotes,\n            consensusRules.minConsensusRatio,\n            consensusRules.minParticipantRatio,\n            consensusRules.maxParticipants,\n            uint(consensusRules.rewardsDistribution)\n        ];\n    }\n\n    /// Returns an array of dispute rules.\n    /// [dispute amount, dispute timeout, dispute round]\n    function getDisputeData() public view returns(uint[5] memory, address) {\n        return ([\n            dispute.amount,\n            dispute.timeout,\n            dispute.multiplier,\n            dispute.round,\n            dispute.expiresAt\n        ], dispute.currentDisputer);\n    }\n\n    function triggerStateChange() public timedStateTransition { }\n\n    function recoverLeftovers()\n        public\n        onlyOwner\n        timedStateTransition\n        onlyAfterLefroversCanBeRecovered\n    {\n        owner.transfer(address(this).balance);\n        uint tokenBalance = VerityToken(tokenAddress).balanceOf(address(this));\n        VerityToken(tokenAddress).transfer(owner, tokenBalance);\n    }\n\n    /// Advances the event's state to the next one. Only for internal use.\n    function advanceState() private onlyChangeableState {\n        eventState = EventStates(uint(eventState) + 1);\n        emit StateTransition(eventState);\n    }\n\n    function markAsFailed(string memory description) private onlyChangeableState {\n        eventState = EventStates.Failed;\n        emit EventFailed(description);\n        emit StateTransition(eventState);\n    }\n\n    function increaseConsensusStrictness() internal {\n        /// Increases by ~10% of remaning difference to 100%\n        consensusRules.minConsensusRatio += (100 - consensusRules.minConsensusRatio) * 100 / 1000;\n\n        /// Increase min votes required by ~10%\n        uint votesIncrease = consensusRules.minTotalVotes * 100 / 1000;\n        consensusRules.minTotalVotes += votesIncrease;\n\n        /// Increase min consensus votes by min votes increase multiplied with consensus ratio\n        consensusRules.minConsensusVotes += votesIncrease * consensusRules.minConsensusRatio / 100;\n\n        /// Increase max participants by sum of increase amounts of total and consensus votes\n        consensusRules.maxParticipants += votesIncrease + (votesIncrease * consensusRules.minConsensusRatio / 100);\n    }\n\n    function getRequiredRoles() public view returns(uint[] memory) {\n        return requiredUserRoles;\n    }\n\n    function cancelEvent()\n        public\n        onlyOwner\n    {\n        require(\n            now < eventStartTime,\n            \"Event already started.\"\n        );\n\n        eventCanceled = true;\n        eventEndTime = now;\n        markAsFailed(\"Event canceled by creator.\");\n\n        // Return stakes to potentially joined users\n        if(stakingAmount > 0) {\n            for(uint i = 0; i < participantsIndex.length; ++i) {\n                VerityToken(tokenAddress).transfer(participantsIndex[i], stakingAmount);\n            }\n        }\n    }\n\n    function setState(EventStates _state) private {\n        eventState = _state;\n        emit StateTransition(eventState);\n    }\n}",
  "sourcePath": "/Users/hiphop/code/verity-event/contracts/verity_event/Implementation.sol",
  "compiler": {
    "name": "solc",
    "version": "0.5.5+commit.47a71e8f.Emscripten.clang"
  },
  "schemaVersion": "3.0.1",
  "updatedAt": "2019-03-11T12:12:41.993Z",
  "devdoc": {
    "methods": {
      "isParticipating(address)": {
        "params": {
          "_user": "The addres to check for participation"
        },
        "return": "{bool} Whether the given address is a participant of this event"
      },
      "setRewards(address[],uint256[],uint256[])": {
        "params": {
          "_addresses": "A list of addresses",
          "_etherRewards": "A list of ether rewards, must be the exact same length as addresses",
          "_tokenRewards": "A list of token rewards, must be the exact same length as addresses"
        }
      }
    }
  },
  "userdoc": {
    "methods": {
      "approveRewards(uint256)": {
        "notice": "Called by event resolver nodes if they agree with rewards"
      },
      "claimReward()": {
        "notice": "Claim a reward. Needs to be called by the users themselves. Only available in the Reward state, after rewards have been received from the validation nodes."
      },
      "getConsensusRules()": {
        "notice": "Returns an array of consensus rules. [minTotalVotes, minConsensusVotes, minConsensusRatio, minParticipantRatio, maxParticipants]"
      },
      "getDisputeData()": {
        "notice": "Returns an array of dispute rules. [dispute amount, dispute timeout, dispute round]"
      },
      "getEventResolvers()": {
        "notice": "Returns the whole array of event resolvers."
      },
      "getReward()": {
        "notice": "Returns the calling user's assigned rewards. Can be 0. Only available to participating users in the Reward state, since rewards are not assigned before that."
      },
      "getRewards(address[])": {
        "notice": "Returns rewards for specified addresses. [[ethRewards, tokenRewards], [ethRewards, tokenRewards], ...]"
      },
      "getRewardsIndex()": {
        "notice": "Returns all the addresses that have rewards set."
      },
      "isMasterNode()": {
        "notice": "Checks if the address is current master node."
      },
      "isParticipating(address)": {
        "notice": "Checks whether an address is participating in this event."
      },
      "joinEvent()": {
        "notice": "Apply for participation in this event. Available only during the Application state. A transaction to this function has to be done by the users themselves, registering their wallet address as a participent. The transaction does not have to include any funds."
      },
      "markRewardsSet(string)": {
        "notice": "Triggered by the master node once rewards are set and ready to validate"
      },
      "rejectRewards(uint256,string)": {
        "notice": "Called by event resolvers if they don't agree with rewards"
      },
      "setRewards(address[],uint256[],uint256[])": {
        "notice": "Assign the actual rewards. Receives a list of addresses and a list rewards. Mapping between the two is done by the addresses' and reward's numerical index in the list, so order is important."
      },
      "triggerDispute()": {
        "notice": "Trigger a dispute."
      }
    }
  }
}