{
  "contractName": "Implementation",
  "abi": [
    {
      "constant": true,
      "inputs": [],
      "name": "rewardsValidationRound",
      "outputs": [
        {
          "name": "",
          "type": "uint256"
        }
      ],
      "payable": false,
      "stateMutability": "view",
      "type": "function"
    },
    {
      "constant": true,
      "inputs": [],
      "name": "nodeRewardsPool",
      "outputs": [
        {
          "name": "",
          "type": "uint256"
        }
      ],
      "payable": false,
      "stateMutability": "view",
      "type": "function"
    },
    {
      "constant": true,
      "inputs": [],
      "name": "eventRegistryAddress",
      "outputs": [
        {
          "name": "",
          "type": "address"
        }
      ],
      "payable": false,
      "stateMutability": "view",
      "type": "function"
    },
    {
      "constant": true,
      "inputs": [],
      "name": "eventCanceled",
      "outputs": [
        {
          "name": "",
          "type": "bool"
        }
      ],
      "payable": false,
      "stateMutability": "view",
      "type": "function"
    },
    {
      "constant": true,
      "inputs": [],
      "name": "validationState",
      "outputs": [
        {
          "name": "",
          "type": "uint8"
        }
      ],
      "payable": false,
      "stateMutability": "view",
      "type": "function"
    },
    {
      "constant": true,
      "inputs": [],
      "name": "dataFeedHash",
      "outputs": [
        {
          "name": "",
          "type": "string"
        }
      ],
      "payable": false,
      "stateMutability": "view",
      "type": "function"
    },
    {
      "constant": true,
      "inputs": [],
      "name": "ipfsEventHash",
      "outputs": [
        {
          "name": "",
          "type": "string"
        }
      ],
      "payable": false,
      "stateMutability": "view",
      "type": "function"
    },
    {
      "constant": true,
      "inputs": [],
      "name": "version",
      "outputs": [
        {
          "name": "",
          "type": "uint256"
        }
      ],
      "payable": false,
      "stateMutability": "view",
      "type": "function"
    },
    {
      "constant": true,
      "inputs": [],
      "name": "stakingAmount",
      "outputs": [
        {
          "name": "",
          "type": "uint256"
        }
      ],
      "payable": false,
      "stateMutability": "view",
      "type": "function"
    },
    {
      "constant": true,
      "inputs": [],
      "name": "nodeRewardsBalance",
      "outputs": [
        {
          "name": "",
          "type": "uint256"
        }
      ],
      "payable": false,
      "stateMutability": "view",
      "type": "function"
    },
    {
      "constant": true,
      "inputs": [],
      "name": "eventName",
      "outputs": [
        {
          "name": "",
          "type": "string"
        }
      ],
      "payable": false,
      "stateMutability": "view",
      "type": "function"
    },
    {
      "constant": true,
      "inputs": [],
      "name": "owner",
      "outputs": [
        {
          "name": "",
          "type": "address"
        }
      ],
      "payable": false,
      "stateMutability": "view",
      "type": "function"
    },
    {
      "constant": true,
      "inputs": [],
      "name": "tokenAddress",
      "outputs": [
        {
          "name": "",
          "type": "address"
        }
      ],
      "payable": false,
      "stateMutability": "view",
      "type": "function"
    },
    {
      "constant": true,
      "inputs": [],
      "name": "rewardsValidation",
      "outputs": [
        {
          "name": "currentMasterNode",
          "type": "address"
        },
        {
          "name": "rewardsHash",
          "type": "string"
        },
        {
          "name": "approvalCount",
          "type": "uint256"
        },
        {
          "name": "rejectionCount",
          "type": "uint256"
        }
      ],
      "payable": false,
      "stateMutability": "view",
      "type": "function"
    },
    {
      "constant": true,
      "inputs": [],
      "name": "leftoversRecoverableAfter",
      "outputs": [
        {
          "name": "",
          "type": "uint256"
        }
      ],
      "payable": false,
      "stateMutability": "view",
      "type": "function"
    },
    {
      "payable": true,
      "stateMutability": "payable",
      "type": "fallback"
    },
    {
      "anonymous": false,
      "inputs": [
        {
          "indexed": false,
          "name": "newState",
          "type": "uint8"
        }
      ],
      "name": "StateTransition",
      "type": "event"
    },
    {
      "anonymous": false,
      "inputs": [
        {
          "indexed": false,
          "name": "wallet",
          "type": "address"
        }
      ],
      "name": "JoinEvent",
      "type": "event"
    },
    {
      "anonymous": false,
      "inputs": [
        {
          "indexed": true,
          "name": "recipient",
          "type": "address"
        },
        {
          "indexed": false,
          "name": "ethReward",
          "type": "uint256"
        },
        {
          "indexed": false,
          "name": "tokenReward",
          "type": "uint256"
        }
      ],
      "name": "ClaimReward",
      "type": "event"
    },
    {
      "anonymous": false,
      "inputs": [
        {
          "indexed": true,
          "name": "byAddress",
          "type": "address"
        },
        {
          "indexed": false,
          "name": "description",
          "type": "string"
        }
      ],
      "name": "Error",
      "type": "event"
    },
    {
      "anonymous": false,
      "inputs": [
        {
          "indexed": false,
          "name": "description",
          "type": "string"
        }
      ],
      "name": "EventFailed",
      "type": "event"
    },
    {
      "anonymous": false,
      "inputs": [
        {
          "indexed": false,
          "name": "validationRound",
          "type": "uint256"
        }
      ],
      "name": "ValidationStarted",
      "type": "event"
    },
    {
      "anonymous": false,
      "inputs": [
        {
          "indexed": false,
          "name": "validationRound",
          "type": "uint256"
        },
        {
          "indexed": false,
          "name": "newMaster",
          "type": "address"
        }
      ],
      "name": "ValidationRestart",
      "type": "event"
    },
    {
      "anonymous": false,
      "inputs": [
        {
          "indexed": false,
          "name": "byAddress",
          "type": "address"
        }
      ],
      "name": "DisputeTriggered",
      "type": "event"
    },
    {
      "anonymous": false,
      "inputs": [
        {
          "indexed": false,
          "name": "recipient",
          "type": "address"
        }
      ],
      "name": "ClaimStake",
      "type": "event"
    },
    {
      "anonymous": false,
      "inputs": [
        {
          "indexed": false,
          "name": "node",
          "type": "address"
        },
        {
          "indexed": false,
          "name": "reward",
          "type": "uint256"
        }
      ],
      "name": "NodeClaimReward",
      "type": "event"
    },
    {
      "constant": false,
      "inputs": [],
      "name": "joinEvent",
      "outputs": [],
      "payable": false,
      "stateMutability": "nonpayable",
      "type": "function"
    },
    {
      "constant": true,
      "inputs": [
        {
          "name": "_user",
          "type": "address"
        }
      ],
      "name": "isParticipating",
      "outputs": [
        {
          "name": "",
          "type": "bool"
        }
      ],
      "payable": false,
      "stateMutability": "view",
      "type": "function"
    },
    {
      "constant": true,
      "inputs": [],
      "name": "getParticipants",
      "outputs": [
        {
          "name": "",
          "type": "address[]"
        }
      ],
      "payable": false,
      "stateMutability": "view",
      "type": "function"
    },
    {
      "constant": true,
      "inputs": [],
      "name": "getEventTimes",
      "outputs": [
        {
          "name": "",
          "type": "uint256[5]"
        }
      ],
      "payable": false,
      "stateMutability": "view",
      "type": "function"
    },
    {
      "constant": false,
      "inputs": [
        {
          "name": "_addresses",
          "type": "address[]"
        },
        {
          "name": "_etherRewards",
          "type": "uint256[]"
        },
        {
          "name": "_tokenRewards",
          "type": "uint256[]"
        }
      ],
      "name": "setRewards",
      "outputs": [],
      "payable": false,
      "stateMutability": "nonpayable",
      "type": "function"
    },
    {
      "constant": false,
      "inputs": [
        {
          "name": "rewardsHash",
          "type": "string"
        }
      ],
      "name": "markRewardsSet",
      "outputs": [],
      "payable": false,
      "stateMutability": "nonpayable",
      "type": "function"
    },
    {
      "constant": false,
      "inputs": [
        {
          "name": "validationRound",
          "type": "uint256"
        }
      ],
      "name": "approveRewards",
      "outputs": [],
      "payable": false,
      "stateMutability": "nonpayable",
      "type": "function"
    },
    {
      "constant": false,
      "inputs": [
        {
          "name": "validationRound",
          "type": "uint256"
        },
        {
          "name": "altHash",
          "type": "string"
        }
      ],
      "name": "rejectRewards",
      "outputs": [],
      "payable": false,
      "stateMutability": "nonpayable",
      "type": "function"
    },
    {
      "constant": false,
      "inputs": [],
      "name": "triggerDispute",
      "outputs": [],
      "payable": false,
      "stateMutability": "nonpayable",
      "type": "function"
    },
    {
      "constant": true,
      "inputs": [],
      "name": "requiredNextDisputeAmount",
      "outputs": [
        {
          "name": "",
          "type": "uint256"
        }
      ],
      "payable": false,
      "stateMutability": "view",
      "type": "function"
    },
    {
      "constant": true,
      "inputs": [],
      "name": "getEventResolvers",
      "outputs": [
        {
          "name": "",
          "type": "address[]"
        }
      ],
      "payable": false,
      "stateMutability": "view",
      "type": "function"
    },
    {
      "constant": true,
      "inputs": [],
      "name": "isMasterNode",
      "outputs": [
        {
          "name": "",
          "type": "bool"
        }
      ],
      "payable": false,
      "stateMutability": "view",
      "type": "function"
    },
    {
      "constant": true,
      "inputs": [],
      "name": "getReward",
      "outputs": [
        {
          "name": "",
          "type": "uint256[2]"
        }
      ],
      "payable": false,
      "stateMutability": "view",
      "type": "function"
    },
    {
      "constant": true,
      "inputs": [],
      "name": "getRewardsIndex",
      "outputs": [
        {
          "name": "",
          "type": "address[]"
        }
      ],
      "payable": false,
      "stateMutability": "view",
      "type": "function"
    },
    {
      "constant": true,
      "inputs": [
        {
          "name": "_addresses",
          "type": "address[]"
        }
      ],
      "name": "getRewards",
      "outputs": [
        {
          "name": "",
          "type": "uint256[]"
        },
        {
          "name": "",
          "type": "uint256[]"
        }
      ],
      "payable": false,
      "stateMutability": "view",
      "type": "function"
    },
    {
      "constant": false,
      "inputs": [],
      "name": "claimReward",
      "outputs": [],
      "payable": false,
      "stateMutability": "nonpayable",
      "type": "function"
    },
    {
      "constant": false,
      "inputs": [],
      "name": "nodeClaimReward",
      "outputs": [],
      "payable": false,
      "stateMutability": "nonpayable",
      "type": "function"
    },
    {
      "constant": false,
      "inputs": [],
      "name": "claimFailed",
      "outputs": [],
      "payable": false,
      "stateMutability": "nonpayable",
      "type": "function"
    },
    {
      "constant": false,
      "inputs": [
        {
          "name": "_hash",
          "type": "string"
        }
      ],
      "name": "setDataFeedHash",
      "outputs": [],
      "payable": false,
      "stateMutability": "nonpayable",
      "type": "function"
    },
    {
      "constant": false,
      "inputs": [
        {
          "name": "_results",
          "type": "bytes32[]"
        }
      ],
      "name": "setResults",
      "outputs": [],
      "payable": false,
      "stateMutability": "nonpayable",
      "type": "function"
    },
    {
      "constant": true,
      "inputs": [],
      "name": "getResults",
      "outputs": [
        {
          "name": "",
          "type": "bytes32[]"
        }
      ],
      "payable": false,
      "stateMutability": "view",
      "type": "function"
    },
    {
      "constant": true,
      "inputs": [],
      "name": "getState",
      "outputs": [
        {
          "name": "",
          "type": "uint256"
        }
      ],
      "payable": false,
      "stateMutability": "view",
      "type": "function"
    },
    {
      "constant": true,
      "inputs": [],
      "name": "getBalance",
      "outputs": [
        {
          "name": "",
          "type": "uint256[2]"
        }
      ],
      "payable": false,
      "stateMutability": "view",
      "type": "function"
    },
    {
      "constant": true,
      "inputs": [],
      "name": "getEventCategory",
      "outputs": [
        {
          "name": "",
          "type": "bytes32[2]"
        }
      ],
      "payable": false,
      "stateMutability": "view",
      "type": "function"
    },
    {
      "constant": true,
      "inputs": [],
      "name": "getConsensusRules",
      "outputs": [
        {
          "name": "",
          "type": "uint256[6]"
        }
      ],
      "payable": false,
      "stateMutability": "view",
      "type": "function"
    },
    {
      "constant": true,
      "inputs": [],
      "name": "getDisputeData",
      "outputs": [
        {
          "name": "",
          "type": "uint256[5]"
        },
        {
          "name": "",
          "type": "address"
        }
      ],
      "payable": false,
      "stateMutability": "view",
      "type": "function"
    },
    {
      "constant": false,
      "inputs": [],
      "name": "triggerStateChange",
      "outputs": [],
      "payable": false,
      "stateMutability": "nonpayable",
      "type": "function"
    },
    {
      "constant": false,
      "inputs": [],
      "name": "recoverLeftovers",
      "outputs": [],
      "payable": false,
      "stateMutability": "nonpayable",
      "type": "function"
    },
    {
      "constant": true,
      "inputs": [],
      "name": "getRequiredRoles",
      "outputs": [
        {
          "name": "",
          "type": "uint256[]"
        }
      ],
      "payable": false,
      "stateMutability": "view",
      "type": "function"
    },
    {
      "constant": false,
      "inputs": [],
      "name": "cancelEvent",
      "outputs": [],
      "payable": false,
      "stateMutability": "nonpayable",
      "type": "function"
    }
  ],
  "bytecode": "0x60806040526006805460ff1990811690915560338054909116905534801561002657600080fd5b50614d05806100366000396000f3fe60806040526004361061028e576000357c010000000000000000000000000000000000000000000000000000000090048063739a3e021161016c578063b88a802f116100de578063efba9bd211610097578063efba9bd214610dab578063f38a803f14610dc0578063f4caee8814610dd5578063f9010d1914610e08578063fb6c953714610e1d578063fce1a10c14610e325761028e565b8063b88a802f14610c3d578063c08e737414610c52578063d563f0c514610c67578063d6e9b01914610c7c578063e0807f8914610ce2578063e3a86e7114610cf75761028e565b806381c2d8751161013057806381c2d87514610ae55780638da5cb5b14610b0f5780639d76ea5814610b24578063a77ae83914610b39578063ab95b58614610b63578063ac88490214610b8d5761028e565b8063739a3e02146109d757806374539f98146109ec5780637e0c478b14610a015780638043c9c014610a165780638126cb1e14610a2b5761028e565b80634227357c116102055780634b766b95116101c95780634b766b9514610787578063510ccb431461083a57806352f91acf1461098357806354e33cf01461099857806354fd4d50146109ad5780635aa68ac0146109c25761028e565b80634227357c146105bb57806342380eaf14610645578063437933cc1461065a57806345f99d511461070d5780634717f97c146107225761028e565b8063148b597c11610257578063148b597c14610376578063181b3f5a1461038b5780631865c57d146103a05780631a0ddce9146103b55780631e59680b1461056d5780633d18b912146105a65761028e565b8062f161421461029057806302a36305146102b7578063073f03fb146102cc57806311e956c8146102fd57806312065fe014610326575b005b34801561029c57600080fd5b506102a5610e47565b60408051918252519081900360200190f35b3480156102c357600080fd5b506102a5610e4d565b3480156102d857600080fd5b506102e1610e53565b60408051600160a060020a039092168252519081900360200190f35b34801561030957600080fd5b50610312610e62565b604080519115158252519081900360200190f35b34801561033257600080fd5b5061033b610e74565b6040518082600260200280838360005b8381101561036357818101518382015260200161034b565b5050505090500191505060405180910390f35b34801561038257600080fd5b50610312610f24565b34801561039757600080fd5b506102a5610f32565b3480156103ac57600080fd5b506102a5610f7d565b3480156103c157600080fd5b5061028e600480360360608110156103d857600080fd5b8101906020810181356401000000008111156103f357600080fd5b82018360208201111561040557600080fd5b8035906020019184602083028401116401000000008311171561042757600080fd5b919080806020026020016040519081016040528093929190818152602001838360200280828437600092019190915250929594936020810193503591505064010000000081111561047757600080fd5b82018360208201111561048957600080fd5b803590602001918460208302840111640100000000831117156104ab57600080fd5b91908080602002602001604051908101604052809392919081815260200183836020028082843760009201919091525092959493602081019350359150506401000000008111156104fb57600080fd5b82018360208201111561050d57600080fd5b8035906020019184602083028401116401000000008311171561052f57600080fd5b919080806020026020016040519081016040528093929190818152602001838360200280828437600092019190915250929550610f96945050505050565b34801561057957600080fd5b50610582611309565b6040518082600281111561059257fe5b60ff16815260200191505060405180910390f35b3480156105b257600080fd5b5061033b611312565b3480156105c757600080fd5b506105d0611354565b6040805160208082528351818301528351919283929083019185019080838360005b8381101561060a5781810151838201526020016105f2565b50505050905090810190601f1680156106375780820380516001836020036101000a031916815260200191505b509250505060405180910390f35b34801561065157600080fd5b506105d06113e2565b34801561066657600080fd5b5061028e6004803603602081101561067d57600080fd5b81019060208101813564010000000081111561069857600080fd5b8201836020820111156106aa57600080fd5b803590602001918460018302840111640100000000831117156106cc57600080fd5b91908080601f01602080910402602001604051908101604052809392919081815260200183838082843760009201919091525092955061143d945050505050565b34801561071957600080fd5b5061028e61146b565b34801561072e57600080fd5b506107376117b2565b60408051602080825283518183015283519192839290830191858101910280838360005b8381101561077357818101518382015260200161075b565b505050509050019250505060405180910390f35b34801561079357600080fd5b5061028e600480360360208110156107aa57600080fd5b8101906020810181356401000000008111156107c557600080fd5b8201836020820111156107d757600080fd5b803590602001918460018302840111640100000000831117156107f957600080fd5b91908080601f01602080910402602001604051908101604052809392919081815260200183838082843760009201919091525092955061180a945050505050565b34801561084657600080fd5b506108ea6004803603602081101561085d57600080fd5b81019060208101813564010000000081111561087857600080fd5b82018360208201111561088a57600080fd5b803590602001918460208302840111640100000000831117156108ac57600080fd5b919080806020026020016040519081016040528093929190818152602001838360200280828437600092019190915250929550611a94945050505050565b604051808060200180602001838103835285818151815260200191508051906020019060200280838360005b8381101561092e578181015183820152602001610916565b50505050905001838103825284818151815260200191508051906020019060200280838360005b8381101561096d578181015183820152602001610955565b5050505090500194505050505060405180910390f35b34801561098f57600080fd5b5061028e611bcf565b3480156109a457600080fd5b506107376120e1565b3480156109b957600080fd5b506102a5612142565b3480156109ce57600080fd5b50610737612147565b3480156109e357600080fd5b506102a56121a7565b3480156109f857600080fd5b506107376121ad565b348015610a0d57600080fd5b506102a561220d565b348015610a2257600080fd5b506105d0612213565b348015610a3757600080fd5b5061028e60048036036040811015610a4e57600080fd5b81359190810190604081016020820135640100000000811115610a7057600080fd5b820183602082011115610a8257600080fd5b80359060200191846001830284011164010000000083111715610aa457600080fd5b91908080601f01602080910402602001604051908101604052809392919081815260200183838082843760009201919091525092955061226e945050505050565b348015610af157600080fd5b50610afa61262d565b60405181518152808260c0808383602061034b565b348015610b1b57600080fd5b506102e1612683565b348015610b3057600080fd5b506102e1612692565b348015610b4557600080fd5b5061028e60048036036020811015610b5c57600080fd5b50356126a1565b348015610b6f57600080fd5b50610b786128c3565b60405181518152808260a0808383602061034b565b348015610b9957600080fd5b5061028e60048036036020811015610bb057600080fd5b810190602081018135640100000000811115610bcb57600080fd5b820183602082011115610bdd57600080fd5b80359060200191846020830284011164010000000083111715610bff57600080fd5b919080806020026020016040519081016040528093929190818152602001838360200280828437600092019190915250929550612901945050505050565b348015610c4957600080fd5b5061028e612b53565b348015610c5e57600080fd5b5061028e612fe0565b348015610c7357600080fd5b5061028e61339d565b348015610c8857600080fd5b50610c916134b5565b604051808360a080838360005b83811015610cb6578181015183820152602001610c9e565b5050505090500182600160a060020a0316600160a060020a031681526020019250505060405180910390f35b348015610cee57600080fd5b506107376134ff565b348015610d0357600080fd5b50610d0c613555565b6040518085600160a060020a0316600160a060020a0316815260200180602001848152602001838152602001828103825285818151815260200191508051906020019080838360005b83811015610d6d578181015183820152602001610d55565b50505050905090810190601f168015610d9a5780820380516001836020036101000a031916815260200191505b509550505050505060405180910390f35b348015610db757600080fd5b5061028e613602565b348015610dcc57600080fd5b506102a56138dd565b348015610de157600080fd5b5061031260048036036020811015610df857600080fd5b5035600160a060020a03166138e3565b348015610e1457600080fd5b5061028e613905565b348015610e2957600080fd5b5061028e613f45565b348015610e3e57600080fd5b5061033b6140e6565b60105481565b601d5481565b600254600160a060020a031681565b600754600160a060020a031633145b90565b610e7c614968565b604080518082018252308031825260015483517f70a08231000000000000000000000000000000000000000000000000000000008152600481019290925292519192602080850193600160a060020a03909216926370a082319260248083019392829003018186803b158015610ef157600080fd5b505afa158015610f05573d6000803e3d6000fd5b505050506040513d6020811015610f1b57600080fd5b50519052905090565b603354610100900460ff1681565b6022546000901515610f475750602054610e71565b60245460011415610f7057602254602054811515610f6157fe5b04602060000154019050610e71565b5060245460205402610e71565b60335460009060ff166005811115610f9157fe5b905090565b600754600160a060020a03163314610ff8576040805160e560020a62461bcd02815260206004820152601d60248201527f4e6f7420612064657369676e61746564206d6173746572206e6f64652e000000604482015290519081900360640190fd5b600060335460ff16600581111561100b57fe5b14801561101a57506016544210155b156110275761102761411b565b600160335460ff16600581111561103a57fe5b14801561104957506017544210155b1561108857602d5460125410156110805761107b604051806060016040528060338152602001614ca7603391396141f5565b611088565b61108861411b565b600360335460ff16600581111561109b57fe5b1480156110aa57506023544210155b156110b7576110b761411b565b600260335460ff1660058111156110ca57fe5b1480156110dd5750601b54601954014210155b1561110e5761110e604051806040016040528060208152602001600080516020614b5c8339815191528152506141f5565b60335460029060ff16600581111561112257fe5b81600581111561112e57fe5b1461116d5760405160e560020a62461bcd028152600401808060200182810382526024815260200180614b386024913960400191505060405180910390fd5b8251845114801561117f575081518451145b151561118a57600080fd5b600060065460ff16600281111561119d57fe5b146111dc5760405160e560020a62461bcd028152600401808060200182810382526026815260200180614c816026913960400191505060405180910390fd5b60005b84518110156113025783818151811015156111f657fe5b9060200190602002015160146000878481518110151561121257fe5b602090810291909101810151600160a060020a031682528181019290925260409081016000908120818052909252902055825183908290811061125157fe5b9060200190602002015160146000878481518110151561126d57fe5b602090810291909101810151600160a060020a0316825281810192909252604090810160009081206001825290925290205584516015908690839081106112b057fe5b602090810291909101810151825460018082018555600094855292909320909201805473ffffffffffffffffffffffffffffffffffffffff1916600160a060020a0390931692909217909155016111df565b5050505050565b60065460ff1681565b61131a614968565b5060408051808201825233600090815260146020908152838220828052808252848320548452600183528152929020549181019190915290565b602b805460408051602060026001851615610100026000190190941693909304601f810184900484028201840190925281815292918301828280156113da5780601f106113af576101008083540402835291602001916113da565b820191906000526020600020905b8154815290600101906020018083116113bd57829003601f168201915b505050505081565b601a805460408051602060026001851615610100026000190190941693909304601f810184900484028201840190925281815292918301828280156113da5780601f106113af576101008083540402835291602001916113da565b600054600160a060020a0316331461145457600080fd5b805161146790602b906020840190614986565b5050565b611474336138e3565b15156114ca576040805160e560020a62461bcd02815260206004820152601260248201527f4e6f742070617274696369706174696e672e0000000000000000000000000000604482015290519081900360640190fd5b600060335460ff1660058111156114dd57fe5b1480156114ec57506016544210155b156114f9576114f961411b565b600160335460ff16600581111561150c57fe5b14801561151b57506017544210155b1561155a57602d5460125410156115525761154d604051806060016040528060338152602001614ca7603391396141f5565b61155a565b61155a61411b565b600360335460ff16600581111561156d57fe5b14801561157c57506023544210155b156115895761158961411b565b600260335460ff16600581111561159c57fe5b1480156115af5750601b54601954014210155b156115e0576115e0604051806040016040528060208152602001600080516020614b5c8339815191528152506141f5565b60335460059060ff16818111156115f357fe5b8160058111156115ff57fe5b1461163e5760405160e560020a62461bcd028152600401808060200182810382526024815260200180614b386024913960400191505060405180910390fd5b6000601c5411806116655750602254158015906116655750602654600160a060020a031633145b15156116bb576040805160e560020a62461bcd02815260206004820152601160248201527f4e6f207374616b6520746f20636c61696d000000000000000000000000000000604482015290519081900360640190fd5b602654600090600160a060020a03163314156116d657602054015b601c546001546040805160e060020a63a9059cbb028152336004820152939092016024840181905291519192600160a060020a039091169163a9059cbb916044808201926020929091908290030181600087803b15801561173657600080fd5b505af115801561174a573d6000803e3d6000fd5b505050506040513d602081101561176057600080fd5b505033600081815260116020908152604091829020805460ff19169055815192835290517f5a53668be860a256c7ff92bff48881a9db38994032e2b90e5a0bdd51921fbeb79281900390910190a15050565b6060602c80548060200260200160405190810160405280929190818152602001828054801561180057602002820191906000526020600020905b8154815260200190600101908083116117ec575b5050505050905090565b600754600160a060020a0316331461186c576040805160e560020a62461bcd02815260206004820152601d60248201527f4e6f7420612064657369676e61746564206d6173746572206e6f64652e000000604482015290519081900360640190fd5b600060335460ff16600581111561187f57fe5b14801561188e57506016544210155b1561189b5761189b61411b565b600160335460ff1660058111156118ae57fe5b1480156118bd57506017544210155b156118fc57602d5460125410156118f4576118ef604051806060016040528060338152602001614ca7603391396141f5565b6118fc565b6118fc61411b565b600360335460ff16600581111561190f57fe5b14801561191e57506023544210155b1561192b5761192b61411b565b600260335460ff16600581111561193e57fe5b1480156119515750601b54601954014210155b1561198257611982604051806040016040528060208152602001600080516020614b5c8339815191528152506141f5565b60335460029060ff16600581111561199657fe5b8160058111156119a257fe5b146119e15760405160e560020a62461bcd028152600401808060200182810382526024815260200180614b386024913960400191505060405180910390fd5b600060065460ff1660028111156119f457fe5b14611a335760405160e560020a62461bcd028152600401808060200182810382526026815260200180614c816026913960400191505060405180910390fd5b8151611a46906008906020850190614986565b50600160098190556006805460ff1916909117905560105460408051918252517f47c2e9e59e6d2347f314927d02f36b95696a09b5f0ac0bae119ff5ae937016559181900360200190a15050565b60608060608351604051908082528060200260200182016040528015611ac4578160200160208202803883390190505b50905060608451604051908082528060200260200182016040528015611af4578160200160208202803883390190505b50905060005b8551811015611bc457601460008783815181101515611b1557fe5b602090810291909101810151600160a060020a0316825281810192909252604090810160009081208180529092529020548351849083908110611b5457fe5b602090810290910101528551601490600090889084908110611b7257fe5b602090810291909101810151600160a060020a031682528181019290925260409081016000908120600182529092529020548251839083908110611bb257fe5b60209081029091010152600101611afa565b509092509050915091565b600060335460ff166005811115611be257fe5b148015611bf157506016544210155b15611bfe57611bfe61411b565b600160335460ff166005811115611c1157fe5b148015611c2057506017544210155b15611c5f57602d546012541015611c5757611c52604051806060016040528060338152602001614ca7603391396141f5565b611c5f565b611c5f61411b565b600360335460ff166005811115611c7257fe5b148015611c8157506023544210155b15611c8e57611c8e61411b565b600260335460ff166005811115611ca157fe5b148015611cb45750601b54601954014210155b15611ce557611ce5604051806040016040528060208152602001600080516020614b5c8339815191528152506141f5565b611cee336138e3565b1515611d44576040805160e560020a62461bcd02815260206004820152601260248201527f4e6f742070617274696369706174696e672e0000000000000000000000000000604482015290519081900360640190fd5b60335460039060ff166005811115611d5857fe5b816005811115611d6457fe5b14611da35760405160e560020a62461bcd028152600401808060200182810382526024815260200180614b386024913960400191505060405180910390fd5b6000611dad610f32565b600154604080517fdd62ed3e00000000000000000000000000000000000000000000000000000000815233600482015230602482015290519293508392600160a060020a039092169163dd62ed3e91604480820192602092909190829003018186803b158015611e1c57600080fd5b505afa158015611e30573d6000803e3d6000fd5b505050506040513d6020811015611e4657600080fd5b50511015611e885760405160e560020a62461bcd028152600401808060200182810382526025815260200180614b7c6025913960400191505060405180910390fd5b3360009081526025602052604090205460ff1615611ef0576040805160e560020a62461bcd02815260206004820152601c60248201527f416c726561647920747269676765726564206120646973707574652e00000000604482015290519081900360640190fd5b60225415611f8157600154602654602080546040805160e060020a63a9059cbb028152600160a060020a039485166004820152602481019290925251929093169263a9059cbb92604480830193928290030181600087803b158015611f5457600080fd5b505af1158015611f68573d6000803e3d6000fd5b505050506040513d6020811015611f7e57600080fd5b50505b6020818155602280546001908101909155336000818152602584526040808220805460ff1916851790556026805473ffffffffffffffffffffffffffffffffffffffff1916841790559254845484517f23b872dd000000000000000000000000000000000000000000000000000000008152600481019490945230602485015260448401529251600160a060020a03909316936323b872dd93606480850194929391928390030190829087803b15801561203a57600080fd5b505af115801561204e573d6000803e3d6000fd5b505050506040513d602081101561206457600080fd5b5061206f905061433b565b612077614464565b6033805460ff1916600117905560275442810160188190556017819055016019556120a0614514565b6032805460ff191690556040805133815290517ff6d97c5e133e50668a6b3607d8748ef6599c3303babb2b08a515a5a67369f45f9181900360200190a15050565b6060601580548060200260200160405190810160405280929190818152602001828054801561180057602002820191906000526020600020905b8154600160a060020a0316815260019091019060200180831161211b575050505050905090565b600181565b6060601280548060200260200160405190810160405280929190818152602001828054801561180057602002820191906000526020600020908154600160a060020a0316815260019091019060200180831161211b575050505050905090565b601c5481565b6060600380548060200260200160405190810160405280929190818152602001828054801561180057602002820191906000526020600020908154600160a060020a0316815260019091019060200180831161211b575050505050905090565b601e5481565b6028805460408051602060026001851615610100026000190190941693909304601f810184900484028201840190925281815292918301828280156113da5780601f106113af576101008083540402835291602001916113da565b60335460029060ff16600581111561228257fe5b81600581111561228e57fe5b146122cd5760405160e560020a62461bcd028152600401808060200182810382526024815260200180614b386024913960400191505060405180910390fd5b826122d73361455c565b80156122e857506122e6610e62565b155b151561233e576040805160e560020a62461bcd02815260206004820152601b60248201527f4e6f7420612076616c69642073656e64657220616464726573732e0000000000604482015290519081900360640190fd5b600160065460ff16600281111561235157fe5b146123a6576040805160e560020a62461bcd02815260206004820152601760248201527f4e6f742076616c69646174696e6720726577617264732e000000000000000000604482015290519081900360640190fd5b60105481146123ff576040805160e560020a62461bcd02815260206004820152601a60248201527f56616c69646174696f6e20726f756e64206d69736d617463682e000000000000604482015290519081900360640190fd5b601054336000908152600d602052604090205410612467576040805160e560020a62461bcd02815260206004820152601d60248201527f416c726561647920766f74656420666f72207468697320726f756e642e000000604482015290519081900360640190fd5b600a80546001908101909155601054336000818152600d6020908152604080832094909455600c805495860181559091527fdf6966c971051c3d54ec59162606531493a51404a002842f56009d7e5cf4a8c7909301805473ffffffffffffffffffffffffffffffffffffffff19169091179055518451600f9286929182918401908083835b6020831061250b5780518252601f1990920191602091820191016124ec565b51815160209384036101000a600019018019909216911617905292019485525060405193849003019092205460ff161515915061261f905057600b8054600181018083556000929092528451612588917f0175b7a638427703f0dbe7bb9bbf987a2551717b34e79f33b5b1008d1fa01db901906020870190614986565b505060078001836040518082805190602001908083835b602083106125be5780518252601f19909201916020918201910161259f565b51815160001960209485036101000a0190811690199190911617905292019485525060405193849003810190932080546001810182556000918252939020909201805473ffffffffffffffffffffffffffffffffffffffff19163317905550505b6126276145b9565b50505050565b612635614a04565b6040805160c081018252602d548152602e546020820152602f54918101919091526030546060820152603154608082015260325460a082019060ff16600181111561267c57fe5b9052905090565b600054600160a060020a031681565b600154600160a060020a031681565b60335460029060ff1660058111156126b557fe5b8160058111156126c157fe5b146127005760405160e560020a62461bcd028152600401808060200182810382526024815260200180614b386024913960400191505060405180910390fd5b8161270a3361455c565b801561271b5750612719610e62565b155b1515612771576040805160e560020a62461bcd02815260206004820152601b60248201527f4e6f7420612076616c69642073656e64657220616464726573732e0000000000604482015290519081900360640190fd5b600160065460ff16600281111561278457fe5b146127d9576040805160e560020a62461bcd02815260206004820152601760248201527f4e6f742076616c69646174696e6720726577617264732e000000000000000000604482015290519081900360640190fd5b6010548114612832576040805160e560020a62461bcd02815260206004820152601a60248201527f56616c69646174696f6e20726f756e64206d69736d617463682e000000000000604482015290519081900360640190fd5b601054336000908152600d60205260409020541061289a576040805160e560020a62461bcd02815260206004820152601d60248201527f416c726561647920766f74656420666f72207468697320726f756e642e000000604482015290519081900360640190fd5b600980546001019055601054336000908152600d60205260409020556128be6145d4565b505050565b6128cb614a22565b6040518060a001604052806016548152602001601754815260200160185481526020016019548152602001601b54815250905090565b600754600160a060020a03163314612963576040805160e560020a62461bcd02815260206004820152601d60248201527f4e6f7420612064657369676e61746564206d6173746572206e6f64652e000000604482015290519081900360640190fd5b600060335460ff16600581111561297657fe5b14801561298557506016544210155b156129925761299261411b565b600160335460ff1660058111156129a557fe5b1480156129b457506017544210155b156129f357602d5460125410156129eb576129e6604051806060016040528060338152602001614ca7603391396141f5565b6129f3565b6129f361411b565b600360335460ff166005811115612a0657fe5b148015612a1557506023544210155b15612a2257612a2261411b565b600260335460ff166005811115612a3557fe5b148015612a485750601b54601954014210155b15612a7957612a79604051806040016040528060208152602001600080516020614b5c8339815191528152506141f5565b60335460029060ff166005811115612a8d57fe5b816005811115612a9957fe5b14612ad85760405160e560020a62461bcd028152600401808060200182810382526024815260200180614b386024913960400191505060405180910390fd5b600060065460ff166002811115612aeb57fe5b14612b40576040805160e560020a62461bcd02815260206004820152601e60248201527f4f6e6c79206265666f72652076616c69646174696f6e207374617274732e0000604482015290519081900360640190fd5b81516128be90602c906020850190614a40565b612b5c336138e3565b1515612bb2576040805160e560020a62461bcd02815260206004820152601260248201527f4e6f742070617274696369706174696e672e0000000000000000000000000000604482015290519081900360640190fd5b600060335460ff166005811115612bc557fe5b148015612bd457506016544210155b15612be157612be161411b565b600160335460ff166005811115612bf457fe5b148015612c0357506017544210155b15612c4257602d546012541015612c3a57612c35604051806060016040528060338152602001614ca7603391396141f5565b612c42565b612c4261411b565b600360335460ff166005811115612c5557fe5b148015612c6457506023544210155b15612c7157612c7161411b565b600260335460ff166005811115612c8457fe5b148015612c975750601b54601954014210155b15612cc857612cc8604051806040016040528060208152602001600080516020614b5c8339815191528152506141f5565b60335460049060ff166005811115612cdc57fe5b816005811115612ce857fe5b14612d275760405160e560020a62461bcd028152600401808060200182810382526024815260200180614b386024913960400191505060405180910390fd5b336000908152601460209081526040808320838052909152808220546001835291205481158015612d56575080155b15612da55733600160a060020a0316600080516020614ba1833981519152604051808060200182810382526025815260200180614bc16025913960400191505060405180910390a25050612fdd565b336000908152601460209081526040808320838052909152902054601e543031031080612e76575033600090815260146020908152604080832060018085529083529281902054925481517f70a082310000000000000000000000000000000000000000000000000000000081523060048201529151600160a060020a03909116926370a082319260248082019391829003018186803b158015612e4857600080fd5b505afa158015612e5c573d6000803e3d6000fd5b505050506040513d6020811015612e7257600080fd5b5051105b15612ec55733600160a060020a0316600080516020614ba1833981519152604051808060200182810382526045815260200180614c3c6045913960600191505060405180910390a25050612fdd565b33600081815260146020908152604080832083805290915280822082905560018252808220829055516108fc85150291859190818181858888f19350505050158015612f15573d6000803e3d6000fd5b508015612fa0576001546040805160e060020a63a9059cbb028152336004820152602481018490529051600160a060020a039092169163a9059cbb916044808201926020929091908290030181600087803b158015612f7357600080fd5b505af1158015612f87573d6000803e3d6000fd5b505050506040513d6020811015612f9d57600080fd5b50505b6040805183815260208101839052815133927fe74e5c9d4ac1fc33412485f18c159a0a391efe287ab3fd271123f30e6bacf4e3928290030190a250505b50565b600060335460ff166005811115612ff357fe5b14801561300257506016544210155b1561300f5761300f61411b565b600160335460ff16600581111561302257fe5b14801561303157506017544210155b1561307057602d54601254101561306857613063604051806060016040528060338152602001614ca7603391396141f5565b613070565b61307061411b565b600360335460ff16600581111561308357fe5b14801561309257506023544210155b1561309f5761309f61411b565b600260335460ff1660058111156130b257fe5b1480156130c55750601b54601954014210155b156130f6576130f6604051806040016040528060208152602001600080516020614b5c8339815191528152506141f5565b60335460049060ff16600581111561310a57fe5b81600581111561311657fe5b146131555760405160e560020a62461bcd028152600401808060200182810382526024815260200180614b386024913960400191505060405180910390fd5b61315e3361455c565b15156131b4576040805160e560020a62461bcd02815260206004820152600b60248201527f4e6f742061206e6f64652e000000000000000000000000000000000000000000604482015290519081900360640190fd5b336000908152601f602052604090205460ff161561321c576040805160e560020a62461bcd02815260206004820152601060248201527f416c726561647920636c61696d65642e00000000000000000000000000000000604482015290519081900360640190fd5b6000613226610e62565b1561323a5761323361461c565b90506132b4565b613242614647565b1561326457600760020154600101601d5481151561325c57fe5b0490506132b4565b6040805160e560020a62461bcd02815260206004820152601060248201527f4e6f7468696e6720746f20636c61696d00000000000000000000000000000000604482015290519081900360640190fd5b601e5481111561330e576040805160e560020a62461bcd02815260206004820152601e60248201527f536f6d657468696e672077656e7420686f727269626c792077726f6e672e0000604482015290519081900360640190fd5b604051339082156108fc029083906000818181858888f1935050505015801561333b573d6000803e3d6000fd5b50601e80548290039055336000818152601f6020908152604091829020805460ff191660011790558151928352820183905280517f9bba21557d0250e19101c5df524f23380fd45fc8cd7ec3a22b8431abcc1525c29281900390910190a15050565b600060335460ff1660058111156133b057fe5b1480156133bf57506016544210155b156133cc576133cc61411b565b600160335460ff1660058111156133df57fe5b1480156133ee57506017544210155b1561342d57602d54601254101561342557613420604051806060016040528060338152602001614ca7603391396141f5565b61342d565b61342d61411b565b600360335460ff16600581111561344057fe5b14801561344f57506023544210155b1561345c5761345c61411b565b600260335460ff16600581111561346f57fe5b1480156134825750601b54601954014210155b156134b3576134b3604051806040016040528060208152602001600080516020614b5c8339815191528152506141f5565b565b6134bd614a22565b506040805160a081018252602080548252602154908201526024549181019190915260225460608201526023546080820152602654600160a060020a03169091565b6060600580548060200260200160405190810160405280929190818152602001828054801561180057602002820191906000526020600020908154815260200190600101908083116117ec575050505050905090565b600780546008805460408051602060026101006001861615026000190190941693909304601f8101849004840282018401909252818152600160a060020a03909416949392918301828280156135ec5780601f106135c1576101008083540402835291602001916135ec565b820191906000526020600020905b8154815290600101906020018083116135cf57829003601f168201915b5050505050908060020154908060030154905084565b600054600160a060020a0316331461361957600080fd5b600060335460ff16600581111561362c57fe5b14801561363b57506016544210155b156136485761364861411b565b600160335460ff16600581111561365b57fe5b14801561366a57506017544210155b156136a957602d5460125410156136a15761369c604051806060016040528060338152602001614ca7603391396141f5565b6136a9565b6136a961411b565b600360335460ff1660058111156136bc57fe5b1480156136cb57506023544210155b156136d8576136d861411b565b600260335460ff1660058111156136eb57fe5b1480156136fe5750601b54601954014210155b1561372f5761372f604051806040016040528060208152602001600080516020614b5c8339815191528152506141f5565b600460335460ff16600581111561374257fe5b148061375e5750600560335460ff16600581111561375c57fe5b145b151561376957600080fd5b601b54601954016224ea000142101561378157600080fd5b60008054604051600160a060020a0390911691303180156108fc02929091818181858888f193505050501580156137bc573d6000803e3d6000fd5b506000601e819055600154604080517f70a082310000000000000000000000000000000000000000000000000000000081523060048201529051600160a060020a03909216916370a0823191602480820192602092909190829003018186803b15801561382857600080fd5b505afa15801561383c573d6000803e3d6000fd5b505050506040513d602081101561385257600080fd5b5051600154600080546040805160e060020a63a9059cbb028152600160a060020a03928316600482015260248101869052905194955092169263a9059cbb926044808201936020939283900390910190829087803b1580156138b357600080fd5b505af11580156138c7573d6000803e3d6000fd5b505050506040513d60208110156128be57600080fd5b601b5481565b600160a060020a03811660009081526011602052604090205460ff165b919050565b600060335460ff16600581111561391857fe5b14801561392757506016544210155b156139345761393461411b565b600160335460ff16600581111561394757fe5b14801561395657506017544210155b1561399557602d54601254101561398d57613988604051806060016040528060338152602001614ca7603391396141f5565b613995565b61399561411b565b600360335460ff1660058111156139a857fe5b1480156139b757506023544210155b156139c4576139c461411b565b600260335460ff1660058111156139d757fe5b1480156139ea5750601b54601954014210155b15613a1b57613a1b604051806040016040528060208152602001600080516020614b5c8339815191528152506141f5565b60055415801590613aff575060048054604080517f35fe903400000000000000000000000000000000000000000000000000000000815233938101848152602482019283526005805460448401819052600160a060020a03909516956335fe903495909491936064019084908015613ab257602002820191906000526020600020905b815481526020019060010190808311613a9e575b5050935050505060206040518083038186803b158015613ad157600080fd5b505afa158015613ae5573d6000803e3d6000fd5b505050506040513d6020811015613afb57600080fd5b5051155b15613b5a576040805160208082526012908201527f5065726d697373696f6e2064656e6965642e00000000000000000000000000008183015290513391600080516020614ba1833981519152919081900360600190a26134b3565b60315460125410613bbb57604080516020808252600e908201527f4576656e742069732066756c6c2e0000000000000000000000000000000000008183015290513391600080516020614ba1833981519152919081900360600190a26134b3565b613bc4336138e3565b15613c1f57604080516020808252601e908201527f596f752061726520616c72656164792070617274696369706174696e672e00008183015290513391600080516020614ba1833981519152919081900360600190a26134b3565b600160335460ff166005811115613c3257fe5b14613c7f5733600160a060020a0316600080516020614ba1833981519152604051808060200182810382526030815260200180614c0c6030913960400191505060405180910390a26134b3565b6000601c54118015613d275750601c54600154604080517fdd62ed3e0000000000000000000000000000000000000000000000000000000081523360048201523060248201529051600160a060020a039092169163dd62ed3e91604480820192602092909190829003018186803b158015613cf957600080fd5b505afa158015613d0d573d6000803e3d6000fd5b505050506040513d6020811015613d2357600080fd5b5051105b15613d82576040805160208082526019908201527f4e6f7420656e6f75676820746f6b656e73207374616b65642e000000000000008183015290513391600080516020614ba1833981519152919081900360600190a26134b3565b601c5415613e2d57600154601c54604080517f23b872dd000000000000000000000000000000000000000000000000000000008152336004820152306024820152604481019290925251600160a060020a03909216916323b872dd916064808201926020929091908290030181600087803b158015613e0057600080fd5b505af1158015613e14573d6000803e3d6000fd5b505050506040513d6020811015613e2a57600080fd5b50505b33600081815260116020526040808220805460ff1916600190811790915560128054918201815583527fbb8a6a4669ba250d26cd7a459eca9d215f8307e33aebe50379bc5a3617ec344401805473ffffffffffffffffffffffffffffffffffffffff19168417905560025481517fb9d3514d00000000000000000000000000000000000000000000000000000000815260048101949094529051600160a060020a03919091169263b9d3514d92602480830193919282900301818387803b158015613ef757600080fd5b505af1158015613f0b573d6000803e3d6000fd5b50506040805133815290517f0940fd5e528ae9fa6c086f42387c791c3854e0febdf0717c2da155c9dbf1e86c9350908190036020019150a1565b600054600160a060020a03163314613f5c57600080fd5b6018544210613fb5576040805160e560020a62461bcd02815260206004820152601660248201527f4576656e7420616c726561647920737461727465642e00000000000000000000604482015290519081900360640190fd5b6033805461ff0019166101001790554260195560408051808201909152601a81527f4576656e742063616e63656c65642062792063726561746f722e0000000000006020820152614005906141f5565b601c54156134b35760005b601254811015612fdd5760015460128054600160a060020a039092169163a9059cbb91908490811061403e57fe5b6000918252602080832090910154601c54604080517c010000000000000000000000000000000000000000000000000000000063ffffffff8816028152600160a060020a03909316600484015260248301919091525160448083019491928390030190829087803b1580156140b257600080fd5b505af11580156140c6573d6000803e3d6000fd5b505050506040513d60208110156140dc57600080fd5b5050600101614010565b6140ee614968565b60408051808201918290526029805482529091600290602a602085018083116117ec575050505050905090565b600460335460ff16600581111561412e57fe5b1061416d5760405160e560020a62461bcd028152600401808060200182810382526026815260200180614be66026913960400191505060405180910390fd5b60335460ff16600581111561417e57fe5b600101600581111561418c57fe5b6033805460ff191660018360058111156141a257fe5b02179055506033546040517fb9eb8a309bf89f3159b39681f485b6430fec1035b2b457edbcdadcdece888c0b9160ff1690808260058111156141e057fe5b60ff16815260200191505060405180910390a1565b600460335460ff16600581111561420857fe5b106142475760405160e560020a62461bcd028152600401808060200182810382526026815260200180614be66026913960400191505060405180910390fd5b6033805460ff1916600517905560408051602080825283518183015283517f860b7e55e58bd6095b36c4b4016ed8a2e47cb8ebd020fa0e43b32649deb540c3938593928392918301919085019080838360005b838110156142b257818101518382015260200161429a565b50505050905090810190601f1680156142df5780820380516001836020036101000a031916815260200191505b509250505060405180910390a16033546040517fb9eb8a309bf89f3159b39681f485b6430fec1035b2b457edbcdadcdece888c0b9160ff16908082600581111561432557fe5b60ff16815260200191505060405180910390a150565b60006009819055600a8190555b600b548110156143ef57600b8054600e91908390811061436457fe5b9060005260206000200160405180828054600181600116156101000203166002900480156143c95780601f106143a75761010080835404028352918201916143c9565b820191906000526020600020905b8154815290600101906020018083116143b5575b505092835250506040519081900360200190206143e7906000614a7a565b600101614348565b506143fc600b6000614a98565b614408600c6000614a7a565b6006805460ff1916905560005b600354811015612fdd5760006007600601600060038481548110151561443757fe5b6000918252602080832090910154600160a060020a03168352820192909252604001902055600101614415565b60005b6015548110156145075760006014600060158481548110151561448657fe5b600091825260208083209190910154600160a060020a031683528281019390935260409182018120818052909252812091909155601580546014918391859081106144cd57fe5b600091825260208083209190910154600160a060020a03168352828101939093526040918201812060018083529352209190915501614467565b506134b360156000614a7a565b602f80546103e86064828103810282900490920192839055602d8054808402929092049182019055602e80549382029290920492830190915560318054929091019091019055565b6000805b6003548110156145b05782600160a060020a031660038281548110151561458357fe5b600091825260209091200154600160a060020a031614156145a8576001915050613900565b600101614560565b50600092915050565b602f546064036145c76146ba565b106134b3576134b36146d6565b602f546145df6147c7565b106134b3576006805460ff19166002179055602c541561460e57602154420160235561460961411b565b6134b3565b426023556134b360046147dd565b6000600160076002015403600760020154600101601d5481151561463c57fe5b0402601d5403905090565b601054336000908152600d602052604081205490911461466957506000610e71565b60005b600c548110156146b257600c80548290811061468457fe5b600091825260209091200154600160a060020a03163314156146aa576000915050610e71565b60010161466c565b506001905090565b600354600a54600091906064028115156146d057fe5b04905090565b600160076008016007600101604051808280546001816001161561010002031660029004801561473d5780601f1061471b57610100808354040283529182019161473d565b820191906000526020600020905b815481529060010190602001808311614729575b50509283525050604051602091819003919091019020805460ff1916911515919091179055600b54600a546010546009549290910360010191016000190111156147bf576146096040518060400160405280601a81526020017f436f6e73656e7375732063616e277420626520726561636865640000000000008152506141f5565b6134b3614834565b600354600954600091906064028115156146d057fe5b6033805482919060ff191660018360058111156147f657fe5b02179055506033546040517fb9eb8a309bf89f3159b39681f485b6430fec1035b2b457edbcdadcdece888c0b9160ff16908082600581111561432557fe5b601080546001019055600b8054600e9190600090811061485057fe5b9060005260206000200160405180828054600181600116156101000203166002900480156148b55780601f106148935761010080835404028352918201916148b5565b820191906000526020600020905b8154815290600101906020018083116148a1575b50509283525050604051908190036020019020805460009081106148d557fe5b6000918252602090912001546007805473ffffffffffffffffffffffffffffffffffffffff1916600160a060020a0390921691909117905561491561433b565b61491d614464565b60105460075460408051928352600160a060020a03909116602083015280517f372d3c1251f28673c4ee2eaf015d5e07bf3145e2df993fd41cae9707f389eaa89281900390910190a1565b60405180604001604052806002906020820280388339509192915050565b828054600181600116156101000203166002900490600052602060002090601f016020900481019282601f106149c757805160ff19168380011785556149f4565b828001600101855582156149f4579182015b828111156149f45782518255916020019190600101906149d9565b50614a00929150614ab6565b5090565b6040518060c001604052806006906020820280388339509192915050565b6040518060a001604052806005906020820280388339509192915050565b8280548282559060005260206000209081019282156149f457916020028201828111156149f45782518255916020019190600101906149d9565b5080546000825590600052602060002090810190612fdd9190614ab6565b5080546000825590600052602060002090810190612fdd9190614ad0565b610e7191905b80821115614a005760008155600101614abc565b610e7191905b80821115614a00576000614aea8282614af3565b50600101614ad6565b50805460018160011615610100020316600290046000825580601f10614b195750612fdd565b601f016020900490600052602060002090810190612fdd9190614ab656fe4e6f7420706f737369626c6520696e2063757272656e74206576656e742073746174652e4576656e7420746f6f6b20746f6f206c6f6e6720746f20636f6d706c6574652e4e6f7420656e6f75676820746f6b656e73207374616b656420666f7220646973707574652ecfa5f641c29090a64bc13dcafdc8c23d82677807046c35d636ca9c57fc9cb257596f7520646f206e6f74206861766520616e79207265776172647320746f20636c61696d2e4576656e742073746174652063616e2774206265206d6f64696669656420616e796d6f72652e596f752063616e206e6f74206a6f696e20746865206576656e7420696e206974732063757272656e742073746174652e437269746963616c206572726f723a206e6f7420656e6f7567682062616c616e636520746f20706179206f7574207265776172642e20436f6e74616374205665726974792e4e6f7420706f737369626c6520696e20746869732076616c69646174696f6e2073746174652e4e6f7420656e6f756768207573657273206a6f696e656420666f72207265717569726564206d696e696d756d20766f7465732ea165627a7a723058201c775f43d033124d724df6521550f955b413ab967e8a902a3f34b1e47f54e3860029",
  "source": "pragma solidity ^0.5.5;\n\n\nimport './Store.sol';\nimport '../VerityToken.sol';\n\n\ninterface UserRolesI {\n    function hasAnyRole(address _user, uint[] calldata _roles) external view returns (bool);\n}\n\n\ncontract Implementation is Store {\n    event StateTransition(EventStates newState);\n    event JoinEvent(address wallet);\n    event ClaimReward(address indexed recipient, uint ethReward, uint tokenReward);\n    event Error(address indexed byAddress, string description);\n    event EventFailed(string description);\n    event ValidationStarted(uint validationRound);\n    event ValidationRestart(uint validationRound, address newMaster);\n    event DisputeTriggered(address byAddress);\n    event ClaimStake(address recipient);\n    event NodeClaimReward(address node, uint reward);\n\n\n    /// A modifier signifiying that a certain method can only be used by the creator\n    /// of the contract.\n    /// Rollbacks the transaction on failure.\n    modifier onlyOwner() {\n        require(msg.sender == owner);\n        _;\n    }\n\n    /// A modifier signifiying that rewards can be set only by the designated master node.\n    /// Rollbacks the transaction on failure.\n    modifier onlyCurrentMaster() {\n        require(\n            msg.sender == rewardsValidation.currentMasterNode,\n            \"Not a designated master node.\"\n        );\n        _;\n    }\n\n    ///\tA modifier signifying that a certain method can only be used by a wallet\n    ///\tmarked as a participant.\n    ///\tRollbacks the transaction or failure.\n    modifier onlyParticipating() {\n        require(\n            isParticipating(msg.sender),\n            \"Not participating.\"\n        );\n        _;\n    }\n\n    /// A modifier signifying that a certain method can only be used when the event\n    /// is in a certain state.\n    /// @param _state The event's required state\n    /// Example:\n    /// \tfunction claimReward() onlyParticipanting onlyState(EventStates.Reward) {\n    /// \t\t// ... content\n    /// \t}\n    modifier onlyState(EventStates _state) {\n        require(\n            _state == eventState,\n            \"Not possible in current event state.\"\n        );\n        _;\n    }\n\n    /// A modifier taking care of all the timed state transitions.\n    /// Should always be used before all other modifiers, especially `onlyState`,\n    /// since it can change state.\n    /// Should probably be used in ALL non-constant (transaction) methods of\n    /// the contract.\n    modifier timedStateTransition() {\n        if (eventState == EventStates.Waiting && now >= applicationStartTime) {\n            advanceState();\n        }\n\n        if (eventState == EventStates.Application && now >= applicationEndTime) {\n            if (participantsIndex.length < consensusRules.minTotalVotes) {\n                markAsFailed(\"Not enough users joined for required minimum votes.\");\n            } else {\n                advanceState();\n            }\n        }\n\n        if (eventState == EventStates.DisputeTimeout && now >= dispute.expiresAt) {\n            advanceState();\n        }\n\n        if (\n            eventState == EventStates.Running &&\n            now >= eventEndTime + leftoversRecoverableAfter\n        ) {\n            markAsFailed(\"Event took too long to complete.\");\n        }\n        _;\n    }\n\n    modifier onlyChangeableState() {\n        require(\n            uint(eventState) < uint(EventStates.Reward),\n            \"Event state can't be modified anymore.\"\n        );\n        _;\n    }\n\n    modifier onlyAfterLefroversCanBeRecovered() {\n        require(\n            eventState == EventStates.Reward ||\n            eventState == EventStates.Failed\n        );\n        require(\n            now >= eventEndTime + leftoversRecoverableAfter + 4 weeks\n        );\n        _;\n    }\n\n    modifier canValidateRewards(uint forRound) {\n        require(\n            isNode(msg.sender) && !isMasterNode(),\n            \"Not a valid sender address.\"\n        );\n\n        require(\n            validationState == ValidationState.Validating,\n            \"Not validating rewards.\"\n        );\n\n        require(\n            forRound == rewardsValidationRound,\n            \"Validation round mismatch.\"\n        );\n\n        require(\n            rewardsValidation.votersRound[msg.sender] < rewardsValidationRound,\n            \"Already voted for this round.\"\n        );\n        _;\n    }\n\n    /// Ensure we can receive money at any time.\n    /// Not used, but we might want to extend the reward fund while event is running.\n    function() external payable {}\n\n    /// Apply for participation in this event.\n    /// Available only during the Application state.\n    /// A transaction to this function has to be done by the users themselves,\n    /// registering their wallet address as a participent.\n    /// The transaction does not have to include any funds.\n    function joinEvent()\n        public\n        timedStateTransition\n    {\n        if (\n            requiredUserRoles.length > 0 &&\n            !UserRolesI(permissionRegistry).hasAnyRole(msg.sender, requiredUserRoles)\n        ) {\n            emit Error(msg.sender, \"Permission denied.\");\n            return;\n        }\n\n        if (participantsIndex.length >= consensusRules.maxParticipants) {\n            emit Error(msg.sender, \"Event is full.\");\n            return;\n        }\n\n        if (isParticipating(msg.sender)) {\n            emit Error(msg.sender, \"You are already participating.\");\n            return;\n        }\n\n        if (eventState != EventStates.Application) {\n            emit Error(msg.sender, \"You can not join the event in its current state.\");\n            return;\n        }\n\n        if (\n            stakingAmount > 0 &&\n            VerityToken(tokenAddress).allowance(msg.sender, address(this)) < stakingAmount\n        ) {\n            emit Error(msg.sender, \"Not enough tokens staked.\");\n            return;\n        }\n\n        if (stakingAmount > 0) {\n            VerityToken(tokenAddress).transferFrom(msg.sender, address(this), stakingAmount);\n        }\n        participants[msg.sender] = true;\n        participantsIndex.push(msg.sender);\n        EventRegistryI(eventRegistryAddress).addEventToUser(msg.sender);\n        emit JoinEvent(msg.sender);\n    }\n\n    /// Checks whether an address is participating in this event.\n    /// @param _user The addres to check for participation\n    /// @return {bool} Whether the given address is a participant of this event\n    function isParticipating(address _user) public view returns(bool) {\n        return participants[_user];\n    }\n\n    function getParticipants() public view returns(address[] memory) {\n        return participantsIndex;\n    }\n\n    function getEventTimes() public view returns(uint[5] memory) {\n        return [\n            applicationStartTime,\n            applicationEndTime,\n            eventStartTime,\n            eventEndTime,\n            leftoversRecoverableAfter\n        ];\n    }\n\n    /// Assign the actual rewards.\n    /// Receives a list of addresses and a list rewards. Mapping between the two\n    /// is done by the addresses' and reward's numerical index in the list, so\n    /// order is important.\n    /// @param _addresses A list of addresses\n    /// @param _etherRewards A list of ether rewards, must be the exact same length as addresses\n    /// @param _tokenRewards A list of token rewards, must be the exact same length as addresses\n    function setRewards(\n        address[] memory _addresses,\n        uint[] memory _etherRewards,\n        uint[] memory _tokenRewards\n    )\n        public\n        onlyCurrentMaster\n        timedStateTransition\n        onlyState(EventStates.Running)\n    {\n        require(\n            _addresses.length == _etherRewards.length &&\n            _addresses.length == _tokenRewards.length\n        );\n\n        require(\n            validationState == ValidationState.WaitingForRewards,\n            \"Not possible in this validation state.\"\n        );\n\n        for (uint i = 0; i < _addresses.length; ++i) {\n            rewards[_addresses[i]][uint(RewardType.Ether)] = _etherRewards[i];\n            rewards[_addresses[i]][uint(RewardType.Token)] = _tokenRewards[i];\n            rewardsIndex.push(_addresses[i]);\n        }\n    }\n\n    /// Triggered by the master node once rewards are set and ready to validate\n    function markRewardsSet(string memory rewardsHash)\n        public\n        onlyCurrentMaster\n        timedStateTransition\n        onlyState(EventStates.Running)\n    {\n        require(\n            validationState == ValidationState.WaitingForRewards,\n            \"Not possible in this validation state.\"\n        );\n\n        rewardsValidation.rewardsHash = rewardsHash;\n        rewardsValidation.approvalCount = 1;\n        validationState = ValidationState.Validating;\n        emit ValidationStarted(rewardsValidationRound);\n    }\n\n    /// Called by event resolver nodes if they agree with rewards\n    function approveRewards(uint validationRound)\n        public\n        onlyState(EventStates.Running)\n        canValidateRewards(validationRound)\n    {\n        ++rewardsValidation.approvalCount;\n        rewardsValidation.votersRound[msg.sender] = rewardsValidationRound;\n        checkApprovalRatio();\n    }\n\n    /// Called by event resolvers if they don't agree with rewards\n    function rejectRewards(uint validationRound, string memory altHash)\n        public\n        onlyState(EventStates.Running)\n        canValidateRewards(validationRound)\n    {\n        ++rewardsValidation.rejectionCount;\n        rewardsValidation.votersRound[msg.sender] = rewardsValidationRound;\n        rewardsValidation.rejectors.push(msg.sender);\n\n        if (!rewardsValidation.rejectedHashes[altHash]) {\n            rewardsValidation.altHashes.push(altHash);\n            rewardsValidation.altHashVotes[altHash].push(msg.sender);\n        }\n\n        checkRejectionRatio();\n    }\n\n    /// Trigger a dispute.\n    function triggerDispute()\n        public\n        timedStateTransition\n        onlyParticipating\n        onlyState(EventStates.DisputeTimeout)\n    {\n        uint requiredDisputeAmount = requiredNextDisputeAmount();\n\n        require(\n            VerityToken(tokenAddress).allowance(msg.sender, address(this)) >=\n            requiredDisputeAmount,\n            \"Not enough tokens staked for dispute.\"\n        );\n\n        require(\n            dispute.disputers[msg.sender] == false,\n            \"Already triggered a dispute.\"\n        );\n\n        /// Return previoust staking amount to previous disputer\n        if (dispute.round > 0) {\n            VerityToken(tokenAddress).transfer(dispute.currentDisputer, dispute.amount);\n        }\n\n        dispute.amount = requiredDisputeAmount;\n        ++dispute.round;\n        dispute.disputers[msg.sender] = true;\n        dispute.currentDisputer = msg.sender;\n\n        /// Transfer staked amount\n        VerityToken(tokenAddress).transferFrom(msg.sender, address(this), dispute.amount);\n\n        /// Restart event\n        deleteValidationData();\n        deleteRewards();\n        eventState = EventStates.Application;\n        applicationEndTime = eventStartTime = now + disputeTimeExtension;\n        eventEndTime = eventStartTime + disputeTimeExtension;\n\n        increaseConsensusStrictness();\n\n        consensusRules.rewardsDistribution = RewardsDistribution.Linear;\n        emit DisputeTriggered(msg.sender);\n    }\n\n    function requiredNextDisputeAmount() public view returns(uint) {\n        if (dispute.round == 0) {\n            return dispute.amount;\n        } else if (dispute.multiplier == 1) {\n            return dispute.amount + dispute.amount / dispute.round;\n        } else {\n            return dispute.amount * dispute.multiplier;\n        }\n    }\n\n    /// Checks current approvals for threshold\n    function checkApprovalRatio() private {\n        if (approvalRatio() >= consensusRules.minConsensusRatio) {\n            validationState = ValidationState.Finished;\n            if (results.length != 0) {\n                dispute.expiresAt = now + dispute.timeout;\n                advanceState();\n            } else {\n                dispute.expiresAt = now;\n                setState(EventStates.Reward);\n            }\n        }\n    }\n\n    /// Checks current rejections for threshold\n    function checkRejectionRatio() private {\n        if (rejectionRatio() >= (100 - consensusRules.minConsensusRatio)) {\n            rejectCurrentValidation();\n        }\n    }\n\n    /// Handle the rejection of current rewards\n    function rejectCurrentValidation() private {\n        rewardsValidation.rejectedHashes[rewardsValidation.rewardsHash] = true;\n\n        // If approved votes are over the threshold all other hashes will also fail\n        if (\n            rewardsValidation.approvalCount + rewardsValidationRound - 1 >\n            rewardsValidation.rejectionCount - rewardsValidation.altHashes.length + 1\n        ) {\n            markAsFailed(\"Consensus can't be reached\");\n        } else {\n            restartValidation();\n        }\n    }\n\n    function restartValidation() private {\n        ++rewardsValidationRound;\n        rewardsValidation.currentMasterNode = rewardsValidation.altHashVotes[rewardsValidation.altHashes[0]][0];\n\n        deleteValidationData();\n        deleteRewards();\n\n        emit ValidationRestart(rewardsValidationRound, rewardsValidation.currentMasterNode);\n    }\n\n    /// Delete rewards.\n    function deleteRewards() private {\n        for (uint j = 0; j < rewardsIndex.length; ++j) {\n            rewards[rewardsIndex[j]][uint(RewardType.Ether)] = 0;\n            rewards[rewardsIndex[j]][uint(RewardType.Token)] = 0;\n        }\n        delete rewardsIndex;\n    }\n\n    /// Delete validation data\n    function deleteValidationData() private {\n        rewardsValidation.approvalCount = 0;\n        rewardsValidation.rejectionCount = 0;\n        for (uint i = 0; i < rewardsValidation.altHashes.length; ++i) {\n            delete rewardsValidation.altHashVotes[rewardsValidation.altHashes[i]];\n        }\n        delete rewardsValidation.altHashes;\n        delete rewardsValidation.rejectors;\n        validationState = ValidationState.WaitingForRewards;\n\n        for(uint j = 0; j < eventResolvers.length; ++j) {\n            rewardsValidation.votersRound[eventResolvers[j]] = 0;\n        }\n    }\n\n    /// Ratio of nodes that approved of current hash\n    function approvalRatio() private view returns(uint) {\n        return rewardsValidation.approvalCount * 100 / eventResolvers.length;\n    }\n\n    /// Ratio of nodes that rejected the current hash\n    function rejectionRatio() private view returns(uint) {\n        return rewardsValidation.rejectionCount * 100 / eventResolvers.length;\n    }\n\n    /// Returns the whole array of event resolvers.\n    function getEventResolvers() public view returns(address[] memory) {\n        return eventResolvers;\n    }\n\n    /// Checks if the address is current master node.\n    function isMasterNode() public view returns(bool) {\n        return rewardsValidation.currentMasterNode == msg.sender;\n    }\n\n    function isNode(address node) private view returns(bool) {\n        for(uint i = 0; i < eventResolvers.length; ++i) {\n            if(eventResolvers[i] == node) {\n                return true;\n            }\n        }\n        return false;\n    }\n\n    /// Returns the calling user's assigned rewards. Can be 0.\n    /// Only available to participating users in the Reward state, since rewards\n    /// are not assigned before that.\n    function getReward()\n        public\n        view\n        returns(uint[2] memory)\n    {\n        return [\n            rewards[msg.sender][uint(RewardType.Ether)],\n            rewards[msg.sender][uint(RewardType.Token)]\n        ];\n    }\n\n    /// Returns all the addresses that have rewards set.\n    function getRewardsIndex() public view returns(address[] memory) {\n        return rewardsIndex;\n    }\n\n    /// Returns rewards for specified addresses.\n    /// [[ethRewards, tokenRewards], [ethRewards, tokenRewards], ...]\n    function getRewards(address[] memory _addresses)\n        public\n        view\n        returns(uint[] memory, uint[] memory)\n    {\n        uint[] memory ethRewards = new uint[](_addresses.length);\n        uint[] memory tokenRewards = new uint[](_addresses.length);\n\n        for(uint i = 0; i < _addresses.length; ++i) {\n            ethRewards[i] = rewards[_addresses[i]][uint(RewardType.Ether)];\n            tokenRewards[i] = rewards[_addresses[i]][uint(RewardType.Token)];\n        }\n\n        return (ethRewards, tokenRewards);\n    }\n\n    /// Claim a reward.\n    /// Needs to be called by the users themselves.\n    /// Only available in the Reward state, after rewards have been received from\n    /// the validation nodes.\n    function claimReward()\n        public\n        onlyParticipating\n        timedStateTransition\n        onlyState(EventStates.Reward)\n    {\n        uint etherReward = rewards[msg.sender][uint(RewardType.Ether)];\n        uint tokenReward = rewards[msg.sender][uint(RewardType.Token)];\n\n        if (etherReward == 0 && tokenReward == 0) {\n            emit Error(msg.sender, \"You do not have any rewards to claim.\");\n            return;\n        }\n\n        if (\n            (address(this).balance - nodeRewardsBalance) < rewards[msg.sender][uint(RewardType.Ether)] ||\n            VerityToken(tokenAddress).balanceOf(address(this)) < rewards[msg.sender][uint(RewardType.Token)]\n        ) {\n            emit Error(msg.sender, \"Critical error: not enough balance to pay out reward. Contact Verity.\");\n            return;\n        }\n\n        rewards[msg.sender][uint(RewardType.Ether)] = 0;\n        rewards[msg.sender][uint(RewardType.Token)] = 0;\n\n        msg.sender.transfer(etherReward);\n        if (tokenReward > 0) {\n            VerityToken(tokenAddress).transfer(msg.sender, tokenReward);\n        }\n\n        emit ClaimReward(msg.sender, etherReward, tokenReward);\n    }\n\n    function nodeClaimReward()\n        public\n        timedStateTransition\n        onlyState(EventStates.Reward)\n    {\n        require(\n            isNode(msg.sender),\n            \"Not a node.\"\n        );\n\n        require(\n            nodeRewardsClaimed[msg.sender] == false,\n            \"Already claimed.\"\n        );\n\n        uint _reward;\n\n\n        if(isMasterNode()) {\n            _reward = calculateMasterReward();\n        } else if(isApproverNode()) {\n            _reward = nodeRewardsPool / (rewardsValidation.approvalCount + 1);\n        } else {\n            revert(\"Nothing to claim\");\n        }\n\n        require(_reward <= nodeRewardsBalance, \"Something went horribly wrong.\");\n        msg.sender.transfer(_reward);\n        nodeRewardsBalance -= _reward;\n        nodeRewardsClaimed[msg.sender] = true;\n        emit NodeClaimReward(msg.sender, _reward);\n    }\n\n    function calculateMasterReward() private view returns(uint) {\n        return nodeRewardsPool -\n                (nodeRewardsPool/(rewardsValidation.approvalCount + 1)) *\n                (rewardsValidation.approvalCount - 1);\n    }\n\n    function isApproverNode() private view returns(bool) {\n        if(rewardsValidation.votersRound[msg.sender] != rewardsValidationRound) {\n            return false;\n        }\n\n        for(uint i = 0; i < rewardsValidation.rejectors.length; i++) {\n            if(msg.sender == rewardsValidation.rejectors[i]) {\n                return false;\n            }\n        }\n\n        return true;\n    }\n\n    function claimFailed()\n        public\n        onlyParticipating\n        timedStateTransition\n        onlyState(EventStates.Failed)\n    {\n        require(\n            stakingAmount > 0 ||\n            (dispute.round > 0 && dispute.currentDisputer == msg.sender),\n            \"No stake to claim\"\n        );\n\n        uint amountToReturn = 0;\n\n        if (dispute.currentDisputer == msg.sender) {\n            amountToReturn += dispute.amount;\n        }\n\n        amountToReturn += stakingAmount;\n        VerityToken(tokenAddress).transfer(msg.sender, amountToReturn);\n        participants[msg.sender] = false;\n        emit ClaimStake(msg.sender);\n    }\n\n    function setDataFeedHash(string memory _hash) public onlyOwner {\n        dataFeedHash = _hash;\n    }\n\n    function setResults(bytes32[] memory _results)\n        public\n        onlyCurrentMaster\n        timedStateTransition\n        onlyState(EventStates.Running)\n    {\n        require(\n            validationState == ValidationState.WaitingForRewards,\n            \"Only before validation starts.\"\n        );\n\n        results = _results;\n    }\n\n    function getResults() public view returns(bytes32[] memory) {\n        return results;\n    }\n\n    function getState() public view returns(uint) {\n        return uint(eventState);\n    }\n\n    function getBalance() public view returns(uint[2] memory) {\n        return [\n            address(this).balance,\n            VerityToken(tokenAddress).balanceOf(address(this))\n        ];\n    }\n\n    function getEventCategory() public view returns(bytes32[2] memory) {\n        return eventCategory;\n    }\n\n    /// Returns an array of consensus rules.\n    /// [minTotalVotes, minConsensusVotes, minConsensusRatio, minParticipantRatio, maxParticipants]\n    function getConsensusRules() public view returns(uint[6] memory) {\n        return [\n            consensusRules.minTotalVotes,\n            consensusRules.minConsensusVotes,\n            consensusRules.minConsensusRatio,\n            consensusRules.minParticipantRatio,\n            consensusRules.maxParticipants,\n            uint(consensusRules.rewardsDistribution)\n        ];\n    }\n\n    /// Returns an array of dispute rules.\n    /// [dispute amount, dispute timeout, dispute round]\n    function getDisputeData() public view returns(uint[5] memory, address) {\n        return ([\n            dispute.amount,\n            dispute.timeout,\n            dispute.multiplier,\n            dispute.round,\n            dispute.expiresAt\n        ], dispute.currentDisputer);\n    }\n\n    function triggerStateChange() public timedStateTransition { }\n\n    function recoverLeftovers()\n        public\n        onlyOwner\n        timedStateTransition\n        onlyAfterLefroversCanBeRecovered\n    {\n        owner.transfer(address(this).balance);\n        nodeRewardsBalance = 0;\n        uint tokenBalance = VerityToken(tokenAddress).balanceOf(address(this));\n        VerityToken(tokenAddress).transfer(owner, tokenBalance);\n    }\n\n    /// Advances the event's state to the next one. Only for internal use.\n    function advanceState() private onlyChangeableState {\n        eventState = EventStates(uint(eventState) + 1);\n        emit StateTransition(eventState);\n    }\n\n    function markAsFailed(string memory description) private onlyChangeableState {\n        eventState = EventStates.Failed;\n        emit EventFailed(description);\n        emit StateTransition(eventState);\n    }\n\n    function increaseConsensusStrictness() internal {\n        /// Increases by ~10% of remaning difference to 100%\n        consensusRules.minConsensusRatio += (100 - consensusRules.minConsensusRatio) * 100 / 1000;\n\n        /// Increase min votes required by ~10%\n        uint votesIncrease = consensusRules.minTotalVotes * 100 / 1000;\n        consensusRules.minTotalVotes += votesIncrease;\n\n        /// Increase min consensus votes by min votes increase multiplied with consensus ratio\n        consensusRules.minConsensusVotes += votesIncrease * consensusRules.minConsensusRatio / 100;\n\n        /// Increase max participants by sum of increase amounts of total and consensus votes\n        consensusRules.maxParticipants += votesIncrease + (votesIncrease * consensusRules.minConsensusRatio / 100);\n    }\n\n    function getRequiredRoles() public view returns(uint[] memory) {\n        return requiredUserRoles;\n    }\n\n    function cancelEvent()\n        public\n        onlyOwner\n    {\n        require(\n            now < eventStartTime,\n            \"Event already started.\"\n        );\n\n        eventCanceled = true;\n        eventEndTime = now;\n        markAsFailed(\"Event canceled by creator.\");\n\n        // Return stakes to potentially joined users\n        if(stakingAmount > 0) {\n            for(uint i = 0; i < participantsIndex.length; ++i) {\n                VerityToken(tokenAddress).transfer(participantsIndex[i], stakingAmount);\n            }\n        }\n    }\n\n    function setState(EventStates _state) private {\n        eventState = _state;\n        emit StateTransition(eventState);\n    }\n}",
  "sourcePath": "/Users/hiphop/code/verity-event/contracts/verity_event/Implementation.sol",
  "compiler": {
    "name": "solc",
    "version": "0.5.5+commit.47a71e8f.Emscripten.clang"
  },
  "schemaVersion": "3.0.1",
  "updatedAt": "2019-03-27T12:12:37.003Z",
  "devdoc": {
    "methods": {
      "isParticipating(address)": {
        "params": {
          "_user": "The addres to check for participation"
        },
        "return": "{bool} Whether the given address is a participant of this event"
      },
      "setRewards(address[],uint256[],uint256[])": {
        "params": {
          "_addresses": "A list of addresses",
          "_etherRewards": "A list of ether rewards, must be the exact same length as addresses",
          "_tokenRewards": "A list of token rewards, must be the exact same length as addresses"
        }
      }
    }
  },
  "userdoc": {
    "methods": {
      "approveRewards(uint256)": {
        "notice": "Called by event resolver nodes if they agree with rewards"
      },
      "claimReward()": {
        "notice": "Claim a reward. Needs to be called by the users themselves. Only available in the Reward state, after rewards have been received from the validation nodes."
      },
      "getConsensusRules()": {
        "notice": "Returns an array of consensus rules. [minTotalVotes, minConsensusVotes, minConsensusRatio, minParticipantRatio, maxParticipants]"
      },
      "getDisputeData()": {
        "notice": "Returns an array of dispute rules. [dispute amount, dispute timeout, dispute round]"
      },
      "getEventResolvers()": {
        "notice": "Returns the whole array of event resolvers."
      },
      "getReward()": {
        "notice": "Returns the calling user's assigned rewards. Can be 0. Only available to participating users in the Reward state, since rewards are not assigned before that."
      },
      "getRewards(address[])": {
        "notice": "Returns rewards for specified addresses. [[ethRewards, tokenRewards], [ethRewards, tokenRewards], ...]"
      },
      "getRewardsIndex()": {
        "notice": "Returns all the addresses that have rewards set."
      },
      "isMasterNode()": {
        "notice": "Checks if the address is current master node."
      },
      "isParticipating(address)": {
        "notice": "Checks whether an address is participating in this event."
      },
      "joinEvent()": {
        "notice": "Apply for participation in this event. Available only during the Application state. A transaction to this function has to be done by the users themselves, registering their wallet address as a participent. The transaction does not have to include any funds."
      },
      "markRewardsSet(string)": {
        "notice": "Triggered by the master node once rewards are set and ready to validate"
      },
      "rejectRewards(uint256,string)": {
        "notice": "Called by event resolvers if they don't agree with rewards"
      },
      "setRewards(address[],uint256[],uint256[])": {
        "notice": "Assign the actual rewards. Receives a list of addresses and a list rewards. Mapping between the two is done by the addresses' and reward's numerical index in the list, so order is important."
      },
      "triggerDispute()": {
        "notice": "Trigger a dispute."
      }
    }
  }
}