{
  "contractName": "Implementation",
  "abi": [
    {
      "constant": true,
      "inputs": [],
      "name": "rewardsValidationRound",
      "outputs": [
        {
          "name": "",
          "type": "uint256"
        }
      ],
      "payable": false,
      "stateMutability": "view",
      "type": "function"
    },
    {
      "constant": true,
      "inputs": [],
      "name": "nodeRewardsPool",
      "outputs": [
        {
          "name": "",
          "type": "uint256"
        }
      ],
      "payable": false,
      "stateMutability": "view",
      "type": "function"
    },
    {
      "constant": true,
      "inputs": [],
      "name": "eventRegistryAddress",
      "outputs": [
        {
          "name": "",
          "type": "address"
        }
      ],
      "payable": false,
      "stateMutability": "view",
      "type": "function"
    },
    {
      "constant": true,
      "inputs": [],
      "name": "eventCanceled",
      "outputs": [
        {
          "name": "",
          "type": "bool"
        }
      ],
      "payable": false,
      "stateMutability": "view",
      "type": "function"
    },
    {
      "constant": true,
      "inputs": [],
      "name": "validationState",
      "outputs": [
        {
          "name": "",
          "type": "uint8"
        }
      ],
      "payable": false,
      "stateMutability": "view",
      "type": "function"
    },
    {
      "constant": true,
      "inputs": [],
      "name": "dataFeedHash",
      "outputs": [
        {
          "name": "",
          "type": "string"
        }
      ],
      "payable": false,
      "stateMutability": "view",
      "type": "function"
    },
    {
      "constant": true,
      "inputs": [],
      "name": "ipfsEventHash",
      "outputs": [
        {
          "name": "",
          "type": "string"
        }
      ],
      "payable": false,
      "stateMutability": "view",
      "type": "function"
    },
    {
      "constant": true,
      "inputs": [],
      "name": "version",
      "outputs": [
        {
          "name": "",
          "type": "uint256"
        }
      ],
      "payable": false,
      "stateMutability": "view",
      "type": "function"
    },
    {
      "constant": true,
      "inputs": [
        {
          "name": "",
          "type": "address"
        }
      ],
      "name": "nodeRewardsClaimed",
      "outputs": [
        {
          "name": "",
          "type": "bool"
        }
      ],
      "payable": false,
      "stateMutability": "view",
      "type": "function"
    },
    {
      "constant": true,
      "inputs": [],
      "name": "stakingAmount",
      "outputs": [
        {
          "name": "",
          "type": "uint256"
        }
      ],
      "payable": false,
      "stateMutability": "view",
      "type": "function"
    },
    {
      "constant": true,
      "inputs": [],
      "name": "nodeRewardsBalance",
      "outputs": [
        {
          "name": "",
          "type": "uint256"
        }
      ],
      "payable": false,
      "stateMutability": "view",
      "type": "function"
    },
    {
      "constant": true,
      "inputs": [],
      "name": "eventName",
      "outputs": [
        {
          "name": "",
          "type": "string"
        }
      ],
      "payable": false,
      "stateMutability": "view",
      "type": "function"
    },
    {
      "constant": true,
      "inputs": [],
      "name": "owner",
      "outputs": [
        {
          "name": "",
          "type": "address"
        }
      ],
      "payable": false,
      "stateMutability": "view",
      "type": "function"
    },
    {
      "constant": true,
      "inputs": [],
      "name": "tokenAddress",
      "outputs": [
        {
          "name": "",
          "type": "address"
        }
      ],
      "payable": false,
      "stateMutability": "view",
      "type": "function"
    },
    {
      "constant": true,
      "inputs": [],
      "name": "rewardsValidation",
      "outputs": [
        {
          "name": "currentMasterNode",
          "type": "address"
        },
        {
          "name": "rewardsHash",
          "type": "string"
        },
        {
          "name": "approvalCount",
          "type": "uint256"
        },
        {
          "name": "rejectionCount",
          "type": "uint256"
        }
      ],
      "payable": false,
      "stateMutability": "view",
      "type": "function"
    },
    {
      "constant": true,
      "inputs": [],
      "name": "leftoversRecoverableAfter",
      "outputs": [
        {
          "name": "",
          "type": "uint256"
        }
      ],
      "payable": false,
      "stateMutability": "view",
      "type": "function"
    },
    {
      "payable": true,
      "stateMutability": "payable",
      "type": "fallback"
    },
    {
      "anonymous": false,
      "inputs": [
        {
          "indexed": false,
          "name": "newState",
          "type": "uint8"
        }
      ],
      "name": "StateTransition",
      "type": "event"
    },
    {
      "anonymous": false,
      "inputs": [
        {
          "indexed": false,
          "name": "wallet",
          "type": "address"
        }
      ],
      "name": "JoinEvent",
      "type": "event"
    },
    {
      "anonymous": false,
      "inputs": [
        {
          "indexed": true,
          "name": "recipient",
          "type": "address"
        },
        {
          "indexed": false,
          "name": "ethReward",
          "type": "uint256"
        },
        {
          "indexed": false,
          "name": "tokenReward",
          "type": "uint256"
        }
      ],
      "name": "ClaimReward",
      "type": "event"
    },
    {
      "anonymous": false,
      "inputs": [
        {
          "indexed": true,
          "name": "byAddress",
          "type": "address"
        },
        {
          "indexed": false,
          "name": "description",
          "type": "string"
        }
      ],
      "name": "Error",
      "type": "event"
    },
    {
      "anonymous": false,
      "inputs": [
        {
          "indexed": false,
          "name": "description",
          "type": "string"
        }
      ],
      "name": "EventFailed",
      "type": "event"
    },
    {
      "anonymous": false,
      "inputs": [
        {
          "indexed": false,
          "name": "validationRound",
          "type": "uint256"
        }
      ],
      "name": "ValidationStarted",
      "type": "event"
    },
    {
      "anonymous": false,
      "inputs": [
        {
          "indexed": false,
          "name": "validationRound",
          "type": "uint256"
        },
        {
          "indexed": false,
          "name": "newMaster",
          "type": "address"
        }
      ],
      "name": "ValidationRestart",
      "type": "event"
    },
    {
      "anonymous": false,
      "inputs": [
        {
          "indexed": false,
          "name": "byAddress",
          "type": "address"
        }
      ],
      "name": "DisputeTriggered",
      "type": "event"
    },
    {
      "anonymous": false,
      "inputs": [
        {
          "indexed": false,
          "name": "recipient",
          "type": "address"
        }
      ],
      "name": "ClaimStake",
      "type": "event"
    },
    {
      "anonymous": false,
      "inputs": [
        {
          "indexed": false,
          "name": "node",
          "type": "address"
        },
        {
          "indexed": false,
          "name": "reward",
          "type": "uint256"
        }
      ],
      "name": "NodeClaimReward",
      "type": "event"
    },
    {
      "constant": false,
      "inputs": [],
      "name": "joinEvent",
      "outputs": [],
      "payable": false,
      "stateMutability": "nonpayable",
      "type": "function"
    },
    {
      "constant": true,
      "inputs": [
        {
          "name": "_user",
          "type": "address"
        }
      ],
      "name": "isParticipating",
      "outputs": [
        {
          "name": "",
          "type": "bool"
        }
      ],
      "payable": false,
      "stateMutability": "view",
      "type": "function"
    },
    {
      "constant": true,
      "inputs": [],
      "name": "getParticipants",
      "outputs": [
        {
          "name": "",
          "type": "address[]"
        }
      ],
      "payable": false,
      "stateMutability": "view",
      "type": "function"
    },
    {
      "constant": true,
      "inputs": [],
      "name": "getEventTimes",
      "outputs": [
        {
          "name": "",
          "type": "uint256[5]"
        }
      ],
      "payable": false,
      "stateMutability": "view",
      "type": "function"
    },
    {
      "constant": false,
      "inputs": [
        {
          "name": "_addresses",
          "type": "address[]"
        },
        {
          "name": "_etherRewards",
          "type": "uint256[]"
        },
        {
          "name": "_tokenRewards",
          "type": "uint256[]"
        }
      ],
      "name": "setRewards",
      "outputs": [],
      "payable": false,
      "stateMutability": "nonpayable",
      "type": "function"
    },
    {
      "constant": false,
      "inputs": [
        {
          "name": "rewardsHash",
          "type": "string"
        }
      ],
      "name": "markRewardsSet",
      "outputs": [],
      "payable": false,
      "stateMutability": "nonpayable",
      "type": "function"
    },
    {
      "constant": false,
      "inputs": [
        {
          "name": "validationRound",
          "type": "uint256"
        }
      ],
      "name": "approveRewards",
      "outputs": [],
      "payable": false,
      "stateMutability": "nonpayable",
      "type": "function"
    },
    {
      "constant": false,
      "inputs": [
        {
          "name": "validationRound",
          "type": "uint256"
        },
        {
          "name": "altHash",
          "type": "string"
        }
      ],
      "name": "rejectRewards",
      "outputs": [],
      "payable": false,
      "stateMutability": "nonpayable",
      "type": "function"
    },
    {
      "constant": false,
      "inputs": [],
      "name": "triggerDispute",
      "outputs": [],
      "payable": false,
      "stateMutability": "nonpayable",
      "type": "function"
    },
    {
      "constant": true,
      "inputs": [],
      "name": "requiredNextDisputeAmount",
      "outputs": [
        {
          "name": "",
          "type": "uint256"
        }
      ],
      "payable": false,
      "stateMutability": "view",
      "type": "function"
    },
    {
      "constant": true,
      "inputs": [],
      "name": "getEventResolvers",
      "outputs": [
        {
          "name": "",
          "type": "address[]"
        }
      ],
      "payable": false,
      "stateMutability": "view",
      "type": "function"
    },
    {
      "constant": true,
      "inputs": [],
      "name": "isMasterNode",
      "outputs": [
        {
          "name": "",
          "type": "bool"
        }
      ],
      "payable": false,
      "stateMutability": "view",
      "type": "function"
    },
    {
      "constant": true,
      "inputs": [],
      "name": "getReward",
      "outputs": [
        {
          "name": "",
          "type": "uint256[2]"
        }
      ],
      "payable": false,
      "stateMutability": "view",
      "type": "function"
    },
    {
      "constant": true,
      "inputs": [],
      "name": "getRewardsIndex",
      "outputs": [
        {
          "name": "",
          "type": "address[]"
        }
      ],
      "payable": false,
      "stateMutability": "view",
      "type": "function"
    },
    {
      "constant": true,
      "inputs": [
        {
          "name": "_addresses",
          "type": "address[]"
        }
      ],
      "name": "getRewards",
      "outputs": [
        {
          "name": "",
          "type": "uint256[]"
        },
        {
          "name": "",
          "type": "uint256[]"
        }
      ],
      "payable": false,
      "stateMutability": "view",
      "type": "function"
    },
    {
      "constant": false,
      "inputs": [],
      "name": "claimReward",
      "outputs": [],
      "payable": false,
      "stateMutability": "nonpayable",
      "type": "function"
    },
    {
      "constant": false,
      "inputs": [],
      "name": "nodeClaimReward",
      "outputs": [],
      "payable": false,
      "stateMutability": "nonpayable",
      "type": "function"
    },
    {
      "constant": true,
      "inputs": [],
      "name": "isApproverNode",
      "outputs": [
        {
          "name": "",
          "type": "bool"
        }
      ],
      "payable": false,
      "stateMutability": "view",
      "type": "function"
    },
    {
      "constant": true,
      "inputs": [],
      "name": "nodeCanClaimReward",
      "outputs": [
        {
          "name": "",
          "type": "bool"
        }
      ],
      "payable": false,
      "stateMutability": "view",
      "type": "function"
    },
    {
      "constant": false,
      "inputs": [],
      "name": "claimFailed",
      "outputs": [],
      "payable": false,
      "stateMutability": "nonpayable",
      "type": "function"
    },
    {
      "constant": false,
      "inputs": [
        {
          "name": "_hash",
          "type": "string"
        }
      ],
      "name": "setDataFeedHash",
      "outputs": [],
      "payable": false,
      "stateMutability": "nonpayable",
      "type": "function"
    },
    {
      "constant": false,
      "inputs": [
        {
          "name": "_results",
          "type": "bytes32[]"
        }
      ],
      "name": "setResults",
      "outputs": [],
      "payable": false,
      "stateMutability": "nonpayable",
      "type": "function"
    },
    {
      "constant": true,
      "inputs": [],
      "name": "getResults",
      "outputs": [
        {
          "name": "",
          "type": "bytes32[]"
        }
      ],
      "payable": false,
      "stateMutability": "view",
      "type": "function"
    },
    {
      "constant": true,
      "inputs": [],
      "name": "getState",
      "outputs": [
        {
          "name": "",
          "type": "uint256"
        }
      ],
      "payable": false,
      "stateMutability": "view",
      "type": "function"
    },
    {
      "constant": true,
      "inputs": [],
      "name": "getBalance",
      "outputs": [
        {
          "name": "",
          "type": "uint256[2]"
        }
      ],
      "payable": false,
      "stateMutability": "view",
      "type": "function"
    },
    {
      "constant": true,
      "inputs": [],
      "name": "getEventCategory",
      "outputs": [
        {
          "name": "",
          "type": "bytes32[2]"
        }
      ],
      "payable": false,
      "stateMutability": "view",
      "type": "function"
    },
    {
      "constant": true,
      "inputs": [],
      "name": "getConsensusRules",
      "outputs": [
        {
          "name": "",
          "type": "uint256[6]"
        }
      ],
      "payable": false,
      "stateMutability": "view",
      "type": "function"
    },
    {
      "constant": true,
      "inputs": [],
      "name": "getDisputeData",
      "outputs": [
        {
          "name": "",
          "type": "uint256[5]"
        },
        {
          "name": "",
          "type": "address"
        }
      ],
      "payable": false,
      "stateMutability": "view",
      "type": "function"
    },
    {
      "constant": false,
      "inputs": [],
      "name": "triggerStateChange",
      "outputs": [],
      "payable": false,
      "stateMutability": "nonpayable",
      "type": "function"
    },
    {
      "constant": false,
      "inputs": [],
      "name": "recoverLeftovers",
      "outputs": [],
      "payable": false,
      "stateMutability": "nonpayable",
      "type": "function"
    },
    {
      "constant": true,
      "inputs": [],
      "name": "getRequiredRoles",
      "outputs": [
        {
          "name": "",
          "type": "uint256[]"
        }
      ],
      "payable": false,
      "stateMutability": "view",
      "type": "function"
    },
    {
      "constant": false,
      "inputs": [],
      "name": "cancelEvent",
      "outputs": [],
      "payable": false,
      "stateMutability": "nonpayable",
      "type": "function"
    }
  ],
  "bytecode": "0x60806040526006805460ff1990811690915560338054909116905534801561002657600080fd5b50614e05806100366000396000f3fe6080604052600436106102af576000357c01000000000000000000000000000000000000000000000000000000009004806374539f9811610177578063b88a802f116100de578063efba9bd211610097578063efba9bd214610e29578063f38a803f14610e3e578063f4caee8814610e53578063f9010d1914610e86578063fb6c953714610e9b578063fce1a10c14610eb0576102af565b8063b88a802f14610cbb578063c08e737414610cd0578063d563f0c514610ce5578063d6e9b01914610cfa578063e0807f8914610d60578063e3a86e7114610d75576102af565b80638e513c19116101305780638e513c1914610b785780639d76ea5814610b8d578063a77ae83914610ba2578063ab3c021214610bcc578063ab95b58614610be1578063ac88490214610c0b576102af565b806374539f9814610a405780637e0c478b14610a555780638043c9c014610a6a5780638126cb1e14610a7f57806381c2d87514610b395780638da5cb5b14610b63576102af565b806342380eaf1161021b57806352f91acf116101d457806352f91acf146109a457806354e33cf0146109b957806354fd4d50146109ce5780635aa68ac0146109e35780636764ee69146109f8578063739a3e0214610a2b576102af565b806342380eaf14610666578063437933cc1461067b57806345f99d511461072e5780634717f97c146107435780634b766b95146107a8578063510ccb431461085b576102af565b8063181b3f5a1161026d578063181b3f5a146103ac5780631865c57d146103c15780631a0ddce9146103d65780631e59680b1461058e5780633d18b912146105c75780634227357c146105dc576102af565b8062f16142146102b157806302a36305146102d8578063073f03fb146102ed57806311e956c81461031e57806312065fe014610347578063148b597c14610397575b005b3480156102bd57600080fd5b506102c6610ec5565b60408051918252519081900360200190f35b3480156102e457600080fd5b506102c6610ecb565b3480156102f957600080fd5b50610302610ed1565b60408051600160a060020a039092168252519081900360200190f35b34801561032a57600080fd5b50610333610ee0565b604080519115158252519081900360200190f35b34801561035357600080fd5b5061035c610ef2565b6040518082600260200280838360005b8381101561038457818101518382015260200161036c565b5050505090500191505060405180910390f35b3480156103a357600080fd5b50610333610fa2565b3480156103b857600080fd5b506102c6610fb0565b3480156103cd57600080fd5b506102c6610ff7565b3480156103e257600080fd5b506102af600480360360608110156103f957600080fd5b81019060208101813564010000000081111561041457600080fd5b82018360208201111561042657600080fd5b8035906020019184602083028401116401000000008311171561044857600080fd5b919080806020026020016040519081016040528093929190818152602001838360200280828437600092019190915250929594936020810193503591505064010000000081111561049857600080fd5b8201836020820111156104aa57600080fd5b803590602001918460208302840111640100000000831117156104cc57600080fd5b919080806020026020016040519081016040528093929190818152602001838360200280828437600092019190915250929594936020810193503591505064010000000081111561051c57600080fd5b82018360208201111561052e57600080fd5b8035906020019184602083028401116401000000008311171561055057600080fd5b919080806020026020016040519081016040528093929190818152602001838360200280828437600092019190915250929550611010945050505050565b34801561059a57600080fd5b506105a361139f565b604051808260028111156105b357fe5b60ff16815260200191505060405180910390f35b3480156105d357600080fd5b5061035c6113a8565b3480156105e857600080fd5b506105f16113ea565b6040805160208082528351818301528351919283929083019185019080838360005b8381101561062b578181015183820152602001610613565b50505050905090810190601f1680156106585780820380516001836020036101000a031916815260200191505b509250505060405180910390f35b34801561067257600080fd5b506105f1611478565b34801561068757600080fd5b506102af6004803603602081101561069e57600080fd5b8101906020810181356401000000008111156106b957600080fd5b8201836020820111156106cb57600080fd5b803590602001918460018302840111640100000000831117156106ed57600080fd5b91908080601f0160208091040260200160405190810160405280939291908181526020018383808284376000920191909152509295506114d3945050505050565b34801561073a57600080fd5b506102af611501565b34801561074f57600080fd5b50610758611844565b60408051602080825283518183015283519192839290830191858101910280838360005b8381101561079457818101518382015260200161077c565b505050509050019250505060405180910390f35b3480156107b457600080fd5b506102af600480360360208110156107cb57600080fd5b8101906020810181356401000000008111156107e657600080fd5b8201836020820111156107f857600080fd5b8035906020019184600183028401116401000000008311171561081a57600080fd5b91908080601f01602080910402602001604051908101604052809392919081815260200183838082843760009201919091525092955061189c945050505050565b34801561086757600080fd5b5061090b6004803603602081101561087e57600080fd5b81019060208101813564010000000081111561089957600080fd5b8201836020820111156108ab57600080fd5b803590602001918460208302840111640100000000831117156108cd57600080fd5b919080806020026020016040519081016040528093929190818152602001838360200280828437600092019190915250929550611b26945050505050565b604051808060200180602001838103835285818151815260200191508051906020019060200280838360005b8381101561094f578181015183820152602001610937565b50505050905001838103825284818151815260200191508051906020019060200280838360005b8381101561098e578181015183820152602001610976565b5050505090500194505050505060405180910390f35b3480156109b057600080fd5b506102af611c81565b3480156109c557600080fd5b50610758612191565b3480156109da57600080fd5b506102c66121f2565b3480156109ef57600080fd5b506107586121f7565b348015610a0457600080fd5b5061033360048036036020811015610a1b57600080fd5b5035600160a060020a0316612257565b348015610a3757600080fd5b506102c661226c565b348015610a4c57600080fd5b50610758612272565b348015610a6157600080fd5b506102c66122d2565b348015610a7657600080fd5b506105f16122d8565b348015610a8b57600080fd5b506102af60048036036040811015610aa257600080fd5b81359190810190604081016020820135640100000000811115610ac457600080fd5b820183602082011115610ad657600080fd5b80359060200191846001830284011164010000000083111715610af857600080fd5b91908080601f016020809104026020016040519081016040528093929190818152602001838380828437600092019190915250929550612333945050505050565b348015610b4557600080fd5b50610b4e6126ee565b60405181518152808260c0808383602061036c565b348015610b6f57600080fd5b50610302612744565b348015610b8457600080fd5b50610333612753565b348015610b9957600080fd5b506103026127c6565b348015610bae57600080fd5b506102af60048036036020811015610bc557600080fd5b50356127d5565b348015610bd857600080fd5b506103336129f5565b348015610bed57600080fd5b50610bf6612a49565b60405181518152808260a0808383602061036c565b348015610c1757600080fd5b506102af60048036036020811015610c2e57600080fd5b810190602081018135640100000000811115610c4957600080fd5b820183602082011115610c5b57600080fd5b80359060200191846020830284011164010000000083111715610c7d57600080fd5b919080806020026020016040519081016040528093929190818152602001838360200280828437600092019190915250929550612a87945050505050565b348015610cc757600080fd5b506102af612cd9565b348015610cdc57600080fd5b506102af613164565b348015610cf157600080fd5b506102af61351d565b348015610d0657600080fd5b50610d0f613635565b604051808360a080838360005b83811015610d34578181015183820152602001610d1c565b5050505090500182600160a060020a0316600160a060020a031681526020019250505060405180910390f35b348015610d6c57600080fd5b5061075861367f565b348015610d8157600080fd5b50610d8a6136d5565b6040518085600160a060020a0316600160a060020a0316815260200180602001848152602001838152602001828103825285818151815260200191508051906020019080838360005b83811015610deb578181015183820152602001610dd3565b50505050905090810190601f168015610e185780820380516001836020036101000a031916815260200191505b509550505050505060405180910390f35b348015610e3557600080fd5b506102af613782565b348015610e4a57600080fd5b506102c6613a5b565b348015610e5f57600080fd5b5061033360048036036020811015610e7657600080fd5b5035600160a060020a0316613a61565b348015610e9257600080fd5b506102af613a83565b348015610ea757600080fd5b506102af6140c3565b348015610ebc57600080fd5b5061035c614264565b60105481565b601d5481565b600254600160a060020a031681565b600754600160a060020a031633145b90565b610efa614a68565b604080518082018252308031825260015483517f70a08231000000000000000000000000000000000000000000000000000000008152600481019290925292519192602080850193600160a060020a03909216926370a082319260248083019392829003018186803b158015610f6f57600080fd5b505afa158015610f83573d6000803e3d6000fd5b505050506040513d6020811015610f9957600080fd5b50519052905090565b603354610100900460ff1681565b602254600090610fc35750602054610eef565b60245460011415610fea5760225460205481610fdb57fe5b04602060000154019050610eef565b5060245460205402610eef565b60335460009060ff16600581111561100b57fe5b905090565b600754600160a060020a03163314611072576040805160e560020a62461bcd02815260206004820152601d60248201527f4e6f7420612064657369676e61746564206d6173746572206e6f64652e000000604482015290519081900360640190fd5b600060335460ff16600581111561108557fe5b14801561109457506016544210155b156110a1576110a1614299565b600160335460ff1660058111156110b457fe5b1480156110c357506017544210155b1561110257602d5460125410156110fa576110f5604051806060016040528060338152602001614da760339139614373565b611102565b611102614299565b600360335460ff16600581111561111557fe5b14801561112457506023544210155b1561113157611131614299565b600260335460ff16600581111561114457fe5b1480156111575750601b54601954014210155b1561118857611188604051806040016040528060208152602001600080516020614c5c833981519152815250614373565b60335460029060ff16600581111561119c57fe5b8160058111156111a857fe5b146111e75760405160e560020a62461bcd028152600401808060200182810382526024815260200180614c386024913960400191505060405180910390fd5b825184511480156111f9575081518451145b61120257600080fd5b600060065460ff16600281111561121557fe5b146112545760405160e560020a62461bcd028152600401808060200182810382526026815260200180614d816026913960400191505060405180910390fd5b60005b84518110156113985783818151811061126c57fe5b60200260200101516014600087848151811061128457fe5b6020026020010151600160a060020a0316600160a060020a0316815260200190815260200160002060008060018111156112ba57fe5b8152602001908152602001600020819055508281815181106112d857fe5b6020026020010151601460008784815181106112f057fe5b6020026020010151600160a060020a0316600160a060020a03168152602001908152602001600020600060018081111561132657fe5b815260200190815260200160002081905550601585828151811061134657fe5b602090810291909101810151825460018082018555600094855292909320909201805473ffffffffffffffffffffffffffffffffffffffff1916600160a060020a039093169290921790915501611257565b5050505050565b60065460ff1681565b6113b0614a68565b5060408051808201825233600090815260146020908152838220828052808252848320548452600183528152929020549181019190915290565b602b805460408051602060026001851615610100026000190190941693909304601f810184900484028201840190925281815292918301828280156114705780601f1061144557610100808354040283529160200191611470565b820191906000526020600020905b81548152906001019060200180831161145357829003601f168201915b505050505081565b601a805460408051602060026001851615610100026000190190941693909304601f810184900484028201840190925281815292918301828280156114705780601f1061144557610100808354040283529160200191611470565b600054600160a060020a031633146114ea57600080fd5b80516114fd90602b906020840190614a86565b5050565b61150a33613a61565b61155e576040805160e560020a62461bcd02815260206004820152601260248201527f4e6f742070617274696369706174696e672e0000000000000000000000000000604482015290519081900360640190fd5b600060335460ff16600581111561157157fe5b14801561158057506016544210155b1561158d5761158d614299565b600160335460ff1660058111156115a057fe5b1480156115af57506017544210155b156115ee57602d5460125410156115e6576115e1604051806060016040528060338152602001614da760339139614373565b6115ee565b6115ee614299565b600360335460ff16600581111561160157fe5b14801561161057506023544210155b1561161d5761161d614299565b600260335460ff16600581111561163057fe5b1480156116435750601b54601954014210155b1561167457611674604051806040016040528060208152602001600080516020614c5c833981519152815250614373565b60335460059060ff168181111561168757fe5b81600581111561169357fe5b146116d25760405160e560020a62461bcd028152600401808060200182810382526024815260200180614c386024913960400191505060405180910390fd5b6000601c5411806116f95750602254158015906116f95750602654600160a060020a031633145b61174d576040805160e560020a62461bcd02815260206004820152601160248201527f4e6f207374616b6520746f20636c61696d000000000000000000000000000000604482015290519081900360640190fd5b602654600090600160a060020a031633141561176857602054015b601c546001546040805160e060020a63a9059cbb028152336004820152939092016024840181905291519192600160a060020a039091169163a9059cbb916044808201926020929091908290030181600087803b1580156117c857600080fd5b505af11580156117dc573d6000803e3d6000fd5b505050506040513d60208110156117f257600080fd5b505033600081815260116020908152604091829020805460ff19169055815192835290517f5a53668be860a256c7ff92bff48881a9db38994032e2b90e5a0bdd51921fbeb79281900390910190a15050565b6060602c80548060200260200160405190810160405280929190818152602001828054801561189257602002820191906000526020600020905b81548152602001906001019080831161187e575b5050505050905090565b600754600160a060020a031633146118fe576040805160e560020a62461bcd02815260206004820152601d60248201527f4e6f7420612064657369676e61746564206d6173746572206e6f64652e000000604482015290519081900360640190fd5b600060335460ff16600581111561191157fe5b14801561192057506016544210155b1561192d5761192d614299565b600160335460ff16600581111561194057fe5b14801561194f57506017544210155b1561198e57602d54601254101561198657611981604051806060016040528060338152602001614da760339139614373565b61198e565b61198e614299565b600360335460ff1660058111156119a157fe5b1480156119b057506023544210155b156119bd576119bd614299565b600260335460ff1660058111156119d057fe5b1480156119e35750601b54601954014210155b15611a1457611a14604051806040016040528060208152602001600080516020614c5c833981519152815250614373565b60335460029060ff166005811115611a2857fe5b816005811115611a3457fe5b14611a735760405160e560020a62461bcd028152600401808060200182810382526024815260200180614c386024913960400191505060405180910390fd5b600060065460ff166002811115611a8657fe5b14611ac55760405160e560020a62461bcd028152600401808060200182810382526026815260200180614d816026913960400191505060405180910390fd5b8151611ad8906008906020850190614a86565b50600160098190556006805460ff1916909117905560105460408051918252517f47c2e9e59e6d2347f314927d02f36b95696a09b5f0ac0bae119ff5ae937016559181900360200190a15050565b60608060608351604051908082528060200260200182016040528015611b56578160200160208202803883390190505b50905060608451604051908082528060200260200182016040528015611b86578160200160208202803883390190505b50905060005b8551811015611c765760146000878381518110611ba557fe5b6020026020010151600160a060020a0316600160a060020a031681526020019081526020016000206000806001811115611bdb57fe5b815260200190815260200160002054838281518110611bf657fe5b60200260200101818152505060146000878381518110611c1257fe5b6020026020010151600160a060020a0316600160a060020a031681526020019081526020016000206000600180811115611c4857fe5b815260200190815260200160002054828281518110611c6357fe5b6020908102919091010152600101611b8c565b509092509050915091565b600060335460ff166005811115611c9457fe5b148015611ca357506016544210155b15611cb057611cb0614299565b600160335460ff166005811115611cc357fe5b148015611cd257506017544210155b15611d1157602d546012541015611d0957611d04604051806060016040528060338152602001614da760339139614373565b611d11565b611d11614299565b600360335460ff166005811115611d2457fe5b148015611d3357506023544210155b15611d4057611d40614299565b600260335460ff166005811115611d5357fe5b148015611d665750601b54601954014210155b15611d9757611d97604051806040016040528060208152602001600080516020614c5c833981519152815250614373565b611da033613a61565b611df4576040805160e560020a62461bcd02815260206004820152601260248201527f4e6f742070617274696369706174696e672e0000000000000000000000000000604482015290519081900360640190fd5b60335460039060ff166005811115611e0857fe5b816005811115611e1457fe5b14611e535760405160e560020a62461bcd028152600401808060200182810382526024815260200180614c386024913960400191505060405180910390fd5b6000611e5d610fb0565b600154604080517fdd62ed3e00000000000000000000000000000000000000000000000000000000815233600482015230602482015290519293508392600160a060020a039092169163dd62ed3e91604480820192602092909190829003018186803b158015611ecc57600080fd5b505afa158015611ee0573d6000803e3d6000fd5b505050506040513d6020811015611ef657600080fd5b50511015611f385760405160e560020a62461bcd028152600401808060200182810382526025815260200180614c7c6025913960400191505060405180910390fd5b3360009081526025602052604090205460ff1615611fa0576040805160e560020a62461bcd02815260206004820152601c60248201527f416c726561647920747269676765726564206120646973707574652e00000000604482015290519081900360640190fd5b6022541561203157600154602654602080546040805160e060020a63a9059cbb028152600160a060020a039485166004820152602481019290925251929093169263a9059cbb92604480830193928290030181600087803b15801561200457600080fd5b505af1158015612018573d6000803e3d6000fd5b505050506040513d602081101561202e57600080fd5b50505b6020818155602280546001908101909155336000818152602584526040808220805460ff1916851790556026805473ffffffffffffffffffffffffffffffffffffffff1916841790559254845484517f23b872dd000000000000000000000000000000000000000000000000000000008152600481019490945230602485015260448401529251600160a060020a03909316936323b872dd93606480850194929391928390030190829087803b1580156120ea57600080fd5b505af11580156120fe573d6000803e3d6000fd5b505050506040513d602081101561211457600080fd5b5061211f90506144b9565b6121276145e0565b6033805460ff191660011790556027544281016018819055601781905501601955612150614692565b6032805460ff191690556040805133815290517ff6d97c5e133e50668a6b3607d8748ef6599c3303babb2b08a515a5a67369f45f9181900360200190a15050565b6060601580548060200260200160405190810160405280929190818152602001828054801561189257602002820191906000526020600020905b8154600160a060020a031681526001909101906020018083116121cb575050505050905090565b600181565b6060601280548060200260200160405190810160405280929190818152602001828054801561189257602002820191906000526020600020908154600160a060020a031681526001909101906020018083116121cb575050505050905090565b601f6020526000908152604090205460ff1681565b601c5481565b6060600380548060200260200160405190810160405280929190818152602001828054801561189257602002820191906000526020600020908154600160a060020a031681526001909101906020018083116121cb575050505050905090565b601e5481565b6028805460408051602060026001851615610100026000190190941693909304601f810184900484028201840190925281815292918301828280156114705780601f1061144557610100808354040283529160200191611470565b60335460029060ff16600581111561234757fe5b81600581111561235357fe5b146123925760405160e560020a62461bcd028152600401808060200182810382526024815260200180614c386024913960400191505060405180910390fd5b8261239c336146da565b80156123ad57506123ab610ee0565b155b612401576040805160e560020a62461bcd02815260206004820152601b60248201527f4e6f7420612076616c69642073656e64657220616464726573732e0000000000604482015290519081900360640190fd5b600160065460ff16600281111561241457fe5b14612469576040805160e560020a62461bcd02815260206004820152601760248201527f4e6f742076616c69646174696e6720726577617264732e000000000000000000604482015290519081900360640190fd5b60105481146124c2576040805160e560020a62461bcd02815260206004820152601a60248201527f56616c69646174696f6e20726f756e64206d69736d617463682e000000000000604482015290519081900360640190fd5b601054336000908152600d60205260409020541061252a576040805160e560020a62461bcd02815260206004820152601d60248201527f416c726561647920766f74656420666f72207468697320726f756e642e000000604482015290519081900360640190fd5b600a80546001908101909155601054336000818152600d6020908152604080832094909455600c805495860181559091527fdf6966c971051c3d54ec59162606531493a51404a002842f56009d7e5cf4a8c7909301805473ffffffffffffffffffffffffffffffffffffffff19169091179055518451600f9286929182918401908083835b602083106125ce5780518252601f1990920191602091820191016125af565b51815160209384036101000a600019018019909216911617905292019485525060405193849003019092205460ff1691506126e0905057600b8054600181018083556000929092528451612649917f0175b7a638427703f0dbe7bb9bbf987a2551717b34e79f33b5b1008d1fa01db901906020870190614a86565b505060078001836040518082805190602001908083835b6020831061267f5780518252601f199092019160209182019101612660565b51815160001960209485036101000a0190811690199190911617905292019485525060405193849003810190932080546001810182556000918252939020909201805473ffffffffffffffffffffffffffffffffffffffff19163317905550505b6126e8614735565b50505050565b6126f6614b04565b6040805160c081018252602d548152602e546020820152602f54918101919091526030546060820152603154608082015260325460a082019060ff16600181111561273d57fe5b9052905090565b600054600160a060020a031681565b601054336000908152600d602052604081205490911461277557506000610eef565b60005b600c548110156127be57600c80548290811061279057fe5b600091825260209091200154600160a060020a03163314156127b6576000915050610eef565b600101612778565b506001905090565b600154600160a060020a031681565b60335460029060ff1660058111156127e957fe5b8160058111156127f557fe5b146128345760405160e560020a62461bcd028152600401808060200182810382526024815260200180614c386024913960400191505060405180910390fd5b8161283e336146da565b801561284f575061284d610ee0565b155b6128a3576040805160e560020a62461bcd02815260206004820152601b60248201527f4e6f7420612076616c69642073656e64657220616464726573732e0000000000604482015290519081900360640190fd5b600160065460ff1660028111156128b657fe5b1461290b576040805160e560020a62461bcd02815260206004820152601760248201527f4e6f742076616c69646174696e6720726577617264732e000000000000000000604482015290519081900360640190fd5b6010548114612964576040805160e560020a62461bcd02815260206004820152601a60248201527f56616c69646174696f6e20726f756e64206d69736d617463682e000000000000604482015290519081900360640190fd5b601054336000908152600d6020526040902054106129cc576040805160e560020a62461bcd02815260206004820152601d60248201527f416c726561647920766f74656420666f72207468697320726f756e642e000000604482015290519081900360640190fd5b600980546001019055601054336000908152600d60205260409020556129f0614750565b505050565b60006129ff610ee0565b80612a0d5750612a0d612753565b8015612a295750336000908152601f602052604090205460ff16155b801561100b5750600460335460ff166005811115612a4357fe5b14905090565b612a51614b22565b6040518060a001604052806016548152602001601754815260200160185481526020016019548152602001601b54815250905090565b600754600160a060020a03163314612ae9576040805160e560020a62461bcd02815260206004820152601d60248201527f4e6f7420612064657369676e61746564206d6173746572206e6f64652e000000604482015290519081900360640190fd5b600060335460ff166005811115612afc57fe5b148015612b0b57506016544210155b15612b1857612b18614299565b600160335460ff166005811115612b2b57fe5b148015612b3a57506017544210155b15612b7957602d546012541015612b7157612b6c604051806060016040528060338152602001614da760339139614373565b612b79565b612b79614299565b600360335460ff166005811115612b8c57fe5b148015612b9b57506023544210155b15612ba857612ba8614299565b600260335460ff166005811115612bbb57fe5b148015612bce5750601b54601954014210155b15612bff57612bff604051806040016040528060208152602001600080516020614c5c833981519152815250614373565b60335460029060ff166005811115612c1357fe5b816005811115612c1f57fe5b14612c5e5760405160e560020a62461bcd028152600401808060200182810382526024815260200180614c386024913960400191505060405180910390fd5b600060065460ff166002811115612c7157fe5b14612cc6576040805160e560020a62461bcd02815260206004820152601e60248201527f4f6e6c79206265666f72652076616c69646174696f6e207374617274732e0000604482015290519081900360640190fd5b81516129f090602c906020850190614b40565b612ce233613a61565b612d36576040805160e560020a62461bcd02815260206004820152601260248201527f4e6f742070617274696369706174696e672e0000000000000000000000000000604482015290519081900360640190fd5b600060335460ff166005811115612d4957fe5b148015612d5857506016544210155b15612d6557612d65614299565b600160335460ff166005811115612d7857fe5b148015612d8757506017544210155b15612dc657602d546012541015612dbe57612db9604051806060016040528060338152602001614da760339139614373565b612dc6565b612dc6614299565b600360335460ff166005811115612dd957fe5b148015612de857506023544210155b15612df557612df5614299565b600260335460ff166005811115612e0857fe5b148015612e1b5750601b54601954014210155b15612e4c57612e4c604051806040016040528060208152602001600080516020614c5c833981519152815250614373565b60335460049060ff166005811115612e6057fe5b816005811115612e6c57fe5b14612eab5760405160e560020a62461bcd028152600401808060200182810382526024815260200180614c386024913960400191505060405180910390fd5b336000908152601460209081526040808320838052909152808220546001835291205481158015612eda575080155b15612f295733600160a060020a0316600080516020614ca1833981519152604051808060200182810382526025815260200180614cc16025913960400191505060405180910390a25050613161565b336000908152601460209081526040808320838052909152902054601e543031031080612ffa575033600090815260146020908152604080832060018085529083529281902054925481517f70a082310000000000000000000000000000000000000000000000000000000081523060048201529151600160a060020a03909116926370a082319260248082019391829003018186803b158015612fcc57600080fd5b505afa158015612fe0573d6000803e3d6000fd5b505050506040513d6020811015612ff657600080fd5b5051105b156130495733600160a060020a0316600080516020614ca1833981519152604051808060200182810382526045815260200180614d3c6045913960600191505060405180910390a25050613161565b33600081815260146020908152604080832083805290915280822082905560018252808220829055516108fc85150291859190818181858888f19350505050158015613099573d6000803e3d6000fd5b508015613124576001546040805160e060020a63a9059cbb028152336004820152602481018490529051600160a060020a039092169163a9059cbb916044808201926020929091908290030181600087803b1580156130f757600080fd5b505af115801561310b573d6000803e3d6000fd5b505050506040513d602081101561312157600080fd5b50505b6040805183815260208101839052815133927fe74e5c9d4ac1fc33412485f18c159a0a391efe287ab3fd271123f30e6bacf4e3928290030190a250505b50565b600060335460ff16600581111561317757fe5b14801561318657506016544210155b1561319357613193614299565b600160335460ff1660058111156131a657fe5b1480156131b557506017544210155b156131f457602d5460125410156131ec576131e7604051806060016040528060338152602001614da760339139614373565b6131f4565b6131f4614299565b600360335460ff16600581111561320757fe5b14801561321657506023544210155b1561322357613223614299565b600260335460ff16600581111561323657fe5b1480156132495750601b54601954014210155b1561327a5761327a604051806040016040528060208152602001600080516020614c5c833981519152815250614373565b60335460049060ff16600581111561328e57fe5b81600581111561329a57fe5b146132d95760405160e560020a62461bcd028152600401808060200182810382526024815260200180614c386024913960400191505060405180910390fd5b6132e2336146da565b613336576040805160e560020a62461bcd02815260206004820152600b60248201527f4e6f742061206e6f64652e000000000000000000000000000000000000000000604482015290519081900360640190fd5b336000908152601f602052604090205460ff161561339e576040805160e560020a62461bcd02815260206004820152601060248201527f416c726561647920636c61696d65642e00000000000000000000000000000000604482015290519081900360640190fd5b60006133a8610ee0565b156133bc576133b5614798565b9050613434565b6133c4612753565b156133e457600760020154600101601d54816133dc57fe5b049050613434565b6040805160e560020a62461bcd02815260206004820152601060248201527f4e6f7468696e6720746f20636c61696d00000000000000000000000000000000604482015290519081900360640190fd5b601e5481111561348e576040805160e560020a62461bcd02815260206004820152601e60248201527f536f6d657468696e672077656e7420686f727269626c792077726f6e672e0000604482015290519081900360640190fd5b604051339082156108fc029083906000818181858888f193505050501580156134bb573d6000803e3d6000fd5b50601e80548290039055336000818152601f6020908152604091829020805460ff191660011790558151928352820183905280517f9bba21557d0250e19101c5df524f23380fd45fc8cd7ec3a22b8431abcc1525c29281900390910190a15050565b600060335460ff16600581111561353057fe5b14801561353f57506016544210155b1561354c5761354c614299565b600160335460ff16600581111561355f57fe5b14801561356e57506017544210155b156135ad57602d5460125410156135a5576135a0604051806060016040528060338152602001614da760339139614373565b6135ad565b6135ad614299565b600360335460ff1660058111156135c057fe5b1480156135cf57506023544210155b156135dc576135dc614299565b600260335460ff1660058111156135ef57fe5b1480156136025750601b54601954014210155b1561363357613633604051806040016040528060208152602001600080516020614c5c833981519152815250614373565b565b61363d614b22565b506040805160a081018252602080548252602154908201526024549181019190915260225460608201526023546080820152602654600160a060020a03169091565b60606005805480602002602001604051908101604052809291908181526020018280548015611892576020028201919060005260206000209081548152602001906001019080831161187e575050505050905090565b600780546008805460408051602060026101006001861615026000190190941693909304601f8101849004840282018401909252818152600160a060020a039094169493929183018282801561376c5780601f106137415761010080835404028352916020019161376c565b820191906000526020600020905b81548152906001019060200180831161374f57829003601f168201915b5050505050908060020154908060030154905084565b600054600160a060020a0316331461379957600080fd5b600060335460ff1660058111156137ac57fe5b1480156137bb57506016544210155b156137c8576137c8614299565b600160335460ff1660058111156137db57fe5b1480156137ea57506017544210155b1561382957602d5460125410156138215761381c604051806060016040528060338152602001614da760339139614373565b613829565b613829614299565b600360335460ff16600581111561383c57fe5b14801561384b57506023544210155b1561385857613858614299565b600260335460ff16600581111561386b57fe5b14801561387e5750601b54601954014210155b156138af576138af604051806040016040528060208152602001600080516020614c5c833981519152815250614373565b600460335460ff1660058111156138c257fe5b14806138de5750600560335460ff1660058111156138dc57fe5b145b6138e757600080fd5b601b54601954016224ea00014210156138ff57600080fd5b60008054604051600160a060020a0390911691303180156108fc02929091818181858888f1935050505015801561393a573d6000803e3d6000fd5b506000601e819055600154604080517f70a082310000000000000000000000000000000000000000000000000000000081523060048201529051600160a060020a03909216916370a0823191602480820192602092909190829003018186803b1580156139a657600080fd5b505afa1580156139ba573d6000803e3d6000fd5b505050506040513d60208110156139d057600080fd5b5051600154600080546040805160e060020a63a9059cbb028152600160a060020a03928316600482015260248101869052905194955092169263a9059cbb926044808201936020939283900390910190829087803b158015613a3157600080fd5b505af1158015613a45573d6000803e3d6000fd5b505050506040513d60208110156129f057600080fd5b601b5481565b600160a060020a03811660009081526011602052604090205460ff165b919050565b600060335460ff166005811115613a9657fe5b148015613aa557506016544210155b15613ab257613ab2614299565b600160335460ff166005811115613ac557fe5b148015613ad457506017544210155b15613b1357602d546012541015613b0b57613b06604051806060016040528060338152602001614da760339139614373565b613b13565b613b13614299565b600360335460ff166005811115613b2657fe5b148015613b3557506023544210155b15613b4257613b42614299565b600260335460ff166005811115613b5557fe5b148015613b685750601b54601954014210155b15613b9957613b99604051806040016040528060208152602001600080516020614c5c833981519152815250614373565b60055415801590613c7d575060048054604080517f35fe903400000000000000000000000000000000000000000000000000000000815233938101848152602482019283526005805460448401819052600160a060020a03909516956335fe903495909491936064019084908015613c3057602002820191906000526020600020905b815481526020019060010190808311613c1c575b5050935050505060206040518083038186803b158015613c4f57600080fd5b505afa158015613c63573d6000803e3d6000fd5b505050506040513d6020811015613c7957600080fd5b5051155b15613cd8576040805160208082526012908201527f5065726d697373696f6e2064656e6965642e00000000000000000000000000008183015290513391600080516020614ca1833981519152919081900360600190a2613633565b60315460125410613d3957604080516020808252600e908201527f4576656e742069732066756c6c2e0000000000000000000000000000000000008183015290513391600080516020614ca1833981519152919081900360600190a2613633565b613d4233613a61565b15613d9d57604080516020808252601e908201527f596f752061726520616c72656164792070617274696369706174696e672e00008183015290513391600080516020614ca1833981519152919081900360600190a2613633565b600160335460ff166005811115613db057fe5b14613dfd5733600160a060020a0316600080516020614ca1833981519152604051808060200182810382526030815260200180614d0c6030913960400191505060405180910390a2613633565b6000601c54118015613ea55750601c54600154604080517fdd62ed3e0000000000000000000000000000000000000000000000000000000081523360048201523060248201529051600160a060020a039092169163dd62ed3e91604480820192602092909190829003018186803b158015613e7757600080fd5b505afa158015613e8b573d6000803e3d6000fd5b505050506040513d6020811015613ea157600080fd5b5051105b15613f00576040805160208082526019908201527f4e6f7420656e6f75676820746f6b656e73207374616b65642e000000000000008183015290513391600080516020614ca1833981519152919081900360600190a2613633565b601c5415613fab57600154601c54604080517f23b872dd000000000000000000000000000000000000000000000000000000008152336004820152306024820152604481019290925251600160a060020a03909216916323b872dd916064808201926020929091908290030181600087803b158015613f7e57600080fd5b505af1158015613f92573d6000803e3d6000fd5b505050506040513d6020811015613fa857600080fd5b50505b33600081815260116020526040808220805460ff1916600190811790915560128054918201815583527fbb8a6a4669ba250d26cd7a459eca9d215f8307e33aebe50379bc5a3617ec344401805473ffffffffffffffffffffffffffffffffffffffff19168417905560025481517fb9d3514d00000000000000000000000000000000000000000000000000000000815260048101949094529051600160a060020a03919091169263b9d3514d92602480830193919282900301818387803b15801561407557600080fd5b505af1158015614089573d6000803e3d6000fd5b50506040805133815290517f0940fd5e528ae9fa6c086f42387c791c3854e0febdf0717c2da155c9dbf1e86c9350908190036020019150a1565b600054600160a060020a031633146140da57600080fd5b6018544210614133576040805160e560020a62461bcd02815260206004820152601660248201527f4576656e7420616c726561647920737461727465642e00000000000000000000604482015290519081900360640190fd5b6033805461ff0019166101001790554260195560408051808201909152601a81527f4576656e742063616e63656c65642062792063726561746f722e000000000000602082015261418390614373565b601c54156136335760005b6012548110156131615760015460128054600160a060020a039092169163a9059cbb9190849081106141bc57fe5b6000918252602080832090910154601c54604080517c010000000000000000000000000000000000000000000000000000000063ffffffff8816028152600160a060020a03909316600484015260248301919091525160448083019491928390030190829087803b15801561423057600080fd5b505af1158015614244573d6000803e3d6000fd5b505050506040513d602081101561425a57600080fd5b505060010161418e565b61426c614a68565b60408051808201918290526029805482529091600290602a6020850180831161187e575050505050905090565b600460335460ff1660058111156142ac57fe5b106142eb5760405160e560020a62461bcd028152600401808060200182810382526026815260200180614ce66026913960400191505060405180910390fd5b60335460ff1660058111156142fc57fe5b600101600581111561430a57fe5b6033805460ff1916600183600581111561432057fe5b02179055506033546040517fb9eb8a309bf89f3159b39681f485b6430fec1035b2b457edbcdadcdece888c0b9160ff16908082600581111561435e57fe5b60ff16815260200191505060405180910390a1565b600460335460ff16600581111561438657fe5b106143c55760405160e560020a62461bcd028152600401808060200182810382526026815260200180614ce66026913960400191505060405180910390fd5b6033805460ff1916600517905560408051602080825283518183015283517f860b7e55e58bd6095b36c4b4016ed8a2e47cb8ebd020fa0e43b32649deb540c3938593928392918301919085019080838360005b83811015614430578181015183820152602001614418565b50505050905090810190601f16801561445d5780820380516001836020036101000a031916815260200191505b509250505060405180910390a16033546040517fb9eb8a309bf89f3159b39681f485b6430fec1035b2b457edbcdadcdece888c0b9160ff1690808260058111156144a357fe5b60ff16815260200191505060405180910390a150565b60006009819055600a8190555b600b5481101561456d57600b8054600e9190839081106144e257fe5b9060005260206000200160405180828054600181600116156101000203166002900480156145475780601f10614525576101008083540402835291820191614547565b820191906000526020600020905b815481529060010190602001808311614533575b50509283525050604051908190036020019020614565906000614b7a565b6001016144c6565b5061457a600b6000614b98565b614586600c6000614b7a565b6006805460ff1916905560005b60035481101561316157600060076006016000600384815481106145b357fe5b6000918252602080832090910154600160a060020a03168352820192909252604001902055600101614593565b60005b601554811015614685576000601460006015848154811061460057fe5b6000918252602080832090910154600160a060020a03168352820192909252604001812090808152602001908152602001600020819055506000601460006015848154811061464b57fe5b600091825260208083209190910154600160a060020a031683528281019390935260409182018120600180835293522091909155016145e3565b5061363360156000614b7a565b602f80546103e86064828103810282900490920192839055602d8054808402929092049182019055602e80549382029290920492830190915560318054929091019091019055565b6000805b60035481101561472c5782600160a060020a0316600382815481106146ff57fe5b600091825260209091200154600160a060020a03161415614724576001915050613a7e565b6001016146de565b50600092915050565b602f546064036147436147c1565b10613633576136336147db565b602f5461475b6148cc565b10613633576006805460ff19166002179055602c541561478a576021544201602355614785614299565b613633565b4260235561363360046148e0565b6000600160076002015403600760020154600101601d54816147b657fe5b0402601d5403905090565b600354600a5460009190606402816147d557fe5b04905090565b60016007600801600760010160405180828054600181600116156101000203166002900480156148425780601f10614820576101008083540402835291820191614842565b820191906000526020600020905b81548152906001019060200180831161482e575b50509283525050604051602091819003919091019020805460ff1916911515919091179055600b54600a546010546009549290910360010191016000190111156148c4576147856040518060400160405280601a81526020017f436f6e73656e7375732063616e27742062652072656163686564000000000000815250614373565b613633614937565b60035460095460009190606402816147d557fe5b6033805482919060ff191660018360058111156148f957fe5b02179055506033546040517fb9eb8a309bf89f3159b39681f485b6430fec1035b2b457edbcdadcdece888c0b9160ff1690808260058111156144a357fe5b601080546001019055600b8054600e919060009061495157fe5b9060005260206000200160405180828054600181600116156101000203166002900480156149b65780601f106149945761010080835404028352918201916149b6565b820191906000526020600020905b8154815290600101906020018083116149a2575b505091505090815260200160405180910390206000815481106149d557fe5b6000918252602090912001546007805473ffffffffffffffffffffffffffffffffffffffff1916600160a060020a03909216919091179055614a156144b9565b614a1d6145e0565b60105460075460408051928352600160a060020a03909116602083015280517f372d3c1251f28673c4ee2eaf015d5e07bf3145e2df993fd41cae9707f389eaa89281900390910190a1565b60405180604001604052806002906020820280388339509192915050565b828054600181600116156101000203166002900490600052602060002090601f016020900481019282601f10614ac757805160ff1916838001178555614af4565b82800160010185558215614af4579182015b82811115614af4578251825591602001919060010190614ad9565b50614b00929150614bb6565b5090565b6040518060c001604052806006906020820280388339509192915050565b6040518060a001604052806005906020820280388339509192915050565b828054828255906000526020600020908101928215614af45791602002820182811115614af4578251825591602001919060010190614ad9565b50805460008255906000526020600020908101906131619190614bb6565b50805460008255906000526020600020908101906131619190614bd0565b610eef91905b80821115614b005760008155600101614bbc565b610eef91905b80821115614b00576000614bea8282614bf3565b50600101614bd6565b50805460018160011615610100020316600290046000825580601f10614c195750613161565b601f0160209004906000526020600020908101906131619190614bb656fe4e6f7420706f737369626c6520696e2063757272656e74206576656e742073746174652e4576656e7420746f6f6b20746f6f206c6f6e6720746f20636f6d706c6574652e4e6f7420656e6f75676820746f6b656e73207374616b656420666f7220646973707574652ecfa5f641c29090a64bc13dcafdc8c23d82677807046c35d636ca9c57fc9cb257596f7520646f206e6f74206861766520616e79207265776172647320746f20636c61696d2e4576656e742073746174652063616e2774206265206d6f64696669656420616e796d6f72652e596f752063616e206e6f74206a6f696e20746865206576656e7420696e206974732063757272656e742073746174652e437269746963616c206572726f723a206e6f7420656e6f7567682062616c616e636520746f20706179206f7574207265776172642e20436f6e74616374205665726974792e4e6f7420706f737369626c6520696e20746869732076616c69646174696f6e2073746174652e4e6f7420656e6f756768207573657273206a6f696e656420666f72207265717569726564206d696e696d756d20766f7465732ea165627a7a723058204a275e02c1e58e61be8f3d7d426664632753a00349bf6cfb2830cefd06d12db00029",
  "source": "pragma solidity ^0.5.7;\n\n\nimport './Store.sol';\nimport '../VerityToken.sol';\n\n\ninterface UserRolesI {\n    function hasAnyRole(address _user, uint[] calldata _roles) external view returns (bool);\n}\n\n\ncontract Implementation is Store {\n    event StateTransition(EventStates newState);\n    event JoinEvent(address wallet);\n    event ClaimReward(address indexed recipient, uint ethReward, uint tokenReward);\n    event Error(address indexed byAddress, string description);\n    event EventFailed(string description);\n    event ValidationStarted(uint validationRound);\n    event ValidationRestart(uint validationRound, address newMaster);\n    event DisputeTriggered(address byAddress);\n    event ClaimStake(address recipient);\n    event NodeClaimReward(address node, uint reward);\n\n\n    /// A modifier signifiying that a certain method can only be used by the creator\n    /// of the contract.\n    /// Rollbacks the transaction on failure.\n    modifier onlyOwner() {\n        require(msg.sender == owner);\n        _;\n    }\n\n    /// A modifier signifiying that rewards can be set only by the designated master node.\n    /// Rollbacks the transaction on failure.\n    modifier onlyCurrentMaster() {\n        require(\n            msg.sender == rewardsValidation.currentMasterNode,\n            \"Not a designated master node.\"\n        );\n        _;\n    }\n\n    ///\tA modifier signifying that a certain method can only be used by a wallet\n    ///\tmarked as a participant.\n    ///\tRollbacks the transaction or failure.\n    modifier onlyParticipating() {\n        require(\n            isParticipating(msg.sender),\n            \"Not participating.\"\n        );\n        _;\n    }\n\n    /// A modifier signifying that a certain method can only be used when the event\n    /// is in a certain state.\n    /// @param _state The event's required state\n    /// Example:\n    /// \tfunction claimReward() onlyParticipanting onlyState(EventStates.Reward) {\n    /// \t\t// ... content\n    /// \t}\n    modifier onlyState(EventStates _state) {\n        require(\n            _state == eventState,\n            \"Not possible in current event state.\"\n        );\n        _;\n    }\n\n    /// A modifier taking care of all the timed state transitions.\n    /// Should always be used before all other modifiers, especially `onlyState`,\n    /// since it can change state.\n    /// Should probably be used in ALL non-constant (transaction) methods of\n    /// the contract.\n    modifier timedStateTransition() {\n        if (eventState == EventStates.Waiting && now >= applicationStartTime) {\n            advanceState();\n        }\n\n        if (eventState == EventStates.Application && now >= applicationEndTime) {\n            if (participantsIndex.length < consensusRules.minTotalVotes) {\n                markAsFailed(\"Not enough users joined for required minimum votes.\");\n            } else {\n                advanceState();\n            }\n        }\n\n        if (eventState == EventStates.DisputeTimeout && now >= dispute.expiresAt) {\n            advanceState();\n        }\n\n        if (\n            eventState == EventStates.Running &&\n            now >= eventEndTime + leftoversRecoverableAfter\n        ) {\n            markAsFailed(\"Event took too long to complete.\");\n        }\n        _;\n    }\n\n    modifier onlyChangeableState() {\n        require(\n            uint(eventState) < uint(EventStates.Reward),\n            \"Event state can't be modified anymore.\"\n        );\n        _;\n    }\n\n    modifier onlyAfterLefroversCanBeRecovered() {\n        require(\n            eventState == EventStates.Reward ||\n            eventState == EventStates.Failed\n        );\n        require(\n            now >= eventEndTime + leftoversRecoverableAfter + 4 weeks\n        );\n        _;\n    }\n\n    modifier canValidateRewards(uint forRound) {\n        require(\n            isNode(msg.sender) && !isMasterNode(),\n            \"Not a valid sender address.\"\n        );\n\n        require(\n            validationState == ValidationState.Validating,\n            \"Not validating rewards.\"\n        );\n\n        require(\n            forRound == rewardsValidationRound,\n            \"Validation round mismatch.\"\n        );\n\n        require(\n            rewardsValidation.votersRound[msg.sender] < rewardsValidationRound,\n            \"Already voted for this round.\"\n        );\n        _;\n    }\n\n    /// Ensure we can receive money at any time.\n    /// Not used, but we might want to extend the reward fund while event is running.\n    function() external payable {}\n\n    /// Apply for participation in this event.\n    /// Available only during the Application state.\n    /// A transaction to this function has to be done by the users themselves,\n    /// registering their wallet address as a participent.\n    /// The transaction does not have to include any funds.\n    function joinEvent()\n        public\n        timedStateTransition\n    {\n        if (\n            requiredUserRoles.length > 0 &&\n            !UserRolesI(permissionRegistry).hasAnyRole(msg.sender, requiredUserRoles)\n        ) {\n            emit Error(msg.sender, \"Permission denied.\");\n            return;\n        }\n\n        if (participantsIndex.length >= consensusRules.maxParticipants) {\n            emit Error(msg.sender, \"Event is full.\");\n            return;\n        }\n\n        if (isParticipating(msg.sender)) {\n            emit Error(msg.sender, \"You are already participating.\");\n            return;\n        }\n\n        if (eventState != EventStates.Application) {\n            emit Error(msg.sender, \"You can not join the event in its current state.\");\n            return;\n        }\n\n        if (\n            stakingAmount > 0 &&\n            VerityToken(tokenAddress).allowance(msg.sender, address(this)) < stakingAmount\n        ) {\n            emit Error(msg.sender, \"Not enough tokens staked.\");\n            return;\n        }\n\n        if (stakingAmount > 0) {\n            VerityToken(tokenAddress).transferFrom(msg.sender, address(this), stakingAmount);\n        }\n        participants[msg.sender] = true;\n        participantsIndex.push(msg.sender);\n        EventRegistryI(eventRegistryAddress).addEventToUser(msg.sender);\n        emit JoinEvent(msg.sender);\n    }\n\n    /// Checks whether an address is participating in this event.\n    /// @param _user The addres to check for participation\n    /// @return {bool} Whether the given address is a participant of this event\n    function isParticipating(address _user) public view returns(bool) {\n        return participants[_user];\n    }\n\n    function getParticipants() public view returns(address[] memory) {\n        return participantsIndex;\n    }\n\n    function getEventTimes() public view returns(uint[5] memory) {\n        return [\n            applicationStartTime,\n            applicationEndTime,\n            eventStartTime,\n            eventEndTime,\n            leftoversRecoverableAfter\n        ];\n    }\n\n    /// Assign the actual rewards.\n    /// Receives a list of addresses and a list rewards. Mapping between the two\n    /// is done by the addresses' and reward's numerical index in the list, so\n    /// order is important.\n    /// @param _addresses A list of addresses\n    /// @param _etherRewards A list of ether rewards, must be the exact same length as addresses\n    /// @param _tokenRewards A list of token rewards, must be the exact same length as addresses\n    function setRewards(\n        address[] memory _addresses,\n        uint[] memory _etherRewards,\n        uint[] memory _tokenRewards\n    )\n        public\n        onlyCurrentMaster\n        timedStateTransition\n        onlyState(EventStates.Running)\n    {\n        require(\n            _addresses.length == _etherRewards.length &&\n            _addresses.length == _tokenRewards.length\n        );\n\n        require(\n            validationState == ValidationState.WaitingForRewards,\n            \"Not possible in this validation state.\"\n        );\n\n        for (uint i = 0; i < _addresses.length; ++i) {\n            rewards[_addresses[i]][uint(RewardType.Ether)] = _etherRewards[i];\n            rewards[_addresses[i]][uint(RewardType.Token)] = _tokenRewards[i];\n            rewardsIndex.push(_addresses[i]);\n        }\n    }\n\n    /// Triggered by the master node once rewards are set and ready to validate\n    function markRewardsSet(string memory rewardsHash)\n        public\n        onlyCurrentMaster\n        timedStateTransition\n        onlyState(EventStates.Running)\n    {\n        require(\n            validationState == ValidationState.WaitingForRewards,\n            \"Not possible in this validation state.\"\n        );\n\n        rewardsValidation.rewardsHash = rewardsHash;\n        rewardsValidation.approvalCount = 1;\n        validationState = ValidationState.Validating;\n        emit ValidationStarted(rewardsValidationRound);\n    }\n\n    /// Called by event resolver nodes if they agree with rewards\n    function approveRewards(uint validationRound)\n        public\n        onlyState(EventStates.Running)\n        canValidateRewards(validationRound)\n    {\n        ++rewardsValidation.approvalCount;\n        rewardsValidation.votersRound[msg.sender] = rewardsValidationRound;\n        checkApprovalRatio();\n    }\n\n    /// Called by event resolvers if they don't agree with rewards\n    function rejectRewards(uint validationRound, string memory altHash)\n        public\n        onlyState(EventStates.Running)\n        canValidateRewards(validationRound)\n    {\n        ++rewardsValidation.rejectionCount;\n        rewardsValidation.votersRound[msg.sender] = rewardsValidationRound;\n        rewardsValidation.rejectors.push(msg.sender);\n\n        if (!rewardsValidation.rejectedHashes[altHash]) {\n            rewardsValidation.altHashes.push(altHash);\n            rewardsValidation.altHashVotes[altHash].push(msg.sender);\n        }\n\n        checkRejectionRatio();\n    }\n\n    /// Trigger a dispute.\n    function triggerDispute()\n        public\n        timedStateTransition\n        onlyParticipating\n        onlyState(EventStates.DisputeTimeout)\n    {\n        uint requiredDisputeAmount = requiredNextDisputeAmount();\n\n        require(\n            VerityToken(tokenAddress).allowance(msg.sender, address(this)) >=\n            requiredDisputeAmount,\n            \"Not enough tokens staked for dispute.\"\n        );\n\n        require(\n            dispute.disputers[msg.sender] == false,\n            \"Already triggered a dispute.\"\n        );\n\n        /// Return previoust staking amount to previous disputer\n        if (dispute.round > 0) {\n            VerityToken(tokenAddress).transfer(dispute.currentDisputer, dispute.amount);\n        }\n\n        dispute.amount = requiredDisputeAmount;\n        ++dispute.round;\n        dispute.disputers[msg.sender] = true;\n        dispute.currentDisputer = msg.sender;\n\n        /// Transfer staked amount\n        VerityToken(tokenAddress).transferFrom(msg.sender, address(this), dispute.amount);\n\n        /// Restart event\n        deleteValidationData();\n        deleteRewards();\n        eventState = EventStates.Application;\n        applicationEndTime = eventStartTime = now + disputeTimeExtension;\n        eventEndTime = eventStartTime + disputeTimeExtension;\n\n        increaseConsensusStrictness();\n\n        consensusRules.rewardsDistribution = RewardsDistribution.Linear;\n        emit DisputeTriggered(msg.sender);\n    }\n\n    function requiredNextDisputeAmount() public view returns(uint) {\n        if (dispute.round == 0) {\n            return dispute.amount;\n        } else if (dispute.multiplier == 1) {\n            return dispute.amount + dispute.amount / dispute.round;\n        } else {\n            return dispute.amount * dispute.multiplier;\n        }\n    }\n\n    /// Checks current approvals for threshold\n    function checkApprovalRatio() private {\n        if (approvalRatio() >= consensusRules.minConsensusRatio) {\n            validationState = ValidationState.Finished;\n            if (results.length != 0) {\n                dispute.expiresAt = now + dispute.timeout;\n                advanceState();\n            } else {\n                dispute.expiresAt = now;\n                setState(EventStates.Reward);\n            }\n        }\n    }\n\n    /// Checks current rejections for threshold\n    function checkRejectionRatio() private {\n        if (rejectionRatio() >= (100 - consensusRules.minConsensusRatio)) {\n            rejectCurrentValidation();\n        }\n    }\n\n    /// Handle the rejection of current rewards\n    function rejectCurrentValidation() private {\n        rewardsValidation.rejectedHashes[rewardsValidation.rewardsHash] = true;\n\n        // If approved votes are over the threshold all other hashes will also fail\n        if (\n            rewardsValidation.approvalCount + rewardsValidationRound - 1 >\n            rewardsValidation.rejectionCount - rewardsValidation.altHashes.length + 1\n        ) {\n            markAsFailed(\"Consensus can't be reached\");\n        } else {\n            restartValidation();\n        }\n    }\n\n    function restartValidation() private {\n        ++rewardsValidationRound;\n        rewardsValidation.currentMasterNode = rewardsValidation.altHashVotes[rewardsValidation.altHashes[0]][0];\n\n        deleteValidationData();\n        deleteRewards();\n\n        emit ValidationRestart(rewardsValidationRound, rewardsValidation.currentMasterNode);\n    }\n\n    /// Delete rewards.\n    function deleteRewards() private {\n        for (uint j = 0; j < rewardsIndex.length; ++j) {\n            rewards[rewardsIndex[j]][uint(RewardType.Ether)] = 0;\n            rewards[rewardsIndex[j]][uint(RewardType.Token)] = 0;\n        }\n        delete rewardsIndex;\n    }\n\n    /// Delete validation data\n    function deleteValidationData() private {\n        rewardsValidation.approvalCount = 0;\n        rewardsValidation.rejectionCount = 0;\n        for (uint i = 0; i < rewardsValidation.altHashes.length; ++i) {\n            delete rewardsValidation.altHashVotes[rewardsValidation.altHashes[i]];\n        }\n        delete rewardsValidation.altHashes;\n        delete rewardsValidation.rejectors;\n        validationState = ValidationState.WaitingForRewards;\n\n        for(uint j = 0; j < eventResolvers.length; ++j) {\n            rewardsValidation.votersRound[eventResolvers[j]] = 0;\n        }\n    }\n\n    /// Ratio of nodes that approved of current hash\n    function approvalRatio() private view returns(uint) {\n        return rewardsValidation.approvalCount * 100 / eventResolvers.length;\n    }\n\n    /// Ratio of nodes that rejected the current hash\n    function rejectionRatio() private view returns(uint) {\n        return rewardsValidation.rejectionCount * 100 / eventResolvers.length;\n    }\n\n    /// Returns the whole array of event resolvers.\n    function getEventResolvers() public view returns(address[] memory) {\n        return eventResolvers;\n    }\n\n    /// Checks if the address is current master node.\n    function isMasterNode() public view returns(bool) {\n        return rewardsValidation.currentMasterNode == msg.sender;\n    }\n\n    function isNode(address node) private view returns(bool) {\n        for(uint i = 0; i < eventResolvers.length; ++i) {\n            if(eventResolvers[i] == node) {\n                return true;\n            }\n        }\n        return false;\n    }\n\n    /// Returns the calling user's assigned rewards. Can be 0.\n    /// Only available to participating users in the Reward state, since rewards\n    /// are not assigned before that.\n    function getReward()\n        public\n        view\n        returns(uint[2] memory)\n    {\n        return [\n            rewards[msg.sender][uint(RewardType.Ether)],\n            rewards[msg.sender][uint(RewardType.Token)]\n        ];\n    }\n\n    /// Returns all the addresses that have rewards set.\n    function getRewardsIndex() public view returns(address[] memory) {\n        return rewardsIndex;\n    }\n\n    /// Returns rewards for specified addresses.\n    /// [[ethRewards, tokenRewards], [ethRewards, tokenRewards], ...]\n    function getRewards(address[] memory _addresses)\n        public\n        view\n        returns(uint[] memory, uint[] memory)\n    {\n        uint[] memory ethRewards = new uint[](_addresses.length);\n        uint[] memory tokenRewards = new uint[](_addresses.length);\n\n        for(uint i = 0; i < _addresses.length; ++i) {\n            ethRewards[i] = rewards[_addresses[i]][uint(RewardType.Ether)];\n            tokenRewards[i] = rewards[_addresses[i]][uint(RewardType.Token)];\n        }\n\n        return (ethRewards, tokenRewards);\n    }\n\n    /// Claim a reward.\n    /// Needs to be called by the users themselves.\n    /// Only available in the Reward state, after rewards have been received from\n    /// the validation nodes.\n    function claimReward()\n        public\n        onlyParticipating\n        timedStateTransition\n        onlyState(EventStates.Reward)\n    {\n        uint etherReward = rewards[msg.sender][uint(RewardType.Ether)];\n        uint tokenReward = rewards[msg.sender][uint(RewardType.Token)];\n\n        if (etherReward == 0 && tokenReward == 0) {\n            emit Error(msg.sender, \"You do not have any rewards to claim.\");\n            return;\n        }\n\n        if (\n            (address(this).balance - nodeRewardsBalance) < rewards[msg.sender][uint(RewardType.Ether)] ||\n            VerityToken(tokenAddress).balanceOf(address(this)) < rewards[msg.sender][uint(RewardType.Token)]\n        ) {\n            emit Error(msg.sender, \"Critical error: not enough balance to pay out reward. Contact Verity.\");\n            return;\n        }\n\n        rewards[msg.sender][uint(RewardType.Ether)] = 0;\n        rewards[msg.sender][uint(RewardType.Token)] = 0;\n\n        msg.sender.transfer(etherReward);\n        if (tokenReward > 0) {\n            VerityToken(tokenAddress).transfer(msg.sender, tokenReward);\n        }\n\n        emit ClaimReward(msg.sender, etherReward, tokenReward);\n    }\n\n    function nodeClaimReward()\n        public\n        timedStateTransition\n        onlyState(EventStates.Reward)\n    {\n        require(\n            isNode(msg.sender),\n            \"Not a node.\"\n        );\n\n        require(\n            nodeRewardsClaimed[msg.sender] == false,\n            \"Already claimed.\"\n        );\n\n        uint _reward;\n\n\n        if(isMasterNode()) {\n            _reward = calculateMasterReward();\n        } else if(isApproverNode()) {\n            _reward = nodeRewardsPool / (rewardsValidation.approvalCount + 1);\n        } else {\n            revert(\"Nothing to claim\");\n        }\n\n        require(_reward <= nodeRewardsBalance, \"Something went horribly wrong.\");\n        msg.sender.transfer(_reward);\n        nodeRewardsBalance -= _reward;\n        nodeRewardsClaimed[msg.sender] = true;\n        emit NodeClaimReward(msg.sender, _reward);\n    }\n\n    function calculateMasterReward() private view returns(uint) {\n        return nodeRewardsPool -\n                (nodeRewardsPool/(rewardsValidation.approvalCount + 1)) *\n                (rewardsValidation.approvalCount - 1);\n    }\n\n    function isApproverNode() public view returns(bool) {\n        if(rewardsValidation.votersRound[msg.sender] != rewardsValidationRound) {\n            return false;\n        }\n\n        for(uint i = 0; i < rewardsValidation.rejectors.length; i++) {\n            if(msg.sender == rewardsValidation.rejectors[i]) {\n                return false;\n            }\n        }\n\n        return true;\n    }\n\n    function nodeCanClaimReward() public view returns(bool) {\n        return (isMasterNode() || isApproverNode()) &&\n                nodeRewardsClaimed[msg.sender] == false &&\n                eventState == EventStates.Reward;\n    }\n\n    function claimFailed()\n        public\n        onlyParticipating\n        timedStateTransition\n        onlyState(EventStates.Failed)\n    {\n        require(\n            stakingAmount > 0 ||\n            (dispute.round > 0 && dispute.currentDisputer == msg.sender),\n            \"No stake to claim\"\n        );\n\n        uint amountToReturn = 0;\n\n        if (dispute.currentDisputer == msg.sender) {\n            amountToReturn += dispute.amount;\n        }\n\n        amountToReturn += stakingAmount;\n        VerityToken(tokenAddress).transfer(msg.sender, amountToReturn);\n        participants[msg.sender] = false;\n        emit ClaimStake(msg.sender);\n    }\n\n    function setDataFeedHash(string memory _hash) public onlyOwner {\n        dataFeedHash = _hash;\n    }\n\n    function setResults(bytes32[] memory _results)\n        public\n        onlyCurrentMaster\n        timedStateTransition\n        onlyState(EventStates.Running)\n    {\n        require(\n            validationState == ValidationState.WaitingForRewards,\n            \"Only before validation starts.\"\n        );\n\n        results = _results;\n    }\n\n    function getResults() public view returns(bytes32[] memory) {\n        return results;\n    }\n\n    function getState() public view returns(uint) {\n        return uint(eventState);\n    }\n\n    function getBalance() public view returns(uint[2] memory) {\n        return [\n            address(this).balance,\n            VerityToken(tokenAddress).balanceOf(address(this))\n        ];\n    }\n\n    function getEventCategory() public view returns(bytes32[2] memory) {\n        return eventCategory;\n    }\n\n    /// Returns an array of consensus rules.\n    /// [minTotalVotes, minConsensusVotes, minConsensusRatio, minParticipantRatio, maxParticipants]\n    function getConsensusRules() public view returns(uint[6] memory) {\n        return [\n            consensusRules.minTotalVotes,\n            consensusRules.minConsensusVotes,\n            consensusRules.minConsensusRatio,\n            consensusRules.minParticipantRatio,\n            consensusRules.maxParticipants,\n            uint(consensusRules.rewardsDistribution)\n        ];\n    }\n\n    /// Returns an array of dispute rules.\n    /// [dispute amount, dispute timeout, dispute round]\n    function getDisputeData() public view returns(uint[5] memory, address) {\n        return ([\n            dispute.amount,\n            dispute.timeout,\n            dispute.multiplier,\n            dispute.round,\n            dispute.expiresAt\n        ], dispute.currentDisputer);\n    }\n\n    function triggerStateChange() public timedStateTransition { }\n\n    function recoverLeftovers()\n        public\n        onlyOwner\n        timedStateTransition\n        onlyAfterLefroversCanBeRecovered\n    {\n        owner.transfer(address(this).balance);\n        nodeRewardsBalance = 0;\n        uint tokenBalance = VerityToken(tokenAddress).balanceOf(address(this));\n        VerityToken(tokenAddress).transfer(owner, tokenBalance);\n    }\n\n    /// Advances the event's state to the next one. Only for internal use.\n    function advanceState() private onlyChangeableState {\n        eventState = EventStates(uint(eventState) + 1);\n        emit StateTransition(eventState);\n    }\n\n    function markAsFailed(string memory description) private onlyChangeableState {\n        eventState = EventStates.Failed;\n        emit EventFailed(description);\n        emit StateTransition(eventState);\n    }\n\n    function increaseConsensusStrictness() internal {\n        /// Increases by ~10% of remaning difference to 100%\n        consensusRules.minConsensusRatio += (100 - consensusRules.minConsensusRatio) * 100 / 1000;\n\n        /// Increase min votes required by ~10%\n        uint votesIncrease = consensusRules.minTotalVotes * 100 / 1000;\n        consensusRules.minTotalVotes += votesIncrease;\n\n        /// Increase min consensus votes by min votes increase multiplied with consensus ratio\n        consensusRules.minConsensusVotes += votesIncrease * consensusRules.minConsensusRatio / 100;\n\n        /// Increase max participants by sum of increase amounts of total and consensus votes\n        consensusRules.maxParticipants += votesIncrease + (votesIncrease * consensusRules.minConsensusRatio / 100);\n    }\n\n    function getRequiredRoles() public view returns(uint[] memory) {\n        return requiredUserRoles;\n    }\n\n    function cancelEvent()\n        public\n        onlyOwner\n    {\n        require(\n            now < eventStartTime,\n            \"Event already started.\"\n        );\n\n        eventCanceled = true;\n        eventEndTime = now;\n        markAsFailed(\"Event canceled by creator.\");\n\n        // Return stakes to potentially joined users\n        if(stakingAmount > 0) {\n            for(uint i = 0; i < participantsIndex.length; ++i) {\n                VerityToken(tokenAddress).transfer(participantsIndex[i], stakingAmount);\n            }\n        }\n    }\n\n    function setState(EventStates _state) private {\n        eventState = _state;\n        emit StateTransition(eventState);\n    }\n}",
  "sourcePath": "/Users/hiphop/code/verity-event/contracts/verity_event/Implementation.sol",
  "compiler": {
    "name": "solc",
    "version": "0.5.7+commit.6da8b019.Emscripten.clang"
  },
  "schemaVersion": "3.0.1",
  "updatedAt": "2019-03-29T09:35:14.434Z",
  "devdoc": {
    "methods": {
      "isParticipating(address)": {
        "params": {
          "_user": "The addres to check for participation"
        },
        "return": "{bool} Whether the given address is a participant of this event"
      },
      "setRewards(address[],uint256[],uint256[])": {
        "params": {
          "_addresses": "A list of addresses",
          "_etherRewards": "A list of ether rewards, must be the exact same length as addresses",
          "_tokenRewards": "A list of token rewards, must be the exact same length as addresses"
        }
      }
    }
  },
  "userdoc": {
    "methods": {
      "approveRewards(uint256)": {
        "notice": "Called by event resolver nodes if they agree with rewards"
      },
      "claimReward()": {
        "notice": "Claim a reward. Needs to be called by the users themselves. Only available in the Reward state, after rewards have been received from the validation nodes."
      },
      "getConsensusRules()": {
        "notice": "Returns an array of consensus rules. [minTotalVotes, minConsensusVotes, minConsensusRatio, minParticipantRatio, maxParticipants]"
      },
      "getDisputeData()": {
        "notice": "Returns an array of dispute rules. [dispute amount, dispute timeout, dispute round]"
      },
      "getEventResolvers()": {
        "notice": "Returns the whole array of event resolvers."
      },
      "getReward()": {
        "notice": "Returns the calling user's assigned rewards. Can be 0. Only available to participating users in the Reward state, since rewards are not assigned before that."
      },
      "getRewards(address[])": {
        "notice": "Returns rewards for specified addresses. [[ethRewards, tokenRewards], [ethRewards, tokenRewards], ...]"
      },
      "getRewardsIndex()": {
        "notice": "Returns all the addresses that have rewards set."
      },
      "isMasterNode()": {
        "notice": "Checks if the address is current master node."
      },
      "isParticipating(address)": {
        "notice": "Checks whether an address is participating in this event."
      },
      "joinEvent()": {
        "notice": "Apply for participation in this event. Available only during the Application state. A transaction to this function has to be done by the users themselves, registering their wallet address as a participent. The transaction does not have to include any funds."
      },
      "markRewardsSet(string)": {
        "notice": "Triggered by the master node once rewards are set and ready to validate"
      },
      "rejectRewards(uint256,string)": {
        "notice": "Called by event resolvers if they don't agree with rewards"
      },
      "setRewards(address[],uint256[],uint256[])": {
        "notice": "Assign the actual rewards. Receives a list of addresses and a list rewards. Mapping between the two is done by the addresses' and reward's numerical index in the list, so order is important."
      },
      "triggerDispute()": {
        "notice": "Trigger a dispute."
      }
    }
  }
}