{
  "contractName": "NodeRegistry",
  "abi": [
    {
      "constant": true,
      "inputs": [
        {
          "name": "",
          "type": "address"
        }
      ],
      "name": "nodeWs",
      "outputs": [
        {
          "name": "",
          "type": "string"
        }
      ],
      "payable": false,
      "stateMutability": "view",
      "type": "function"
    },
    {
      "constant": true,
      "inputs": [
        {
          "name": "",
          "type": "address"
        }
      ],
      "name": "nodeIp",
      "outputs": [
        {
          "name": "",
          "type": "string"
        }
      ],
      "payable": false,
      "stateMutability": "view",
      "type": "function"
    },
    {
      "constant": false,
      "inputs": [
        {
          "name": "_ip",
          "type": "string"
        }
      ],
      "name": "registerNodeIp",
      "outputs": [],
      "payable": false,
      "stateMutability": "nonpayable",
      "type": "function"
    },
    {
      "constant": false,
      "inputs": [
        {
          "name": "_ws",
          "type": "string"
        }
      ],
      "name": "registerNodeWs",
      "outputs": [],
      "payable": false,
      "stateMutability": "nonpayable",
      "type": "function"
    },
    {
      "constant": false,
      "inputs": [
        {
          "name": "_ip",
          "type": "string"
        },
        {
          "name": "_ws",
          "type": "string"
        }
      ],
      "name": "registerNodeIpAndWs",
      "outputs": [],
      "payable": false,
      "stateMutability": "nonpayable",
      "type": "function"
    },
    {
      "constant": true,
      "inputs": [
        {
          "name": "_node",
          "type": "address"
        }
      ],
      "name": "getNodeIpAndWs",
      "outputs": [
        {
          "name": "",
          "type": "string"
        },
        {
          "name": "",
          "type": "string"
        }
      ],
      "payable": false,
      "stateMutability": "view",
      "type": "function"
    }
  ],
  "bytecode": "0x608060405234801561001057600080fd5b506108d0806100206000396000f3fe608060405260043610610071577c0100000000000000000000000000000000000000000000000000000000600035046337f199208114610076578063389204071461012b57806365df4831146102495780636cbb34ee146102fc578063d380190914610436578063f363f550146104eb575b600080fd5b34801561008257600080fd5b506101296004803603602081101561009957600080fd5b8101906020810181356401000000008111156100b457600080fd5b8201836020820111156100c657600080fd5b803590602001918460018302840111640100000000831117156100e857600080fd5b91908080601f01602080910402602001604051908101604052809392919081815260200183838082843760009201919091525092955061052b945050505050565b005b34801561013757600080fd5b5061016b6004803603602081101561014e57600080fd5b503573ffffffffffffffffffffffffffffffffffffffff1661054f565b604051808060200180602001838103835285818151815260200191508051906020019080838360005b838110156101ac578181015183820152602001610194565b50505050905090810190601f1680156101d95780820380516001836020036101000a031916815260200191505b50838103825284518152845160209182019186019080838360005b8381101561020c5781810151838201526020016101f4565b50505050905090810190601f1680156102395780820380516001836020036101000a031916815260200191505b5094505050505060405180910390f35b34801561025557600080fd5b506101296004803603602081101561026c57600080fd5b81019060208101813564010000000081111561028757600080fd5b82018360208201111561029957600080fd5b803590602001918460018302840111640100000000831117156102bb57600080fd5b91908080601f0160208091040260200160405190810160405280939291908181526020018383808284376000920191909152509295506106a6945050505050565b34801561030857600080fd5b506101296004803603604081101561031f57600080fd5b81019060208101813564010000000081111561033a57600080fd5b82018360208201111561034c57600080fd5b8035906020019184600183028401116401000000008311171561036e57600080fd5b91908080601f01602080910402602001604051908101604052809392919081815260200183838082843760009201919091525092959493602081019350359150506401000000008111156103c157600080fd5b8201836020820111156103d357600080fd5b803590602001918460018302840111640100000000831117156103f557600080fd5b91908080601f0160208091040260200160405190810160405280939291908181526020018383808284376000920191909152509295506106c4945050505050565b34801561044257600080fd5b506104766004803603602081101561045957600080fd5b503573ffffffffffffffffffffffffffffffffffffffff16610708565b6040805160208082528351818301528351919283929083019185019080838360005b838110156104b0578181015183820152602001610498565b50505050905090810190601f1680156104dd5780820380516001836020036101000a031916815260200191505b509250505060405180910390f35b3480156104f757600080fd5b506104766004803603602081101561050e57600080fd5b503573ffffffffffffffffffffffffffffffffffffffff166107a2565b336000908152600160209081526040909120825161054b92840190610809565b5050565b73ffffffffffffffffffffffffffffffffffffffff811660009081526020818152604080832060018084529382902081548351600296821615610100026000190190911695909504601f8101859004850286018501909352828552606094859492939192909184918301828280156106085780601f106105dd57610100808354040283529160200191610608565b820191906000526020600020905b8154815290600101906020018083116105eb57829003601f168201915b5050845460408051602060026001851615610100026000190190941693909304601f8101849004840282018401909252818152959750869450925084019050828280156106965780601f1061066b57610100808354040283529160200191610696565b820191906000526020600020905b81548152906001019060200180831161067957829003601f168201915b5050505050905091509150915091565b33600090815260208181526040909120825161054b92840190610809565b3360009081526020818152604090912083516106e292850190610809565b50336000908152600160209081526040909120825161070392840190610809565b505050565b60016020818152600092835260409283902080548451600294821615610100026000190190911693909304601f810183900483028401830190945283835291929083018282801561079a5780601f1061076f5761010080835404028352916020019161079a565b820191906000526020600020905b81548152906001019060200180831161077d57829003601f168201915b505050505081565b600060208181529181526040908190208054825160026001831615610100026000190190921691909104601f81018590048502820185019093528281529290919083018282801561079a5780601f1061076f5761010080835404028352916020019161079a565b828054600181600116156101000203166002900490600052602060002090601f016020900481019282601f1061084a57805160ff1916838001178555610877565b82800160010185558215610877579182015b8281111561087757825182559160200191906001019061085c565b50610883929150610887565b5090565b6108a191905b80821115610883576000815560010161088d565b9056fea165627a7a723058206f58557d7bc2cc31802d60bb875ecc2b675c029d7d2f4c4b46d2ac0616b506630029",
  "source": "pragma solidity ^0.5.0;\n\n\ncontract NodeRegistry {\n    mapping(address => string) public nodeIp;\n    mapping(address => string) public nodeWs;\n\n    function registerNodeIp(string memory _ip) public {\n        nodeIp[msg.sender] = _ip;\n    }\n\n    function registerNodeWs(string memory _ws) public {\n        nodeWs[msg.sender] = _ws;\n    }\n\n    function registerNodeIpAndWs(string memory _ip, string memory _ws) public {\n        nodeIp[msg.sender] = _ip;\n        nodeWs[msg.sender] = _ws;\n    }\n\n    function getNodeIpAndWs(address _node) public view returns(string memory, string memory) {\n        return (nodeIp[_node], nodeWs[_node]);\n    }\n}",
  "sourcePath": "/Users/dejan/dev/verity-event/contracts/NodeRegistry.sol",
  "compiler": {
    "name": "solc",
    "version": "0.5.1+commit.c8a2cb62.Emscripten.clang"
  },
  "schemaVersion": "3.0.0",
  "updatedAt": "2018-12-20T07:23:24.323Z",
  "devdoc": {
    "methods": {}
  },
  "userdoc": {
    "methods": {}
  }
}