{
  "contractName": "NodeRegistry",
  "abi": [
    {
      "constant": true,
      "inputs": [],
      "name": "creationBlock",
      "outputs": [
        {
          "name": "",
          "type": "uint256"
        }
      ],
      "payable": false,
      "stateMutability": "view",
      "type": "function"
    },
    {
      "constant": true,
      "inputs": [],
      "name": "isApproved",
      "outputs": [
        {
          "name": "",
          "type": "bool"
        }
      ],
      "payable": false,
      "stateMutability": "view",
      "type": "function"
    },
    {
      "constant": false,
      "inputs": [
        {
          "name": "_address",
          "type": "address"
        }
      ],
      "name": "revokeApproval",
      "outputs": [],
      "payable": false,
      "stateMutability": "nonpayable",
      "type": "function"
    },
    {
      "constant": true,
      "inputs": [
        {
          "name": "",
          "type": "address"
        }
      ],
      "name": "nodeCountLimit",
      "outputs": [
        {
          "name": "",
          "type": "uint256"
        }
      ],
      "payable": false,
      "stateMutability": "view",
      "type": "function"
    },
    {
      "constant": true,
      "inputs": [],
      "name": "owner",
      "outputs": [
        {
          "name": "",
          "type": "address"
        }
      ],
      "payable": false,
      "stateMutability": "view",
      "type": "function"
    },
    {
      "constant": true,
      "inputs": [],
      "name": "isOwner",
      "outputs": [
        {
          "name": "",
          "type": "bool"
        }
      ],
      "payable": false,
      "stateMutability": "view",
      "type": "function"
    },
    {
      "constant": true,
      "inputs": [
        {
          "name": "",
          "type": "address"
        }
      ],
      "name": "nodeWs",
      "outputs": [
        {
          "name": "",
          "type": "string"
        }
      ],
      "payable": false,
      "stateMutability": "view",
      "type": "function"
    },
    {
      "constant": true,
      "inputs": [],
      "name": "creationTime",
      "outputs": [
        {
          "name": "",
          "type": "uint256"
        }
      ],
      "payable": false,
      "stateMutability": "view",
      "type": "function"
    },
    {
      "constant": false,
      "inputs": [
        {
          "name": "newOwner",
          "type": "address"
        }
      ],
      "name": "transferOwnership",
      "outputs": [],
      "payable": false,
      "stateMutability": "nonpayable",
      "type": "function"
    },
    {
      "constant": true,
      "inputs": [
        {
          "name": "",
          "type": "address"
        }
      ],
      "name": "nodeIp",
      "outputs": [
        {
          "name": "",
          "type": "string"
        }
      ],
      "payable": false,
      "stateMutability": "view",
      "type": "function"
    },
    {
      "constant": false,
      "inputs": [
        {
          "name": "_address",
          "type": "address"
        }
      ],
      "name": "approveAddress",
      "outputs": [],
      "payable": false,
      "stateMutability": "nonpayable",
      "type": "function"
    },
    {
      "anonymous": false,
      "inputs": [
        {
          "indexed": true,
          "name": "previousOwner",
          "type": "address"
        },
        {
          "indexed": true,
          "name": "newOwner",
          "type": "address"
        }
      ],
      "name": "OwnershipTransferred",
      "type": "event"
    },
    {
      "constant": false,
      "inputs": [
        {
          "name": "_nodeAddresses",
          "type": "address[]"
        }
      ],
      "name": "registerNodes",
      "outputs": [],
      "payable": false,
      "stateMutability": "nonpayable",
      "type": "function"
    },
    {
      "constant": false,
      "inputs": [
        {
          "name": "_nodeAddresses",
          "type": "address[]"
        }
      ],
      "name": "deregisterNodes",
      "outputs": [],
      "payable": false,
      "stateMutability": "nonpayable",
      "type": "function"
    },
    {
      "constant": true,
      "inputs": [],
      "name": "getAvailableNodes",
      "outputs": [
        {
          "name": "",
          "type": "address[]"
        }
      ],
      "payable": false,
      "stateMutability": "view",
      "type": "function"
    },
    {
      "constant": true,
      "inputs": [
        {
          "name": "_user",
          "type": "address"
        }
      ],
      "name": "getUserNodes",
      "outputs": [
        {
          "name": "",
          "type": "address[]"
        }
      ],
      "payable": false,
      "stateMutability": "view",
      "type": "function"
    },
    {
      "constant": false,
      "inputs": [
        {
          "name": "_users",
          "type": "address[]"
        },
        {
          "name": "_limits",
          "type": "uint256[]"
        }
      ],
      "name": "setNodeLimits",
      "outputs": [],
      "payable": false,
      "stateMutability": "nonpayable",
      "type": "function"
    },
    {
      "constant": false,
      "inputs": [
        {
          "name": "_ip",
          "type": "string"
        }
      ],
      "name": "registerNodeIp",
      "outputs": [],
      "payable": false,
      "stateMutability": "nonpayable",
      "type": "function"
    },
    {
      "constant": false,
      "inputs": [
        {
          "name": "_ws",
          "type": "string"
        }
      ],
      "name": "registerNodeWs",
      "outputs": [],
      "payable": false,
      "stateMutability": "nonpayable",
      "type": "function"
    },
    {
      "constant": false,
      "inputs": [
        {
          "name": "_ip",
          "type": "string"
        },
        {
          "name": "_ws",
          "type": "string"
        }
      ],
      "name": "registerNodeIpAndWs",
      "outputs": [],
      "payable": false,
      "stateMutability": "nonpayable",
      "type": "function"
    },
    {
      "constant": true,
      "inputs": [
        {
          "name": "_node",
          "type": "address"
        }
      ],
      "name": "getNodeIpAndWs",
      "outputs": [
        {
          "name": "",
          "type": "string"
        },
        {
          "name": "",
          "type": "string"
        }
      ],
      "payable": false,
      "stateMutability": "view",
      "type": "function"
    }
  ],
  "bytecode": "0x608060408190524360009081554260015560028054600160a060020a031916331790819055600160a060020a0316917f8be0079c531659141344cd1fd0a4f28419497f9722a3daafe3b4186f6b6457e0908290a36115c2806100626000396000f3fe608060405234801561001057600080fd5b5060043610610149576000357c0100000000000000000000000000000000000000000000000000000000900480636bbd3fa5116100ca578063d38019091161008e578063d380190914610866578063d8270dce14610901578063f2fde38b14610909578063f363f5501461092f578063fabf657a1461095557610149565b80636bbd3fa5146105c75780636cbb34ee1461066a57806386357942146107975780638da5cb5b1461083a5780638f32d59b1461085e57610149565b8063389204071161011157806338920407146103c9578063436a014a146104cd578063484685b0146104d557806351c6e21a146104fb57806365df48311461052157610149565b8063062c0e761461014e57806317634514146102775780632130fe231461029157806328f371aa1461030757806337f1992014610323575b600080fd5b6102756004803603604081101561016457600080fd5b81019060208101813564010000000081111561017f57600080fd5b82018360208201111561019157600080fd5b803590602001918460208302840111640100000000831117156101b357600080fd5b919080806020026020016040519081016040528093929190818152602001838360200280828437600092019190915250929594936020810193503591505064010000000081111561020357600080fd5b82018360208201111561021557600080fd5b8035906020019184602083028401116401000000008311171561023757600080fd5b91908080602002602001604051908101604052809392919081815260200183836020028082843760009201919091525092955061097b945050505050565b005b61027f610a38565b60408051918252519081900360200190f35b6102b7600480360360208110156102a757600080fd5b5035600160a060020a0316610a3e565b60408051602080825283518183015283519192839290830191858101910280838360005b838110156102f35781810151838201526020016102db565b505050509050019250505060405180910390f35b61030f610ab4565b604080519115158252519081900360200190f35b6102756004803603602081101561033957600080fd5b81019060208101813564010000000081111561035457600080fd5b82018360208201111561036657600080fd5b8035906020019184600183028401116401000000008311171561038857600080fd5b91908080601f016020809104026020016040519081016040528093929190818152602001838380828437600092019190915250929550610adb945050505050565b6103ef600480360360208110156103df57600080fd5b5035600160a060020a0316610b53565b604051808060200180602001838103835285818151815260200191508051906020019080838360005b83811015610430578181015183820152602001610418565b50505050905090810190601f16801561045d5780820380516001836020036101000a031916815260200191505b50838103825284518152845160209182019186019080838360005b83811015610490578181015183820152602001610478565b50505050905090810190601f1680156104bd5780820380516001836020036101000a031916815260200191505b5094505050505060405180910390f35b6102b7610c9b565b610275600480360360208110156104eb57600080fd5b5035600160a060020a0316610d00565b61027f6004803603602081101561051157600080fd5b5035600160a060020a0316610d34565b6102756004803603602081101561053757600080fd5b81019060208101813564010000000081111561055257600080fd5b82018360208201111561056457600080fd5b8035906020019184600183028401116401000000008311171561058657600080fd5b91908080601f016020809104026020016040519081016040528093929190818152602001838380828437600092019190915250929550610d46945050505050565b610275600480360360208110156105dd57600080fd5b8101906020810181356401000000008111156105f857600080fd5b82018360208201111561060a57600080fd5b8035906020019184602083028401116401000000008311171561062c57600080fd5b919080806020026020016040519081016040528093929190818152602001838360200280828437600092019190915250929550610dba945050505050565b6102756004803603604081101561068057600080fd5b81019060208101813564010000000081111561069b57600080fd5b8201836020820111156106ad57600080fd5b803590602001918460018302840111640100000000831117156106cf57600080fd5b91908080601f016020809104026020016040519081016040528093929190818152602001838380828437600092019190915250929594936020810193503591505064010000000081111561072257600080fd5b82018360208201111561073457600080fd5b8035906020019184600183028401116401000000008311171561075657600080fd5b91908080601f016020809104026020016040519081016040528093929190818152602001838380828437600092019190915250929550610ead945050505050565b610275600480360360208110156107ad57600080fd5b8101906020810181356401000000008111156107c857600080fd5b8201836020820111156107da57600080fd5b803590602001918460208302840111640100000000831117156107fc57600080fd5b919080806020026020016040519081016040528093929190818152602001838360200280828437600092019190915250929550610f42945050505050565b610842610f76565b60408051600160a060020a039092168252519081900360200190f35b61030f610f85565b61088c6004803603602081101561087c57600080fd5b5035600160a060020a0316610f96565b6040805160208082528351818301528351919283929083019185019080838360005b838110156108c65781810151838201526020016108ae565b50505050905090810190601f1680156108f35780820380516001836020036101000a031916815260200191505b509250505060405180910390f35b61027f611031565b6102756004803603602081101561091f57600080fd5b5035600160a060020a0316611037565b61088c6004803603602081101561094557600080fd5b5035600160a060020a0316611056565b6102756004803603602081101561096b57600080fd5b5035600160a060020a03166110be565b610983610ab4565b151561098e57600080fd5b80518251146109e7576040805160e560020a62461bcd02815260206004820152601060248201527f4c656e677468206d69736d617463682e00000000000000000000000000000000604482015290519081900360640190fd5b60005b8251811015610a3357610a2b8382815181101515610a0457fe5b906020019060200201518383815181101515610a1c57fe5b906020019060200201516110f5565b6001016109ea565b505050565b60005481565b600160a060020a038116600090815260076020908152604091829020805483518184028101840190945280845260609392830182828015610aa857602002820191906000526020600020905b8154600160a060020a03168152600190910190602001808311610a8a575b50505050509050919050565b3360009081526003602052604081205460ff1680610ad55750610ad5610f85565b90505b90565b336000908152600960205260409020541515610b2f576040805160e560020a62461bcd028152602060048201526014602482015260008051602061154f833981519152604482015290519081900360640190fd5b3360009081526005602090815260409091208251610b4f92840190611476565b5050565b600160a060020a038116600090815260046020908152604080832060058352928190208354825160026001831615610100026000190190921691909104601f8101859004850282018501909352828152606094859490938491830182828015610bfd5780601f10610bd257610100808354040283529160200191610bfd565b820191906000526020600020905b815481529060010190602001808311610be057829003601f168201915b5050845460408051602060026001851615610100026000190190941693909304601f810184900484028201840190925281815295975086945092508401905082828015610c8b5780601f10610c6057610100808354040283529160200191610c8b565b820191906000526020600020905b815481529060010190602001808311610c6e57829003601f168201915b5050505050905091509150915091565b60606008600001805480602002602001604051908101604052809291908181526020018280548015610cf657602002820191906000526020600020905b8154600160a060020a03168152600190910190602001808311610cd8575b5050505050905090565b610d08610f85565b1515610d1357600080fd5b600160a060020a03166000908152600360205260409020805460ff19169055565b60066020526000908152604090205481565b336000908152600960205260409020541515610d9a576040805160e560020a62461bcd028152602060048201526014602482015260008051602061154f833981519152604482015290519081900360640190fd5b3360009081526004602090815260409091208251610b4f92840190611476565b336000908152600760209081526040808320845181546006909452919093205491011115610e32576040805160e560020a62461bcd02815260206004820152600f60248201527f4f76657220746865206c696d69742e0000000000000000000000000000000000604482015290519081900360640190fd5b60005b8251811015610a33578160010160008483815181101515610e5257fe5b90602001906020020151600160a060020a0316600160a060020a031681526020019081526020016000205460001415610ea557610ea58382815181101515610e9657fe5b9060200190602002015161111a565b600101610e35565b336000908152600960205260409020541515610f01576040805160e560020a62461bcd028152602060048201526014602482015260008051602061154f833981519152604482015290519081900360640190fd5b3360009081526004602090815260409091208351610f2192850190611476565b503360009081526005602090815260409091208251610a3392840190611476565b60005b8151811015610b4f57610f6e8282815181101515610f5f57fe5b90602001906020020151611219565b600101610f45565b600254600160a060020a031690565b600254600160a060020a0316331490565b60056020908152600091825260409182902080548351601f6002600019610100600186161502019093169290920491820184900484028101840190945280845290918301828280156110295780601f10610ffe57610100808354040283529160200191611029565b820191906000526020600020905b81548152906001019060200180831161100c57829003601f168201915b505050505081565b60015481565b61103f610f85565b151561104a57600080fd5b611053816112dd565b50565b60046020908152600091825260409182902080548351601f6002600019610100600186161502019093169290920491820184900484028101840190945280845290918301828280156110295780601f10610ffe57610100808354040283529160200191611029565b6110c6610f85565b15156110d157600080fd5b600160a060020a03166000908152600360205260409020805460ff19166001179055565b600160a060020a0382166000908152600660205260409020819055610b4f828261135b565b336000908152600760209081526040808320600160a060020a0385168452600990925290912054156111805760405160e560020a62461bcd02815260040180806020018281038252602881526020018061156f6028913960400191505060405180910390fd5b805460018181018355600083815260208082209093018054600160a060020a0390961673ffffffffffffffffffffffffffffffffffffffff199687168117909155845481835294830184526040808320959095556008805493840181557ff3f7a9fe364faab93b216da50a3214154f22a0a2b415b23a84c8169e8b636ee390930180549096168117909555905493815260099091522055565b336000908152600760209081526040808320600160a060020a038516845260018101909252909120541515611286576040805160e560020a62461bcd028152602060048201526014602482015260008051602061154f833981519152604482015290519081900360640190fd5b611290818361137f565b61129b60088361137f565b600160a060020a03821660009081526004602052604081206112bc916114f4565b600160a060020a0382166000908152600560205260408120610b4f916114f4565b600160a060020a03811615156112f257600080fd5b600254604051600160a060020a038084169216907f8be0079c531659141344cd1fd0a4f28419497f9722a3daafe3b4186f6b6457e090600090a36002805473ffffffffffffffffffffffffffffffffffffffff1916600160a060020a0392909216919091179055565b600160a060020a0382166000908152600660205260409020548110610b4f57610b4f565b600160a060020a038116600090815260018301602052604081205483546000199182019291810191908590839081106113b457fe5b6000918252602090912001548554600160a060020a03909116915081908690859081106113dd57fe5b6000918252602080832091909101805473ffffffffffffffffffffffffffffffffffffffff1916600160a060020a039485161790558383168252600188810190915260408083209187019091559186168152908120558454859080151561144057fe5b6000828152602090208101600019908101805473ffffffffffffffffffffffffffffffffffffffff191690550190555050505050565b828054600181600116156101000203166002900490600052602060002090601f016020900481019282601f106114b757805160ff19168380011785556114e4565b828001600101855582156114e4579182015b828111156114e45782518255916020019190600101906114c9565b506114f0929150611534565b5090565b50805460018160011615610100020316600290046000825580601f1061151a5750611053565b601f01602090049060005260206000209081019061105391905b610ad891905b808211156114f0576000815560010161153a56fe4e6f6465206e6f7420726567697374657265642e0000000000000000000000004e6f646520616c7265616479207265676973746572656420627920616e6f7468657220757365722ea165627a7a723058205934d1d0d6cf4e86eb085335c2d9f5ca229e6cf649fbfbed6e86401936aa84ef0029",
  "source": "pragma solidity ^0.5.5;\n\n\nimport \"./utility/Approvable.sol\";\nimport \"./utility/StoringCreationMeta.sol\";\n\n\ncontract NodeRegistry is StoringCreationMeta, Approvable {\n    mapping(address => string) public nodeIp;\n    mapping(address => string) public nodeWs;\n\n    mapping(address => uint) public nodeCountLimit;\n\n    struct NodeList {\n        address[] items;\n        mapping(address => uint) position;\n    }\n    mapping(address => NodeList) userNodes;\n    NodeList availableNodes;\n\n    modifier onlyRegisteredNode() {\n        require(\n            availableNodes.position[msg.sender] > 0,\n            \"Node not registered.\"\n        );\n        _;\n    }\n\n    function registerNodes(address[] memory _nodeAddresses) public {\n        NodeList storage _nodes = userNodes[msg.sender];\n\n        require(\n            nodeCountLimit[msg.sender] >=\n            _nodes.items.length + _nodeAddresses.length,\n            \"Over the limit.\"\n        );\n\n        for(uint i = 0; i < _nodeAddresses.length; i++) {\n            // If it doesn't exist already\n            if(_nodes.position[_nodeAddresses[i]] == 0) {\n                registerNode(_nodeAddresses[i]);\n            }\n        }\n    }\n\n    function deregisterNodes(address[] memory _nodeAddresses) public {\n        for(uint i = 0; i < _nodeAddresses.length; i++) {\n            deregisterNode(_nodeAddresses[i]);\n        }\n    }\n\n    function deregisterNode(address _nodeAddress) private {\n        NodeList storage _nodes = userNodes[msg.sender];\n\n        if(_nodes.position[_nodeAddress] == 0) {\n            revert(\"Node not registered.\");\n        }\n\n        removeFromList(_nodes, _nodeAddress);\n        removeFromList(availableNodes, _nodeAddress);\n\n        delete nodeIp[_nodeAddress];\n        delete nodeWs[_nodeAddress];\n    }\n\n    function removeFromList(NodeList storage _nodes, address _item) private {\n        uint nIndex = _nodes.position[_item] - 1;\n        uint lastIndex = _nodes.items.length - 1;\n        address lastItem = _nodes.items[lastIndex];\n\n        _nodes.items[nIndex] = lastItem;\n        _nodes.position[lastItem] = nIndex + 1;\n        _nodes.position[_item] = 0;\n\n        _nodes.items.pop();\n    }\n\n    function registerNode(address _nodeAddress) private {\n        NodeList storage _nodes = userNodes[msg.sender];\n\n        if(availableNodes.position[_nodeAddress] != 0) {\n            revert(\"Node already registered by another user.\");\n        }\n\n        // Save to user nodes\n        _nodes.items.push(_nodeAddress);\n        _nodes.position[_nodeAddress] = _nodes.items.length;\n\n        // Save to global nodes\n        availableNodes.items.push(_nodeAddress);\n        availableNodes.position[_nodeAddress] = availableNodes.items.length;\n    }\n\n    function getAvailableNodes() public view returns(address[] memory) {\n        return availableNodes.items;\n    }\n\n    function getUserNodes(address _user) public view returns(address[] memory) {\n        return userNodes[_user].items;\n    }\n\n    function setNodeLimits(address[] memory _users, uint[] memory _limits) public onlyApproved {\n        require(_users.length == _limits.length, \"Length mismatch.\");\n\n        for(uint i = 0; i < _users.length; ++i) {\n            _setNodeLimit(_users[i], _limits[i]);\n        }\n    }\n\n    function _setNodeLimit(address _user, uint _limit) private {\n        nodeCountLimit[_user] = _limit;\n\n        _pruneUserNodes(_user, _limit);\n    }\n\n    function _pruneUserNodes(address _user, uint _limit) private view {\n        if (_limit >= nodeCountLimit[_user]) {\n            return;\n        }\n    }\n\n    function registerNodeIp(string memory _ip) public onlyRegisteredNode {\n        nodeIp[msg.sender] = _ip;\n    }\n\n    function registerNodeWs(string memory _ws) public onlyRegisteredNode {\n        nodeWs[msg.sender] = _ws;\n    }\n\n    function registerNodeIpAndWs(string memory _ip, string memory _ws) public onlyRegisteredNode {\n        nodeIp[msg.sender] = _ip;\n        nodeWs[msg.sender] = _ws;\n    }\n\n    function getNodeIpAndWs(address _node) public view returns(string memory, string memory) {\n        return (nodeIp[_node], nodeWs[_node]);\n    }\n}",
  "sourcePath": "/Users/hiphop/code/verity-event/contracts/NodeRegistry.sol",
  "compiler": {
    "name": "solc",
    "version": "0.5.5+commit.47a71e8f.Emscripten.clang"
  },
  "schemaVersion": "3.0.1",
  "updatedAt": "2019-03-11T12:12:41.918Z",
  "devdoc": {
    "methods": {
      "isOwner()": {
        "return": "true if `msg.sender` is the owner of the contract."
      },
      "owner()": {
        "return": "the address of the owner."
      },
      "transferOwnership(address)": {
        "details": "Allows the current owner to transfer control of the contract to a newOwner.",
        "params": {
          "newOwner": "The address to transfer ownership to."
        }
      }
    }
  },
  "userdoc": {
    "methods": {}
  }
}