{
  "contractName": "NodeRegistry",
  "abi": [
    {
      "constant": true,
      "inputs": [
        {
          "name": "",
          "type": "address"
        }
      ],
      "name": "nodeWs",
      "outputs": [
        {
          "name": "",
          "type": "string"
        }
      ],
      "payable": false,
      "stateMutability": "view",
      "type": "function"
    },
    {
      "constant": true,
      "inputs": [
        {
          "name": "",
          "type": "address"
        }
      ],
      "name": "nodeIp",
      "outputs": [
        {
          "name": "",
          "type": "string"
        }
      ],
      "payable": false,
      "stateMutability": "view",
      "type": "function"
    },
    {
      "constant": false,
      "inputs": [
        {
          "name": "_ip",
          "type": "string"
        }
      ],
      "name": "registerNodeIp",
      "outputs": [],
      "payable": false,
      "stateMutability": "nonpayable",
      "type": "function"
    },
    {
      "constant": false,
      "inputs": [
        {
          "name": "_ws",
          "type": "string"
        }
      ],
      "name": "registerNodeWs",
      "outputs": [],
      "payable": false,
      "stateMutability": "nonpayable",
      "type": "function"
    }
  ],
  "bytecode": "0x608060405234801561001057600080fd5b506103f5806100206000396000f3006080604052600436106100615763ffffffff7c010000000000000000000000000000000000000000000000000000000060003504166337f19920811461006657806365df4831146100c1578063d38019091461011a578063f363f550146101bd575b600080fd5b34801561007257600080fd5b506040805160206004803580820135601f81018490048402850184019095528484526100bf9436949293602493928401919081908401838280828437509497506101eb9650505050505050565b005b3480156100cd57600080fd5b506040805160206004803580820135601f81018490048402850184019095528484526100bf94369492936024939284019190819084018382808284375094975061020f9650505050505050565b34801561012657600080fd5b5061014873ffffffffffffffffffffffffffffffffffffffff6004351661022d565b6040805160208082528351818301528351919283929083019185019080838360005b8381101561018257818101518382015260200161016a565b50505050905090810190601f1680156101af5780820380516001836020036101000a031916815260200191505b509250505060405180910390f35b3480156101c957600080fd5b5061014873ffffffffffffffffffffffffffffffffffffffff600435166102c7565b336000908152600160209081526040909120825161020b9284019061032e565b5050565b33600090815260208181526040909120825161020b9284019061032e565b60016020818152600092835260409283902080548451600294821615610100026000190190911693909304601f81018390048302840183019094528383529192908301828280156102bf5780601f10610294576101008083540402835291602001916102bf565b820191906000526020600020905b8154815290600101906020018083116102a257829003601f168201915b505050505081565b600060208181529181526040908190208054825160026001831615610100026000190190921691909104601f8101859004850282018501909352828152929091908301828280156102bf5780601f10610294576101008083540402835291602001916102bf565b828054600181600116156101000203166002900490600052602060002090601f016020900481019282601f1061036f57805160ff191683800117855561039c565b8280016001018555821561039c579182015b8281111561039c578251825591602001919060010190610381565b506103a89291506103ac565b5090565b6103c691905b808211156103a857600081556001016103b2565b905600a165627a7a723058204536595db5b7533ac0800f45530357fc78951cdaca4b6630f817eda6bd459b2f0029",
  "source": "pragma solidity 0.4.24;\n\n\ncontract NodeRegistry {\n    mapping(address => string) public nodeIp;\n    mapping(address => string) public nodeWs;\n\n    function registerNodeIp(string _ip) public {\n        nodeIp[msg.sender] = _ip;\n    }\n\n    function registerNodeWs(string _ws) public {\n        nodeWs[msg.sender] = _ws;\n    }\n}",
  "sourcePath": "/Users/dejan/dev/verity-event/contracts/NodeRegistry.sol",
  "compiler": {
    "name": "solc",
    "version": "0.4.24+commit.e67f0147.Emscripten.clang"
  },
  "schemaVersion": "2.0.1",
  "updatedAt": "2018-11-29T08:21:58.184Z"
}