{
  "contractName": "NodeRegistry",
  "abi": [
    {
      "constant": true,
      "inputs": [
        {
          "name": "",
          "type": "address"
        }
      ],
      "name": "nodeIp",
      "outputs": [
        {
          "name": "",
          "type": "string"
        }
      ],
      "payable": false,
      "stateMutability": "view",
      "type": "function"
    },
    {
      "constant": false,
      "inputs": [
        {
          "name": "_ip",
          "type": "string"
        }
      ],
      "name": "registerNodeIp",
      "outputs": [],
      "payable": false,
      "stateMutability": "nonpayable",
      "type": "function"
    }
  ],
  "bytecode": "0x608060405234801561001057600080fd5b506102d1806100206000396000f30060806040526004361061004b5763ffffffff7c010000000000000000000000000000000000000000000000000000000060003504166365df48318114610050578063f363f550146100ab575b600080fd5b34801561005c57600080fd5b506040805160206004803580820135601f81018490048402850184019095528484526100a994369492936024939284019190819084018382808284375094975061014e9650505050505050565b005b3480156100b757600080fd5b506100d973ffffffffffffffffffffffffffffffffffffffff60043516610170565b6040805160208082528351818301528351919283929083019185019080838360005b838110156101135781810151838201526020016100fb565b50505050905090810190601f1680156101405780820380516001836020036101000a031916815260200191505b509250505060405180910390f35b33600090815260208181526040909120825161016c9284019061020a565b5050565b600060208181529181526040908190208054825160026001831615610100026000190190921691909104601f8101859004850282018501909352828152929091908301828280156102025780601f106101d757610100808354040283529160200191610202565b820191906000526020600020905b8154815290600101906020018083116101e557829003601f168201915b505050505081565b828054600181600116156101000203166002900490600052602060002090601f016020900481019282601f1061024b57805160ff1916838001178555610278565b82800160010185558215610278579182015b8281111561027857825182559160200191906001019061025d565b50610284929150610288565b5090565b6102a291905b80821115610284576000815560010161028e565b905600a165627a7a7230582066c4943ac29d277d0d9c672b90e61c34a917658bb7e8f22e78138f62abdd47bf0029",
  "source": "pragma solidity 0.4.24;\n\n\ncontract NodeRegistry {\n    mapping(address => string) public nodeIp;\n\n    function registerNodeIp(string _ip) public {\n        nodeIp[msg.sender] = _ip;\n    }\n}",
  "sourcePath": "/Users/hiphop/code/verity-event/contracts/NodeRegistry.sol",
  "compiler": {
    "name": "solc",
    "version": "0.4.24+commit.e67f0147.Emscripten.clang"
  },
  "schemaVersion": "2.0.1",
  "updatedAt": "2018-10-04T12:37:29.195Z"
}