{
  "contractName": "UserRoles",
  "abi": [
    {
      "constant": true,
      "inputs": [],
      "name": "creationBlock",
      "outputs": [
        {
          "name": "",
          "type": "uint256"
        }
      ],
      "payable": false,
      "stateMutability": "view",
      "type": "function"
    },
    {
      "constant": true,
      "inputs": [],
      "name": "isApproved",
      "outputs": [
        {
          "name": "",
          "type": "bool"
        }
      ],
      "payable": false,
      "stateMutability": "view",
      "type": "function"
    },
    {
      "constant": false,
      "inputs": [
        {
          "name": "_address",
          "type": "address"
        }
      ],
      "name": "revokeApproval",
      "outputs": [],
      "payable": false,
      "stateMutability": "nonpayable",
      "type": "function"
    },
    {
      "constant": true,
      "inputs": [],
      "name": "owner",
      "outputs": [
        {
          "name": "",
          "type": "address"
        }
      ],
      "payable": false,
      "stateMutability": "view",
      "type": "function"
    },
    {
      "constant": true,
      "inputs": [],
      "name": "isOwner",
      "outputs": [
        {
          "name": "",
          "type": "bool"
        }
      ],
      "payable": false,
      "stateMutability": "view",
      "type": "function"
    },
    {
      "constant": true,
      "inputs": [],
      "name": "creationTime",
      "outputs": [
        {
          "name": "",
          "type": "uint256"
        }
      ],
      "payable": false,
      "stateMutability": "view",
      "type": "function"
    },
    {
      "constant": false,
      "inputs": [
        {
          "name": "newOwner",
          "type": "address"
        }
      ],
      "name": "transferOwnership",
      "outputs": [],
      "payable": false,
      "stateMutability": "nonpayable",
      "type": "function"
    },
    {
      "constant": false,
      "inputs": [
        {
          "name": "_address",
          "type": "address"
        }
      ],
      "name": "approveAddress",
      "outputs": [],
      "payable": false,
      "stateMutability": "nonpayable",
      "type": "function"
    },
    {
      "anonymous": false,
      "inputs": [
        {
          "indexed": true,
          "name": "user",
          "type": "address"
        },
        {
          "indexed": false,
          "name": "roles",
          "type": "uint256[]"
        }
      ],
      "name": "RolesChanged",
      "type": "event"
    },
    {
      "anonymous": false,
      "inputs": [
        {
          "indexed": true,
          "name": "previousOwner",
          "type": "address"
        },
        {
          "indexed": true,
          "name": "newOwner",
          "type": "address"
        }
      ],
      "name": "OwnershipTransferred",
      "type": "event"
    },
    {
      "constant": false,
      "inputs": [
        {
          "name": "_user",
          "type": "address"
        },
        {
          "name": "_role",
          "type": "uint256"
        }
      ],
      "name": "setRole",
      "outputs": [],
      "payable": false,
      "stateMutability": "nonpayable",
      "type": "function"
    },
    {
      "constant": false,
      "inputs": [
        {
          "name": "_user",
          "type": "address"
        },
        {
          "name": "_roles",
          "type": "uint256[]"
        }
      ],
      "name": "setRoles",
      "outputs": [],
      "payable": false,
      "stateMutability": "nonpayable",
      "type": "function"
    },
    {
      "constant": false,
      "inputs": [
        {
          "name": "_users",
          "type": "address[]"
        },
        {
          "name": "_role",
          "type": "uint256"
        }
      ],
      "name": "setRoleForUsers",
      "outputs": [],
      "payable": false,
      "stateMutability": "nonpayable",
      "type": "function"
    },
    {
      "constant": false,
      "inputs": [
        {
          "name": "_user",
          "type": "address"
        },
        {
          "name": "_role",
          "type": "uint256"
        }
      ],
      "name": "removeRole",
      "outputs": [],
      "payable": false,
      "stateMutability": "nonpayable",
      "type": "function"
    },
    {
      "constant": false,
      "inputs": [
        {
          "name": "_user",
          "type": "address"
        },
        {
          "name": "_roles",
          "type": "uint256[]"
        }
      ],
      "name": "removeRoles",
      "outputs": [],
      "payable": false,
      "stateMutability": "nonpayable",
      "type": "function"
    },
    {
      "constant": true,
      "inputs": [
        {
          "name": "_user",
          "type": "address"
        },
        {
          "name": "_role",
          "type": "uint256"
        }
      ],
      "name": "hasRole",
      "outputs": [
        {
          "name": "",
          "type": "bool"
        }
      ],
      "payable": false,
      "stateMutability": "view",
      "type": "function"
    },
    {
      "constant": true,
      "inputs": [
        {
          "name": "_user",
          "type": "address"
        },
        {
          "name": "_roles",
          "type": "uint256[]"
        }
      ],
      "name": "hasAnyRole",
      "outputs": [
        {
          "name": "",
          "type": "bool"
        }
      ],
      "payable": false,
      "stateMutability": "view",
      "type": "function"
    },
    {
      "constant": true,
      "inputs": [
        {
          "name": "_user",
          "type": "address"
        }
      ],
      "name": "getUserRoles",
      "outputs": [
        {
          "name": "",
          "type": "uint256[]"
        }
      ],
      "payable": false,
      "stateMutability": "view",
      "type": "function"
    },
    {
      "constant": false,
      "inputs": [
        {
          "name": "_user",
          "type": "address"
        }
      ],
      "name": "clearUserRoles",
      "outputs": [],
      "payable": false,
      "stateMutability": "nonpayable",
      "type": "function"
    }
  ],
  "bytecode": "0x608060408190524360009081554260015560028054600160a060020a031916331790819055600160a060020a0316917f8be0079c531659141344cd1fd0a4f28419497f9722a3daafe3b4186f6b6457e0908290a3610db0806100626000396000f3fe608060405234801561001057600080fd5b5060043610610128576000357c01000000000000000000000000000000000000000000000000000000009004806374277a63116100bf5780638f32d59b1161008e5780638f32d59b146104da5780639a7c3c43146104e2578063d8270dce14610595578063f2fde38b1461059d578063fabf657a146105c357610128565b806374277a631461043857806379db5f67146104645780637f6421b9146104905780638da5cb5b146104b657610128565b80632acc17d7116100fb5780632acc17d71461028e57806335fe903414610333578063484685b0146103e65780635c97f4a21461040c57610128565b8063047bc24b1461012d57806306a36aee146101e2578063176345141461025857806328f371aa14610272575b600080fd5b6101e06004803603604081101561014357600080fd5b600160a060020a03823516919081019060408101602082013564010000000081111561016e57600080fd5b82018360208201111561018057600080fd5b803590602001918460208302840111640100000000831117156101a257600080fd5b9190808060200260200160405190810160405280939291908181526020018383602002808284376000920191909152509295506105e9945050505050565b005b610208600480360360208110156101f857600080fd5b5035600160a060020a03166106df565b60408051602080825283518183015283519192839290830191858101910280838360005b8381101561024457818101518382015260200161022c565b505050509050019250505060405180910390f35b61026061074b565b60408051918252519081900360200190f35b61027a610751565b604080519115158252519081900360200190f35b6101e0600480360360408110156102a457600080fd5b8101906020810181356401000000008111156102bf57600080fd5b8201836020820111156102d157600080fd5b803590602001918460208302840111640100000000831117156102f357600080fd5b9190808060200260200160405190810160405280939291908181526020018383602002808284376000920191909152509295505091359250610778915050565b61027a6004803603604081101561034957600080fd5b600160a060020a03823516919081019060408101602082013564010000000081111561037457600080fd5b82018360208201111561038657600080fd5b803590602001918460208302840111640100000000831117156103a857600080fd5b9190808060200260200160405190810160405280939291908181526020018383602002808284376000920191909152509295506108bd945050505050565b6101e0600480360360208110156103fc57600080fd5b5035600160a060020a031661090e565b61027a6004803603604081101561042257600080fd5b50600160a060020a038135169060200135610942565b6101e06004803603604081101561044e57600080fd5b50600160a060020a038135169060200135610970565b6101e06004803603604081101561047a57600080fd5b50600160a060020a038135169060200135610a37565b6101e0600480360360208110156104a657600080fd5b5035600160a060020a0316610a6c565b6104be610aef565b60408051600160a060020a039092168252519081900360200190f35b61027a610afe565b6101e0600480360360408110156104f857600080fd5b600160a060020a03823516919081019060408101602082013564010000000081111561052357600080fd5b82018360208201111561053557600080fd5b8035906020019184602083028401116401000000008311171561055757600080fd5b919080806020026020016040519081016040528093929190818152602001838360200280828437600092019190915250929550610b0f945050505050565b610260610b70565b6101e0600480360360208110156105b357600080fd5b5035600160a060020a0316610b76565b6101e0600480360360208110156105d957600080fd5b5035600160a060020a0316610b95565b6105f1610751565b15156105fc57600080fd5b60005b815181101561064a57600160a060020a03831660009081526004602052604090208251610642919084908490811061063357fe5b90602001906020020151610bcc565b6001016105ff565b50600160a060020a038216600081815260046020908152604091829020825182815281549281018390527f2608fa83bde7d0c496aecce5d929315dfe35b57ded9f98d80e611dc6659f2c3f9391929091829190820190849080156106cd57602002820191906000526020600020905b8154815260200190600101908083116106b9575b50509250505060405180910390a25050565b600160a060020a03811660009081526004602090815260409182902080548351818402810184019094528084526060939283018282801561073f57602002820191906000526020600020905b81548152602001906001019080831161072b575b50505050509050919050565b60005481565b3360009081526003602052604081205460ff16806107725750610772610afe565b90505b90565b610780610751565b151561078b57600080fd5b60005b82518110156108b8576107dc6004600085848151811015156107ac57fe5b90602001906020020151600160a060020a0316600160a060020a0316815260200190815260200160002083610c8a565b82818151811015156107ea57fe5b90602001906020020151600160a060020a03167f2608fa83bde7d0c496aecce5d929315dfe35b57ded9f98d80e611dc6659f2c3f60046000868581518110151561083057fe5b90602001906020020151600160a060020a0316600160a060020a03168152602001908152602001600020600001604051808060200182810382528381815481526020019150805480156108a257602002820191906000526020600020905b81548152602001906001019080831161088e575b50509250505060405180910390a260010161078e565b505050565b6000805b8251811015610902576108eb8484838151811015156108dc57fe5b90602001906020020151610942565b156108fa576001915050610908565b6001016108c1565b50600090505b92915050565b610916610afe565b151561092157600080fd5b600160a060020a03166000908152600360205260409020805460ff19169055565b600160a060020a03919091166000908152600460209081526040808320938352600190930190522054151590565b610978610751565b151561098357600080fd5b600160a060020a03821660009081526004602052604090206109a59082610c8a565b600160a060020a038216600081815260046020908152604091829020825182815281549281018390527f2608fa83bde7d0c496aecce5d929315dfe35b57ded9f98d80e611dc6659f2c3f9391929091829190820190849080156106cd57602002820191906000526020600020908154815260200190600101908083116106b95750509250505060405180910390a25050565b610a3f610751565b1515610a4a57600080fd5b600160a060020a03821660009081526004602052604090206109a59082610bcc565b610a74610751565b1515610a7f57600080fd5b600160a060020a0381166000908152600460205260408120905b8154811015610adf5760008260010160008460000184815481101515610abb57fe5b60009182526020808320909101548352820192909252604001902055600101610a99565b50610aeb816000610d4d565b5050565b600254600160a060020a031690565b600254600160a060020a0316331490565b610b17610751565b1515610b2257600080fd5b60005b815181101561064a57600160a060020a03831660009081526004602052604090208251610b689190849084908110610b5957fe5b90602001906020020151610c8a565b600101610b25565b60015481565b610b7e610afe565b1515610b8957600080fd5b610b9281610ccf565b50565b610b9d610afe565b1515610ba857600080fd5b600160a060020a03166000908152600360205260409020805460ff19166001179055565b60008181526001830160205260409020541515610be857610aeb565b60008181526001830160205260408120548354600019918201929181019190859083908110610c1357fe5b90600052602060002001549050808560000184815481101515610c3257fe5b6000918252602080832090910192909255828152600187810190925260408082209286019092558581529081205584548590801515610c6d57fe5b600190038181906000526020600020016000905590555050505050565b600081815260018301602052604090205415610ca557610aeb565b81546001808201845560008481526020808220909301849055845493815293019052604090912055565b600160a060020a0381161515610ce457600080fd5b600254604051600160a060020a038084169216907f8be0079c531659141344cd1fd0a4f28419497f9722a3daafe3b4186f6b6457e090600090a36002805473ffffffffffffffffffffffffffffffffffffffff1916600160a060020a0392909216919091179055565b5080546000825590600052602060002090810190610b92919061077591905b80821115610d805760008155600101610d6c565b509056fea165627a7a723058207e6e0a0cfc7144659fdd7c1e88435b64382a3be3003214c41672a45f47d9df080029",
  "source": "pragma solidity ^0.5.5;\n\n\nimport \"./utility/Approvable.sol\";\nimport \"./utility/StoringCreationMeta.sol\";\n\n\ncontract UserRoles is StoringCreationMeta, Approvable {\n    struct Roles {\n        uint[] list;\n        mapping(uint => uint) position;\n    }\n    mapping(address => Roles) userRoles;\n\n    event RolesChanged(address indexed user, uint[] roles);\n    // Known roles:\n    // 1    - can create events\n\n    function setRole(address _user, uint _role) public onlyApproved {\n        _setRole(userRoles[_user], _role);\n        emit RolesChanged(_user, userRoles[_user].list);\n    }\n\n    function setRoles(address _user, uint[] memory _roles) public onlyApproved {\n        for(uint i = 0; i < _roles.length; ++i) {\n            _setRole(userRoles[_user], _roles[i]);\n        }\n        emit RolesChanged(_user, userRoles[_user].list);\n    }\n\n    function setRoleForUsers(address[] memory _users, uint _role) public onlyApproved {\n        for(uint i = 0; i < _users.length; ++i) {\n            _setRole(userRoles[_users[i]], _role);\n            emit RolesChanged(_users[i], userRoles[_users[i]].list);\n        }\n    }\n\n    function _setRole(Roles storage _roles, uint _role) private {\n        if (_roles.position[_role] != 0) {\n            // Already has role\n            return;\n        } else {\n            _roles.list.push(_role);\n            _roles.position[_role] = _roles.list.length;\n        }\n    }\n\n    function removeRole(address _user, uint _role) public onlyApproved {\n        _removeRole(userRoles[_user], _role);\n        emit RolesChanged(_user, userRoles[_user].list);\n    }\n\n    function removeRoles(address _user, uint[] memory _roles) public onlyApproved {\n        for(uint i = 0; i < _roles.length; ++i) {\n            _removeRole(userRoles[_user], _roles[i]);\n        }\n        emit RolesChanged(_user, userRoles[_user].list);\n    }\n\n    function _removeRole(Roles storage _roles, uint _role) private {\n        if (_roles.position[_role] == 0) {\n            // Role not present\n            return;\n        }\n\n        uint nIndex = _roles.position[_role] - 1;\n        uint lastIndex = _roles.list.length  - 1;\n        uint lastItem = _roles.list[lastIndex];\n\n        _roles.list[nIndex] = lastItem;\n        _roles.position[lastItem] = nIndex + 1;\n        _roles.position[_role] = 0;\n\n        _roles.list.pop();\n    }\n\n    function hasRole(address _user, uint _role) public view returns(bool) {\n        return userRoles[_user].position[_role] != 0;\n    }\n\n    function hasAnyRole(address _user, uint[] memory _roles) public view returns(bool) {\n        for(uint i = 0; i < _roles.length; ++i) {\n            if(hasRole(_user, _roles[i])) {\n                return true;\n            }\n        }\n        return false;\n    }\n\n    function getUserRoles(address _user) public view returns(uint[] memory) {\n        return userRoles[_user].list;\n    }\n\n    function clearUserRoles(address _user) public onlyApproved {\n        Roles storage _roles = userRoles[_user];\n\n        for(uint i = 0; i < _roles.list.length; ++i) {\n            _roles.position[_roles.list[i]] = 0;\n        }\n\n        delete _roles.list;\n    }\n}",
  "sourcePath": "/Users/hiphop/code/verity-event/contracts/UserRoles.sol",
  "compiler": {
    "name": "solc",
    "version": "0.5.5+commit.47a71e8f.Emscripten.clang"
  },
  "schemaVersion": "3.0.1",
  "updatedAt": "2019-03-11T12:12:41.920Z",
  "devdoc": {
    "methods": {
      "isOwner()": {
        "return": "true if `msg.sender` is the owner of the contract."
      },
      "owner()": {
        "return": "the address of the owner."
      },
      "transferOwnership(address)": {
        "details": "Allows the current owner to transfer control of the contract to a newOwner.",
        "params": {
          "newOwner": "The address to transfer ownership to."
        }
      }
    }
  },
  "userdoc": {
    "methods": {}
  }
}