{
  "contractName": "UserRoles",
  "abi": [
    {
      "constant": true,
      "inputs": [],
      "name": "owner",
      "outputs": [
        {
          "name": "",
          "type": "address"
        }
      ],
      "payable": false,
      "stateMutability": "view",
      "type": "function"
    },
    {
      "inputs": [],
      "payable": false,
      "stateMutability": "nonpayable",
      "type": "constructor"
    },
    {
      "constant": false,
      "inputs": [
        {
          "name": "_user",
          "type": "address"
        },
        {
          "name": "_role",
          "type": "uint256"
        }
      ],
      "name": "setRole",
      "outputs": [],
      "payable": false,
      "stateMutability": "nonpayable",
      "type": "function"
    },
    {
      "constant": false,
      "inputs": [
        {
          "name": "_user",
          "type": "address"
        },
        {
          "name": "_roles",
          "type": "uint256[]"
        }
      ],
      "name": "setRoles",
      "outputs": [],
      "payable": false,
      "stateMutability": "nonpayable",
      "type": "function"
    },
    {
      "constant": false,
      "inputs": [
        {
          "name": "_user",
          "type": "address"
        },
        {
          "name": "_role",
          "type": "uint256"
        }
      ],
      "name": "removeRole",
      "outputs": [],
      "payable": false,
      "stateMutability": "nonpayable",
      "type": "function"
    },
    {
      "constant": false,
      "inputs": [
        {
          "name": "_user",
          "type": "address"
        },
        {
          "name": "_roles",
          "type": "uint256[]"
        }
      ],
      "name": "removeRoles",
      "outputs": [],
      "payable": false,
      "stateMutability": "nonpayable",
      "type": "function"
    },
    {
      "constant": true,
      "inputs": [
        {
          "name": "_user",
          "type": "address"
        },
        {
          "name": "_role",
          "type": "uint256"
        }
      ],
      "name": "hasRole",
      "outputs": [
        {
          "name": "",
          "type": "bool"
        }
      ],
      "payable": false,
      "stateMutability": "view",
      "type": "function"
    },
    {
      "constant": true,
      "inputs": [
        {
          "name": "_user",
          "type": "address"
        },
        {
          "name": "_roles",
          "type": "uint256[]"
        }
      ],
      "name": "hasAnyRole",
      "outputs": [
        {
          "name": "",
          "type": "bool"
        }
      ],
      "payable": false,
      "stateMutability": "view",
      "type": "function"
    }
  ],
  "bytecode": "0x608060405234801561001057600080fd5b5060008054600160a060020a0319163317905561061d806100326000396000f3fe60806040526004361061007c577c01000000000000000000000000000000000000000000000000000000006000350463047bc24b811461008157806335fe9034146101435780635c97f4a21461021757806374277a631461025057806379db5f67146102895780638da5cb5b146102c25780639a7c3c43146102f3575b600080fd5b34801561008d57600080fd5b50610141600480360360408110156100a457600080fd5b600160a060020a0382351691908101906040810160208201356401000000008111156100cf57600080fd5b8201836020820111156100e157600080fd5b8035906020019184602083028401116401000000008311171561010357600080fd5b9190808060200260200160405190810160405280939291908181526020018383602002808284376000920191909152509295506103b3945050505050565b005b34801561014f57600080fd5b506102036004803603604081101561016657600080fd5b600160a060020a03823516919081019060408101602082013564010000000081111561019157600080fd5b8201836020820111156101a357600080fd5b803590602001918460208302840111640100000000831117156101c557600080fd5b919080806020026020016040519081016040528093929190818152602001838360200280828437600092019190915250929550610434945050505050565b604080519115158252519081900360200190f35b34801561022357600080fd5b506102036004803603604081101561023a57600080fd5b50600160a060020a0381351690602001356104aa565b34801561025c57600080fd5b506101416004803603604081101561027357600080fd5b50600160a060020a0381351690602001356104d5565b34801561029557600080fd5b50610141600480360360408110156102ac57600080fd5b50600160a060020a03813516906020013561051e565b3480156102ce57600080fd5b506102d7610562565b60408051600160a060020a039092168252519081900360200190f35b3480156102ff57600080fd5b506101416004803603604081101561031657600080fd5b600160a060020a03823516919081019060408101602082013564010000000081111561034157600080fd5b82018360208201111561035357600080fd5b8035906020019184602083028401116401000000008311171561037557600080fd5b919080806020026020016040519081016040528093929190818152602001838360200280828437600092019190915250929550610571945050505050565b600054600160a060020a031633146103ca57600080fd5b60005b815181101561042f57600160a060020a0383166000908152600160205260408120835182908590859081106103fe57fe5b6020908102919091018101518252810191909152604001600020805460ff19169115159190911790556001016103cd565b505050565b6000805b825181101561049e57600160a060020a0384166000908152600160205260408120845190919085908490811061046a57fe5b602090810290910181015182528101919091526040016000205460ff16156104965760019150506104a4565b600101610438565b50600090505b92915050565b600160a060020a03919091166000908152600160209081526040808320938352929052205460ff1690565b600054600160a060020a031633146104ec57600080fd5b600160a060020a039091166000908152600160208181526040808420948452939052919020805460ff19169091179055565b600054600160a060020a0316331461053557600080fd5b600160a060020a03909116600090815260016020908152604080832093835292905220805460ff19169055565b600054600160a060020a031681565b600054600160a060020a0316331461058857600080fd5b60005b815181101561042f57600160a060020a038316600090815260016020819052604082208451919290918590859081106105c057fe5b6020908102919091018101518252810191909152604001600020805460ff191691151591909117905560010161058b56fea165627a7a72305820759b278a9075b51cc83246c17f155fb3c9875522415f374c2ec704c7c7baefb20029",
  "source": "pragma solidity ^0.5.0;\n\n\ncontract UserRoles {\n    address public owner;\n\n    mapping(address => mapping(uint => bool)) userRoles;\n\n    modifier onlyOwner {\n        require(msg.sender == owner);\n        _;\n    }\n\n    constructor() public {\n        owner = msg.sender;\n    }\n\n    function setRole(address _user, uint _role) public onlyOwner {\n        userRoles[_user][_role] = true;\n    }\n\n    function setRoles(address _user, uint[] memory _roles) public onlyOwner {\n        for(uint i = 0; i < _roles.length; ++i) {\n            userRoles[_user][_roles[i]] = true;\n        }\n    }\n\n    function removeRole(address _user, uint _role) public onlyOwner {\n        userRoles[_user][_role] = false;\n    }\n\n    function removeRoles(address _user, uint[] memory _roles) public onlyOwner {\n        for(uint i = 0; i < _roles.length; ++i) {\n            userRoles[_user][_roles[i]] = false;\n        }\n    }\n\n    function hasRole(address _user, uint _role) public view returns(bool) {\n        return userRoles[_user][_role];\n    }\n\n    function hasAnyRole(address _user, uint[] memory _roles) public view returns(bool) {\n        for(uint i = 0; i < _roles.length; ++i) {\n            if(userRoles[_user][_roles[i]]) {\n                return true;\n            }\n        }\n        return false;\n    }\n}",
  "sourcePath": "/Users/dejan/dev/verity-event/contracts/UserRoles.sol",
  "compiler": {
    "name": "solc",
    "version": "0.5.1+commit.c8a2cb62.Emscripten.clang"
  },
  "schemaVersion": "3.0.0",
  "updatedAt": "2018-12-20T07:23:24.324Z",
  "devdoc": {
    "methods": {}
  },
  "userdoc": {
    "methods": {}
  }
}