{
  "contractName": "UserRoles",
  "abi": [
    {
      "constant": true,
      "inputs": [],
      "name": "creationBlock",
      "outputs": [
        {
          "name": "",
          "type": "uint256"
        }
      ],
      "payable": false,
      "stateMutability": "view",
      "type": "function"
    },
    {
      "constant": true,
      "inputs": [],
      "name": "isApproved",
      "outputs": [
        {
          "name": "",
          "type": "bool"
        }
      ],
      "payable": false,
      "stateMutability": "view",
      "type": "function"
    },
    {
      "constant": false,
      "inputs": [
        {
          "name": "_address",
          "type": "address"
        }
      ],
      "name": "revokeApproval",
      "outputs": [],
      "payable": false,
      "stateMutability": "nonpayable",
      "type": "function"
    },
    {
      "constant": true,
      "inputs": [],
      "name": "owner",
      "outputs": [
        {
          "name": "",
          "type": "address"
        }
      ],
      "payable": false,
      "stateMutability": "view",
      "type": "function"
    },
    {
      "constant": true,
      "inputs": [],
      "name": "isOwner",
      "outputs": [
        {
          "name": "",
          "type": "bool"
        }
      ],
      "payable": false,
      "stateMutability": "view",
      "type": "function"
    },
    {
      "constant": true,
      "inputs": [],
      "name": "creationTime",
      "outputs": [
        {
          "name": "",
          "type": "uint256"
        }
      ],
      "payable": false,
      "stateMutability": "view",
      "type": "function"
    },
    {
      "constant": false,
      "inputs": [
        {
          "name": "newOwner",
          "type": "address"
        }
      ],
      "name": "transferOwnership",
      "outputs": [],
      "payable": false,
      "stateMutability": "nonpayable",
      "type": "function"
    },
    {
      "constant": false,
      "inputs": [
        {
          "name": "_address",
          "type": "address"
        }
      ],
      "name": "approveAddress",
      "outputs": [],
      "payable": false,
      "stateMutability": "nonpayable",
      "type": "function"
    },
    {
      "anonymous": false,
      "inputs": [
        {
          "indexed": true,
          "name": "previousOwner",
          "type": "address"
        },
        {
          "indexed": true,
          "name": "newOwner",
          "type": "address"
        }
      ],
      "name": "OwnershipTransferred",
      "type": "event"
    },
    {
      "constant": false,
      "inputs": [
        {
          "name": "_user",
          "type": "address"
        },
        {
          "name": "_role",
          "type": "uint256"
        }
      ],
      "name": "setRole",
      "outputs": [],
      "payable": false,
      "stateMutability": "nonpayable",
      "type": "function"
    },
    {
      "constant": false,
      "inputs": [
        {
          "name": "_user",
          "type": "address"
        },
        {
          "name": "_roles",
          "type": "uint256[]"
        }
      ],
      "name": "setRoles",
      "outputs": [],
      "payable": false,
      "stateMutability": "nonpayable",
      "type": "function"
    },
    {
      "constant": false,
      "inputs": [
        {
          "name": "_user",
          "type": "address"
        },
        {
          "name": "_role",
          "type": "uint256"
        }
      ],
      "name": "removeRole",
      "outputs": [],
      "payable": false,
      "stateMutability": "nonpayable",
      "type": "function"
    },
    {
      "constant": false,
      "inputs": [
        {
          "name": "_user",
          "type": "address"
        },
        {
          "name": "_roles",
          "type": "uint256[]"
        }
      ],
      "name": "removeRoles",
      "outputs": [],
      "payable": false,
      "stateMutability": "nonpayable",
      "type": "function"
    },
    {
      "constant": true,
      "inputs": [
        {
          "name": "_user",
          "type": "address"
        },
        {
          "name": "_role",
          "type": "uint256"
        }
      ],
      "name": "hasRole",
      "outputs": [
        {
          "name": "",
          "type": "bool"
        }
      ],
      "payable": false,
      "stateMutability": "view",
      "type": "function"
    },
    {
      "constant": true,
      "inputs": [
        {
          "name": "_user",
          "type": "address"
        },
        {
          "name": "_roles",
          "type": "uint256[]"
        }
      ],
      "name": "hasAnyRole",
      "outputs": [
        {
          "name": "",
          "type": "bool"
        }
      ],
      "payable": false,
      "stateMutability": "view",
      "type": "function"
    },
    {
      "constant": true,
      "inputs": [
        {
          "name": "_user",
          "type": "address"
        }
      ],
      "name": "getUserRoles",
      "outputs": [
        {
          "name": "",
          "type": "uint256[]"
        }
      ],
      "payable": false,
      "stateMutability": "view",
      "type": "function"
    },
    {
      "constant": false,
      "inputs": [
        {
          "name": "_user",
          "type": "address"
        }
      ],
      "name": "clearUserRoles",
      "outputs": [],
      "payable": false,
      "stateMutability": "nonpayable",
      "type": "function"
    }
  ],
  "bytecode": "0x608060408190524360009081554260015560028054600160a060020a031916331790819055600160a060020a0316917f8be0079c531659141344cd1fd0a4f28419497f9722a3daafe3b4186f6b6457e0908290a3610a99806100626000396000f3fe608060405234801561001057600080fd5b506004361061011d576000357c01000000000000000000000000000000000000000000000000000000009004806379db5f67116100b45780639a7c3c43116100835780639a7c3c4314610432578063d8270dce146104e5578063f2fde38b146104ed578063fabf657a146105135761011d565b806379db5f67146103b45780637f6421b9146103e05780638da5cb5b146104065780638f32d59b1461042a5761011d565b806335fe9034116100f057806335fe903414610283578063484685b0146103365780635c97f4a21461035c57806374277a63146103885761011d565b8063047bc24b1461012257806306a36aee146101d7578063176345141461024d57806328f371aa14610267575b600080fd5b6101d56004803603604081101561013857600080fd5b600160a060020a03823516919081019060408101602082013564010000000081111561016357600080fd5b82018360208201111561017557600080fd5b8035906020019184602083028401116401000000008311171561019757600080fd5b919080806020026020016040519081016040528093929190818152602001838360200280828437600092019190915250929550610539945050505050565b005b6101fd600480360360208110156101ed57600080fd5b5035600160a060020a031661059f565b60408051602080825283518183015283519192839290830191858101910280838360005b83811015610239578181015183820152602001610221565b505050509050019250505060405180910390f35b61025561060b565b60408051918252519081900360200190f35b61026f610611565b604080519115158252519081900360200190f35b61026f6004803603604081101561029957600080fd5b600160a060020a0382351691908101906040810160208201356401000000008111156102c457600080fd5b8201836020820111156102d657600080fd5b803590602001918460208302840111640100000000831117156102f857600080fd5b919080806020026020016040519081016040528093929190818152602001838360200280828437600092019190915250929550610638945050505050565b6101d56004803603602081101561034c57600080fd5b5035600160a060020a0316610689565b61026f6004803603604081101561037257600080fd5b50600160a060020a0381351690602001356106bd565b6101d56004803603604081101561039e57600080fd5b50600160a060020a0381351690602001356106eb565b6101d5600480360360408110156103ca57600080fd5b50600160a060020a038135169060200135610724565b6101d5600480360360208110156103f657600080fd5b5035600160a060020a0316610759565b61040e6107d8565b60408051600160a060020a039092168252519081900360200190f35b61026f6107e7565b6101d56004803603604081101561044857600080fd5b600160a060020a03823516919081019060408101602082013564010000000081111561047357600080fd5b82018360208201111561048557600080fd5b803590602001918460208302840111640100000000831117156104a757600080fd5b9190808060200260200160405190810160405280939291908181526020018383602002808284376000920191909152509295506107f8945050505050565b610255610859565b6101d56004803603602081101561050357600080fd5b5035600160a060020a031661085f565b6101d56004803603602081101561052957600080fd5b5035600160a060020a031661087e565b610541610611565b151561054c57600080fd5b60005b815181101561059a57600160a060020a03831660009081526004602052604090208251610592919084908490811061058357fe5b906020019060200201516108b5565b60010161054f565b505050565b600160a060020a0381166000908152600460209081526040918290208054835181840281018401909452808452606093928301828280156105ff57602002820191906000526020600020905b8154815260200190600101908083116105eb575b50505050509050919050565b60005481565b3360009081526003602052604081205460ff168061063257506106326107e7565b90505b90565b6000805b825181101561067d5761066684848381518110151561065757fe5b906020019060200201516106bd565b15610675576001915050610683565b60010161063c565b50600090505b92915050565b6106916107e7565b151561069c57600080fd5b600160a060020a03166000908152600360205260409020805460ff19169055565b600160a060020a03919091166000908152600460209081526040808320938352600190930190522054151590565b6106f3610611565b15156106fe57600080fd5b600160a060020a03821660009081526004602052604090206107209082610973565b5050565b61072c610611565b151561073757600080fd5b600160a060020a038216600090815260046020526040902061072090826108b5565b610761610611565b151561076c57600080fd5b600160a060020a0381166000908152600460205260408120905b81548110156107cc57600082600101600084600001848154811015156107a857fe5b60009182526020808320909101548352820192909252604001902055600101610786565b50610720816000610a36565b600254600160a060020a031690565b600254600160a060020a0316331490565b610800610611565b151561080b57600080fd5b60005b815181101561059a57600160a060020a03831660009081526004602052604090208251610851919084908490811061084257fe5b90602001906020020151610973565b60010161080e565b60015481565b6108676107e7565b151561087257600080fd5b61087b816109b8565b50565b6108866107e7565b151561089157600080fd5b600160a060020a03166000908152600360205260409020805460ff19166001179055565b600081815260018301602052604090205415156108d157610720565b600081815260018301602052604081205483546000199182019291810191908590839081106108fc57fe5b9060005260206000200154905080856000018481548110151561091b57fe5b600091825260208083209091019290925582815260018781019092526040808220928601909255858152908120558454859080151561095657fe5b600190038181906000526020600020016000905590555050505050565b60008181526001830160205260409020541561098e57610720565b81546001808201845560008481526020808220909301849055845493815293019052604090912055565b600160a060020a03811615156109cd57600080fd5b600254604051600160a060020a038084169216907f8be0079c531659141344cd1fd0a4f28419497f9722a3daafe3b4186f6b6457e090600090a36002805473ffffffffffffffffffffffffffffffffffffffff1916600160a060020a0392909216919091179055565b508054600082559060005260206000209081019061087b919061063591905b80821115610a695760008155600101610a55565b509056fea165627a7a723058200230e7073f6e54903969cb08538129b9992618579cc4a6120248d19c5da3a4090029",
  "source": "pragma solidity ^0.5.3;\n\n\nimport \"./utility/Approvable.sol\";\nimport \"./utility/StoringCreationMeta.sol\";\n\n\ncontract UserRoles is StoringCreationMeta, Approvable {\n    struct Roles {\n        uint[] list;\n        mapping(uint => uint) position;\n    }\n    mapping(address => Roles) userRoles;\n\n    function setRole(address _user, uint _role) public onlyApproved {\n        _setRole(userRoles[_user], _role);\n    }\n\n    function setRoles(address _user, uint[] memory _roles) public onlyApproved {\n        for(uint i = 0; i < _roles.length; ++i) {\n            _setRole(userRoles[_user], _roles[i]);\n        }\n    }\n\n    function _setRole(Roles storage _roles, uint _role) private {\n        if (_roles.position[_role] != 0) {\n            // Already has role\n            return;\n        } else {\n            _roles.list.push(_role);\n            _roles.position[_role] = _roles.list.length;\n        }\n    }\n\n    function removeRole(address _user, uint _role) public onlyApproved {\n        _removeRole(userRoles[_user], _role);\n    }\n\n    function removeRoles(address _user, uint[] memory _roles) public onlyApproved {\n        for(uint i = 0; i < _roles.length; ++i) {\n            _removeRole(userRoles[_user], _roles[i]);\n        }\n    }\n\n    function _removeRole(Roles storage _roles, uint _role) private {\n        if (_roles.position[_role] == 0) {\n            // Role not present\n            return;\n        }\n\n        uint nIndex = _roles.position[_role] - 1;\n        uint lastIndex = _roles.list.length  - 1;\n        uint lastItem = _roles.list[lastIndex];\n\n        _roles.list[nIndex] = lastItem;\n        _roles.position[lastItem] = nIndex + 1;\n        _roles.position[_role] = 0;\n\n        _roles.list.pop();\n    }\n\n    function hasRole(address _user, uint _role) public view returns(bool) {\n        return userRoles[_user].position[_role] != 0;\n    }\n\n    function hasAnyRole(address _user, uint[] memory _roles) public view returns(bool) {\n        for(uint i = 0; i < _roles.length; ++i) {\n            if(hasRole(_user, _roles[i])) {\n                return true;\n            }\n        }\n        return false;\n    }\n\n    function getUserRoles(address _user) public view returns(uint[] memory) {\n        return userRoles[_user].list;\n    }\n\n    function clearUserRoles(address _user) public onlyApproved {\n        Roles storage _roles = userRoles[_user];\n\n        for(uint i = 0; i < _roles.list.length; ++i) {\n            _roles.position[_roles.list[i]] = 0;\n        }\n\n        delete _roles.list;\n    }\n}",
  "sourcePath": "/Users/hiphop/code/verity-event/contracts/UserRoles.sol",
  "compiler": {
    "name": "solc",
    "version": "0.5.3+commit.10d17f24.Emscripten.clang"
  },
  "schemaVersion": "3.0.1",
  "updatedAt": "2019-02-07T11:36:40.503Z",
  "devdoc": {
    "methods": {
      "isOwner()": {
        "return": "true if `msg.sender` is the owner of the contract."
      },
      "owner()": {
        "return": "the address of the owner."
      },
      "transferOwnership(address)": {
        "details": "Allows the current owner to transfer control of the contract to a newOwner.",
        "params": {
          "newOwner": "The address to transfer ownership to."
        }
      }
    }
  },
  "userdoc": {
    "methods": {}
  }
}