{
  "contractName": "VerityEvent",
  "abi": [
    {
      "constant": true,
      "inputs": [],
      "name": "rewardsValidationRound",
      "outputs": [
        {
          "name": "",
          "type": "uint256"
        }
      ],
      "payable": false,
      "stateMutability": "view",
      "type": "function"
    },
    {
      "constant": true,
      "inputs": [],
      "name": "eventRegistryAddress",
      "outputs": [
        {
          "name": "",
          "type": "address"
        }
      ],
      "payable": false,
      "stateMutability": "view",
      "type": "function"
    },
    {
      "constant": true,
      "inputs": [],
      "name": "isMasterNode",
      "outputs": [
        {
          "name": "",
          "type": "bool"
        }
      ],
      "payable": false,
      "stateMutability": "view",
      "type": "function"
    },
    {
      "constant": true,
      "inputs": [],
      "name": "getBalance",
      "outputs": [
        {
          "name": "",
          "type": "uint256[2]"
        }
      ],
      "payable": false,
      "stateMutability": "view",
      "type": "function"
    },
    {
      "constant": true,
      "inputs": [],
      "name": "eventCanceled",
      "outputs": [
        {
          "name": "",
          "type": "bool"
        }
      ],
      "payable": false,
      "stateMutability": "view",
      "type": "function"
    },
    {
      "constant": true,
      "inputs": [],
      "name": "requiredNextDisputeAmount",
      "outputs": [
        {
          "name": "",
          "type": "uint256"
        }
      ],
      "payable": false,
      "stateMutability": "view",
      "type": "function"
    },
    {
      "constant": true,
      "inputs": [],
      "name": "getState",
      "outputs": [
        {
          "name": "",
          "type": "uint256"
        }
      ],
      "payable": false,
      "stateMutability": "view",
      "type": "function"
    },
    {
      "constant": false,
      "inputs": [
        {
          "name": "_addresses",
          "type": "address[]"
        },
        {
          "name": "_etherRewards",
          "type": "uint256[]"
        },
        {
          "name": "_tokenRewards",
          "type": "uint256[]"
        }
      ],
      "name": "setRewards",
      "outputs": [],
      "payable": false,
      "stateMutability": "nonpayable",
      "type": "function"
    },
    {
      "constant": true,
      "inputs": [],
      "name": "getReward",
      "outputs": [
        {
          "name": "",
          "type": "uint256[2]"
        }
      ],
      "payable": false,
      "stateMutability": "view",
      "type": "function"
    },
    {
      "constant": true,
      "inputs": [],
      "name": "dataFeedHash",
      "outputs": [
        {
          "name": "",
          "type": "string"
        }
      ],
      "payable": false,
      "stateMutability": "view",
      "type": "function"
    },
    {
      "constant": true,
      "inputs": [],
      "name": "ipfsEventHash",
      "outputs": [
        {
          "name": "",
          "type": "string"
        }
      ],
      "payable": false,
      "stateMutability": "view",
      "type": "function"
    },
    {
      "constant": false,
      "inputs": [
        {
          "name": "_hash",
          "type": "string"
        }
      ],
      "name": "setDataFeedHash",
      "outputs": [],
      "payable": false,
      "stateMutability": "nonpayable",
      "type": "function"
    },
    {
      "constant": false,
      "inputs": [],
      "name": "claimFailed",
      "outputs": [],
      "payable": false,
      "stateMutability": "nonpayable",
      "type": "function"
    },
    {
      "constant": true,
      "inputs": [],
      "name": "getResults",
      "outputs": [
        {
          "name": "",
          "type": "bytes32[]"
        }
      ],
      "payable": false,
      "stateMutability": "view",
      "type": "function"
    },
    {
      "constant": false,
      "inputs": [
        {
          "name": "rewardsHash",
          "type": "string"
        }
      ],
      "name": "markRewardsSet",
      "outputs": [],
      "payable": false,
      "stateMutability": "nonpayable",
      "type": "function"
    },
    {
      "constant": true,
      "inputs": [
        {
          "name": "_addresses",
          "type": "address[]"
        }
      ],
      "name": "getRewards",
      "outputs": [
        {
          "name": "",
          "type": "uint256[]"
        },
        {
          "name": "",
          "type": "uint256[]"
        }
      ],
      "payable": false,
      "stateMutability": "view",
      "type": "function"
    },
    {
      "constant": false,
      "inputs": [],
      "name": "triggerDispute",
      "outputs": [],
      "payable": false,
      "stateMutability": "nonpayable",
      "type": "function"
    },
    {
      "constant": true,
      "inputs": [],
      "name": "getRewardsIndex",
      "outputs": [
        {
          "name": "",
          "type": "address[]"
        }
      ],
      "payable": false,
      "stateMutability": "view",
      "type": "function"
    },
    {
      "constant": true,
      "inputs": [],
      "name": "getParticipants",
      "outputs": [
        {
          "name": "",
          "type": "address[]"
        }
      ],
      "payable": false,
      "stateMutability": "view",
      "type": "function"
    },
    {
      "constant": true,
      "inputs": [],
      "name": "stakingAmount",
      "outputs": [
        {
          "name": "",
          "type": "uint256"
        }
      ],
      "payable": false,
      "stateMutability": "view",
      "type": "function"
    },
    {
      "constant": true,
      "inputs": [],
      "name": "getEventResolvers",
      "outputs": [
        {
          "name": "",
          "type": "address[]"
        }
      ],
      "payable": false,
      "stateMutability": "view",
      "type": "function"
    },
    {
      "constant": true,
      "inputs": [],
      "name": "eventName",
      "outputs": [
        {
          "name": "",
          "type": "string"
        }
      ],
      "payable": false,
      "stateMutability": "view",
      "type": "function"
    },
    {
      "constant": false,
      "inputs": [
        {
          "name": "validationRound",
          "type": "uint256"
        },
        {
          "name": "altHash",
          "type": "string"
        }
      ],
      "name": "rejectRewards",
      "outputs": [],
      "payable": false,
      "stateMutability": "nonpayable",
      "type": "function"
    },
    {
      "constant": true,
      "inputs": [],
      "name": "getConsensusRules",
      "outputs": [
        {
          "name": "",
          "type": "uint256[6]"
        }
      ],
      "payable": false,
      "stateMutability": "view",
      "type": "function"
    },
    {
      "constant": true,
      "inputs": [],
      "name": "owner",
      "outputs": [
        {
          "name": "",
          "type": "address"
        }
      ],
      "payable": false,
      "stateMutability": "view",
      "type": "function"
    },
    {
      "constant": true,
      "inputs": [],
      "name": "tokenAddress",
      "outputs": [
        {
          "name": "",
          "type": "address"
        }
      ],
      "payable": false,
      "stateMutability": "view",
      "type": "function"
    },
    {
      "constant": false,
      "inputs": [
        {
          "name": "validationRound",
          "type": "uint256"
        }
      ],
      "name": "approveRewards",
      "outputs": [],
      "payable": false,
      "stateMutability": "nonpayable",
      "type": "function"
    },
    {
      "constant": true,
      "inputs": [],
      "name": "getEventTimes",
      "outputs": [
        {
          "name": "",
          "type": "uint256[5]"
        }
      ],
      "payable": false,
      "stateMutability": "view",
      "type": "function"
    },
    {
      "constant": false,
      "inputs": [
        {
          "name": "_results",
          "type": "bytes32[]"
        }
      ],
      "name": "setResults",
      "outputs": [],
      "payable": false,
      "stateMutability": "nonpayable",
      "type": "function"
    },
    {
      "constant": false,
      "inputs": [],
      "name": "claimReward",
      "outputs": [],
      "payable": false,
      "stateMutability": "nonpayable",
      "type": "function"
    },
    {
      "constant": true,
      "inputs": [],
      "name": "getDisputeData",
      "outputs": [
        {
          "name": "",
          "type": "uint256[5]"
        },
        {
          "name": "",
          "type": "address"
        }
      ],
      "payable": false,
      "stateMutability": "view",
      "type": "function"
    },
    {
      "constant": true,
      "inputs": [],
      "name": "getRequiredRoles",
      "outputs": [
        {
          "name": "",
          "type": "uint256[]"
        }
      ],
      "payable": false,
      "stateMutability": "view",
      "type": "function"
    },
    {
      "constant": false,
      "inputs": [],
      "name": "recoverLeftovers",
      "outputs": [],
      "payable": false,
      "stateMutability": "nonpayable",
      "type": "function"
    },
    {
      "constant": true,
      "inputs": [],
      "name": "leftoversRecoverableAfter",
      "outputs": [
        {
          "name": "",
          "type": "uint256"
        }
      ],
      "payable": false,
      "stateMutability": "view",
      "type": "function"
    },
    {
      "constant": true,
      "inputs": [
        {
          "name": "_user",
          "type": "address"
        }
      ],
      "name": "isParticipating",
      "outputs": [
        {
          "name": "",
          "type": "bool"
        }
      ],
      "payable": false,
      "stateMutability": "view",
      "type": "function"
    },
    {
      "constant": false,
      "inputs": [],
      "name": "joinEvent",
      "outputs": [],
      "payable": false,
      "stateMutability": "nonpayable",
      "type": "function"
    },
    {
      "constant": false,
      "inputs": [],
      "name": "cancelEvent",
      "outputs": [],
      "payable": false,
      "stateMutability": "nonpayable",
      "type": "function"
    },
    {
      "constant": true,
      "inputs": [],
      "name": "getEventCategory",
      "outputs": [
        {
          "name": "",
          "type": "bytes32[2]"
        }
      ],
      "payable": false,
      "stateMutability": "view",
      "type": "function"
    },
    {
      "payable": true,
      "stateMutability": "payable",
      "type": "fallback"
    },
    {
      "anonymous": false,
      "inputs": [
        {
          "indexed": false,
          "name": "newState",
          "type": "uint8"
        }
      ],
      "name": "StateTransition",
      "type": "event"
    },
    {
      "anonymous": false,
      "inputs": [
        {
          "indexed": false,
          "name": "wallet",
          "type": "address"
        }
      ],
      "name": "JoinEvent",
      "type": "event"
    },
    {
      "anonymous": false,
      "inputs": [
        {
          "indexed": false,
          "name": "recipient",
          "type": "address"
        }
      ],
      "name": "ClaimReward",
      "type": "event"
    },
    {
      "anonymous": false,
      "inputs": [
        {
          "indexed": true,
          "name": "byAddress",
          "type": "address"
        },
        {
          "indexed": false,
          "name": "description",
          "type": "string"
        }
      ],
      "name": "Error",
      "type": "event"
    },
    {
      "anonymous": false,
      "inputs": [
        {
          "indexed": false,
          "name": "description",
          "type": "string"
        }
      ],
      "name": "EventFailed",
      "type": "event"
    },
    {
      "anonymous": false,
      "inputs": [
        {
          "indexed": false,
          "name": "validationRound",
          "type": "uint256"
        }
      ],
      "name": "ValidationStarted",
      "type": "event"
    },
    {
      "anonymous": false,
      "inputs": [
        {
          "indexed": false,
          "name": "validationRound",
          "type": "uint256"
        }
      ],
      "name": "ValidationRestart",
      "type": "event"
    },
    {
      "anonymous": false,
      "inputs": [
        {
          "indexed": false,
          "name": "byAddress",
          "type": "address"
        }
      ],
      "name": "DisputeTriggered",
      "type": "event"
    },
    {
      "anonymous": false,
      "inputs": [
        {
          "indexed": false,
          "name": "recipient",
          "type": "address"
        }
      ],
      "name": "ClaimStake",
      "type": "event"
    }
  ],
  "bytecode": "0x60806040526006805460ff19908116909155602f8054909116905534801561002657600080fd5b506144c4806100366000396000f3fe608060405260043610610241576000357c010000000000000000000000000000000000000000000000000000000090048063739a3e0211610140578063ac884902116100c8578063f38a803f1161008c578063f38a803f14610c1d578063f4caee8814610c32578063f9010d1914610c65578063fb6c953714610c7a578063fce1a10c14610c8f57610241565b8063ac88490214610ac8578063b88a802f14610b78578063d6e9b01914610b8d578063e0807f8914610bf3578063efba9bd214610c0857610241565b806381c2d8751161010f57806381c2d87514610a205780638da5cb5b14610a4a5780639d76ea5814610a5f578063a77ae83914610a74578063ab95b58614610a9e57610241565b8063739a3e021461092757806374539f981461093c5780638043c9c0146109515780638126cb1e1461096657610241565b80634227357c116101ce5780634b766b95116101925780634b766b95146106ec578063510ccb431461079f57806352f91acf146108e857806354e33cf0146108fd5780635aa68ac01461091257610241565b80634227357c1461052057806342380eaf146105aa578063437933cc146105bf57806345f99d51146106725780634717f97c1461068757610241565b8063148b597c11610215578063148b597c14610314578063181b3f5a146103295780631865c57d1461033e5780631a0ddce9146103535780633d18b9121461050b57610241565b8062f1614214610243578063073f03fb1461026a57806311e956c81461029b57806312065fe0146102c4575b005b34801561024f57600080fd5b50610258610ca4565b60408051918252519081900360200190f35b34801561027657600080fd5b5061027f610caa565b60408051600160a060020a039092168252519081900360200190f35b3480156102a757600080fd5b506102b0610cb9565b604080519115158252519081900360200190f35b3480156102d057600080fd5b506102d9610ccb565b6040518082600260200280838360005b838110156103015781810151838201526020016102e9565b5050505090500191505060405180910390f35b34801561032057600080fd5b506102b0610d7b565b34801561033557600080fd5b50610258610d89565b34801561034a57600080fd5b50610258610dd4565b34801561035f57600080fd5b506102416004803603606081101561037657600080fd5b81019060208101813564010000000081111561039157600080fd5b8201836020820111156103a357600080fd5b803590602001918460208302840111640100000000831117156103c557600080fd5b919080806020026020016040519081016040528093929190818152602001838360200280828437600092019190915250929594936020810193503591505064010000000081111561041557600080fd5b82018360208201111561042757600080fd5b8035906020019184602083028401116401000000008311171561044957600080fd5b919080806020026020016040519081016040528093929190818152602001838360200280828437600092019190915250929594936020810193503591505064010000000081111561049957600080fd5b8201836020820111156104ab57600080fd5b803590602001918460208302840111640100000000831117156104cd57600080fd5b919080806020026020016040519081016040528093929190818152602001838360200280828437600092019190915250929550610ded945050505050565b34801561051757600080fd5b506102d9611161565b34801561052c57600080fd5b506105356111a3565b6040805160208082528351818301528351919283929083019185019080838360005b8381101561056f578181015183820152602001610557565b50505050905090810190601f16801561059c5780820380516001836020036101000a031916815260200191505b509250505060405180910390f35b3480156105b657600080fd5b50610535611231565b3480156105cb57600080fd5b50610241600480360360208110156105e257600080fd5b8101906020810181356401000000008111156105fd57600080fd5b82018360208201111561060f57600080fd5b8035906020019184600183028401116401000000008311171561063157600080fd5b91908080601f01602080910402602001604051908101604052809392919081815260200183838082843760009201919091525092955061128c945050505050565b34801561067e57600080fd5b506102416112ba565b34801561069357600080fd5b5061069c611603565b60408051602080825283518183015283519192839290830191858101910280838360005b838110156106d85781810151838201526020016106c0565b505050509050019250505060405180910390f35b3480156106f857600080fd5b506102416004803603602081101561070f57600080fd5b81019060208101813564010000000081111561072a57600080fd5b82018360208201111561073c57600080fd5b8035906020019184600183028401116401000000008311171561075e57600080fd5b91908080601f01602080910402602001604051908101604052809392919081815260200183838082843760009201919091525092955061165b945050505050565b3480156107ab57600080fd5b5061084f600480360360208110156107c257600080fd5b8101906020810181356401000000008111156107dd57600080fd5b8201836020820111156107ef57600080fd5b8035906020019184602083028401116401000000008311171561081157600080fd5b9190808060200260200160405190810160405280939291908181526020018383602002808284376000920191909152509295506118e6945050505050565b604051808060200180602001838103835285818151815260200191508051906020019060200280838360005b8381101561089357818101518382015260200161087b565b50505050905001838103825284818151815260200191508051906020019060200280838360005b838110156108d25781810151838201526020016108ba565b5050505090500194505050505060405180910390f35b3480156108f457600080fd5b50610241611a21565b34801561090957600080fd5b5061069c611f3c565b34801561091e57600080fd5b5061069c611f9d565b34801561093357600080fd5b50610258611ffd565b34801561094857600080fd5b5061069c612003565b34801561095d57600080fd5b50610535612063565b34801561097257600080fd5b506102416004803603604081101561098957600080fd5b813591908101906040810160208201356401000000008111156109ab57600080fd5b8201836020820111156109bd57600080fd5b803590602001918460018302840111640100000000831117156109df57600080fd5b91908080601f0160208091040260200160405190810160405280939291908181526020018383808284376000920191909152509295506120be945050505050565b348015610a2c57600080fd5b50610a3561242e565b60405181518152808260c080838360206102e9565b348015610a5657600080fd5b5061027f612484565b348015610a6b57600080fd5b5061027f612493565b348015610a8057600080fd5b5061024160048036036020811015610a9757600080fd5b50356124a2565b348015610aaa57600080fd5b50610ab36126c4565b60405181518152808260a080838360206102e9565b348015610ad457600080fd5b5061024160048036036020811015610aeb57600080fd5b810190602081018135640100000000811115610b0657600080fd5b820183602082011115610b1857600080fd5b80359060200191846020830284011164010000000083111715610b3a57600080fd5b919080806020026020016040519081016040528093929190818152602001838360200280828437600092019190915250929550612703945050505050565b348015610b8457600080fd5b50610241612956565b348015610b9957600080fd5b50610ba2612ddc565b604051808360a080838360005b83811015610bc7578181015183820152602001610baf565b5050505090500182600160a060020a0316600160a060020a031681526020019250505060405180910390f35b348015610bff57600080fd5b5061069c612e28565b348015610c1457600080fd5b50610241612e7e565b348015610c2957600080fd5b50610258613153565b348015610c3e57600080fd5b506102b060048036036020811015610c5557600080fd5b5035600160a060020a0316613159565b348015610c7157600080fd5b5061024161317b565b348015610c8657600080fd5b506102416137c1565b348015610c9b57600080fd5b506102d9613965565b600f5481565b600254600160a060020a031681565b600754600160a060020a031633145b90565b610cd3614128565b604080518082018252308031825260015483517f70a08231000000000000000000000000000000000000000000000000000000008152600481019290925292519192602080850193600160a060020a03909216926370a082319260248083019392829003018186803b158015610d4857600080fd5b505afa158015610d5c573d6000803e3d6000fd5b505050506040513d6020811015610d7257600080fd5b50519052905090565b602f54610100900460ff1681565b601e546000901515610d9e5750601c54610cc8565b60205460011415610dc757601e54601c54811515610db857fe5b04601c60000154019050610cc8565b50602054601c5402610cc8565b602f5460009060ff166005811115610de857fe5b905090565b600754600160a060020a03163314610e4f576040805160e560020a62461bcd02815260206004820152601d60248201527f4e6f7420612064657369676e61746564206d6173746572206e6f64652e000000604482015290519081900360640190fd5b6000602f5460ff166005811115610e6257fe5b148015610e7157506015544210155b15610e7e57610e7e61399a565b6001602f5460ff166005811115610e9157fe5b148015610ea057506016544210155b15610ee0576029546011541015610ed857610ed36060604051908101604052806033815260200161446660339139613a74565b610ee0565b610ee061399a565b6003602f5460ff166005811115610ef357fe5b148015610f025750601f544210155b15610f0f57610f0f61399a565b6002602f5460ff166005811115610f2257fe5b148015610f355750601a54601854014210155b15610f6657610f6660408051908101604052806020815260200160008051602061431b833981519152815250613a74565b602f5460029060ff166005811115610f7a57fe5b816005811115610f8657fe5b14610fc55760405160e560020a62461bcd0281526004018080602001828103825260248152602001806142f76024913960400191505060405180910390fd5b82518451148015610fd7575081518451145b1515610fe257600080fd5b600060065460ff166002811115610ff557fe5b146110345760405160e560020a62461bcd0281526004018080602001828103825260268152602001806144406026913960400191505060405180910390fd5b60005b845181101561115a57838181518110151561104e57fe5b9060200190602002015160136000878481518110151561106a57fe5b602090810291909101810151600160a060020a03168252818101929092526040908101600090812081805290925290205582518390829081106110a957fe5b906020019060200201516013600087848151811015156110c557fe5b602090810291909101810151600160a060020a03168252818101929092526040908101600090812060018252909252902055845160149086908390811061110857fe5b602090810291909101810151825460018082018555600094855292909320909201805473ffffffffffffffffffffffffffffffffffffffff1916600160a060020a039093169290921790915501611037565b5050505050565b611169614128565b5060408051808201825233600090815260136020908152838220828052808252848320548452600183528152929020549181019190915290565b6027805460408051602060026001851615610100026000190190941693909304601f810184900484028201840190925281815292918301828280156112295780601f106111fe57610100808354040283529160200191611229565b820191906000526020600020905b81548152906001019060200180831161120c57829003601f168201915b505050505081565b6019805460408051602060026001851615610100026000190190941693909304601f810184900484028201840190925281815292918301828280156112295780601f106111fe57610100808354040283529160200191611229565b600054600160a060020a031633146112a357600080fd5b80516112b6906027906020840190614143565b5050565b6112c333613159565b1515611319576040805160e560020a62461bcd02815260206004820152601260248201527f4e6f742070617274696369706174696e672e0000000000000000000000000000604482015290519081900360640190fd5b6000602f5460ff16600581111561132c57fe5b14801561133b57506015544210155b156113485761134861399a565b6001602f5460ff16600581111561135b57fe5b14801561136a57506016544210155b156113aa5760295460115410156113a25761139d6060604051908101604052806033815260200161446660339139613a74565b6113aa565b6113aa61399a565b6003602f5460ff1660058111156113bd57fe5b1480156113cc5750601f544210155b156113d9576113d961399a565b6002602f5460ff1660058111156113ec57fe5b1480156113ff5750601a54601854014210155b156114305761143060408051908101604052806020815260200160008051602061431b833981519152815250613a74565b602f5460059060ff168181111561144357fe5b81600581111561144f57fe5b1461148e5760405160e560020a62461bcd0281526004018080602001828103825260248152602001806142f76024913960400191505060405180910390fd5b6000601b5411806114b65750601e5460001080156114b65750602254600160a060020a031633145b151561150c576040805160e560020a62461bcd02815260206004820152601160248201527f4e6f207374616b6520746f20636c61696d000000000000000000000000000000604482015290519081900360640190fd5b602254600090600160a060020a031633141561152757601c54015b601b546001546040805160e060020a63a9059cbb028152336004820152939092016024840181905291519192600160a060020a039091169163a9059cbb916044808201926020929091908290030181600087803b15801561158757600080fd5b505af115801561159b573d6000803e3d6000fd5b505050506040513d60208110156115b157600080fd5b505033600081815260106020908152604091829020805460ff19169055815192835290517f5a53668be860a256c7ff92bff48881a9db38994032e2b90e5a0bdd51921fbeb79281900390910190a15050565b6060602880548060200260200160405190810160405280929190818152602001828054801561165157602002820191906000526020600020905b81548152602001906001019080831161163d575b5050505050905090565b600754600160a060020a031633146116bd576040805160e560020a62461bcd02815260206004820152601d60248201527f4e6f7420612064657369676e61746564206d6173746572206e6f64652e000000604482015290519081900360640190fd5b6000602f5460ff1660058111156116d057fe5b1480156116df57506015544210155b156116ec576116ec61399a565b6001602f5460ff1660058111156116ff57fe5b14801561170e57506016544210155b1561174e576029546011541015611746576117416060604051908101604052806033815260200161446660339139613a74565b61174e565b61174e61399a565b6003602f5460ff16600581111561176157fe5b1480156117705750601f544210155b1561177d5761177d61399a565b6002602f5460ff16600581111561179057fe5b1480156117a35750601a54601854014210155b156117d4576117d460408051908101604052806020815260200160008051602061431b833981519152815250613a74565b602f5460029060ff1660058111156117e857fe5b8160058111156117f457fe5b146118335760405160e560020a62461bcd0281526004018080602001828103825260248152602001806142f76024913960400191505060405180910390fd5b600060065460ff16600281111561184657fe5b146118855760405160e560020a62461bcd0281526004018080602001828103825260268152602001806144406026913960400191505060405180910390fd5b8151611898906008906020850190614143565b50600160098190556006805460ff19169091179055600f5460408051918252517f47c2e9e59e6d2347f314927d02f36b95696a09b5f0ac0bae119ff5ae937016559181900360200190a15050565b60608060608351604051908082528060200260200182016040528015611916578160200160208202803883390190505b50905060608451604051908082528060200260200182016040528015611946578160200160208202803883390190505b50905060005b8551811015611a165760136000878381518110151561196757fe5b602090810291909101810151600160a060020a03168252818101929092526040908101600090812081805290925290205483518490839081106119a657fe5b6020908102909101015285516013906000908890849081106119c457fe5b602090810291909101810151600160a060020a031682528181019290925260409081016000908120600182529092529020548251839083908110611a0457fe5b6020908102909101015260010161194c565b509092509050915091565b6000602f5460ff166005811115611a3457fe5b148015611a4357506015544210155b15611a5057611a5061399a565b6001602f5460ff166005811115611a6357fe5b148015611a7257506016544210155b15611ab2576029546011541015611aaa57611aa56060604051908101604052806033815260200161446660339139613a74565b611ab2565b611ab261399a565b6003602f5460ff166005811115611ac557fe5b148015611ad45750601f544210155b15611ae157611ae161399a565b6002602f5460ff166005811115611af457fe5b148015611b075750601a54601854014210155b15611b3857611b3860408051908101604052806020815260200160008051602061431b833981519152815250613a74565b611b4133613159565b1515611b97576040805160e560020a62461bcd02815260206004820152601260248201527f4e6f742070617274696369706174696e672e0000000000000000000000000000604482015290519081900360640190fd5b602f5460039060ff166005811115611bab57fe5b816005811115611bb757fe5b14611bf65760405160e560020a62461bcd0281526004018080602001828103825260248152602001806142f76024913960400191505060405180910390fd5b6000611c00610d89565b600154604080517fdd62ed3e00000000000000000000000000000000000000000000000000000000815233600482015230602482015290519293508392600160a060020a039092169163dd62ed3e91604480820192602092909190829003018186803b158015611c6f57600080fd5b505afa158015611c83573d6000803e3d6000fd5b505050506040513d6020811015611c9957600080fd5b50511015611cdb5760405160e560020a62461bcd02815260040180806020018281038252602581526020018061433b6025913960400191505060405180910390fd5b3360009081526021602052604090205460ff1615611d43576040805160e560020a62461bcd02815260206004820152601c60248201527f416c726561647920747269676765726564206120646973707574652e00000000604482015290519081900360640190fd5b601e5460001015611dda57600154602254601c546040805160e060020a63a9059cbb028152600160a060020a039384166004820152602481019290925251919092169163a9059cbb9160448083019260209291908290030181600087803b158015611dad57600080fd5b505af1158015611dc1573d6000803e3d6000fd5b505050506040513d6020811015611dd757600080fd5b50505b601c818155601e80546001908101909155336000818152602160209081526040808320805460ff1916861790556022805473ffffffffffffffffffffffffffffffffffffffff1916851790559354945484517f23b872dd000000000000000000000000000000000000000000000000000000008152600481019490945230602485015260448401529251600160a060020a03909416936323b872dd936064808501949193918390030190829087803b158015611e9557600080fd5b505af1158015611ea9573d6000803e3d6000fd5b505050506040513d6020811015611ebf57600080fd5b50611eca9050613bba565b611ed2613cd7565b602f805460ff191660011790556023544281016017819055601681905501601855611efb613d87565b602e805460ff191690556040805133815290517ff6d97c5e133e50668a6b3607d8748ef6599c3303babb2b08a515a5a67369f45f9181900360200190a15050565b6060601480548060200260200160405190810160405280929190818152602001828054801561165157602002820191906000526020600020905b8154600160a060020a03168152600190910190602001808311611f76575050505050905090565b6060601180548060200260200160405190810160405280929190818152602001828054801561165157602002820191906000526020600020908154600160a060020a03168152600190910190602001808311611f76575050505050905090565b601b5481565b6060600380548060200260200160405190810160405280929190818152602001828054801561165157602002820191906000526020600020908154600160a060020a03168152600190910190602001808311611f76575050505050905090565b6024805460408051602060026001851615610100026000190190941693909304601f810184900484028201840190925281815292918301828280156112295780601f106111fe57610100808354040283529160200191611229565b602f5460029060ff1660058111156120d257fe5b8160058111156120de57fe5b1461211d5760405160e560020a62461bcd0281526004018080602001828103825260248152602001806142f76024913960400191505060405180910390fd5b8261212733613dcf565b80156121385750612136610cb9565b155b151561218e576040805160e560020a62461bcd02815260206004820152601b60248201527f4e6f7420612076616c69642073656e64657220616464726573732e0000000000604482015290519081900360640190fd5b600160065460ff1660028111156121a157fe5b146121f6576040805160e560020a62461bcd02815260206004820152601760248201527f4e6f742076616c69646174696e6720726577617264732e000000000000000000604482015290519081900360640190fd5b600f54811461224f576040805160e560020a62461bcd02815260206004820152601a60248201527f56616c69646174696f6e20726f756e64206d69736d617463682e000000000000604482015290519081900360640190fd5b600f54336000908152600c6020526040902054106122b7576040805160e560020a62461bcd02815260206004820152601d60248201527f416c726561647920766f74656420666f72207468697320726f756e642e000000604482015290519081900360640190fd5b600a80546001019055600f54336000908152600c602090815260409182902092909255518451600e9286929182918401908083835b6020831061230b5780518252601f1990920191602091820191016122ec565b51815160209384036101000a600019018019909216911617905292019485525060405193849003019092205460ff1615159150612420905057600b8054600181018083556000929092528451612388917f0175b7a638427703f0dbe7bb9bbf987a2551717b34e79f33b5b1008d1fa01db901906020870190614143565b50506007600601836040518082805190602001908083835b602083106123bf5780518252601f1990920191602091820191016123a0565b51815160001960209485036101000a0190811690199190911617905292019485525060405193849003810190932080546001810182556000918252939020909201805473ffffffffffffffffffffffffffffffffffffffff19163317905550505b612428613e2c565b50505050565b6124366141c1565b6040805160c0810182526029548152602a546020820152602b5491810191909152602c546060820152602d546080820152602e5460a082019060ff16600181111561247d57fe5b9052905090565b600054600160a060020a031681565b600154600160a060020a031681565b602f5460029060ff1660058111156124b657fe5b8160058111156124c257fe5b146125015760405160e560020a62461bcd0281526004018080602001828103825260248152602001806142f76024913960400191505060405180910390fd5b8161250b33613dcf565b801561251c575061251a610cb9565b155b1515612572576040805160e560020a62461bcd02815260206004820152601b60248201527f4e6f7420612076616c69642073656e64657220616464726573732e0000000000604482015290519081900360640190fd5b600160065460ff16600281111561258557fe5b146125da576040805160e560020a62461bcd02815260206004820152601760248201527f4e6f742076616c69646174696e6720726577617264732e000000000000000000604482015290519081900360640190fd5b600f548114612633576040805160e560020a62461bcd02815260206004820152601a60248201527f56616c69646174696f6e20726f756e64206d69736d617463682e000000000000604482015290519081900360640190fd5b600f54336000908152600c60205260409020541061269b576040805160e560020a62461bcd02815260206004820152601d60248201527f416c726561647920766f74656420666f72207468697320726f756e642e000000604482015290519081900360640190fd5b600980546001019055600f54336000908152600c60205260409020556126bf613e47565b505050565b6126cc6141e0565b60a0604051908101604052806015548152602001601654815260200160175481526020016018548152602001601a54815250905090565b600754600160a060020a03163314612765576040805160e560020a62461bcd02815260206004820152601d60248201527f4e6f7420612064657369676e61746564206d6173746572206e6f64652e000000604482015290519081900360640190fd5b6000602f5460ff16600581111561277857fe5b14801561278757506015544210155b156127945761279461399a565b6001602f5460ff1660058111156127a757fe5b1480156127b657506016544210155b156127f65760295460115410156127ee576127e96060604051908101604052806033815260200161446660339139613a74565b6127f6565b6127f661399a565b6003602f5460ff16600581111561280957fe5b1480156128185750601f544210155b156128255761282561399a565b6002602f5460ff16600581111561283857fe5b14801561284b5750601a54601854014210155b1561287c5761287c60408051908101604052806020815260200160008051602061431b833981519152815250613a74565b602f5460029060ff16600581111561289057fe5b81600581111561289c57fe5b146128db5760405160e560020a62461bcd0281526004018080602001828103825260248152602001806142f76024913960400191505060405180910390fd5b600060065460ff1660028111156128ee57fe5b14612943576040805160e560020a62461bcd02815260206004820152601e60248201527f4f6e6c79206265666f72652076616c69646174696f6e207374617274732e0000604482015290519081900360640190fd5b81516126bf9060289060208501906141ff565b61295f33613159565b15156129b5576040805160e560020a62461bcd02815260206004820152601260248201527f4e6f742070617274696369706174696e672e0000000000000000000000000000604482015290519081900360640190fd5b6000602f5460ff1660058111156129c857fe5b1480156129d757506015544210155b156129e4576129e461399a565b6001602f5460ff1660058111156129f757fe5b148015612a0657506016544210155b15612a46576029546011541015612a3e57612a396060604051908101604052806033815260200161446660339139613a74565b612a46565b612a4661399a565b6003602f5460ff166005811115612a5957fe5b148015612a685750601f544210155b15612a7557612a7561399a565b6002602f5460ff166005811115612a8857fe5b148015612a9b5750601a54601854014210155b15612acc57612acc60408051908101604052806020815260200160008051602061431b833981519152815250613a74565b602f5460049060ff166005811115612ae057fe5b816005811115612aec57fe5b14612b2b5760405160e560020a62461bcd0281526004018080602001828103825260248152602001806142f76024913960400191505060405180910390fd5b336000908152601360209081526040808320838052909152808220546001835291205481158015612b5a575080155b15612ba95733600160a060020a03166000805160206143608339815191526040518080602001828103825260258152602001806143806025913960400191505060405180910390a25050612dd9565b33600090815260136020908152604080832083805290915290205430311080612c76575033600090815260136020908152604080832060018085529083529281902054925481517f70a082310000000000000000000000000000000000000000000000000000000081523060048201529151600160a060020a03909116926370a082319260248082019391829003018186803b158015612c4857600080fd5b505afa158015612c5c573d6000803e3d6000fd5b505050506040513d6020811015612c7257600080fd5b5051105b15612cc55733600160a060020a03166000805160206143608339815191526040518080602001828103825260458152602001806143fb6045913960600191505060405180910390a25050612dd9565b33600081815260136020908152604080832083805290915280822082905560018252808220829055516108fc85150291859190818181858888f19350505050158015612d15573d6000803e3d6000fd5b506000811115612da3576001546040805160e060020a63a9059cbb028152336004820152602481018490529051600160a060020a039092169163a9059cbb916044808201926020929091908290030181600087803b158015612d7657600080fd5b505af1158015612d8a573d6000803e3d6000fd5b505050506040513d6020811015612da057600080fd5b50505b6040805133815290517f63e32091e4445d16e29c33a6b264577c2d86694021aa4e6f4dd590048f5792e89181900360200190a150505b50565b612de46141e0565b506040805160a081018252601c548152601d546020808301919091525491810191909152601e546060820152601f546080820152602254600160a060020a03169091565b60606005805480602002602001604051908101604052809291908181526020018280548015611651576020028201919060005260206000209081548152602001906001019080831161163d575050505050905090565b600054600160a060020a03163314612e9557600080fd5b6000602f5460ff166005811115612ea857fe5b148015612eb757506015544210155b15612ec457612ec461399a565b6001602f5460ff166005811115612ed757fe5b148015612ee657506016544210155b15612f26576029546011541015612f1e57612f196060604051908101604052806033815260200161446660339139613a74565b612f26565b612f2661399a565b6003602f5460ff166005811115612f3957fe5b148015612f485750601f544210155b15612f5557612f5561399a565b6002602f5460ff166005811115612f6857fe5b148015612f7b5750601a54601854014210155b15612fac57612fac60408051908101604052806020815260200160008051602061431b833981519152815250613a74565b6004602f5460ff166005811115612fbf57fe5b1480612fdb57506005602f5460ff166005811115612fd957fe5b145b1515612fe657600080fd5b601a54601854016224ea0001421015612ffe57600080fd5b60008054604051600160a060020a0390911691303180156108fc02929091818181858888f19350505050158015613039573d6000803e3d6000fd5b50600154604080517f70a082310000000000000000000000000000000000000000000000000000000081523060048201529051600092600160a060020a0316916370a08231916024808301926020929190829003018186803b15801561309e57600080fd5b505afa1580156130b2573d6000803e3d6000fd5b505050506040513d60208110156130c857600080fd5b5051600154600080546040805160e060020a63a9059cbb028152600160a060020a03928316600482015260248101869052905194955092169263a9059cbb926044808201936020939283900390910190829087803b15801561312957600080fd5b505af115801561313d573d6000803e3d6000fd5b505050506040513d60208110156126bf57600080fd5b601a5481565b600160a060020a03811660009081526010602052604090205460ff165b919050565b6000602f5460ff16600581111561318e57fe5b14801561319d57506015544210155b156131aa576131aa61399a565b6001602f5460ff1660058111156131bd57fe5b1480156131cc57506016544210155b1561320c576029546011541015613204576131ff6060604051908101604052806033815260200161446660339139613a74565b61320c565b61320c61399a565b6003602f5460ff16600581111561321f57fe5b14801561322e5750601f544210155b1561323b5761323b61399a565b6002602f5460ff16600581111561324e57fe5b1480156132615750601a54601854014210155b156132925761329260408051908101604052806020815260200160008051602061431b833981519152815250613a74565b6005546000108015613377575060048054604080517f35fe903400000000000000000000000000000000000000000000000000000000815233938101848152602482019283526005805460448401819052600160a060020a03909516956335fe90349590949193606401908490801561332a57602002820191906000526020600020905b815481526020019060010190808311613316575b5050935050505060206040518083038186803b15801561334957600080fd5b505afa15801561335d573d6000803e3d6000fd5b505050506040513d602081101561337357600080fd5b5051155b156133d2576040805160208082526012908201527f5065726d697373696f6e2064656e6965642e00000000000000000000000000008183015290513391600080516020614360833981519152919081900360600190a26137bf565b602d546011541061343357604080516020808252600e908201527f4576656e742069732066756c6c2e0000000000000000000000000000000000008183015290513391600080516020614360833981519152919081900360600190a26137bf565b61343c33613159565b1561349757604080516020808252601e908201527f596f752061726520616c72656164792070617274696369706174696e672e00008183015290513391600080516020614360833981519152919081900360600190a26137bf565b6001602f5460ff1660058111156134aa57fe5b146134f75733600160a060020a03166000805160206143608339815191526040518080602001828103825260308152602001806143cb6030913960400191505060405180910390a26137bf565b6000601b5411801561359f5750601b54600154604080517fdd62ed3e0000000000000000000000000000000000000000000000000000000081523360048201523060248201529051600160a060020a039092169163dd62ed3e91604480820192602092909190829003018186803b15801561357157600080fd5b505afa158015613585573d6000803e3d6000fd5b505050506040513d602081101561359b57600080fd5b5051105b156135fa576040805160208082526019908201527f4e6f7420656e6f75676820746f6b656e73207374616b65642e000000000000008183015290513391600080516020614360833981519152919081900360600190a26137bf565b6000601b5411156136a857600154601b54604080517f23b872dd000000000000000000000000000000000000000000000000000000008152336004820152306024820152604481019290925251600160a060020a03909216916323b872dd916064808201926020929091908290030181600087803b15801561367b57600080fd5b505af115801561368f573d6000803e3d6000fd5b505050506040513d60208110156136a557600080fd5b50505b33600081815260106020526040808220805460ff1916600190811790915560118054918201815583527f31ecc21a745e3968a04e9570e4425bc18fa8019c68028196b546d1669c200c6801805473ffffffffffffffffffffffffffffffffffffffff19168417905560025481517fb9d3514d00000000000000000000000000000000000000000000000000000000815260048101949094529051600160a060020a03919091169263b9d3514d92602480830193919282900301818387803b15801561377257600080fd5b505af1158015613786573d6000803e3d6000fd5b50506040805133815290517f0940fd5e528ae9fa6c086f42387c791c3854e0febdf0717c2da155c9dbf1e86c9350908190036020019150a15b565b600054600160a060020a031633146137d857600080fd5b6017544210613831576040805160e560020a62461bcd02815260206004820152601660248201527f4576656e7420616c726561647920737461727465642e00000000000000000000604482015290519081900360640190fd5b602f805461ff0019166101001790554260185560408051808201909152601a81527f4576656e742063616e63656c65642062792063726561746f722e000000000000602082015261388190613a74565b6000601b5411156137bf5760005b601154811015612dd95760015460118054600160a060020a039092169163a9059cbb9190849081106138bd57fe5b6000918252602080832090910154601b54604080517c010000000000000000000000000000000000000000000000000000000063ffffffff8816028152600160a060020a03909316600484015260248301919091525160448083019491928390030190829087803b15801561393157600080fd5b505af1158015613945573d6000803e3d6000fd5b505050506040513d602081101561395b57600080fd5b505060010161388f565b61396d614128565b6040805180820191829052602580548252909160029060266020850180831161163d575050505050905090565b6004602f5460ff1660058111156139ad57fe5b106139ec5760405160e560020a62461bcd0281526004018080602001828103825260268152602001806143a56026913960400191505060405180910390fd5b602f5460ff1660058111156139fd57fe5b6001016005811115613a0b57fe5b602f805460ff19166001836005811115613a2157fe5b0217905550602f546040517fb9eb8a309bf89f3159b39681f485b6430fec1035b2b457edbcdadcdece888c0b9160ff169080826005811115613a5f57fe5b60ff16815260200191505060405180910390a1565b6004602f5460ff166005811115613a8757fe5b10613ac65760405160e560020a62461bcd0281526004018080602001828103825260268152602001806143a56026913960400191505060405180910390fd5b602f805460ff1916600517905560408051602080825283518183015283517f860b7e55e58bd6095b36c4b4016ed8a2e47cb8ebd020fa0e43b32649deb540c3938593928392918301919085019080838360005b83811015613b31578181015183820152602001613b19565b50505050905090810190601f168015613b5e5780820380516001836020036101000a031916815260200191505b509250505060405180910390a1602f546040517fb9eb8a309bf89f3159b39681f485b6430fec1035b2b457edbcdadcdece888c0b9160ff169080826005811115613ba457fe5b60ff16815260200191505060405180910390a150565b60006009819055600a8190555b600b54811015613c6e57600b8054600d919083908110613be357fe5b906000526020600020016040518082805460018160011615610100020316600290048015613c485780601f10613c26576101008083540402835291820191613c48565b820191906000526020600020905b815481529060010190602001808311613c34575b50509283525050604051908190036020019020613c66906000614239565b600101613bc7565b50613c7b600b6000614257565b6006805460ff1916905560005b600354811015612dd957600060076005016000600384815481101515613caa57fe5b6000918252602080832090910154600160a060020a03168352820192909252604001902055600101613c88565b60005b601454811015613d7a57600060136000601484815481101515613cf957fe5b600091825260208083209190910154600160a060020a03168352828101939093526040918201812081805290925281209190915560148054601391839185908110613d4057fe5b600091825260208083209190910154600160a060020a03168352828101939093526040918201812060018083529352209190915501613cda565b506137bf60146000614239565b602b80546103e8606482810381028290049092019283905560298054808402929092049182019055602a805493820292909204928301909155602d8054929091019091019055565b6000805b600354811015613e235782600160a060020a0316600382815481101515613df657fe5b600091825260209091200154600160a060020a03161415613e1b576001915050613176565b600101613dd3565b50600092915050565b602b54606403613e3a613e8f565b106137bf576137bf613eab565b602b54613e52613f9b565b106137bf576006805460ff1916600217905560285415613e8157601d544201601f55613e7c61399a565b6137bf565b42601f556137bf6004613fb1565b600354600a5460009190606402811515613ea557fe5b04905090565b60016007800160076001016040518082805460018160011615610100020316600290048015613f115780601f10613eef576101008083540402835291820191613f11565b820191906000526020600020905b815481529060010190602001808311613efd575b50509283525050604051602091819003919091019020805460ff1916911515919091179055600b54600a54600f54600954929091036001019101600019011115613f9357613e7c6040805190810160405280601a81526020017f436f6e73656e7375732063616e27742062652072656163686564000000000000815250613a74565b6137bf614008565b60035460095460009190606402811515613ea557fe5b602f805482919060ff19166001836005811115613fca57fe5b0217905550602f546040517fb9eb8a309bf89f3159b39681f485b6430fec1035b2b457edbcdadcdece888c0b9160ff169080826005811115613ba457fe5b600f80546001019055600b8054600d9190600090811061402457fe5b9060005260206000200160405180828054600181600116156101000203166002900480156140895780601f10614067576101008083540402835291820191614089565b820191906000526020600020905b815481529060010190602001808311614075575b50509283525050604051908190036020019020805460009081106140a957fe5b6000918252602090912001546007805473ffffffffffffffffffffffffffffffffffffffff1916600160a060020a039092169190911790556140e9613bba565b6140f1613cd7565b600f5460408051918252517fc785d855a24b92cb8266e0a85180a9fa4fe03d182f82a8555b01e1f986d267df9181900360200190a1565b60408051808201825290600290829080388339509192915050565b828054600181600116156101000203166002900490600052602060002090601f016020900481019282601f1061418457805160ff19168380011785556141b1565b828001600101855582156141b1579182015b828111156141b1578251825591602001919060010190614196565b506141bd929150614275565b5090565b60c0604051908101604052806006906020820280388339509192915050565b60a0604051908101604052806005906020820280388339509192915050565b8280548282559060005260206000209081019282156141b157916020028201828111156141b1578251825591602001919060010190614196565b5080546000825590600052602060002090810190612dd99190614275565b5080546000825590600052602060002090810190612dd9919061428f565b610cc891905b808211156141bd576000815560010161427b565b610cc891905b808211156141bd5760006142a982826142b2565b50600101614295565b50805460018160011615610100020316600290046000825580601f106142d85750612dd9565b601f016020900490600052602060002090810190612dd9919061427556fe4e6f7420706f737369626c6520696e2063757272656e74206576656e742073746174652e4576656e7420746f6f6b20746f6f206c6f6e6720746f20636f6d706c6574652e4e6f7420656e6f75676820746f6b656e73207374616b656420666f7220646973707574652ecfa5f641c29090a64bc13dcafdc8c23d82677807046c35d636ca9c57fc9cb257596f7520646f206e6f74206861766520616e79207265776172647320746f20636c61696d2e4576656e742073746174652063616e2774206265206d6f64696669656420616e796d6f72652e596f752063616e206e6f74206a6f696e20746865206576656e7420696e206974732063757272656e742073746174652e437269746963616c206572726f723a206e6f7420656e6f7567682062616c616e636520746f20706179206f7574207265776172642e20436f6e74616374205665726974792e4e6f7420706f737369626c6520696e20746869732076616c69646174696f6e2073746174652e4e6f7420656e6f756768207573657273206a6f696e656420666f72207265717569726564206d696e696d756d20766f7465732ea165627a7a7230582051a18636d491e8f5eb00e68aa6947660860fb3452e5b4c720de98c2f6b46e2eb0029",
  "source": "pragma solidity ^0.5.3;\n\n\nimport \"./verity_event/Implementation.sol\";\n\n\ncontract VerityEvent is Implementation {\n}\n",
  "sourcePath": "/Users/hiphop/code/verity-event/contracts/VerityEvent.sol",
  "compiler": {
    "name": "solc",
    "version": "0.5.3+commit.10d17f24.Emscripten.clang"
  },
  "schemaVersion": "3.0.1",
  "updatedAt": "2019-02-04T13:32:53.629Z",
  "devdoc": {
    "methods": {
      "isParticipating(address)": {
        "params": {
          "_user": "The addres to check for participation"
        },
        "return": "{bool} Whether the given address is a participant of this event"
      },
      "setRewards(address[],uint256[],uint256[])": {
        "params": {
          "_addresses": "A list of addresses",
          "_etherRewards": "A list of ether rewards, must be the exact same length as addresses",
          "_tokenRewards": "A list of token rewards, must be the exact same length as addresses"
        }
      }
    }
  },
  "userdoc": {
    "methods": {
      "approveRewards(uint256)": {
        "notice": "Called by event resolver nodes if they agree with rewards"
      },
      "claimReward()": {
        "notice": "Claim a reward. Needs to be called by the users themselves. Only available in the Reward state, after rewards have been received from the validation nodes."
      },
      "getConsensusRules()": {
        "notice": "Returns an array of consensus rules. [minTotalVotes, minConsensusVotes, minConsensusRatio, minParticipantRatio, maxParticipants]"
      },
      "getDisputeData()": {
        "notice": "Returns an array of dispute rules. [dispute amount, dispute timeout, dispute round]"
      },
      "getEventResolvers()": {
        "notice": "Returns the whole array of event resolvers."
      },
      "getReward()": {
        "notice": "Returns the calling user's assigned rewards. Can be 0. Only available to participating users in the Reward state, since rewards are not assigned before that."
      },
      "getRewards(address[])": {
        "notice": "Returns rewards for specified addresses. [[ethRewards, tokenRewards], [ethRewards, tokenRewards], ...]"
      },
      "getRewardsIndex()": {
        "notice": "Returns all the addresses that have rewards set."
      },
      "isMasterNode()": {
        "notice": "Checks if the address is current master node."
      },
      "isParticipating(address)": {
        "notice": "Checks whether an address is participating in this event."
      },
      "joinEvent()": {
        "notice": "Apply for participation in this event. Available only during the Application state. A transaction to this function has to be done by the users themselves, registering their wallet address as a participent. The transaction does not have to include any funds."
      },
      "markRewardsSet(string)": {
        "notice": "Triggered by the master node once rewards are set and ready to validate"
      },
      "rejectRewards(uint256,string)": {
        "notice": "Called by event resolvers if they don't agree with rewards"
      },
      "setRewards(address[],uint256[],uint256[])": {
        "notice": "Assign the actual rewards. Receives a list of addresses and a list rewards. Mapping between the two is done by the addresses' and reward's numerical index in the list, so order is important."
      },
      "triggerDispute()": {
        "notice": "Trigger a dispute."
      }
    }
  }
}