{
  "contractName": "VerityEvent",
  "abi": [
    {
      "constant": true,
      "inputs": [],
      "name": "rewardsValidationRound",
      "outputs": [
        {
          "name": "",
          "type": "uint256"
        }
      ],
      "payable": false,
      "stateMutability": "view",
      "type": "function"
    },
    {
      "constant": true,
      "inputs": [],
      "name": "eventRegistryAddress",
      "outputs": [
        {
          "name": "",
          "type": "address"
        }
      ],
      "payable": false,
      "stateMutability": "view",
      "type": "function"
    },
    {
      "constant": true,
      "inputs": [],
      "name": "isMasterNode",
      "outputs": [
        {
          "name": "",
          "type": "bool"
        }
      ],
      "payable": false,
      "stateMutability": "view",
      "type": "function"
    },
    {
      "constant": true,
      "inputs": [],
      "name": "getBalance",
      "outputs": [
        {
          "name": "",
          "type": "uint256[2]"
        }
      ],
      "payable": false,
      "stateMutability": "view",
      "type": "function"
    },
    {
      "constant": true,
      "inputs": [],
      "name": "requiredNextDisputeAmount",
      "outputs": [
        {
          "name": "",
          "type": "uint256"
        }
      ],
      "payable": false,
      "stateMutability": "view",
      "type": "function"
    },
    {
      "constant": true,
      "inputs": [],
      "name": "getState",
      "outputs": [
        {
          "name": "",
          "type": "uint256"
        }
      ],
      "payable": false,
      "stateMutability": "view",
      "type": "function"
    },
    {
      "constant": false,
      "inputs": [
        {
          "name": "_addresses",
          "type": "address[]"
        },
        {
          "name": "_etherRewards",
          "type": "uint256[]"
        },
        {
          "name": "_tokenRewards",
          "type": "uint256[]"
        }
      ],
      "name": "setRewards",
      "outputs": [],
      "payable": false,
      "stateMutability": "nonpayable",
      "type": "function"
    },
    {
      "constant": true,
      "inputs": [],
      "name": "getReward",
      "outputs": [
        {
          "name": "",
          "type": "uint256[2]"
        }
      ],
      "payable": false,
      "stateMutability": "view",
      "type": "function"
    },
    {
      "constant": true,
      "inputs": [],
      "name": "dataFeedHash",
      "outputs": [
        {
          "name": "",
          "type": "string"
        }
      ],
      "payable": false,
      "stateMutability": "view",
      "type": "function"
    },
    {
      "constant": true,
      "inputs": [],
      "name": "ipfsEventHash",
      "outputs": [
        {
          "name": "",
          "type": "string"
        }
      ],
      "payable": false,
      "stateMutability": "view",
      "type": "function"
    },
    {
      "constant": false,
      "inputs": [
        {
          "name": "_hash",
          "type": "string"
        }
      ],
      "name": "setDataFeedHash",
      "outputs": [],
      "payable": false,
      "stateMutability": "nonpayable",
      "type": "function"
    },
    {
      "constant": false,
      "inputs": [],
      "name": "claimFailed",
      "outputs": [],
      "payable": false,
      "stateMutability": "nonpayable",
      "type": "function"
    },
    {
      "constant": true,
      "inputs": [],
      "name": "getResults",
      "outputs": [
        {
          "name": "",
          "type": "bytes32[]"
        }
      ],
      "payable": false,
      "stateMutability": "view",
      "type": "function"
    },
    {
      "constant": false,
      "inputs": [
        {
          "name": "rewardsHash",
          "type": "string"
        }
      ],
      "name": "markRewardsSet",
      "outputs": [],
      "payable": false,
      "stateMutability": "nonpayable",
      "type": "function"
    },
    {
      "constant": true,
      "inputs": [
        {
          "name": "_addresses",
          "type": "address[]"
        }
      ],
      "name": "getRewards",
      "outputs": [
        {
          "name": "",
          "type": "uint256[]"
        },
        {
          "name": "",
          "type": "uint256[]"
        }
      ],
      "payable": false,
      "stateMutability": "view",
      "type": "function"
    },
    {
      "constant": false,
      "inputs": [],
      "name": "triggerDispute",
      "outputs": [],
      "payable": false,
      "stateMutability": "nonpayable",
      "type": "function"
    },
    {
      "constant": true,
      "inputs": [],
      "name": "getRewardsIndex",
      "outputs": [
        {
          "name": "",
          "type": "address[]"
        }
      ],
      "payable": false,
      "stateMutability": "view",
      "type": "function"
    },
    {
      "constant": true,
      "inputs": [],
      "name": "getParticipants",
      "outputs": [
        {
          "name": "",
          "type": "address[]"
        }
      ],
      "payable": false,
      "stateMutability": "view",
      "type": "function"
    },
    {
      "constant": true,
      "inputs": [],
      "name": "stakingAmount",
      "outputs": [
        {
          "name": "",
          "type": "uint256"
        }
      ],
      "payable": false,
      "stateMutability": "view",
      "type": "function"
    },
    {
      "constant": true,
      "inputs": [],
      "name": "getEventResolvers",
      "outputs": [
        {
          "name": "",
          "type": "address[]"
        }
      ],
      "payable": false,
      "stateMutability": "view",
      "type": "function"
    },
    {
      "constant": true,
      "inputs": [],
      "name": "eventName",
      "outputs": [
        {
          "name": "",
          "type": "string"
        }
      ],
      "payable": false,
      "stateMutability": "view",
      "type": "function"
    },
    {
      "constant": false,
      "inputs": [
        {
          "name": "validationRound",
          "type": "uint256"
        },
        {
          "name": "altHash",
          "type": "string"
        }
      ],
      "name": "rejectRewards",
      "outputs": [],
      "payable": false,
      "stateMutability": "nonpayable",
      "type": "function"
    },
    {
      "constant": true,
      "inputs": [],
      "name": "getConsensusRules",
      "outputs": [
        {
          "name": "",
          "type": "uint256[6]"
        }
      ],
      "payable": false,
      "stateMutability": "view",
      "type": "function"
    },
    {
      "constant": true,
      "inputs": [],
      "name": "owner",
      "outputs": [
        {
          "name": "",
          "type": "address"
        }
      ],
      "payable": false,
      "stateMutability": "view",
      "type": "function"
    },
    {
      "constant": true,
      "inputs": [],
      "name": "tokenAddress",
      "outputs": [
        {
          "name": "",
          "type": "address"
        }
      ],
      "payable": false,
      "stateMutability": "view",
      "type": "function"
    },
    {
      "constant": false,
      "inputs": [
        {
          "name": "validationRound",
          "type": "uint256"
        }
      ],
      "name": "approveRewards",
      "outputs": [],
      "payable": false,
      "stateMutability": "nonpayable",
      "type": "function"
    },
    {
      "constant": true,
      "inputs": [],
      "name": "getEventTimes",
      "outputs": [
        {
          "name": "",
          "type": "uint256[5]"
        }
      ],
      "payable": false,
      "stateMutability": "view",
      "type": "function"
    },
    {
      "constant": false,
      "inputs": [
        {
          "name": "_results",
          "type": "bytes32[]"
        }
      ],
      "name": "setResults",
      "outputs": [],
      "payable": false,
      "stateMutability": "nonpayable",
      "type": "function"
    },
    {
      "constant": false,
      "inputs": [],
      "name": "claimReward",
      "outputs": [],
      "payable": false,
      "stateMutability": "nonpayable",
      "type": "function"
    },
    {
      "constant": true,
      "inputs": [],
      "name": "getDisputeData",
      "outputs": [
        {
          "name": "",
          "type": "uint256[5]"
        },
        {
          "name": "",
          "type": "address"
        }
      ],
      "payable": false,
      "stateMutability": "view",
      "type": "function"
    },
    {
      "constant": true,
      "inputs": [],
      "name": "getRequiredRoles",
      "outputs": [
        {
          "name": "",
          "type": "uint256[]"
        }
      ],
      "payable": false,
      "stateMutability": "view",
      "type": "function"
    },
    {
      "constant": false,
      "inputs": [],
      "name": "recoverLeftovers",
      "outputs": [],
      "payable": false,
      "stateMutability": "nonpayable",
      "type": "function"
    },
    {
      "constant": true,
      "inputs": [],
      "name": "leftoversRecoverableAfter",
      "outputs": [
        {
          "name": "",
          "type": "uint256"
        }
      ],
      "payable": false,
      "stateMutability": "view",
      "type": "function"
    },
    {
      "constant": true,
      "inputs": [
        {
          "name": "_user",
          "type": "address"
        }
      ],
      "name": "isParticipating",
      "outputs": [
        {
          "name": "",
          "type": "bool"
        }
      ],
      "payable": false,
      "stateMutability": "view",
      "type": "function"
    },
    {
      "constant": false,
      "inputs": [],
      "name": "joinEvent",
      "outputs": [],
      "payable": false,
      "stateMutability": "nonpayable",
      "type": "function"
    },
    {
      "constant": true,
      "inputs": [],
      "name": "getEventCategory",
      "outputs": [
        {
          "name": "",
          "type": "bytes32[2]"
        }
      ],
      "payable": false,
      "stateMutability": "view",
      "type": "function"
    },
    {
      "payable": true,
      "stateMutability": "payable",
      "type": "fallback"
    },
    {
      "anonymous": false,
      "inputs": [
        {
          "indexed": false,
          "name": "newState",
          "type": "uint8"
        }
      ],
      "name": "StateTransition",
      "type": "event"
    },
    {
      "anonymous": false,
      "inputs": [
        {
          "indexed": false,
          "name": "wallet",
          "type": "address"
        }
      ],
      "name": "JoinEvent",
      "type": "event"
    },
    {
      "anonymous": false,
      "inputs": [
        {
          "indexed": false,
          "name": "recipient",
          "type": "address"
        }
      ],
      "name": "ClaimReward",
      "type": "event"
    },
    {
      "anonymous": false,
      "inputs": [
        {
          "indexed": true,
          "name": "byAddress",
          "type": "address"
        },
        {
          "indexed": false,
          "name": "description",
          "type": "string"
        }
      ],
      "name": "Error",
      "type": "event"
    },
    {
      "anonymous": false,
      "inputs": [
        {
          "indexed": false,
          "name": "description",
          "type": "string"
        }
      ],
      "name": "EventFailed",
      "type": "event"
    },
    {
      "anonymous": false,
      "inputs": [
        {
          "indexed": false,
          "name": "validationRound",
          "type": "uint256"
        }
      ],
      "name": "ValidationStarted",
      "type": "event"
    },
    {
      "anonymous": false,
      "inputs": [
        {
          "indexed": false,
          "name": "validationRound",
          "type": "uint256"
        }
      ],
      "name": "ValidationRestart",
      "type": "event"
    },
    {
      "anonymous": false,
      "inputs": [
        {
          "indexed": false,
          "name": "byAddress",
          "type": "address"
        }
      ],
      "name": "DisputeTriggered",
      "type": "event"
    },
    {
      "anonymous": false,
      "inputs": [
        {
          "indexed": false,
          "name": "recipient",
          "type": "address"
        }
      ],
      "name": "ClaimStake",
      "type": "event"
    }
  ],
  "bytecode": "0x60806040526006805460ff19908116909155602f8054909116905534801561002657600080fd5b506143bc806100366000396000f3fe6080604052600436106101ba577c01000000000000000000000000000000000000000000000000000000006000350462f1614281146101bc578063073f03fb146101e357806311e956c81461021457806312065fe01461023d578063181b3f5a1461028d5780631865c57d146102a25780631a0ddce9146102b75780633d18b9121461046f5780634227357c1461048457806342380eaf1461050e578063437933cc1461052357806345f99d51146105d65780634717f97c146105eb5780634b766b9514610650578063510ccb431461070357806352f91acf1461084c57806354e33cf0146108615780635aa68ac014610876578063739a3e021461088b57806374539f98146108a05780638043c9c0146108b55780638126cb1e146108ca57806381c2d875146109845780638da5cb5b146109ae5780639d76ea58146109c3578063a77ae839146109d8578063ab95b58614610a02578063ac88490214610a2c578063b88a802f14610adc578063d6e9b01914610af1578063e0807f8914610b57578063efba9bd214610b6c578063f38a803f14610b81578063f4caee8814610b96578063f9010d1914610bc9578063fce1a10c14610bde575b005b3480156101c857600080fd5b506101d1610bf3565b60408051918252519081900360200190f35b3480156101ef57600080fd5b506101f8610bf9565b60408051600160a060020a039092168252519081900360200190f35b34801561022057600080fd5b50610229610c08565b604080519115158252519081900360200190f35b34801561024957600080fd5b50610252610c1a565b6040518082600260200280838360005b8381101561027a578181015183820152602001610262565b5050505090500191505060405180910390f35b34801561029957600080fd5b506101d1610cca565b3480156102ae57600080fd5b506101d1610d15565b3480156102c357600080fd5b506101ba600480360360608110156102da57600080fd5b8101906020810181356401000000008111156102f557600080fd5b82018360208201111561030757600080fd5b8035906020019184602083028401116401000000008311171561032957600080fd5b919080806020026020016040519081016040528093929190818152602001838360200280828437600092019190915250929594936020810193503591505064010000000081111561037957600080fd5b82018360208201111561038b57600080fd5b803590602001918460208302840111640100000000831117156103ad57600080fd5b91908080602002602001604051908101604052809392919081815260200183836020028082843760009201919091525092959493602081019350359150506401000000008111156103fd57600080fd5b82018360208201111561040f57600080fd5b8035906020019184602083028401116401000000008311171561043157600080fd5b919080806020026020016040519081016040528093929190818152602001838360200280828437600092019190915250929550610d2e945050505050565b34801561047b57600080fd5b50610252611110565b34801561049057600080fd5b50610499611152565b6040805160208082528351818301528351919283929083019185019080838360005b838110156104d35781810151838201526020016104bb565b50505050905090810190601f1680156105005780820380516001836020036101000a031916815260200191505b509250505060405180910390f35b34801561051a57600080fd5b506104996111e0565b34801561052f57600080fd5b506101ba6004803603602081101561054657600080fd5b81019060208101813564010000000081111561056157600080fd5b82018360208201111561057357600080fd5b8035906020019184600183028401116401000000008311171561059557600080fd5b91908080601f01602080910402602001604051908101604052809392919081815260200183838082843760009201919091525092955061123b945050505050565b3480156105e257600080fd5b506101ba611269565b3480156105f757600080fd5b506106006115e4565b60408051602080825283518183015283519192839290830191858101910280838360005b8381101561063c578181015183820152602001610624565b505050509050019250505060405180910390f35b34801561065c57600080fd5b506101ba6004803603602081101561067357600080fd5b81019060208101813564010000000081111561068e57600080fd5b8201836020820111156106a057600080fd5b803590602001918460018302840111640100000000831117156106c257600080fd5b91908080601f01602080910402602001604051908101604052809392919081815260200183838082843760009201919091525092955061163c945050505050565b34801561070f57600080fd5b506107b36004803603602081101561072657600080fd5b81019060208101813564010000000081111561074157600080fd5b82018360208201111561075357600080fd5b8035906020019184602083028401116401000000008311171561077557600080fd5b919080806020026020016040519081016040528093929190818152602001838360200280828437600092019190915250929550611935945050505050565b604051808060200180602001838103835285818151815260200191508051906020019060200280838360005b838110156107f75781810151838201526020016107df565b50505050905001838103825284818151815260200191508051906020019060200280838360005b8381101561083657818101518382015260200161081e565b5050505090500194505050505060405180910390f35b34801561085857600080fd5b506101ba611a70565b34801561086d57600080fd5b50610600611ff9565b34801561088257600080fd5b5061060061205a565b34801561089757600080fd5b506101d16120ba565b3480156108ac57600080fd5b506106006120c0565b3480156108c157600080fd5b50610499612120565b3480156108d657600080fd5b506101ba600480360360408110156108ed57600080fd5b8135919081019060408101602082013564010000000081111561090f57600080fd5b82018360208201111561092157600080fd5b8035906020019184600183028401116401000000008311171561094357600080fd5b91908080601f01602080910402602001604051908101604052809392919081815260200183838082843760009201919091525092955061217b945050505050565b34801561099057600080fd5b506109996124fe565b60405181518152808260c08083836020610262565b3480156109ba57600080fd5b506101f8612554565b3480156109cf57600080fd5b506101f8612563565b3480156109e457600080fd5b506101ba600480360360208110156109fb57600080fd5b5035612572565b348015610a0e57600080fd5b50610a176127a7565b60405181518152808260a08083836020610262565b348015610a3857600080fd5b506101ba60048036036020811015610a4f57600080fd5b810190602081018135640100000000811115610a6a57600080fd5b820183602082011115610a7c57600080fd5b80359060200191846020830284011164010000000083111715610a9e57600080fd5b9190808060200260200160405190810160405280939291908181526020018383602002808284376000920191909152509295506127e6945050505050565b348015610ae857600080fd5b506101ba612a03565b348015610afd57600080fd5b50610b06612f49565b604051808360a080838360005b83811015610b2b578181015183820152602001610b13565b5050505090500182600160a060020a0316600160a060020a031681526020019250505060405180910390f35b348015610b6357600080fd5b50610600612f95565b348015610b7857600080fd5b506101ba612feb565b348015610b8d57600080fd5b506101d16132df565b348015610ba257600080fd5b5061022960048036036020811015610bb957600080fd5b5035600160a060020a03166132e5565b348015610bd557600080fd5b506101ba613307565b348015610bea57600080fd5b506102526139a0565b600f5481565b600254600160a060020a031681565b600754600160a060020a031633145b90565b610c22614122565b604080518082018252308031825260015483517f70a08231000000000000000000000000000000000000000000000000000000008152600481019290925292519192602080850193600160a060020a03909216926370a082319260248083019392829003018186803b158015610c9757600080fd5b505afa158015610cab573d6000803e3d6000fd5b505050506040513d6020811015610cc157600080fd5b50519052905090565b601e546000901515610cdf5750601c54610c17565b60205460011415610d0857601e54601c54811515610cf957fe5b04601c60000154019050610c17565b50602054601c5402610c17565b602f5460009060ff166005811115610d2957fe5b905090565b600754600160a060020a03163314610d90576040805160e560020a62461bcd02815260206004820152601d60248201527f4e6f7420612064657369676e61746564206d6173746572206e6f64652e000000604482015290519081900360640190fd5b6000602f5460ff166005811115610da357fe5b148015610db257506015544210155b15610dbf57610dbf6139d5565b6001602f5460ff166005811115610dd257fe5b148015610de157506016544210155b15610e40576029546011541015610e3857610e33606060405190810160405280603381526020016000805160206143118339815191528152602001600080516020614351833981519152815250613aeb565b610e40565b610e406139d5565b6003602f5460ff166005811115610e5357fe5b148015610e625750601f544210155b15610e6f57610e6f6139d5565b6002602f5460ff166005811115610e8257fe5b148015610e955750601a54601854014210155b15610ec657610ec66040805190810160405280602081526020016000805160206142f1833981519152815250613aeb565b602f5460029060ff166005811115610eda57fe5b816005811115610ee657fe5b14610f38576040805160e560020a62461bcd02815260206004820152602480820152600080516020614371833981519152604482015260e160020a6330ba329702606482015290519081900360840190fd5b82518451148015610f4a575081518451145b1515610f5557600080fd5b600060065460ff166002811115610f6857fe5b14610fe3576040805160e560020a62461bcd02815260206004820152602660248201527f4e6f7420706f737369626c6520696e20746869732076616c69646174696f6e2060448201527f73746174652e0000000000000000000000000000000000000000000000000000606482015290519081900360840190fd5b60005b8451811015611109578381815181101515610ffd57fe5b9060200190602002015160136000878481518110151561101957fe5b602090810291909101810151600160a060020a031682528181019290925260409081016000908120818052909252902055825183908290811061105857fe5b9060200190602002015160136000878481518110151561107457fe5b602090810291909101810151600160a060020a0316825281810192909252604090810160009081206001825290925290205584516014908690839081106110b757fe5b602090810291909101810151825460018082018555600094855292909320909201805473ffffffffffffffffffffffffffffffffffffffff1916600160a060020a039093169290921790915501610fe6565b5050505050565b611118614122565b5060408051808201825233600090815260136020908152838220828052808252848320548452600183528152929020549181019190915290565b6027805460408051602060026001851615610100026000190190941693909304601f810184900484028201840190925281815292918301828280156111d85780601f106111ad576101008083540402835291602001916111d8565b820191906000526020600020905b8154815290600101906020018083116111bb57829003601f168201915b505050505081565b6019805460408051602060026001851615610100026000190190941693909304601f810184900484028201840190925281815292918301828280156111d85780601f106111ad576101008083540402835291602001916111d8565b600054600160a060020a0316331461125257600080fd5b805161126590602790602084019061413d565b5050565b611272336132e5565b15156112c8576040805160e560020a62461bcd02815260206004820152601260248201527f4e6f742070617274696369706174696e672e0000000000000000000000000000604482015290519081900360640190fd5b6000602f5460ff1660058111156112db57fe5b1480156112ea57506015544210155b156112f7576112f76139d5565b6001602f5460ff16600581111561130a57fe5b14801561131957506016544210155b156113785760295460115410156113705761136b606060405190810160405280603381526020016000805160206143118339815191528152602001600080516020614351833981519152815250613aeb565b611378565b6113786139d5565b6003602f5460ff16600581111561138b57fe5b14801561139a5750601f544210155b156113a7576113a76139d5565b6002602f5460ff1660058111156113ba57fe5b1480156113cd5750601a54601854014210155b156113fe576113fe6040805190810160405280602081526020016000805160206142f1833981519152815250613aeb565b602f5460059060ff168181111561141157fe5b81600581111561141d57fe5b1461146f576040805160e560020a62461bcd02815260206004820152602480820152600080516020614371833981519152604482015260e160020a6330ba329702606482015290519081900360840190fd5b6000601b5411806114975750601e5460001080156114975750602254600160a060020a031633145b15156114ed576040805160e560020a62461bcd02815260206004820152601160248201527f4e6f207374616b6520746f20636c61696d000000000000000000000000000000604482015290519081900360640190fd5b602254600090600160a060020a031633141561150857601c54015b601b546001546040805160e060020a63a9059cbb028152336004820152939092016024840181905291519192600160a060020a039091169163a9059cbb916044808201926020929091908290030181600087803b15801561156857600080fd5b505af115801561157c573d6000803e3d6000fd5b505050506040513d602081101561159257600080fd5b505033600081815260106020908152604091829020805460ff19169055815192835290517f5a53668be860a256c7ff92bff48881a9db38994032e2b90e5a0bdd51921fbeb79281900390910190a15050565b6060602880548060200260200160405190810160405280929190818152602001828054801561163257602002820191906000526020600020905b81548152602001906001019080831161161e575b5050505050905090565b600754600160a060020a0316331461169e576040805160e560020a62461bcd02815260206004820152601d60248201527f4e6f7420612064657369676e61746564206d6173746572206e6f64652e000000604482015290519081900360640190fd5b6000602f5460ff1660058111156116b157fe5b1480156116c057506015544210155b156116cd576116cd6139d5565b6001602f5460ff1660058111156116e057fe5b1480156116ef57506016544210155b1561174e57602954601154101561174657611741606060405190810160405280603381526020016000805160206143118339815191528152602001600080516020614351833981519152815250613aeb565b61174e565b61174e6139d5565b6003602f5460ff16600581111561176157fe5b1480156117705750601f544210155b1561177d5761177d6139d5565b6002602f5460ff16600581111561179057fe5b1480156117a35750601a54601854014210155b156117d4576117d46040805190810160405280602081526020016000805160206142f1833981519152815250613aeb565b602f5460029060ff1660058111156117e857fe5b8160058111156117f457fe5b14611846576040805160e560020a62461bcd02815260206004820152602480820152600080516020614371833981519152604482015260e160020a6330ba329702606482015290519081900360840190fd5b600060065460ff16600281111561185957fe5b146118d4576040805160e560020a62461bcd02815260206004820152602660248201527f4e6f7420706f737369626c6520696e20746869732076616c69646174696f6e2060448201527f73746174652e0000000000000000000000000000000000000000000000000000606482015290519081900360840190fd5b81516118e790600890602085019061413d565b50600160098190556006805460ff19169091179055600f5460408051918252517f47c2e9e59e6d2347f314927d02f36b95696a09b5f0ac0bae119ff5ae937016559181900360200190a15050565b60608060608351604051908082528060200260200182016040528015611965578160200160208202803883390190505b50905060608451604051908082528060200260200182016040528015611995578160200160208202803883390190505b50905060005b8551811015611a65576013600087838151811015156119b657fe5b602090810291909101810151600160a060020a03168252818101929092526040908101600090812081805290925290205483518490839081106119f557fe5b602090810290910101528551601390600090889084908110611a1357fe5b602090810291909101810151600160a060020a031682528181019290925260409081016000908120600182529092529020548251839083908110611a5357fe5b6020908102909101015260010161199b565b509092509050915091565b6000602f5460ff166005811115611a8357fe5b148015611a9257506015544210155b15611a9f57611a9f6139d5565b6001602f5460ff166005811115611ab257fe5b148015611ac157506016544210155b15611b20576029546011541015611b1857611b13606060405190810160405280603381526020016000805160206143118339815191528152602001600080516020614351833981519152815250613aeb565b611b20565b611b206139d5565b6003602f5460ff166005811115611b3357fe5b148015611b425750601f544210155b15611b4f57611b4f6139d5565b6002602f5460ff166005811115611b6257fe5b148015611b755750601a54601854014210155b15611ba657611ba66040805190810160405280602081526020016000805160206142f1833981519152815250613aeb565b611baf336132e5565b1515611c05576040805160e560020a62461bcd02815260206004820152601260248201527f4e6f742070617274696369706174696e672e0000000000000000000000000000604482015290519081900360640190fd5b602f5460039060ff166005811115611c1957fe5b816005811115611c2557fe5b14611c77576040805160e560020a62461bcd02815260206004820152602480820152600080516020614371833981519152604482015260e160020a6330ba329702606482015290519081900360840190fd5b6000611c81610cca565b600154604080517fdd62ed3e00000000000000000000000000000000000000000000000000000000815233600482015230602482015290519293508392600160a060020a039092169163dd62ed3e91604480820192602092909190829003018186803b158015611cf057600080fd5b505afa158015611d04573d6000803e3d6000fd5b505050506040513d6020811015611d1a57600080fd5b50511015611d98576040805160e560020a62461bcd02815260206004820152602560248201527f4e6f7420656e6f75676820746f6b656e73207374616b656420666f722064697360448201527f707574652e000000000000000000000000000000000000000000000000000000606482015290519081900360840190fd5b3360009081526021602052604090205460ff1615611e00576040805160e560020a62461bcd02815260206004820152601c60248201527f416c726561647920747269676765726564206120646973707574652e00000000604482015290519081900360640190fd5b601e5460001015611e9757600154602254601c546040805160e060020a63a9059cbb028152600160a060020a039384166004820152602481019290925251919092169163a9059cbb9160448083019260209291908290030181600087803b158015611e6a57600080fd5b505af1158015611e7e573d6000803e3d6000fd5b505050506040513d6020811015611e9457600080fd5b50505b601c818155601e80546001908101909155336000818152602160209081526040808320805460ff1916861790556022805473ffffffffffffffffffffffffffffffffffffffff1916851790559354945484517f23b872dd000000000000000000000000000000000000000000000000000000008152600481019490945230602485015260448401529251600160a060020a03909416936323b872dd936064808501949193918390030190829087803b158015611f5257600080fd5b505af1158015611f66573d6000803e3d6000fd5b505050506040513d6020811015611f7c57600080fd5b50611f879050613c21565b611f8f613d3e565b602f805460ff191660011790556023544281016017819055601681905501601855611fb8613dee565b602e805460ff191690556040805133815290517ff6d97c5e133e50668a6b3607d8748ef6599c3303babb2b08a515a5a67369f45f9181900360200190a15050565b6060601480548060200260200160405190810160405280929190818152602001828054801561163257602002820191906000526020600020905b8154600160a060020a03168152600190910190602001808311612033575050505050905090565b6060601180548060200260200160405190810160405280929190818152602001828054801561163257602002820191906000526020600020908154600160a060020a03168152600190910190602001808311612033575050505050905090565b601b5481565b6060600380548060200260200160405190810160405280929190818152602001828054801561163257602002820191906000526020600020908154600160a060020a03168152600190910190602001808311612033575050505050905090565b6024805460408051602060026001851615610100026000190190941693909304601f810184900484028201840190925281815292918301828280156111d85780601f106111ad576101008083540402835291602001916111d8565b602f5460029060ff16600581111561218f57fe5b81600581111561219b57fe5b146121ed576040805160e560020a62461bcd02815260206004820152602480820152600080516020614371833981519152604482015260e160020a6330ba329702606482015290519081900360840190fd5b826121f733613e36565b80156122085750612206610c08565b155b151561225e576040805160e560020a62461bcd02815260206004820152601b60248201527f4e6f7420612076616c69642073656e64657220616464726573732e0000000000604482015290519081900360640190fd5b600160065460ff16600281111561227157fe5b146122c6576040805160e560020a62461bcd02815260206004820152601760248201527f4e6f742076616c69646174696e6720726577617264732e000000000000000000604482015290519081900360640190fd5b600f54811461231f576040805160e560020a62461bcd02815260206004820152601a60248201527f56616c69646174696f6e20726f756e64206d69736d617463682e000000000000604482015290519081900360640190fd5b600f54336000908152600c602052604090205410612387576040805160e560020a62461bcd02815260206004820152601d60248201527f416c726561647920766f74656420666f72207468697320726f756e642e000000604482015290519081900360640190fd5b600a80546001019055600f54336000908152600c602090815260409182902092909255518451600e9286929182918401908083835b602083106123db5780518252601f1990920191602091820191016123bc565b51815160209384036101000a600019018019909216911617905292019485525060405193849003019092205460ff16151591506124f0905057600b8054600181018083556000929092528451612458917f0175b7a638427703f0dbe7bb9bbf987a2551717b34e79f33b5b1008d1fa01db90190602087019061413d565b50506007600601836040518082805190602001908083835b6020831061248f5780518252601f199092019160209182019101612470565b51815160001960209485036101000a0190811690199190911617905292019485525060405193849003810190932080546001810182556000918252939020909201805473ffffffffffffffffffffffffffffffffffffffff19163317905550505b6124f8613e93565b50505050565b6125066141bb565b6040805160c0810182526029548152602a546020820152602b5491810191909152602c546060820152602d546080820152602e5460a082019060ff16600181111561254d57fe5b9052905090565b600054600160a060020a031681565b600154600160a060020a031681565b602f5460029060ff16600581111561258657fe5b81600581111561259257fe5b146125e4576040805160e560020a62461bcd02815260206004820152602480820152600080516020614371833981519152604482015260e160020a6330ba329702606482015290519081900360840190fd5b816125ee33613e36565b80156125ff57506125fd610c08565b155b1515612655576040805160e560020a62461bcd02815260206004820152601b60248201527f4e6f7420612076616c69642073656e64657220616464726573732e0000000000604482015290519081900360640190fd5b600160065460ff16600281111561266857fe5b146126bd576040805160e560020a62461bcd02815260206004820152601760248201527f4e6f742076616c69646174696e6720726577617264732e000000000000000000604482015290519081900360640190fd5b600f548114612716576040805160e560020a62461bcd02815260206004820152601a60248201527f56616c69646174696f6e20726f756e64206d69736d617463682e000000000000604482015290519081900360640190fd5b600f54336000908152600c60205260409020541061277e576040805160e560020a62461bcd02815260206004820152601d60248201527f416c726561647920766f74656420666f72207468697320726f756e642e000000604482015290519081900360640190fd5b600980546001019055600f54336000908152600c60205260409020556127a2613eae565b505050565b6127af6141da565b60a0604051908101604052806015548152602001601654815260200160175481526020016018548152602001601a54815250905090565b600754600160a060020a03163314612848576040805160e560020a62461bcd02815260206004820152601d60248201527f4e6f7420612064657369676e61746564206d6173746572206e6f64652e000000604482015290519081900360640190fd5b6000602f5460ff16600581111561285b57fe5b14801561286a57506015544210155b15612877576128776139d5565b6001602f5460ff16600581111561288a57fe5b14801561289957506016544210155b156128f85760295460115410156128f0576128eb606060405190810160405280603381526020016000805160206143118339815191528152602001600080516020614351833981519152815250613aeb565b6128f8565b6128f86139d5565b6003602f5460ff16600581111561290b57fe5b14801561291a5750601f544210155b15612927576129276139d5565b6002602f5460ff16600581111561293a57fe5b14801561294d5750601a54601854014210155b1561297e5761297e6040805190810160405280602081526020016000805160206142f1833981519152815250613aeb565b602f5460029060ff16600581111561299257fe5b81600581111561299e57fe5b146129f0576040805160e560020a62461bcd02815260206004820152602480820152600080516020614371833981519152604482015260e160020a6330ba329702606482015290519081900360840190fd5b81516127a29060289060208501906141f9565b612a0c336132e5565b1515612a62576040805160e560020a62461bcd02815260206004820152601260248201527f4e6f742070617274696369706174696e672e0000000000000000000000000000604482015290519081900360640190fd5b6000602f5460ff166005811115612a7557fe5b148015612a8457506015544210155b15612a9157612a916139d5565b6001602f5460ff166005811115612aa457fe5b148015612ab357506016544210155b15612b12576029546011541015612b0a57612b05606060405190810160405280603381526020016000805160206143118339815191528152602001600080516020614351833981519152815250613aeb565b612b12565b612b126139d5565b6003602f5460ff166005811115612b2557fe5b148015612b345750601f544210155b15612b4157612b416139d5565b6002602f5460ff166005811115612b5457fe5b148015612b675750601a54601854014210155b15612b9857612b986040805190810160405280602081526020016000805160206142f1833981519152815250613aeb565b602f5460049060ff166005811115612bac57fe5b816005811115612bb857fe5b14612c0a576040805160e560020a62461bcd02815260206004820152602480820152600080516020614371833981519152604482015260e160020a6330ba329702606482015290519081900360840190fd5b336000908152601360209081526040808320838052909152808220546001835291205481158015612c39575080155b15612cbc576040805160208082526025908201527f596f7520646f206e6f74206861766520616e79207265776172647320746f2063818301527f6c61696d2e000000000000000000000000000000000000000000000000000000606082015290513391600080516020614331833981519152919081900360800190a25050612f46565b33600090815260136020908152604080832083805290915290205430311080612d89575033600090815260136020908152604080832060018085529083529281902054925481517f70a082310000000000000000000000000000000000000000000000000000000081523060048201529151600160a060020a03909116926370a082319260248082019391829003018186803b158015612d5b57600080fd5b505afa158015612d6f573d6000803e3d6000fd5b505050506040513d6020811015612d8557600080fd5b5051105b15612e32576040805160208082526045908201527f437269746963616c206572726f723a206e6f7420656e6f7567682062616c616e818301527f636520746f20706179206f7574207265776172642e20436f6e7461637420566560608201527f726974792e000000000000000000000000000000000000000000000000000000608082015290513391600080516020614331833981519152919081900360a00190a25050612f46565b33600081815260136020908152604080832083805290915280822082905560018252808220829055516108fc85150291859190818181858888f19350505050158015612e82573d6000803e3d6000fd5b506000811115612f10576001546040805160e060020a63a9059cbb028152336004820152602481018490529051600160a060020a039092169163a9059cbb916044808201926020929091908290030181600087803b158015612ee357600080fd5b505af1158015612ef7573d6000803e3d6000fd5b505050506040513d6020811015612f0d57600080fd5b50505b6040805133815290517f63e32091e4445d16e29c33a6b264577c2d86694021aa4e6f4dd590048f5792e89181900360200190a150505b50565b612f516141da565b506040805160a081018252601c548152601d546020808301919091525491810191909152601e546060820152601f546080820152602254600160a060020a03169091565b60606005805480602002602001604051908101604052809291908181526020018280548015611632576020028201919060005260206000209081548152602001906001019080831161161e575050505050905090565b600054600160a060020a0316331461300257600080fd5b6000602f5460ff16600581111561301557fe5b14801561302457506015544210155b15613031576130316139d5565b6001602f5460ff16600581111561304457fe5b14801561305357506016544210155b156130b25760295460115410156130aa576130a5606060405190810160405280603381526020016000805160206143118339815191528152602001600080516020614351833981519152815250613aeb565b6130b2565b6130b26139d5565b6003602f5460ff1660058111156130c557fe5b1480156130d45750601f544210155b156130e1576130e16139d5565b6002602f5460ff1660058111156130f457fe5b1480156131075750601a54601854014210155b15613138576131386040805190810160405280602081526020016000805160206142f1833981519152815250613aeb565b6004602f5460ff16600581111561314b57fe5b148061316757506005602f5460ff16600581111561316557fe5b145b151561317257600080fd5b601a54601854016224ea000142101561318a57600080fd5b60008054604051600160a060020a0390911691303180156108fc02929091818181858888f193505050501580156131c5573d6000803e3d6000fd5b50600154604080517f70a082310000000000000000000000000000000000000000000000000000000081523060048201529051600092600160a060020a0316916370a08231916024808301926020929190829003018186803b15801561322a57600080fd5b505afa15801561323e573d6000803e3d6000fd5b505050506040513d602081101561325457600080fd5b5051600154600080546040805160e060020a63a9059cbb028152600160a060020a03928316600482015260248101869052905194955092169263a9059cbb926044808201936020939283900390910190829087803b1580156132b557600080fd5b505af11580156132c9573d6000803e3d6000fd5b505050506040513d60208110156127a257600080fd5b601a5481565b600160a060020a03811660009081526010602052604090205460ff165b919050565b6000602f5460ff16600581111561331a57fe5b14801561332957506015544210155b15613336576133366139d5565b6001602f5460ff16600581111561334957fe5b14801561335857506016544210155b156133b75760295460115410156133af576133aa606060405190810160405280603381526020016000805160206143118339815191528152602001600080516020614351833981519152815250613aeb565b6133b7565b6133b76139d5565b6003602f5460ff1660058111156133ca57fe5b1480156133d95750601f544210155b156133e6576133e66139d5565b6002602f5460ff1660058111156133f957fe5b14801561340c5750601a54601854014210155b1561343d5761343d6040805190810160405280602081526020016000805160206142f1833981519152815250613aeb565b6005546000108015613522575060048054604080517f35fe903400000000000000000000000000000000000000000000000000000000815233938101848152602482019283526005805460448401819052600160a060020a03909516956335fe9034959094919360640190849080156134d557602002820191906000526020600020905b8154815260200190600101908083116134c1575b5050935050505060206040518083038186803b1580156134f457600080fd5b505afa158015613508573d6000803e3d6000fd5b505050506040513d602081101561351e57600080fd5b5051155b1561357d576040805160208082526012908201527f5065726d697373696f6e2064656e6965642e00000000000000000000000000008183015290513391600080516020614331833981519152919081900360600190a261399e565b602d54601154106135de57604080516020808252600e908201527f4576656e742069732066756c6c2e0000000000000000000000000000000000008183015290513391600080516020614331833981519152919081900360600190a261399e565b6135e7336132e5565b1561364257604080516020808252601e908201527f596f752061726520616c72656164792070617274696369706174696e672e00008183015290513391600080516020614331833981519152919081900360600190a261399e565b6001602f5460ff16600581111561365557fe5b146136d657604080516020808252602b908201527f596f752063616e206f6e6c79206a6f696e20696e20746865204170706c696361818301527f74696f6e2073746174652e000000000000000000000000000000000000000000606082015290513391600080516020614331833981519152919081900360800190a261399e565b6000601b5411801561377e5750601b54600154604080517fdd62ed3e0000000000000000000000000000000000000000000000000000000081523360048201523060248201529051600160a060020a039092169163dd62ed3e91604480820192602092909190829003018186803b15801561375057600080fd5b505afa158015613764573d6000803e3d6000fd5b505050506040513d602081101561377a57600080fd5b5051105b156137d9576040805160208082526019908201527f4e6f7420656e6f75676820746f6b656e73207374616b65642e000000000000008183015290513391600080516020614331833981519152919081900360600190a261399e565b6000601b54111561388757600154601b54604080517f23b872dd000000000000000000000000000000000000000000000000000000008152336004820152306024820152604481019290925251600160a060020a03909216916323b872dd916064808201926020929091908290030181600087803b15801561385a57600080fd5b505af115801561386e573d6000803e3d6000fd5b505050506040513d602081101561388457600080fd5b50505b33600081815260106020526040808220805460ff1916600190811790915560118054918201815583527f31ecc21a745e3968a04e9570e4425bc18fa8019c68028196b546d1669c200c6801805473ffffffffffffffffffffffffffffffffffffffff19168417905560025481517fb9d3514d00000000000000000000000000000000000000000000000000000000815260048101949094529051600160a060020a03919091169263b9d3514d92602480830193919282900301818387803b15801561395157600080fd5b505af1158015613965573d6000803e3d6000fd5b50506040805133815290517f0940fd5e528ae9fa6c086f42387c791c3854e0febdf0717c2da155c9dbf1e86c9350908190036020019150a15b565b6139a8614122565b6040805180820191829052602580548252909160029060266020850180831161161e575050505050905090565b6004602f5460ff1660058111156139e857fe5b10613a63576040805160e560020a62461bcd02815260206004820152602660248201527f4576656e742073746174652063616e2774206265206d6f64696669656420616e60448201527f796d6f72652e0000000000000000000000000000000000000000000000000000606482015290519081900360840190fd5b602f5460ff166005811115613a7457fe5b6001016005811115613a8257fe5b602f805460ff19166001836005811115613a9857fe5b0217905550602f546040517fb9eb8a309bf89f3159b39681f485b6430fec1035b2b457edbcdadcdece888c0b9160ff169080826005811115613ad657fe5b60ff16815260200191505060405180910390a1565b6004602f5460ff166005811115613afe57fe5b10613b79576040805160e560020a62461bcd02815260206004820152602660248201527f4576656e742073746174652063616e2774206265206d6f64696669656420616e60448201527f796d6f72652e0000000000000000000000000000000000000000000000000000606482015290519081900360840190fd5b602f805460ff1916600517905560408051602080825283518183015283517f860b7e55e58bd6095b36c4b4016ed8a2e47cb8ebd020fa0e43b32649deb540c3938593928392918301919085019080838360005b83811015613be4578181015183820152602001613bcc565b50505050905090810190601f168015613c115780820380516001836020036101000a031916815260200191505b509250505060405180910390a150565b60006009819055600a8190555b600b54811015613cd557600b8054600d919083908110613c4a57fe5b906000526020600020016040518082805460018160011615610100020316600290048015613caf5780601f10613c8d576101008083540402835291820191613caf565b820191906000526020600020905b815481529060010190602001808311613c9b575b50509283525050604051908190036020019020613ccd906000614233565b600101613c2e565b50613ce2600b6000614251565b6006805460ff1916905560005b600354811015612f4657600060076005016000600384815481101515613d1157fe5b6000918252602080832090910154600160a060020a03168352820192909252604001902055600101613cef565b60005b601454811015613de157600060136000601484815481101515613d6057fe5b600091825260208083209190910154600160a060020a03168352828101939093526040918201812081805290925281209190915560148054601391839185908110613da757fe5b600091825260208083209190910154600160a060020a03168352828101939093526040918201812060018083529352209190915501613d41565b5061399e60146000614233565b602b80546103e8606482810381028290049092019283905560298054808402929092049182019055602a805493820292909204928301909155602d8054929091019091019055565b6000805b600354811015613e8a5782600160a060020a0316600382815481101515613e5d57fe5b600091825260209091200154600160a060020a03161415613e82576001915050613302565b600101613e3a565b50600092915050565b602b54606403613ea1613edb565b1061399e5761399e613ef7565b602b54613eb9613fec565b1061399e576006805460ff19166002179055601d544201601f5561399e6139d5565b600354600a5460009190606402811515613ef157fe5b04905090565b60016007800160076001016040518082805460018160011615610100020316600290048015613f5d5780601f10613f3b576101008083540402835291820191613f5d565b820191906000526020600020905b815481529060010190602001808311613f49575b50509283525050604051602091819003919091019020805460ff1916911515919091179055600b54600a54600f54600954929091036001019101600019011115613fe457613fdf6040805190810160405280601a81526020017f436f6e73656e7375732063616e27742062652072656163686564000000000000815250613aeb565b61399e565b61399e614002565b60035460095460009190606402811515613ef157fe5b600f80546001019055600b8054600d9190600090811061401e57fe5b9060005260206000200160405180828054600181600116156101000203166002900480156140835780601f10614061576101008083540402835291820191614083565b820191906000526020600020905b81548152906001019060200180831161406f575b50509283525050604051908190036020019020805460009081106140a357fe5b6000918252602090912001546007805473ffffffffffffffffffffffffffffffffffffffff1916600160a060020a039092169190911790556140e3613c21565b6140eb613d3e565b600f5460408051918252517fc785d855a24b92cb8266e0a85180a9fa4fe03d182f82a8555b01e1f986d267df9181900360200190a1565b60408051808201825290600290829080388339509192915050565b828054600181600116156101000203166002900490600052602060002090601f016020900481019282601f1061417e57805160ff19168380011785556141ab565b828001600101855582156141ab579182015b828111156141ab578251825591602001919060010190614190565b506141b792915061426f565b5090565b60c0604051908101604052806006906020820280388339509192915050565b60a0604051908101604052806005906020820280388339509192915050565b8280548282559060005260206000209081019282156141ab57916020028201828111156141ab578251825591602001919060010190614190565b5080546000825590600052602060002090810190612f46919061426f565b5080546000825590600052602060002090810190612f469190614289565b610c1791905b808211156141b75760008155600101614275565b610c1791905b808211156141b75760006142a382826142ac565b5060010161428f565b50805460018160011615610100020316600290046000825580601f106142d25750612f46565b601f016020900490600052602060002090810190612f46919061426f56fe4576656e7420746f6f6b20746f6f206c6f6e6720746f20636f6d706c6574652e4e6f7420656e6f756768207573657273206a6f696e656420666f722072657175cfa5f641c29090a64bc13dcafdc8c23d82677807046c35d636ca9c57fc9cb25769726564206d696e696d756d20766f7465732e000000000000000000000000004e6f7420706f737369626c6520696e2063757272656e74206576656e74207374a165627a7a723058205e8f2b58878e9734d145cfaf094ecdfd907364e1cb75dfb9cdd9acd97689de4b0029",
  "source": "pragma solidity ^0.5.0;\n\n\nimport \"./verity_event/Implementation.sol\";\n\n\ncontract VerityEvent is Implementation {\n}\n",
  "sourcePath": "/Users/dejan/dev/verity-event/contracts/VerityEvent.sol",
  "compiler": {
    "name": "solc",
    "version": "0.5.1+commit.c8a2cb62.Emscripten.clang"
  },
  "schemaVersion": "3.0.0",
  "updatedAt": "2019-01-18T11:04:37.310Z",
  "devdoc": {
    "methods": {
      "isParticipating(address)": {
        "params": {
          "_user": "The addres to check for participation"
        },
        "return": "{bool} Whether the given address is a participant of this event"
      },
      "setRewards(address[],uint256[],uint256[])": {
        "params": {
          "_addresses": "A list of addresses",
          "_etherRewards": "A list of ether rewards, must be the exact same length as addresses",
          "_tokenRewards": "A list of token rewards, must be the exact same length as addresses"
        }
      }
    }
  },
  "userdoc": {
    "methods": {
      "approveRewards(uint256)": {
        "notice": "Called by event resolver nodes if they agree with rewards"
      },
      "claimReward()": {
        "notice": "Claim a reward. Needs to be called by the users themselves. Only available in the Reward state, after rewards have been received from the validation nodes."
      },
      "getConsensusRules()": {
        "notice": "Returns an array of consensus rules. [minTotalVotes, minConsensusVotes, minConsensusRatio, minParticipantRatio, maxParticipants]"
      },
      "getDisputeData()": {
        "notice": "Returns an array of dispute rules. [dispute amount, dispute timeout, dispute round]"
      },
      "getEventResolvers()": {
        "notice": "Returns the whole array of event resolvers."
      },
      "getReward()": {
        "notice": "Returns the calling user's assigned rewards. Can be 0. Only available to participating users in the Reward state, since rewards are not assigned before that."
      },
      "getRewards(address[])": {
        "notice": "Returns rewards for specified addresses. [[ethRewards, tokenRewards], [ethRewards, tokenRewards], ...]"
      },
      "getRewardsIndex()": {
        "notice": "Returns all the addresses that have rewards set."
      },
      "isMasterNode()": {
        "notice": "Checks if the address is current master node."
      },
      "isParticipating(address)": {
        "notice": "Checks whether an address is participating in this event."
      },
      "joinEvent()": {
        "notice": "Apply for participation in this event. Available only during the Application state. A transaction to this function has to be done by the users themselves, registering their wallet address as a participent. The transaction does not have to include any funds."
      },
      "markRewardsSet(string)": {
        "notice": "Triggered by the master node once rewards are set and ready to validate"
      },
      "rejectRewards(uint256,string)": {
        "notice": "Called by event resolvers if they don't agree with rewards"
      },
      "setRewards(address[],uint256[],uint256[])": {
        "notice": "Assign the actual rewards. Receives a list of addresses and a list rewards. Mapping between the two is done by the addresses' and reward's numerical index in the list, so order is important."
      },
      "triggerDispute()": {
        "notice": "Trigger a dispute."
      }
    }
  }
}