{
  "contractName": "VerityEventProxy",
  "abi": [
    {
      "constant": true,
      "inputs": [],
      "name": "rewardsValidationRound",
      "outputs": [
        {
          "name": "",
          "type": "uint256"
        }
      ],
      "payable": false,
      "stateMutability": "view",
      "type": "function"
    },
    {
      "constant": true,
      "inputs": [],
      "name": "nodeRewardsPool",
      "outputs": [
        {
          "name": "",
          "type": "uint256"
        }
      ],
      "payable": false,
      "stateMutability": "view",
      "type": "function"
    },
    {
      "constant": true,
      "inputs": [],
      "name": "eventRegistryAddress",
      "outputs": [
        {
          "name": "",
          "type": "address"
        }
      ],
      "payable": false,
      "stateMutability": "view",
      "type": "function"
    },
    {
      "constant": true,
      "inputs": [],
      "name": "eventCanceled",
      "outputs": [
        {
          "name": "",
          "type": "bool"
        }
      ],
      "payable": false,
      "stateMutability": "view",
      "type": "function"
    },
    {
      "constant": true,
      "inputs": [],
      "name": "validationState",
      "outputs": [
        {
          "name": "",
          "type": "uint8"
        }
      ],
      "payable": false,
      "stateMutability": "view",
      "type": "function"
    },
    {
      "constant": true,
      "inputs": [],
      "name": "dataFeedHash",
      "outputs": [
        {
          "name": "",
          "type": "string"
        }
      ],
      "payable": false,
      "stateMutability": "view",
      "type": "function"
    },
    {
      "constant": true,
      "inputs": [],
      "name": "ipfsEventHash",
      "outputs": [
        {
          "name": "",
          "type": "string"
        }
      ],
      "payable": false,
      "stateMutability": "view",
      "type": "function"
    },
    {
      "constant": true,
      "inputs": [],
      "name": "version",
      "outputs": [
        {
          "name": "",
          "type": "uint256"
        }
      ],
      "payable": false,
      "stateMutability": "view",
      "type": "function"
    },
    {
      "constant": true,
      "inputs": [],
      "name": "implementation",
      "outputs": [
        {
          "name": "",
          "type": "address"
        }
      ],
      "payable": false,
      "stateMutability": "view",
      "type": "function"
    },
    {
      "constant": true,
      "inputs": [
        {
          "name": "",
          "type": "address"
        }
      ],
      "name": "nodeRewardsClaimed",
      "outputs": [
        {
          "name": "",
          "type": "bool"
        }
      ],
      "payable": false,
      "stateMutability": "view",
      "type": "function"
    },
    {
      "constant": true,
      "inputs": [],
      "name": "stakingAmount",
      "outputs": [
        {
          "name": "",
          "type": "uint256"
        }
      ],
      "payable": false,
      "stateMutability": "view",
      "type": "function"
    },
    {
      "constant": true,
      "inputs": [],
      "name": "nodeRewardsBalance",
      "outputs": [
        {
          "name": "",
          "type": "uint256"
        }
      ],
      "payable": false,
      "stateMutability": "view",
      "type": "function"
    },
    {
      "constant": true,
      "inputs": [],
      "name": "eventName",
      "outputs": [
        {
          "name": "",
          "type": "string"
        }
      ],
      "payable": false,
      "stateMutability": "view",
      "type": "function"
    },
    {
      "constant": true,
      "inputs": [],
      "name": "owner",
      "outputs": [
        {
          "name": "",
          "type": "address"
        }
      ],
      "payable": false,
      "stateMutability": "view",
      "type": "function"
    },
    {
      "constant": true,
      "inputs": [],
      "name": "tokenAddress",
      "outputs": [
        {
          "name": "",
          "type": "address"
        }
      ],
      "payable": false,
      "stateMutability": "view",
      "type": "function"
    },
    {
      "constant": true,
      "inputs": [],
      "name": "rewardsValidation",
      "outputs": [
        {
          "name": "currentMasterNode",
          "type": "address"
        },
        {
          "name": "rewardsHash",
          "type": "string"
        },
        {
          "name": "approvalCount",
          "type": "uint256"
        },
        {
          "name": "rejectionCount",
          "type": "uint256"
        }
      ],
      "payable": false,
      "stateMutability": "view",
      "type": "function"
    },
    {
      "constant": true,
      "inputs": [],
      "name": "leftoversRecoverableAfter",
      "outputs": [
        {
          "name": "",
          "type": "uint256"
        }
      ],
      "payable": false,
      "stateMutability": "view",
      "type": "function"
    },
    {
      "inputs": [
        {
          "name": "_eventName",
          "type": "string"
        },
        {
          "name": "_applicationStartTime",
          "type": "uint256"
        },
        {
          "name": "_applicationEndTime",
          "type": "uint256"
        },
        {
          "name": "_eventStartTime",
          "type": "uint256"
        },
        {
          "name": "_eventRunTime",
          "type": "uint256"
        },
        {
          "name": "_cAddresses",
          "type": "address[4]"
        },
        {
          "name": "_eventResolvers",
          "type": "address[]"
        },
        {
          "name": "_leftoversRecoverableAfter",
          "type": "uint256"
        },
        {
          "name": "_consensusRules",
          "type": "uint256[6]"
        },
        {
          "name": "_stakingAmount",
          "type": "uint256"
        },
        {
          "name": "_disputeRules",
          "type": "uint256[4]"
        },
        {
          "name": "_ipfsEventHash",
          "type": "string"
        },
        {
          "name": "_requiredUserRoles",
          "type": "uint256[]"
        },
        {
          "name": "_eventCategory",
          "type": "bytes32[2]"
        },
        {
          "name": "_nodeRewardsPool",
          "type": "uint256"
        }
      ],
      "payable": true,
      "stateMutability": "payable",
      "type": "constructor"
    },
    {
      "payable": true,
      "stateMutability": "payable",
      "type": "fallback"
    }
  ],
  "bytecode": "0x608060408190526006805460ff1990811690915560338054909116905562000e6c3881900390819083398101806040526103608110156200003f57600080fd5b8101908080516401000000008111156200005857600080fd5b820160208101848111156200006c57600080fd5b81516401000000008111828201871017156200008757600080fd5b50506020820151604083015160608401516080850151610120860180519598949793969295919460a09093019391640100000000811115620000c857600080fd5b82016020810184811115620000dc57600080fd5b8151856020820283011164010000000082111715620000fa57600080fd5b505060208201516101008301516101a084018051939692956040860195929461012090930193929091906401000000008111156200013757600080fd5b820160208101848111156200014b57600080fd5b81516401000000008111828201871017156200016657600080fd5b505092919060200180516401000000008111156200018357600080fd5b820160208101848111156200019757600080fd5b8151856020820283011164010000000082111715620001b557600080fd5b50506060820151909350602090910191508c8e10620001d357600080fd5b8c8c116200022d576040517f08c379a000000000000000000000000000000000000000000000000000000000815260040180806020018281038252602c81526020018062000e10602c913960400191505060405180910390fd5b8034101562000288576040517f08c379a000000000000000000000000000000000000000000000000000000000815260040180806020018281038252603081526020018062000e3c6030913960400191505060405180910390fd5b895160018054600160a060020a0319908116600160a060020a0393841617825560208d0151600280549092169084161790819055604080517f207e110c00000000000000000000000000000000000000000000000000000000815260048101939093525192169163207e110c9160248082019260009290919082900301818387803b1580156200031757600080fd5b505af11580156200032c573d6000803e3d6000fd5b50505050896002600481106200033e57fe5b602002015160048054600160a060020a031916600160a060020a039092169190911790558960036020020151603360026101000a815481600160a060020a030219169083600160a060020a0316021790555080601e819055601d819055508d6016819055508c6017819055508e60289080519060200190620003c292919062000549565b50620003d26029836002620005ce565b5060188c90558a8c016019558851620003f39060039060208c0190620005fe565b5060008054600160a060020a03191633178155601b8990556001601055600380549091906200041e57fe5b6000918252602091829020015460078054600160a060020a031916600160a060020a03909216919091179055601c87905584516200046391601a919087019062000549565b506200047887640100000000620004b7810204565b6200048c856401000000006200050b810204565b8251620004a190600590602086019062000664565b50505050505050505050505050505050620006e8565b8051602d556020810151602e556040810151602f556060810151603055608081015160315560a08101516001811115620004ed57fe5b6032805460ff1916600183818111156200050357fe5b021790555050565b60408101516060820151600182116200052357600191505b806200052e57506154605b82516020908155909201516021556024556000602255602755565b828054600181600116156101000203166002900490600052602060002090601f016020900481019282601f106200058c57805160ff1916838001178555620005bc565b82800160010185558215620005bc579182015b82811115620005bc5782518255916020019190600101906200059f565b50620005ca929150620006a1565b5090565b8260028101928215620005bc5791602002820182811115620005bc5782518255916020019190600101906200059f565b82805482825590600052602060002090810192821562000656579160200282015b82811115620006565782518254600160a060020a031916600160a060020a039091161782556020909201916001909101906200061f565b50620005ca929150620006c1565b828054828255906000526020600020908101928215620005bc5791602002820182811115620005bc5782518255916020019190600101906200059f565b620006be91905b80821115620005ca5760008155600101620006a8565b90565b620006be91905b80821115620005ca578054600160a060020a0319168155600101620006c8565b61071880620006f86000396000f3fe60806040526004361061011a576000357c0100000000000000000000000000000000000000000000000000000000900480635c60da1b116100b25780638043c9c0116100815780638043c9c0146103195780638da5cb5b1461032e5780639d76ea5814610343578063e3a86e7114610358578063f38a803f1461040c5761011a565b80635c60da1b146102a75780636764ee69146102bc578063739a3e02146102ef5780637e0c478b146103045761011a565b80631e59680b116100ee5780631e59680b146101ba5780634227357c146101f357806342380eaf1461027d57806354fd4d50146102925761011a565b8062f161421461012457806302a363051461014b578063073f03fb14610160578063148b597c14610191575b610122610421565b005b34801561013057600080fd5b50610139610446565b60408051918252519081900360200190f35b34801561015757600080fd5b5061013961044c565b34801561016c57600080fd5b50610175610452565b60408051600160a060020a039092168252519081900360200190f35b34801561019d57600080fd5b506101a6610461565b604080519115158252519081900360200190f35b3480156101c657600080fd5b506101cf61046f565b604051808260028111156101df57fe5b60ff16815260200191505060405180910390f35b3480156101ff57600080fd5b50610208610478565b6040805160208082528351818301528351919283929083019185019080838360005b8381101561024257818101518382015260200161022a565b50505050905090810190601f16801561026f5780820380516001836020036101000a031916815260200191505b509250505060405180910390f35b34801561028957600080fd5b50610208610506565b34801561029e57600080fd5b50610139610561565b3480156102b357600080fd5b50610175610566565b3480156102c857600080fd5b506101a6600480360360208110156102df57600080fd5b5035600160a060020a031661057b565b3480156102fb57600080fd5b50610139610590565b34801561031057600080fd5b50610139610596565b34801561032557600080fd5b5061020861059c565b34801561033a57600080fd5b506101756105f7565b34801561034f57600080fd5b50610175610606565b34801561036457600080fd5b5061036d610615565b6040518085600160a060020a0316600160a060020a0316815260200180602001848152602001838152602001828103825285818151815260200191508051906020019080838360005b838110156103ce5781810151838201526020016103b6565b50505050905090810190601f1680156103fb5780820380516001836020036101000a031916815260200191505b509550505050505060405180910390f35b34801561041857600080fd5b506101396106c2565b610429610444565b60335461044490620100009004600160a060020a03166106c8565b565b60105481565b601d5481565b600254600160a060020a031681565b603354610100900460ff1681565b60065460ff1681565b602b805460408051602060026001851615610100026000190190941693909304601f810184900484028201840190925281815292918301828280156104fe5780601f106104d3576101008083540402835291602001916104fe565b820191906000526020600020905b8154815290600101906020018083116104e157829003601f168201915b505050505081565b601a805460408051602060026001851615610100026000190190941693909304601f810184900484028201840190925281815292918301828280156104fe5780601f106104d3576101008083540402835291602001916104fe565b600181565b603354620100009004600160a060020a031681565b601f6020526000908152604090205460ff1681565b601c5481565b601e5481565b6028805460408051602060026001851615610100026000190190941693909304601f810184900484028201840190925281815292918301828280156104fe5780601f106104d3576101008083540402835291602001916104fe565b600054600160a060020a031681565b600154600160a060020a031681565b600780546008805460408051602060026101006001861615026000190190941693909304601f8101849004840282018401909252818152600160a060020a03909416949392918301828280156106ac5780601f10610681576101008083540402835291602001916106ac565b820191906000526020600020905b81548152906001019060200180831161068f57829003601f168201915b5050505050908060020154908060030154905084565b601b5481565b3660008037600080366000845af43d6000803e8080156106e7573d6000f35b3d6000fdfea165627a7a723058204ca7e66cf33132af86f8a4065c075f61539bf5d23dcdf8004cc078519899cd8500294576656e742063616e2774207374617274206265666f7265206170706c69636174696f6e7320636c6f73652e4e6f7420656e6f7567682076616c75652073656e7420666f7220737065636966696564207265776172647320706f6f6c",
  "source": "pragma solidity ^0.5.7;\n\nimport \"./VerityToken.sol\";\nimport \"./verity_event/Store.sol\";\nimport \"./utility/Proxy.sol\";\n\n\ninterface UserRolesI {\n    function hasAnyRole(address _user, uint[] calldata _roles) external view returns (bool);\n}\n\ncontract VerityEventProxy is Store, Proxy {\n\n    constructor(\n        string memory _eventName,\n        uint _applicationStartTime,\n        uint _applicationEndTime,\n        uint _eventStartTime,\n        uint _eventRunTime, // in seconds\n        address[4] memory _cAddresses, // [tokenAddress, eventRegistry, userRoles, implementation]\n        address[] memory _eventResolvers,\n        uint _leftoversRecoverableAfter, // time duration after eventEndTime when event is marker as failed (in seconds)\n        uint[6] memory _consensusRules, // [minTotalVotes, minConsensusVotes, minConsensusRatio, minParticipantRatio, maxParticipants, distribution]\n        uint _stakingAmount,\n        uint[4] memory _disputeRules, // [dispute amount, dispute timeout, dispute multiplier, default extension in seconds]\n        string memory _ipfsEventHash,\n        uint[] memory _requiredUserRoles,\n        bytes32[2] memory _eventCategory,\n        uint _nodeRewardsPool\n    )\n        public\n        payable\n    {\n        require(_applicationStartTime < _applicationEndTime);\n        require(_eventStartTime > _applicationEndTime, \"Event can't start before applications close.\");\n        require(msg.value >= _nodeRewardsPool, \"Not enough value sent for specified rewards pool\");\n\n        tokenAddress = _cAddresses[0];\n        eventRegistryAddress = _cAddresses[1];\n        EventRegistryI(eventRegistryAddress).registerEvent(version);\n        permissionRegistry = _cAddresses[2];\n        implementation = _cAddresses[3];\n\n        nodeRewardsPool = nodeRewardsBalance = _nodeRewardsPool;\n\n        applicationStartTime = _applicationStartTime;\n        applicationEndTime = _applicationEndTime;\n\n        eventName = _eventName;\n        eventCategory = _eventCategory;\n        eventStartTime = _eventStartTime;\n        eventEndTime = _eventStartTime + _eventRunTime;\n\n        eventResolvers = _eventResolvers;\n\n        owner = msg.sender;\n        leftoversRecoverableAfter = _leftoversRecoverableAfter;\n\n        rewardsValidationRound = 1;\n        rewardsValidation.currentMasterNode = eventResolvers[0];\n\n        stakingAmount = _stakingAmount;\n\n        ipfsEventHash = _ipfsEventHash;\n\n        setConsensusRules(_consensusRules);\n        setDisputeData(_disputeRules);\n\n        requiredUserRoles = _requiredUserRoles;\n    }\n\n    /// Sets consensus rules. For internal use only.\n    function setConsensusRules(uint[6] memory rules) private {\n        consensusRules.minTotalVotes = rules[0];\n        consensusRules.minConsensusVotes = rules[1];\n        consensusRules.minConsensusRatio = rules[2];\n        consensusRules.minParticipantRatio = rules[3];\n        consensusRules.maxParticipants = rules[4];\n        consensusRules.rewardsDistribution = RewardsDistribution(rules[5]);\n    }\n\n    function setDisputeData(uint[4] memory rules) private {\n        uint _multiplier = rules[2];\n        uint _extension = rules[3];\n        if (_multiplier <= 1) {\n            _multiplier = 1;\n        }\n\n        if (_extension == 0) {\n            _extension = 21600; // 6h in seconds\n        }\n\n        dispute.amount = rules[0];\n        dispute.timeout = rules[1];\n        dispute.multiplier = _multiplier;\n        dispute.round = 0;\n        disputeTimeExtension = _extension;\n    }\n}\n",
  "sourcePath": "/Users/hiphop/code/verity-event/contracts/VerityEventProxy.sol",
  "compiler": {
    "name": "solc",
    "version": "0.5.7+commit.6da8b019.Emscripten.clang"
  },
  "schemaVersion": "3.0.1",
  "updatedAt": "2019-03-29T09:35:14.339Z",
  "devdoc": {
    "methods": {}
  },
  "userdoc": {
    "methods": {}
  }
}