{
  "contractName": "VerityEvent",
  "abi": [
    {
      "constant": true,
      "inputs": [],
      "name": "rewardsValidationRound",
      "outputs": [
        {
          "name": "",
          "type": "uint256"
        }
      ],
      "payable": false,
      "stateMutability": "view",
      "type": "function"
    },
    {
      "constant": true,
      "inputs": [],
      "name": "eventRegistryAddress",
      "outputs": [
        {
          "name": "",
          "type": "address"
        }
      ],
      "payable": false,
      "stateMutability": "view",
      "type": "function"
    },
    {
      "constant": true,
      "inputs": [],
      "name": "dataFeedHash",
      "outputs": [
        {
          "name": "",
          "type": "string"
        }
      ],
      "payable": false,
      "stateMutability": "view",
      "type": "function"
    },
    {
      "constant": true,
      "inputs": [],
      "name": "stakingAmount",
      "outputs": [
        {
          "name": "",
          "type": "uint256"
        }
      ],
      "payable": false,
      "stateMutability": "view",
      "type": "function"
    },
    {
      "constant": true,
      "inputs": [],
      "name": "eventName",
      "outputs": [
        {
          "name": "",
          "type": "string"
        }
      ],
      "payable": false,
      "stateMutability": "view",
      "type": "function"
    },
    {
      "constant": true,
      "inputs": [],
      "name": "owner",
      "outputs": [
        {
          "name": "",
          "type": "address"
        }
      ],
      "payable": false,
      "stateMutability": "view",
      "type": "function"
    },
    {
      "constant": true,
      "inputs": [],
      "name": "tokenAddress",
      "outputs": [
        {
          "name": "",
          "type": "address"
        }
      ],
      "payable": false,
      "stateMutability": "view",
      "type": "function"
    },
    {
      "inputs": [
        {
          "name": "_eventName",
          "type": "string"
        },
        {
          "name": "_applicationStartTime",
          "type": "uint256"
        },
        {
          "name": "_applicationEndTime",
          "type": "uint256"
        },
        {
          "name": "_eventStartTime",
          "type": "uint256"
        },
        {
          "name": "_eventRunTime",
          "type": "uint256"
        },
        {
          "name": "_tokenAddress",
          "type": "address"
        },
        {
          "name": "_registry",
          "type": "address"
        },
        {
          "name": "_eventResolvers",
          "type": "address[]"
        },
        {
          "name": "_leftoversRecoverableAfter",
          "type": "uint256"
        },
        {
          "name": "_consensusRules",
          "type": "uint256[6]"
        },
        {
          "name": "_stakingAmount",
          "type": "uint256"
        },
        {
          "name": "_disputeRules",
          "type": "uint256[3]"
        },
        {
          "name": "_ipfsEventHash",
          "type": "string"
        }
      ],
      "payable": true,
      "stateMutability": "payable",
      "type": "constructor"
    },
    {
      "payable": true,
      "stateMutability": "payable",
      "type": "fallback"
    },
    {
      "anonymous": false,
      "inputs": [
        {
          "indexed": false,
          "name": "newState",
          "type": "uint8"
        }
      ],
      "name": "StateTransition",
      "type": "event"
    },
    {
      "anonymous": false,
      "inputs": [
        {
          "indexed": false,
          "name": "wallet",
          "type": "address"
        }
      ],
      "name": "JoinEvent",
      "type": "event"
    },
    {
      "anonymous": false,
      "inputs": [
        {
          "indexed": false,
          "name": "recipient",
          "type": "address"
        }
      ],
      "name": "ClaimReward",
      "type": "event"
    },
    {
      "anonymous": false,
      "inputs": [
        {
          "indexed": false,
          "name": "description",
          "type": "string"
        }
      ],
      "name": "Error",
      "type": "event"
    },
    {
      "anonymous": false,
      "inputs": [
        {
          "indexed": false,
          "name": "description",
          "type": "string"
        }
      ],
      "name": "EventFailed",
      "type": "event"
    },
    {
      "anonymous": false,
      "inputs": [
        {
          "indexed": false,
          "name": "validationRound",
          "type": "uint256"
        }
      ],
      "name": "ValidationStarted",
      "type": "event"
    },
    {
      "anonymous": false,
      "inputs": [
        {
          "indexed": false,
          "name": "validationRound",
          "type": "uint256"
        }
      ],
      "name": "ValidationRestart",
      "type": "event"
    },
    {
      "anonymous": false,
      "inputs": [
        {
          "indexed": false,
          "name": "byAddress",
          "type": "address"
        }
      ],
      "name": "DisputeTriggered",
      "type": "event"
    },
    {
      "anonymous": false,
      "inputs": [
        {
          "indexed": false,
          "name": "recipient",
          "type": "address"
        }
      ],
      "name": "ClaimStake",
      "type": "event"
    },
    {
      "constant": false,
      "inputs": [],
      "name": "joinEvent",
      "outputs": [],
      "payable": false,
      "stateMutability": "nonpayable",
      "type": "function"
    },
    {
      "constant": true,
      "inputs": [
        {
          "name": "_user",
          "type": "address"
        }
      ],
      "name": "isParticipating",
      "outputs": [
        {
          "name": "",
          "type": "bool"
        }
      ],
      "payable": false,
      "stateMutability": "view",
      "type": "function"
    },
    {
      "constant": true,
      "inputs": [],
      "name": "getParticipants",
      "outputs": [
        {
          "name": "",
          "type": "address[]"
        }
      ],
      "payable": false,
      "stateMutability": "view",
      "type": "function"
    },
    {
      "constant": true,
      "inputs": [],
      "name": "getEventTimes",
      "outputs": [
        {
          "name": "",
          "type": "uint256[5]"
        }
      ],
      "payable": false,
      "stateMutability": "view",
      "type": "function"
    },
    {
      "constant": false,
      "inputs": [
        {
          "name": "_addresses",
          "type": "address[]"
        },
        {
          "name": "_etherRewards",
          "type": "uint256[]"
        },
        {
          "name": "_tokenRewards",
          "type": "uint256[]"
        }
      ],
      "name": "setRewards",
      "outputs": [],
      "payable": false,
      "stateMutability": "nonpayable",
      "type": "function"
    },
    {
      "constant": false,
      "inputs": [
        {
          "name": "rewardsHash",
          "type": "string"
        }
      ],
      "name": "markRewardsSet",
      "outputs": [],
      "payable": false,
      "stateMutability": "nonpayable",
      "type": "function"
    },
    {
      "constant": false,
      "inputs": [
        {
          "name": "validationRound",
          "type": "uint256"
        }
      ],
      "name": "approveRewards",
      "outputs": [],
      "payable": false,
      "stateMutability": "nonpayable",
      "type": "function"
    },
    {
      "constant": false,
      "inputs": [
        {
          "name": "validationRound",
          "type": "uint256"
        },
        {
          "name": "altHash",
          "type": "string"
        }
      ],
      "name": "rejectRewards",
      "outputs": [],
      "payable": false,
      "stateMutability": "nonpayable",
      "type": "function"
    },
    {
      "constant": false,
      "inputs": [],
      "name": "triggerDispute",
      "outputs": [],
      "payable": false,
      "stateMutability": "nonpayable",
      "type": "function"
    },
    {
      "constant": true,
      "inputs": [],
      "name": "getEventResolvers",
      "outputs": [
        {
          "name": "",
          "type": "address[]"
        }
      ],
      "payable": false,
      "stateMutability": "view",
      "type": "function"
    },
    {
      "constant": true,
      "inputs": [],
      "name": "isMasterNode",
      "outputs": [
        {
          "name": "",
          "type": "bool"
        }
      ],
      "payable": false,
      "stateMutability": "view",
      "type": "function"
    },
    {
      "constant": true,
      "inputs": [],
      "name": "getReward",
      "outputs": [
        {
          "name": "",
          "type": "uint256[2]"
        }
      ],
      "payable": false,
      "stateMutability": "view",
      "type": "function"
    },
    {
      "constant": true,
      "inputs": [],
      "name": "getRewardsIndex",
      "outputs": [
        {
          "name": "",
          "type": "address[]"
        }
      ],
      "payable": false,
      "stateMutability": "view",
      "type": "function"
    },
    {
      "constant": true,
      "inputs": [
        {
          "name": "_addresses",
          "type": "address[]"
        }
      ],
      "name": "getRewards",
      "outputs": [
        {
          "name": "",
          "type": "uint256[]"
        },
        {
          "name": "",
          "type": "uint256[]"
        }
      ],
      "payable": false,
      "stateMutability": "view",
      "type": "function"
    },
    {
      "constant": false,
      "inputs": [],
      "name": "claimReward",
      "outputs": [],
      "payable": false,
      "stateMutability": "nonpayable",
      "type": "function"
    },
    {
      "constant": false,
      "inputs": [],
      "name": "claimFailed",
      "outputs": [],
      "payable": false,
      "stateMutability": "nonpayable",
      "type": "function"
    },
    {
      "constant": false,
      "inputs": [
        {
          "name": "_hash",
          "type": "string"
        }
      ],
      "name": "setDataFeedHash",
      "outputs": [],
      "payable": false,
      "stateMutability": "nonpayable",
      "type": "function"
    },
    {
      "constant": false,
      "inputs": [
        {
          "name": "_result",
          "type": "string"
        }
      ],
      "name": "setResult",
      "outputs": [],
      "payable": false,
      "stateMutability": "nonpayable",
      "type": "function"
    },
    {
      "constant": true,
      "inputs": [],
      "name": "getResult",
      "outputs": [
        {
          "name": "",
          "type": "string"
        }
      ],
      "payable": false,
      "stateMutability": "view",
      "type": "function"
    },
    {
      "constant": true,
      "inputs": [],
      "name": "getState",
      "outputs": [
        {
          "name": "",
          "type": "uint256"
        }
      ],
      "payable": false,
      "stateMutability": "view",
      "type": "function"
    },
    {
      "constant": true,
      "inputs": [],
      "name": "getBalance",
      "outputs": [
        {
          "name": "",
          "type": "uint256[2]"
        }
      ],
      "payable": false,
      "stateMutability": "view",
      "type": "function"
    },
    {
      "constant": true,
      "inputs": [],
      "name": "getConsensusRules",
      "outputs": [
        {
          "name": "",
          "type": "uint256[6]"
        }
      ],
      "payable": false,
      "stateMutability": "view",
      "type": "function"
    },
    {
      "constant": true,
      "inputs": [],
      "name": "getDisputeData",
      "outputs": [
        {
          "name": "",
          "type": "uint256[4]"
        },
        {
          "name": "",
          "type": "address"
        }
      ],
      "payable": false,
      "stateMutability": "view",
      "type": "function"
    },
    {
      "constant": false,
      "inputs": [],
      "name": "recoverLeftovers",
      "outputs": [],
      "payable": false,
      "stateMutability": "nonpayable",
      "type": "function"
    }
  ],
  "bytecode": "0x608060408190526004805460ff19908116909155610708602155602b8054909116905562003d3a3881900390819083398101604090815281516020830151918301516060840151608085015160a086015160c087015160e08801516101008901516101e08a01516102608b0151988b019a97989697959694959394928401939192610120830192610200810191018a8c106200009a57600080fd5b8a8a116200012f57604080517f08c379a000000000000000000000000000000000000000000000000000000000815260206004820152602c60248201527f4576656e742063616e2774207374617274206265666f7265206170706c69636160448201527f74696f6e7320636c6f73652e0000000000000000000000000000000000000000606482015290519081900360840190fd5b8b6013819055508a60148190555087600160006101000a815481600160a060020a030219169083600160a060020a031602179055508c602290805190602001906200017c92919062000359565b5060158a9055888a0160165585516200019d906003906020890190620003de565b5060008054600160a060020a0319163317815560188690556001600d55600380549091908110620001ca57fe5b6000918252602091829020015460058054600160a060020a031916600160a060020a03909216919091179055601984905581516200020f916017919084019062000359565b506200022484640100000000620002db810204565b62000238826401000000006200032f810204565b60028054600160a060020a031916600160a060020a038981169190911791829055604080517fc4130ae00000000000000000000000000000000000000000000000000000000081529051929091169163c4130ae09160048082019260009290919082900301818387803b158015620002af57600080fd5b505af1158015620002c4573d6000803e3d6000fd5b50505050505050505050505050505050506200048b565b8051602555602081015160265560408101516027556060810151602855608081015160295560a081015160018111156200031157fe5b602a805460ff1916600183818111156200032757fe5b021790555050565b60408101516001811162000341575060015b8151601a55602090910151601b55601e556000601c55565b828054600181600116156101000203166002900490600052602060002090601f016020900481019282601f106200039c57805160ff1916838001178555620003cc565b82800160010185558215620003cc579182015b82811115620003cc578251825591602001919060010190620003af565b50620003da92915062000444565b5090565b82805482825590600052602060002090810192821562000436579160200282015b82811115620004365782518254600160a060020a031916600160a060020a03909116178255602090920191600190910190620003ff565b50620003da92915062000464565b6200046191905b80821115620003da57600081556001016200044b565b90565b6200046191905b80821115620003da578054600160a060020a03191681556001016200046b565b61389f806200049b6000396000f3006080604052600436106101895763ffffffff7c0100000000000000000000000000000000000000000000000000000000600035041662f16142811461018b578063073f03fb146101b257806311e956c8146101e357806312065fe01461020c5780631865c57d1461025c5780631a0ddce9146102715780633d18b912146103385780634227357c1461034d578063437933cc146103d757806345f99d51146104305780634b766b9514610445578063510ccb431461049e57806352f91acf1461058c57806354e33cf0146105a15780635aa68ac014610606578063739a3e021461061b57806374539f98146106305780638043c9c0146106455780638126cb1e1461065a57806381c2d875146106b857806388e3cfda146106e25780638da5cb5b1461073b5780639d76ea5814610750578063a77ae83914610765578063ab95b5861461077d578063b88a802f146107a7578063d6e9b019146107bc578063de29278914610822578063efba9bd214610837578063f4caee881461084c578063f9010d191461086d575b005b34801561019757600080fd5b506101a0610882565b60408051918252519081900360200190f35b3480156101be57600080fd5b506101c7610888565b60408051600160a060020a039092168252519081900360200190f35b3480156101ef57600080fd5b506101f8610897565b604080519115158252519081900360200190f35b34801561021857600080fd5b506102216108a9565b6040518082600260200280838360005b83811015610249578181015183820152602001610231565b5050505090500191505060405180910390f35b34801561026857600080fd5b506101a061095b565b34801561027d57600080fd5b506040805160206004803580820135838102808601850190965280855261018995369593946024949385019291829185019084908082843750506040805187358901803560208181028481018201909552818452989b9a998901989297509082019550935083925085019084908082843750506040805187358901803560208181028481018201909552818452989b9a9989019892975090820195509350839250850190849080828437509497506109749650505050505050565b34801561034457600080fd5b50610221610d08565b34801561035957600080fd5b50610362610d4a565b6040805160208082528351818301528351919283929083019185019080838360005b8381101561039c578181015183820152602001610384565b50505050905090810190601f1680156103c95780820380516001836020036101000a031916815260200191505b509250505060405180910390f35b3480156103e357600080fd5b506040805160206004803580820135601f8101849004840285018401909552848452610189943694929360249392840191908190840183828082843750949750610dd89650505050505050565b34801561043c57600080fd5b50610189610e06565b34801561045157600080fd5b506040805160206004803580820135601f81018490048402850184019095528484526101899436949293602493928401919081908401838280828437509497506110fa9650505050505050565b3480156104aa57600080fd5b50604080516020600480358082013583810280860185019096528085526104f39536959394602494938501929182918501908490808284375094975061139c9650505050505050565b604051808060200180602001838103835285818151815260200191508051906020019060200280838360005b8381101561053757818101518382015260200161051f565b50505050905001838103825284818151815260200191508051906020019060200280838360005b8381101561057657818101518382015260200161055e565b5050505090500194505050505060405180910390f35b34801561059857600080fd5b506101896114da565b3480156105ad57600080fd5b506105b66119ae565b60408051602080825283518183015283519192839290830191858101910280838360005b838110156105f25781810151838201526020016105da565b505050509050019250505060405180910390f35b34801561061257600080fd5b506105b6611a10565b34801561062757600080fd5b506101a0611a70565b34801561063c57600080fd5b506105b6611a76565b34801561065157600080fd5b50610362611ad6565b34801561066657600080fd5b5060408051602060046024803582810135601f8101859004850286018501909652858552610189958335953695604494919390910191908190840183828082843750949750611b319650505050505050565b3480156106c457600080fd5b506106cd611eb4565b60405181518152808260c08083836020610231565b3480156106ee57600080fd5b506040805160206004803580820135601f8101849004840285018401909552848452610189943694929360249392840191908190840183828082843750949750611f0a9650505050505050565b34801561074757600080fd5b506101c76120d5565b34801561075c57600080fd5b506101c76120e4565b34801561077157600080fd5b506101896004356120f3565b34801561078957600080fd5b50610792612323565b60405181518152808260a08083836020610231565b3480156107b357600080fd5b50610189612362565b3480156107c857600080fd5b506107d1612869565b6040518083608080838360005b838110156107f65781810151838201526020016107de565b5050505090500182600160a060020a0316600160a060020a031681526020019250505060405180910390f35b34801561082e57600080fd5b506103626128ae565b34801561084357600080fd5b5061018961293b565b34801561085857600080fd5b506101f8600160a060020a0360043516612acf565b34801561087957600080fd5b50610189612aed565b600d5481565b600254600160a060020a031681565b600554600160a060020a031633145b90565b6108b1613640565b604080518082018252308031825260015483517f70a08231000000000000000000000000000000000000000000000000000000008152600481019290925292519192602080850193600160a060020a03909216926370a0823192602480830193928290030181600087803b15801561092857600080fd5b505af115801561093c573d6000803e3d6000fd5b505050506040513d602081101561095257600080fd5b50519052905090565b602b5460009060ff16600581111561096f57fe5b905090565b600554600090600160a060020a031633146109d9576040805160e560020a62461bcd02815260206004820152601d60248201527f4e6f7420612064657369676e61746564206d6173746572206e6f64652e000000604482015290519081900360640190fd5b6000602b5460ff1660058111156109ec57fe5b1480156109fb57506013544210155b15610a0857610a08612f87565b6001602b5460ff166005811115610a1b57fe5b148015610a2a57506014544210155b15610a8957602554600f541015610a8157610a7c60606040519081016040528060338152602001600080516020613814833981519152815260200160008051602061383483398151915281525061309d565b610a89565b610a89612f87565b6003602b5460ff166005811115610a9c57fe5b148015610aab5750601d544210155b15610ab857610ab8612f87565b602b5460029060ff166005811115610acc57fe5b816005811115610ad857fe5b14610b2a576040805160e560020a62461bcd02815260206004820152602480820152600080516020613854833981519152604482015260e160020a6330ba329702606482015290519081900360840190fd5b83518551148015610b3c575082518551145b1515610b4757600080fd5b600060045460ff166002811115610b5a57fe5b14610bd5576040805160e560020a62461bcd02815260206004820152602660248201527f4e6f7420706f737369626c6520696e20746869732076616c69646174696f6e2060448201527f73746174652e0000000000000000000000000000000000000000000000000000606482015290519081900360840190fd5b600091505b8451821015610d01578382815181101515610bf157fe5b90602001906020020151601160008785815181101515610c0d57fe5b602090810291909101810151600160a060020a0316825281810192909252604090810160009081208180529092529020558251839083908110610c4c57fe5b90602001906020020151601160008785815181101515610c6857fe5b602090810291909101810151600160a060020a031682528181019290925260409081016000908120600182529092529020558451601290869084908110610cab57fe5b602090810291909101810151825460018082018555600094855292909320909201805473ffffffffffffffffffffffffffffffffffffffff1916600160a060020a03909316929092179091559190910190610bda565b5050505050565b610d10613640565b5060408051808201825233600090815260116020908152838220828052808252848320548452600183528152929020549181019190915290565b6023805460408051602060026001851615610100026000190190941693909304601f81018490048402820184019092528181529291830182828015610dd05780601f10610da557610100808354040283529160200191610dd0565b820191906000526020600020905b815481529060010190602001808311610db357829003601f168201915b505050505081565b600054600160a060020a03163314610def57600080fd5b8051610e0290602390602084019061365b565b5050565b610e0f33612acf565b1515610e65576040805160e560020a62461bcd02815260206004820152601260248201527f4e6f742070617274696369706174696e672e0000000000000000000000000000604482015290519081900360640190fd5b6000602b5460ff166005811115610e7857fe5b148015610e8757506013544210155b15610e9457610e94612f87565b6001602b5460ff166005811115610ea757fe5b148015610eb657506014544210155b15610f1557602554600f541015610f0d57610f0860606040519081016040528060338152602001600080516020613814833981519152815260200160008051602061383483398151915281525061309d565b610f15565b610f15612f87565b6003602b5460ff166005811115610f2857fe5b148015610f375750601d544210155b15610f4457610f44612f87565b602b5460059060ff1681811115610f5757fe5b816005811115610f6357fe5b14610fb5576040805160e560020a62461bcd02815260206004820152602480820152600080516020613854833981519152604482015260e160020a6330ba329702606482015290519081900360840190fd5b60195460001061100f576040805160e560020a62461bcd02815260206004820152601160248201527f4e6f207374616b6520746f20636c61696d000000000000000000000000000000604482015290519081900360640190fd5b600154601954604080517fa9059cbb000000000000000000000000000000000000000000000000000000008152336004820152602481019290925251600160a060020a039092169163a9059cbb916044808201926020929091908290030181600087803b15801561107f57600080fd5b505af1158015611093573d6000803e3d6000fd5b505050506040513d60208110156110a957600080fd5b5050336000818152600e6020908152604091829020805460ff19169055815192835290517f5a53668be860a256c7ff92bff48881a9db38994032e2b90e5a0bdd51921fbeb79281900390910190a150565b600554600160a060020a0316331461115c576040805160e560020a62461bcd02815260206004820152601d60248201527f4e6f7420612064657369676e61746564206d6173746572206e6f64652e000000604482015290519081900360640190fd5b6000602b5460ff16600581111561116f57fe5b14801561117e57506013544210155b1561118b5761118b612f87565b6001602b5460ff16600581111561119e57fe5b1480156111ad57506014544210155b1561120c57602554600f541015611204576111ff60606040519081016040528060338152602001600080516020613814833981519152815260200160008051602061383483398151915281525061309d565b61120c565b61120c612f87565b6003602b5460ff16600581111561121f57fe5b14801561122e5750601d544210155b1561123b5761123b612f87565b602b5460029060ff16600581111561124f57fe5b81600581111561125b57fe5b146112ad576040805160e560020a62461bcd02815260206004820152602480820152600080516020613854833981519152604482015260e160020a6330ba329702606482015290519081900360840190fd5b600060045460ff1660028111156112c057fe5b1461133b576040805160e560020a62461bcd02815260206004820152602660248201527f4e6f7420706f737369626c6520696e20746869732076616c69646174696f6e2060448201527f73746174652e0000000000000000000000000000000000000000000000000000606482015290519081900360840190fd5b815161134e90600690602085019061365b565b50600160078190556004805460ff19169091179055600d5460408051918252517f47c2e9e59e6d2347f314927d02f36b95696a09b5f0ac0bae119ff5ae937016559181900360200190a15050565b606080606080600085516040519080825280602002602001820160405280156113cf578160200160208202803883390190505b50925085516040519080825280602002602001820160405280156113fd578160200160208202803883390190505b509150600090505b85518110156114cf5760116000878381518110151561142057fe5b602090810291909101810151600160a060020a031682528181019290925260409081016000908120818052909252902054835184908390811061145f57fe5b60209081029091010152855160119060009088908490811061147d57fe5b602090810291909101810151600160a060020a0316825281810192909252604090810160009081206001825290925290205482518390839081106114bd57fe5b60209081029091010152600101611405565b509094909350915050565b600080602b5460ff1660058111156114ee57fe5b1480156114fd57506013544210155b1561150a5761150a612f87565b6001602b5460ff16600581111561151d57fe5b14801561152c57506014544210155b1561158b57602554600f5410156115835761157e60606040519081016040528060338152602001600080516020613814833981519152815260200160008051602061383483398151915281525061309d565b61158b565b61158b612f87565b6003602b5460ff16600581111561159e57fe5b1480156115ad5750601d544210155b156115ba576115ba612f87565b6115c333612acf565b1515611619576040805160e560020a62461bcd02815260206004820152601260248201527f4e6f742070617274696369706174696e672e0000000000000000000000000000604482015290519081900360640190fd5b602b5460039060ff16600581111561162d57fe5b81600581111561163957fe5b1461168b576040805160e560020a62461bcd02815260206004820152602480820152600080516020613854833981519152604482015260e160020a6330ba329702606482015290519081900360840190fd5b601c54601e54601a54600154604080517fdd62ed3e00000000000000000000000000000000000000000000000000000000815233600482015230602482015290519490930a90910292600160a060020a039091169163dd62ed3e9160448083019260209291908290030181600087803b15801561170757600080fd5b505af115801561171b573d6000803e3d6000fd5b505050506040513d602081101561173157600080fd5b505110156117af576040805160e560020a62461bcd02815260206004820152602560248201527f4e6f7420656e6f75676820746f6b656e73207374616b656420666f722064697360448201527f707574652e000000000000000000000000000000000000000000000000000000606482015290519081900360840190fd5b336000908152601f602052604090205460ff1615611817576040805160e560020a62461bcd02815260206004820152601c60248201527f416c726561647920747269676765726564206120646973707574652e00000000604482015290519081900360640190fd5b601c8054601e54601a80549183900a90910281556001918201909255336000818152601f60209081526040808320805460ff191686179055815473ffffffffffffffffffffffffffffffffffffffff1916841782559354945484517f23b872dd000000000000000000000000000000000000000000000000000000008152600481019490945230602485015260448401529251600160a060020a03909416936323b872dd936064808501949193918390030190829087803b1580156118db57600080fd5b505af11580156118ef573d6000803e3d6000fd5b505050506040513d602081101561190557600080fd5b5061191090506131d3565b6119186132a0565b602b8054600160ff199091161790556021544281016015819055601481905501601655602780546103e8606482810381028290049092019283905560258054808402929092049182019055602680549382029290920490920190556040805133815290519193507ff6d97c5e133e50668a6b3607d8748ef6599c3303babb2b08a515a5a67369f45f919081900360200190a15050565b60606012805480602002602001604051908101604052809291908181526020018280548015611a0657602002820191906000526020600020905b8154600160a060020a031681526001909101906020018083116119e8575b5050505050905090565b6060600f805480602002602001604051908101604052809291908181526020018280548015611a0657602002820191906000526020600020908154600160a060020a031681526001909101906020018083116119e8575050505050905090565b60195481565b60606003805480602002602001604051908101604052809291908181526020018280548015611a0657602002820191906000526020600020908154600160a060020a031681526001909101906020018083116119e8575050505050905090565b6022805460408051602060026001851615610100026000190190941693909304601f81018490048402820184019092528181529291830182828015610dd05780601f10610da557610100808354040283529160200191610dd0565b602b5460029060ff166005811115611b4557fe5b816005811115611b5157fe5b14611ba3576040805160e560020a62461bcd02815260206004820152602480820152600080516020613854833981519152604482015260e160020a6330ba329702606482015290519081900360840190fd5b82611bad33613352565b8015611bbe5750611bbc610897565b155b1515611c14576040805160e560020a62461bcd02815260206004820152601b60248201527f4e6f7420612076616c69642073656e64657220616464726573732e0000000000604482015290519081900360640190fd5b600160045460ff166002811115611c2757fe5b14611c7c576040805160e560020a62461bcd02815260206004820152601760248201527f4e6f742076616c69646174696e6720726577617264732e000000000000000000604482015290519081900360640190fd5b600d548114611cd5576040805160e560020a62461bcd02815260206004820152601a60248201527f56616c69646174696f6e20726f756e64206d69736d617463682e000000000000604482015290519081900360640190fd5b600d54336000908152600a602052604090205410611d3d576040805160e560020a62461bcd02815260206004820152601d60248201527f416c726561647920766f74656420666f72207468697320726f756e642e000000604482015290519081900360640190fd5b600880546001019055600d54336000908152600a602090815260409182902092909255518451600c9286929182918401908083835b60208310611d915780518252601f199092019160209182019101611d72565b51815160209384036101000a600019018019909216911617905292019485525060405193849003019092205460ff1615159150611ea690505760098054600181018083556000929092528451611e0e917f6e1540171b6c0c960b71a7020d9f60077f6af931a8bbf590da0223dacf75c7af0190602087019061365b565b50506005600601836040518082805190602001908083835b60208310611e455780518252601f199092019160209182019101611e26565b51815160001960209485036101000a0190811690199190911617905292019485525060405193849003810190932080546001810182556000918252939020909201805473ffffffffffffffffffffffffffffffffffffffff19163317905550505b611eae6133b0565b50505050565b611ebc6136d9565b6040805160c081018252602554815260265460208201526027549181019190915260285460608201526029546080820152602a5460a082019060ff166001811115611f0357fe5b9052905090565b600554600160a060020a03163314611f6c576040805160e560020a62461bcd02815260206004820152601d60248201527f4e6f7420612064657369676e61746564206d6173746572206e6f64652e000000604482015290519081900360640190fd5b6000602b5460ff166005811115611f7f57fe5b148015611f8e57506013544210155b15611f9b57611f9b612f87565b6001602b5460ff166005811115611fae57fe5b148015611fbd57506014544210155b1561201c57602554600f5410156120145761200f60606040519081016040528060338152602001600080516020613814833981519152815260200160008051602061383483398151915281525061309d565b61201c565b61201c612f87565b6003602b5460ff16600581111561202f57fe5b14801561203e5750601d544210155b1561204b5761204b612f87565b602b5460049060ff16600581111561205f57fe5b81600581111561206b57fe5b146120bd576040805160e560020a62461bcd02815260206004820152602480820152600080516020613854833981519152604482015260e160020a6330ba329702606482015290519081900360840190fd5b81516120d090602490602085019061365b565b505050565b600054600160a060020a031681565b600154600160a060020a031681565b602b5460029060ff16600581111561210757fe5b81600581111561211357fe5b14612165576040805160e560020a62461bcd02815260206004820152602480820152600080516020613854833981519152604482015260e160020a6330ba329702606482015290519081900360840190fd5b8161216f33613352565b8015612180575061217e610897565b155b15156121d6576040805160e560020a62461bcd02815260206004820152601b60248201527f4e6f7420612076616c69642073656e64657220616464726573732e0000000000604482015290519081900360640190fd5b600160045460ff1660028111156121e957fe5b1461223e576040805160e560020a62461bcd02815260206004820152601760248201527f4e6f742076616c69646174696e6720726577617264732e000000000000000000604482015290519081900360640190fd5b600d548114612297576040805160e560020a62461bcd02815260206004820152601a60248201527f56616c69646174696f6e20726f756e64206d69736d617463682e000000000000604482015290519081900360640190fd5b600d54336000908152600a6020526040902054106122ff576040805160e560020a62461bcd02815260206004820152601d60248201527f416c726561647920766f74656420666f72207468697320726f756e642e000000604482015290519081900360640190fd5b600780546001019055600d54336000908152600a60205260409020556120d06133cb565b61232b6136f8565b60a0604051908101604052806013548152602001601454815260200160155481526020016016548152602001601854815250905090565b60008061236e33612acf565b15156123c4576040805160e560020a62461bcd02815260206004820152601260248201527f4e6f742070617274696369706174696e672e0000000000000000000000000000604482015290519081900360640190fd5b6000602b5460ff1660058111156123d757fe5b1480156123e657506013544210155b156123f3576123f3612f87565b6001602b5460ff16600581111561240657fe5b14801561241557506014544210155b1561247457602554600f54101561246c5761246760606040519081016040528060338152602001600080516020613814833981519152815260200160008051602061383483398151915281525061309d565b612474565b612474612f87565b6003602b5460ff16600581111561248757fe5b1480156124965750601d544210155b156124a3576124a3612f87565b602b5460049060ff1660058111156124b757fe5b8160058111156124c357fe5b14612515576040805160e560020a62461bcd02815260206004820152602480820152600080516020613854833981519152604482015260e160020a6330ba329702606482015290519081900360840190fd5b3360009081526011602090815260408083208380529091528082205460018352912054909350915082158015612549575081155b156125c7576040805160208082526025908201527f596f7520646f206e6f74206861766520616e79207265776172647320746f2063818301527f6c61696d2e000000000000000000000000000000000000000000000000000000606082015290516000805160206137f48339815191529181900360800190a16120d0565b336000908152601160209081526040808320838052909152902054303110806126995750336000908152601160209081526040808320600180855290835281842054905482517f70a0823100000000000000000000000000000000000000000000000000000000815230600482015292519194600160a060020a03909116936370a08231936024808201949293918390030190829087803b15801561266b57600080fd5b505af115801561267f573d6000803e3d6000fd5b505050506040513d602081101561269557600080fd5b5051105b1561273d576040805160208082526045908201527f437269746963616c206572726f723a206e6f7420656e6f7567682062616c616e818301527f636520746f20706179206f7574207265776172642e20436f6e7461637420566560608201527f726974792e000000000000000000000000000000000000000000000000000000608082015290516000805160206137f48339815191529181900360a00190a16120d0565b33600081815260116020908152604080832083805290915280822082905560018252808220829055516108fc86150291869190818181858888f1935050505015801561278d573d6000803e3d6000fd5b50600082111561283157600154604080517fa9059cbb000000000000000000000000000000000000000000000000000000008152336004820152602481018590529051600160a060020a039092169163a9059cbb916044808201926020929091908290030181600087803b15801561280457600080fd5b505af1158015612818573d6000803e3d6000fd5b505050506040513d602081101561282e57600080fd5b50505b6040805133815290517f63e32091e4445d16e29c33a6b264577c2d86694021aa4e6f4dd590048f5792e89181900360200190a1505050565b612871613717565b5060408051608081018252601a548152601b54602080830191909152601e5492820192909252601c5460608201529054600160a060020a03169091565b60248054604080516020601f6002600019610100600188161502019095169490940493840181900481028201810190925282815260609390929091830182828015611a065780601f1061290f57610100808354040283529160200191611a06565b820191906000526020600020905b81548152906001019060200180831161291d57509395945050505050565b60008054600160a060020a0316331461295357600080fd5b60185442101561296257600080fd5b60008054604051600160a060020a0390911691303180156108fc02929091818181858888f1935050505015801561299d573d6000803e3d6000fd5b50600154604080517f70a082310000000000000000000000000000000000000000000000000000000081523060048201529051600160a060020a03909216916370a08231916024808201926020929091908290030181600087803b158015612a0457600080fd5b505af1158015612a18573d6000803e3d6000fd5b505050506040513d6020811015612a2e57600080fd5b505160015460008054604080517fa9059cbb000000000000000000000000000000000000000000000000000000008152600160a060020a03928316600482015260248101869052905194955092169263a9059cbb926044808201936020939283900390910190829087803b158015612aa557600080fd5b505af1158015612ab9573d6000803e3d6000fd5b505050506040513d60208110156120d057600080fd5b600160a060020a03166000908152600e602052604090205460ff1690565b6000602b5460ff166005811115612b0057fe5b148015612b0f57506013544210155b15612b1c57612b1c612f87565b6001602b5460ff166005811115612b2f57fe5b148015612b3e57506014544210155b15612b9d57602554600f541015612b9557612b9060606040519081016040528060338152602001600080516020613814833981519152815260200160008051602061383483398151915281525061309d565b612b9d565b612b9d612f87565b6003602b5460ff166005811115612bb057fe5b148015612bbf5750601d544210155b15612bcc57612bcc612f87565b612bd533612acf565b15612c2d57604080516020808252601e908201527f596f752061726520616c72656164792070617274696369706174696e672e00008183015290516000805160206137f48339815191529181900360600190a1612f85565b6001602b5460ff166005811115612c4057fe5b14612cbe57604080516020808252602b908201527f596f752063616e206f6e6c79206a6f696e20696e20746865204170706c696361818301527f74696f6e2073746174652e000000000000000000000000000000000000000000606082015290516000805160206137f48339815191529181900360800190a1612f85565b6000601954118015612d685750601954600154604080517fdd62ed3e0000000000000000000000000000000000000000000000000000000081523360048201523060248201529051600160a060020a039092169163dd62ed3e916044808201926020929091908290030181600087803b158015612d3a57600080fd5b505af1158015612d4e573d6000803e3d6000fd5b505050506040513d6020811015612d6457600080fd5b5051105b15612dc0576040805160208082526019908201527f4e6f7420656e6f75676820746f6b656e73207374616b65642e000000000000008183015290516000805160206137f48339815191529181900360600190a1612f85565b60006019541115612e6e57600154601954604080517f23b872dd000000000000000000000000000000000000000000000000000000008152336004820152306024820152604481019290925251600160a060020a03909216916323b872dd916064808201926020929091908290030181600087803b158015612e4157600080fd5b505af1158015612e55573d6000803e3d6000fd5b505050506040513d6020811015612e6b57600080fd5b50505b336000818152600e6020526040808220805460ff19166001908117909155600f8054918201815583527f8d1108e10bcb7c27dddfc02ed9d693a074039d026cf4ea4240b40f7d581ac80201805473ffffffffffffffffffffffffffffffffffffffff19168417905560025481517fb9d3514d00000000000000000000000000000000000000000000000000000000815260048101949094529051600160a060020a03919091169263b9d3514d92602480830193919282900301818387803b158015612f3857600080fd5b505af1158015612f4c573d6000803e3d6000fd5b50506040805133815290517f0940fd5e528ae9fa6c086f42387c791c3854e0febdf0717c2da155c9dbf1e86c9350908190036020019150a15b565b6004602b5460ff166005811115612f9a57fe5b10613015576040805160e560020a62461bcd02815260206004820152602660248201527f4576656e742073746174652063616e2774206265206d6f64696669656420616e60448201527f796d6f72652e0000000000000000000000000000000000000000000000000000606482015290519081900360840190fd5b602b5460ff16600581111561302657fe5b600101600581111561303457fe5b602b805460ff1916600183600581111561304a57fe5b0217905550602b546040517fb9eb8a309bf89f3159b39681f485b6430fec1035b2b457edbcdadcdece888c0b9160ff16908082600581111561308857fe5b60ff16815260200191505060405180910390a1565b6004602b5460ff1660058111156130b057fe5b1061312b576040805160e560020a62461bcd02815260206004820152602660248201527f4576656e742073746174652063616e2774206265206d6f64696669656420616e60448201527f796d6f72652e0000000000000000000000000000000000000000000000000000606482015290519081900360840190fd5b602b805460ff1916600517905560408051602080825283518183015283517f860b7e55e58bd6095b36c4b4016ed8a2e47cb8ebd020fa0e43b32649deb540c3938593928392918301919085019080838360005b8381101561319657818101518382015260200161317e565b50505050905090810190601f1680156131c35780820380516001836020036101000a031916815260200191505b509250505060405180910390a150565b6000600781905560088190555b6009548110156132875760098054600b9190839081106131fc57fe5b9060005260206000200160405180828054600181600116156101000203166002900480156132615780601f1061323f576101008083540402835291820191613261565b820191906000526020600020905b81548152906001019060200180831161324d575b5050928352505060405190819003602001902061327f906000613736565b6001016131e0565b61329360096000613754565b506004805460ff19169055565b60005b601254811015613343576000601160006012848154811015156132c257fe5b600091825260208083209190910154600160a060020a0316835282810193909352604091820181208180529092528120919091556012805460119183918590811061330957fe5b600091825260208083209190910154600160a060020a031683528281019390935260409182018120600180835293522091909155016132a3565b61334f60126000613736565b50565b6000805b6003548110156133a55782600160a060020a031660038281548110151561337957fe5b600091825260209091200154600160a060020a0316141561339d57600191506133aa565b600101613356565b600091505b50919050565b6027546064036133be6133f8565b10612f8557612f85613414565b6027546133d661350a565b10612f85576004805460ff19166002179055601b544201601d55612f85612f87565b6003546008546000919060640281151561340e57fe5b04905090565b600160056007016005600101604051808280546001816001161561010002031660029004801561347b5780601f1061345957610100808354040283529182019161347b565b820191906000526020600020905b815481529060010190602001808311613467575b50509283525050604051602091819003919091019020805460ff1916911515919091179055600954600854600d54600754929091036001019101600019011115613502576134fd6040805190810160405280601a81526020017f436f6e73656e7375732063616e2774206265207265616368656400000000000081525061309d565b612f85565b612f85613520565b6003546007546000919060640281151561340e57fe5b600d8054600101905560098054600b9190600090811061353c57fe5b9060005260206000200160405180828054600181600116156101000203166002900480156135a15780601f1061357f5761010080835404028352918201916135a1565b820191906000526020600020905b81548152906001019060200180831161358d575b50509283525050604051908190036020019020805460009081106135c157fe5b6000918252602090912001546005805473ffffffffffffffffffffffffffffffffffffffff1916600160a060020a039092169190911790556136016131d3565b6136096132a0565b600d5460408051918252517fc785d855a24b92cb8266e0a85180a9fa4fe03d182f82a8555b01e1f986d267df9181900360200190a1565b60408051808201825290600290829080388339509192915050565b828054600181600116156101000203166002900490600052602060002090601f016020900481019282601f1061369c57805160ff19168380011785556136c9565b828001600101855582156136c9579182015b828111156136c95782518255916020019190600101906136ae565b506136d5929150613772565b5090565b60c0604051908101604052806006906020820280388339509192915050565b60a0604051908101604052806005906020820280388339509192915050565b6080604051908101604052806004906020820280388339509192915050565b508054600082559060005260206000209081019061334f9190613772565b508054600082559060005260206000209081019061334f919061378c565b6108a691905b808211156136d55760008155600101613778565b6108a691905b808211156136d55760006137a682826137af565b50600101613792565b50805460018160011615610100020316600290046000825580601f106137d5575061334f565b601f01602090049060005260206000209081019061334f9190613772560008c379a0afcc32b1a39302f7cb8073359698411ab5fd6e3edb2c02c0b5fba8aa4e6f7420656e6f756768207573657273206a6f696e656420666f72207265717569726564206d696e696d756d20766f7465732e000000000000000000000000004e6f7420706f737369626c6520696e2063757272656e74206576656e74207374a165627a7a72305820857478ec93d54ecd4ef9bc98ce780757867709361d53048b9c1238d6e35c738c0029",
  "source": "pragma solidity 0.4.24;\n\n\nimport \"./EventRegistry.sol\";\nimport \"./VerityToken.sol\";\n\n\ncontract VerityEvent {\n    /// Contract's owner, used for permission management\n    address public owner;\n\n    /// Token contract address, used for tokend distribution\n    address public tokenAddress;\n\n    /// Event registry contract address\n    address public eventRegistryAddress;\n\n    /// Designated validation nodes that will decide rewards.\n    address[] eventResolvers;\n\n    /// - WaitingForRewards: Waiting for current master to set rewards.\n    /// - Validating: Master has set rewards. Vaiting for node validation.\n    /// - Finished: Either successfully validated or failed.\n    enum ValidationState {\n        WaitingForRewards,\n        Validating,\n        Finished\n    }\n    ValidationState validationState = ValidationState.WaitingForRewards;\n\n    struct RewardsValidation {\n        address currentMasterNode;\n        string rewardsHash;\n        uint approvalCount;\n        uint rejectionCount;\n        string[] altHashes;\n        mapping(address => uint) votersRound;\n        mapping(string => address[]) altHashVotes;\n        mapping(string => bool) rejectedHashes;\n    }\n    RewardsValidation rewardsValidation;\n\n    /// Round of validation. Increases by each failed validation\n    uint public rewardsValidationRound;\n\n    /// A list of all the participating wallet addresses, implemented as a mapping\n    /// to provide constant lookup times.\n    mapping(address => bool) participants;\n    address[] participantsIndex;\n\n    enum RewardType {\n        Ether,\n        Token\n    }\n    RewardType rewardType;\n\n    /// A mapping of addresses to their assigned rewards\n    mapping(address => mapping(uint => uint)) rewards;\n    address[] rewardsIndex;\n\n    /// Event application start time, users cannot apply to participate before it\n    uint applicationStartTime;\n\n    /// Event application end time, users cannot apply after this time\n    uint applicationEndTime;\n\n    /// Event actual start time, votes before this should not be accepted\n    uint eventStartTime;\n\n    /// Event end time, it is calculated in the constructor\n    uint eventEndTime;\n\n    /// Ipfs event data hash\n    string ipfsEventHash;\n\n    /// Event name, here for informational use - not used otherwise\n    /// owner can recover tokens and ether after this time\n    uint leftoversRecoverableAfter;\n\n    /// Amount of tokens that each user must stake before voting.\n    uint public stakingAmount;\n\n    struct Dispute {\n        uint amount;\n        uint timeout;\n        uint round;\n        uint expiresAt;\n        uint multiplier;\n        mapping(address => bool) disputers;\n        address currentDisputer;\n    }\n    Dispute dispute;\n\n    uint defaultDisputeTimeExtension = 1800; // 30 minutes\n\n    string public eventName;\n\n    /// Data feed hash, used for verification\n    string public dataFeedHash;\n    string result;\n\n    enum RewardsDistribution {\n        Linear, // 0\n        Exponential // 1\n    }\n\n    struct ConsensusRules {\n        uint minTotalVotes;\n        uint minConsensusVotes;\n        uint minConsensusRatio;\n        uint minParticipantRatio;\n        uint maxParticipants;\n        RewardsDistribution rewardsDistribution;\n    }\n    ConsensusRules consensusRules;\n\n    /// Event's states\n    /// Events advance in the order defined here. Once the event reaches \"Reward\"\n    /// state, it cannot advance further.\n    /// Event states:\n    ///   - Waiting         -- Contract has been created, nothing is happening yet\n    ///   - Application     -- After applicationStartTime, the event advances here\n    ///                        new wallets can be added to the participats list during this state.\n    ///   - Running         -- Event is running, no new participants can be added\n    ///   - DisputeTimeout  -- Dispute possible\n    ///   - Reward          -- Participants can claim their payouts here - final state; can't be modified.\n    ///   - Failed          -- Event failed (no consensus, not enough users, timeout, ...) - final state; can't be modified\n    enum EventStates {\n        Waiting,\n        Application,\n        Running,\n        DisputeTimeout,\n        Reward,\n        Failed\n    }\n    EventStates eventState = EventStates.Waiting;\n\n    event StateTransition(EventStates newState);\n    event JoinEvent(address wallet);\n    event ClaimReward(address recipient);\n    event Error(string description);\n    event EventFailed(string description);\n    event ValidationStarted(uint validationRound);\n    event ValidationRestart(uint validationRound);\n    event DisputeTriggered(address byAddress);\n    event ClaimStake(address recipient);\n\n    constructor(\n        string _eventName,\n        uint _applicationStartTime,\n        uint _applicationEndTime,\n        uint _eventStartTime,\n        uint _eventRunTime, // in seconds\n        address _tokenAddress,\n        address _registry,\n        address[] _eventResolvers,\n        uint _leftoversRecoverableAfter, // with timestamp (in seconds)\n        uint[6] _consensusRules, // [minTotalVotes, minConsensusVotes, minConsensusRatio, minParticipantRatio, maxParticipants, distribution]\n        uint _stakingAmount,\n        uint[3] _disputeRules, // [dispute amount, dispute timeout, dispute multiplier]\n        string _ipfsEventHash\n    )\n        public\n        payable\n    {\n        require(_applicationStartTime < _applicationEndTime);\n        require(_eventStartTime > _applicationEndTime, \"Event can't start before applications close.\");\n\n        applicationStartTime = _applicationStartTime;\n        applicationEndTime = _applicationEndTime;\n        tokenAddress = _tokenAddress;\n\n        eventName = _eventName;\n        eventStartTime = _eventStartTime;\n        eventEndTime = _eventStartTime + _eventRunTime;\n\n        eventResolvers = _eventResolvers;\n\n        owner = msg.sender;\n        leftoversRecoverableAfter = _leftoversRecoverableAfter;\n\n        rewardsValidationRound = 1;\n        rewardsValidation.currentMasterNode = eventResolvers[0];\n\n        stakingAmount = _stakingAmount;\n\n        ipfsEventHash = _ipfsEventHash;\n\n        setConsensusRules(_consensusRules);\n        setDisputeData(_disputeRules);\n\n        eventRegistryAddress = _registry;\n\n        EventRegistry(eventRegistryAddress).registerEvent();\n    }\n\n    /// A modifier signifiying that a certain method can only be used by the creator\n    /// of the contract.\n    /// Rollbacks the transaction on failure.\n    modifier onlyOwner() {\n        require(msg.sender == owner);\n        _;\n    }\n\n    /// A modifier signifiying that rewards can be set only by the designated master node.\n    /// Rollbacks the transaction on failure.\n    modifier onlyCurrentMaster() {\n        require(\n            msg.sender == rewardsValidation.currentMasterNode,\n            \"Not a designated master node.\"\n        );\n        _;\n    }\n\n    ///\tA modifier signifying that a certain method can only be used by a wallet\n    ///\tmarked as a participant.\n    ///\tRollbacks the transaction or failure.\n    modifier onlyParticipating() {\n        require(\n            isParticipating(msg.sender),\n            \"Not participating.\"\n        );\n        _;\n    }\n\n    /// A modifier signifying that a certain method can only be used when the event\n    /// is in a certain state.\n    /// @param _state The event's required state\n    /// Example:\n    /// \tfunction claimReward() onlyParticipanting onlyState(EventStates.Reward) {\n    /// \t\t// ... content\n    /// \t}\n    modifier onlyState(EventStates _state) {\n        require(\n            _state == eventState,\n            \"Not possible in current event state.\"\n        );\n        _;\n    }\n\n    /// A modifier taking care of all the timed state transitions.\n    /// Should always be used before all other modifiers, especially `onlyState`,\n    /// since it can change state.\n    /// Should probably be used in ALL non-constant (transaction) methods of\n    /// the contract.\n    modifier timedStateTransition() {\n        if (eventState == EventStates.Waiting && now >= applicationStartTime) {\n            advanceState();\n        }\n\n        if (eventState == EventStates.Application && now >= applicationEndTime) {\n            if (participantsIndex.length < consensusRules.minTotalVotes) {\n                markAsFailed(\"Not enough users joined for required minimum votes.\");\n            } else {\n                advanceState();\n            }\n        }\n\n        if (eventState == EventStates.DisputeTimeout && now >= dispute.expiresAt) {\n            advanceState();\n        }\n        _;\n    }\n\n    modifier onlyChangeableState() {\n        require(\n            uint(eventState) < uint(EventStates.Reward),\n            \"Event state can't be modified anymore.\"\n        );\n        _;\n    }\n\n    modifier onlyAfterLefroversCanBeRecovered() {\n        require(now >= leftoversRecoverableAfter);\n        _;\n    }\n\n    modifier canValidateRewards(uint forRound) {\n        require(\n            isNode(msg.sender) && !isMasterNode(),\n            \"Not a valid sender address.\"\n        );\n\n        require(\n            validationState == ValidationState.Validating,\n            \"Not validating rewards.\"\n        );\n\n        require(\n            forRound == rewardsValidationRound,\n            \"Validation round mismatch.\"\n        );\n\n        require(\n            rewardsValidation.votersRound[msg.sender] < rewardsValidationRound,\n            \"Already voted for this round.\"\n        );\n        _;\n    }\n\n    /// Ensure we can receive money at any time.\n    /// Not used, but we might want to extend the reward fund while event is running.\n    function() public payable {}\n\n    /// Apply for participation in this event.\n    /// Available only during the Application state.\n    /// A transaction to this function has to be done by the users themselves,\n    /// registering their wallet address as a participent.\n    /// The transaction does not have to include any funds.\n    function joinEvent()\n        public\n        timedStateTransition\n    {\n        if (isParticipating(msg.sender)) {\n            emit Error(\"You are already participating.\");\n            return;\n        }\n\n        if (eventState != EventStates.Application) {\n            emit Error(\"You can only join in the Application state.\");\n            return;\n        }\n\n        if (\n            stakingAmount > 0 &&\n            VerityToken(tokenAddress).allowance(msg.sender, address(this)) < stakingAmount\n        ) {\n            emit Error(\"Not enough tokens staked.\");\n            return;\n        }\n\n        if (stakingAmount > 0) {\n            VerityToken(tokenAddress).transferFrom(msg.sender, address(this), stakingAmount);\n        }\n        participants[msg.sender] = true;\n        participantsIndex.push(msg.sender);\n        EventRegistry(eventRegistryAddress).addEventToUser(msg.sender);\n        emit JoinEvent(msg.sender);\n    }\n\n    /// Checks whether an address is participating in this event.\n    /// @param _user The addres to check for participation\n    /// @return {bool} Whether the given address is a participant of this event\n    function isParticipating(address _user) public view returns(bool) {\n        return participants[_user];\n    }\n\n    function getParticipants() public view returns(address[]) {\n        return participantsIndex;\n    }\n\n    function getEventTimes() public view returns(uint[5]) {\n        return [\n            applicationStartTime,\n            applicationEndTime,\n            eventStartTime,\n            eventEndTime,\n            leftoversRecoverableAfter\n        ];\n    }\n\n    /// Assign the actual rewards.\n    /// Receives a list of addresses and a list rewards. Mapping between the two\n    /// is done by the addresses' and reward's numerical index in the list, so\n    /// order is important.\n    /// @param _addresses A list of addresses\n    /// @param _etherRewards A list of ether rewards, must be the exact same length as addresses\n    /// @param _tokenRewards A list of token rewards, must be the exact same length as addresses\n    function setRewards(\n        address[] _addresses,\n        uint[] _etherRewards,\n        uint[] _tokenRewards\n    )\n        public\n        onlyCurrentMaster\n        timedStateTransition\n        onlyState(EventStates.Running)\n    {\n        require(\n            _addresses.length == _etherRewards.length &&\n            _addresses.length == _tokenRewards.length\n        );\n\n        require(\n            validationState == ValidationState.WaitingForRewards,\n            \"Not possible in this validation state.\"\n        );\n\n        for (uint i = 0; i < _addresses.length; ++i) {\n            rewards[_addresses[i]][uint(RewardType.Ether)] = _etherRewards[i];\n            rewards[_addresses[i]][uint(RewardType.Token)] = _tokenRewards[i];\n            rewardsIndex.push(_addresses[i]);\n        }\n    }\n\n    /// Triggered by the master node once rewards are set and ready to validate\n    function markRewardsSet(string rewardsHash)\n        public\n        onlyCurrentMaster\n        timedStateTransition\n        onlyState(EventStates.Running)\n    {\n        require(\n            validationState == ValidationState.WaitingForRewards,\n            \"Not possible in this validation state.\"\n        );\n\n        rewardsValidation.rewardsHash = rewardsHash;\n        rewardsValidation.approvalCount = 1;\n        validationState = ValidationState.Validating;\n        emit ValidationStarted(rewardsValidationRound);\n    }\n\n    /// Called by event resolver nodes if they agree with rewards\n    function approveRewards(uint validationRound)\n        public\n        onlyState(EventStates.Running)\n        canValidateRewards(validationRound)\n    {\n        ++rewardsValidation.approvalCount;\n        rewardsValidation.votersRound[msg.sender] = rewardsValidationRound;\n        checkApprovalRatio();\n    }\n\n    /// Called by event resolvers if they don't agree with rewards\n    function rejectRewards(uint validationRound, string altHash)\n        public\n        onlyState(EventStates.Running)\n        canValidateRewards(validationRound)\n    {\n        ++rewardsValidation.rejectionCount;\n        rewardsValidation.votersRound[msg.sender] = rewardsValidationRound;\n\n        if (!rewardsValidation.rejectedHashes[altHash]) {\n            rewardsValidation.altHashes.push(altHash);\n            rewardsValidation.altHashVotes[altHash].push(msg.sender);\n        }\n\n        checkRejectionRatio();\n    }\n\n    /// Trigger a dispute.\n    function triggerDispute()\n        public\n        timedStateTransition\n        onlyParticipating\n        onlyState(EventStates.DisputeTimeout)\n    {\n        require(\n            VerityToken(tokenAddress).allowance(msg.sender, address(this)) >=\n            dispute.amount * dispute.multiplier**dispute.round,\n            \"Not enough tokens staked for dispute.\"\n        );\n\n        require(\n            dispute.disputers[msg.sender] == false,\n            \"Already triggered a dispute.\"\n        );\n\n        /// Increase dispute amount for next dispute and store disputer\n        dispute.amount = dispute.amount * dispute.multiplier**dispute.round;\n        ++dispute.round;\n        dispute.disputers[msg.sender] = true;\n        dispute.currentDisputer = msg.sender;\n\n        /// Transfer staked amount\n        VerityToken(tokenAddress).transferFrom(msg.sender, address(this), dispute.amount);\n\n        /// Restart event\n        deleteValidationData();\n        deleteRewards();\n        eventState = EventStates.Application;\n        applicationEndTime = eventStartTime = now + defaultDisputeTimeExtension;\n        eventEndTime = eventStartTime + defaultDisputeTimeExtension;\n\n        /// Make consensus rules stricter\n        /// Increases by ~10% of consensus diff\n        consensusRules.minConsensusRatio += (100 - consensusRules.minConsensusRatio) * 100 / 1000;\n        /// Increase total votes required my ~10% and consensus votes by consensus ratio\n        uint votesIncrease = consensusRules.minTotalVotes * 100 / 1000;\n        consensusRules.minTotalVotes += votesIncrease;\n        consensusRules.minConsensusVotes += votesIncrease * consensusRules.minConsensusRatio / 100;\n\n        emit DisputeTriggered(msg.sender);\n    }\n\n    /// Checks current approvals for threshold\n    function checkApprovalRatio() private {\n        if (approvalRatio() >= consensusRules.minConsensusRatio) {\n            validationState = ValidationState.Finished;\n            dispute.expiresAt = now + dispute.timeout;\n            advanceState();\n        }\n    }\n\n    /// Checks current rejections for threshold\n    function checkRejectionRatio() private {\n        if (rejectionRatio() >= (100 - consensusRules.minConsensusRatio)) {\n            rejectCurrentValidation();\n        }\n    }\n\n    /// Handle the rejection of current rewards\n    function rejectCurrentValidation() private {\n        rewardsValidation.rejectedHashes[rewardsValidation.rewardsHash] = true;\n\n        // If approved votes are over the threshold all other hashes will also fail\n        if (\n            rewardsValidation.approvalCount + rewardsValidationRound - 1 >\n            rewardsValidation.rejectionCount - rewardsValidation.altHashes.length + 1\n        ) {\n            markAsFailed(\"Consensus can't be reached\");\n        } else {\n            restartValidation();\n        }\n    }\n\n    function restartValidation() private {\n        ++rewardsValidationRound;\n        rewardsValidation.currentMasterNode = rewardsValidation.altHashVotes[rewardsValidation.altHashes[0]][0];\n\n        deleteValidationData();\n        deleteRewards();\n\n        emit ValidationRestart(rewardsValidationRound);\n    }\n\n    /// Delete rewards.\n    function deleteRewards() private {\n        for (uint j = 0; j < rewardsIndex.length; ++j) {\n            rewards[rewardsIndex[j]][uint(RewardType.Ether)] = 0;\n            rewards[rewardsIndex[j]][uint(RewardType.Token)] = 0;\n        }\n        delete rewardsIndex;\n    }\n\n    /// Delete validation data\n    function deleteValidationData() private {\n        rewardsValidation.approvalCount = 0;\n        rewardsValidation.rejectionCount = 0;\n        for (uint i = 0; i < rewardsValidation.altHashes.length; ++i) {\n            delete rewardsValidation.altHashVotes[rewardsValidation.altHashes[i]];\n        }\n        delete rewardsValidation.altHashes;\n        validationState = ValidationState.WaitingForRewards;\n    }\n\n    /// Ratio of nodes that approved of current hash\n    function approvalRatio() private view returns(uint) {\n        return rewardsValidation.approvalCount * 100 / eventResolvers.length;\n    }\n\n    /// Ratio of nodes that rejected the current hash\n    function rejectionRatio() private view returns(uint) {\n        return rewardsValidation.rejectionCount * 100 / eventResolvers.length;\n    }\n\n    /// Returns the whole array of event resolvers.\n    function getEventResolvers() public view returns(address[]) {\n        return eventResolvers;\n    }\n\n    /// Checks if the address is current master node.\n    function isMasterNode() public view returns(bool) {\n        return rewardsValidation.currentMasterNode == msg.sender;\n    }\n\n    function isNode(address node) private view returns(bool) {\n        for(uint i = 0; i < eventResolvers.length; ++i) {\n            if(eventResolvers[i] == node) {\n                return true;\n            }\n        }\n        return false;\n    }\n\n    /// Returns the calling user's assigned rewards. Can be 0.\n    /// Only available to participating users in the Reward state, since rewards\n    /// are not assigned before that.\n    function getReward()\n        public\n        view\n        returns(uint[2])\n    {\n        return [\n            rewards[msg.sender][uint(RewardType.Ether)],\n            rewards[msg.sender][uint(RewardType.Token)]\n        ];\n    }\n\n    /// Returns all the addresses that have rewards set.\n    function getRewardsIndex() public view returns(address[]) {\n        return rewardsIndex;\n    }\n\n    /// Returns rewards for specified addresses.\n    /// [[ethRewards, tokenRewards], [ethRewards, tokenRewards], ...]\n    function getRewards(address[] _addresses)\n        public\n        view\n        returns(uint[], uint[])\n    {\n        uint[] memory ethRewards = new uint[](_addresses.length);\n        uint[] memory tokenRewards = new uint[](_addresses.length);\n\n        for(uint i = 0; i < _addresses.length; ++i) {\n            ethRewards[i] = rewards[_addresses[i]][uint(RewardType.Ether)];\n            tokenRewards[i] = rewards[_addresses[i]][uint(RewardType.Token)];\n        }\n\n        return (ethRewards, tokenRewards);\n    }\n\n    /// Claim a reward.\n    /// Needs to be called by the users themselves.\n    /// Only available in the Reward state, after rewards have been received from\n    /// the validation nodes.\n    function claimReward()\n        public\n        onlyParticipating\n        timedStateTransition\n        onlyState(EventStates.Reward)\n    {\n        uint etherReward = rewards[msg.sender][uint(RewardType.Ether)];\n        uint tokenReward = rewards[msg.sender][uint(RewardType.Token)];\n\n        if (etherReward == 0 && tokenReward == 0) {\n            emit Error(\"You do not have any rewards to claim.\");\n            return;\n        }\n\n        if (\n            address(this).balance < rewards[msg.sender][uint(RewardType.Ether)] ||\n            VerityToken(tokenAddress).balanceOf(address(this)) < rewards[msg.sender][uint(RewardType.Token)]\n        ) {\n            emit Error(\"Critical error: not enough balance to pay out reward. Contact Verity.\");\n            return;\n        }\n\n        rewards[msg.sender][uint(RewardType.Ether)] = 0;\n        rewards[msg.sender][uint(RewardType.Token)] = 0;\n\n        msg.sender.transfer(etherReward);\n        if (tokenReward > 0) {\n            VerityToken(tokenAddress).transfer(msg.sender, tokenReward);\n        }\n\n        emit ClaimReward(msg.sender);\n    }\n\n    function claimFailed()\n        public\n        onlyParticipating\n        timedStateTransition\n        onlyState(EventStates.Failed)\n    {\n        require(\n            stakingAmount > 0,\n            \"No stake to claim\"\n        );\n\n        VerityToken(tokenAddress).transfer(msg.sender, stakingAmount);\n        participants[msg.sender] = false;\n        emit ClaimStake(msg.sender);\n    }\n\n    function setDataFeedHash(string _hash) public onlyOwner {\n        dataFeedHash = _hash;\n    }\n\n    function setResult(string _result)\n        public\n        onlyCurrentMaster\n        timedStateTransition\n        onlyState(EventStates.Reward)\n    {\n        result = _result;\n    }\n\n    function getResult() public view returns(string) {\n        return result;\n    }\n\n    function getState() public view returns(uint) {\n        return uint(eventState);\n    }\n\n    function getBalance() public view returns(uint[2]) {\n        return [\n            address(this).balance,\n            VerityToken(tokenAddress).balanceOf(address(this))\n        ];\n    }\n\n    /// Returns an array of consensus rules.\n    /// [minTotalVotes, minConsensusVotes, minConsensusRatio, minParticipantRatio, maxParticipants]\n    function getConsensusRules() public view returns(uint[6]) {\n        return [\n            consensusRules.minTotalVotes,\n            consensusRules.minConsensusVotes,\n            consensusRules.minConsensusRatio,\n            consensusRules.minParticipantRatio,\n            consensusRules.maxParticipants,\n            uint(consensusRules.rewardsDistribution)\n        ];\n    }\n\n    /// Returns an array of dispute rules.\n    /// [dispute amount, dispute timeout, dispute round]\n    function getDisputeData() public view returns(uint[4], address) {\n        return ([\n            dispute.amount,\n            dispute.timeout,\n            dispute.multiplier,\n            dispute.round\n        ], dispute.currentDisputer);\n    }\n\n    function recoverLeftovers()\n        public\n        onlyOwner\n        onlyAfterLefroversCanBeRecovered\n    {\n        owner.transfer(address(this).balance);\n        uint tokenBalance = VerityToken(tokenAddress).balanceOf(address(this));\n        VerityToken(tokenAddress).transfer(owner, tokenBalance);\n    }\n\n    /// Advances the event's state to the next one. Only for internal use.\n    function advanceState() private onlyChangeableState {\n        eventState = EventStates(uint(eventState) + 1);\n        emit StateTransition(eventState);\n    }\n\n    /// Sets consensus rules. For internal use only.\n    function setConsensusRules(uint[6] rules) private {\n        consensusRules.minTotalVotes = rules[0];\n        consensusRules.minConsensusVotes = rules[1];\n        consensusRules.minConsensusRatio = rules[2];\n        consensusRules.minParticipantRatio = rules[3];\n        consensusRules.maxParticipants = rules[4];\n        consensusRules.rewardsDistribution = RewardsDistribution(rules[5]);\n    }\n\n    function markAsFailed(string description) private onlyChangeableState {\n        eventState = EventStates.Failed;\n        emit EventFailed(description);\n    }\n\n    function setDisputeData(uint[3] rules) private {\n        uint _multiplier = rules[2];\n        if (_multiplier <= 1) {\n            _multiplier = 1;\n        }\n\n        dispute.amount = rules[0];\n        dispute.timeout = rules[1];\n        dispute.multiplier = _multiplier;\n        dispute.round = 0;\n    }\n}\n",
  "sourcePath": "/Users/nejc/gitlab/verity/verity-contracts/verity-event/contracts/VerityEvent.sol",
  "compiler": {
    "name": "solc",
    "version": "0.4.24+commit.e67f0147.Emscripten.clang"
  },
  "schemaVersion": "2.0.1",
  "updatedAt": "2018-11-16T08:22:12.906Z"
}