{
  "contractName": "VerityEvent",
  "abi": [
    {
      "constant": true,
      "inputs": [],
      "name": "rewardsValidationRound",
      "outputs": [
        {
          "name": "",
          "type": "uint256"
        }
      ],
      "payable": false,
      "stateMutability": "view",
      "type": "function"
    },
    {
      "constant": true,
      "inputs": [],
      "name": "nodeRewardsPool",
      "outputs": [
        {
          "name": "",
          "type": "uint256"
        }
      ],
      "payable": false,
      "stateMutability": "view",
      "type": "function"
    },
    {
      "constant": true,
      "inputs": [],
      "name": "eventRegistryAddress",
      "outputs": [
        {
          "name": "",
          "type": "address"
        }
      ],
      "payable": false,
      "stateMutability": "view",
      "type": "function"
    },
    {
      "constant": true,
      "inputs": [],
      "name": "isMasterNode",
      "outputs": [
        {
          "name": "",
          "type": "bool"
        }
      ],
      "payable": false,
      "stateMutability": "view",
      "type": "function"
    },
    {
      "constant": true,
      "inputs": [],
      "name": "getBalance",
      "outputs": [
        {
          "name": "",
          "type": "uint256[2]"
        }
      ],
      "payable": false,
      "stateMutability": "view",
      "type": "function"
    },
    {
      "constant": true,
      "inputs": [],
      "name": "eventCanceled",
      "outputs": [
        {
          "name": "",
          "type": "bool"
        }
      ],
      "payable": false,
      "stateMutability": "view",
      "type": "function"
    },
    {
      "constant": true,
      "inputs": [],
      "name": "requiredNextDisputeAmount",
      "outputs": [
        {
          "name": "",
          "type": "uint256"
        }
      ],
      "payable": false,
      "stateMutability": "view",
      "type": "function"
    },
    {
      "constant": true,
      "inputs": [],
      "name": "getState",
      "outputs": [
        {
          "name": "",
          "type": "uint256"
        }
      ],
      "payable": false,
      "stateMutability": "view",
      "type": "function"
    },
    {
      "constant": false,
      "inputs": [
        {
          "name": "_addresses",
          "type": "address[]"
        },
        {
          "name": "_etherRewards",
          "type": "uint256[]"
        },
        {
          "name": "_tokenRewards",
          "type": "uint256[]"
        }
      ],
      "name": "setRewards",
      "outputs": [],
      "payable": false,
      "stateMutability": "nonpayable",
      "type": "function"
    },
    {
      "constant": true,
      "inputs": [],
      "name": "validationState",
      "outputs": [
        {
          "name": "",
          "type": "uint8"
        }
      ],
      "payable": false,
      "stateMutability": "view",
      "type": "function"
    },
    {
      "constant": true,
      "inputs": [],
      "name": "getReward",
      "outputs": [
        {
          "name": "",
          "type": "uint256[2]"
        }
      ],
      "payable": false,
      "stateMutability": "view",
      "type": "function"
    },
    {
      "constant": true,
      "inputs": [],
      "name": "dataFeedHash",
      "outputs": [
        {
          "name": "",
          "type": "string"
        }
      ],
      "payable": false,
      "stateMutability": "view",
      "type": "function"
    },
    {
      "constant": true,
      "inputs": [],
      "name": "ipfsEventHash",
      "outputs": [
        {
          "name": "",
          "type": "string"
        }
      ],
      "payable": false,
      "stateMutability": "view",
      "type": "function"
    },
    {
      "constant": false,
      "inputs": [
        {
          "name": "_hash",
          "type": "string"
        }
      ],
      "name": "setDataFeedHash",
      "outputs": [],
      "payable": false,
      "stateMutability": "nonpayable",
      "type": "function"
    },
    {
      "constant": false,
      "inputs": [],
      "name": "claimFailed",
      "outputs": [],
      "payable": false,
      "stateMutability": "nonpayable",
      "type": "function"
    },
    {
      "constant": true,
      "inputs": [],
      "name": "getResults",
      "outputs": [
        {
          "name": "",
          "type": "bytes32[]"
        }
      ],
      "payable": false,
      "stateMutability": "view",
      "type": "function"
    },
    {
      "constant": false,
      "inputs": [
        {
          "name": "rewardsHash",
          "type": "string"
        }
      ],
      "name": "markRewardsSet",
      "outputs": [],
      "payable": false,
      "stateMutability": "nonpayable",
      "type": "function"
    },
    {
      "constant": true,
      "inputs": [
        {
          "name": "_addresses",
          "type": "address[]"
        }
      ],
      "name": "getRewards",
      "outputs": [
        {
          "name": "",
          "type": "uint256[]"
        },
        {
          "name": "",
          "type": "uint256[]"
        }
      ],
      "payable": false,
      "stateMutability": "view",
      "type": "function"
    },
    {
      "constant": false,
      "inputs": [],
      "name": "triggerDispute",
      "outputs": [],
      "payable": false,
      "stateMutability": "nonpayable",
      "type": "function"
    },
    {
      "constant": true,
      "inputs": [],
      "name": "getRewardsIndex",
      "outputs": [
        {
          "name": "",
          "type": "address[]"
        }
      ],
      "payable": false,
      "stateMutability": "view",
      "type": "function"
    },
    {
      "constant": true,
      "inputs": [],
      "name": "version",
      "outputs": [
        {
          "name": "",
          "type": "uint256"
        }
      ],
      "payable": false,
      "stateMutability": "view",
      "type": "function"
    },
    {
      "constant": true,
      "inputs": [],
      "name": "getParticipants",
      "outputs": [
        {
          "name": "",
          "type": "address[]"
        }
      ],
      "payable": false,
      "stateMutability": "view",
      "type": "function"
    },
    {
      "constant": true,
      "inputs": [],
      "name": "implementation",
      "outputs": [
        {
          "name": "",
          "type": "address"
        }
      ],
      "payable": false,
      "stateMutability": "view",
      "type": "function"
    },
    {
      "constant": true,
      "inputs": [
        {
          "name": "",
          "type": "address"
        }
      ],
      "name": "nodeRewardsClaimed",
      "outputs": [
        {
          "name": "",
          "type": "bool"
        }
      ],
      "payable": false,
      "stateMutability": "view",
      "type": "function"
    },
    {
      "constant": true,
      "inputs": [],
      "name": "stakingAmount",
      "outputs": [
        {
          "name": "",
          "type": "uint256"
        }
      ],
      "payable": false,
      "stateMutability": "view",
      "type": "function"
    },
    {
      "constant": true,
      "inputs": [],
      "name": "getEventResolvers",
      "outputs": [
        {
          "name": "",
          "type": "address[]"
        }
      ],
      "payable": false,
      "stateMutability": "view",
      "type": "function"
    },
    {
      "constant": true,
      "inputs": [],
      "name": "nodeRewardsBalance",
      "outputs": [
        {
          "name": "",
          "type": "uint256"
        }
      ],
      "payable": false,
      "stateMutability": "view",
      "type": "function"
    },
    {
      "constant": true,
      "inputs": [],
      "name": "eventName",
      "outputs": [
        {
          "name": "",
          "type": "string"
        }
      ],
      "payable": false,
      "stateMutability": "view",
      "type": "function"
    },
    {
      "constant": false,
      "inputs": [
        {
          "name": "validationRound",
          "type": "uint256"
        },
        {
          "name": "altHash",
          "type": "string"
        }
      ],
      "name": "rejectRewards",
      "outputs": [],
      "payable": false,
      "stateMutability": "nonpayable",
      "type": "function"
    },
    {
      "constant": true,
      "inputs": [],
      "name": "getConsensusRules",
      "outputs": [
        {
          "name": "",
          "type": "uint256[6]"
        }
      ],
      "payable": false,
      "stateMutability": "view",
      "type": "function"
    },
    {
      "constant": true,
      "inputs": [],
      "name": "owner",
      "outputs": [
        {
          "name": "",
          "type": "address"
        }
      ],
      "payable": false,
      "stateMutability": "view",
      "type": "function"
    },
    {
      "constant": true,
      "inputs": [],
      "name": "isApproverNode",
      "outputs": [
        {
          "name": "",
          "type": "bool"
        }
      ],
      "payable": false,
      "stateMutability": "view",
      "type": "function"
    },
    {
      "constant": true,
      "inputs": [],
      "name": "tokenAddress",
      "outputs": [
        {
          "name": "",
          "type": "address"
        }
      ],
      "payable": false,
      "stateMutability": "view",
      "type": "function"
    },
    {
      "constant": false,
      "inputs": [
        {
          "name": "validationRound",
          "type": "uint256"
        }
      ],
      "name": "approveRewards",
      "outputs": [],
      "payable": false,
      "stateMutability": "nonpayable",
      "type": "function"
    },
    {
      "constant": true,
      "inputs": [],
      "name": "nodeCanClaimReward",
      "outputs": [
        {
          "name": "",
          "type": "bool"
        }
      ],
      "payable": false,
      "stateMutability": "view",
      "type": "function"
    },
    {
      "constant": true,
      "inputs": [],
      "name": "getEventTimes",
      "outputs": [
        {
          "name": "",
          "type": "uint256[5]"
        }
      ],
      "payable": false,
      "stateMutability": "view",
      "type": "function"
    },
    {
      "constant": false,
      "inputs": [
        {
          "name": "_results",
          "type": "bytes32[]"
        }
      ],
      "name": "setResults",
      "outputs": [],
      "payable": false,
      "stateMutability": "nonpayable",
      "type": "function"
    },
    {
      "constant": false,
      "inputs": [],
      "name": "claimReward",
      "outputs": [],
      "payable": false,
      "stateMutability": "nonpayable",
      "type": "function"
    },
    {
      "constant": false,
      "inputs": [],
      "name": "nodeClaimReward",
      "outputs": [],
      "payable": false,
      "stateMutability": "nonpayable",
      "type": "function"
    },
    {
      "constant": false,
      "inputs": [],
      "name": "triggerStateChange",
      "outputs": [],
      "payable": false,
      "stateMutability": "nonpayable",
      "type": "function"
    },
    {
      "constant": true,
      "inputs": [],
      "name": "getDisputeData",
      "outputs": [
        {
          "name": "",
          "type": "uint256[5]"
        },
        {
          "name": "",
          "type": "address"
        }
      ],
      "payable": false,
      "stateMutability": "view",
      "type": "function"
    },
    {
      "constant": true,
      "inputs": [],
      "name": "getRequiredRoles",
      "outputs": [
        {
          "name": "",
          "type": "uint256[]"
        }
      ],
      "payable": false,
      "stateMutability": "view",
      "type": "function"
    },
    {
      "constant": true,
      "inputs": [],
      "name": "rewardsValidation",
      "outputs": [
        {
          "name": "currentMasterNode",
          "type": "address"
        },
        {
          "name": "rewardsHash",
          "type": "string"
        },
        {
          "name": "approvalCount",
          "type": "uint256"
        },
        {
          "name": "rejectionCount",
          "type": "uint256"
        }
      ],
      "payable": false,
      "stateMutability": "view",
      "type": "function"
    },
    {
      "constant": false,
      "inputs": [],
      "name": "recoverLeftovers",
      "outputs": [],
      "payable": false,
      "stateMutability": "nonpayable",
      "type": "function"
    },
    {
      "constant": true,
      "inputs": [],
      "name": "leftoversRecoverableAfter",
      "outputs": [
        {
          "name": "",
          "type": "uint256"
        }
      ],
      "payable": false,
      "stateMutability": "view",
      "type": "function"
    },
    {
      "constant": true,
      "inputs": [
        {
          "name": "_user",
          "type": "address"
        }
      ],
      "name": "isParticipating",
      "outputs": [
        {
          "name": "",
          "type": "bool"
        }
      ],
      "payable": false,
      "stateMutability": "view",
      "type": "function"
    },
    {
      "constant": false,
      "inputs": [],
      "name": "joinEvent",
      "outputs": [],
      "payable": false,
      "stateMutability": "nonpayable",
      "type": "function"
    },
    {
      "constant": false,
      "inputs": [],
      "name": "cancelEvent",
      "outputs": [],
      "payable": false,
      "stateMutability": "nonpayable",
      "type": "function"
    },
    {
      "constant": true,
      "inputs": [],
      "name": "getEventCategory",
      "outputs": [
        {
          "name": "",
          "type": "bytes32[2]"
        }
      ],
      "payable": false,
      "stateMutability": "view",
      "type": "function"
    },
    {
      "payable": true,
      "stateMutability": "payable",
      "type": "fallback"
    },
    {
      "anonymous": false,
      "inputs": [
        {
          "indexed": false,
          "name": "newState",
          "type": "uint8"
        }
      ],
      "name": "StateTransition",
      "type": "event"
    },
    {
      "anonymous": false,
      "inputs": [
        {
          "indexed": false,
          "name": "wallet",
          "type": "address"
        }
      ],
      "name": "JoinEvent",
      "type": "event"
    },
    {
      "anonymous": false,
      "inputs": [
        {
          "indexed": true,
          "name": "recipient",
          "type": "address"
        },
        {
          "indexed": false,
          "name": "ethReward",
          "type": "uint256"
        },
        {
          "indexed": false,
          "name": "tokenReward",
          "type": "uint256"
        }
      ],
      "name": "ClaimReward",
      "type": "event"
    },
    {
      "anonymous": false,
      "inputs": [
        {
          "indexed": true,
          "name": "byAddress",
          "type": "address"
        },
        {
          "indexed": false,
          "name": "description",
          "type": "string"
        }
      ],
      "name": "Error",
      "type": "event"
    },
    {
      "anonymous": false,
      "inputs": [
        {
          "indexed": false,
          "name": "description",
          "type": "string"
        }
      ],
      "name": "EventFailed",
      "type": "event"
    },
    {
      "anonymous": false,
      "inputs": [
        {
          "indexed": false,
          "name": "validationRound",
          "type": "uint256"
        }
      ],
      "name": "ValidationStarted",
      "type": "event"
    },
    {
      "anonymous": false,
      "inputs": [
        {
          "indexed": false,
          "name": "validationRound",
          "type": "uint256"
        },
        {
          "indexed": false,
          "name": "newMaster",
          "type": "address"
        }
      ],
      "name": "ValidationRestart",
      "type": "event"
    },
    {
      "anonymous": false,
      "inputs": [
        {
          "indexed": false,
          "name": "byAddress",
          "type": "address"
        }
      ],
      "name": "DisputeTriggered",
      "type": "event"
    },
    {
      "anonymous": false,
      "inputs": [
        {
          "indexed": false,
          "name": "recipient",
          "type": "address"
        }
      ],
      "name": "ClaimStake",
      "type": "event"
    },
    {
      "anonymous": false,
      "inputs": [
        {
          "indexed": false,
          "name": "node",
          "type": "address"
        },
        {
          "indexed": false,
          "name": "reward",
          "type": "uint256"
        }
      ],
      "name": "NodeClaimReward",
      "type": "event"
    }
  ],
  "bytecode": "0x60806040526006805460ff1990811690915560338054909116905534801561002657600080fd5b50614e99806100366000396000f3fe6080604052600436106102ca576000357c010000000000000000000000000000000000000000000000000000000090048063739a3e0211610192578063ac884902116100f9578063e3a86e71116100b2578063f4caee881161008c578063f4caee8814610e8b578063f9010d1914610ebe578063fb6c953714610ed3578063fce1a10c14610ee8576102ca565b8063e3a86e7114610dad578063efba9bd214610e61578063f38a803f14610e76576102ca565b8063ac88490214610c43578063b88a802f14610cf3578063c08e737414610d08578063d563f0c514610d1d578063d6e9b01914610d32578063e0807f8914610d98576102ca565b80638da5cb5b1161014b5780638da5cb5b14610b9b5780638e513c1914610bb05780639d76ea5814610bc5578063a77ae83914610bda578063ab3c021214610c04578063ab95b58614610c19576102ca565b8063739a3e0214610a6357806374539f9814610a785780637e0c478b14610a8d5780638043c9c014610aa25780638126cb1e14610ab757806381c2d87514610b71576102ca565b806342380eaf1161023657806352f91acf116101ef57806352f91acf146109c757806354e33cf0146109dc57806354fd4d50146109f15780635aa68ac014610a065780635c60da1b14610a1b5780636764ee6914610a30576102ca565b806342380eaf14610689578063437933cc1461069e57806345f99d51146107515780634717f97c146107665780634b766b95146107cb578063510ccb431461087e576102ca565b8063181b3f5a11610288578063181b3f5a146103cf5780631865c57d146103e45780631a0ddce9146103f95780631e59680b146105b15780633d18b912146105ea5780634227357c146105ff576102ca565b8062f16142146102d457806302a36305146102fb578063073f03fb1461031057806311e956c81461034157806312065fe01461036a578063148b597c146103ba575b6102d2610efd565b005b3480156102e057600080fd5b506102e9610f22565b60408051918252519081900360200190f35b34801561030757600080fd5b506102e9610f28565b34801561031c57600080fd5b50610325610f2e565b60408051600160a060020a039092168252519081900360200190f35b34801561034d57600080fd5b50610356610f3d565b604080519115158252519081900360200190f35b34801561037657600080fd5b5061037f610f4f565b6040518082600260200280838360005b838110156103a757818101518382015260200161038f565b5050505090500191505060405180910390f35b3480156103c657600080fd5b50610356610fff565b3480156103db57600080fd5b506102e961100d565b3480156103f057600080fd5b506102e9611054565b34801561040557600080fd5b506102d26004803603606081101561041c57600080fd5b81019060208101813564010000000081111561043757600080fd5b82018360208201111561044957600080fd5b8035906020019184602083028401116401000000008311171561046b57600080fd5b91908080602002602001604051908101604052809392919081815260200183836020028082843760009201919091525092959493602081019350359150506401000000008111156104bb57600080fd5b8201836020820111156104cd57600080fd5b803590602001918460208302840111640100000000831117156104ef57600080fd5b919080806020026020016040519081016040528093929190818152602001838360200280828437600092019190915250929594936020810193503591505064010000000081111561053f57600080fd5b82018360208201111561055157600080fd5b8035906020019184602083028401116401000000008311171561057357600080fd5b91908080602002602001604051908101604052809392919081815260200183836020028082843760009201919091525092955061106d945050505050565b3480156105bd57600080fd5b506105c66113fc565b604051808260028111156105d657fe5b60ff16815260200191505060405180910390f35b3480156105f657600080fd5b5061037f611405565b34801561060b57600080fd5b50610614611447565b6040805160208082528351818301528351919283929083019185019080838360005b8381101561064e578181015183820152602001610636565b50505050905090810190601f16801561067b5780820380516001836020036101000a031916815260200191505b509250505060405180910390f35b34801561069557600080fd5b506106146114d5565b3480156106aa57600080fd5b506102d2600480360360208110156106c157600080fd5b8101906020810181356401000000008111156106dc57600080fd5b8201836020820111156106ee57600080fd5b8035906020019184600183028401116401000000008311171561071057600080fd5b91908080601f016020809104026020016040519081016040528093929190818152602001838380828437600092019190915250929550611530945050505050565b34801561075d57600080fd5b506102d261155e565b34801561077257600080fd5b5061077b6118a1565b60408051602080825283518183015283519192839290830191858101910280838360005b838110156107b757818101518382015260200161079f565b505050509050019250505060405180910390f35b3480156107d757600080fd5b506102d2600480360360208110156107ee57600080fd5b81019060208101813564010000000081111561080957600080fd5b82018360208201111561081b57600080fd5b8035906020019184600183028401116401000000008311171561083d57600080fd5b91908080601f0160208091040260200160405190810160405280939291908181526020018383808284376000920191909152509295506118f9945050505050565b34801561088a57600080fd5b5061092e600480360360208110156108a157600080fd5b8101906020810181356401000000008111156108bc57600080fd5b8201836020820111156108ce57600080fd5b803590602001918460208302840111640100000000831117156108f057600080fd5b919080806020026020016040519081016040528093929190818152602001838360200280828437600092019190915250929550611b83945050505050565b604051808060200180602001838103835285818151815260200191508051906020019060200280838360005b8381101561097257818101518382015260200161095a565b50505050905001838103825284818151815260200191508051906020019060200280838360005b838110156109b1578181015183820152602001610999565b5050505090500194505050505060405180910390f35b3480156109d357600080fd5b506102d2611cde565b3480156109e857600080fd5b5061077b6121ee565b3480156109fd57600080fd5b506102e961224f565b348015610a1257600080fd5b5061077b612254565b348015610a2757600080fd5b506103256122b4565b348015610a3c57600080fd5b5061035660048036036020811015610a5357600080fd5b5035600160a060020a03166122c9565b348015610a6f57600080fd5b506102e96122de565b348015610a8457600080fd5b5061077b6122e4565b348015610a9957600080fd5b506102e9612344565b348015610aae57600080fd5b5061061461234a565b348015610ac357600080fd5b506102d260048036036040811015610ada57600080fd5b81359190810190604081016020820135640100000000811115610afc57600080fd5b820183602082011115610b0e57600080fd5b80359060200191846001830284011164010000000083111715610b3057600080fd5b91908080601f0160208091040260200160405190810160405280939291908181526020018383808284376000920191909152509295506123a5945050505050565b348015610b7d57600080fd5b50610b86612760565b60405181518152808260c0808383602061038f565b348015610ba757600080fd5b506103256127b6565b348015610bbc57600080fd5b506103566127c5565b348015610bd157600080fd5b50610325612838565b348015610be657600080fd5b506102d260048036036020811015610bfd57600080fd5b5035612847565b348015610c1057600080fd5b50610356612a67565b348015610c2557600080fd5b50610c2e612abb565b60405181518152808260a0808383602061038f565b348015610c4f57600080fd5b506102d260048036036020811015610c6657600080fd5b810190602081018135640100000000811115610c8157600080fd5b820183602082011115610c9357600080fd5b80359060200191846020830284011164010000000083111715610cb557600080fd5b919080806020026020016040519081016040528093929190818152602001838360200280828437600092019190915250929550612af9945050505050565b348015610cff57600080fd5b506102d2612d4b565b348015610d1457600080fd5b506102d26131d6565b348015610d2957600080fd5b506102d261358f565b348015610d3e57600080fd5b50610d476136a5565b604051808360a080838360005b83811015610d6c578181015183820152602001610d54565b5050505090500182600160a060020a0316600160a060020a031681526020019250505060405180910390f35b348015610da457600080fd5b5061077b6136ef565b348015610db957600080fd5b50610dc2613745565b6040518085600160a060020a0316600160a060020a0316815260200180602001848152602001838152602001828103825285818151815260200191508051906020019080838360005b83811015610e23578181015183820152602001610e0b565b50505050905090810190601f168015610e505780820380516001836020036101000a031916815260200191505b509550505050505060405180910390f35b348015610e6d57600080fd5b506102d26137f2565b348015610e8257600080fd5b506102e9613acb565b348015610e9757600080fd5b5061035660048036036020811015610eae57600080fd5b5035600160a060020a0316613ad1565b348015610eca57600080fd5b506102d2613af3565b348015610edf57600080fd5b506102d2614133565b348015610ef457600080fd5b5061037f6142d4565b610f05610f20565b603354610f2090620100009004600160a060020a0316614309565b565b60105481565b601d5481565b600254600160a060020a031681565b600754600160a060020a031633145b90565b610f57614afc565b604080518082018252308031825260015483517f70a08231000000000000000000000000000000000000000000000000000000008152600481019290925292519192602080850193600160a060020a03909216926370a082319260248083019392829003018186803b158015610fcc57600080fd5b505afa158015610fe0573d6000803e3d6000fd5b505050506040513d6020811015610ff657600080fd5b50519052905090565b603354610100900460ff1681565b6022546000906110205750602054610f4c565b60245460011415611047576022546020548161103857fe5b04602060000154019050610f4c565b5060245460205402610f4c565b60335460009060ff16600581111561106857fe5b905090565b600754600160a060020a031633146110cf576040805160e560020a62461bcd02815260206004820152601d60248201527f4e6f7420612064657369676e61746564206d6173746572206e6f64652e000000604482015290519081900360640190fd5b600060335460ff1660058111156110e257fe5b1480156110f157506016544210155b156110fe576110fe61432d565b600160335460ff16600581111561111157fe5b14801561112057506017544210155b1561115f57602d54601254101561115757611152604051806060016040528060338152602001614e3b60339139614407565b61115f565b61115f61432d565b600360335460ff16600581111561117257fe5b14801561118157506023544210155b1561118e5761118e61432d565b600260335460ff1660058111156111a157fe5b1480156111b45750601b54601954014210155b156111e5576111e5604051806040016040528060208152602001600080516020614cf0833981519152815250614407565b60335460029060ff1660058111156111f957fe5b81600581111561120557fe5b146112445760405160e560020a62461bcd028152600401808060200182810382526024815260200180614ccc6024913960400191505060405180910390fd5b82518451148015611256575081518451145b61125f57600080fd5b600060065460ff16600281111561127257fe5b146112b15760405160e560020a62461bcd028152600401808060200182810382526026815260200180614e156026913960400191505060405180910390fd5b60005b84518110156113f5578381815181106112c957fe5b6020026020010151601460008784815181106112e157fe5b6020026020010151600160a060020a0316600160a060020a03168152602001908152602001600020600080600181111561131757fe5b81526020019081526020016000208190555082818151811061133557fe5b60200260200101516014600087848151811061134d57fe5b6020026020010151600160a060020a0316600160a060020a03168152602001908152602001600020600060018081111561138357fe5b81526020019081526020016000208190555060158582815181106113a357fe5b602090810291909101810151825460018082018555600094855292909320909201805473ffffffffffffffffffffffffffffffffffffffff1916600160a060020a0390931692909217909155016112b4565b5050505050565b60065460ff1681565b61140d614afc565b5060408051808201825233600090815260146020908152838220828052808252848320548452600183528152929020549181019190915290565b602b805460408051602060026001851615610100026000190190941693909304601f810184900484028201840190925281815292918301828280156114cd5780601f106114a2576101008083540402835291602001916114cd565b820191906000526020600020905b8154815290600101906020018083116114b057829003601f168201915b505050505081565b601a805460408051602060026001851615610100026000190190941693909304601f810184900484028201840190925281815292918301828280156114cd5780601f106114a2576101008083540402835291602001916114cd565b600054600160a060020a0316331461154757600080fd5b805161155a90602b906020840190614b1a565b5050565b61156733613ad1565b6115bb576040805160e560020a62461bcd02815260206004820152601260248201527f4e6f742070617274696369706174696e672e0000000000000000000000000000604482015290519081900360640190fd5b600060335460ff1660058111156115ce57fe5b1480156115dd57506016544210155b156115ea576115ea61432d565b600160335460ff1660058111156115fd57fe5b14801561160c57506017544210155b1561164b57602d5460125410156116435761163e604051806060016040528060338152602001614e3b60339139614407565b61164b565b61164b61432d565b600360335460ff16600581111561165e57fe5b14801561166d57506023544210155b1561167a5761167a61432d565b600260335460ff16600581111561168d57fe5b1480156116a05750601b54601954014210155b156116d1576116d1604051806040016040528060208152602001600080516020614cf0833981519152815250614407565b60335460059060ff16818111156116e457fe5b8160058111156116f057fe5b1461172f5760405160e560020a62461bcd028152600401808060200182810382526024815260200180614ccc6024913960400191505060405180910390fd5b6000601c5411806117565750602254158015906117565750602654600160a060020a031633145b6117aa576040805160e560020a62461bcd02815260206004820152601160248201527f4e6f207374616b6520746f20636c61696d000000000000000000000000000000604482015290519081900360640190fd5b602654600090600160a060020a03163314156117c557602054015b601c546001546040805160e060020a63a9059cbb028152336004820152939092016024840181905291519192600160a060020a039091169163a9059cbb916044808201926020929091908290030181600087803b15801561182557600080fd5b505af1158015611839573d6000803e3d6000fd5b505050506040513d602081101561184f57600080fd5b505033600081815260116020908152604091829020805460ff19169055815192835290517f5a53668be860a256c7ff92bff48881a9db38994032e2b90e5a0bdd51921fbeb79281900390910190a15050565b6060602c8054806020026020016040519081016040528092919081815260200182805480156118ef57602002820191906000526020600020905b8154815260200190600101908083116118db575b5050505050905090565b600754600160a060020a0316331461195b576040805160e560020a62461bcd02815260206004820152601d60248201527f4e6f7420612064657369676e61746564206d6173746572206e6f64652e000000604482015290519081900360640190fd5b600060335460ff16600581111561196e57fe5b14801561197d57506016544210155b1561198a5761198a61432d565b600160335460ff16600581111561199d57fe5b1480156119ac57506017544210155b156119eb57602d5460125410156119e3576119de604051806060016040528060338152602001614e3b60339139614407565b6119eb565b6119eb61432d565b600360335460ff1660058111156119fe57fe5b148015611a0d57506023544210155b15611a1a57611a1a61432d565b600260335460ff166005811115611a2d57fe5b148015611a405750601b54601954014210155b15611a7157611a71604051806040016040528060208152602001600080516020614cf0833981519152815250614407565b60335460029060ff166005811115611a8557fe5b816005811115611a9157fe5b14611ad05760405160e560020a62461bcd028152600401808060200182810382526024815260200180614ccc6024913960400191505060405180910390fd5b600060065460ff166002811115611ae357fe5b14611b225760405160e560020a62461bcd028152600401808060200182810382526026815260200180614e156026913960400191505060405180910390fd5b8151611b35906008906020850190614b1a565b50600160098190556006805460ff1916909117905560105460408051918252517f47c2e9e59e6d2347f314927d02f36b95696a09b5f0ac0bae119ff5ae937016559181900360200190a15050565b60608060608351604051908082528060200260200182016040528015611bb3578160200160208202803883390190505b50905060608451604051908082528060200260200182016040528015611be3578160200160208202803883390190505b50905060005b8551811015611cd35760146000878381518110611c0257fe5b6020026020010151600160a060020a0316600160a060020a031681526020019081526020016000206000806001811115611c3857fe5b815260200190815260200160002054838281518110611c5357fe5b60200260200101818152505060146000878381518110611c6f57fe5b6020026020010151600160a060020a0316600160a060020a031681526020019081526020016000206000600180811115611ca557fe5b815260200190815260200160002054828281518110611cc057fe5b6020908102919091010152600101611be9565b509092509050915091565b600060335460ff166005811115611cf157fe5b148015611d0057506016544210155b15611d0d57611d0d61432d565b600160335460ff166005811115611d2057fe5b148015611d2f57506017544210155b15611d6e57602d546012541015611d6657611d61604051806060016040528060338152602001614e3b60339139614407565b611d6e565b611d6e61432d565b600360335460ff166005811115611d8157fe5b148015611d9057506023544210155b15611d9d57611d9d61432d565b600260335460ff166005811115611db057fe5b148015611dc35750601b54601954014210155b15611df457611df4604051806040016040528060208152602001600080516020614cf0833981519152815250614407565b611dfd33613ad1565b611e51576040805160e560020a62461bcd02815260206004820152601260248201527f4e6f742070617274696369706174696e672e0000000000000000000000000000604482015290519081900360640190fd5b60335460039060ff166005811115611e6557fe5b816005811115611e7157fe5b14611eb05760405160e560020a62461bcd028152600401808060200182810382526024815260200180614ccc6024913960400191505060405180910390fd5b6000611eba61100d565b600154604080517fdd62ed3e00000000000000000000000000000000000000000000000000000000815233600482015230602482015290519293508392600160a060020a039092169163dd62ed3e91604480820192602092909190829003018186803b158015611f2957600080fd5b505afa158015611f3d573d6000803e3d6000fd5b505050506040513d6020811015611f5357600080fd5b50511015611f955760405160e560020a62461bcd028152600401808060200182810382526025815260200180614d106025913960400191505060405180910390fd5b3360009081526025602052604090205460ff1615611ffd576040805160e560020a62461bcd02815260206004820152601c60248201527f416c726561647920747269676765726564206120646973707574652e00000000604482015290519081900360640190fd5b6022541561208e57600154602654602080546040805160e060020a63a9059cbb028152600160a060020a039485166004820152602481019290925251929093169263a9059cbb92604480830193928290030181600087803b15801561206157600080fd5b505af1158015612075573d6000803e3d6000fd5b505050506040513d602081101561208b57600080fd5b50505b6020818155602280546001908101909155336000818152602584526040808220805460ff1916851790556026805473ffffffffffffffffffffffffffffffffffffffff1916841790559254845484517f23b872dd000000000000000000000000000000000000000000000000000000008152600481019490945230602485015260448401529251600160a060020a03909316936323b872dd93606480850194929391928390030190829087803b15801561214757600080fd5b505af115801561215b573d6000803e3d6000fd5b505050506040513d602081101561217157600080fd5b5061217c905061454d565b612184614674565b6033805460ff1916600117905560275442810160188190556017819055016019556121ad614726565b6032805460ff191690556040805133815290517ff6d97c5e133e50668a6b3607d8748ef6599c3303babb2b08a515a5a67369f45f9181900360200190a15050565b606060158054806020026020016040519081016040528092919081815260200182805480156118ef57602002820191906000526020600020905b8154600160a060020a03168152600190910190602001808311612228575050505050905090565b600181565b606060128054806020026020016040519081016040528092919081815260200182805480156118ef57602002820191906000526020600020908154600160a060020a03168152600190910190602001808311612228575050505050905090565b603354620100009004600160a060020a031681565b601f6020526000908152604090205460ff1681565b601c5481565b606060038054806020026020016040519081016040528092919081815260200182805480156118ef57602002820191906000526020600020908154600160a060020a03168152600190910190602001808311612228575050505050905090565b601e5481565b6028805460408051602060026001851615610100026000190190941693909304601f810184900484028201840190925281815292918301828280156114cd5780601f106114a2576101008083540402835291602001916114cd565b60335460029060ff1660058111156123b957fe5b8160058111156123c557fe5b146124045760405160e560020a62461bcd028152600401808060200182810382526024815260200180614ccc6024913960400191505060405180910390fd5b8261240e3361476e565b801561241f575061241d610f3d565b155b612473576040805160e560020a62461bcd02815260206004820152601b60248201527f4e6f7420612076616c69642073656e64657220616464726573732e0000000000604482015290519081900360640190fd5b600160065460ff16600281111561248657fe5b146124db576040805160e560020a62461bcd02815260206004820152601760248201527f4e6f742076616c69646174696e6720726577617264732e000000000000000000604482015290519081900360640190fd5b6010548114612534576040805160e560020a62461bcd02815260206004820152601a60248201527f56616c69646174696f6e20726f756e64206d69736d617463682e000000000000604482015290519081900360640190fd5b601054336000908152600d60205260409020541061259c576040805160e560020a62461bcd02815260206004820152601d60248201527f416c726561647920766f74656420666f72207468697320726f756e642e000000604482015290519081900360640190fd5b600a80546001908101909155601054336000818152600d6020908152604080832094909455600c805495860181559091527fdf6966c971051c3d54ec59162606531493a51404a002842f56009d7e5cf4a8c7909301805473ffffffffffffffffffffffffffffffffffffffff19169091179055518451600f9286929182918401908083835b602083106126405780518252601f199092019160209182019101612621565b51815160209384036101000a600019018019909216911617905292019485525060405193849003019092205460ff169150612752905057600b80546001810180835560009290925284516126bb917f0175b7a638427703f0dbe7bb9bbf987a2551717b34e79f33b5b1008d1fa01db901906020870190614b1a565b505060078001836040518082805190602001908083835b602083106126f15780518252601f1990920191602091820191016126d2565b51815160001960209485036101000a0190811690199190911617905292019485525060405193849003810190932080546001810182556000918252939020909201805473ffffffffffffffffffffffffffffffffffffffff19163317905550505b61275a6147c9565b50505050565b612768614b98565b6040805160c081018252602d548152602e546020820152602f54918101919091526030546060820152603154608082015260325460a082019060ff1660018111156127af57fe5b9052905090565b600054600160a060020a031681565b601054336000908152600d60205260408120549091146127e757506000610f4c565b60005b600c5481101561283057600c80548290811061280257fe5b600091825260209091200154600160a060020a0316331415612828576000915050610f4c565b6001016127ea565b506001905090565b600154600160a060020a031681565b60335460029060ff16600581111561285b57fe5b81600581111561286757fe5b146128a65760405160e560020a62461bcd028152600401808060200182810382526024815260200180614ccc6024913960400191505060405180910390fd5b816128b03361476e565b80156128c157506128bf610f3d565b155b612915576040805160e560020a62461bcd02815260206004820152601b60248201527f4e6f7420612076616c69642073656e64657220616464726573732e0000000000604482015290519081900360640190fd5b600160065460ff16600281111561292857fe5b1461297d576040805160e560020a62461bcd02815260206004820152601760248201527f4e6f742076616c69646174696e6720726577617264732e000000000000000000604482015290519081900360640190fd5b60105481146129d6576040805160e560020a62461bcd02815260206004820152601a60248201527f56616c69646174696f6e20726f756e64206d69736d617463682e000000000000604482015290519081900360640190fd5b601054336000908152600d602052604090205410612a3e576040805160e560020a62461bcd02815260206004820152601d60248201527f416c726561647920766f74656420666f72207468697320726f756e642e000000604482015290519081900360640190fd5b600980546001019055601054336000908152600d6020526040902055612a626147e4565b505050565b6000612a71610f3d565b80612a7f5750612a7f6127c5565b8015612a9b5750336000908152601f602052604090205460ff16155b80156110685750600460335460ff166005811115612ab557fe5b14905090565b612ac3614bb6565b6040518060a001604052806016548152602001601754815260200160185481526020016019548152602001601b54815250905090565b600754600160a060020a03163314612b5b576040805160e560020a62461bcd02815260206004820152601d60248201527f4e6f7420612064657369676e61746564206d6173746572206e6f64652e000000604482015290519081900360640190fd5b600060335460ff166005811115612b6e57fe5b148015612b7d57506016544210155b15612b8a57612b8a61432d565b600160335460ff166005811115612b9d57fe5b148015612bac57506017544210155b15612beb57602d546012541015612be357612bde604051806060016040528060338152602001614e3b60339139614407565b612beb565b612beb61432d565b600360335460ff166005811115612bfe57fe5b148015612c0d57506023544210155b15612c1a57612c1a61432d565b600260335460ff166005811115612c2d57fe5b148015612c405750601b54601954014210155b15612c7157612c71604051806040016040528060208152602001600080516020614cf0833981519152815250614407565b60335460029060ff166005811115612c8557fe5b816005811115612c9157fe5b14612cd05760405160e560020a62461bcd028152600401808060200182810382526024815260200180614ccc6024913960400191505060405180910390fd5b600060065460ff166002811115612ce357fe5b14612d38576040805160e560020a62461bcd02815260206004820152601e60248201527f4f6e6c79206265666f72652076616c69646174696f6e207374617274732e0000604482015290519081900360640190fd5b8151612a6290602c906020850190614bd4565b612d5433613ad1565b612da8576040805160e560020a62461bcd02815260206004820152601260248201527f4e6f742070617274696369706174696e672e0000000000000000000000000000604482015290519081900360640190fd5b600060335460ff166005811115612dbb57fe5b148015612dca57506016544210155b15612dd757612dd761432d565b600160335460ff166005811115612dea57fe5b148015612df957506017544210155b15612e3857602d546012541015612e3057612e2b604051806060016040528060338152602001614e3b60339139614407565b612e38565b612e3861432d565b600360335460ff166005811115612e4b57fe5b148015612e5a57506023544210155b15612e6757612e6761432d565b600260335460ff166005811115612e7a57fe5b148015612e8d5750601b54601954014210155b15612ebe57612ebe604051806040016040528060208152602001600080516020614cf0833981519152815250614407565b60335460049060ff166005811115612ed257fe5b816005811115612ede57fe5b14612f1d5760405160e560020a62461bcd028152600401808060200182810382526024815260200180614ccc6024913960400191505060405180910390fd5b336000908152601460209081526040808320838052909152808220546001835291205481158015612f4c575080155b15612f9b5733600160a060020a0316600080516020614d35833981519152604051808060200182810382526025815260200180614d556025913960400191505060405180910390a250506131d3565b336000908152601460209081526040808320838052909152902054601e54303103108061306c575033600090815260146020908152604080832060018085529083529281902054925481517f70a082310000000000000000000000000000000000000000000000000000000081523060048201529151600160a060020a03909116926370a082319260248082019391829003018186803b15801561303e57600080fd5b505afa158015613052573d6000803e3d6000fd5b505050506040513d602081101561306857600080fd5b5051105b156130bb5733600160a060020a0316600080516020614d35833981519152604051808060200182810382526045815260200180614dd06045913960600191505060405180910390a250506131d3565b33600081815260146020908152604080832083805290915280822082905560018252808220829055516108fc85150291859190818181858888f1935050505015801561310b573d6000803e3d6000fd5b508015613196576001546040805160e060020a63a9059cbb028152336004820152602481018490529051600160a060020a039092169163a9059cbb916044808201926020929091908290030181600087803b15801561316957600080fd5b505af115801561317d573d6000803e3d6000fd5b505050506040513d602081101561319357600080fd5b50505b6040805183815260208101839052815133927fe74e5c9d4ac1fc33412485f18c159a0a391efe287ab3fd271123f30e6bacf4e3928290030190a250505b50565b600060335460ff1660058111156131e957fe5b1480156131f857506016544210155b156132055761320561432d565b600160335460ff16600581111561321857fe5b14801561322757506017544210155b1561326657602d54601254101561325e57613259604051806060016040528060338152602001614e3b60339139614407565b613266565b61326661432d565b600360335460ff16600581111561327957fe5b14801561328857506023544210155b156132955761329561432d565b600260335460ff1660058111156132a857fe5b1480156132bb5750601b54601954014210155b156132ec576132ec604051806040016040528060208152602001600080516020614cf0833981519152815250614407565b60335460049060ff16600581111561330057fe5b81600581111561330c57fe5b1461334b5760405160e560020a62461bcd028152600401808060200182810382526024815260200180614ccc6024913960400191505060405180910390fd5b6133543361476e565b6133a8576040805160e560020a62461bcd02815260206004820152600b60248201527f4e6f742061206e6f64652e000000000000000000000000000000000000000000604482015290519081900360640190fd5b336000908152601f602052604090205460ff1615613410576040805160e560020a62461bcd02815260206004820152601060248201527f416c726561647920636c61696d65642e00000000000000000000000000000000604482015290519081900360640190fd5b600061341a610f3d565b1561342e5761342761482c565b90506134a6565b6134366127c5565b1561345657600760020154600101601d548161344e57fe5b0490506134a6565b6040805160e560020a62461bcd02815260206004820152601060248201527f4e6f7468696e6720746f20636c61696d00000000000000000000000000000000604482015290519081900360640190fd5b601e54811115613500576040805160e560020a62461bcd02815260206004820152601e60248201527f536f6d657468696e672077656e7420686f727269626c792077726f6e672e0000604482015290519081900360640190fd5b604051339082156108fc029083906000818181858888f1935050505015801561352d573d6000803e3d6000fd5b50601e80548290039055336000818152601f6020908152604091829020805460ff191660011790558151928352820183905280517f9bba21557d0250e19101c5df524f23380fd45fc8cd7ec3a22b8431abcc1525c29281900390910190a15050565b600060335460ff1660058111156135a257fe5b1480156135b157506016544210155b156135be576135be61432d565b600160335460ff1660058111156135d157fe5b1480156135e057506017544210155b1561361f57602d54601254101561361757613612604051806060016040528060338152602001614e3b60339139614407565b61361f565b61361f61432d565b600360335460ff16600581111561363257fe5b14801561364157506023544210155b1561364e5761364e61432d565b600260335460ff16600581111561366157fe5b1480156136745750601b54601954014210155b15610f2057610f20604051806040016040528060208152602001600080516020614cf0833981519152815250614407565b6136ad614bb6565b506040805160a081018252602080548252602154908201526024549181019190915260225460608201526023546080820152602654600160a060020a03169091565b606060058054806020026020016040519081016040528092919081815260200182805480156118ef57602002820191906000526020600020908154815260200190600101908083116118db575050505050905090565b600780546008805460408051602060026101006001861615026000190190941693909304601f8101849004840282018401909252818152600160a060020a03909416949392918301828280156137dc5780601f106137b1576101008083540402835291602001916137dc565b820191906000526020600020905b8154815290600101906020018083116137bf57829003601f168201915b5050505050908060020154908060030154905084565b600054600160a060020a0316331461380957600080fd5b600060335460ff16600581111561381c57fe5b14801561382b57506016544210155b156138385761383861432d565b600160335460ff16600581111561384b57fe5b14801561385a57506017544210155b1561389957602d5460125410156138915761388c604051806060016040528060338152602001614e3b60339139614407565b613899565b61389961432d565b600360335460ff1660058111156138ac57fe5b1480156138bb57506023544210155b156138c8576138c861432d565b600260335460ff1660058111156138db57fe5b1480156138ee5750601b54601954014210155b1561391f5761391f604051806040016040528060208152602001600080516020614cf0833981519152815250614407565b600460335460ff16600581111561393257fe5b148061394e5750600560335460ff16600581111561394c57fe5b145b61395757600080fd5b601b54601954016224ea000142101561396f57600080fd5b60008054604051600160a060020a0390911691303180156108fc02929091818181858888f193505050501580156139aa573d6000803e3d6000fd5b506000601e819055600154604080517f70a082310000000000000000000000000000000000000000000000000000000081523060048201529051600160a060020a03909216916370a0823191602480820192602092909190829003018186803b158015613a1657600080fd5b505afa158015613a2a573d6000803e3d6000fd5b505050506040513d6020811015613a4057600080fd5b5051600154600080546040805160e060020a63a9059cbb028152600160a060020a03928316600482015260248101869052905194955092169263a9059cbb926044808201936020939283900390910190829087803b158015613aa157600080fd5b505af1158015613ab5573d6000803e3d6000fd5b505050506040513d6020811015612a6257600080fd5b601b5481565b600160a060020a03811660009081526011602052604090205460ff165b919050565b600060335460ff166005811115613b0657fe5b148015613b1557506016544210155b15613b2257613b2261432d565b600160335460ff166005811115613b3557fe5b148015613b4457506017544210155b15613b8357602d546012541015613b7b57613b76604051806060016040528060338152602001614e3b60339139614407565b613b83565b613b8361432d565b600360335460ff166005811115613b9657fe5b148015613ba557506023544210155b15613bb257613bb261432d565b600260335460ff166005811115613bc557fe5b148015613bd85750601b54601954014210155b15613c0957613c09604051806040016040528060208152602001600080516020614cf0833981519152815250614407565b60055415801590613ced575060048054604080517f35fe903400000000000000000000000000000000000000000000000000000000815233938101848152602482019283526005805460448401819052600160a060020a03909516956335fe903495909491936064019084908015613ca057602002820191906000526020600020905b815481526020019060010190808311613c8c575b5050935050505060206040518083038186803b158015613cbf57600080fd5b505afa158015613cd3573d6000803e3d6000fd5b505050506040513d6020811015613ce957600080fd5b5051155b15613d48576040805160208082526012908201527f5065726d697373696f6e2064656e6965642e00000000000000000000000000008183015290513391600080516020614d35833981519152919081900360600190a2610f20565b60315460125410613da957604080516020808252600e908201527f4576656e742069732066756c6c2e0000000000000000000000000000000000008183015290513391600080516020614d35833981519152919081900360600190a2610f20565b613db233613ad1565b15613e0d57604080516020808252601e908201527f596f752061726520616c72656164792070617274696369706174696e672e00008183015290513391600080516020614d35833981519152919081900360600190a2610f20565b600160335460ff166005811115613e2057fe5b14613e6d5733600160a060020a0316600080516020614d35833981519152604051808060200182810382526030815260200180614da06030913960400191505060405180910390a2610f20565b6000601c54118015613f155750601c54600154604080517fdd62ed3e0000000000000000000000000000000000000000000000000000000081523360048201523060248201529051600160a060020a039092169163dd62ed3e91604480820192602092909190829003018186803b158015613ee757600080fd5b505afa158015613efb573d6000803e3d6000fd5b505050506040513d6020811015613f1157600080fd5b5051105b15613f70576040805160208082526019908201527f4e6f7420656e6f75676820746f6b656e73207374616b65642e000000000000008183015290513391600080516020614d35833981519152919081900360600190a2610f20565b601c541561401b57600154601c54604080517f23b872dd000000000000000000000000000000000000000000000000000000008152336004820152306024820152604481019290925251600160a060020a03909216916323b872dd916064808201926020929091908290030181600087803b158015613fee57600080fd5b505af1158015614002573d6000803e3d6000fd5b505050506040513d602081101561401857600080fd5b50505b33600081815260116020526040808220805460ff1916600190811790915560128054918201815583527fbb8a6a4669ba250d26cd7a459eca9d215f8307e33aebe50379bc5a3617ec344401805473ffffffffffffffffffffffffffffffffffffffff19168417905560025481517fb9d3514d00000000000000000000000000000000000000000000000000000000815260048101949094529051600160a060020a03919091169263b9d3514d92602480830193919282900301818387803b1580156140e557600080fd5b505af11580156140f9573d6000803e3d6000fd5b50506040805133815290517f0940fd5e528ae9fa6c086f42387c791c3854e0febdf0717c2da155c9dbf1e86c9350908190036020019150a1565b600054600160a060020a0316331461414a57600080fd5b60185442106141a3576040805160e560020a62461bcd02815260206004820152601660248201527f4576656e7420616c726561647920737461727465642e00000000000000000000604482015290519081900360640190fd5b6033805461ff0019166101001790554260195560408051808201909152601a81527f4576656e742063616e63656c65642062792063726561746f722e00000000000060208201526141f390614407565b601c5415610f205760005b6012548110156131d35760015460128054600160a060020a039092169163a9059cbb91908490811061422c57fe5b6000918252602080832090910154601c54604080517c010000000000000000000000000000000000000000000000000000000063ffffffff8816028152600160a060020a03909316600484015260248301919091525160448083019491928390030190829087803b1580156142a057600080fd5b505af11580156142b4573d6000803e3d6000fd5b505050506040513d60208110156142ca57600080fd5b50506001016141fe565b6142dc614afc565b60408051808201918290526029805482529091600290602a602085018083116118db575050505050905090565b3660008037600080366000845af43d6000803e808015614328573d6000f35b3d6000fd5b600460335460ff16600581111561434057fe5b1061437f5760405160e560020a62461bcd028152600401808060200182810382526026815260200180614d7a6026913960400191505060405180910390fd5b60335460ff16600581111561439057fe5b600101600581111561439e57fe5b6033805460ff191660018360058111156143b457fe5b02179055506033546040517fb9eb8a309bf89f3159b39681f485b6430fec1035b2b457edbcdadcdece888c0b9160ff1690808260058111156143f257fe5b60ff16815260200191505060405180910390a1565b600460335460ff16600581111561441a57fe5b106144595760405160e560020a62461bcd028152600401808060200182810382526026815260200180614d7a6026913960400191505060405180910390fd5b6033805460ff1916600517905560408051602080825283518183015283517f860b7e55e58bd6095b36c4b4016ed8a2e47cb8ebd020fa0e43b32649deb540c3938593928392918301919085019080838360005b838110156144c45781810151838201526020016144ac565b50505050905090810190601f1680156144f15780820380516001836020036101000a031916815260200191505b509250505060405180910390a16033546040517fb9eb8a309bf89f3159b39681f485b6430fec1035b2b457edbcdadcdece888c0b9160ff16908082600581111561453757fe5b60ff16815260200191505060405180910390a150565b60006009819055600a8190555b600b5481101561460157600b8054600e91908390811061457657fe5b9060005260206000200160405180828054600181600116156101000203166002900480156145db5780601f106145b95761010080835404028352918201916145db565b820191906000526020600020905b8154815290600101906020018083116145c7575b505092835250506040519081900360200190206145f9906000614c0e565b60010161455a565b5061460e600b6000614c2c565b61461a600c6000614c0e565b6006805460ff1916905560005b6003548110156131d3576000600760060160006003848154811061464757fe5b6000918252602080832090910154600160a060020a03168352820192909252604001902055600101614627565b60005b601554811015614719576000601460006015848154811061469457fe5b6000918252602080832090910154600160a060020a0316835282019290925260400181209080815260200190815260200160002081905550600060146000601584815481106146df57fe5b600091825260208083209190910154600160a060020a03168352828101939093526040918201812060018083529352209190915501614677565b50610f2060156000614c0e565b602f80546103e86064828103810282900490920192839055602d8054808402929092049182019055602e80549382029290920492830190915560318054929091019091019055565b6000805b6003548110156147c05782600160a060020a03166003828154811061479357fe5b600091825260209091200154600160a060020a031614156147b8576001915050613aee565b600101614772565b50600092915050565b602f546064036147d7614855565b10610f2057610f2061486f565b602f546147ef614960565b10610f20576006805460ff19166002179055602c541561481e57602154420160235561481961432d565b610f20565b42602355610f206004614974565b6000600160076002015403600760020154600101601d548161484a57fe5b0402601d5403905090565b600354600a54600091906064028161486957fe5b04905090565b60016007600801600760010160405180828054600181600116156101000203166002900480156148d65780601f106148b45761010080835404028352918201916148d6565b820191906000526020600020905b8154815290600101906020018083116148c2575b50509283525050604051602091819003919091019020805460ff1916911515919091179055600b54600a54601054600954929091036001019101600019011115614958576148196040518060400160405280601a81526020017f436f6e73656e7375732063616e27742062652072656163686564000000000000815250614407565b610f206149cb565b600354600954600091906064028161486957fe5b6033805482919060ff1916600183600581111561498d57fe5b02179055506033546040517fb9eb8a309bf89f3159b39681f485b6430fec1035b2b457edbcdadcdece888c0b9160ff16908082600581111561453757fe5b601080546001019055600b8054600e91906000906149e557fe5b906000526020600020016040518082805460018160011615610100020316600290048015614a4a5780601f10614a28576101008083540402835291820191614a4a565b820191906000526020600020905b815481529060010190602001808311614a36575b50509150509081526020016040518091039020600081548110614a6957fe5b6000918252602090912001546007805473ffffffffffffffffffffffffffffffffffffffff1916600160a060020a03909216919091179055614aa961454d565b614ab1614674565b60105460075460408051928352600160a060020a03909116602083015280517f372d3c1251f28673c4ee2eaf015d5e07bf3145e2df993fd41cae9707f389eaa89281900390910190a1565b60405180604001604052806002906020820280388339509192915050565b828054600181600116156101000203166002900490600052602060002090601f016020900481019282601f10614b5b57805160ff1916838001178555614b88565b82800160010185558215614b88579182015b82811115614b88578251825591602001919060010190614b6d565b50614b94929150614c4a565b5090565b6040518060c001604052806006906020820280388339509192915050565b6040518060a001604052806005906020820280388339509192915050565b828054828255906000526020600020908101928215614b885791602002820182811115614b88578251825591602001919060010190614b6d565b50805460008255906000526020600020908101906131d39190614c4a565b50805460008255906000526020600020908101906131d39190614c64565b610f4c91905b80821115614b945760008155600101614c50565b610f4c91905b80821115614b94576000614c7e8282614c87565b50600101614c6a565b50805460018160011615610100020316600290046000825580601f10614cad57506131d3565b601f0160209004906000526020600020908101906131d39190614c4a56fe4e6f7420706f737369626c6520696e2063757272656e74206576656e742073746174652e4576656e7420746f6f6b20746f6f206c6f6e6720746f20636f6d706c6574652e4e6f7420656e6f75676820746f6b656e73207374616b656420666f7220646973707574652ecfa5f641c29090a64bc13dcafdc8c23d82677807046c35d636ca9c57fc9cb257596f7520646f206e6f74206861766520616e79207265776172647320746f20636c61696d2e4576656e742073746174652063616e2774206265206d6f64696669656420616e796d6f72652e596f752063616e206e6f74206a6f696e20746865206576656e7420696e206974732063757272656e742073746174652e437269746963616c206572726f723a206e6f7420656e6f7567682062616c616e636520746f20706179206f7574207265776172642e20436f6e74616374205665726974792e4e6f7420706f737369626c6520696e20746869732076616c69646174696f6e2073746174652e4e6f7420656e6f756768207573657273206a6f696e656420666f72207265717569726564206d696e696d756d20766f7465732ea165627a7a723058206d06037e81eb98a70434dc4a0cfee27df10da2f76983f00e0cff6679e7c947120029",
  "source": "pragma solidity ^0.5.7;\n\n\nimport \"./verity_event/Implementation.sol\";\nimport \"./utility/Proxy.sol\";\n\n\ncontract VerityEvent is Implementation, Proxy {\n}\n",
  "sourcePath": "/Users/hiphop/code/verity-event/contracts/VerityEvent.sol",
  "compiler": {
    "name": "solc",
    "version": "0.5.7+commit.6da8b019.Emscripten.clang"
  },
  "schemaVersion": "3.0.1",
  "updatedAt": "2019-03-29T09:35:14.331Z",
  "devdoc": {
    "methods": {
      "isParticipating(address)": {
        "params": {
          "_user": "The addres to check for participation"
        },
        "return": "{bool} Whether the given address is a participant of this event"
      },
      "setRewards(address[],uint256[],uint256[])": {
        "params": {
          "_addresses": "A list of addresses",
          "_etherRewards": "A list of ether rewards, must be the exact same length as addresses",
          "_tokenRewards": "A list of token rewards, must be the exact same length as addresses"
        }
      }
    }
  },
  "userdoc": {
    "methods": {
      "approveRewards(uint256)": {
        "notice": "Called by event resolver nodes if they agree with rewards"
      },
      "claimReward()": {
        "notice": "Claim a reward. Needs to be called by the users themselves. Only available in the Reward state, after rewards have been received from the validation nodes."
      },
      "getConsensusRules()": {
        "notice": "Returns an array of consensus rules. [minTotalVotes, minConsensusVotes, minConsensusRatio, minParticipantRatio, maxParticipants]"
      },
      "getDisputeData()": {
        "notice": "Returns an array of dispute rules. [dispute amount, dispute timeout, dispute round]"
      },
      "getEventResolvers()": {
        "notice": "Returns the whole array of event resolvers."
      },
      "getReward()": {
        "notice": "Returns the calling user's assigned rewards. Can be 0. Only available to participating users in the Reward state, since rewards are not assigned before that."
      },
      "getRewards(address[])": {
        "notice": "Returns rewards for specified addresses. [[ethRewards, tokenRewards], [ethRewards, tokenRewards], ...]"
      },
      "getRewardsIndex()": {
        "notice": "Returns all the addresses that have rewards set."
      },
      "isMasterNode()": {
        "notice": "Checks if the address is current master node."
      },
      "isParticipating(address)": {
        "notice": "Checks whether an address is participating in this event."
      },
      "joinEvent()": {
        "notice": "Apply for participation in this event. Available only during the Application state. A transaction to this function has to be done by the users themselves, registering their wallet address as a participent. The transaction does not have to include any funds."
      },
      "markRewardsSet(string)": {
        "notice": "Triggered by the master node once rewards are set and ready to validate"
      },
      "rejectRewards(uint256,string)": {
        "notice": "Called by event resolvers if they don't agree with rewards"
      },
      "setRewards(address[],uint256[],uint256[])": {
        "notice": "Assign the actual rewards. Receives a list of addresses and a list rewards. Mapping between the two is done by the addresses' and reward's numerical index in the list, so order is important."
      },
      "triggerDispute()": {
        "notice": "Trigger a dispute."
      }
    }
  }
}