{
  "contractName": "VerityEvent",
  "abi": [
    {
      "constant": true,
      "inputs": [],
      "name": "rewardsValidationRound",
      "outputs": [
        {
          "name": "",
          "type": "uint256"
        }
      ],
      "payable": false,
      "stateMutability": "view",
      "type": "function"
    },
    {
      "constant": true,
      "inputs": [],
      "name": "nodeRewardsPool",
      "outputs": [
        {
          "name": "",
          "type": "uint256"
        }
      ],
      "payable": false,
      "stateMutability": "view",
      "type": "function"
    },
    {
      "constant": true,
      "inputs": [],
      "name": "eventRegistryAddress",
      "outputs": [
        {
          "name": "",
          "type": "address"
        }
      ],
      "payable": false,
      "stateMutability": "view",
      "type": "function"
    },
    {
      "constant": true,
      "inputs": [],
      "name": "isMasterNode",
      "outputs": [
        {
          "name": "",
          "type": "bool"
        }
      ],
      "payable": false,
      "stateMutability": "view",
      "type": "function"
    },
    {
      "constant": true,
      "inputs": [],
      "name": "getBalance",
      "outputs": [
        {
          "name": "",
          "type": "uint256[2]"
        }
      ],
      "payable": false,
      "stateMutability": "view",
      "type": "function"
    },
    {
      "constant": true,
      "inputs": [],
      "name": "eventCanceled",
      "outputs": [
        {
          "name": "",
          "type": "bool"
        }
      ],
      "payable": false,
      "stateMutability": "view",
      "type": "function"
    },
    {
      "constant": true,
      "inputs": [],
      "name": "requiredNextDisputeAmount",
      "outputs": [
        {
          "name": "",
          "type": "uint256"
        }
      ],
      "payable": false,
      "stateMutability": "view",
      "type": "function"
    },
    {
      "constant": true,
      "inputs": [],
      "name": "getState",
      "outputs": [
        {
          "name": "",
          "type": "uint256"
        }
      ],
      "payable": false,
      "stateMutability": "view",
      "type": "function"
    },
    {
      "constant": false,
      "inputs": [
        {
          "name": "_addresses",
          "type": "address[]"
        },
        {
          "name": "_etherRewards",
          "type": "uint256[]"
        },
        {
          "name": "_tokenRewards",
          "type": "uint256[]"
        }
      ],
      "name": "setRewards",
      "outputs": [],
      "payable": false,
      "stateMutability": "nonpayable",
      "type": "function"
    },
    {
      "constant": true,
      "inputs": [],
      "name": "validationState",
      "outputs": [
        {
          "name": "",
          "type": "uint8"
        }
      ],
      "payable": false,
      "stateMutability": "view",
      "type": "function"
    },
    {
      "constant": true,
      "inputs": [],
      "name": "getReward",
      "outputs": [
        {
          "name": "",
          "type": "uint256[2]"
        }
      ],
      "payable": false,
      "stateMutability": "view",
      "type": "function"
    },
    {
      "constant": true,
      "inputs": [],
      "name": "dataFeedHash",
      "outputs": [
        {
          "name": "",
          "type": "string"
        }
      ],
      "payable": false,
      "stateMutability": "view",
      "type": "function"
    },
    {
      "constant": true,
      "inputs": [],
      "name": "ipfsEventHash",
      "outputs": [
        {
          "name": "",
          "type": "string"
        }
      ],
      "payable": false,
      "stateMutability": "view",
      "type": "function"
    },
    {
      "constant": false,
      "inputs": [
        {
          "name": "_hash",
          "type": "string"
        }
      ],
      "name": "setDataFeedHash",
      "outputs": [],
      "payable": false,
      "stateMutability": "nonpayable",
      "type": "function"
    },
    {
      "constant": false,
      "inputs": [],
      "name": "claimFailed",
      "outputs": [],
      "payable": false,
      "stateMutability": "nonpayable",
      "type": "function"
    },
    {
      "constant": true,
      "inputs": [],
      "name": "getResults",
      "outputs": [
        {
          "name": "",
          "type": "bytes32[]"
        }
      ],
      "payable": false,
      "stateMutability": "view",
      "type": "function"
    },
    {
      "constant": false,
      "inputs": [
        {
          "name": "rewardsHash",
          "type": "string"
        }
      ],
      "name": "markRewardsSet",
      "outputs": [],
      "payable": false,
      "stateMutability": "nonpayable",
      "type": "function"
    },
    {
      "constant": true,
      "inputs": [
        {
          "name": "_addresses",
          "type": "address[]"
        }
      ],
      "name": "getRewards",
      "outputs": [
        {
          "name": "",
          "type": "uint256[]"
        },
        {
          "name": "",
          "type": "uint256[]"
        }
      ],
      "payable": false,
      "stateMutability": "view",
      "type": "function"
    },
    {
      "constant": false,
      "inputs": [],
      "name": "triggerDispute",
      "outputs": [],
      "payable": false,
      "stateMutability": "nonpayable",
      "type": "function"
    },
    {
      "constant": true,
      "inputs": [],
      "name": "getRewardsIndex",
      "outputs": [
        {
          "name": "",
          "type": "address[]"
        }
      ],
      "payable": false,
      "stateMutability": "view",
      "type": "function"
    },
    {
      "constant": true,
      "inputs": [],
      "name": "version",
      "outputs": [
        {
          "name": "",
          "type": "uint256"
        }
      ],
      "payable": false,
      "stateMutability": "view",
      "type": "function"
    },
    {
      "constant": true,
      "inputs": [],
      "name": "getParticipants",
      "outputs": [
        {
          "name": "",
          "type": "address[]"
        }
      ],
      "payable": false,
      "stateMutability": "view",
      "type": "function"
    },
    {
      "constant": true,
      "inputs": [],
      "name": "implementation",
      "outputs": [
        {
          "name": "",
          "type": "address"
        }
      ],
      "payable": false,
      "stateMutability": "view",
      "type": "function"
    },
    {
      "constant": true,
      "inputs": [],
      "name": "stakingAmount",
      "outputs": [
        {
          "name": "",
          "type": "uint256"
        }
      ],
      "payable": false,
      "stateMutability": "view",
      "type": "function"
    },
    {
      "constant": true,
      "inputs": [],
      "name": "getEventResolvers",
      "outputs": [
        {
          "name": "",
          "type": "address[]"
        }
      ],
      "payable": false,
      "stateMutability": "view",
      "type": "function"
    },
    {
      "constant": true,
      "inputs": [],
      "name": "nodeRewardsBalance",
      "outputs": [
        {
          "name": "",
          "type": "uint256"
        }
      ],
      "payable": false,
      "stateMutability": "view",
      "type": "function"
    },
    {
      "constant": true,
      "inputs": [],
      "name": "eventName",
      "outputs": [
        {
          "name": "",
          "type": "string"
        }
      ],
      "payable": false,
      "stateMutability": "view",
      "type": "function"
    },
    {
      "constant": false,
      "inputs": [
        {
          "name": "validationRound",
          "type": "uint256"
        },
        {
          "name": "altHash",
          "type": "string"
        }
      ],
      "name": "rejectRewards",
      "outputs": [],
      "payable": false,
      "stateMutability": "nonpayable",
      "type": "function"
    },
    {
      "constant": true,
      "inputs": [],
      "name": "getConsensusRules",
      "outputs": [
        {
          "name": "",
          "type": "uint256[6]"
        }
      ],
      "payable": false,
      "stateMutability": "view",
      "type": "function"
    },
    {
      "constant": true,
      "inputs": [],
      "name": "owner",
      "outputs": [
        {
          "name": "",
          "type": "address"
        }
      ],
      "payable": false,
      "stateMutability": "view",
      "type": "function"
    },
    {
      "constant": true,
      "inputs": [],
      "name": "tokenAddress",
      "outputs": [
        {
          "name": "",
          "type": "address"
        }
      ],
      "payable": false,
      "stateMutability": "view",
      "type": "function"
    },
    {
      "constant": false,
      "inputs": [
        {
          "name": "validationRound",
          "type": "uint256"
        }
      ],
      "name": "approveRewards",
      "outputs": [],
      "payable": false,
      "stateMutability": "nonpayable",
      "type": "function"
    },
    {
      "constant": true,
      "inputs": [],
      "name": "getEventTimes",
      "outputs": [
        {
          "name": "",
          "type": "uint256[5]"
        }
      ],
      "payable": false,
      "stateMutability": "view",
      "type": "function"
    },
    {
      "constant": false,
      "inputs": [
        {
          "name": "_results",
          "type": "bytes32[]"
        }
      ],
      "name": "setResults",
      "outputs": [],
      "payable": false,
      "stateMutability": "nonpayable",
      "type": "function"
    },
    {
      "constant": false,
      "inputs": [],
      "name": "claimReward",
      "outputs": [],
      "payable": false,
      "stateMutability": "nonpayable",
      "type": "function"
    },
    {
      "constant": false,
      "inputs": [],
      "name": "nodeClaimReward",
      "outputs": [],
      "payable": false,
      "stateMutability": "nonpayable",
      "type": "function"
    },
    {
      "constant": false,
      "inputs": [],
      "name": "triggerStateChange",
      "outputs": [],
      "payable": false,
      "stateMutability": "nonpayable",
      "type": "function"
    },
    {
      "constant": true,
      "inputs": [],
      "name": "getDisputeData",
      "outputs": [
        {
          "name": "",
          "type": "uint256[5]"
        },
        {
          "name": "",
          "type": "address"
        }
      ],
      "payable": false,
      "stateMutability": "view",
      "type": "function"
    },
    {
      "constant": true,
      "inputs": [],
      "name": "getRequiredRoles",
      "outputs": [
        {
          "name": "",
          "type": "uint256[]"
        }
      ],
      "payable": false,
      "stateMutability": "view",
      "type": "function"
    },
    {
      "constant": true,
      "inputs": [],
      "name": "rewardsValidation",
      "outputs": [
        {
          "name": "currentMasterNode",
          "type": "address"
        },
        {
          "name": "rewardsHash",
          "type": "string"
        },
        {
          "name": "approvalCount",
          "type": "uint256"
        },
        {
          "name": "rejectionCount",
          "type": "uint256"
        }
      ],
      "payable": false,
      "stateMutability": "view",
      "type": "function"
    },
    {
      "constant": false,
      "inputs": [],
      "name": "recoverLeftovers",
      "outputs": [],
      "payable": false,
      "stateMutability": "nonpayable",
      "type": "function"
    },
    {
      "constant": true,
      "inputs": [],
      "name": "leftoversRecoverableAfter",
      "outputs": [
        {
          "name": "",
          "type": "uint256"
        }
      ],
      "payable": false,
      "stateMutability": "view",
      "type": "function"
    },
    {
      "constant": true,
      "inputs": [
        {
          "name": "_user",
          "type": "address"
        }
      ],
      "name": "isParticipating",
      "outputs": [
        {
          "name": "",
          "type": "bool"
        }
      ],
      "payable": false,
      "stateMutability": "view",
      "type": "function"
    },
    {
      "constant": false,
      "inputs": [],
      "name": "joinEvent",
      "outputs": [],
      "payable": false,
      "stateMutability": "nonpayable",
      "type": "function"
    },
    {
      "constant": false,
      "inputs": [],
      "name": "cancelEvent",
      "outputs": [],
      "payable": false,
      "stateMutability": "nonpayable",
      "type": "function"
    },
    {
      "constant": true,
      "inputs": [],
      "name": "getEventCategory",
      "outputs": [
        {
          "name": "",
          "type": "bytes32[2]"
        }
      ],
      "payable": false,
      "stateMutability": "view",
      "type": "function"
    },
    {
      "payable": true,
      "stateMutability": "payable",
      "type": "fallback"
    },
    {
      "anonymous": false,
      "inputs": [
        {
          "indexed": false,
          "name": "newState",
          "type": "uint8"
        }
      ],
      "name": "StateTransition",
      "type": "event"
    },
    {
      "anonymous": false,
      "inputs": [
        {
          "indexed": false,
          "name": "wallet",
          "type": "address"
        }
      ],
      "name": "JoinEvent",
      "type": "event"
    },
    {
      "anonymous": false,
      "inputs": [
        {
          "indexed": true,
          "name": "recipient",
          "type": "address"
        },
        {
          "indexed": false,
          "name": "ethReward",
          "type": "uint256"
        },
        {
          "indexed": false,
          "name": "tokenReward",
          "type": "uint256"
        }
      ],
      "name": "ClaimReward",
      "type": "event"
    },
    {
      "anonymous": false,
      "inputs": [
        {
          "indexed": true,
          "name": "byAddress",
          "type": "address"
        },
        {
          "indexed": false,
          "name": "description",
          "type": "string"
        }
      ],
      "name": "Error",
      "type": "event"
    },
    {
      "anonymous": false,
      "inputs": [
        {
          "indexed": false,
          "name": "description",
          "type": "string"
        }
      ],
      "name": "EventFailed",
      "type": "event"
    },
    {
      "anonymous": false,
      "inputs": [
        {
          "indexed": false,
          "name": "validationRound",
          "type": "uint256"
        }
      ],
      "name": "ValidationStarted",
      "type": "event"
    },
    {
      "anonymous": false,
      "inputs": [
        {
          "indexed": false,
          "name": "validationRound",
          "type": "uint256"
        },
        {
          "indexed": false,
          "name": "newMaster",
          "type": "address"
        }
      ],
      "name": "ValidationRestart",
      "type": "event"
    },
    {
      "anonymous": false,
      "inputs": [
        {
          "indexed": false,
          "name": "byAddress",
          "type": "address"
        }
      ],
      "name": "DisputeTriggered",
      "type": "event"
    },
    {
      "anonymous": false,
      "inputs": [
        {
          "indexed": false,
          "name": "recipient",
          "type": "address"
        }
      ],
      "name": "ClaimStake",
      "type": "event"
    },
    {
      "anonymous": false,
      "inputs": [
        {
          "indexed": false,
          "name": "node",
          "type": "address"
        },
        {
          "indexed": false,
          "name": "reward",
          "type": "uint256"
        }
      ],
      "name": "NodeClaimReward",
      "type": "event"
    }
  ],
  "bytecode": "0x60806040526006805460ff1990811690915560338054909116905534801561002657600080fd5b50614d89806100366000396000f3fe608060405260043610610299576000357c010000000000000000000000000000000000000000000000000000000090048063739a3e021161016c578063b88a802f116100de578063efba9bd211610097578063efba9bd214610dd3578063f38a803f14610de8578063f4caee8814610dfd578063f9010d1914610e30578063fb6c953714610e45578063fce1a10c14610e5a57610299565b8063b88a802f14610c65578063c08e737414610c7a578063d563f0c514610c8f578063d6e9b01914610ca4578063e0807f8914610d0a578063e3a86e7114610d1f57610299565b806381c2d8751161013057806381c2d87514610b0d5780638da5cb5b14610b375780639d76ea5814610b4c578063a77ae83914610b61578063ab95b58614610b8b578063ac88490214610bb557610299565b8063739a3e02146109ff57806374539f9814610a145780637e0c478b14610a295780638043c9c014610a3e5780638126cb1e14610a5357610299565b80634227357c11610210578063510ccb43116101c9578063510ccb431461084d57806352f91acf1461099657806354e33cf0146109ab57806354fd4d50146109c05780635aa68ac0146109d55780635c60da1b146109ea57610299565b80634227357c146105ce57806342380eaf14610658578063437933cc1461066d57806345f99d51146107205780634717f97c146107355780634b766b951461079a57610299565b8063148b597c11610262578063148b597c14610389578063181b3f5a1461039e5780631865c57d146103b35780631a0ddce9146103c85780631e59680b146105805780633d18b912146105b957610299565b8062f16142146102a357806302a36305146102ca578063073f03fb146102df57806311e956c81461031057806312065fe014610339575b6102a1610e6f565b005b3480156102af57600080fd5b506102b8610e94565b60408051918252519081900360200190f35b3480156102d657600080fd5b506102b8610e9a565b3480156102eb57600080fd5b506102f4610ea0565b60408051600160a060020a039092168252519081900360200190f35b34801561031c57600080fd5b50610325610eaf565b604080519115158252519081900360200190f35b34801561034557600080fd5b5061034e610ec1565b6040518082600260200280838360005b8381101561037657818101518382015260200161035e565b5050505090500191505060405180910390f35b34801561039557600080fd5b50610325610f71565b3480156103aa57600080fd5b506102b8610f7f565b3480156103bf57600080fd5b506102b8610fca565b3480156103d457600080fd5b506102a1600480360360608110156103eb57600080fd5b81019060208101813564010000000081111561040657600080fd5b82018360208201111561041857600080fd5b8035906020019184602083028401116401000000008311171561043a57600080fd5b919080806020026020016040519081016040528093929190818152602001838360200280828437600092019190915250929594936020810193503591505064010000000081111561048a57600080fd5b82018360208201111561049c57600080fd5b803590602001918460208302840111640100000000831117156104be57600080fd5b919080806020026020016040519081016040528093929190818152602001838360200280828437600092019190915250929594936020810193503591505064010000000081111561050e57600080fd5b82018360208201111561052057600080fd5b8035906020019184602083028401116401000000008311171561054257600080fd5b919080806020026020016040519081016040528093929190818152602001838360200280828437600092019190915250929550610fe3945050505050565b34801561058c57600080fd5b50610595611356565b604051808260028111156105a557fe5b60ff16815260200191505060405180910390f35b3480156105c557600080fd5b5061034e61135f565b3480156105da57600080fd5b506105e36113a1565b6040805160208082528351818301528351919283929083019185019080838360005b8381101561061d578181015183820152602001610605565b50505050905090810190601f16801561064a5780820380516001836020036101000a031916815260200191505b509250505060405180910390f35b34801561066457600080fd5b506105e361142f565b34801561067957600080fd5b506102a16004803603602081101561069057600080fd5b8101906020810181356401000000008111156106ab57600080fd5b8201836020820111156106bd57600080fd5b803590602001918460018302840111640100000000831117156106df57600080fd5b91908080601f01602080910402602001604051908101604052809392919081815260200183838082843760009201919091525092955061148a945050505050565b34801561072c57600080fd5b506102a16114b8565b34801561074157600080fd5b5061074a6117ff565b60408051602080825283518183015283519192839290830191858101910280838360005b8381101561078657818101518382015260200161076e565b505050509050019250505060405180910390f35b3480156107a657600080fd5b506102a1600480360360208110156107bd57600080fd5b8101906020810181356401000000008111156107d857600080fd5b8201836020820111156107ea57600080fd5b8035906020019184600183028401116401000000008311171561080c57600080fd5b91908080601f016020809104026020016040519081016040528093929190818152602001838380828437600092019190915250929550611857945050505050565b34801561085957600080fd5b506108fd6004803603602081101561087057600080fd5b81019060208101813564010000000081111561088b57600080fd5b82018360208201111561089d57600080fd5b803590602001918460208302840111640100000000831117156108bf57600080fd5b919080806020026020016040519081016040528093929190818152602001838360200280828437600092019190915250929550611ae1945050505050565b604051808060200180602001838103835285818151815260200191508051906020019060200280838360005b83811015610941578181015183820152602001610929565b50505050905001838103825284818151815260200191508051906020019060200280838360005b83811015610980578181015183820152602001610968565b5050505090500194505050505060405180910390f35b3480156109a257600080fd5b506102a1611c1c565b3480156109b757600080fd5b5061074a61212e565b3480156109cc57600080fd5b506102b861218f565b3480156109e157600080fd5b5061074a612194565b3480156109f657600080fd5b506102f46121f4565b348015610a0b57600080fd5b506102b8612209565b348015610a2057600080fd5b5061074a61220f565b348015610a3557600080fd5b506102b861226f565b348015610a4a57600080fd5b506105e3612275565b348015610a5f57600080fd5b506102a160048036036040811015610a7657600080fd5b81359190810190604081016020820135640100000000811115610a9857600080fd5b820183602082011115610aaa57600080fd5b80359060200191846001830284011164010000000083111715610acc57600080fd5b91908080601f0160208091040260200160405190810160405280939291908181526020018383808284376000920191909152509295506122d0945050505050565b348015610b1957600080fd5b50610b2261268f565b60405181518152808260c0808383602061035e565b348015610b4357600080fd5b506102f46126e5565b348015610b5857600080fd5b506102f46126f4565b348015610b6d57600080fd5b506102a160048036036020811015610b8457600080fd5b5035612703565b348015610b9757600080fd5b50610ba0612925565b60405181518152808260a0808383602061035e565b348015610bc157600080fd5b506102a160048036036020811015610bd857600080fd5b810190602081018135640100000000811115610bf357600080fd5b820183602082011115610c0557600080fd5b80359060200191846020830284011164010000000083111715610c2757600080fd5b919080806020026020016040519081016040528093929190818152602001838360200280828437600092019190915250929550612963945050505050565b348015610c7157600080fd5b506102a1612bb5565b348015610c8657600080fd5b506102a1613042565b348015610c9b57600080fd5b506102a16133ff565b348015610cb057600080fd5b50610cb9613515565b604051808360a080838360005b83811015610cde578181015183820152602001610cc6565b5050505090500182600160a060020a0316600160a060020a031681526020019250505060405180910390f35b348015610d1657600080fd5b5061074a61355f565b348015610d2b57600080fd5b50610d346135b5565b6040518085600160a060020a0316600160a060020a0316815260200180602001848152602001838152602001828103825285818151815260200191508051906020019080838360005b83811015610d95578181015183820152602001610d7d565b50505050905090810190601f168015610dc25780820380516001836020036101000a031916815260200191505b509550505050505060405180910390f35b348015610ddf57600080fd5b506102a1613662565b348015610df457600080fd5b506102b861393d565b348015610e0957600080fd5b5061032560048036036020811015610e2057600080fd5b5035600160a060020a0316613943565b348015610e3c57600080fd5b506102a1613965565b348015610e5157600080fd5b506102a1613fa5565b348015610e6657600080fd5b5061034e614146565b610e77610e92565b603354610e9290620100009004600160a060020a031661417b565b565b60105481565b601d5481565b600254600160a060020a031681565b600754600160a060020a031633145b90565b610ec96149ec565b604080518082018252308031825260015483517f70a08231000000000000000000000000000000000000000000000000000000008152600481019290925292519192602080850193600160a060020a03909216926370a082319260248083019392829003018186803b158015610f3e57600080fd5b505afa158015610f52573d6000803e3d6000fd5b505050506040513d6020811015610f6857600080fd5b50519052905090565b603354610100900460ff1681565b6022546000901515610f945750602054610ebe565b60245460011415610fbd57602254602054811515610fae57fe5b04602060000154019050610ebe565b5060245460205402610ebe565b60335460009060ff166005811115610fde57fe5b905090565b600754600160a060020a03163314611045576040805160e560020a62461bcd02815260206004820152601d60248201527f4e6f7420612064657369676e61746564206d6173746572206e6f64652e000000604482015290519081900360640190fd5b600060335460ff16600581111561105857fe5b14801561106757506016544210155b156110745761107461419f565b600160335460ff16600581111561108757fe5b14801561109657506017544210155b156110d557602d5460125410156110cd576110c8604051806060016040528060338152602001614d2b60339139614279565b6110d5565b6110d561419f565b600360335460ff1660058111156110e857fe5b1480156110f757506023544210155b156111045761110461419f565b600260335460ff16600581111561111757fe5b14801561112a5750601b54601954014210155b1561115b5761115b604051806040016040528060208152602001600080516020614be0833981519152815250614279565b60335460029060ff16600581111561116f57fe5b81600581111561117b57fe5b146111ba5760405160e560020a62461bcd028152600401808060200182810382526024815260200180614bbc6024913960400191505060405180910390fd5b825184511480156111cc575081518451145b15156111d757600080fd5b600060065460ff1660028111156111ea57fe5b146112295760405160e560020a62461bcd028152600401808060200182810382526026815260200180614d056026913960400191505060405180910390fd5b60005b845181101561134f57838181518110151561124357fe5b9060200190602002015160146000878481518110151561125f57fe5b602090810291909101810151600160a060020a031682528181019290925260409081016000908120818052909252902055825183908290811061129e57fe5b906020019060200201516014600087848151811015156112ba57fe5b602090810291909101810151600160a060020a0316825281810192909252604090810160009081206001825290925290205584516015908690839081106112fd57fe5b602090810291909101810151825460018082018555600094855292909320909201805473ffffffffffffffffffffffffffffffffffffffff1916600160a060020a03909316929092179091550161122c565b5050505050565b60065460ff1681565b6113676149ec565b5060408051808201825233600090815260146020908152838220828052808252848320548452600183528152929020549181019190915290565b602b805460408051602060026001851615610100026000190190941693909304601f810184900484028201840190925281815292918301828280156114275780601f106113fc57610100808354040283529160200191611427565b820191906000526020600020905b81548152906001019060200180831161140a57829003601f168201915b505050505081565b601a805460408051602060026001851615610100026000190190941693909304601f810184900484028201840190925281815292918301828280156114275780601f106113fc57610100808354040283529160200191611427565b600054600160a060020a031633146114a157600080fd5b80516114b490602b906020840190614a0a565b5050565b6114c133613943565b1515611517576040805160e560020a62461bcd02815260206004820152601260248201527f4e6f742070617274696369706174696e672e0000000000000000000000000000604482015290519081900360640190fd5b600060335460ff16600581111561152a57fe5b14801561153957506016544210155b156115465761154661419f565b600160335460ff16600581111561155957fe5b14801561156857506017544210155b156115a757602d54601254101561159f5761159a604051806060016040528060338152602001614d2b60339139614279565b6115a7565b6115a761419f565b600360335460ff1660058111156115ba57fe5b1480156115c957506023544210155b156115d6576115d661419f565b600260335460ff1660058111156115e957fe5b1480156115fc5750601b54601954014210155b1561162d5761162d604051806040016040528060208152602001600080516020614be0833981519152815250614279565b60335460059060ff168181111561164057fe5b81600581111561164c57fe5b1461168b5760405160e560020a62461bcd028152600401808060200182810382526024815260200180614bbc6024913960400191505060405180910390fd5b6000601c5411806116b25750602254158015906116b25750602654600160a060020a031633145b1515611708576040805160e560020a62461bcd02815260206004820152601160248201527f4e6f207374616b6520746f20636c61696d000000000000000000000000000000604482015290519081900360640190fd5b602654600090600160a060020a031633141561172357602054015b601c546001546040805160e060020a63a9059cbb028152336004820152939092016024840181905291519192600160a060020a039091169163a9059cbb916044808201926020929091908290030181600087803b15801561178357600080fd5b505af1158015611797573d6000803e3d6000fd5b505050506040513d60208110156117ad57600080fd5b505033600081815260116020908152604091829020805460ff19169055815192835290517f5a53668be860a256c7ff92bff48881a9db38994032e2b90e5a0bdd51921fbeb79281900390910190a15050565b6060602c80548060200260200160405190810160405280929190818152602001828054801561184d57602002820191906000526020600020905b815481526020019060010190808311611839575b5050505050905090565b600754600160a060020a031633146118b9576040805160e560020a62461bcd02815260206004820152601d60248201527f4e6f7420612064657369676e61746564206d6173746572206e6f64652e000000604482015290519081900360640190fd5b600060335460ff1660058111156118cc57fe5b1480156118db57506016544210155b156118e8576118e861419f565b600160335460ff1660058111156118fb57fe5b14801561190a57506017544210155b1561194957602d5460125410156119415761193c604051806060016040528060338152602001614d2b60339139614279565b611949565b61194961419f565b600360335460ff16600581111561195c57fe5b14801561196b57506023544210155b156119785761197861419f565b600260335460ff16600581111561198b57fe5b14801561199e5750601b54601954014210155b156119cf576119cf604051806040016040528060208152602001600080516020614be0833981519152815250614279565b60335460029060ff1660058111156119e357fe5b8160058111156119ef57fe5b14611a2e5760405160e560020a62461bcd028152600401808060200182810382526024815260200180614bbc6024913960400191505060405180910390fd5b600060065460ff166002811115611a4157fe5b14611a805760405160e560020a62461bcd028152600401808060200182810382526026815260200180614d056026913960400191505060405180910390fd5b8151611a93906008906020850190614a0a565b50600160098190556006805460ff1916909117905560105460408051918252517f47c2e9e59e6d2347f314927d02f36b95696a09b5f0ac0bae119ff5ae937016559181900360200190a15050565b60608060608351604051908082528060200260200182016040528015611b11578160200160208202803883390190505b50905060608451604051908082528060200260200182016040528015611b41578160200160208202803883390190505b50905060005b8551811015611c1157601460008783815181101515611b6257fe5b602090810291909101810151600160a060020a0316825281810192909252604090810160009081208180529092529020548351849083908110611ba157fe5b602090810290910101528551601490600090889084908110611bbf57fe5b602090810291909101810151600160a060020a031682528181019290925260409081016000908120600182529092529020548251839083908110611bff57fe5b60209081029091010152600101611b47565b509092509050915091565b600060335460ff166005811115611c2f57fe5b148015611c3e57506016544210155b15611c4b57611c4b61419f565b600160335460ff166005811115611c5e57fe5b148015611c6d57506017544210155b15611cac57602d546012541015611ca457611c9f604051806060016040528060338152602001614d2b60339139614279565b611cac565b611cac61419f565b600360335460ff166005811115611cbf57fe5b148015611cce57506023544210155b15611cdb57611cdb61419f565b600260335460ff166005811115611cee57fe5b148015611d015750601b54601954014210155b15611d3257611d32604051806040016040528060208152602001600080516020614be0833981519152815250614279565b611d3b33613943565b1515611d91576040805160e560020a62461bcd02815260206004820152601260248201527f4e6f742070617274696369706174696e672e0000000000000000000000000000604482015290519081900360640190fd5b60335460039060ff166005811115611da557fe5b816005811115611db157fe5b14611df05760405160e560020a62461bcd028152600401808060200182810382526024815260200180614bbc6024913960400191505060405180910390fd5b6000611dfa610f7f565b600154604080517fdd62ed3e00000000000000000000000000000000000000000000000000000000815233600482015230602482015290519293508392600160a060020a039092169163dd62ed3e91604480820192602092909190829003018186803b158015611e6957600080fd5b505afa158015611e7d573d6000803e3d6000fd5b505050506040513d6020811015611e9357600080fd5b50511015611ed55760405160e560020a62461bcd028152600401808060200182810382526025815260200180614c006025913960400191505060405180910390fd5b3360009081526025602052604090205460ff1615611f3d576040805160e560020a62461bcd02815260206004820152601c60248201527f416c726561647920747269676765726564206120646973707574652e00000000604482015290519081900360640190fd5b60225415611fce57600154602654602080546040805160e060020a63a9059cbb028152600160a060020a039485166004820152602481019290925251929093169263a9059cbb92604480830193928290030181600087803b158015611fa157600080fd5b505af1158015611fb5573d6000803e3d6000fd5b505050506040513d6020811015611fcb57600080fd5b50505b6020818155602280546001908101909155336000818152602584526040808220805460ff1916851790556026805473ffffffffffffffffffffffffffffffffffffffff1916841790559254845484517f23b872dd000000000000000000000000000000000000000000000000000000008152600481019490945230602485015260448401529251600160a060020a03909316936323b872dd93606480850194929391928390030190829087803b15801561208757600080fd5b505af115801561209b573d6000803e3d6000fd5b505050506040513d60208110156120b157600080fd5b506120bc90506143bf565b6120c46144e8565b6033805460ff1916600117905560275442810160188190556017819055016019556120ed614598565b6032805460ff191690556040805133815290517ff6d97c5e133e50668a6b3607d8748ef6599c3303babb2b08a515a5a67369f45f9181900360200190a15050565b6060601580548060200260200160405190810160405280929190818152602001828054801561184d57602002820191906000526020600020905b8154600160a060020a03168152600190910190602001808311612168575050505050905090565b600181565b6060601280548060200260200160405190810160405280929190818152602001828054801561184d57602002820191906000526020600020908154600160a060020a03168152600190910190602001808311612168575050505050905090565b603354620100009004600160a060020a031681565b601c5481565b6060600380548060200260200160405190810160405280929190818152602001828054801561184d57602002820191906000526020600020908154600160a060020a03168152600190910190602001808311612168575050505050905090565b601e5481565b6028805460408051602060026001851615610100026000190190941693909304601f810184900484028201840190925281815292918301828280156114275780601f106113fc57610100808354040283529160200191611427565b60335460029060ff1660058111156122e457fe5b8160058111156122f057fe5b1461232f5760405160e560020a62461bcd028152600401808060200182810382526024815260200180614bbc6024913960400191505060405180910390fd5b82612339336145e0565b801561234a5750612348610eaf565b155b15156123a0576040805160e560020a62461bcd02815260206004820152601b60248201527f4e6f7420612076616c69642073656e64657220616464726573732e0000000000604482015290519081900360640190fd5b600160065460ff1660028111156123b357fe5b14612408576040805160e560020a62461bcd02815260206004820152601760248201527f4e6f742076616c69646174696e6720726577617264732e000000000000000000604482015290519081900360640190fd5b6010548114612461576040805160e560020a62461bcd02815260206004820152601a60248201527f56616c69646174696f6e20726f756e64206d69736d617463682e000000000000604482015290519081900360640190fd5b601054336000908152600d6020526040902054106124c9576040805160e560020a62461bcd02815260206004820152601d60248201527f416c726561647920766f74656420666f72207468697320726f756e642e000000604482015290519081900360640190fd5b600a80546001908101909155601054336000818152600d6020908152604080832094909455600c805495860181559091527fdf6966c971051c3d54ec59162606531493a51404a002842f56009d7e5cf4a8c7909301805473ffffffffffffffffffffffffffffffffffffffff19169091179055518451600f9286929182918401908083835b6020831061256d5780518252601f19909201916020918201910161254e565b51815160209384036101000a600019018019909216911617905292019485525060405193849003019092205460ff1615159150612681905057600b80546001810180835560009290925284516125ea917f0175b7a638427703f0dbe7bb9bbf987a2551717b34e79f33b5b1008d1fa01db901906020870190614a0a565b505060078001836040518082805190602001908083835b602083106126205780518252601f199092019160209182019101612601565b51815160001960209485036101000a0190811690199190911617905292019485525060405193849003810190932080546001810182556000918252939020909201805473ffffffffffffffffffffffffffffffffffffffff19163317905550505b61268961463d565b50505050565b612697614a88565b6040805160c081018252602d548152602e546020820152602f54918101919091526030546060820152603154608082015260325460a082019060ff1660018111156126de57fe5b9052905090565b600054600160a060020a031681565b600154600160a060020a031681565b60335460029060ff16600581111561271757fe5b81600581111561272357fe5b146127625760405160e560020a62461bcd028152600401808060200182810382526024815260200180614bbc6024913960400191505060405180910390fd5b8161276c336145e0565b801561277d575061277b610eaf565b155b15156127d3576040805160e560020a62461bcd02815260206004820152601b60248201527f4e6f7420612076616c69642073656e64657220616464726573732e0000000000604482015290519081900360640190fd5b600160065460ff1660028111156127e657fe5b1461283b576040805160e560020a62461bcd02815260206004820152601760248201527f4e6f742076616c69646174696e6720726577617264732e000000000000000000604482015290519081900360640190fd5b6010548114612894576040805160e560020a62461bcd02815260206004820152601a60248201527f56616c69646174696f6e20726f756e64206d69736d617463682e000000000000604482015290519081900360640190fd5b601054336000908152600d6020526040902054106128fc576040805160e560020a62461bcd02815260206004820152601d60248201527f416c726561647920766f74656420666f72207468697320726f756e642e000000604482015290519081900360640190fd5b600980546001019055601054336000908152600d6020526040902055612920614658565b505050565b61292d614aa6565b6040518060a001604052806016548152602001601754815260200160185481526020016019548152602001601b54815250905090565b600754600160a060020a031633146129c5576040805160e560020a62461bcd02815260206004820152601d60248201527f4e6f7420612064657369676e61746564206d6173746572206e6f64652e000000604482015290519081900360640190fd5b600060335460ff1660058111156129d857fe5b1480156129e757506016544210155b156129f4576129f461419f565b600160335460ff166005811115612a0757fe5b148015612a1657506017544210155b15612a5557602d546012541015612a4d57612a48604051806060016040528060338152602001614d2b60339139614279565b612a55565b612a5561419f565b600360335460ff166005811115612a6857fe5b148015612a7757506023544210155b15612a8457612a8461419f565b600260335460ff166005811115612a9757fe5b148015612aaa5750601b54601954014210155b15612adb57612adb604051806040016040528060208152602001600080516020614be0833981519152815250614279565b60335460029060ff166005811115612aef57fe5b816005811115612afb57fe5b14612b3a5760405160e560020a62461bcd028152600401808060200182810382526024815260200180614bbc6024913960400191505060405180910390fd5b600060065460ff166002811115612b4d57fe5b14612ba2576040805160e560020a62461bcd02815260206004820152601e60248201527f4f6e6c79206265666f72652076616c69646174696f6e207374617274732e0000604482015290519081900360640190fd5b815161292090602c906020850190614ac4565b612bbe33613943565b1515612c14576040805160e560020a62461bcd02815260206004820152601260248201527f4e6f742070617274696369706174696e672e0000000000000000000000000000604482015290519081900360640190fd5b600060335460ff166005811115612c2757fe5b148015612c3657506016544210155b15612c4357612c4361419f565b600160335460ff166005811115612c5657fe5b148015612c6557506017544210155b15612ca457602d546012541015612c9c57612c97604051806060016040528060338152602001614d2b60339139614279565b612ca4565b612ca461419f565b600360335460ff166005811115612cb757fe5b148015612cc657506023544210155b15612cd357612cd361419f565b600260335460ff166005811115612ce657fe5b148015612cf95750601b54601954014210155b15612d2a57612d2a604051806040016040528060208152602001600080516020614be0833981519152815250614279565b60335460049060ff166005811115612d3e57fe5b816005811115612d4a57fe5b14612d895760405160e560020a62461bcd028152600401808060200182810382526024815260200180614bbc6024913960400191505060405180910390fd5b336000908152601460209081526040808320838052909152808220546001835291205481158015612db8575080155b15612e075733600160a060020a0316600080516020614c25833981519152604051808060200182810382526025815260200180614c456025913960400191505060405180910390a2505061303f565b336000908152601460209081526040808320838052909152902054601e543031031080612ed8575033600090815260146020908152604080832060018085529083529281902054925481517f70a082310000000000000000000000000000000000000000000000000000000081523060048201529151600160a060020a03909116926370a082319260248082019391829003018186803b158015612eaa57600080fd5b505afa158015612ebe573d6000803e3d6000fd5b505050506040513d6020811015612ed457600080fd5b5051105b15612f275733600160a060020a0316600080516020614c25833981519152604051808060200182810382526045815260200180614cc06045913960600191505060405180910390a2505061303f565b33600081815260146020908152604080832083805290915280822082905560018252808220829055516108fc85150291859190818181858888f19350505050158015612f77573d6000803e3d6000fd5b508015613002576001546040805160e060020a63a9059cbb028152336004820152602481018490529051600160a060020a039092169163a9059cbb916044808201926020929091908290030181600087803b158015612fd557600080fd5b505af1158015612fe9573d6000803e3d6000fd5b505050506040513d6020811015612fff57600080fd5b50505b6040805183815260208101839052815133927fe74e5c9d4ac1fc33412485f18c159a0a391efe287ab3fd271123f30e6bacf4e3928290030190a250505b50565b600060335460ff16600581111561305557fe5b14801561306457506016544210155b156130715761307161419f565b600160335460ff16600581111561308457fe5b14801561309357506017544210155b156130d257602d5460125410156130ca576130c5604051806060016040528060338152602001614d2b60339139614279565b6130d2565b6130d261419f565b600360335460ff1660058111156130e557fe5b1480156130f457506023544210155b156131015761310161419f565b600260335460ff16600581111561311457fe5b1480156131275750601b54601954014210155b1561315857613158604051806040016040528060208152602001600080516020614be0833981519152815250614279565b60335460049060ff16600581111561316c57fe5b81600581111561317857fe5b146131b75760405160e560020a62461bcd028152600401808060200182810382526024815260200180614bbc6024913960400191505060405180910390fd5b6131c0336145e0565b1515613216576040805160e560020a62461bcd02815260206004820152600b60248201527f4e6f742061206e6f64652e000000000000000000000000000000000000000000604482015290519081900360640190fd5b336000908152601f602052604090205460ff161561327e576040805160e560020a62461bcd02815260206004820152601060248201527f416c726561647920636c61696d65642e00000000000000000000000000000000604482015290519081900360640190fd5b6000613288610eaf565b1561329c576132956146a0565b9050613316565b6132a46146cb565b156132c657600760020154600101601d548115156132be57fe5b049050613316565b6040805160e560020a62461bcd02815260206004820152601060248201527f4e6f7468696e6720746f20636c61696d00000000000000000000000000000000604482015290519081900360640190fd5b601e54811115613370576040805160e560020a62461bcd02815260206004820152601e60248201527f536f6d657468696e672077656e7420686f727269626c792077726f6e672e0000604482015290519081900360640190fd5b604051339082156108fc029083906000818181858888f1935050505015801561339d573d6000803e3d6000fd5b50601e80548290039055336000818152601f6020908152604091829020805460ff191660011790558151928352820183905280517f9bba21557d0250e19101c5df524f23380fd45fc8cd7ec3a22b8431abcc1525c29281900390910190a15050565b600060335460ff16600581111561341257fe5b14801561342157506016544210155b1561342e5761342e61419f565b600160335460ff16600581111561344157fe5b14801561345057506017544210155b1561348f57602d54601254101561348757613482604051806060016040528060338152602001614d2b60339139614279565b61348f565b61348f61419f565b600360335460ff1660058111156134a257fe5b1480156134b157506023544210155b156134be576134be61419f565b600260335460ff1660058111156134d157fe5b1480156134e45750601b54601954014210155b15610e9257610e92604051806040016040528060208152602001600080516020614be0833981519152815250614279565b61351d614aa6565b506040805160a081018252602080548252602154908201526024549181019190915260225460608201526023546080820152602654600160a060020a03169091565b6060600580548060200260200160405190810160405280929190818152602001828054801561184d5760200282019190600052602060002090815481526020019060010190808311611839575050505050905090565b600780546008805460408051602060026101006001861615026000190190941693909304601f8101849004840282018401909252818152600160a060020a039094169493929183018282801561364c5780601f106136215761010080835404028352916020019161364c565b820191906000526020600020905b81548152906001019060200180831161362f57829003601f168201915b5050505050908060020154908060030154905084565b600054600160a060020a0316331461367957600080fd5b600060335460ff16600581111561368c57fe5b14801561369b57506016544210155b156136a8576136a861419f565b600160335460ff1660058111156136bb57fe5b1480156136ca57506017544210155b1561370957602d546012541015613701576136fc604051806060016040528060338152602001614d2b60339139614279565b613709565b61370961419f565b600360335460ff16600581111561371c57fe5b14801561372b57506023544210155b156137385761373861419f565b600260335460ff16600581111561374b57fe5b14801561375e5750601b54601954014210155b1561378f5761378f604051806040016040528060208152602001600080516020614be0833981519152815250614279565b600460335460ff1660058111156137a257fe5b14806137be5750600560335460ff1660058111156137bc57fe5b145b15156137c957600080fd5b601b54601954016224ea00014210156137e157600080fd5b60008054604051600160a060020a0390911691303180156108fc02929091818181858888f1935050505015801561381c573d6000803e3d6000fd5b506000601e819055600154604080517f70a082310000000000000000000000000000000000000000000000000000000081523060048201529051600160a060020a03909216916370a0823191602480820192602092909190829003018186803b15801561388857600080fd5b505afa15801561389c573d6000803e3d6000fd5b505050506040513d60208110156138b257600080fd5b5051600154600080546040805160e060020a63a9059cbb028152600160a060020a03928316600482015260248101869052905194955092169263a9059cbb926044808201936020939283900390910190829087803b15801561391357600080fd5b505af1158015613927573d6000803e3d6000fd5b505050506040513d602081101561292057600080fd5b601b5481565b600160a060020a03811660009081526011602052604090205460ff165b919050565b600060335460ff16600581111561397857fe5b14801561398757506016544210155b156139945761399461419f565b600160335460ff1660058111156139a757fe5b1480156139b657506017544210155b156139f557602d5460125410156139ed576139e8604051806060016040528060338152602001614d2b60339139614279565b6139f5565b6139f561419f565b600360335460ff166005811115613a0857fe5b148015613a1757506023544210155b15613a2457613a2461419f565b600260335460ff166005811115613a3757fe5b148015613a4a5750601b54601954014210155b15613a7b57613a7b604051806040016040528060208152602001600080516020614be0833981519152815250614279565b60055415801590613b5f575060048054604080517f35fe903400000000000000000000000000000000000000000000000000000000815233938101848152602482019283526005805460448401819052600160a060020a03909516956335fe903495909491936064019084908015613b1257602002820191906000526020600020905b815481526020019060010190808311613afe575b5050935050505060206040518083038186803b158015613b3157600080fd5b505afa158015613b45573d6000803e3d6000fd5b505050506040513d6020811015613b5b57600080fd5b5051155b15613bba576040805160208082526012908201527f5065726d697373696f6e2064656e6965642e00000000000000000000000000008183015290513391600080516020614c25833981519152919081900360600190a2610e92565b60315460125410613c1b57604080516020808252600e908201527f4576656e742069732066756c6c2e0000000000000000000000000000000000008183015290513391600080516020614c25833981519152919081900360600190a2610e92565b613c2433613943565b15613c7f57604080516020808252601e908201527f596f752061726520616c72656164792070617274696369706174696e672e00008183015290513391600080516020614c25833981519152919081900360600190a2610e92565b600160335460ff166005811115613c9257fe5b14613cdf5733600160a060020a0316600080516020614c25833981519152604051808060200182810382526030815260200180614c906030913960400191505060405180910390a2610e92565b6000601c54118015613d875750601c54600154604080517fdd62ed3e0000000000000000000000000000000000000000000000000000000081523360048201523060248201529051600160a060020a039092169163dd62ed3e91604480820192602092909190829003018186803b158015613d5957600080fd5b505afa158015613d6d573d6000803e3d6000fd5b505050506040513d6020811015613d8357600080fd5b5051105b15613de2576040805160208082526019908201527f4e6f7420656e6f75676820746f6b656e73207374616b65642e000000000000008183015290513391600080516020614c25833981519152919081900360600190a2610e92565b601c5415613e8d57600154601c54604080517f23b872dd000000000000000000000000000000000000000000000000000000008152336004820152306024820152604481019290925251600160a060020a03909216916323b872dd916064808201926020929091908290030181600087803b158015613e6057600080fd5b505af1158015613e74573d6000803e3d6000fd5b505050506040513d6020811015613e8a57600080fd5b50505b33600081815260116020526040808220805460ff1916600190811790915560128054918201815583527fbb8a6a4669ba250d26cd7a459eca9d215f8307e33aebe50379bc5a3617ec344401805473ffffffffffffffffffffffffffffffffffffffff19168417905560025481517fb9d3514d00000000000000000000000000000000000000000000000000000000815260048101949094529051600160a060020a03919091169263b9d3514d92602480830193919282900301818387803b158015613f5757600080fd5b505af1158015613f6b573d6000803e3d6000fd5b50506040805133815290517f0940fd5e528ae9fa6c086f42387c791c3854e0febdf0717c2da155c9dbf1e86c9350908190036020019150a1565b600054600160a060020a03163314613fbc57600080fd5b6018544210614015576040805160e560020a62461bcd02815260206004820152601660248201527f4576656e7420616c726561647920737461727465642e00000000000000000000604482015290519081900360640190fd5b6033805461ff0019166101001790554260195560408051808201909152601a81527f4576656e742063616e63656c65642062792063726561746f722e000000000000602082015261406590614279565b601c5415610e925760005b60125481101561303f5760015460128054600160a060020a039092169163a9059cbb91908490811061409e57fe5b6000918252602080832090910154601c54604080517c010000000000000000000000000000000000000000000000000000000063ffffffff8816028152600160a060020a03909316600484015260248301919091525160448083019491928390030190829087803b15801561411257600080fd5b505af1158015614126573d6000803e3d6000fd5b505050506040513d602081101561413c57600080fd5b5050600101614070565b61414e6149ec565b60408051808201918290526029805482529091600290602a60208501808311611839575050505050905090565b3660008037600080366000845af43d6000803e80801561419a573d6000f35b3d6000fd5b600460335460ff1660058111156141b257fe5b106141f15760405160e560020a62461bcd028152600401808060200182810382526026815260200180614c6a6026913960400191505060405180910390fd5b60335460ff16600581111561420257fe5b600101600581111561421057fe5b6033805460ff1916600183600581111561422657fe5b02179055506033546040517fb9eb8a309bf89f3159b39681f485b6430fec1035b2b457edbcdadcdece888c0b9160ff16908082600581111561426457fe5b60ff16815260200191505060405180910390a1565b600460335460ff16600581111561428c57fe5b106142cb5760405160e560020a62461bcd028152600401808060200182810382526026815260200180614c6a6026913960400191505060405180910390fd5b6033805460ff1916600517905560408051602080825283518183015283517f860b7e55e58bd6095b36c4b4016ed8a2e47cb8ebd020fa0e43b32649deb540c3938593928392918301919085019080838360005b8381101561433657818101518382015260200161431e565b50505050905090810190601f1680156143635780820380516001836020036101000a031916815260200191505b509250505060405180910390a16033546040517fb9eb8a309bf89f3159b39681f485b6430fec1035b2b457edbcdadcdece888c0b9160ff1690808260058111156143a957fe5b60ff16815260200191505060405180910390a150565b60006009819055600a8190555b600b5481101561447357600b8054600e9190839081106143e857fe5b90600052602060002001604051808280546001816001161561010002031660029004801561444d5780601f1061442b57610100808354040283529182019161444d565b820191906000526020600020905b815481529060010190602001808311614439575b5050928352505060405190819003602001902061446b906000614afe565b6001016143cc565b50614480600b6000614b1c565b61448c600c6000614afe565b6006805460ff1916905560005b60035481101561303f576000600760060160006003848154811015156144bb57fe5b6000918252602080832090910154600160a060020a03168352820192909252604001902055600101614499565b60005b60155481101561458b5760006014600060158481548110151561450a57fe5b600091825260208083209190910154600160a060020a0316835282810193909352604091820181208180529092528120919091556015805460149183918590811061455157fe5b600091825260208083209190910154600160a060020a031683528281019390935260409182018120600180835293522091909155016144eb565b50610e9260156000614afe565b602f80546103e86064828103810282900490920192839055602d8054808402929092049182019055602e80549382029290920492830190915560318054929091019091019055565b6000805b6003548110156146345782600160a060020a031660038281548110151561460757fe5b600091825260209091200154600160a060020a0316141561462c576001915050613960565b6001016145e4565b50600092915050565b602f5460640361464b61473e565b10610e9257610e9261475a565b602f5461466361484b565b10610e92576006805460ff19166002179055602c541561469257602154420160235561468d61419f565b610e92565b42602355610e926004614861565b6000600160076002015403600760020154600101601d548115156146c057fe5b0402601d5403905090565b601054336000908152600d60205260408120549091146146ed57506000610ebe565b60005b600c5481101561473657600c80548290811061470857fe5b600091825260209091200154600160a060020a031633141561472e576000915050610ebe565b6001016146f0565b506001905090565b600354600a546000919060640281151561475457fe5b04905090565b60016007600801600760010160405180828054600181600116156101000203166002900480156147c15780601f1061479f5761010080835404028352918201916147c1565b820191906000526020600020905b8154815290600101906020018083116147ad575b50509283525050604051602091819003919091019020805460ff1916911515919091179055600b54600a546010546009549290910360010191016000190111156148435761468d6040518060400160405280601a81526020017f436f6e73656e7375732063616e27742062652072656163686564000000000000815250614279565b610e926148b8565b6003546009546000919060640281151561475457fe5b6033805482919060ff1916600183600581111561487a57fe5b02179055506033546040517fb9eb8a309bf89f3159b39681f485b6430fec1035b2b457edbcdadcdece888c0b9160ff1690808260058111156143a957fe5b601080546001019055600b8054600e919060009081106148d457fe5b9060005260206000200160405180828054600181600116156101000203166002900480156149395780601f10614917576101008083540402835291820191614939565b820191906000526020600020905b815481529060010190602001808311614925575b505092835250506040519081900360200190208054600090811061495957fe5b6000918252602090912001546007805473ffffffffffffffffffffffffffffffffffffffff1916600160a060020a039092169190911790556149996143bf565b6149a16144e8565b60105460075460408051928352600160a060020a03909116602083015280517f372d3c1251f28673c4ee2eaf015d5e07bf3145e2df993fd41cae9707f389eaa89281900390910190a1565b60405180604001604052806002906020820280388339509192915050565b828054600181600116156101000203166002900490600052602060002090601f016020900481019282601f10614a4b57805160ff1916838001178555614a78565b82800160010185558215614a78579182015b82811115614a78578251825591602001919060010190614a5d565b50614a84929150614b3a565b5090565b6040518060c001604052806006906020820280388339509192915050565b6040518060a001604052806005906020820280388339509192915050565b828054828255906000526020600020908101928215614a785791602002820182811115614a78578251825591602001919060010190614a5d565b508054600082559060005260206000209081019061303f9190614b3a565b508054600082559060005260206000209081019061303f9190614b54565b610ebe91905b80821115614a845760008155600101614b40565b610ebe91905b80821115614a84576000614b6e8282614b77565b50600101614b5a565b50805460018160011615610100020316600290046000825580601f10614b9d575061303f565b601f01602090049060005260206000209081019061303f9190614b3a56fe4e6f7420706f737369626c6520696e2063757272656e74206576656e742073746174652e4576656e7420746f6f6b20746f6f206c6f6e6720746f20636f6d706c6574652e4e6f7420656e6f75676820746f6b656e73207374616b656420666f7220646973707574652ecfa5f641c29090a64bc13dcafdc8c23d82677807046c35d636ca9c57fc9cb257596f7520646f206e6f74206861766520616e79207265776172647320746f20636c61696d2e4576656e742073746174652063616e2774206265206d6f64696669656420616e796d6f72652e596f752063616e206e6f74206a6f696e20746865206576656e7420696e206974732063757272656e742073746174652e437269746963616c206572726f723a206e6f7420656e6f7567682062616c616e636520746f20706179206f7574207265776172642e20436f6e74616374205665726974792e4e6f7420706f737369626c6520696e20746869732076616c69646174696f6e2073746174652e4e6f7420656e6f756768207573657273206a6f696e656420666f72207265717569726564206d696e696d756d20766f7465732ea165627a7a72305820da90b5a0e41ce371d83041ab21e316cb6a3521fc2950b87a443dc649e04ca2510029",
  "source": "pragma solidity ^0.5.5;\n\n\nimport \"./verity_event/Implementation.sol\";\nimport \"./utility/Proxy.sol\";\n\n\ncontract VerityEvent is Implementation, Proxy {\n}\n",
  "sourcePath": "/Users/hiphop/code/verity-event/contracts/VerityEvent.sol",
  "compiler": {
    "name": "solc",
    "version": "0.5.5+commit.47a71e8f.Emscripten.clang"
  },
  "schemaVersion": "3.0.1",
  "updatedAt": "2019-03-27T12:12:36.942Z",
  "devdoc": {
    "methods": {
      "isParticipating(address)": {
        "params": {
          "_user": "The addres to check for participation"
        },
        "return": "{bool} Whether the given address is a participant of this event"
      },
      "setRewards(address[],uint256[],uint256[])": {
        "params": {
          "_addresses": "A list of addresses",
          "_etherRewards": "A list of ether rewards, must be the exact same length as addresses",
          "_tokenRewards": "A list of token rewards, must be the exact same length as addresses"
        }
      }
    }
  },
  "userdoc": {
    "methods": {
      "approveRewards(uint256)": {
        "notice": "Called by event resolver nodes if they agree with rewards"
      },
      "claimReward()": {
        "notice": "Claim a reward. Needs to be called by the users themselves. Only available in the Reward state, after rewards have been received from the validation nodes."
      },
      "getConsensusRules()": {
        "notice": "Returns an array of consensus rules. [minTotalVotes, minConsensusVotes, minConsensusRatio, minParticipantRatio, maxParticipants]"
      },
      "getDisputeData()": {
        "notice": "Returns an array of dispute rules. [dispute amount, dispute timeout, dispute round]"
      },
      "getEventResolvers()": {
        "notice": "Returns the whole array of event resolvers."
      },
      "getReward()": {
        "notice": "Returns the calling user's assigned rewards. Can be 0. Only available to participating users in the Reward state, since rewards are not assigned before that."
      },
      "getRewards(address[])": {
        "notice": "Returns rewards for specified addresses. [[ethRewards, tokenRewards], [ethRewards, tokenRewards], ...]"
      },
      "getRewardsIndex()": {
        "notice": "Returns all the addresses that have rewards set."
      },
      "isMasterNode()": {
        "notice": "Checks if the address is current master node."
      },
      "isParticipating(address)": {
        "notice": "Checks whether an address is participating in this event."
      },
      "joinEvent()": {
        "notice": "Apply for participation in this event. Available only during the Application state. A transaction to this function has to be done by the users themselves, registering their wallet address as a participent. The transaction does not have to include any funds."
      },
      "markRewardsSet(string)": {
        "notice": "Triggered by the master node once rewards are set and ready to validate"
      },
      "rejectRewards(uint256,string)": {
        "notice": "Called by event resolvers if they don't agree with rewards"
      },
      "setRewards(address[],uint256[],uint256[])": {
        "notice": "Assign the actual rewards. Receives a list of addresses and a list rewards. Mapping between the two is done by the addresses' and reward's numerical index in the list, so order is important."
      },
      "triggerDispute()": {
        "notice": "Trigger a dispute."
      }
    }
  }
}