{
  "contractName": "VerityEventProxy",
  "abi": [
    {
      "constant": true,
      "inputs": [],
      "name": "rewardsValidationRound",
      "outputs": [
        {
          "name": "",
          "type": "uint256"
        }
      ],
      "payable": false,
      "stateMutability": "view",
      "type": "function"
    },
    {
      "constant": true,
      "inputs": [],
      "name": "eventRegistryAddress",
      "outputs": [
        {
          "name": "",
          "type": "address"
        }
      ],
      "payable": false,
      "stateMutability": "view",
      "type": "function"
    },
    {
      "constant": true,
      "inputs": [],
      "name": "dataFeedHash",
      "outputs": [
        {
          "name": "",
          "type": "string"
        }
      ],
      "payable": false,
      "stateMutability": "view",
      "type": "function"
    },
    {
      "constant": true,
      "inputs": [],
      "name": "implementation",
      "outputs": [
        {
          "name": "",
          "type": "address"
        }
      ],
      "payable": false,
      "stateMutability": "view",
      "type": "function"
    },
    {
      "constant": true,
      "inputs": [],
      "name": "stakingAmount",
      "outputs": [
        {
          "name": "",
          "type": "uint256"
        }
      ],
      "payable": false,
      "stateMutability": "view",
      "type": "function"
    },
    {
      "constant": true,
      "inputs": [],
      "name": "eventName",
      "outputs": [
        {
          "name": "",
          "type": "string"
        }
      ],
      "payable": false,
      "stateMutability": "view",
      "type": "function"
    },
    {
      "constant": true,
      "inputs": [],
      "name": "owner",
      "outputs": [
        {
          "name": "",
          "type": "address"
        }
      ],
      "payable": false,
      "stateMutability": "view",
      "type": "function"
    },
    {
      "constant": true,
      "inputs": [],
      "name": "tokenAddress",
      "outputs": [
        {
          "name": "",
          "type": "address"
        }
      ],
      "payable": false,
      "stateMutability": "view",
      "type": "function"
    },
    {
      "inputs": [
        {
          "name": "_eventName",
          "type": "string"
        },
        {
          "name": "_applicationStartTime",
          "type": "uint256"
        },
        {
          "name": "_applicationEndTime",
          "type": "uint256"
        },
        {
          "name": "_eventStartTime",
          "type": "uint256"
        },
        {
          "name": "_eventRunTime",
          "type": "uint256"
        },
        {
          "name": "_cAddresses",
          "type": "address[4]"
        },
        {
          "name": "_eventResolvers",
          "type": "address[]"
        },
        {
          "name": "_leftoversRecoverableAfter",
          "type": "uint256"
        },
        {
          "name": "_consensusRules",
          "type": "uint256[6]"
        },
        {
          "name": "_stakingAmount",
          "type": "uint256"
        },
        {
          "name": "_disputeRules",
          "type": "uint256[4]"
        },
        {
          "name": "_ipfsEventHash",
          "type": "string"
        },
        {
          "name": "_requiredUserRoles",
          "type": "uint256[]"
        },
        {
          "name": "_eventCategory",
          "type": "bytes32[2]"
        }
      ],
      "payable": true,
      "stateMutability": "payable",
      "type": "constructor"
    },
    {
      "payable": true,
      "stateMutability": "payable",
      "type": "fallback"
    }
  ],
  "bytecode": "0x608060408190526006805460ff19908116909155602f80549091169055610a4538819003908190833981018060405261034081101561003d57600080fd5b81019080805164010000000081111561005557600080fd5b8201602081018481111561006857600080fd5b815164010000000081118282018710171561008257600080fd5b50506020820151604083015160608401516080850151610120860180519598949793969295919460a090930193916401000000008111156100c257600080fd5b820160208101848111156100d557600080fd5b81518560208202830111640100000000821117156100f257600080fd5b505060208201516101008301516101a0840180519396929560408601959294610120909301939290919064010000000081111561012e57600080fd5b8201602081018481111561014157600080fd5b815164010000000081118282018710171561015b57600080fd5b5050929190602001805164010000000081111561017757600080fd5b8201602081018481111561018a57600080fd5b81518560208202830111640100000000821117156101a757600080fd5b509093505060200190508b8d106101bd57600080fd5b8b8b1161025157604080517f08c379a000000000000000000000000000000000000000000000000000000000815260206004820152602c60248201527f4576656e742063616e2774207374617274206265666f7265206170706c69636160448201527f74696f6e7320636c6f73652e0000000000000000000000000000000000000000606482015290519081900360840190fd5b8c6015819055508b6016819055508d602490805190602001906102759291906104dc565b50610283602582600261055a565b5060178b9055898b0160185587516102a29060039060208b0190610587565b5060008054600160a060020a03191633178155601a8890556001600f556003805490919081106102ce57fe5b6000918252602091829020015460078054600160a060020a031916600160a060020a03909216919091179055601b869055835161031191601991908601906104dc565b506103248664010000000061044d810204565b6103368464010000000061049f810204565b885160018054600160a060020a03928316600160a060020a0319918216179091556020808c01516002805491851691841691909117905560408c015160048054918516919093161790915560608b0151602f8054919093166101000261010060a860020a03199091161790915582516103b591600591908501906105e8565b50600260009054906101000a9004600160a060020a0316600160a060020a031663c4130ae06040518163ffffffff167c0100000000000000000000000000000000000000000000000000000000028152600401600060405180830381600087803b15801561042257600080fd5b505af1158015610436573d6000803e3d6000fd5b505050505050505050505050505050505050610663565b80516029556020810151602a556040810151602b556060810151602c556080810151602d5560a0810151600181111561048257fe5b602e805460ff19166001838181111561049757fe5b021790555050565b60408101516060820151600182116104b657600191505b8015156104c257506154605b8251601c55602092830151601d5591556000601e55602355565b828054600181600116156101000203166002900490600052602060002090601f016020900481019282601f1061051d57805160ff191683800117855561054a565b8280016001018555821561054a579182015b8281111561054a57825182559160200191906001019061052f565b50610556929150610622565b5090565b826002810192821561054a579160200282018281111561054a57825182559160200191906001019061052f565b8280548282559060005260206000209081019282156105dc579160200282015b828111156105dc5782518254600160a060020a031916600160a060020a039091161782556020909201916001909101906105a7565b5061055692915061063f565b82805482825590600052602060002090810192821561054a579160200282018281111561054a57825182559160200191906001019061052f565b61063c91905b808211156105565760008155600101610628565b90565b61063c91905b80821115610556578054600160a060020a0319168155600101610645565b6103d3806106726000396000f3fe608060405260043610610086577c01000000000000000000000000000000000000000000000000000000006000350462f161428114610090578063073f03fb146100b75780634227357c146100f55780635c60da1b1461017f578063739a3e02146101945780638043c9c0146101a95780638da5cb5b146101be5780639d76ea58146101d3575b61008e6101e8565b005b34801561009c57600080fd5b506100a5610219565b60408051918252519081900360200190f35b3480156100c357600080fd5b506100cc61021f565b6040805173ffffffffffffffffffffffffffffffffffffffff9092168252519081900360200190f35b34801561010157600080fd5b5061010a61023b565b6040805160208082528351818301528351919283929083019185019080838360005b8381101561014457818101518382015260200161012c565b50505050905090810190601f1680156101715780820380516001836020036101000a031916815260200191505b509250505060405180910390f35b34801561018b57600080fd5b506100cc6102c9565b3480156101a057600080fd5b506100a56102ea565b3480156101b557600080fd5b5061010a6102f0565b3480156101ca57600080fd5b506100cc61034b565b3480156101df57600080fd5b506100cc610367565b6101f0610217565b602f5461021790610100900473ffffffffffffffffffffffffffffffffffffffff16610383565b565b600f5481565b60025473ffffffffffffffffffffffffffffffffffffffff1681565b6027805460408051602060026001851615610100026000190190941693909304601f810184900484028201840190925281815292918301828280156102c15780601f10610296576101008083540402835291602001916102c1565b820191906000526020600020905b8154815290600101906020018083116102a457829003601f168201915b505050505081565b602f54610100900473ffffffffffffffffffffffffffffffffffffffff1681565b601b5481565b6024805460408051602060026001851615610100026000190190941693909304601f810184900484028201840190925281815292918301828280156102c15780601f10610296576101008083540402835291602001916102c1565b60005473ffffffffffffffffffffffffffffffffffffffff1681565b60015473ffffffffffffffffffffffffffffffffffffffff1681565b3660008037600080366000845af43d6000803e8080156103a2573d6000f35b3d6000fdfea165627a7a72305820da83502dfc1560da0ea7ea2ce9b45629379779578a48fce84925530b23312fdf0029",
  "source": "pragma solidity ^0.5.0;\n\nimport \"./VerityToken.sol\";\nimport \"./verity_event/Store.sol\";\nimport \"./upgradeability/Proxy.sol\";\n\n\ninterface UserRolesI {\n    function hasAnyRole(address _user, uint[] calldata _roles) external view returns (bool);\n}\n\ncontract VerityEventProxy is Store, Proxy {\n\n    constructor(\n        string memory _eventName,\n        uint _applicationStartTime,\n        uint _applicationEndTime,\n        uint _eventStartTime,\n        uint _eventRunTime, // in seconds\n        address[4] memory _cAddresses, // [tokenAddress, eventRegistry, userRoles, implementation]\n        address[] memory _eventResolvers,\n        uint _leftoversRecoverableAfter, // with timestamp (in seconds)\n        uint[6] memory _consensusRules, // [minTotalVotes, minConsensusVotes, minConsensusRatio, minParticipantRatio, maxParticipants, distribution]\n        uint _stakingAmount,\n        uint[4] memory _disputeRules, // [dispute amount, dispute timeout, dispute multiplier, default extension in seconds]\n        string memory _ipfsEventHash,\n        uint[] memory _requiredUserRoles,\n        bytes32[2] memory _eventCategory\n    )\n        public\n        payable\n    {\n        require(_applicationStartTime < _applicationEndTime);\n        require(_eventStartTime > _applicationEndTime, \"Event can't start before applications close.\");\n\n        applicationStartTime = _applicationStartTime;\n        applicationEndTime = _applicationEndTime;\n\n        eventName = _eventName;\n        eventCategory = _eventCategory;\n        eventStartTime = _eventStartTime;\n        eventEndTime = _eventStartTime + _eventRunTime;\n\n        eventResolvers = _eventResolvers;\n\n        owner = msg.sender;\n        leftoversRecoverableAfter = _leftoversRecoverableAfter;\n\n        rewardsValidationRound = 1;\n        rewardsValidation.currentMasterNode = eventResolvers[0];\n\n        stakingAmount = _stakingAmount;\n\n        ipfsEventHash = _ipfsEventHash;\n\n        setConsensusRules(_consensusRules);\n        setDisputeData(_disputeRules);\n\n        tokenAddress = _cAddresses[0];\n        eventRegistryAddress = _cAddresses[1];\n        permissionRegistry = _cAddresses[2];\n        implementation = _cAddresses[3];\n\n        requiredUserRoles = _requiredUserRoles;\n\n\n        EventRegistryI(eventRegistryAddress).registerEvent();\n    }\n\n    /// Sets consensus rules. For internal use only.\n    function setConsensusRules(uint[6] memory rules) private {\n        consensusRules.minTotalVotes = rules[0];\n        consensusRules.minConsensusVotes = rules[1];\n        consensusRules.minConsensusRatio = rules[2];\n        consensusRules.minParticipantRatio = rules[3];\n        consensusRules.maxParticipants = rules[4];\n        consensusRules.rewardsDistribution = RewardsDistribution(rules[5]);\n    }\n\n    function setDisputeData(uint[4] memory rules) private {\n        uint _multiplier = rules[2];\n        uint _extension = rules[3];\n        if (_multiplier <= 1) {\n            _multiplier = 1;\n        }\n\n        if (_extension == 0) {\n            _extension = 21600; // 6h in seconds\n        }\n\n        dispute.amount = rules[0];\n        dispute.timeout = rules[1];\n        dispute.multiplier = _multiplier;\n        dispute.round = 0;\n        disputeTimeExtension = _extension;\n    }\n}\n",
  "sourcePath": "/Users/dejan/dev/verity-event/contracts/VerityEventProxy.sol",
  "compiler": {
    "name": "solc",
    "version": "0.5.1+commit.c8a2cb62.Emscripten.clang"
  },
  "schemaVersion": "3.0.0",
  "updatedAt": "2018-12-20T07:23:24.332Z",
  "devdoc": {
    "methods": {}
  },
  "userdoc": {
    "methods": {}
  }
}