{
  "contractName": "VerityEvent",
  "abi": [
    {
      "constant": true,
      "inputs": [],
      "name": "rewardsValidationRound",
      "outputs": [
        {
          "name": "",
          "type": "uint256"
        }
      ],
      "payable": false,
      "stateMutability": "view",
      "type": "function"
    },
    {
      "constant": true,
      "inputs": [],
      "name": "dataFeedHash",
      "outputs": [
        {
          "name": "",
          "type": "string"
        }
      ],
      "payable": false,
      "stateMutability": "view",
      "type": "function"
    },
    {
      "constant": true,
      "inputs": [],
      "name": "eventName",
      "outputs": [
        {
          "name": "",
          "type": "string"
        }
      ],
      "payable": false,
      "stateMutability": "view",
      "type": "function"
    },
    {
      "constant": true,
      "inputs": [],
      "name": "owner",
      "outputs": [
        {
          "name": "",
          "type": "address"
        }
      ],
      "payable": false,
      "stateMutability": "view",
      "type": "function"
    },
    {
      "constant": true,
      "inputs": [],
      "name": "tokenAddress",
      "outputs": [
        {
          "name": "",
          "type": "address"
        }
      ],
      "payable": false,
      "stateMutability": "view",
      "type": "function"
    },
    {
      "inputs": [
        {
          "name": "_eventName",
          "type": "string"
        },
        {
          "name": "_applicationStartTime",
          "type": "uint256"
        },
        {
          "name": "_applicationEndTime",
          "type": "uint256"
        },
        {
          "name": "_eventStartTime",
          "type": "uint256"
        },
        {
          "name": "_eventRunTime",
          "type": "uint256"
        },
        {
          "name": "_tokenAddress",
          "type": "address"
        },
        {
          "name": "_registry",
          "type": "address"
        },
        {
          "name": "_eventResolvers",
          "type": "address[]"
        },
        {
          "name": "_leftoversRecoverableAfter",
          "type": "uint256"
        },
        {
          "name": "_consensusRules",
          "type": "uint256[6]"
        },
        {
          "name": "_stakingAmount",
          "type": "uint256"
        }
      ],
      "payable": true,
      "stateMutability": "payable",
      "type": "constructor"
    },
    {
      "payable": true,
      "stateMutability": "payable",
      "type": "fallback"
    },
    {
      "anonymous": false,
      "inputs": [
        {
          "indexed": false,
          "name": "newState",
          "type": "uint8"
        }
      ],
      "name": "StateTransition",
      "type": "event"
    },
    {
      "anonymous": false,
      "inputs": [
        {
          "indexed": false,
          "name": "wallet",
          "type": "address"
        }
      ],
      "name": "JoinEvent",
      "type": "event"
    },
    {
      "anonymous": false,
      "inputs": [
        {
          "indexed": false,
          "name": "recipient",
          "type": "address"
        }
      ],
      "name": "ClaimReward",
      "type": "event"
    },
    {
      "anonymous": false,
      "inputs": [
        {
          "indexed": false,
          "name": "description",
          "type": "string"
        }
      ],
      "name": "Error",
      "type": "event"
    },
    {
      "anonymous": false,
      "inputs": [
        {
          "indexed": false,
          "name": "description",
          "type": "string"
        }
      ],
      "name": "EventFailed",
      "type": "event"
    },
    {
      "anonymous": false,
      "inputs": [
        {
          "indexed": false,
          "name": "validationRound",
          "type": "uint256"
        }
      ],
      "name": "ValidationStarted",
      "type": "event"
    },
    {
      "anonymous": false,
      "inputs": [
        {
          "indexed": false,
          "name": "validationRound",
          "type": "uint256"
        }
      ],
      "name": "ValidationRestart",
      "type": "event"
    },
    {
      "constant": false,
      "inputs": [],
      "name": "joinEvent",
      "outputs": [],
      "payable": false,
      "stateMutability": "nonpayable",
      "type": "function"
    },
    {
      "constant": true,
      "inputs": [
        {
          "name": "_user",
          "type": "address"
        }
      ],
      "name": "isParticipating",
      "outputs": [
        {
          "name": "",
          "type": "bool"
        }
      ],
      "payable": false,
      "stateMutability": "view",
      "type": "function"
    },
    {
      "constant": true,
      "inputs": [],
      "name": "getParticipants",
      "outputs": [
        {
          "name": "",
          "type": "address[]"
        }
      ],
      "payable": false,
      "stateMutability": "view",
      "type": "function"
    },
    {
      "constant": true,
      "inputs": [],
      "name": "getEventTimes",
      "outputs": [
        {
          "name": "",
          "type": "uint256[5]"
        }
      ],
      "payable": false,
      "stateMutability": "view",
      "type": "function"
    },
    {
      "constant": false,
      "inputs": [
        {
          "name": "_addresses",
          "type": "address[]"
        },
        {
          "name": "_etherRewards",
          "type": "uint256[]"
        },
        {
          "name": "_tokenRewards",
          "type": "uint256[]"
        }
      ],
      "name": "setRewards",
      "outputs": [],
      "payable": false,
      "stateMutability": "nonpayable",
      "type": "function"
    },
    {
      "constant": false,
      "inputs": [
        {
          "name": "rewardsHash",
          "type": "string"
        }
      ],
      "name": "markRewardsSet",
      "outputs": [],
      "payable": false,
      "stateMutability": "nonpayable",
      "type": "function"
    },
    {
      "constant": false,
      "inputs": [
        {
          "name": "validationRound",
          "type": "uint256"
        }
      ],
      "name": "approveRewards",
      "outputs": [],
      "payable": false,
      "stateMutability": "nonpayable",
      "type": "function"
    },
    {
      "constant": false,
      "inputs": [
        {
          "name": "validationRound",
          "type": "uint256"
        },
        {
          "name": "altHash",
          "type": "string"
        }
      ],
      "name": "rejectRewards",
      "outputs": [],
      "payable": false,
      "stateMutability": "nonpayable",
      "type": "function"
    },
    {
      "constant": true,
      "inputs": [],
      "name": "getEventResolvers",
      "outputs": [
        {
          "name": "",
          "type": "address[]"
        }
      ],
      "payable": false,
      "stateMutability": "view",
      "type": "function"
    },
    {
      "constant": true,
      "inputs": [],
      "name": "isMasterNode",
      "outputs": [
        {
          "name": "",
          "type": "bool"
        }
      ],
      "payable": false,
      "stateMutability": "view",
      "type": "function"
    },
    {
      "constant": true,
      "inputs": [],
      "name": "getReward",
      "outputs": [
        {
          "name": "",
          "type": "uint256[2]"
        }
      ],
      "payable": false,
      "stateMutability": "view",
      "type": "function"
    },
    {
      "constant": true,
      "inputs": [],
      "name": "getRewardsIndex",
      "outputs": [
        {
          "name": "",
          "type": "address[]"
        }
      ],
      "payable": false,
      "stateMutability": "view",
      "type": "function"
    },
    {
      "constant": true,
      "inputs": [
        {
          "name": "_addresses",
          "type": "address[]"
        }
      ],
      "name": "getRewards",
      "outputs": [
        {
          "name": "",
          "type": "uint256[]"
        },
        {
          "name": "",
          "type": "uint256[]"
        }
      ],
      "payable": false,
      "stateMutability": "view",
      "type": "function"
    },
    {
      "constant": false,
      "inputs": [],
      "name": "claimReward",
      "outputs": [],
      "payable": false,
      "stateMutability": "nonpayable",
      "type": "function"
    },
    {
      "constant": false,
      "inputs": [
        {
          "name": "_hash",
          "type": "string"
        }
      ],
      "name": "setDataFeedHash",
      "outputs": [],
      "payable": false,
      "stateMutability": "nonpayable",
      "type": "function"
    },
    {
      "constant": true,
      "inputs": [],
      "name": "getState",
      "outputs": [
        {
          "name": "",
          "type": "uint256"
        }
      ],
      "payable": false,
      "stateMutability": "view",
      "type": "function"
    },
    {
      "constant": true,
      "inputs": [],
      "name": "getBalance",
      "outputs": [
        {
          "name": "",
          "type": "uint256[2]"
        }
      ],
      "payable": false,
      "stateMutability": "view",
      "type": "function"
    },
    {
      "constant": true,
      "inputs": [],
      "name": "getConsensusRules",
      "outputs": [
        {
          "name": "",
          "type": "uint256[6]"
        }
      ],
      "payable": false,
      "stateMutability": "view",
      "type": "function"
    },
    {
      "constant": false,
      "inputs": [],
      "name": "recoverLeftovers",
      "outputs": [],
      "payable": false,
      "stateMutability": "nonpayable",
      "type": "function"
    }
  ],
  "bytecode": "0x608060408190526003805460ff1990811690915560208054909116905562002ed83881900390819083398101604090815281516020830151918301516060840151608085015160a086015160c087015160e08801516101008901516101e08a0151978a01999697959694959394929391830192909161012090910190888a106200008857600080fd5b8888116200011d57604080517f08c379a000000000000000000000000000000000000000000000000000000000815260206004820152602c60248201527f4576656e742063616e2774207374617274206265666f7265206170706c69636160448201527f74696f6e7320636c6f73652e0000000000000000000000000000000000000000606482015290519081900360840190fd5b60128a9055601389905560018054600160a060020a031916600160a060020a0388161790558a51620001579060189060208e0190620002c0565b50601488905586880160155583516200017890600290602087019062000345565b5060008054600160a060020a0319163317815560168490556001600c55600280549091908110620001a557fe5b60009182526020909120015460048054600160a060020a031916600160a060020a039092169190911790556017819055620001e9826401000000006200026b810204565b84600160a060020a031663c4130ae06040518163ffffffff167c0100000000000000000000000000000000000000000000000000000000028152600401600060405180830381600087803b1580156200024157600080fd5b505af115801562000256573d6000803e3d6000fd5b505050505050505050505050505050620003f2565b8051601a556020810151601b556040810151601c556060810151601d556080810151601e5560a08101516000811115620002a157fe5b601f805460ff19166001836000811115620002b857fe5b021790555050565b828054600181600116156101000203166002900490600052602060002090601f016020900481019282601f106200030357805160ff191683800117855562000333565b8280016001018555821562000333579182015b828111156200033357825182559160200191906001019062000316565b5062000341929150620003ab565b5090565b8280548282559060005260206000209081019282156200039d579160200282015b828111156200039d5782518254600160a060020a031916600160a060020a0390911617825560209092019160019091019062000366565b5062000341929150620003cb565b620003c891905b80821115620003415760008155600101620003b2565b90565b620003c891905b8082111562000341578054600160a060020a0319168155600101620003d2565b612ad680620004026000396000f30060806040526004361061013c5763ffffffff7c0100000000000000000000000000000000000000000000000000000000600035041662f16142811461013e57806311e956c81461016557806312065fe01461018e5780631865c57d146101de5780631a0ddce9146101f35780633d18b912146102ba5780634227357c146102cf578063437933cc146103595780634b766b95146103b2578063510ccb431461040b57806354e33cf0146104f95780635aa68ac01461055e57806374539f98146105735780638043c9c0146105885780638126cb1e1461059d57806381c2d875146105fb5780638da5cb5b146106255780639d76ea5814610656578063a77ae8391461066b578063ab95b58614610683578063b88a802f146106ad578063efba9bd2146106c2578063f4caee88146106d7578063f9010d19146106f8575b005b34801561014a57600080fd5b5061015361070d565b60408051918252519081900360200190f35b34801561017157600080fd5b5061017a610713565b604080519115158252519081900360200190f35b34801561019a57600080fd5b506101a3610725565b6040518082600260200280838360005b838110156101cb5781810151838201526020016101b3565b5050505090500191505060405180910390f35b3480156101ea57600080fd5b506101536107d7565b3480156101ff57600080fd5b506040805160206004803580820135838102808601850190965280855261013c95369593946024949385019291829185019084908082843750506040805187358901803560208181028481018201909552818452989b9a998901989297509082019550935083925085019084908082843750506040805187358901803560208181028481018201909552818452989b9a9989019892975090820195509350839250850190849080828437509497506107f09650505050505050565b3480156102c657600080fd5b506101a3610b79565b3480156102db57600080fd5b506102e4610bbb565b6040805160208082528351818301528351919283929083019185019080838360005b8381101561031e578181015183820152602001610306565b50505050905090810190601f16801561034b5780820380516001836020036101000a031916815260200191505b509250505060405180910390f35b34801561036557600080fd5b506040805160206004803580820135601f810184900484028501840190955284845261013c943694929360249392840191908190840183828082843750949750610c499650505050505050565b3480156103be57600080fd5b506040805160206004803580820135601f810184900484028501840190955284845261013c943694929360249392840191908190840183828082843750949750610c779650505050505050565b34801561041757600080fd5b506040805160206004803580820135838102808601850190965280855261046095369593946024949385019291829185019084908082843750949750610f0e9650505050505050565b604051808060200180602001838103835285818151815260200191508051906020019060200280838360005b838110156104a457818101518382015260200161048c565b50505050905001838103825284818151815260200191508051906020019060200280838360005b838110156104e35781810151838201526020016104cb565b5050505090500194505050505060405180910390f35b34801561050557600080fd5b5061050e61104c565b60408051602080825283518183015283519192839290830191858101910280838360005b8381101561054a578181015183820152602001610532565b505050509050019250505060405180910390f35b34801561056a57600080fd5b5061050e6110ae565b34801561057f57600080fd5b5061050e61110e565b34801561059457600080fd5b506102e461116e565b3480156105a957600080fd5b5060408051602060046024803582810135601f810185900485028601850190965285855261013c9583359536956044949193909101919081908401838280828437509497506111c99650505050505050565b34801561060757600080fd5b5061061061154c565b60405181518152808260c080838360206101b3565b34801561063157600080fd5b5061063a6115a2565b60408051600160a060020a039092168252519081900360200190f35b34801561066257600080fd5b5061063a6115b1565b34801561067757600080fd5b5061013c6004356115c0565b34801561068f57600080fd5b506106986117f5565b60405181518152808260a080838360206101b3565b3480156106b957600080fd5b5061013c611834565b3480156106ce57600080fd5b5061013c611c24565b3480156106e357600080fd5b5061017a600160a060020a0360043516611db8565b34801561070457600080fd5b5061013c611dd6565b600c5481565b600454600160a060020a031633145b90565b61072d6128d3565b604080518082018252308031825260015483517f70a08231000000000000000000000000000000000000000000000000000000008152600481019290925292519192602080850193600160a060020a03909216926370a0823192602480830193928290030181600087803b1580156107a457600080fd5b505af11580156107b8573d6000803e3d6000fd5b505050506040513d60208110156107ce57600080fd5b50519052905090565b60205460009060ff1660048111156107eb57fe5b905090565b600454600090600160a060020a03163314610855576040805160e560020a62461bcd02815260206004820152601d60248201527f4e6f7420612064657369676e61746564206d6173746572206e6f64652e000000604482015290519081900360640190fd5b600060205460ff16600481111561086857fe5b14801561087757506012544210155b15610884576108846121ed565b600160205460ff16600481111561089757fe5b1480156108a657506013544210155b1561092957601a54600e5410156109215761091c606060405190810160405280603381526020017f4e6f7420656e6f756768207573657273206a6f696e656420666f72207265717581526020017f69726564206d696e696d756d20766f7465732e00000000000000000000000000815250612323565b610929565b6109296121ed565b60205460029060ff16600481111561093d57fe5b81600481111561094957fe5b1461099b576040805160e560020a62461bcd02815260206004820152602480820152600080516020612a8b833981519152604482015260e160020a6330ba329702606482015290519081900360840190fd5b835185511480156109ad575082518551145b15156109b857600080fd5b600060035460ff1660028111156109cb57fe5b14610a46576040805160e560020a62461bcd02815260206004820152602660248201527f4e6f7420706f737369626c6520696e20746869732076616c69646174696f6e2060448201527f73746174652e0000000000000000000000000000000000000000000000000000606482015290519081900360840190fd5b600091505b8451821015610b72578382815181101515610a6257fe5b90602001906020020151601060008785815181101515610a7e57fe5b602090810291909101810151600160a060020a0316825281810192909252604090810160009081208180529092529020558251839083908110610abd57fe5b90602001906020020151601060008785815181101515610ad957fe5b602090810291909101810151600160a060020a031682528181019290925260409081016000908120600182529092529020558451601190869084908110610b1c57fe5b602090810291909101810151825460018082018555600094855292909320909201805473ffffffffffffffffffffffffffffffffffffffff1916600160a060020a03909316929092179091559190910190610a4b565b5050505050565b610b816128d3565b5060408051808201825233600090815260106020908152838220828052808252848320548452600183528152929020549181019190915290565b6019805460408051602060026001851615610100026000190190941693909304601f81018490048402820184019092528181529291830182828015610c415780601f10610c1657610100808354040283529160200191610c41565b820191906000526020600020905b815481529060010190602001808311610c2457829003601f168201915b505050505081565b600054600160a060020a03163314610c6057600080fd5b8051610c739060199060208401906128ee565b5050565b600454600160a060020a03163314610cd9576040805160e560020a62461bcd02815260206004820152601d60248201527f4e6f7420612064657369676e61746564206d6173746572206e6f64652e000000604482015290519081900360640190fd5b600060205460ff166004811115610cec57fe5b148015610cfb57506012544210155b15610d0857610d086121ed565b600160205460ff166004811115610d1b57fe5b148015610d2a57506013544210155b15610dad57601a54600e541015610da557610da0606060405190810160405280603381526020017f4e6f7420656e6f756768207573657273206a6f696e656420666f72207265717581526020017f69726564206d696e696d756d20766f7465732e00000000000000000000000000815250612323565b610dad565b610dad6121ed565b60205460029060ff166004811115610dc157fe5b816004811115610dcd57fe5b14610e1f576040805160e560020a62461bcd02815260206004820152602480820152600080516020612a8b833981519152604482015260e160020a6330ba329702606482015290519081900360840190fd5b600060035460ff166002811115610e3257fe5b14610ead576040805160e560020a62461bcd02815260206004820152602660248201527f4e6f7420706f737369626c6520696e20746869732076616c69646174696f6e2060448201527f73746174652e0000000000000000000000000000000000000000000000000000606482015290519081900360840190fd5b8151610ec09060059060208501906128ee565b50600160068190556003805460ff19169091179055600c5460408051918252517f47c2e9e59e6d2347f314927d02f36b95696a09b5f0ac0bae119ff5ae937016559181900360200190a15050565b60608060608060008551604051908082528060200260200182016040528015610f41578160200160208202803883390190505b5092508551604051908082528060200260200182016040528015610f6f578160200160208202803883390190505b509150600090505b855181101561104157601060008783815181101515610f9257fe5b602090810291909101810151600160a060020a0316825281810192909252604090810160009081208180529092529020548351849083908110610fd157fe5b602090810290910101528551601090600090889084908110610fef57fe5b602090810291909101810151600160a060020a03168252818101929092526040908101600090812060018252909252902054825183908390811061102f57fe5b60209081029091010152600101610f77565b509094909350915050565b606060118054806020026020016040519081016040528092919081815260200182805480156110a457602002820191906000526020600020905b8154600160a060020a03168152600190910190602001808311611086575b5050505050905090565b6060600e8054806020026020016040519081016040528092919081815260200182805480156110a457602002820191906000526020600020908154600160a060020a03168152600190910190602001808311611086575050505050905090565b606060028054806020026020016040519081016040528092919081815260200182805480156110a457602002820191906000526020600020908154600160a060020a03168152600190910190602001808311611086575050505050905090565b6018805460408051602060026001851615610100026000190190941693909304601f81018490048402820184019092528181529291830182828015610c415780601f10610c1657610100808354040283529160200191610c41565b60205460029060ff1660048111156111dd57fe5b8160048111156111e957fe5b1461123b576040805160e560020a62461bcd02815260206004820152602480820152600080516020612a8b833981519152604482015260e160020a6330ba329702606482015290519081900360840190fd5b8261124533612475565b80156112565750611254610713565b155b15156112ac576040805160e560020a62461bcd02815260206004820152601b60248201527f4e6f7420612076616c69642073656e64657220616464726573732e0000000000604482015290519081900360640190fd5b600160035460ff1660028111156112bf57fe5b14611314576040805160e560020a62461bcd02815260206004820152601760248201527f4e6f742076616c69646174696e6720726577617264732e000000000000000000604482015290519081900360640190fd5b600c54811461136d576040805160e560020a62461bcd02815260206004820152601a60248201527f56616c69646174696f6e20726f756e64206d69736d617463682e000000000000604482015290519081900360640190fd5b600c5433600090815260096020526040902054106113d5576040805160e560020a62461bcd02815260206004820152601d60248201527f416c726561647920766f74656420666f72207468697320726f756e642e000000604482015290519081900360640190fd5b600780546001019055600c543360009081526009602090815260409182902092909255518451600b9286929182918401908083835b602083106114295780518252601f19909201916020918201910161140a565b51815160209384036101000a600019018019909216911617905292019485525060405193849003019092205460ff161515915061153e905057600880546001810180835560009290925284516114a6917ff3f7a9fe364faab93b216da50a3214154f22a0a2b415b23a84c8169e8b636ee3019060208701906128ee565b50506004600601836040518082805190602001908083835b602083106114dd5780518252601f1990920191602091820191016114be565b51815160001960209485036101000a0190811690199190911617905292019485525060405193849003810190932080546001810182556000918252939020909201805473ffffffffffffffffffffffffffffffffffffffff19163317905550505b6115466124d3565b50505050565b61155461296c565b6040805160c081018252601a548152601b546020820152601c5491810191909152601d546060820152601e546080820152601f5460a082019060ff16600081111561159b57fe5b9052905090565b600054600160a060020a031681565b600154600160a060020a031681565b60205460029060ff1660048111156115d457fe5b8160048111156115e057fe5b14611632576040805160e560020a62461bcd02815260206004820152602480820152600080516020612a8b833981519152604482015260e160020a6330ba329702606482015290519081900360840190fd5b8161163c33612475565b801561164d575061164b610713565b155b15156116a3576040805160e560020a62461bcd02815260206004820152601b60248201527f4e6f7420612076616c69642073656e64657220616464726573732e0000000000604482015290519081900360640190fd5b600160035460ff1660028111156116b657fe5b1461170b576040805160e560020a62461bcd02815260206004820152601760248201527f4e6f742076616c69646174696e6720726577617264732e000000000000000000604482015290519081900360640190fd5b600c548114611764576040805160e560020a62461bcd02815260206004820152601a60248201527f56616c69646174696f6e20726f756e64206d69736d617463682e000000000000604482015290519081900360640190fd5b600c5433600090815260096020526040902054106117cc576040805160e560020a62461bcd02815260206004820152601d60248201527f416c726561647920766f74656420666f72207468697320726f756e642e000000604482015290519081900360640190fd5b600680546001019055600c54336000908152600960205260409020556117f06124ee565b505050565b6117fd61298b565b60a0604051908101604052806012548152602001601354815260200160145481526020016015548152602001601654815250905090565b60008061184033611db8565b151561184b57600080fd5b60205460039060ff16600481111561185f57fe5b81600481111561186b57fe5b146118bd576040805160e560020a62461bcd02815260206004820152602480820152600080516020612a8b833981519152604482015260e160020a6330ba329702606482015290519081900360840190fd5b3360009081526010602090815260408083208380529091529020541580156118fe575033600090815260106020908152604080832060018452909152902054155b1561197c576040805160208082526025908201527f596f7520646f206e6f74206861766520616e79207265776172647320746f2063818301527f6c61696d2e00000000000000000000000000000000000000000000000000000060608201529051600080516020612a6b8339815191529181900360800190a16117f0565b33600090815260106020908152604080832083805290915290205430311080611a4e5750336000908152601060209081526040808320600180855290835281842054905482517f70a0823100000000000000000000000000000000000000000000000000000000815230600482015292519194600160a060020a03909116936370a08231936024808201949293918390030190829087803b158015611a2057600080fd5b505af1158015611a34573d6000803e3d6000fd5b505050506040513d6020811015611a4a57600080fd5b5051105b15611af2576040805160208082526045908201527f437269746963616c206572726f723a206e6f7420656e6f7567682062616c616e818301527f636520746f20706179206f7574207265776172642e20436f6e7461637420566560608201527f726974792e00000000000000000000000000000000000000000000000000000060808201529051600080516020612a6b8339815191529181900360a00190a16117f0565b3360008181526010602090815260408083208380529091528082208054601754600185528385208054938690558590559251909750910194506108fc86150291869190818181858888f19350505050158015611b52573d6000803e3d6000fd5b50600154604080517fa9059cbb000000000000000000000000000000000000000000000000000000008152336004820152602481018590529051600160a060020a039092169163a9059cbb916044808201926020929091908290030181600087803b158015611bc057600080fd5b505af1158015611bd4573d6000803e3d6000fd5b505050506040513d6020811015611bea57600080fd5b50506040805133815290517f63e32091e4445d16e29c33a6b264577c2d86694021aa4e6f4dd590048f5792e89181900360200190a1505050565b60008054600160a060020a03163314611c3c57600080fd5b601654421015611c4b57600080fd5b60008054604051600160a060020a0390911691303180156108fc02929091818181858888f19350505050158015611c86573d6000803e3d6000fd5b50600154604080517f70a082310000000000000000000000000000000000000000000000000000000081523060048201529051600160a060020a03909216916370a08231916024808201926020929091908290030181600087803b158015611ced57600080fd5b505af1158015611d01573d6000803e3d6000fd5b505050506040513d6020811015611d1757600080fd5b505160015460008054604080517fa9059cbb000000000000000000000000000000000000000000000000000000008152600160a060020a03928316600482015260248101869052905194955092169263a9059cbb926044808201936020939283900390910190829087803b158015611d8e57600080fd5b505af1158015611da2573d6000803e3d6000fd5b505050506040513d60208110156117f057600080fd5b600160a060020a03166000908152600d602052604090205460ff1690565b600060205460ff166004811115611de957fe5b148015611df857506012544210155b15611e0557611e056121ed565b600160205460ff166004811115611e1857fe5b148015611e2757506013544210155b15611eaa57601a54600e541015611ea257611e9d606060405190810160405280603381526020017f4e6f7420656e6f756768207573657273206a6f696e656420666f72207265717581526020017f69726564206d696e696d756d20766f7465732e00000000000000000000000000815250612323565b611eaa565b611eaa6121ed565b611eb333611db8565b15611f0b57604080516020808252601e908201527f596f752061726520616c72656164792070617274696369706174696e672e0000818301529051600080516020612a6b8339815191529181900360600190a16121eb565b600160205460ff166004811115611f1e57fe5b14611f9c57604080516020808252602b908201527f596f752063616e206f6e6c79206a6f696e20696e20746865204170706c696361818301527f74696f6e2073746174652e00000000000000000000000000000000000000000060608201529051600080516020612a6b8339815191529181900360800190a16121eb565b60006017541180156120465750601754600154604080517fdd62ed3e0000000000000000000000000000000000000000000000000000000081523360048201523060248201529051600160a060020a039092169163dd62ed3e916044808201926020929091908290030181600087803b15801561201857600080fd5b505af115801561202c573d6000803e3d6000fd5b505050506040513d602081101561204257600080fd5b5051105b1561209e576040805160208082526019908201527f4e6f7420656e6f75676820746f6b656e73207374616b65642e00000000000000818301529051600080516020612a6b8339815191529181900360600190a16121eb565b6000601754111561214c57600154601754604080517f23b872dd000000000000000000000000000000000000000000000000000000008152336004820152306024820152604481019290925251600160a060020a03909216916323b872dd916064808201926020929091908290030181600087803b15801561211f57600080fd5b505af1158015612133573d6000803e3d6000fd5b505050506040513d602081101561214957600080fd5b50505b336000818152600d60209081526040808320805460ff19166001908117909155600e805491820181559093527fbb7b4a454dc3493923482f07822329ed19e8244eff582cc204f8554c3620c3fd909201805473ffffffffffffffffffffffffffffffffffffffff191684179055815192835290517f0940fd5e528ae9fa6c086f42387c791c3854e0febdf0717c2da155c9dbf1e86c9281900390910190a15b565b600360205460ff16600481111561220057fe5b1415801561221f5750600460205460ff16600481111561221c57fe5b14155b151561229b576040805160e560020a62461bcd02815260206004820152602660248201527f4576656e742073746174652063616e2774206265206d6f64696669656420616e60448201527f796d6f72652e0000000000000000000000000000000000000000000000000000606482015290519081900360840190fd5b60205460ff1660048111156122ac57fe5b60010160048111156122ba57fe5b6020805460ff191660018360048111156122d057fe5b02179055506020546040517fb9eb8a309bf89f3159b39681f485b6430fec1035b2b457edbcdadcdece888c0b9160ff16908082600481111561230e57fe5b60ff16815260200191505060405180910390a1565b600360205460ff16600481111561233657fe5b141580156123555750600460205460ff16600481111561235257fe5b14155b15156123d1576040805160e560020a62461bcd02815260206004820152602660248201527f4576656e742073746174652063616e2774206265206d6f64696669656420616e60448201527f796d6f72652e0000000000000000000000000000000000000000000000000000606482015290519081900360840190fd5b6020805460ff191660041781556040805182815283518184015283517f860b7e55e58bd6095b36c4b4016ed8a2e47cb8ebd020fa0e43b32649deb540c393859383929083019185019080838360005b83811015612438578181015183820152602001612420565b50505050905090810190601f1680156124655780820380516001836020036101000a031916815260200191505b509250505060405180910390a150565b6000805b6002548110156124c85782600160a060020a031660028281548110151561249c57fe5b600091825260209091200154600160a060020a031614156124c057600191506124cd565b600101612479565b600091505b50919050565b601c546064036124e161251b565b106121eb576121eb612537565b601c546124f961262d565b106121eb57600260035460ff16600281111561251157fe5b50506121eb6121ed565b6002546007546000919060640281151561253157fe5b04905090565b600160046007016004600101604051808280546001816001161561010002031660029004801561259e5780601f1061257c57610100808354040283529182019161259e565b820191906000526020600020905b81548152906001019060200180831161258a575b50509283525050604051602091819003919091019020805460ff1916911515919091179055600854600754600c54600654929091036001019101600019011115612625576126206040805190810160405280601a81526020017f436f6e73656e7375732063616e27742062652072656163686564000000000000815250612323565b6121eb565b6121eb612643565b6002546006546000919060640281151561253157fe5b600c80546001019055600060068190556007819055600880548291600a918390811061266b57fe5b9060005260206000200160405180828054600181600116156101000203166002900480156126d05780601f106126ae5761010080835404028352918201916126d0565b820191906000526020600020905b8154815290600101906020018083116126bc575b50509283525050604051908190036020019020805460009081106126f057fe5b60009182526020822001546004805473ffffffffffffffffffffffffffffffffffffffff1916600160a060020a0390921691909117905591505b6008548210156127d45760088054600a91908490811061274657fe5b9060005260206000200160405180828054600181600116156101000203166002900480156127ab5780601f106127895761010080835404028352918201916127ab565b820191906000526020600020905b815481529060010190602001808311612797575b505092835250506040519081900360200190206127c99060006129aa565b81600101915061272a565b6127e0600860006129cb565b5060005b6011548110156128845760006010600060118481548110151561280357fe5b600091825260208083209190910154600160a060020a0316835282810193909352604091820181208180529092528120919091556011805460109183918590811061284a57fe5b600091825260208083209190910154600160a060020a031683528281019390935260409182018120600180835293522091909155016127e4565b612890601160006129aa565b6003805460ff19169055600c5460408051918252517fc785d855a24b92cb8266e0a85180a9fa4fe03d182f82a8555b01e1f986d267df9181900360200190a15050565b60408051808201825290600290829080388339509192915050565b828054600181600116156101000203166002900490600052602060002090601f016020900481019282601f1061292f57805160ff191683800117855561295c565b8280016001018555821561295c579182015b8281111561295c578251825591602001919060010190612941565b506129689291506129e9565b5090565b60c0604051908101604052806006906020820280388339509192915050565b60a0604051908101604052806005906020820280388339509192915050565b50805460008255906000526020600020908101906129c891906129e9565b50565b50805460008255906000526020600020908101906129c89190612a03565b61072291905b8082111561296857600081556001016129ef565b61072291905b80821115612968576000612a1d8282612a26565b50600101612a09565b50805460018160011615610100020316600290046000825580601f10612a4c57506129c8565b601f0160209004906000526020600020908101906129c891906129e9560008c379a0afcc32b1a39302f7cb8073359698411ab5fd6e3edb2c02c0b5fba8aa4e6f7420706f737369626c6520696e2063757272656e74206576656e74207374a165627a7a72305820d587bac1349c5d552cad08b0dde905a67f4321cd46ae4deacc32761bb1e7c5750029",
  "source": "pragma solidity 0.4.24;\n\n\nimport \"./EventRegistry.sol\";\n\n\ncontract VerityToken {\n    function totalSupply() public view returns (uint);\n    function balanceOf(address tokenOwner) public view returns (uint balance);\n    function allowance(address tokenOwner, address spender) public view returns (uint remaining);\n    function transfer(address to, uint tokens) public returns (bool success);\n    function approve(address spender, uint tokens) public returns (bool success);\n    function transferFrom(address from, address to, uint tokens) public returns (bool success);\n\n    event Transfer(address indexed from, address indexed to, uint tokens);\n    event Approval(address indexed tokenOwner, address indexed spender, uint tokens);\n}\n\n\ncontract VerityEvent {\n    /// Contract's owner, used for permission management\n    address public owner;\n\n    /// Token contract address, used for tokend distribution\n    address public tokenAddress;\n\n    /// Designated validation nodes that will decide rewards.\n    address[] eventResolvers;\n\n    /// - WaitingForRewards: Waiting for current master to set rewards.\n    /// - Validating: Master has set rewards. Vaiting for node validation.\n    /// - Finished: Either successfully validated or failed.\n    enum ValidationState {\n        WaitingForRewards,\n        Validating,\n        Finished\n    }\n    ValidationState validationState = ValidationState.WaitingForRewards;\n\n    struct RewardsValidation {\n        address currentMasterNode;\n        string rewardsHash;\n        uint approvalCount;\n        uint rejectionCount;\n        string[] altHashes;\n        mapping(address => uint) votersRound;\n        mapping(string => address[]) altHashVotes;\n        mapping(string => bool) rejectedHashes;\n    }\n    RewardsValidation rewardsValidation;\n\n    /// Round of validation. Increases by each failed validation\n    uint public rewardsValidationRound;\n\n    /// A list of all the participating wallet addresses, implemented as a mapping\n    /// to provide constant lookup times.\n    mapping(address => bool) participants;\n    address[] participantsIndex;\n\n    enum RewardType {\n        Ether,\n        Token\n    }\n    RewardType rewardType;\n\n    /// A mapping of addresses to their assigned rewards\n    mapping(address => mapping(uint => uint)) rewards;\n    address[] rewardsIndex;\n\n    /// Event application start time, users cannot apply to participate before it\n    uint applicationStartTime;\n\n    /// Event application end time, users cannot apply after this time\n    uint applicationEndTime;\n\n    /// Event actual start time, votes before this should not be accepted\n    uint eventStartTime;\n\n    /// Event end time, it is calculated in the constructor\n    uint eventEndTime;\n\n    /// Event name, here for informational use - not used otherwise\n    /// owner can recover tokens and ether after this time\n    uint leftoversRecoverableAfter;\n\n    /// Amount of tokens that each user must stake before voting.\n    uint stakingAmount;\n\n    string public eventName;\n\n    /// Data feed hash, used for verification\n    string public dataFeedHash;\n\n    enum RewardsDistribution {\n        Linear // 0\n    }\n\n    struct ConsensusRules {\n        uint minTotalVotes;\n        uint minConsensuVotes;\n        uint minConsensusRatio;\n        uint minParticipantRatio;\n        uint maxParticipants;\n        RewardsDistribution rewardsDistribution;\n    }\n    ConsensusRules consensusRules;\n\n    /// Event's states\n    /// Events advance in the order defined here. Once the event reaches \"Reward\"\n    /// state, it cannot advance further.\n    /// Event states:\n    ///   - Waiting     -- Contract has been created, nothing is happening yet\n    ///   - Application -- After applicationStartTime, the event advances here\n    ///     new wallets can be added to the participats list during this state.\n    ///   - Running     -- Event is running, no new participants can be added\n    ///   - Reward      -- Participants can claim their payouts here - final state; can't be modified.\n    ///   - Failed      -- Event failed (no consensus, not enough users, timeout, ...) - final state; can't be modified\n    enum EventStates {\n        Waiting,\n        Application,\n        Running,\n        Reward,\n        Failed\n    }\n    EventStates eventState = EventStates.Waiting;\n\n    event StateTransition(EventStates newState);\n    event JoinEvent(address wallet);\n    event ClaimReward(address recipient);\n    event Error(string description);\n    event EventFailed(string description);\n    event ValidationStarted(uint validationRound);\n    event ValidationRestart(uint validationRound);\n\n    constructor(\n        string _eventName,\n        uint _applicationStartTime,\n        uint _applicationEndTime,\n        uint _eventStartTime,\n        uint _eventRunTime, // in seconds\n        address _tokenAddress,\n        address _registry,\n        address[] _eventResolvers,\n        uint _leftoversRecoverableAfter, // with timestamp (in seconds)\n        uint[6] _consensusRules, // [minTotalVotes, minConsensusVotes, minConsensusRatio, minParticipantRatio, maxParticipants, distribution]\n        uint _stakingAmount\n    )\n        public\n        payable\n    {\n        require(_applicationStartTime < _applicationEndTime);\n        require(_eventStartTime > _applicationEndTime, \"Event can't start before applications close.\");\n\n        applicationStartTime = _applicationStartTime;\n        applicationEndTime = _applicationEndTime;\n        tokenAddress = _tokenAddress;\n\n        eventName = _eventName;\n        eventStartTime = _eventStartTime;\n        eventEndTime = _eventStartTime + _eventRunTime;\n\n        eventResolvers = _eventResolvers;\n\n        owner = msg.sender;\n        leftoversRecoverableAfter = _leftoversRecoverableAfter;\n\n        rewardsValidationRound = 1;\n        rewardsValidation.currentMasterNode = eventResolvers[0];\n\n        stakingAmount = _stakingAmount;\n\n        setConsensusRules(_consensusRules);\n\n        EventRegistry(_registry).registerEvent();\n    }\n\n    /// A modifier signifiying that a certain method can only be used by the creator\n    /// of the contract.\n    /// Rollbacks the transaction on failure.\n    modifier onlyOwner() {\n        require(msg.sender == owner);\n        _;\n    }\n\n    /// A modifier signifiying that rewards can be set only by the designated master node.\n    /// Rollbacks the transaction on failure.\n    modifier onlyCurrentMaster() {\n        require(\n            msg.sender == rewardsValidation.currentMasterNode,\n            \"Not a designated master node.\"\n        );\n        _;\n    }\n\n    ///\tA modifier signifying that a certain method can only be used by a wallet\n    ///\tmarked as a participant.\n    ///\tRollbacks the transaction or failure.\n    modifier onlyParticipating() {\n        require(isParticipating(msg.sender));\n        _;\n    }\n\n    /// A modifier signifying that a certain method can only be used when the event\n    /// is in a certain state.\n    /// @param _state The event's required state\n    /// Example:\n    /// \tfunction claimReward() onlyParticipanting onlyState(EventStates.Reward) {\n    /// \t\t// ... content\n    /// \t}\n    modifier onlyState(EventStates _state) {\n        require(\n            _state == eventState,\n            \"Not possible in current event state.\"\n        );\n        _;\n    }\n\n    /// A modifier taking care of all the timed state transitions.\n    /// Should always be used before all other modifiers, especially `onlyState`,\n    /// since it can change state.\n    /// Should probably be used in ALL non-constant (transaction) methods of\n    /// the contract.\n    modifier timedStateTransition() {\n        if (eventState == EventStates.Waiting && now >= applicationStartTime) {\n            advanceState();\n        }\n\n        if (eventState == EventStates.Application && now >= applicationEndTime) {\n            if (participantsIndex.length < consensusRules.minTotalVotes) {\n                markAsFailed(\"Not enough users joined for required minimum votes.\");\n            } else {\n                advanceState();\n            }\n        }\n        _;\n    }\n\n    modifier onlyChangeableState() {\n        require(\n            eventState != EventStates.Reward && eventState != EventStates.Failed,\n            \"Event state can't be modified anymore.\"\n        );\n\n        _;\n    }\n\n    modifier onlyAfterLefroversCanBeRecovered() {\n        require(now >= leftoversRecoverableAfter);\n        _;\n    }\n\n    modifier canValidateRewards(uint forRound) {\n        require(\n            isNode(msg.sender) && !isMasterNode(),\n            \"Not a valid sender address.\"\n        );\n\n        require(\n            validationState == ValidationState.Validating,\n            \"Not validating rewards.\"\n        );\n\n        require(\n            forRound == rewardsValidationRound,\n            \"Validation round mismatch.\"\n        );\n\n        require(\n            rewardsValidation.votersRound[msg.sender] < rewardsValidationRound,\n            \"Already voted for this round.\"\n        );\n        _;\n    }\n\n    /// Ensure we can receive money at any time.\n    /// Not used, but we might want to extend the reward fund while event is running.\n    function() public payable {}\n\n    /// Apply for participation in this event.\n    /// Available only during the Application state.\n    /// A transaction to this function has to be done by the users themselves,\n    /// registering their wallet address as a participent.\n    /// The transaction does not have to include any funds.\n    function joinEvent()\n        public\n        timedStateTransition\n    {\n        if (isParticipating(msg.sender)) {\n            emit Error(\"You are already participating.\");\n            return;\n        }\n\n        if (eventState != EventStates.Application) {\n            emit Error(\"You can only join in the Application state.\");\n            return;\n        }\n\n        if (\n            stakingAmount > 0 &&\n            VerityToken(tokenAddress).allowance(msg.sender, address(this)) < stakingAmount\n        ) {\n            emit Error(\"Not enough tokens staked.\");\n            return;\n        }\n\n        if (stakingAmount > 0) {\n            VerityToken(tokenAddress).transferFrom(msg.sender, address(this), stakingAmount);\n        }\n        participants[msg.sender] = true;\n        participantsIndex.push(msg.sender);\n        emit JoinEvent(msg.sender);\n    }\n\n    /// Checks whether an address is participating in this event.\n    /// @param _user The addres to check for participation\n    /// @return {bool} Whether the given address is a participant of this event\n    function isParticipating(address _user) public view returns(bool) {\n        return participants[_user];\n    }\n\n    function getParticipants() public view returns(address[]) {\n        return participantsIndex;\n    }\n\n    function getEventTimes() public view returns(uint[5]) {\n        return [\n            applicationStartTime,\n            applicationEndTime,\n            eventStartTime,\n            eventEndTime,\n            leftoversRecoverableAfter\n        ];\n    }\n\n    /// Assign the actual rewards.\n    /// Receives a list of addresses and a list rewards. Mapping between the two\n    /// is done by the addresses' and reward's numerical index in the list, so\n    /// order is important.\n    /// @param _addresses A list of addresses\n    /// @param _etherRewards A list of ether rewards, must be the exact same length as addresses\n    /// @param _tokenRewards A list of token rewards, must be the exact same length as addresses\n    function setRewards(\n        address[] _addresses,\n        uint[] _etherRewards,\n        uint[] _tokenRewards\n    )\n        public\n        onlyCurrentMaster\n        timedStateTransition\n        onlyState(EventStates.Running)\n    {\n        require(\n            _addresses.length == _etherRewards.length &&\n            _addresses.length == _tokenRewards.length\n        );\n\n        require(\n            validationState == ValidationState.WaitingForRewards,\n            \"Not possible in this validation state.\"\n        );\n\n        for (uint i = 0; i < _addresses.length; ++i) {\n            rewards[_addresses[i]][uint(RewardType.Ether)] = _etherRewards[i];\n            rewards[_addresses[i]][uint(RewardType.Token)] = _tokenRewards[i];\n            rewardsIndex.push(_addresses[i]);\n        }\n    }\n\n    /// Triggered by the master node once rewards are set and ready to validate\n    function markRewardsSet(string rewardsHash)\n        public\n        onlyCurrentMaster\n        timedStateTransition\n        onlyState(EventStates.Running)\n    {\n        require(\n            validationState == ValidationState.WaitingForRewards,\n            \"Not possible in this validation state.\"\n        );\n\n        rewardsValidation.rewardsHash = rewardsHash;\n        rewardsValidation.approvalCount = 1;\n        validationState = ValidationState.Validating;\n        emit ValidationStarted(rewardsValidationRound);\n    }\n\n    /// Called by event resolver nodes if they agree with rewards\n    function approveRewards(uint validationRound)\n        public\n        onlyState(EventStates.Running)\n        canValidateRewards(validationRound)\n    {\n        ++rewardsValidation.approvalCount;\n        rewardsValidation.votersRound[msg.sender] = rewardsValidationRound;\n        checkApprovalRatio();\n    }\n\n    /// Called by event resolvers if they don't agree with rewards\n    function rejectRewards(uint validationRound, string altHash)\n        public\n        onlyState(EventStates.Running)\n        canValidateRewards(validationRound)\n    {\n        ++rewardsValidation.rejectionCount;\n        rewardsValidation.votersRound[msg.sender] = rewardsValidationRound;\n\n        if (!rewardsValidation.rejectedHashes[altHash]) {\n            rewardsValidation.altHashes.push(altHash);\n            rewardsValidation.altHashVotes[altHash].push(msg.sender);\n        }\n\n        checkRejectionRatio();\n    }\n\n    /// Checks current approvals for threshold\n    function checkApprovalRatio() private {\n        if (approvalRatio() >= consensusRules.minConsensusRatio) {\n            validationState == ValidationState.Finished;\n            advanceState();\n        }\n    }\n\n    /// Checks current rejections for threshold\n    function checkRejectionRatio() private {\n        if (rejectionRatio() >= (100 - consensusRules.minConsensusRatio)) {\n            rejectCurrentValidation();\n        }\n    }\n\n    /// Handle the rejection of current rewards\n    function rejectCurrentValidation() private {\n        rewardsValidation.rejectedHashes[rewardsValidation.rewardsHash] = true;\n\n        // If approved votes are over the threshold all other hashes will also fail\n        if (\n            rewardsValidation.approvalCount + rewardsValidationRound - 1 >\n            rewardsValidation.rejectionCount - rewardsValidation.altHashes.length + 1\n        ) {\n            markAsFailed(\"Consensus can't be reached\");\n        } else {\n            restartValidation();\n        }\n    }\n\n    function restartValidation() private {\n        ++rewardsValidationRound;\n        rewardsValidation.approvalCount = 0;\n        rewardsValidation.rejectionCount = 0;\n\n        rewardsValidation.currentMasterNode = rewardsValidation.altHashVotes[rewardsValidation.altHashes[0]][0];\n\n        for (uint i = 0; i < rewardsValidation.altHashes.length; ++i) {\n            delete rewardsValidation.altHashVotes[rewardsValidation.altHashes[i]];\n        }\n        delete rewardsValidation.altHashes;\n\n        //delete rewards\n        for (uint j = 0; j < rewardsIndex.length; ++j) {\n            rewards[rewardsIndex[j]][uint(RewardType.Ether)] = 0;\n            rewards[rewardsIndex[j]][uint(RewardType.Token)] = 0;\n        }\n        delete rewardsIndex;\n\n        validationState = ValidationState.WaitingForRewards;\n\n        emit ValidationRestart(rewardsValidationRound);\n     }\n\n    /// Ratio of nodes that approved of current hash\n    function approvalRatio() private view returns(uint) {\n        return rewardsValidation.approvalCount * 100 / eventResolvers.length;\n    }\n\n    /// Ratio of nodes that rejected the current hash\n    function rejectionRatio() private view returns(uint) {\n        return rewardsValidation.rejectionCount * 100 / eventResolvers.length;\n    }\n\n    /// Returns the whole array of event resolvers.\n    function getEventResolvers() public view returns(address[]) {\n        return eventResolvers;\n    }\n\n    /// Checks if the address is current master node.\n    function isMasterNode() public view returns(bool) {\n        return rewardsValidation.currentMasterNode == msg.sender;\n    }\n\n    function isNode(address node) private view returns(bool) {\n        for(uint i = 0; i < eventResolvers.length; ++i) {\n            if(eventResolvers[i] == node) {\n                return true;\n            }\n        }\n        return false;\n    }\n\n    /// Returns the calling user's assigned rewards. Can be 0.\n    /// Only available to participating users in the Reward state, since rewards\n    /// are not assigned before that.\n    function getReward()\n        public\n        view\n        returns(uint[2])\n    {\n        return [\n            rewards[msg.sender][uint(RewardType.Ether)],\n            rewards[msg.sender][uint(RewardType.Token)]\n        ];\n    }\n\n    /// Returns all the addresses that have rewards set.\n    function getRewardsIndex() public view returns(address[]) {\n        return rewardsIndex;\n    }\n\n    /// Returns rewards for specified addresses.\n    /// [[ethRewards, tokenRewards], [ethRewards, tokenRewards], ...]\n    function getRewards(address[] _addresses)\n        public\n        view\n        returns(uint[], uint[])\n    {\n        uint[] memory ethRewards = new uint[](_addresses.length);\n        uint[] memory tokenRewards = new uint[](_addresses.length);\n\n        for(uint i = 0; i < _addresses.length; ++i) {\n            ethRewards[i] = rewards[_addresses[i]][uint(RewardType.Ether)];\n            tokenRewards[i] = rewards[_addresses[i]][uint(RewardType.Token)];\n        }\n\n        return (ethRewards, tokenRewards);\n    }\n\n    /// Claim a reward.\n    /// Needs to be called by the users themselves.\n    /// Only available in the Reward state, after rewards have been received from\n    /// the validation nodes.\n    function claimReward()\n        public\n        onlyParticipating\n        onlyState(EventStates.Reward)\n    {\n        if (\n            rewards[msg.sender][uint(RewardType.Ether)] == 0 &&\n            rewards[msg.sender][uint(RewardType.Token)] == 0\n        ) {\n            emit Error(\"You do not have any rewards to claim.\");\n            return;\n        }\n\n        if (\n            address(this).balance < rewards[msg.sender][uint(RewardType.Ether)] ||\n            VerityToken(tokenAddress).balanceOf(address(this)) < rewards[msg.sender][uint(RewardType.Token)]\n        ) {\n            emit Error(\"Critical error: not enough balance to pay out reward. Contact Verity.\");\n            return;\n        }\n\n        uint etherReward = rewards[msg.sender][uint(RewardType.Ether)];\n        uint tokenReward = rewards[msg.sender][uint(RewardType.Token)] + stakingAmount;\n        rewards[msg.sender][uint(RewardType.Ether)] = 0;\n        rewards[msg.sender][uint(RewardType.Token)] = 0;\n\n        msg.sender.transfer(etherReward);\n        VerityToken(tokenAddress).transfer(msg.sender, tokenReward);\n\n        emit ClaimReward(msg.sender);\n    }\n\n    function setDataFeedHash(string _hash) public onlyOwner {\n        dataFeedHash = _hash;\n    }\n\n    function getState() public view returns(uint) {\n        return uint(eventState);\n    }\n\n    function getBalance() public view returns(uint[2]) {\n        return [\n            address(this).balance,\n            VerityToken(tokenAddress).balanceOf(address(this))\n        ];\n    }\n\n    /// Returns an array of consensus rules.\n    /// [minTotalVotes, minConsensusVotes, minConsensusRatio, minParticipantRatio, maxParticipants]\n    function getConsensusRules() public view returns(uint[6]) {\n        return [\n            consensusRules.minTotalVotes,\n            consensusRules.minConsensuVotes,\n            consensusRules.minConsensusRatio,\n            consensusRules.minParticipantRatio,\n            consensusRules.maxParticipants,\n            uint(consensusRules.rewardsDistribution)\n        ];\n    }\n\n    function recoverLeftovers()\n        public\n        onlyOwner\n        onlyAfterLefroversCanBeRecovered\n    {\n        owner.transfer(address(this).balance);\n        uint tokenBalance = VerityToken(tokenAddress).balanceOf(address(this));\n        VerityToken(tokenAddress).transfer(owner, tokenBalance);\n    }\n\n    /// Advances the event's state to the next one. Only for internal use.\n    function advanceState() private onlyChangeableState {\n        eventState = EventStates(uint(eventState) + 1);\n        emit StateTransition(eventState);\n    }\n\n    /// Sets consensus rules. For internal use only.\n    function setConsensusRules(uint[6] rules) private {\n        consensusRules.minTotalVotes = rules[0];\n        consensusRules.minConsensuVotes = rules[1];\n        consensusRules.minConsensusRatio = rules[2];\n        consensusRules.minParticipantRatio = rules[3];\n        consensusRules.maxParticipants = rules[4];\n        consensusRules.rewardsDistribution = RewardsDistribution(rules[5]);\n    }\n\n    function markAsFailed(string description) private onlyChangeableState {\n        eventState = EventStates.Failed;\n        emit EventFailed(description);\n    }\n}\n",
  "sourcePath": "/Users/nejc/gitlab/verity/verity-contracts/verity-event/contracts/VerityEvent.sol",
  "compiler": {
    "name": "solc",
    "version": "0.4.24+commit.e67f0147.Emscripten.clang"
  },
  "schemaVersion": "2.0.1",
  "updatedAt": "2018-09-27T12:29:53.371Z"
}