{
  "contractName": "VerityEventProxy",
  "abi": [
    {
      "constant": true,
      "inputs": [],
      "name": "rewardsValidationRound",
      "outputs": [
        {
          "name": "",
          "type": "uint256"
        }
      ],
      "payable": false,
      "stateMutability": "view",
      "type": "function"
    },
    {
      "constant": true,
      "inputs": [],
      "name": "eventRegistryAddress",
      "outputs": [
        {
          "name": "",
          "type": "address"
        }
      ],
      "payable": false,
      "stateMutability": "view",
      "type": "function"
    },
    {
      "constant": true,
      "inputs": [],
      "name": "dataFeedHash",
      "outputs": [
        {
          "name": "",
          "type": "string"
        }
      ],
      "payable": false,
      "stateMutability": "view",
      "type": "function"
    },
    {
      "constant": true,
      "inputs": [],
      "name": "ipfsEventHash",
      "outputs": [
        {
          "name": "",
          "type": "string"
        }
      ],
      "payable": false,
      "stateMutability": "view",
      "type": "function"
    },
    {
      "constant": true,
      "inputs": [],
      "name": "implementation",
      "outputs": [
        {
          "name": "",
          "type": "address"
        }
      ],
      "payable": false,
      "stateMutability": "view",
      "type": "function"
    },
    {
      "constant": true,
      "inputs": [],
      "name": "stakingAmount",
      "outputs": [
        {
          "name": "",
          "type": "uint256"
        }
      ],
      "payable": false,
      "stateMutability": "view",
      "type": "function"
    },
    {
      "constant": true,
      "inputs": [],
      "name": "eventName",
      "outputs": [
        {
          "name": "",
          "type": "string"
        }
      ],
      "payable": false,
      "stateMutability": "view",
      "type": "function"
    },
    {
      "constant": true,
      "inputs": [],
      "name": "owner",
      "outputs": [
        {
          "name": "",
          "type": "address"
        }
      ],
      "payable": false,
      "stateMutability": "view",
      "type": "function"
    },
    {
      "constant": true,
      "inputs": [],
      "name": "tokenAddress",
      "outputs": [
        {
          "name": "",
          "type": "address"
        }
      ],
      "payable": false,
      "stateMutability": "view",
      "type": "function"
    },
    {
      "constant": true,
      "inputs": [],
      "name": "leftoversRecoverableAfter",
      "outputs": [
        {
          "name": "",
          "type": "uint256"
        }
      ],
      "payable": false,
      "stateMutability": "view",
      "type": "function"
    },
    {
      "inputs": [
        {
          "name": "_eventName",
          "type": "string"
        },
        {
          "name": "_applicationStartTime",
          "type": "uint256"
        },
        {
          "name": "_applicationEndTime",
          "type": "uint256"
        },
        {
          "name": "_eventStartTime",
          "type": "uint256"
        },
        {
          "name": "_eventRunTime",
          "type": "uint256"
        },
        {
          "name": "_cAddresses",
          "type": "address[4]"
        },
        {
          "name": "_eventResolvers",
          "type": "address[]"
        },
        {
          "name": "_leftoversRecoverableAfter",
          "type": "uint256"
        },
        {
          "name": "_consensusRules",
          "type": "uint256[6]"
        },
        {
          "name": "_stakingAmount",
          "type": "uint256"
        },
        {
          "name": "_disputeRules",
          "type": "uint256[4]"
        },
        {
          "name": "_ipfsEventHash",
          "type": "string"
        },
        {
          "name": "_requiredUserRoles",
          "type": "uint256[]"
        },
        {
          "name": "_eventCategory",
          "type": "bytes32[2]"
        }
      ],
      "payable": true,
      "stateMutability": "payable",
      "type": "constructor"
    },
    {
      "payable": true,
      "stateMutability": "payable",
      "type": "fallback"
    }
  ],
  "bytecode": "0x608060408190526006805460ff19908116909155602f8054909116905562000b253881900390819083398101806040526103408110156200003f57600080fd5b8101908080516401000000008111156200005857600080fd5b820160208101848111156200006c57600080fd5b81516401000000008111828201871017156200008757600080fd5b50506020820151604083015160608401516080850151610120860180519598949793969295919460a09093019391640100000000811115620000c857600080fd5b82016020810184811115620000dc57600080fd5b8151856020820283011164010000000082111715620000fa57600080fd5b505060208201516101008301516101a084018051939692956040860195929461012090930193929091906401000000008111156200013757600080fd5b820160208101848111156200014b57600080fd5b81516401000000008111828201871017156200016657600080fd5b505092919060200180516401000000008111156200018357600080fd5b820160208101848111156200019757600080fd5b8151856020820283011164010000000082111715620001b557600080fd5b509093505060200190508b8d10620001cc57600080fd5b8b8b116200026157604080517f08c379a000000000000000000000000000000000000000000000000000000000815260206004820152602c60248201527f4576656e742063616e2774207374617274206265666f7265206170706c69636160448201527f74696f6e7320636c6f73652e0000000000000000000000000000000000000000606482015290519081900360840190fd5b8c6015819055508b6016819055508d602490805190602001906200028792919062000502565b5062000297602582600262000587565b5060178b9055898b016018558751620002b89060039060208b0190620005b7565b5060008054600160a060020a03191633178155601a8890556001600f55600380549091908110620002e557fe5b6000918252602091829020015460078054600160a060020a031916600160a060020a03909216919091179055601b86905583516200032a916019919086019062000502565b506200033f866401000000006200046f810204565b6200035384640100000000620004c3810204565b885160018054600160a060020a03928316600160a060020a0319918216179091556020808c01516002805491851691841691909117905560408c015160048054918516919093161790915560608b0151602f8054919093166101000261010060a860020a0319909116179091558251620003d491600591908501906200061d565b50600260009054906101000a9004600160a060020a0316600160a060020a031663c4130ae06040518163ffffffff167c0100000000000000000000000000000000000000000000000000000000028152600401600060405180830381600087803b1580156200044257600080fd5b505af115801562000457573d6000803e3d6000fd5b505050505050505050505050505050505050620006a1565b80516029556020810151602a556040810151602b556060810151602c556080810151602d5560a08101516001811115620004a557fe5b602e805460ff191660018381811115620004bb57fe5b021790555050565b6040810151606082015160018211620004db57600191505b801515620004e857506154605b8251601c55602092830151601d5591556000601e55602355565b828054600181600116156101000203166002900490600052602060002090601f016020900481019282601f106200054557805160ff191683800117855562000575565b8280016001018555821562000575579182015b828111156200057557825182559160200191906001019062000558565b50620005839291506200065a565b5090565b82600281019282156200057557916020028201828111156200057557825182559160200191906001019062000558565b8280548282559060005260206000209081019282156200060f579160200282015b828111156200060f5782518254600160a060020a031916600160a060020a03909116178255602090920191600190910190620005d8565b50620005839291506200067a565b8280548282559060005260206000209081019282156200057557916020028201828111156200057557825182559160200191906001019062000558565b6200067791905b8082111562000583576000815560010162000661565b90565b6200067791905b8082111562000583578054600160a060020a031916815560010162000681565b61047480620006b16000396000f3fe60806040526004361061009c577c01000000000000000000000000000000000000000000000000000000006000350462f1614281146100a6578063073f03fb146100cd5780634227357c1461010b57806342380eaf146101955780635c60da1b146101aa578063739a3e02146101bf5780638043c9c0146101d45780638da5cb5b146101e95780639d76ea58146101fe578063f38a803f14610213575b6100a4610228565b005b3480156100b257600080fd5b506100bb610259565b60408051918252519081900360200190f35b3480156100d957600080fd5b506100e261025f565b6040805173ffffffffffffffffffffffffffffffffffffffff9092168252519081900360200190f35b34801561011757600080fd5b5061012061027b565b6040805160208082528351818301528351919283929083019185019080838360005b8381101561015a578181015183820152602001610142565b50505050905090810190601f1680156101875780820380516001836020036101000a031916815260200191505b509250505060405180910390f35b3480156101a157600080fd5b50610120610309565b3480156101b657600080fd5b506100e2610364565b3480156101cb57600080fd5b506100bb610385565b3480156101e057600080fd5b5061012061038b565b3480156101f557600080fd5b506100e26103e6565b34801561020a57600080fd5b506100e2610402565b34801561021f57600080fd5b506100bb61041e565b610230610257565b602f5461025790610100900473ffffffffffffffffffffffffffffffffffffffff16610424565b565b600f5481565b60025473ffffffffffffffffffffffffffffffffffffffff1681565b6027805460408051602060026001851615610100026000190190941693909304601f810184900484028201840190925281815292918301828280156103015780601f106102d657610100808354040283529160200191610301565b820191906000526020600020905b8154815290600101906020018083116102e457829003601f168201915b505050505081565b6019805460408051602060026001851615610100026000190190941693909304601f810184900484028201840190925281815292918301828280156103015780601f106102d657610100808354040283529160200191610301565b602f54610100900473ffffffffffffffffffffffffffffffffffffffff1681565b601b5481565b6024805460408051602060026001851615610100026000190190941693909304601f810184900484028201840190925281815292918301828280156103015780601f106102d657610100808354040283529160200191610301565b60005473ffffffffffffffffffffffffffffffffffffffff1681565b60015473ffffffffffffffffffffffffffffffffffffffff1681565b601a5481565b3660008037600080366000845af43d6000803e808015610443573d6000f35b3d6000fdfea165627a7a72305820c25f274f6374494edd30f24facc81c5506afc30132c70c7f72b8e5c8953f7aa90029",
  "source": "pragma solidity ^0.5.0;\n\nimport \"./VerityToken.sol\";\nimport \"./verity_event/Store.sol\";\nimport \"./utility/Proxy.sol\";\n\n\ninterface UserRolesI {\n    function hasAnyRole(address _user, uint[] calldata _roles) external view returns (bool);\n}\n\ncontract VerityEventProxy is Store, Proxy {\n\n    constructor(\n        string memory _eventName,\n        uint _applicationStartTime,\n        uint _applicationEndTime,\n        uint _eventStartTime,\n        uint _eventRunTime, // in seconds\n        address[4] memory _cAddresses, // [tokenAddress, eventRegistry, userRoles, implementation]\n        address[] memory _eventResolvers,\n        uint _leftoversRecoverableAfter, // with timestamp (in seconds)\n        uint[6] memory _consensusRules, // [minTotalVotes, minConsensusVotes, minConsensusRatio, minParticipantRatio, maxParticipants, distribution]\n        uint _stakingAmount,\n        uint[4] memory _disputeRules, // [dispute amount, dispute timeout, dispute multiplier, default extension in seconds]\n        string memory _ipfsEventHash,\n        uint[] memory _requiredUserRoles,\n        bytes32[2] memory _eventCategory\n    )\n        public\n        payable\n    {\n        require(_applicationStartTime < _applicationEndTime);\n        require(_eventStartTime > _applicationEndTime, \"Event can't start before applications close.\");\n\n        applicationStartTime = _applicationStartTime;\n        applicationEndTime = _applicationEndTime;\n\n        eventName = _eventName;\n        eventCategory = _eventCategory;\n        eventStartTime = _eventStartTime;\n        eventEndTime = _eventStartTime + _eventRunTime;\n\n        eventResolvers = _eventResolvers;\n\n        owner = msg.sender;\n        leftoversRecoverableAfter = _leftoversRecoverableAfter;\n\n        rewardsValidationRound = 1;\n        rewardsValidation.currentMasterNode = eventResolvers[0];\n\n        stakingAmount = _stakingAmount;\n\n        ipfsEventHash = _ipfsEventHash;\n\n        setConsensusRules(_consensusRules);\n        setDisputeData(_disputeRules);\n\n        tokenAddress = _cAddresses[0];\n        eventRegistryAddress = _cAddresses[1];\n        permissionRegistry = _cAddresses[2];\n        implementation = _cAddresses[3];\n\n        requiredUserRoles = _requiredUserRoles;\n\n\n        EventRegistryI(eventRegistryAddress).registerEvent();\n    }\n\n    /// Sets consensus rules. For internal use only.\n    function setConsensusRules(uint[6] memory rules) private {\n        consensusRules.minTotalVotes = rules[0];\n        consensusRules.minConsensusVotes = rules[1];\n        consensusRules.minConsensusRatio = rules[2];\n        consensusRules.minParticipantRatio = rules[3];\n        consensusRules.maxParticipants = rules[4];\n        consensusRules.rewardsDistribution = RewardsDistribution(rules[5]);\n    }\n\n    function setDisputeData(uint[4] memory rules) private {\n        uint _multiplier = rules[2];\n        uint _extension = rules[3];\n        if (_multiplier <= 1) {\n            _multiplier = 1;\n        }\n\n        if (_extension == 0) {\n            _extension = 21600; // 6h in seconds\n        }\n\n        dispute.amount = rules[0];\n        dispute.timeout = rules[1];\n        dispute.multiplier = _multiplier;\n        dispute.round = 0;\n        disputeTimeExtension = _extension;\n    }\n}\n",
  "sourcePath": "/Users/dejan/dev/verity-event/contracts/VerityEventProxy.sol",
  "compiler": {
    "name": "solc",
    "version": "0.5.1+commit.c8a2cb62.Emscripten.clang"
  },
  "schemaVersion": "3.0.0",
  "updatedAt": "2019-01-18T11:04:37.318Z",
  "devdoc": {
    "methods": {}
  },
  "userdoc": {
    "methods": {}
  }
}