{
  "contractName": "VerityEvent",
  "abi": [
    {
      "constant": true,
      "inputs": [],
      "name": "rewardsValidationRound",
      "outputs": [
        {
          "name": "",
          "type": "uint256"
        }
      ],
      "payable": false,
      "stateMutability": "view",
      "type": "function"
    },
    {
      "constant": true,
      "inputs": [],
      "name": "eventRegistryAddress",
      "outputs": [
        {
          "name": "",
          "type": "address"
        }
      ],
      "payable": false,
      "stateMutability": "view",
      "type": "function"
    },
    {
      "constant": true,
      "inputs": [],
      "name": "isMasterNode",
      "outputs": [
        {
          "name": "",
          "type": "bool"
        }
      ],
      "payable": false,
      "stateMutability": "view",
      "type": "function"
    },
    {
      "constant": true,
      "inputs": [],
      "name": "getBalance",
      "outputs": [
        {
          "name": "",
          "type": "uint256[2]"
        }
      ],
      "payable": false,
      "stateMutability": "view",
      "type": "function"
    },
    {
      "constant": true,
      "inputs": [],
      "name": "eventCanceled",
      "outputs": [
        {
          "name": "",
          "type": "bool"
        }
      ],
      "payable": false,
      "stateMutability": "view",
      "type": "function"
    },
    {
      "constant": true,
      "inputs": [],
      "name": "requiredNextDisputeAmount",
      "outputs": [
        {
          "name": "",
          "type": "uint256"
        }
      ],
      "payable": false,
      "stateMutability": "view",
      "type": "function"
    },
    {
      "constant": true,
      "inputs": [],
      "name": "getState",
      "outputs": [
        {
          "name": "",
          "type": "uint256"
        }
      ],
      "payable": false,
      "stateMutability": "view",
      "type": "function"
    },
    {
      "constant": false,
      "inputs": [
        {
          "name": "_addresses",
          "type": "address[]"
        },
        {
          "name": "_etherRewards",
          "type": "uint256[]"
        },
        {
          "name": "_tokenRewards",
          "type": "uint256[]"
        }
      ],
      "name": "setRewards",
      "outputs": [],
      "payable": false,
      "stateMutability": "nonpayable",
      "type": "function"
    },
    {
      "constant": true,
      "inputs": [],
      "name": "getReward",
      "outputs": [
        {
          "name": "",
          "type": "uint256[2]"
        }
      ],
      "payable": false,
      "stateMutability": "view",
      "type": "function"
    },
    {
      "constant": true,
      "inputs": [],
      "name": "dataFeedHash",
      "outputs": [
        {
          "name": "",
          "type": "string"
        }
      ],
      "payable": false,
      "stateMutability": "view",
      "type": "function"
    },
    {
      "constant": true,
      "inputs": [],
      "name": "ipfsEventHash",
      "outputs": [
        {
          "name": "",
          "type": "string"
        }
      ],
      "payable": false,
      "stateMutability": "view",
      "type": "function"
    },
    {
      "constant": false,
      "inputs": [
        {
          "name": "_hash",
          "type": "string"
        }
      ],
      "name": "setDataFeedHash",
      "outputs": [],
      "payable": false,
      "stateMutability": "nonpayable",
      "type": "function"
    },
    {
      "constant": false,
      "inputs": [],
      "name": "claimFailed",
      "outputs": [],
      "payable": false,
      "stateMutability": "nonpayable",
      "type": "function"
    },
    {
      "constant": true,
      "inputs": [],
      "name": "getResults",
      "outputs": [
        {
          "name": "",
          "type": "bytes32[]"
        }
      ],
      "payable": false,
      "stateMutability": "view",
      "type": "function"
    },
    {
      "constant": false,
      "inputs": [
        {
          "name": "rewardsHash",
          "type": "string"
        }
      ],
      "name": "markRewardsSet",
      "outputs": [],
      "payable": false,
      "stateMutability": "nonpayable",
      "type": "function"
    },
    {
      "constant": true,
      "inputs": [
        {
          "name": "_addresses",
          "type": "address[]"
        }
      ],
      "name": "getRewards",
      "outputs": [
        {
          "name": "",
          "type": "uint256[]"
        },
        {
          "name": "",
          "type": "uint256[]"
        }
      ],
      "payable": false,
      "stateMutability": "view",
      "type": "function"
    },
    {
      "constant": false,
      "inputs": [],
      "name": "triggerDispute",
      "outputs": [],
      "payable": false,
      "stateMutability": "nonpayable",
      "type": "function"
    },
    {
      "constant": true,
      "inputs": [],
      "name": "getRewardsIndex",
      "outputs": [
        {
          "name": "",
          "type": "address[]"
        }
      ],
      "payable": false,
      "stateMutability": "view",
      "type": "function"
    },
    {
      "constant": true,
      "inputs": [],
      "name": "getParticipants",
      "outputs": [
        {
          "name": "",
          "type": "address[]"
        }
      ],
      "payable": false,
      "stateMutability": "view",
      "type": "function"
    },
    {
      "constant": true,
      "inputs": [],
      "name": "implementation",
      "outputs": [
        {
          "name": "",
          "type": "address"
        }
      ],
      "payable": false,
      "stateMutability": "view",
      "type": "function"
    },
    {
      "constant": true,
      "inputs": [],
      "name": "stakingAmount",
      "outputs": [
        {
          "name": "",
          "type": "uint256"
        }
      ],
      "payable": false,
      "stateMutability": "view",
      "type": "function"
    },
    {
      "constant": true,
      "inputs": [],
      "name": "getEventResolvers",
      "outputs": [
        {
          "name": "",
          "type": "address[]"
        }
      ],
      "payable": false,
      "stateMutability": "view",
      "type": "function"
    },
    {
      "constant": true,
      "inputs": [],
      "name": "eventName",
      "outputs": [
        {
          "name": "",
          "type": "string"
        }
      ],
      "payable": false,
      "stateMutability": "view",
      "type": "function"
    },
    {
      "constant": false,
      "inputs": [
        {
          "name": "validationRound",
          "type": "uint256"
        },
        {
          "name": "altHash",
          "type": "string"
        }
      ],
      "name": "rejectRewards",
      "outputs": [],
      "payable": false,
      "stateMutability": "nonpayable",
      "type": "function"
    },
    {
      "constant": true,
      "inputs": [],
      "name": "getConsensusRules",
      "outputs": [
        {
          "name": "",
          "type": "uint256[6]"
        }
      ],
      "payable": false,
      "stateMutability": "view",
      "type": "function"
    },
    {
      "constant": true,
      "inputs": [],
      "name": "owner",
      "outputs": [
        {
          "name": "",
          "type": "address"
        }
      ],
      "payable": false,
      "stateMutability": "view",
      "type": "function"
    },
    {
      "constant": true,
      "inputs": [],
      "name": "tokenAddress",
      "outputs": [
        {
          "name": "",
          "type": "address"
        }
      ],
      "payable": false,
      "stateMutability": "view",
      "type": "function"
    },
    {
      "constant": false,
      "inputs": [
        {
          "name": "validationRound",
          "type": "uint256"
        }
      ],
      "name": "approveRewards",
      "outputs": [],
      "payable": false,
      "stateMutability": "nonpayable",
      "type": "function"
    },
    {
      "constant": true,
      "inputs": [],
      "name": "getEventTimes",
      "outputs": [
        {
          "name": "",
          "type": "uint256[5]"
        }
      ],
      "payable": false,
      "stateMutability": "view",
      "type": "function"
    },
    {
      "constant": false,
      "inputs": [
        {
          "name": "_results",
          "type": "bytes32[]"
        }
      ],
      "name": "setResults",
      "outputs": [],
      "payable": false,
      "stateMutability": "nonpayable",
      "type": "function"
    },
    {
      "constant": false,
      "inputs": [],
      "name": "claimReward",
      "outputs": [],
      "payable": false,
      "stateMutability": "nonpayable",
      "type": "function"
    },
    {
      "constant": false,
      "inputs": [],
      "name": "triggerStateChange",
      "outputs": [],
      "payable": false,
      "stateMutability": "nonpayable",
      "type": "function"
    },
    {
      "constant": true,
      "inputs": [],
      "name": "getDisputeData",
      "outputs": [
        {
          "name": "",
          "type": "uint256[5]"
        },
        {
          "name": "",
          "type": "address"
        }
      ],
      "payable": false,
      "stateMutability": "view",
      "type": "function"
    },
    {
      "constant": true,
      "inputs": [],
      "name": "getRequiredRoles",
      "outputs": [
        {
          "name": "",
          "type": "uint256[]"
        }
      ],
      "payable": false,
      "stateMutability": "view",
      "type": "function"
    },
    {
      "constant": false,
      "inputs": [],
      "name": "recoverLeftovers",
      "outputs": [],
      "payable": false,
      "stateMutability": "nonpayable",
      "type": "function"
    },
    {
      "constant": true,
      "inputs": [],
      "name": "leftoversRecoverableAfter",
      "outputs": [
        {
          "name": "",
          "type": "uint256"
        }
      ],
      "payable": false,
      "stateMutability": "view",
      "type": "function"
    },
    {
      "constant": true,
      "inputs": [
        {
          "name": "_user",
          "type": "address"
        }
      ],
      "name": "isParticipating",
      "outputs": [
        {
          "name": "",
          "type": "bool"
        }
      ],
      "payable": false,
      "stateMutability": "view",
      "type": "function"
    },
    {
      "constant": false,
      "inputs": [],
      "name": "joinEvent",
      "outputs": [],
      "payable": false,
      "stateMutability": "nonpayable",
      "type": "function"
    },
    {
      "constant": false,
      "inputs": [],
      "name": "cancelEvent",
      "outputs": [],
      "payable": false,
      "stateMutability": "nonpayable",
      "type": "function"
    },
    {
      "constant": true,
      "inputs": [],
      "name": "getEventCategory",
      "outputs": [
        {
          "name": "",
          "type": "bytes32[2]"
        }
      ],
      "payable": false,
      "stateMutability": "view",
      "type": "function"
    },
    {
      "payable": true,
      "stateMutability": "payable",
      "type": "fallback"
    },
    {
      "anonymous": false,
      "inputs": [
        {
          "indexed": false,
          "name": "newState",
          "type": "uint8"
        }
      ],
      "name": "StateTransition",
      "type": "event"
    },
    {
      "anonymous": false,
      "inputs": [
        {
          "indexed": false,
          "name": "wallet",
          "type": "address"
        }
      ],
      "name": "JoinEvent",
      "type": "event"
    },
    {
      "anonymous": false,
      "inputs": [
        {
          "indexed": true,
          "name": "recipient",
          "type": "address"
        },
        {
          "indexed": false,
          "name": "ethReward",
          "type": "uint256"
        },
        {
          "indexed": false,
          "name": "tokenReward",
          "type": "uint256"
        }
      ],
      "name": "ClaimReward",
      "type": "event"
    },
    {
      "anonymous": false,
      "inputs": [
        {
          "indexed": true,
          "name": "byAddress",
          "type": "address"
        },
        {
          "indexed": false,
          "name": "description",
          "type": "string"
        }
      ],
      "name": "Error",
      "type": "event"
    },
    {
      "anonymous": false,
      "inputs": [
        {
          "indexed": false,
          "name": "description",
          "type": "string"
        }
      ],
      "name": "EventFailed",
      "type": "event"
    },
    {
      "anonymous": false,
      "inputs": [
        {
          "indexed": false,
          "name": "validationRound",
          "type": "uint256"
        }
      ],
      "name": "ValidationStarted",
      "type": "event"
    },
    {
      "anonymous": false,
      "inputs": [
        {
          "indexed": false,
          "name": "validationRound",
          "type": "uint256"
        },
        {
          "indexed": false,
          "name": "newMaster",
          "type": "address"
        }
      ],
      "name": "ValidationRestart",
      "type": "event"
    },
    {
      "anonymous": false,
      "inputs": [
        {
          "indexed": false,
          "name": "byAddress",
          "type": "address"
        }
      ],
      "name": "DisputeTriggered",
      "type": "event"
    },
    {
      "anonymous": false,
      "inputs": [
        {
          "indexed": false,
          "name": "recipient",
          "type": "address"
        }
      ],
      "name": "ClaimStake",
      "type": "event"
    }
  ],
  "bytecode": "0x60806040526006805460ff19908116909155602f8054909116905534801561002657600080fd5b5061469b806100366000396000f3fe608060405260043610610257576000357c010000000000000000000000000000000000000000000000000000000090048063739a3e021161014b578063b88a802f116100c8578063f38a803f1161008c578063f38a803f14610c65578063f4caee8814610c7a578063f9010d1914610cad578063fb6c953714610cc2578063fce1a10c14610cd757610257565b8063b88a802f14610bab578063d563f0c514610bc0578063d6e9b01914610bd5578063e0807f8914610c3b578063efba9bd214610c5057610257565b80638da5cb5b1161010f5780638da5cb5b14610a7d5780639d76ea5814610a92578063a77ae83914610aa7578063ab95b58614610ad1578063ac88490214610afb57610257565b8063739a3e021461095a57806374539f981461096f5780638043c9c0146109845780638126cb1e1461099957806381c2d87514610a5357610257565b806342380eaf116101d9578063510ccb431161019d578063510ccb43146107bd57806352f91acf1461090657806354e33cf01461091b5780635aa68ac0146109305780635c60da1b1461094557610257565b806342380eaf146105c8578063437933cc146105dd57806345f99d51146106905780634717f97c146106a55780634b766b951461070a57610257565b8063181b3f5a11610220578063181b3f5a146103475780631865c57d1461035c5780631a0ddce9146103715780633d18b912146105295780634227357c1461053e57610257565b8062f1614214610261578063073f03fb1461028857806311e956c8146102b957806312065fe0146102e2578063148b597c14610332575b61025f610cec565b005b34801561026d57600080fd5b50610276610d11565b60408051918252519081900360200190f35b34801561029457600080fd5b5061029d610d17565b60408051600160a060020a039092168252519081900360200190f35b3480156102c557600080fd5b506102ce610d26565b604080519115158252519081900360200190f35b3480156102ee57600080fd5b506102f7610d38565b6040518082600260200280838360005b8381101561031f578181015183820152602001610307565b5050505090500191505060405180910390f35b34801561033e57600080fd5b506102ce610de8565b34801561035357600080fd5b50610276610df6565b34801561036857600080fd5b50610276610e41565b34801561037d57600080fd5b5061025f6004803603606081101561039457600080fd5b8101906020810181356401000000008111156103af57600080fd5b8201836020820111156103c157600080fd5b803590602001918460208302840111640100000000831117156103e357600080fd5b919080806020026020016040519081016040528093929190818152602001838360200280828437600092019190915250929594936020810193503591505064010000000081111561043357600080fd5b82018360208201111561044557600080fd5b8035906020019184602083028401116401000000008311171561046757600080fd5b91908080602002602001604051908101604052809392919081815260200183836020028082843760009201919091525092959493602081019350359150506401000000008111156104b757600080fd5b8201836020820111156104c957600080fd5b803590602001918460208302840111640100000000831117156104eb57600080fd5b919080806020026020016040519081016040528093929190818152602001838360200280828437600092019190915250929550610e5a945050505050565b34801561053557600080fd5b506102f76111ce565b34801561054a57600080fd5b50610553611210565b6040805160208082528351818301528351919283929083019185019080838360005b8381101561058d578181015183820152602001610575565b50505050905090810190601f1680156105ba5780820380516001836020036101000a031916815260200191505b509250505060405180910390f35b3480156105d457600080fd5b5061055361129e565b3480156105e957600080fd5b5061025f6004803603602081101561060057600080fd5b81019060208101813564010000000081111561061b57600080fd5b82018360208201111561062d57600080fd5b8035906020019184600183028401116401000000008311171561064f57600080fd5b91908080601f0160208091040260200160405190810160405280939291908181526020018383808284376000920191909152509295506112f9945050505050565b34801561069c57600080fd5b5061025f611327565b3480156106b157600080fd5b506106ba611670565b60408051602080825283518183015283519192839290830191858101910280838360005b838110156106f65781810151838201526020016106de565b505050509050019250505060405180910390f35b34801561071657600080fd5b5061025f6004803603602081101561072d57600080fd5b81019060208101813564010000000081111561074857600080fd5b82018360208201111561075a57600080fd5b8035906020019184600183028401116401000000008311171561077c57600080fd5b91908080601f0160208091040260200160405190810160405280939291908181526020018383808284376000920191909152509295506116c8945050505050565b3480156107c957600080fd5b5061086d600480360360208110156107e057600080fd5b8101906020810181356401000000008111156107fb57600080fd5b82018360208201111561080d57600080fd5b8035906020019184602083028401116401000000008311171561082f57600080fd5b919080806020026020016040519081016040528093929190818152602001838360200280828437600092019190915250929550611953945050505050565b604051808060200180602001838103835285818151815260200191508051906020019060200280838360005b838110156108b1578181015183820152602001610899565b50505050905001838103825284818151815260200191508051906020019060200280838360005b838110156108f05781810151838201526020016108d8565b5050505090500194505050505060405180910390f35b34801561091257600080fd5b5061025f611a8e565b34801561092757600080fd5b506106ba611fa9565b34801561093c57600080fd5b506106ba61200a565b34801561095157600080fd5b5061029d61206a565b34801561096657600080fd5b5061027661207f565b34801561097b57600080fd5b506106ba612085565b34801561099057600080fd5b506105536120e5565b3480156109a557600080fd5b5061025f600480360360408110156109bc57600080fd5b813591908101906040810160208201356401000000008111156109de57600080fd5b8201836020820111156109f057600080fd5b80359060200191846001830284011164010000000083111715610a1257600080fd5b91908080601f016020809104026020016040519081016040528093929190818152602001838380828437600092019190915250929550612140945050505050565b348015610a5f57600080fd5b50610a686124b0565b60405181518152808260c08083836020610307565b348015610a8957600080fd5b5061029d612506565b348015610a9e57600080fd5b5061029d612515565b348015610ab357600080fd5b5061025f60048036036020811015610aca57600080fd5b5035612524565b348015610add57600080fd5b50610ae6612746565b60405181518152808260a08083836020610307565b348015610b0757600080fd5b5061025f60048036036020811015610b1e57600080fd5b810190602081018135640100000000811115610b3957600080fd5b820183602082011115610b4b57600080fd5b80359060200191846020830284011164010000000083111715610b6d57600080fd5b919080806020026020016040519081016040528093929190818152602001838360200280828437600092019190915250929550612785945050505050565b348015610bb757600080fd5b5061025f6129d8565b348015610bcc57600080fd5b5061025f612e65565b348015610be157600080fd5b50610bea612f7c565b604051808360a080838360005b83811015610c0f578181015183820152602001610bf7565b5050505090500182600160a060020a0316600160a060020a031681526020019250505060405180910390f35b348015610c4757600080fd5b506106ba612fc8565b348015610c5c57600080fd5b5061025f61301e565b348015610c7157600080fd5b506102766132f3565b348015610c8657600080fd5b506102ce60048036036020811015610c9d57600080fd5b5035600160a060020a03166132f9565b348015610cb957600080fd5b5061025f61331b565b348015610cce57600080fd5b5061025f613960565b348015610ce357600080fd5b506102f7613b04565b610cf4610d0f565b602f54610d0f90620100009004600160a060020a0316613b39565b565b600f5481565b600254600160a060020a031681565b600754600160a060020a031633145b90565b610d406142ff565b604080518082018252308031825260015483517f70a08231000000000000000000000000000000000000000000000000000000008152600481019290925292519192602080850193600160a060020a03909216926370a082319260248083019392829003018186803b158015610db557600080fd5b505afa158015610dc9573d6000803e3d6000fd5b505050506040513d6020811015610ddf57600080fd5b50519052905090565b602f54610100900460ff1681565b601e546000901515610e0b5750601c54610d35565b60205460011415610e3457601e54601c54811515610e2557fe5b04601c60000154019050610d35565b50602054601c5402610d35565b602f5460009060ff166005811115610e5557fe5b905090565b600754600160a060020a03163314610ebc576040805160e560020a62461bcd02815260206004820152601d60248201527f4e6f7420612064657369676e61746564206d6173746572206e6f64652e000000604482015290519081900360640190fd5b6000602f5460ff166005811115610ecf57fe5b148015610ede57506015544210155b15610eeb57610eeb613b5d565b6001602f5460ff166005811115610efe57fe5b148015610f0d57506016544210155b15610f4d576029546011541015610f4557610f406060604051908101604052806033815260200161463d60339139613c37565b610f4d565b610f4d613b5d565b6003602f5460ff166005811115610f6057fe5b148015610f6f5750601f544210155b15610f7c57610f7c613b5d565b6002602f5460ff166005811115610f8f57fe5b148015610fa25750601a54601854014210155b15610fd357610fd36040805190810160405280602081526020016000805160206144f2833981519152815250613c37565b602f5460029060ff166005811115610fe757fe5b816005811115610ff357fe5b146110325760405160e560020a62461bcd0281526004018080602001828103825260248152602001806144ce6024913960400191505060405180910390fd5b82518451148015611044575081518451145b151561104f57600080fd5b600060065460ff16600281111561106257fe5b146110a15760405160e560020a62461bcd0281526004018080602001828103825260268152602001806146176026913960400191505060405180910390fd5b60005b84518110156111c75783818151811015156110bb57fe5b906020019060200201516013600087848151811015156110d757fe5b602090810291909101810151600160a060020a031682528181019290925260409081016000908120818052909252902055825183908290811061111657fe5b9060200190602002015160136000878481518110151561113257fe5b602090810291909101810151600160a060020a03168252818101929092526040908101600090812060018252909252902055845160149086908390811061117557fe5b602090810291909101810151825460018082018555600094855292909320909201805473ffffffffffffffffffffffffffffffffffffffff1916600160a060020a0390931692909217909155016110a4565b5050505050565b6111d66142ff565b5060408051808201825233600090815260136020908152838220828052808252848320548452600183528152929020549181019190915290565b6027805460408051602060026001851615610100026000190190941693909304601f810184900484028201840190925281815292918301828280156112965780601f1061126b57610100808354040283529160200191611296565b820191906000526020600020905b81548152906001019060200180831161127957829003601f168201915b505050505081565b6019805460408051602060026001851615610100026000190190941693909304601f810184900484028201840190925281815292918301828280156112965780601f1061126b57610100808354040283529160200191611296565b600054600160a060020a0316331461131057600080fd5b805161132390602790602084019061431a565b5050565b611330336132f9565b1515611386576040805160e560020a62461bcd02815260206004820152601260248201527f4e6f742070617274696369706174696e672e0000000000000000000000000000604482015290519081900360640190fd5b6000602f5460ff16600581111561139957fe5b1480156113a857506015544210155b156113b5576113b5613b5d565b6001602f5460ff1660058111156113c857fe5b1480156113d757506016544210155b1561141757602954601154101561140f5761140a6060604051908101604052806033815260200161463d60339139613c37565b611417565b611417613b5d565b6003602f5460ff16600581111561142a57fe5b1480156114395750601f544210155b1561144657611446613b5d565b6002602f5460ff16600581111561145957fe5b14801561146c5750601a54601854014210155b1561149d5761149d6040805190810160405280602081526020016000805160206144f2833981519152815250613c37565b602f5460059060ff16818111156114b057fe5b8160058111156114bc57fe5b146114fb5760405160e560020a62461bcd0281526004018080602001828103825260248152602001806144ce6024913960400191505060405180910390fd5b6000601b5411806115235750601e5460001080156115235750602254600160a060020a031633145b1515611579576040805160e560020a62461bcd02815260206004820152601160248201527f4e6f207374616b6520746f20636c61696d000000000000000000000000000000604482015290519081900360640190fd5b602254600090600160a060020a031633141561159457601c54015b601b546001546040805160e060020a63a9059cbb028152336004820152939092016024840181905291519192600160a060020a039091169163a9059cbb916044808201926020929091908290030181600087803b1580156115f457600080fd5b505af1158015611608573d6000803e3d6000fd5b505050506040513d602081101561161e57600080fd5b505033600081815260106020908152604091829020805460ff19169055815192835290517f5a53668be860a256c7ff92bff48881a9db38994032e2b90e5a0bdd51921fbeb79281900390910190a15050565b606060288054806020026020016040519081016040528092919081815260200182805480156116be57602002820191906000526020600020905b8154815260200190600101908083116116aa575b5050505050905090565b600754600160a060020a0316331461172a576040805160e560020a62461bcd02815260206004820152601d60248201527f4e6f7420612064657369676e61746564206d6173746572206e6f64652e000000604482015290519081900360640190fd5b6000602f5460ff16600581111561173d57fe5b14801561174c57506015544210155b1561175957611759613b5d565b6001602f5460ff16600581111561176c57fe5b14801561177b57506016544210155b156117bb5760295460115410156117b3576117ae6060604051908101604052806033815260200161463d60339139613c37565b6117bb565b6117bb613b5d565b6003602f5460ff1660058111156117ce57fe5b1480156117dd5750601f544210155b156117ea576117ea613b5d565b6002602f5460ff1660058111156117fd57fe5b1480156118105750601a54601854014210155b15611841576118416040805190810160405280602081526020016000805160206144f2833981519152815250613c37565b602f5460029060ff16600581111561185557fe5b81600581111561186157fe5b146118a05760405160e560020a62461bcd0281526004018080602001828103825260248152602001806144ce6024913960400191505060405180910390fd5b600060065460ff1660028111156118b357fe5b146118f25760405160e560020a62461bcd0281526004018080602001828103825260268152602001806146176026913960400191505060405180910390fd5b815161190590600890602085019061431a565b50600160098190556006805460ff19169091179055600f5460408051918252517f47c2e9e59e6d2347f314927d02f36b95696a09b5f0ac0bae119ff5ae937016559181900360200190a15050565b60608060608351604051908082528060200260200182016040528015611983578160200160208202803883390190505b509050606084516040519080825280602002602001820160405280156119b3578160200160208202803883390190505b50905060005b8551811015611a83576013600087838151811015156119d457fe5b602090810291909101810151600160a060020a0316825281810192909252604090810160009081208180529092529020548351849083908110611a1357fe5b602090810290910101528551601390600090889084908110611a3157fe5b602090810291909101810151600160a060020a031682528181019290925260409081016000908120600182529092529020548251839083908110611a7157fe5b602090810290910101526001016119b9565b509092509050915091565b6000602f5460ff166005811115611aa157fe5b148015611ab057506015544210155b15611abd57611abd613b5d565b6001602f5460ff166005811115611ad057fe5b148015611adf57506016544210155b15611b1f576029546011541015611b1757611b126060604051908101604052806033815260200161463d60339139613c37565b611b1f565b611b1f613b5d565b6003602f5460ff166005811115611b3257fe5b148015611b415750601f544210155b15611b4e57611b4e613b5d565b6002602f5460ff166005811115611b6157fe5b148015611b745750601a54601854014210155b15611ba557611ba56040805190810160405280602081526020016000805160206144f2833981519152815250613c37565b611bae336132f9565b1515611c04576040805160e560020a62461bcd02815260206004820152601260248201527f4e6f742070617274696369706174696e672e0000000000000000000000000000604482015290519081900360640190fd5b602f5460039060ff166005811115611c1857fe5b816005811115611c2457fe5b14611c635760405160e560020a62461bcd0281526004018080602001828103825260248152602001806144ce6024913960400191505060405180910390fd5b6000611c6d610df6565b600154604080517fdd62ed3e00000000000000000000000000000000000000000000000000000000815233600482015230602482015290519293508392600160a060020a039092169163dd62ed3e91604480820192602092909190829003018186803b158015611cdc57600080fd5b505afa158015611cf0573d6000803e3d6000fd5b505050506040513d6020811015611d0657600080fd5b50511015611d485760405160e560020a62461bcd0281526004018080602001828103825260258152602001806145126025913960400191505060405180910390fd5b3360009081526021602052604090205460ff1615611db0576040805160e560020a62461bcd02815260206004820152601c60248201527f416c726561647920747269676765726564206120646973707574652e00000000604482015290519081900360640190fd5b601e5460001015611e4757600154602254601c546040805160e060020a63a9059cbb028152600160a060020a039384166004820152602481019290925251919092169163a9059cbb9160448083019260209291908290030181600087803b158015611e1a57600080fd5b505af1158015611e2e573d6000803e3d6000fd5b505050506040513d6020811015611e4457600080fd5b50505b601c818155601e80546001908101909155336000818152602160209081526040808320805460ff1916861790556022805473ffffffffffffffffffffffffffffffffffffffff1916851790559354945484517f23b872dd000000000000000000000000000000000000000000000000000000008152600481019490945230602485015260448401529251600160a060020a03909416936323b872dd936064808501949193918390030190829087803b158015611f0257600080fd5b505af1158015611f16573d6000803e3d6000fd5b505050506040513d6020811015611f2c57600080fd5b50611f379050613d7d565b611f3f613e9a565b602f805460ff191660011790556023544281016017819055601681905501601855611f68613f4a565b602e805460ff191690556040805133815290517ff6d97c5e133e50668a6b3607d8748ef6599c3303babb2b08a515a5a67369f45f9181900360200190a15050565b606060148054806020026020016040519081016040528092919081815260200182805480156116be57602002820191906000526020600020905b8154600160a060020a03168152600190910190602001808311611fe3575050505050905090565b606060118054806020026020016040519081016040528092919081815260200182805480156116be57602002820191906000526020600020908154600160a060020a03168152600190910190602001808311611fe3575050505050905090565b602f54620100009004600160a060020a031681565b601b5481565b606060038054806020026020016040519081016040528092919081815260200182805480156116be57602002820191906000526020600020908154600160a060020a03168152600190910190602001808311611fe3575050505050905090565b6024805460408051602060026001851615610100026000190190941693909304601f810184900484028201840190925281815292918301828280156112965780601f1061126b57610100808354040283529160200191611296565b602f5460029060ff16600581111561215457fe5b81600581111561216057fe5b1461219f5760405160e560020a62461bcd0281526004018080602001828103825260248152602001806144ce6024913960400191505060405180910390fd5b826121a933613f92565b80156121ba57506121b8610d26565b155b1515612210576040805160e560020a62461bcd02815260206004820152601b60248201527f4e6f7420612076616c69642073656e64657220616464726573732e0000000000604482015290519081900360640190fd5b600160065460ff16600281111561222357fe5b14612278576040805160e560020a62461bcd02815260206004820152601760248201527f4e6f742076616c69646174696e6720726577617264732e000000000000000000604482015290519081900360640190fd5b600f5481146122d1576040805160e560020a62461bcd02815260206004820152601a60248201527f56616c69646174696f6e20726f756e64206d69736d617463682e000000000000604482015290519081900360640190fd5b600f54336000908152600c602052604090205410612339576040805160e560020a62461bcd02815260206004820152601d60248201527f416c726561647920766f74656420666f72207468697320726f756e642e000000604482015290519081900360640190fd5b600a80546001019055600f54336000908152600c602090815260409182902092909255518451600e9286929182918401908083835b6020831061238d5780518252601f19909201916020918201910161236e565b51815160209384036101000a600019018019909216911617905292019485525060405193849003019092205460ff16151591506124a2905057600b805460018101808355600092909252845161240a917f0175b7a638427703f0dbe7bb9bbf987a2551717b34e79f33b5b1008d1fa01db90190602087019061431a565b50506007600601836040518082805190602001908083835b602083106124415780518252601f199092019160209182019101612422565b51815160001960209485036101000a0190811690199190911617905292019485525060405193849003810190932080546001810182556000918252939020909201805473ffffffffffffffffffffffffffffffffffffffff19163317905550505b6124aa613fef565b50505050565b6124b8614398565b6040805160c0810182526029548152602a546020820152602b5491810191909152602c546060820152602d546080820152602e5460a082019060ff1660018111156124ff57fe5b9052905090565b600054600160a060020a031681565b600154600160a060020a031681565b602f5460029060ff16600581111561253857fe5b81600581111561254457fe5b146125835760405160e560020a62461bcd0281526004018080602001828103825260248152602001806144ce6024913960400191505060405180910390fd5b8161258d33613f92565b801561259e575061259c610d26565b155b15156125f4576040805160e560020a62461bcd02815260206004820152601b60248201527f4e6f7420612076616c69642073656e64657220616464726573732e0000000000604482015290519081900360640190fd5b600160065460ff16600281111561260757fe5b1461265c576040805160e560020a62461bcd02815260206004820152601760248201527f4e6f742076616c69646174696e6720726577617264732e000000000000000000604482015290519081900360640190fd5b600f5481146126b5576040805160e560020a62461bcd02815260206004820152601a60248201527f56616c69646174696f6e20726f756e64206d69736d617463682e000000000000604482015290519081900360640190fd5b600f54336000908152600c60205260409020541061271d576040805160e560020a62461bcd02815260206004820152601d60248201527f416c726561647920766f74656420666f72207468697320726f756e642e000000604482015290519081900360640190fd5b600980546001019055600f54336000908152600c602052604090205561274161400a565b505050565b61274e6143b7565b60a0604051908101604052806015548152602001601654815260200160175481526020016018548152602001601a54815250905090565b600754600160a060020a031633146127e7576040805160e560020a62461bcd02815260206004820152601d60248201527f4e6f7420612064657369676e61746564206d6173746572206e6f64652e000000604482015290519081900360640190fd5b6000602f5460ff1660058111156127fa57fe5b14801561280957506015544210155b1561281657612816613b5d565b6001602f5460ff16600581111561282957fe5b14801561283857506016544210155b156128785760295460115410156128705761286b6060604051908101604052806033815260200161463d60339139613c37565b612878565b612878613b5d565b6003602f5460ff16600581111561288b57fe5b14801561289a5750601f544210155b156128a7576128a7613b5d565b6002602f5460ff1660058111156128ba57fe5b1480156128cd5750601a54601854014210155b156128fe576128fe6040805190810160405280602081526020016000805160206144f2833981519152815250613c37565b602f5460029060ff16600581111561291257fe5b81600581111561291e57fe5b1461295d5760405160e560020a62461bcd0281526004018080602001828103825260248152602001806144ce6024913960400191505060405180910390fd5b600060065460ff16600281111561297057fe5b146129c5576040805160e560020a62461bcd02815260206004820152601e60248201527f4f6e6c79206265666f72652076616c69646174696f6e207374617274732e0000604482015290519081900360640190fd5b81516127419060289060208501906143d6565b6129e1336132f9565b1515612a37576040805160e560020a62461bcd02815260206004820152601260248201527f4e6f742070617274696369706174696e672e0000000000000000000000000000604482015290519081900360640190fd5b6000602f5460ff166005811115612a4a57fe5b148015612a5957506015544210155b15612a6657612a66613b5d565b6001602f5460ff166005811115612a7957fe5b148015612a8857506016544210155b15612ac8576029546011541015612ac057612abb6060604051908101604052806033815260200161463d60339139613c37565b612ac8565b612ac8613b5d565b6003602f5460ff166005811115612adb57fe5b148015612aea5750601f544210155b15612af757612af7613b5d565b6002602f5460ff166005811115612b0a57fe5b148015612b1d5750601a54601854014210155b15612b4e57612b4e6040805190810160405280602081526020016000805160206144f2833981519152815250613c37565b602f5460049060ff166005811115612b6257fe5b816005811115612b6e57fe5b14612bad5760405160e560020a62461bcd0281526004018080602001828103825260248152602001806144ce6024913960400191505060405180910390fd5b336000908152601360209081526040808320838052909152808220546001835291205481158015612bdc575080155b15612c2b5733600160a060020a03166000805160206145378339815191526040518080602001828103825260258152602001806145576025913960400191505060405180910390a25050612e62565b33600090815260136020908152604080832083805290915290205430311080612cf8575033600090815260136020908152604080832060018085529083529281902054925481517f70a082310000000000000000000000000000000000000000000000000000000081523060048201529151600160a060020a03909116926370a082319260248082019391829003018186803b158015612cca57600080fd5b505afa158015612cde573d6000803e3d6000fd5b505050506040513d6020811015612cf457600080fd5b5051105b15612d475733600160a060020a03166000805160206145378339815191526040518080602001828103825260458152602001806145d26045913960600191505060405180910390a25050612e62565b33600081815260136020908152604080832083805290915280822082905560018252808220829055516108fc85150291859190818181858888f19350505050158015612d97573d6000803e3d6000fd5b506000811115612e25576001546040805160e060020a63a9059cbb028152336004820152602481018490529051600160a060020a039092169163a9059cbb916044808201926020929091908290030181600087803b158015612df857600080fd5b505af1158015612e0c573d6000803e3d6000fd5b505050506040513d6020811015612e2257600080fd5b50505b6040805183815260208101839052815133927fe74e5c9d4ac1fc33412485f18c159a0a391efe287ab3fd271123f30e6bacf4e3928290030190a250505b50565b6000602f5460ff166005811115612e7857fe5b148015612e8757506015544210155b15612e9457612e94613b5d565b6001602f5460ff166005811115612ea757fe5b148015612eb657506016544210155b15612ef6576029546011541015612eee57612ee96060604051908101604052806033815260200161463d60339139613c37565b612ef6565b612ef6613b5d565b6003602f5460ff166005811115612f0957fe5b148015612f185750601f544210155b15612f2557612f25613b5d565b6002602f5460ff166005811115612f3857fe5b148015612f4b5750601a54601854014210155b15610d0f57610d0f6040805190810160405280602081526020016000805160206144f2833981519152815250613c37565b612f846143b7565b506040805160a081018252601c548152601d546020808301919091525491810191909152601e546060820152601f546080820152602254600160a060020a03169091565b606060058054806020026020016040519081016040528092919081815260200182805480156116be57602002820191906000526020600020908154815260200190600101908083116116aa575050505050905090565b600054600160a060020a0316331461303557600080fd5b6000602f5460ff16600581111561304857fe5b14801561305757506015544210155b1561306457613064613b5d565b6001602f5460ff16600581111561307757fe5b14801561308657506016544210155b156130c65760295460115410156130be576130b96060604051908101604052806033815260200161463d60339139613c37565b6130c6565b6130c6613b5d565b6003602f5460ff1660058111156130d957fe5b1480156130e85750601f544210155b156130f5576130f5613b5d565b6002602f5460ff16600581111561310857fe5b14801561311b5750601a54601854014210155b1561314c5761314c6040805190810160405280602081526020016000805160206144f2833981519152815250613c37565b6004602f5460ff16600581111561315f57fe5b148061317b57506005602f5460ff16600581111561317957fe5b145b151561318657600080fd5b601a54601854016224ea000142101561319e57600080fd5b60008054604051600160a060020a0390911691303180156108fc02929091818181858888f193505050501580156131d9573d6000803e3d6000fd5b50600154604080517f70a082310000000000000000000000000000000000000000000000000000000081523060048201529051600092600160a060020a0316916370a08231916024808301926020929190829003018186803b15801561323e57600080fd5b505afa158015613252573d6000803e3d6000fd5b505050506040513d602081101561326857600080fd5b5051600154600080546040805160e060020a63a9059cbb028152600160a060020a03928316600482015260248101869052905194955092169263a9059cbb926044808201936020939283900390910190829087803b1580156132c957600080fd5b505af11580156132dd573d6000803e3d6000fd5b505050506040513d602081101561274157600080fd5b601a5481565b600160a060020a03811660009081526010602052604090205460ff165b919050565b6000602f5460ff16600581111561332e57fe5b14801561333d57506015544210155b1561334a5761334a613b5d565b6001602f5460ff16600581111561335d57fe5b14801561336c57506016544210155b156133ac5760295460115410156133a45761339f6060604051908101604052806033815260200161463d60339139613c37565b6133ac565b6133ac613b5d565b6003602f5460ff1660058111156133bf57fe5b1480156133ce5750601f544210155b156133db576133db613b5d565b6002602f5460ff1660058111156133ee57fe5b1480156134015750601a54601854014210155b15613432576134326040805190810160405280602081526020016000805160206144f2833981519152815250613c37565b6005546000108015613517575060048054604080517f35fe903400000000000000000000000000000000000000000000000000000000815233938101848152602482019283526005805460448401819052600160a060020a03909516956335fe9034959094919360640190849080156134ca57602002820191906000526020600020905b8154815260200190600101908083116134b6575b5050935050505060206040518083038186803b1580156134e957600080fd5b505afa1580156134fd573d6000803e3d6000fd5b505050506040513d602081101561351357600080fd5b5051155b15613572576040805160208082526012908201527f5065726d697373696f6e2064656e6965642e00000000000000000000000000008183015290513391600080516020614537833981519152919081900360600190a2610d0f565b602d54601154106135d357604080516020808252600e908201527f4576656e742069732066756c6c2e0000000000000000000000000000000000008183015290513391600080516020614537833981519152919081900360600190a2610d0f565b6135dc336132f9565b1561363757604080516020808252601e908201527f596f752061726520616c72656164792070617274696369706174696e672e00008183015290513391600080516020614537833981519152919081900360600190a2610d0f565b6001602f5460ff16600581111561364a57fe5b146136975733600160a060020a03166000805160206145378339815191526040518080602001828103825260308152602001806145a26030913960400191505060405180910390a2610d0f565b6000601b5411801561373f5750601b54600154604080517fdd62ed3e0000000000000000000000000000000000000000000000000000000081523360048201523060248201529051600160a060020a039092169163dd62ed3e91604480820192602092909190829003018186803b15801561371157600080fd5b505afa158015613725573d6000803e3d6000fd5b505050506040513d602081101561373b57600080fd5b5051105b1561379a576040805160208082526019908201527f4e6f7420656e6f75676820746f6b656e73207374616b65642e000000000000008183015290513391600080516020614537833981519152919081900360600190a2610d0f565b6000601b54111561384857600154601b54604080517f23b872dd000000000000000000000000000000000000000000000000000000008152336004820152306024820152604481019290925251600160a060020a03909216916323b872dd916064808201926020929091908290030181600087803b15801561381b57600080fd5b505af115801561382f573d6000803e3d6000fd5b505050506040513d602081101561384557600080fd5b50505b33600081815260106020526040808220805460ff1916600190811790915560118054918201815583527f31ecc21a745e3968a04e9570e4425bc18fa8019c68028196b546d1669c200c6801805473ffffffffffffffffffffffffffffffffffffffff19168417905560025481517fb9d3514d00000000000000000000000000000000000000000000000000000000815260048101949094529051600160a060020a03919091169263b9d3514d92602480830193919282900301818387803b15801561391257600080fd5b505af1158015613926573d6000803e3d6000fd5b50506040805133815290517f0940fd5e528ae9fa6c086f42387c791c3854e0febdf0717c2da155c9dbf1e86c9350908190036020019150a1565b600054600160a060020a0316331461397757600080fd5b60175442106139d0576040805160e560020a62461bcd02815260206004820152601660248201527f4576656e7420616c726561647920737461727465642e00000000000000000000604482015290519081900360640190fd5b602f805461ff0019166101001790554260185560408051808201909152601a81527f4576656e742063616e63656c65642062792063726561746f722e0000000000006020820152613a2090613c37565b6000601b541115610d0f5760005b601154811015612e625760015460118054600160a060020a039092169163a9059cbb919084908110613a5c57fe5b6000918252602080832090910154601b54604080517c010000000000000000000000000000000000000000000000000000000063ffffffff8816028152600160a060020a03909316600484015260248301919091525160448083019491928390030190829087803b158015613ad057600080fd5b505af1158015613ae4573d6000803e3d6000fd5b505050506040513d6020811015613afa57600080fd5b5050600101613a2e565b613b0c6142ff565b604080518082019182905260258054825290916002906026602085018083116116aa575050505050905090565b3660008037600080366000845af43d6000803e808015613b58573d6000f35b3d6000fd5b6004602f5460ff166005811115613b7057fe5b10613baf5760405160e560020a62461bcd02815260040180806020018281038252602681526020018061457c6026913960400191505060405180910390fd5b602f5460ff166005811115613bc057fe5b6001016005811115613bce57fe5b602f805460ff19166001836005811115613be457fe5b0217905550602f546040517fb9eb8a309bf89f3159b39681f485b6430fec1035b2b457edbcdadcdece888c0b9160ff169080826005811115613c2257fe5b60ff16815260200191505060405180910390a1565b6004602f5460ff166005811115613c4a57fe5b10613c895760405160e560020a62461bcd02815260040180806020018281038252602681526020018061457c6026913960400191505060405180910390fd5b602f805460ff1916600517905560408051602080825283518183015283517f860b7e55e58bd6095b36c4b4016ed8a2e47cb8ebd020fa0e43b32649deb540c3938593928392918301919085019080838360005b83811015613cf4578181015183820152602001613cdc565b50505050905090810190601f168015613d215780820380516001836020036101000a031916815260200191505b509250505060405180910390a1602f546040517fb9eb8a309bf89f3159b39681f485b6430fec1035b2b457edbcdadcdece888c0b9160ff169080826005811115613d6757fe5b60ff16815260200191505060405180910390a150565b60006009819055600a8190555b600b54811015613e3157600b8054600d919083908110613da657fe5b906000526020600020016040518082805460018160011615610100020316600290048015613e0b5780601f10613de9576101008083540402835291820191613e0b565b820191906000526020600020905b815481529060010190602001808311613df7575b50509283525050604051908190036020019020613e29906000614410565b600101613d8a565b50613e3e600b600061442e565b6006805460ff1916905560005b600354811015612e6257600060076005016000600384815481101515613e6d57fe5b6000918252602080832090910154600160a060020a03168352820192909252604001902055600101613e4b565b60005b601454811015613f3d57600060136000601484815481101515613ebc57fe5b600091825260208083209190910154600160a060020a03168352828101939093526040918201812081805290925281209190915560148054601391839185908110613f0357fe5b600091825260208083209190910154600160a060020a03168352828101939093526040918201812060018083529352209190915501613e9d565b50610d0f60146000614410565b602b80546103e8606482810381028290049092019283905560298054808402929092049182019055602a805493820292909204928301909155602d8054929091019091019055565b6000805b600354811015613fe65782600160a060020a0316600382815481101515613fb957fe5b600091825260209091200154600160a060020a03161415613fde576001915050613316565b600101613f96565b50600092915050565b602b54606403613ffd614052565b10610d0f57610d0f61406e565b602b5461401561415e565b10610d0f576006805460ff191660021790556028541561404457601d544201601f5561403f613b5d565b610d0f565b42601f55610d0f6004614174565b600354600a546000919060640281151561406857fe5b04905090565b600160078001600760010160405180828054600181600116156101000203166002900480156140d45780601f106140b25761010080835404028352918201916140d4565b820191906000526020600020905b8154815290600101906020018083116140c0575b50509283525050604051602091819003919091019020805460ff1916911515919091179055600b54600a54600f546009549290910360010191016000190111156141565761403f6040805190810160405280601a81526020017f436f6e73656e7375732063616e27742062652072656163686564000000000000815250613c37565b610d0f6141cb565b6003546009546000919060640281151561406857fe5b602f805482919060ff1916600183600581111561418d57fe5b0217905550602f546040517fb9eb8a309bf89f3159b39681f485b6430fec1035b2b457edbcdadcdece888c0b9160ff169080826005811115613d6757fe5b600f80546001019055600b8054600d919060009081106141e757fe5b90600052602060002001604051808280546001816001161561010002031660029004801561424c5780601f1061422a57610100808354040283529182019161424c565b820191906000526020600020905b815481529060010190602001808311614238575b505092835250506040519081900360200190208054600090811061426c57fe5b6000918252602090912001546007805473ffffffffffffffffffffffffffffffffffffffff1916600160a060020a039092169190911790556142ac613d7d565b6142b4613e9a565b600f5460075460408051928352600160a060020a03909116602083015280517f372d3c1251f28673c4ee2eaf015d5e07bf3145e2df993fd41cae9707f389eaa89281900390910190a1565b60408051808201825290600290829080388339509192915050565b828054600181600116156101000203166002900490600052602060002090601f016020900481019282601f1061435b57805160ff1916838001178555614388565b82800160010185558215614388579182015b8281111561438857825182559160200191906001019061436d565b5061439492915061444c565b5090565b60c0604051908101604052806006906020820280388339509192915050565b60a0604051908101604052806005906020820280388339509192915050565b828054828255906000526020600020908101928215614388579160200282018281111561438857825182559160200191906001019061436d565b5080546000825590600052602060002090810190612e62919061444c565b5080546000825590600052602060002090810190612e629190614466565b610d3591905b808211156143945760008155600101614452565b610d3591905b808211156143945760006144808282614489565b5060010161446c565b50805460018160011615610100020316600290046000825580601f106144af5750612e62565b601f016020900490600052602060002090810190612e62919061444c56fe4e6f7420706f737369626c6520696e2063757272656e74206576656e742073746174652e4576656e7420746f6f6b20746f6f206c6f6e6720746f20636f6d706c6574652e4e6f7420656e6f75676820746f6b656e73207374616b656420666f7220646973707574652ecfa5f641c29090a64bc13dcafdc8c23d82677807046c35d636ca9c57fc9cb257596f7520646f206e6f74206861766520616e79207265776172647320746f20636c61696d2e4576656e742073746174652063616e2774206265206d6f64696669656420616e796d6f72652e596f752063616e206e6f74206a6f696e20746865206576656e7420696e206974732063757272656e742073746174652e437269746963616c206572726f723a206e6f7420656e6f7567682062616c616e636520746f20706179206f7574207265776172642e20436f6e74616374205665726974792e4e6f7420706f737369626c6520696e20746869732076616c69646174696f6e2073746174652e4e6f7420656e6f756768207573657273206a6f696e656420666f72207265717569726564206d696e696d756d20766f7465732ea165627a7a7230582065784170e83c8dc423e20d8d5b8630fa478295b958f8f96a481a670186d3e4a40029",
  "source": "pragma solidity ^0.5.3;\n\n\nimport \"./verity_event/Implementation.sol\";\nimport \"./utility/Proxy.sol\";\n\n\ncontract VerityEvent is Implementation, Proxy {\n}\n",
  "sourcePath": "/Users/hiphop/code/verity-event/contracts/VerityEvent.sol",
  "compiler": {
    "name": "solc",
    "version": "0.5.3+commit.10d17f24.Emscripten.clang"
  },
  "schemaVersion": "3.0.1",
  "updatedAt": "2019-02-22T10:59:37.338Z",
  "devdoc": {
    "methods": {
      "isParticipating(address)": {
        "params": {
          "_user": "The addres to check for participation"
        },
        "return": "{bool} Whether the given address is a participant of this event"
      },
      "setRewards(address[],uint256[],uint256[])": {
        "params": {
          "_addresses": "A list of addresses",
          "_etherRewards": "A list of ether rewards, must be the exact same length as addresses",
          "_tokenRewards": "A list of token rewards, must be the exact same length as addresses"
        }
      }
    }
  },
  "userdoc": {
    "methods": {
      "approveRewards(uint256)": {
        "notice": "Called by event resolver nodes if they agree with rewards"
      },
      "claimReward()": {
        "notice": "Claim a reward. Needs to be called by the users themselves. Only available in the Reward state, after rewards have been received from the validation nodes."
      },
      "getConsensusRules()": {
        "notice": "Returns an array of consensus rules. [minTotalVotes, minConsensusVotes, minConsensusRatio, minParticipantRatio, maxParticipants]"
      },
      "getDisputeData()": {
        "notice": "Returns an array of dispute rules. [dispute amount, dispute timeout, dispute round]"
      },
      "getEventResolvers()": {
        "notice": "Returns the whole array of event resolvers."
      },
      "getReward()": {
        "notice": "Returns the calling user's assigned rewards. Can be 0. Only available to participating users in the Reward state, since rewards are not assigned before that."
      },
      "getRewards(address[])": {
        "notice": "Returns rewards for specified addresses. [[ethRewards, tokenRewards], [ethRewards, tokenRewards], ...]"
      },
      "getRewardsIndex()": {
        "notice": "Returns all the addresses that have rewards set."
      },
      "isMasterNode()": {
        "notice": "Checks if the address is current master node."
      },
      "isParticipating(address)": {
        "notice": "Checks whether an address is participating in this event."
      },
      "joinEvent()": {
        "notice": "Apply for participation in this event. Available only during the Application state. A transaction to this function has to be done by the users themselves, registering their wallet address as a participent. The transaction does not have to include any funds."
      },
      "markRewardsSet(string)": {
        "notice": "Triggered by the master node once rewards are set and ready to validate"
      },
      "rejectRewards(uint256,string)": {
        "notice": "Called by event resolvers if they don't agree with rewards"
      },
      "setRewards(address[],uint256[],uint256[])": {
        "notice": "Assign the actual rewards. Receives a list of addresses and a list rewards. Mapping between the two is done by the addresses' and reward's numerical index in the list, so order is important."
      },
      "triggerDispute()": {
        "notice": "Trigger a dispute."
      }
    }
  }
}