{
  "contractName": "VerityEvent",
  "abi": [
    {
      "constant": true,
      "inputs": [],
      "name": "rewardsValidationRound",
      "outputs": [
        {
          "name": "",
          "type": "uint256"
        }
      ],
      "payable": false,
      "stateMutability": "view",
      "type": "function"
    },
    {
      "constant": true,
      "inputs": [],
      "name": "eventRegistryAddress",
      "outputs": [
        {
          "name": "",
          "type": "address"
        }
      ],
      "payable": false,
      "stateMutability": "view",
      "type": "function"
    },
    {
      "constant": true,
      "inputs": [],
      "name": "isMasterNode",
      "outputs": [
        {
          "name": "",
          "type": "bool"
        }
      ],
      "payable": false,
      "stateMutability": "view",
      "type": "function"
    },
    {
      "constant": true,
      "inputs": [],
      "name": "getBalance",
      "outputs": [
        {
          "name": "",
          "type": "uint256[2]"
        }
      ],
      "payable": false,
      "stateMutability": "view",
      "type": "function"
    },
    {
      "constant": true,
      "inputs": [],
      "name": "requiredNextDisputeAmount",
      "outputs": [
        {
          "name": "",
          "type": "uint256"
        }
      ],
      "payable": false,
      "stateMutability": "view",
      "type": "function"
    },
    {
      "constant": true,
      "inputs": [],
      "name": "getState",
      "outputs": [
        {
          "name": "",
          "type": "uint256"
        }
      ],
      "payable": false,
      "stateMutability": "view",
      "type": "function"
    },
    {
      "constant": false,
      "inputs": [
        {
          "name": "_addresses",
          "type": "address[]"
        },
        {
          "name": "_etherRewards",
          "type": "uint256[]"
        },
        {
          "name": "_tokenRewards",
          "type": "uint256[]"
        }
      ],
      "name": "setRewards",
      "outputs": [],
      "payable": false,
      "stateMutability": "nonpayable",
      "type": "function"
    },
    {
      "constant": true,
      "inputs": [],
      "name": "getReward",
      "outputs": [
        {
          "name": "",
          "type": "uint256[2]"
        }
      ],
      "payable": false,
      "stateMutability": "view",
      "type": "function"
    },
    {
      "constant": true,
      "inputs": [],
      "name": "dataFeedHash",
      "outputs": [
        {
          "name": "",
          "type": "string"
        }
      ],
      "payable": false,
      "stateMutability": "view",
      "type": "function"
    },
    {
      "constant": false,
      "inputs": [
        {
          "name": "_hash",
          "type": "string"
        }
      ],
      "name": "setDataFeedHash",
      "outputs": [],
      "payable": false,
      "stateMutability": "nonpayable",
      "type": "function"
    },
    {
      "constant": false,
      "inputs": [],
      "name": "claimFailed",
      "outputs": [],
      "payable": false,
      "stateMutability": "nonpayable",
      "type": "function"
    },
    {
      "constant": true,
      "inputs": [],
      "name": "getResults",
      "outputs": [
        {
          "name": "",
          "type": "bytes32[]"
        }
      ],
      "payable": false,
      "stateMutability": "view",
      "type": "function"
    },
    {
      "constant": false,
      "inputs": [
        {
          "name": "rewardsHash",
          "type": "string"
        }
      ],
      "name": "markRewardsSet",
      "outputs": [],
      "payable": false,
      "stateMutability": "nonpayable",
      "type": "function"
    },
    {
      "constant": true,
      "inputs": [
        {
          "name": "_addresses",
          "type": "address[]"
        }
      ],
      "name": "getRewards",
      "outputs": [
        {
          "name": "",
          "type": "uint256[]"
        },
        {
          "name": "",
          "type": "uint256[]"
        }
      ],
      "payable": false,
      "stateMutability": "view",
      "type": "function"
    },
    {
      "constant": false,
      "inputs": [],
      "name": "triggerDispute",
      "outputs": [],
      "payable": false,
      "stateMutability": "nonpayable",
      "type": "function"
    },
    {
      "constant": true,
      "inputs": [],
      "name": "getRewardsIndex",
      "outputs": [
        {
          "name": "",
          "type": "address[]"
        }
      ],
      "payable": false,
      "stateMutability": "view",
      "type": "function"
    },
    {
      "constant": true,
      "inputs": [],
      "name": "getParticipants",
      "outputs": [
        {
          "name": "",
          "type": "address[]"
        }
      ],
      "payable": false,
      "stateMutability": "view",
      "type": "function"
    },
    {
      "constant": true,
      "inputs": [],
      "name": "stakingAmount",
      "outputs": [
        {
          "name": "",
          "type": "uint256"
        }
      ],
      "payable": false,
      "stateMutability": "view",
      "type": "function"
    },
    {
      "constant": true,
      "inputs": [],
      "name": "getEventResolvers",
      "outputs": [
        {
          "name": "",
          "type": "address[]"
        }
      ],
      "payable": false,
      "stateMutability": "view",
      "type": "function"
    },
    {
      "constant": true,
      "inputs": [],
      "name": "eventName",
      "outputs": [
        {
          "name": "",
          "type": "string"
        }
      ],
      "payable": false,
      "stateMutability": "view",
      "type": "function"
    },
    {
      "constant": false,
      "inputs": [
        {
          "name": "validationRound",
          "type": "uint256"
        },
        {
          "name": "altHash",
          "type": "string"
        }
      ],
      "name": "rejectRewards",
      "outputs": [],
      "payable": false,
      "stateMutability": "nonpayable",
      "type": "function"
    },
    {
      "constant": true,
      "inputs": [],
      "name": "getConsensusRules",
      "outputs": [
        {
          "name": "",
          "type": "uint256[6]"
        }
      ],
      "payable": false,
      "stateMutability": "view",
      "type": "function"
    },
    {
      "constant": true,
      "inputs": [],
      "name": "owner",
      "outputs": [
        {
          "name": "",
          "type": "address"
        }
      ],
      "payable": false,
      "stateMutability": "view",
      "type": "function"
    },
    {
      "constant": true,
      "inputs": [],
      "name": "tokenAddress",
      "outputs": [
        {
          "name": "",
          "type": "address"
        }
      ],
      "payable": false,
      "stateMutability": "view",
      "type": "function"
    },
    {
      "constant": false,
      "inputs": [
        {
          "name": "validationRound",
          "type": "uint256"
        }
      ],
      "name": "approveRewards",
      "outputs": [],
      "payable": false,
      "stateMutability": "nonpayable",
      "type": "function"
    },
    {
      "constant": true,
      "inputs": [],
      "name": "getEventTimes",
      "outputs": [
        {
          "name": "",
          "type": "uint256[5]"
        }
      ],
      "payable": false,
      "stateMutability": "view",
      "type": "function"
    },
    {
      "constant": false,
      "inputs": [
        {
          "name": "_results",
          "type": "bytes32[]"
        }
      ],
      "name": "setResults",
      "outputs": [],
      "payable": false,
      "stateMutability": "nonpayable",
      "type": "function"
    },
    {
      "constant": false,
      "inputs": [],
      "name": "claimReward",
      "outputs": [],
      "payable": false,
      "stateMutability": "nonpayable",
      "type": "function"
    },
    {
      "constant": true,
      "inputs": [],
      "name": "getDisputeData",
      "outputs": [
        {
          "name": "",
          "type": "uint256[5]"
        },
        {
          "name": "",
          "type": "address"
        }
      ],
      "payable": false,
      "stateMutability": "view",
      "type": "function"
    },
    {
      "constant": false,
      "inputs": [],
      "name": "recoverLeftovers",
      "outputs": [],
      "payable": false,
      "stateMutability": "nonpayable",
      "type": "function"
    },
    {
      "constant": true,
      "inputs": [
        {
          "name": "_user",
          "type": "address"
        }
      ],
      "name": "isParticipating",
      "outputs": [
        {
          "name": "",
          "type": "bool"
        }
      ],
      "payable": false,
      "stateMutability": "view",
      "type": "function"
    },
    {
      "constant": false,
      "inputs": [],
      "name": "joinEvent",
      "outputs": [],
      "payable": false,
      "stateMutability": "nonpayable",
      "type": "function"
    },
    {
      "constant": true,
      "inputs": [],
      "name": "getEventCategory",
      "outputs": [
        {
          "name": "",
          "type": "bytes32[2]"
        }
      ],
      "payable": false,
      "stateMutability": "view",
      "type": "function"
    },
    {
      "payable": true,
      "stateMutability": "payable",
      "type": "fallback"
    },
    {
      "anonymous": false,
      "inputs": [
        {
          "indexed": false,
          "name": "newState",
          "type": "uint8"
        }
      ],
      "name": "StateTransition",
      "type": "event"
    },
    {
      "anonymous": false,
      "inputs": [
        {
          "indexed": false,
          "name": "wallet",
          "type": "address"
        }
      ],
      "name": "JoinEvent",
      "type": "event"
    },
    {
      "anonymous": false,
      "inputs": [
        {
          "indexed": false,
          "name": "recipient",
          "type": "address"
        }
      ],
      "name": "ClaimReward",
      "type": "event"
    },
    {
      "anonymous": false,
      "inputs": [
        {
          "indexed": true,
          "name": "byAddress",
          "type": "address"
        },
        {
          "indexed": false,
          "name": "description",
          "type": "string"
        }
      ],
      "name": "Error",
      "type": "event"
    },
    {
      "anonymous": false,
      "inputs": [
        {
          "indexed": false,
          "name": "description",
          "type": "string"
        }
      ],
      "name": "EventFailed",
      "type": "event"
    },
    {
      "anonymous": false,
      "inputs": [
        {
          "indexed": false,
          "name": "validationRound",
          "type": "uint256"
        }
      ],
      "name": "ValidationStarted",
      "type": "event"
    },
    {
      "anonymous": false,
      "inputs": [
        {
          "indexed": false,
          "name": "validationRound",
          "type": "uint256"
        }
      ],
      "name": "ValidationRestart",
      "type": "event"
    },
    {
      "anonymous": false,
      "inputs": [
        {
          "indexed": false,
          "name": "byAddress",
          "type": "address"
        }
      ],
      "name": "DisputeTriggered",
      "type": "event"
    },
    {
      "anonymous": false,
      "inputs": [
        {
          "indexed": false,
          "name": "recipient",
          "type": "address"
        }
      ],
      "name": "ClaimStake",
      "type": "event"
    }
  ],
  "bytecode": "0x60806040526006805460ff19908116909155602f8054909116905534801561002657600080fd5b50613eab806100366000396000f3fe608060405260043610610199577c01000000000000000000000000000000000000000000000000000000006000350462f16142811461019b578063073f03fb146101c257806311e956c8146101f357806312065fe01461021c578063181b3f5a1461026c5780631865c57d146102815780631a0ddce9146102965780633d18b9121461044e5780634227357c14610463578063437933cc146104ed57806345f99d51146105a05780634717f97c146105b55780634b766b951461061a578063510ccb43146106cd57806352f91acf1461081657806354e33cf01461082b5780635aa68ac014610840578063739a3e021461085557806374539f981461086a5780638043c9c01461087f5780638126cb1e1461089457806381c2d8751461094e5780638da5cb5b146109785780639d76ea581461098d578063a77ae839146109a2578063ab95b586146109cc578063ac884902146109f6578063b88a802f14610aa6578063d6e9b01914610abb578063efba9bd214610b21578063f4caee8814610b36578063f9010d1914610b69578063fce1a10c14610b7e575b005b3480156101a757600080fd5b506101b0610b93565b60408051918252519081900360200190f35b3480156101ce57600080fd5b506101d7610b99565b60408051600160a060020a039092168252519081900360200190f35b3480156101ff57600080fd5b50610208610ba8565b604080519115158252519081900360200190f35b34801561022857600080fd5b50610231610bba565b6040518082600260200280838360005b83811015610259578181015183820152602001610241565b5050505090500191505060405180910390f35b34801561027857600080fd5b506101b0610c6a565b34801561028d57600080fd5b506101b0610cb5565b3480156102a257600080fd5b50610199600480360360608110156102b957600080fd5b8101906020810181356401000000008111156102d457600080fd5b8201836020820111156102e657600080fd5b8035906020019184602083028401116401000000008311171561030857600080fd5b919080806020026020016040519081016040528093929190818152602001838360200280828437600092019190915250929594936020810193503591505064010000000081111561035857600080fd5b82018360208201111561036a57600080fd5b8035906020019184602083028401116401000000008311171561038c57600080fd5b91908080602002602001604051908101604052809392919081815260200183836020028082843760009201919091525092959493602081019350359150506401000000008111156103dc57600080fd5b8201836020820111156103ee57600080fd5b8035906020019184602083028401116401000000008311171561041057600080fd5b919080806020026020016040519081016040528093929190818152602001838360200280828437600092019190915250929550610cce945050505050565b34801561045a57600080fd5b50610231611059565b34801561046f57600080fd5b5061047861109b565b6040805160208082528351818301528351919283929083019185019080838360005b838110156104b257818101518382015260200161049a565b50505050905090810190601f1680156104df5780820380516001836020036101000a031916815260200191505b509250505060405180910390f35b3480156104f957600080fd5b506101996004803603602081101561051057600080fd5b81019060208101813564010000000081111561052b57600080fd5b82018360208201111561053d57600080fd5b8035906020019184600183028401116401000000008311171561055f57600080fd5b91908080601f016020809104026020016040519081016040528093929190818152602001838380828437600092019190915250929550611129945050505050565b3480156105ac57600080fd5b50610199611157565b3480156105c157600080fd5b506105ca61147b565b60408051602080825283518183015283519192839290830191858101910280838360005b838110156106065781810151838201526020016105ee565b505050509050019250505060405180910390f35b34801561062657600080fd5b506101996004803603602081101561063d57600080fd5b81019060208101813564010000000081111561065857600080fd5b82018360208201111561066a57600080fd5b8035906020019184600183028401116401000000008311171561068c57600080fd5b91908080601f0160208091040260200160405190810160405280939291908181526020018383808284376000920191909152509295506114d3945050505050565b3480156106d957600080fd5b5061077d600480360360208110156106f057600080fd5b81019060208101813564010000000081111561070b57600080fd5b82018360208201111561071d57600080fd5b8035906020019184602083028401116401000000008311171561073f57600080fd5b919080806020026020016040519081016040528093929190818152602001838360200280828437600092019190915250929550611775945050505050565b604051808060200180602001838103835285818151815260200191508051906020019060200280838360005b838110156107c15781810151838201526020016107a9565b50505050905001838103825284818151815260200191508051906020019060200280838360005b838110156108005781810151838201526020016107e8565b5050505090500194505050505060405180910390f35b34801561082257600080fd5b506101996118b0565b34801561083757600080fd5b506105ca611de2565b34801561084c57600080fd5b506105ca611e43565b34801561086157600080fd5b506101b0611ea3565b34801561087657600080fd5b506105ca611ea9565b34801561088b57600080fd5b50610478611f09565b3480156108a057600080fd5b50610199600480360360408110156108b757600080fd5b813591908101906040810160208201356401000000008111156108d957600080fd5b8201836020820111156108eb57600080fd5b8035906020019184600183028401116401000000008311171561090d57600080fd5b91908080601f016020809104026020016040519081016040528093929190818152602001838380828437600092019190915250929550611f64945050505050565b34801561095a57600080fd5b506109636122e7565b60405181518152808260c08083836020610241565b34801561098457600080fd5b506101d761233d565b34801561099957600080fd5b506101d761234c565b3480156109ae57600080fd5b50610199600480360360208110156109c557600080fd5b503561235b565b3480156109d857600080fd5b506109e1612590565b60405181518152808260a08083836020610241565b348015610a0257600080fd5b5061019960048036036020811015610a1957600080fd5b810190602081018135640100000000811115610a3457600080fd5b820183602082011115610a4657600080fd5b80359060200191846020830284011164010000000083111715610a6857600080fd5b9190808060200260200160405190810160405280939291908181526020018383602002808284376000920191909152509295506125cf945050505050565b348015610ab257600080fd5b50610199612795565b348015610ac757600080fd5b50610ad0612c84565b604051808360a080838360005b83811015610af5578181015183820152602001610add565b5050505090500182600160a060020a0316600160a060020a031681526020019250505060405180910390f35b348015610b2d57600080fd5b50610199612cd0565b348015610b4257600080fd5b5061020860048036036020811015610b5957600080fd5b5035600160a060020a0316612e4b565b348015610b7557600080fd5b50610199612e6d565b348015610b8a57600080fd5b506102316134af565b600f5481565b600254600160a060020a031681565b600754600160a060020a031633145b90565b610bc2613c31565b604080518082018252308031825260015483517f70a08231000000000000000000000000000000000000000000000000000000008152600481019290925292519192602080850193600160a060020a03909216926370a082319260248083019392829003018186803b158015610c3757600080fd5b505afa158015610c4b573d6000803e3d6000fd5b505050506040513d6020811015610c6157600080fd5b50519052905090565b601e546000901515610c7f5750601c54610bb7565b60205460011415610ca857601e54601c54811515610c9957fe5b04601c60000154019050610bb7565b50602054601c5402610bb7565b602f5460009060ff166005811115610cc957fe5b905090565b600754600160a060020a03163314610d30576040805160e560020a62461bcd02815260206004820152601d60248201527f4e6f7420612064657369676e61746564206d6173746572206e6f64652e000000604482015290519081900360640190fd5b6000602f5460ff166005811115610d4357fe5b148015610d5257506015544210155b15610d5f57610d5f6134e4565b6001602f5460ff166005811115610d7257fe5b148015610d8157506016544210155b15610de0576029546011541015610dd857610dd360606040519081016040528060338152602001600080516020613e008339815191528152602001600080516020613e408339815191528152506135fa565b610de0565b610de06134e4565b6003602f5460ff166005811115610df357fe5b148015610e025750601f544210155b15610e0f57610e0f6134e4565b602f5460029060ff166005811115610e2357fe5b816005811115610e2f57fe5b14610e81576040805160e560020a62461bcd02815260206004820152602480820152600080516020613e60833981519152604482015260e160020a6330ba329702606482015290519081900360840190fd5b82518451148015610e93575081518451145b1515610e9e57600080fd5b600060065460ff166002811115610eb157fe5b14610f2c576040805160e560020a62461bcd02815260206004820152602660248201527f4e6f7420706f737369626c6520696e20746869732076616c69646174696f6e2060448201527f73746174652e0000000000000000000000000000000000000000000000000000606482015290519081900360840190fd5b60005b8451811015611052578381815181101515610f4657fe5b90602001906020020151601360008784815181101515610f6257fe5b602090810291909101810151600160a060020a0316825281810192909252604090810160009081208180529092529020558251839082908110610fa157fe5b90602001906020020151601360008784815181101515610fbd57fe5b602090810291909101810151600160a060020a03168252818101929092526040908101600090812060018252909252902055845160149086908390811061100057fe5b602090810291909101810151825460018082018555600094855292909320909201805473ffffffffffffffffffffffffffffffffffffffff1916600160a060020a039093169290921790915501610f2f565b5050505050565b611061613c31565b5060408051808201825233600090815260136020908152838220828052808252848320548452600183528152929020549181019190915290565b6027805460408051602060026001851615610100026000190190941693909304601f810184900484028201840190925281815292918301828280156111215780601f106110f657610100808354040283529160200191611121565b820191906000526020600020905b81548152906001019060200180831161110457829003601f168201915b505050505081565b600054600160a060020a0316331461114057600080fd5b8051611153906027906020840190613c4c565b5050565b61116033612e4b565b15156111b6576040805160e560020a62461bcd02815260206004820152601260248201527f4e6f742070617274696369706174696e672e0000000000000000000000000000604482015290519081900360640190fd5b6000602f5460ff1660058111156111c957fe5b1480156111d857506015544210155b156111e5576111e56134e4565b6001602f5460ff1660058111156111f857fe5b14801561120757506016544210155b1561126657602954601154101561125e5761125960606040519081016040528060338152602001600080516020613e008339815191528152602001600080516020613e408339815191528152506135fa565b611266565b6112666134e4565b6003602f5460ff16600581111561127957fe5b1480156112885750601f544210155b15611295576112956134e4565b602f5460059060ff16818111156112a857fe5b8160058111156112b457fe5b14611306576040805160e560020a62461bcd02815260206004820152602480820152600080516020613e60833981519152604482015260e160020a6330ba329702606482015290519081900360840190fd5b6000601b54118061132e5750601e54600010801561132e5750602254600160a060020a031633145b1515611384576040805160e560020a62461bcd02815260206004820152601160248201527f4e6f207374616b6520746f20636c61696d000000000000000000000000000000604482015290519081900360640190fd5b602254600090600160a060020a031633141561139f57601c54015b601b546001546040805160e060020a63a9059cbb028152336004820152939092016024840181905291519192600160a060020a039091169163a9059cbb916044808201926020929091908290030181600087803b1580156113ff57600080fd5b505af1158015611413573d6000803e3d6000fd5b505050506040513d602081101561142957600080fd5b505033600081815260106020908152604091829020805460ff19169055815192835290517f5a53668be860a256c7ff92bff48881a9db38994032e2b90e5a0bdd51921fbeb79281900390910190a15050565b606060288054806020026020016040519081016040528092919081815260200182805480156114c957602002820191906000526020600020905b8154815260200190600101908083116114b5575b5050505050905090565b600754600160a060020a03163314611535576040805160e560020a62461bcd02815260206004820152601d60248201527f4e6f7420612064657369676e61746564206d6173746572206e6f64652e000000604482015290519081900360640190fd5b6000602f5460ff16600581111561154857fe5b14801561155757506015544210155b15611564576115646134e4565b6001602f5460ff16600581111561157757fe5b14801561158657506016544210155b156115e55760295460115410156115dd576115d860606040519081016040528060338152602001600080516020613e008339815191528152602001600080516020613e408339815191528152506135fa565b6115e5565b6115e56134e4565b6003602f5460ff1660058111156115f857fe5b1480156116075750601f544210155b15611614576116146134e4565b602f5460029060ff16600581111561162857fe5b81600581111561163457fe5b14611686576040805160e560020a62461bcd02815260206004820152602480820152600080516020613e60833981519152604482015260e160020a6330ba329702606482015290519081900360840190fd5b600060065460ff16600281111561169957fe5b14611714576040805160e560020a62461bcd02815260206004820152602660248201527f4e6f7420706f737369626c6520696e20746869732076616c69646174696f6e2060448201527f73746174652e0000000000000000000000000000000000000000000000000000606482015290519081900360840190fd5b8151611727906008906020850190613c4c565b50600160098190556006805460ff19169091179055600f5460408051918252517f47c2e9e59e6d2347f314927d02f36b95696a09b5f0ac0bae119ff5ae937016559181900360200190a15050565b606080606083516040519080825280602002602001820160405280156117a5578160200160208202803883390190505b509050606084516040519080825280602002602001820160405280156117d5578160200160208202803883390190505b50905060005b85518110156118a5576013600087838151811015156117f657fe5b602090810291909101810151600160a060020a031682528181019290925260409081016000908120818052909252902054835184908390811061183557fe5b60209081029091010152855160139060009088908490811061185357fe5b602090810291909101810151600160a060020a03168252818101929092526040908101600090812060018252909252902054825183908390811061189357fe5b602090810290910101526001016117db565b509092509050915091565b6000602f5460ff1660058111156118c357fe5b1480156118d257506015544210155b156118df576118df6134e4565b6001602f5460ff1660058111156118f257fe5b14801561190157506016544210155b156119605760295460115410156119585761195360606040519081016040528060338152602001600080516020613e008339815191528152602001600080516020613e408339815191528152506135fa565b611960565b6119606134e4565b6003602f5460ff16600581111561197357fe5b1480156119825750601f544210155b1561198f5761198f6134e4565b61199833612e4b565b15156119ee576040805160e560020a62461bcd02815260206004820152601260248201527f4e6f742070617274696369706174696e672e0000000000000000000000000000604482015290519081900360640190fd5b602f5460039060ff166005811115611a0257fe5b816005811115611a0e57fe5b14611a60576040805160e560020a62461bcd02815260206004820152602480820152600080516020613e60833981519152604482015260e160020a6330ba329702606482015290519081900360840190fd5b6000611a6a610c6a565b600154604080517fdd62ed3e00000000000000000000000000000000000000000000000000000000815233600482015230602482015290519293508392600160a060020a039092169163dd62ed3e91604480820192602092909190829003018186803b158015611ad957600080fd5b505afa158015611aed573d6000803e3d6000fd5b505050506040513d6020811015611b0357600080fd5b50511015611b81576040805160e560020a62461bcd02815260206004820152602560248201527f4e6f7420656e6f75676820746f6b656e73207374616b656420666f722064697360448201527f707574652e000000000000000000000000000000000000000000000000000000606482015290519081900360840190fd5b3360009081526021602052604090205460ff1615611be9576040805160e560020a62461bcd02815260206004820152601c60248201527f416c726561647920747269676765726564206120646973707574652e00000000604482015290519081900360640190fd5b601e5460001015611c8057600154602254601c546040805160e060020a63a9059cbb028152600160a060020a039384166004820152602481019290925251919092169163a9059cbb9160448083019260209291908290030181600087803b158015611c5357600080fd5b505af1158015611c67573d6000803e3d6000fd5b505050506040513d6020811015611c7d57600080fd5b50505b601c818155601e80546001908101909155336000818152602160209081526040808320805460ff1916861790556022805473ffffffffffffffffffffffffffffffffffffffff1916851790559354945484517f23b872dd000000000000000000000000000000000000000000000000000000008152600481019490945230602485015260448401529251600160a060020a03909416936323b872dd936064808501949193918390030190829087803b158015611d3b57600080fd5b505af1158015611d4f573d6000803e3d6000fd5b505050506040513d6020811015611d6557600080fd5b50611d709050613730565b611d7861384d565b602f805460ff191660011790556023544281016017819055601681905501601855611da16138fd565b602e805460ff191690556040805133815290517ff6d97c5e133e50668a6b3607d8748ef6599c3303babb2b08a515a5a67369f45f9181900360200190a15050565b606060148054806020026020016040519081016040528092919081815260200182805480156114c957602002820191906000526020600020905b8154600160a060020a03168152600190910190602001808311611e1c575050505050905090565b606060118054806020026020016040519081016040528092919081815260200182805480156114c957602002820191906000526020600020908154600160a060020a03168152600190910190602001808311611e1c575050505050905090565b601b5481565b606060038054806020026020016040519081016040528092919081815260200182805480156114c957602002820191906000526020600020908154600160a060020a03168152600190910190602001808311611e1c575050505050905090565b6024805460408051602060026001851615610100026000190190941693909304601f810184900484028201840190925281815292918301828280156111215780601f106110f657610100808354040283529160200191611121565b602f5460029060ff166005811115611f7857fe5b816005811115611f8457fe5b14611fd6576040805160e560020a62461bcd02815260206004820152602480820152600080516020613e60833981519152604482015260e160020a6330ba329702606482015290519081900360840190fd5b82611fe033613945565b8015611ff15750611fef610ba8565b155b1515612047576040805160e560020a62461bcd02815260206004820152601b60248201527f4e6f7420612076616c69642073656e64657220616464726573732e0000000000604482015290519081900360640190fd5b600160065460ff16600281111561205a57fe5b146120af576040805160e560020a62461bcd02815260206004820152601760248201527f4e6f742076616c69646174696e6720726577617264732e000000000000000000604482015290519081900360640190fd5b600f548114612108576040805160e560020a62461bcd02815260206004820152601a60248201527f56616c69646174696f6e20726f756e64206d69736d617463682e000000000000604482015290519081900360640190fd5b600f54336000908152600c602052604090205410612170576040805160e560020a62461bcd02815260206004820152601d60248201527f416c726561647920766f74656420666f72207468697320726f756e642e000000604482015290519081900360640190fd5b600a80546001019055600f54336000908152600c602090815260409182902092909255518451600e9286929182918401908083835b602083106121c45780518252601f1990920191602091820191016121a5565b51815160209384036101000a600019018019909216911617905292019485525060405193849003019092205460ff16151591506122d9905057600b8054600181018083556000929092528451612241917f0175b7a638427703f0dbe7bb9bbf987a2551717b34e79f33b5b1008d1fa01db901906020870190613c4c565b50506007600601836040518082805190602001908083835b602083106122785780518252601f199092019160209182019101612259565b51815160001960209485036101000a0190811690199190911617905292019485525060405193849003810190932080546001810182556000918252939020909201805473ffffffffffffffffffffffffffffffffffffffff19163317905550505b6122e16139a2565b50505050565b6122ef613cca565b6040805160c0810182526029548152602a546020820152602b5491810191909152602c546060820152602d546080820152602e5460a082019060ff16600181111561233657fe5b9052905090565b600054600160a060020a031681565b600154600160a060020a031681565b602f5460029060ff16600581111561236f57fe5b81600581111561237b57fe5b146123cd576040805160e560020a62461bcd02815260206004820152602480820152600080516020613e60833981519152604482015260e160020a6330ba329702606482015290519081900360840190fd5b816123d733613945565b80156123e857506123e6610ba8565b155b151561243e576040805160e560020a62461bcd02815260206004820152601b60248201527f4e6f7420612076616c69642073656e64657220616464726573732e0000000000604482015290519081900360640190fd5b600160065460ff16600281111561245157fe5b146124a6576040805160e560020a62461bcd02815260206004820152601760248201527f4e6f742076616c69646174696e6720726577617264732e000000000000000000604482015290519081900360640190fd5b600f5481146124ff576040805160e560020a62461bcd02815260206004820152601a60248201527f56616c69646174696f6e20726f756e64206d69736d617463682e000000000000604482015290519081900360640190fd5b600f54336000908152600c602052604090205410612567576040805160e560020a62461bcd02815260206004820152601d60248201527f416c726561647920766f74656420666f72207468697320726f756e642e000000604482015290519081900360640190fd5b600980546001019055600f54336000908152600c602052604090205561258b6139bd565b505050565b612598613ce9565b60a0604051908101604052806015548152602001601654815260200160175481526020016018548152602001601a54815250905090565b600754600160a060020a03163314612631576040805160e560020a62461bcd02815260206004820152601d60248201527f4e6f7420612064657369676e61746564206d6173746572206e6f64652e000000604482015290519081900360640190fd5b6000602f5460ff16600581111561264457fe5b14801561265357506015544210155b15612660576126606134e4565b6001602f5460ff16600581111561267357fe5b14801561268257506016544210155b156126e15760295460115410156126d9576126d460606040519081016040528060338152602001600080516020613e008339815191528152602001600080516020613e408339815191528152506135fa565b6126e1565b6126e16134e4565b6003602f5460ff1660058111156126f457fe5b1480156127035750601f544210155b15612710576127106134e4565b602f5460029060ff16600581111561272457fe5b81600581111561273057fe5b14612782576040805160e560020a62461bcd02815260206004820152602480820152600080516020613e60833981519152604482015260e160020a6330ba329702606482015290519081900360840190fd5b815161258b906028906020850190613d08565b61279e33612e4b565b15156127f4576040805160e560020a62461bcd02815260206004820152601260248201527f4e6f742070617274696369706174696e672e0000000000000000000000000000604482015290519081900360640190fd5b6000602f5460ff16600581111561280757fe5b14801561281657506015544210155b15612823576128236134e4565b6001602f5460ff16600581111561283657fe5b14801561284557506016544210155b156128a457602954601154101561289c5761289760606040519081016040528060338152602001600080516020613e008339815191528152602001600080516020613e408339815191528152506135fa565b6128a4565b6128a46134e4565b6003602f5460ff1660058111156128b757fe5b1480156128c65750601f544210155b156128d3576128d36134e4565b602f5460049060ff1660058111156128e757fe5b8160058111156128f357fe5b14612945576040805160e560020a62461bcd02815260206004820152602480820152600080516020613e60833981519152604482015260e160020a6330ba329702606482015290519081900360840190fd5b336000908152601360209081526040808320838052909152808220546001835291205481158015612974575080155b156129f7576040805160208082526025908201527f596f7520646f206e6f74206861766520616e79207265776172647320746f2063818301527f6c61696d2e000000000000000000000000000000000000000000000000000000606082015290513391600080516020613e20833981519152919081900360800190a25050612c81565b33600090815260136020908152604080832083805290915290205430311080612ac4575033600090815260136020908152604080832060018085529083529281902054925481517f70a082310000000000000000000000000000000000000000000000000000000081523060048201529151600160a060020a03909116926370a082319260248082019391829003018186803b158015612a9657600080fd5b505afa158015612aaa573d6000803e3d6000fd5b505050506040513d6020811015612ac057600080fd5b5051105b15612b6d576040805160208082526045908201527f437269746963616c206572726f723a206e6f7420656e6f7567682062616c616e818301527f636520746f20706179206f7574207265776172642e20436f6e7461637420566560608201527f726974792e000000000000000000000000000000000000000000000000000000608082015290513391600080516020613e20833981519152919081900360a00190a25050612c81565b33600081815260136020908152604080832083805290915280822082905560018252808220829055516108fc85150291859190818181858888f19350505050158015612bbd573d6000803e3d6000fd5b506000811115612c4b576001546040805160e060020a63a9059cbb028152336004820152602481018490529051600160a060020a039092169163a9059cbb916044808201926020929091908290030181600087803b158015612c1e57600080fd5b505af1158015612c32573d6000803e3d6000fd5b505050506040513d6020811015612c4857600080fd5b50505b6040805133815290517f63e32091e4445d16e29c33a6b264577c2d86694021aa4e6f4dd590048f5792e89181900360200190a150505b50565b612c8c613ce9565b506040805160a081018252601c548152601d546020808301919091525491810191909152601e546060820152601f546080820152602254600160a060020a03169091565b600054600160a060020a03163314612ce757600080fd5b601a54421015612cf657600080fd5b60008054604051600160a060020a0390911691303180156108fc02929091818181858888f19350505050158015612d31573d6000803e3d6000fd5b50600154604080517f70a082310000000000000000000000000000000000000000000000000000000081523060048201529051600092600160a060020a0316916370a08231916024808301926020929190829003018186803b158015612d9657600080fd5b505afa158015612daa573d6000803e3d6000fd5b505050506040513d6020811015612dc057600080fd5b5051600154600080546040805160e060020a63a9059cbb028152600160a060020a03928316600482015260248101869052905194955092169263a9059cbb926044808201936020939283900390910190829087803b158015612e2157600080fd5b505af1158015612e35573d6000803e3d6000fd5b505050506040513d602081101561258b57600080fd5b600160a060020a03811660009081526010602052604090205460ff165b919050565b6000602f5460ff166005811115612e8057fe5b148015612e8f57506015544210155b15612e9c57612e9c6134e4565b6001602f5460ff166005811115612eaf57fe5b148015612ebe57506016544210155b15612f1d576029546011541015612f1557612f1060606040519081016040528060338152602001600080516020613e008339815191528152602001600080516020613e408339815191528152506135fa565b612f1d565b612f1d6134e4565b6003602f5460ff166005811115612f3057fe5b148015612f3f5750601f544210155b15612f4c57612f4c6134e4565b6005546000108015613031575060048054604080517f35fe903400000000000000000000000000000000000000000000000000000000815233938101848152602482019283526005805460448401819052600160a060020a03909516956335fe903495909491936064019084908015612fe457602002820191906000526020600020905b815481526020019060010190808311612fd0575b5050935050505060206040518083038186803b15801561300357600080fd5b505afa158015613017573d6000803e3d6000fd5b505050506040513d602081101561302d57600080fd5b5051155b1561308c576040805160208082526012908201527f5065726d697373696f6e2064656e6965642e00000000000000000000000000008183015290513391600080516020613e20833981519152919081900360600190a26134ad565b602d54601154106130ed57604080516020808252600e908201527f4576656e742069732066756c6c2e0000000000000000000000000000000000008183015290513391600080516020613e20833981519152919081900360600190a26134ad565b6130f633612e4b565b1561315157604080516020808252601e908201527f596f752061726520616c72656164792070617274696369706174696e672e00008183015290513391600080516020613e20833981519152919081900360600190a26134ad565b6001602f5460ff16600581111561316457fe5b146131e557604080516020808252602b908201527f596f752063616e206f6e6c79206a6f696e20696e20746865204170706c696361818301527f74696f6e2073746174652e000000000000000000000000000000000000000000606082015290513391600080516020613e20833981519152919081900360800190a26134ad565b6000601b5411801561328d5750601b54600154604080517fdd62ed3e0000000000000000000000000000000000000000000000000000000081523360048201523060248201529051600160a060020a039092169163dd62ed3e91604480820192602092909190829003018186803b15801561325f57600080fd5b505afa158015613273573d6000803e3d6000fd5b505050506040513d602081101561328957600080fd5b5051105b156132e8576040805160208082526019908201527f4e6f7420656e6f75676820746f6b656e73207374616b65642e000000000000008183015290513391600080516020613e20833981519152919081900360600190a26134ad565b6000601b54111561339657600154601b54604080517f23b872dd000000000000000000000000000000000000000000000000000000008152336004820152306024820152604481019290925251600160a060020a03909216916323b872dd916064808201926020929091908290030181600087803b15801561336957600080fd5b505af115801561337d573d6000803e3d6000fd5b505050506040513d602081101561339357600080fd5b50505b33600081815260106020526040808220805460ff1916600190811790915560118054918201815583527f31ecc21a745e3968a04e9570e4425bc18fa8019c68028196b546d1669c200c6801805473ffffffffffffffffffffffffffffffffffffffff19168417905560025481517fb9d3514d00000000000000000000000000000000000000000000000000000000815260048101949094529051600160a060020a03919091169263b9d3514d92602480830193919282900301818387803b15801561346057600080fd5b505af1158015613474573d6000803e3d6000fd5b50506040805133815290517f0940fd5e528ae9fa6c086f42387c791c3854e0febdf0717c2da155c9dbf1e86c9350908190036020019150a15b565b6134b7613c31565b604080518082019182905260258054825290916002906026602085018083116114b5575050505050905090565b6004602f5460ff1660058111156134f757fe5b10613572576040805160e560020a62461bcd02815260206004820152602660248201527f4576656e742073746174652063616e2774206265206d6f64696669656420616e60448201527f796d6f72652e0000000000000000000000000000000000000000000000000000606482015290519081900360840190fd5b602f5460ff16600581111561358357fe5b600101600581111561359157fe5b602f805460ff191660018360058111156135a757fe5b0217905550602f546040517fb9eb8a309bf89f3159b39681f485b6430fec1035b2b457edbcdadcdece888c0b9160ff1690808260058111156135e557fe5b60ff16815260200191505060405180910390a1565b6004602f5460ff16600581111561360d57fe5b10613688576040805160e560020a62461bcd02815260206004820152602660248201527f4576656e742073746174652063616e2774206265206d6f64696669656420616e60448201527f796d6f72652e0000000000000000000000000000000000000000000000000000606482015290519081900360840190fd5b602f805460ff1916600517905560408051602080825283518183015283517f860b7e55e58bd6095b36c4b4016ed8a2e47cb8ebd020fa0e43b32649deb540c3938593928392918301919085019080838360005b838110156136f35781810151838201526020016136db565b50505050905090810190601f1680156137205780820380516001836020036101000a031916815260200191505b509250505060405180910390a150565b60006009819055600a8190555b600b548110156137e457600b8054600d91908390811061375957fe5b9060005260206000200160405180828054600181600116156101000203166002900480156137be5780601f1061379c5761010080835404028352918201916137be565b820191906000526020600020905b8154815290600101906020018083116137aa575b505092835250506040519081900360200190206137dc906000613d42565b60010161373d565b506137f1600b6000613d60565b6006805460ff1916905560005b600354811015612c815760006007600501600060038481548110151561382057fe5b6000918252602080832090910154600160a060020a031683528201929092526040019020556001016137fe565b60005b6014548110156138f05760006013600060148481548110151561386f57fe5b600091825260208083209190910154600160a060020a031683528281019390935260409182018120818052909252812091909155601480546013918391859081106138b657fe5b600091825260208083209190910154600160a060020a03168352828101939093526040918201812060018083529352209190915501613850565b506134ad60146000613d42565b602b80546103e8606482810381028290049092019283905560298054808402929092049182019055602a805493820292909204928301909155602d8054929091019091019055565b6000805b6003548110156139995782600160a060020a031660038281548110151561396c57fe5b600091825260209091200154600160a060020a03161415613991576001915050612e68565b600101613949565b50600092915050565b602b546064036139b06139ea565b106134ad576134ad613a06565b602b546139c8613afb565b106134ad576006805460ff19166002179055601d544201601f556134ad6134e4565b600354600a5460009190606402811515613a0057fe5b04905090565b60016007800160076001016040518082805460018160011615610100020316600290048015613a6c5780601f10613a4a576101008083540402835291820191613a6c565b820191906000526020600020905b815481529060010190602001808311613a58575b50509283525050604051602091819003919091019020805460ff1916911515919091179055600b54600a54600f54600954929091036001019101600019011115613af357613aee6040805190810160405280601a81526020017f436f6e73656e7375732063616e277420626520726561636865640000000000008152506135fa565b6134ad565b6134ad613b11565b60035460095460009190606402811515613a0057fe5b600f80546001019055600b8054600d91906000908110613b2d57fe5b906000526020600020016040518082805460018160011615610100020316600290048015613b925780601f10613b70576101008083540402835291820191613b92565b820191906000526020600020905b815481529060010190602001808311613b7e575b5050928352505060405190819003602001902080546000908110613bb257fe5b6000918252602090912001546007805473ffffffffffffffffffffffffffffffffffffffff1916600160a060020a03909216919091179055613bf2613730565b613bfa61384d565b600f5460408051918252517fc785d855a24b92cb8266e0a85180a9fa4fe03d182f82a8555b01e1f986d267df9181900360200190a1565b60408051808201825290600290829080388339509192915050565b828054600181600116156101000203166002900490600052602060002090601f016020900481019282601f10613c8d57805160ff1916838001178555613cba565b82800160010185558215613cba579182015b82811115613cba578251825591602001919060010190613c9f565b50613cc6929150613d7e565b5090565b60c0604051908101604052806006906020820280388339509192915050565b60a0604051908101604052806005906020820280388339509192915050565b828054828255906000526020600020908101928215613cba5791602002820182811115613cba578251825591602001919060010190613c9f565b5080546000825590600052602060002090810190612c819190613d7e565b5080546000825590600052602060002090810190612c819190613d98565b610bb791905b80821115613cc65760008155600101613d84565b610bb791905b80821115613cc6576000613db28282613dbb565b50600101613d9e565b50805460018160011615610100020316600290046000825580601f10613de15750612c81565b601f016020900490600052602060002090810190612c819190613d7e56fe4e6f7420656e6f756768207573657273206a6f696e656420666f722072657175cfa5f641c29090a64bc13dcafdc8c23d82677807046c35d636ca9c57fc9cb25769726564206d696e696d756d20766f7465732e000000000000000000000000004e6f7420706f737369626c6520696e2063757272656e74206576656e74207374a165627a7a7230582082dae321eb3de0adf47a0fa6dcd04709e767b2e77a74225b17563256f52105460029",
  "source": "pragma solidity ^0.5.0;\n\n\nimport \"./verity_event/Implementation.sol\";\n\n\ncontract VerityEvent is Implementation {\n}\n",
  "sourcePath": "/Users/dejan/dev/verity-event/contracts/VerityEvent.sol",
  "compiler": {
    "name": "solc",
    "version": "0.5.1+commit.c8a2cb62.Emscripten.clang"
  },
  "schemaVersion": "3.0.0",
  "updatedAt": "2018-12-20T07:23:24.325Z",
  "devdoc": {
    "methods": {
      "isParticipating(address)": {
        "params": {
          "_user": "The addres to check for participation"
        },
        "return": "{bool} Whether the given address is a participant of this event"
      },
      "setRewards(address[],uint256[],uint256[])": {
        "params": {
          "_addresses": "A list of addresses",
          "_etherRewards": "A list of ether rewards, must be the exact same length as addresses",
          "_tokenRewards": "A list of token rewards, must be the exact same length as addresses"
        }
      }
    }
  },
  "userdoc": {
    "methods": {
      "approveRewards(uint256)": {
        "notice": "Called by event resolver nodes if they agree with rewards"
      },
      "claimReward()": {
        "notice": "Claim a reward. Needs to be called by the users themselves. Only available in the Reward state, after rewards have been received from the validation nodes."
      },
      "getConsensusRules()": {
        "notice": "Returns an array of consensus rules. [minTotalVotes, minConsensusVotes, minConsensusRatio, minParticipantRatio, maxParticipants]"
      },
      "getDisputeData()": {
        "notice": "Returns an array of dispute rules. [dispute amount, dispute timeout, dispute round]"
      },
      "getEventResolvers()": {
        "notice": "Returns the whole array of event resolvers."
      },
      "getReward()": {
        "notice": "Returns the calling user's assigned rewards. Can be 0. Only available to participating users in the Reward state, since rewards are not assigned before that."
      },
      "getRewards(address[])": {
        "notice": "Returns rewards for specified addresses. [[ethRewards, tokenRewards], [ethRewards, tokenRewards], ...]"
      },
      "getRewardsIndex()": {
        "notice": "Returns all the addresses that have rewards set."
      },
      "isMasterNode()": {
        "notice": "Checks if the address is current master node."
      },
      "isParticipating(address)": {
        "notice": "Checks whether an address is participating in this event."
      },
      "joinEvent()": {
        "notice": "Apply for participation in this event. Available only during the Application state. A transaction to this function has to be done by the users themselves, registering their wallet address as a participent. The transaction does not have to include any funds."
      },
      "markRewardsSet(string)": {
        "notice": "Triggered by the master node once rewards are set and ready to validate"
      },
      "rejectRewards(uint256,string)": {
        "notice": "Called by event resolvers if they don't agree with rewards"
      },
      "setRewards(address[],uint256[],uint256[])": {
        "notice": "Assign the actual rewards. Receives a list of addresses and a list rewards. Mapping between the two is done by the addresses' and reward's numerical index in the list, so order is important."
      },
      "triggerDispute()": {
        "notice": "Trigger a dispute."
      }
    }
  }
}