{
  "contractName": "VerityEvent",
  "abi": [
    {
      "constant": true,
      "inputs": [],
      "name": "rewardsValidationRound",
      "outputs": [
        {
          "name": "",
          "type": "uint256"
        }
      ],
      "payable": false,
      "stateMutability": "view",
      "type": "function"
    },
    {
      "constant": true,
      "inputs": [],
      "name": "eventRegistryAddress",
      "outputs": [
        {
          "name": "",
          "type": "address"
        }
      ],
      "payable": false,
      "stateMutability": "view",
      "type": "function"
    },
    {
      "constant": true,
      "inputs": [],
      "name": "isMasterNode",
      "outputs": [
        {
          "name": "",
          "type": "bool"
        }
      ],
      "payable": false,
      "stateMutability": "view",
      "type": "function"
    },
    {
      "constant": true,
      "inputs": [],
      "name": "getBalance",
      "outputs": [
        {
          "name": "",
          "type": "uint256[2]"
        }
      ],
      "payable": false,
      "stateMutability": "view",
      "type": "function"
    },
    {
      "constant": true,
      "inputs": [],
      "name": "eventCanceled",
      "outputs": [
        {
          "name": "",
          "type": "bool"
        }
      ],
      "payable": false,
      "stateMutability": "view",
      "type": "function"
    },
    {
      "constant": true,
      "inputs": [],
      "name": "requiredNextDisputeAmount",
      "outputs": [
        {
          "name": "",
          "type": "uint256"
        }
      ],
      "payable": false,
      "stateMutability": "view",
      "type": "function"
    },
    {
      "constant": true,
      "inputs": [],
      "name": "getState",
      "outputs": [
        {
          "name": "",
          "type": "uint256"
        }
      ],
      "payable": false,
      "stateMutability": "view",
      "type": "function"
    },
    {
      "constant": false,
      "inputs": [
        {
          "name": "_addresses",
          "type": "address[]"
        },
        {
          "name": "_etherRewards",
          "type": "uint256[]"
        },
        {
          "name": "_tokenRewards",
          "type": "uint256[]"
        }
      ],
      "name": "setRewards",
      "outputs": [],
      "payable": false,
      "stateMutability": "nonpayable",
      "type": "function"
    },
    {
      "constant": true,
      "inputs": [],
      "name": "getReward",
      "outputs": [
        {
          "name": "",
          "type": "uint256[2]"
        }
      ],
      "payable": false,
      "stateMutability": "view",
      "type": "function"
    },
    {
      "constant": true,
      "inputs": [],
      "name": "dataFeedHash",
      "outputs": [
        {
          "name": "",
          "type": "string"
        }
      ],
      "payable": false,
      "stateMutability": "view",
      "type": "function"
    },
    {
      "constant": true,
      "inputs": [],
      "name": "ipfsEventHash",
      "outputs": [
        {
          "name": "",
          "type": "string"
        }
      ],
      "payable": false,
      "stateMutability": "view",
      "type": "function"
    },
    {
      "constant": false,
      "inputs": [
        {
          "name": "_hash",
          "type": "string"
        }
      ],
      "name": "setDataFeedHash",
      "outputs": [],
      "payable": false,
      "stateMutability": "nonpayable",
      "type": "function"
    },
    {
      "constant": false,
      "inputs": [],
      "name": "claimFailed",
      "outputs": [],
      "payable": false,
      "stateMutability": "nonpayable",
      "type": "function"
    },
    {
      "constant": true,
      "inputs": [],
      "name": "getResults",
      "outputs": [
        {
          "name": "",
          "type": "bytes32[]"
        }
      ],
      "payable": false,
      "stateMutability": "view",
      "type": "function"
    },
    {
      "constant": false,
      "inputs": [
        {
          "name": "rewardsHash",
          "type": "string"
        }
      ],
      "name": "markRewardsSet",
      "outputs": [],
      "payable": false,
      "stateMutability": "nonpayable",
      "type": "function"
    },
    {
      "constant": true,
      "inputs": [
        {
          "name": "_addresses",
          "type": "address[]"
        }
      ],
      "name": "getRewards",
      "outputs": [
        {
          "name": "",
          "type": "uint256[]"
        },
        {
          "name": "",
          "type": "uint256[]"
        }
      ],
      "payable": false,
      "stateMutability": "view",
      "type": "function"
    },
    {
      "constant": false,
      "inputs": [],
      "name": "triggerDispute",
      "outputs": [],
      "payable": false,
      "stateMutability": "nonpayable",
      "type": "function"
    },
    {
      "constant": true,
      "inputs": [],
      "name": "getRewardsIndex",
      "outputs": [
        {
          "name": "",
          "type": "address[]"
        }
      ],
      "payable": false,
      "stateMutability": "view",
      "type": "function"
    },
    {
      "constant": true,
      "inputs": [],
      "name": "version",
      "outputs": [
        {
          "name": "",
          "type": "uint256"
        }
      ],
      "payable": false,
      "stateMutability": "view",
      "type": "function"
    },
    {
      "constant": true,
      "inputs": [],
      "name": "getParticipants",
      "outputs": [
        {
          "name": "",
          "type": "address[]"
        }
      ],
      "payable": false,
      "stateMutability": "view",
      "type": "function"
    },
    {
      "constant": true,
      "inputs": [],
      "name": "implementation",
      "outputs": [
        {
          "name": "",
          "type": "address"
        }
      ],
      "payable": false,
      "stateMutability": "view",
      "type": "function"
    },
    {
      "constant": true,
      "inputs": [],
      "name": "stakingAmount",
      "outputs": [
        {
          "name": "",
          "type": "uint256"
        }
      ],
      "payable": false,
      "stateMutability": "view",
      "type": "function"
    },
    {
      "constant": true,
      "inputs": [],
      "name": "getEventResolvers",
      "outputs": [
        {
          "name": "",
          "type": "address[]"
        }
      ],
      "payable": false,
      "stateMutability": "view",
      "type": "function"
    },
    {
      "constant": true,
      "inputs": [],
      "name": "eventName",
      "outputs": [
        {
          "name": "",
          "type": "string"
        }
      ],
      "payable": false,
      "stateMutability": "view",
      "type": "function"
    },
    {
      "constant": false,
      "inputs": [
        {
          "name": "validationRound",
          "type": "uint256"
        },
        {
          "name": "altHash",
          "type": "string"
        }
      ],
      "name": "rejectRewards",
      "outputs": [],
      "payable": false,
      "stateMutability": "nonpayable",
      "type": "function"
    },
    {
      "constant": true,
      "inputs": [],
      "name": "getConsensusRules",
      "outputs": [
        {
          "name": "",
          "type": "uint256[6]"
        }
      ],
      "payable": false,
      "stateMutability": "view",
      "type": "function"
    },
    {
      "constant": true,
      "inputs": [],
      "name": "owner",
      "outputs": [
        {
          "name": "",
          "type": "address"
        }
      ],
      "payable": false,
      "stateMutability": "view",
      "type": "function"
    },
    {
      "constant": true,
      "inputs": [],
      "name": "tokenAddress",
      "outputs": [
        {
          "name": "",
          "type": "address"
        }
      ],
      "payable": false,
      "stateMutability": "view",
      "type": "function"
    },
    {
      "constant": false,
      "inputs": [
        {
          "name": "validationRound",
          "type": "uint256"
        }
      ],
      "name": "approveRewards",
      "outputs": [],
      "payable": false,
      "stateMutability": "nonpayable",
      "type": "function"
    },
    {
      "constant": true,
      "inputs": [],
      "name": "getEventTimes",
      "outputs": [
        {
          "name": "",
          "type": "uint256[5]"
        }
      ],
      "payable": false,
      "stateMutability": "view",
      "type": "function"
    },
    {
      "constant": false,
      "inputs": [
        {
          "name": "_results",
          "type": "bytes32[]"
        }
      ],
      "name": "setResults",
      "outputs": [],
      "payable": false,
      "stateMutability": "nonpayable",
      "type": "function"
    },
    {
      "constant": false,
      "inputs": [],
      "name": "claimReward",
      "outputs": [],
      "payable": false,
      "stateMutability": "nonpayable",
      "type": "function"
    },
    {
      "constant": false,
      "inputs": [],
      "name": "triggerStateChange",
      "outputs": [],
      "payable": false,
      "stateMutability": "nonpayable",
      "type": "function"
    },
    {
      "constant": true,
      "inputs": [],
      "name": "getDisputeData",
      "outputs": [
        {
          "name": "",
          "type": "uint256[5]"
        },
        {
          "name": "",
          "type": "address"
        }
      ],
      "payable": false,
      "stateMutability": "view",
      "type": "function"
    },
    {
      "constant": true,
      "inputs": [],
      "name": "getRequiredRoles",
      "outputs": [
        {
          "name": "",
          "type": "uint256[]"
        }
      ],
      "payable": false,
      "stateMutability": "view",
      "type": "function"
    },
    {
      "constant": false,
      "inputs": [],
      "name": "recoverLeftovers",
      "outputs": [],
      "payable": false,
      "stateMutability": "nonpayable",
      "type": "function"
    },
    {
      "constant": true,
      "inputs": [],
      "name": "leftoversRecoverableAfter",
      "outputs": [
        {
          "name": "",
          "type": "uint256"
        }
      ],
      "payable": false,
      "stateMutability": "view",
      "type": "function"
    },
    {
      "constant": true,
      "inputs": [
        {
          "name": "_user",
          "type": "address"
        }
      ],
      "name": "isParticipating",
      "outputs": [
        {
          "name": "",
          "type": "bool"
        }
      ],
      "payable": false,
      "stateMutability": "view",
      "type": "function"
    },
    {
      "constant": false,
      "inputs": [],
      "name": "joinEvent",
      "outputs": [],
      "payable": false,
      "stateMutability": "nonpayable",
      "type": "function"
    },
    {
      "constant": false,
      "inputs": [],
      "name": "cancelEvent",
      "outputs": [],
      "payable": false,
      "stateMutability": "nonpayable",
      "type": "function"
    },
    {
      "constant": true,
      "inputs": [],
      "name": "getEventCategory",
      "outputs": [
        {
          "name": "",
          "type": "bytes32[2]"
        }
      ],
      "payable": false,
      "stateMutability": "view",
      "type": "function"
    },
    {
      "payable": true,
      "stateMutability": "payable",
      "type": "fallback"
    },
    {
      "anonymous": false,
      "inputs": [
        {
          "indexed": false,
          "name": "newState",
          "type": "uint8"
        }
      ],
      "name": "StateTransition",
      "type": "event"
    },
    {
      "anonymous": false,
      "inputs": [
        {
          "indexed": false,
          "name": "wallet",
          "type": "address"
        }
      ],
      "name": "JoinEvent",
      "type": "event"
    },
    {
      "anonymous": false,
      "inputs": [
        {
          "indexed": true,
          "name": "recipient",
          "type": "address"
        },
        {
          "indexed": false,
          "name": "ethReward",
          "type": "uint256"
        },
        {
          "indexed": false,
          "name": "tokenReward",
          "type": "uint256"
        }
      ],
      "name": "ClaimReward",
      "type": "event"
    },
    {
      "anonymous": false,
      "inputs": [
        {
          "indexed": true,
          "name": "byAddress",
          "type": "address"
        },
        {
          "indexed": false,
          "name": "description",
          "type": "string"
        }
      ],
      "name": "Error",
      "type": "event"
    },
    {
      "anonymous": false,
      "inputs": [
        {
          "indexed": false,
          "name": "description",
          "type": "string"
        }
      ],
      "name": "EventFailed",
      "type": "event"
    },
    {
      "anonymous": false,
      "inputs": [
        {
          "indexed": false,
          "name": "validationRound",
          "type": "uint256"
        }
      ],
      "name": "ValidationStarted",
      "type": "event"
    },
    {
      "anonymous": false,
      "inputs": [
        {
          "indexed": false,
          "name": "validationRound",
          "type": "uint256"
        },
        {
          "indexed": false,
          "name": "newMaster",
          "type": "address"
        }
      ],
      "name": "ValidationRestart",
      "type": "event"
    },
    {
      "anonymous": false,
      "inputs": [
        {
          "indexed": false,
          "name": "byAddress",
          "type": "address"
        }
      ],
      "name": "DisputeTriggered",
      "type": "event"
    },
    {
      "anonymous": false,
      "inputs": [
        {
          "indexed": false,
          "name": "recipient",
          "type": "address"
        }
      ],
      "name": "ClaimStake",
      "type": "event"
    }
  ],
  "bytecode": "0x60806040526006805460ff19908116909155602f8054909116905534801561002657600080fd5b506146a9806100366000396000f3fe608060405260043610610262576000357c0100000000000000000000000000000000000000000000000000000000900480635c60da1b11610156578063ac884902116100d3578063efba9bd211610097578063efba9bd214610c70578063f38a803f14610c85578063f4caee8814610c9a578063f9010d1914610ccd578063fb6c953714610ce2578063fce1a10c14610cf757610262565b8063ac88490214610b1b578063b88a802f14610bcb578063d563f0c514610be0578063d6e9b01914610bf5578063e0807f8914610c5b57610262565b806381c2d8751161011a57806381c2d87514610a735780638da5cb5b14610a9d5780639d76ea5814610ab2578063a77ae83914610ac7578063ab95b58614610af157610262565b80635c60da1b14610965578063739a3e021461097a57806374539f981461098f5780638043c9c0146109a45780638126cb1e146109b957610262565b806342380eaf116101e4578063510ccb43116101a8578063510ccb43146107c857806352f91acf1461091157806354e33cf01461092657806354fd4d501461093b5780635aa68ac01461095057610262565b806342380eaf146105d3578063437933cc146105e857806345f99d511461069b5780634717f97c146106b05780634b766b951461071557610262565b8063181b3f5a1161022b578063181b3f5a146103525780631865c57d146103675780631a0ddce91461037c5780633d18b912146105345780634227357c1461054957610262565b8062f161421461026c578063073f03fb1461029357806311e956c8146102c457806312065fe0146102ed578063148b597c1461033d575b61026a610d0c565b005b34801561027857600080fd5b50610281610d31565b60408051918252519081900360200190f35b34801561029f57600080fd5b506102a8610d37565b60408051600160a060020a039092168252519081900360200190f35b3480156102d057600080fd5b506102d9610d46565b604080519115158252519081900360200190f35b3480156102f957600080fd5b50610302610d58565b6040518082600260200280838360005b8381101561032a578181015183820152602001610312565b5050505090500191505060405180910390f35b34801561034957600080fd5b506102d9610e08565b34801561035e57600080fd5b50610281610e16565b34801561037357600080fd5b50610281610e61565b34801561038857600080fd5b5061026a6004803603606081101561039f57600080fd5b8101906020810181356401000000008111156103ba57600080fd5b8201836020820111156103cc57600080fd5b803590602001918460208302840111640100000000831117156103ee57600080fd5b919080806020026020016040519081016040528093929190818152602001838360200280828437600092019190915250929594936020810193503591505064010000000081111561043e57600080fd5b82018360208201111561045057600080fd5b8035906020019184602083028401116401000000008311171561047257600080fd5b91908080602002602001604051908101604052809392919081815260200183836020028082843760009201919091525092959493602081019350359150506401000000008111156104c257600080fd5b8201836020820111156104d457600080fd5b803590602001918460208302840111640100000000831117156104f657600080fd5b919080806020026020016040519081016040528093929190818152602001838360200280828437600092019190915250929550610e7a945050505050565b34801561054057600080fd5b506103026111ed565b34801561055557600080fd5b5061055e61122f565b6040805160208082528351818301528351919283929083019185019080838360005b83811015610598578181015183820152602001610580565b50505050905090810190601f1680156105c55780820380516001836020036101000a031916815260200191505b509250505060405180910390f35b3480156105df57600080fd5b5061055e6112bd565b3480156105f457600080fd5b5061026a6004803603602081101561060b57600080fd5b81019060208101813564010000000081111561062657600080fd5b82018360208201111561063857600080fd5b8035906020019184600183028401116401000000008311171561065a57600080fd5b91908080601f016020809104026020016040519081016040528093929190818152602001838380828437600092019190915250929550611318945050505050565b3480156106a757600080fd5b5061026a611346565b3480156106bc57600080fd5b506106c561168d565b60408051602080825283518183015283519192839290830191858101910280838360005b838110156107015781810151838201526020016106e9565b505050509050019250505060405180910390f35b34801561072157600080fd5b5061026a6004803603602081101561073857600080fd5b81019060208101813564010000000081111561075357600080fd5b82018360208201111561076557600080fd5b8035906020019184600183028401116401000000008311171561078757600080fd5b91908080601f0160208091040260200160405190810160405280939291908181526020018383808284376000920191909152509295506116e5945050505050565b3480156107d457600080fd5b50610878600480360360208110156107eb57600080fd5b81019060208101813564010000000081111561080657600080fd5b82018360208201111561081857600080fd5b8035906020019184602083028401116401000000008311171561083a57600080fd5b91908080602002602001604051908101604052809392919081815260200183836020028082843760009201919091525092955061196f945050505050565b604051808060200180602001838103835285818151815260200191508051906020019060200280838360005b838110156108bc5781810151838201526020016108a4565b50505050905001838103825284818151815260200191508051906020019060200280838360005b838110156108fb5781810151838201526020016108e3565b5050505090500194505050505060405180910390f35b34801561091d57600080fd5b5061026a611aaa565b34801561093257600080fd5b506106c5611fc1565b34801561094757600080fd5b50610281612022565b34801561095c57600080fd5b506106c5612027565b34801561097157600080fd5b506102a8612087565b34801561098657600080fd5b5061028161209c565b34801561099b57600080fd5b506106c56120a2565b3480156109b057600080fd5b5061055e612102565b3480156109c557600080fd5b5061026a600480360360408110156109dc57600080fd5b813591908101906040810160208201356401000000008111156109fe57600080fd5b820183602082011115610a1057600080fd5b80359060200191846001830284011164010000000083111715610a3257600080fd5b91908080601f01602080910402602001604051908101604052809392919081815260200183838082843760009201919091525092955061215d945050505050565b348015610a7f57600080fd5b50610a886124cd565b60405181518152808260c08083836020610312565b348015610aa957600080fd5b506102a8612523565b348015610abe57600080fd5b506102a8612532565b348015610ad357600080fd5b5061026a60048036036020811015610aea57600080fd5b5035612541565b348015610afd57600080fd5b50610b06612763565b60405181518152808260a08083836020610312565b348015610b2757600080fd5b5061026a60048036036020811015610b3e57600080fd5b810190602081018135640100000000811115610b5957600080fd5b820183602082011115610b6b57600080fd5b80359060200191846020830284011164010000000083111715610b8d57600080fd5b9190808060200260200160405190810160405280939291908181526020018383602002808284376000920191909152509295506127a1945050505050565b348015610bd757600080fd5b5061026a6129f3565b348015610bec57600080fd5b5061026a612e7c565b348015610c0157600080fd5b50610c0a612f92565b604051808360a080838360005b83811015610c2f578181015183820152602001610c17565b5050505090500182600160a060020a0316600160a060020a031681526020019250505060405180910390f35b348015610c6757600080fd5b506106c5612fde565b348015610c7c57600080fd5b5061026a613034565b348015610c9157600080fd5b50610281613308565b348015610ca657600080fd5b506102d960048036036020811015610cbd57600080fd5b5035600160a060020a031661330e565b348015610cd957600080fd5b5061026a613330565b348015610cee57600080fd5b5061026a613970565b348015610d0357600080fd5b50610302613b11565b610d14610d2f565b602f54610d2f90620100009004600160a060020a0316613b46565b565b600f5481565b600254600160a060020a031681565b600754600160a060020a031633145b90565b610d6061430c565b604080518082018252308031825260015483517f70a08231000000000000000000000000000000000000000000000000000000008152600481019290925292519192602080850193600160a060020a03909216926370a082319260248083019392829003018186803b158015610dd557600080fd5b505afa158015610de9573d6000803e3d6000fd5b505050506040513d6020811015610dff57600080fd5b50519052905090565b602f54610100900460ff1681565b601e546000901515610e2b5750601c54610d55565b60205460011415610e5457601e54601c54811515610e4557fe5b04601c60000154019050610d55565b50602054601c5402610d55565b602f5460009060ff166005811115610e7557fe5b905090565b600754600160a060020a03163314610edc576040805160e560020a62461bcd02815260206004820152601d60248201527f4e6f7420612064657369676e61746564206d6173746572206e6f64652e000000604482015290519081900360640190fd5b6000602f5460ff166005811115610eef57fe5b148015610efe57506015544210155b15610f0b57610f0b613b6a565b6001602f5460ff166005811115610f1e57fe5b148015610f2d57506016544210155b15610f6c576029546011541015610f6457610f5f60405180606001604052806033815260200161464b60339139613c44565b610f6c565b610f6c613b6a565b6003602f5460ff166005811115610f7f57fe5b148015610f8e5750601f544210155b15610f9b57610f9b613b6a565b6002602f5460ff166005811115610fae57fe5b148015610fc15750601a54601854014210155b15610ff257610ff2604051806040016040528060208152602001600080516020614500833981519152815250613c44565b602f5460029060ff16600581111561100657fe5b81600581111561101257fe5b146110515760405160e560020a62461bcd0281526004018080602001828103825260248152602001806144dc6024913960400191505060405180910390fd5b82518451148015611063575081518451145b151561106e57600080fd5b600060065460ff16600281111561108157fe5b146110c05760405160e560020a62461bcd0281526004018080602001828103825260268152602001806146256026913960400191505060405180910390fd5b60005b84518110156111e65783818151811015156110da57fe5b906020019060200201516013600087848151811015156110f657fe5b602090810291909101810151600160a060020a031682528181019290925260409081016000908120818052909252902055825183908290811061113557fe5b9060200190602002015160136000878481518110151561115157fe5b602090810291909101810151600160a060020a03168252818101929092526040908101600090812060018252909252902055845160149086908390811061119457fe5b602090810291909101810151825460018082018555600094855292909320909201805473ffffffffffffffffffffffffffffffffffffffff1916600160a060020a0390931692909217909155016110c3565b5050505050565b6111f561430c565b5060408051808201825233600090815260136020908152838220828052808252848320548452600183528152929020549181019190915290565b6027805460408051602060026001851615610100026000190190941693909304601f810184900484028201840190925281815292918301828280156112b55780601f1061128a576101008083540402835291602001916112b5565b820191906000526020600020905b81548152906001019060200180831161129857829003601f168201915b505050505081565b6019805460408051602060026001851615610100026000190190941693909304601f810184900484028201840190925281815292918301828280156112b55780601f1061128a576101008083540402835291602001916112b5565b600054600160a060020a0316331461132f57600080fd5b805161134290602790602084019061432a565b5050565b61134f3361330e565b15156113a5576040805160e560020a62461bcd02815260206004820152601260248201527f4e6f742070617274696369706174696e672e0000000000000000000000000000604482015290519081900360640190fd5b6000602f5460ff1660058111156113b857fe5b1480156113c757506015544210155b156113d4576113d4613b6a565b6001602f5460ff1660058111156113e757fe5b1480156113f657506016544210155b1561143557602954601154101561142d5761142860405180606001604052806033815260200161464b60339139613c44565b611435565b611435613b6a565b6003602f5460ff16600581111561144857fe5b1480156114575750601f544210155b1561146457611464613b6a565b6002602f5460ff16600581111561147757fe5b14801561148a5750601a54601854014210155b156114bb576114bb604051806040016040528060208152602001600080516020614500833981519152815250613c44565b602f5460059060ff16818111156114ce57fe5b8160058111156114da57fe5b146115195760405160e560020a62461bcd0281526004018080602001828103825260248152602001806144dc6024913960400191505060405180910390fd5b6000601b5411806115405750601e54158015906115405750602254600160a060020a031633145b1515611596576040805160e560020a62461bcd02815260206004820152601160248201527f4e6f207374616b6520746f20636c61696d000000000000000000000000000000604482015290519081900360640190fd5b602254600090600160a060020a03163314156115b157601c54015b601b546001546040805160e060020a63a9059cbb028152336004820152939092016024840181905291519192600160a060020a039091169163a9059cbb916044808201926020929091908290030181600087803b15801561161157600080fd5b505af1158015611625573d6000803e3d6000fd5b505050506040513d602081101561163b57600080fd5b505033600081815260106020908152604091829020805460ff19169055815192835290517f5a53668be860a256c7ff92bff48881a9db38994032e2b90e5a0bdd51921fbeb79281900390910190a15050565b606060288054806020026020016040519081016040528092919081815260200182805480156116db57602002820191906000526020600020905b8154815260200190600101908083116116c7575b5050505050905090565b600754600160a060020a03163314611747576040805160e560020a62461bcd02815260206004820152601d60248201527f4e6f7420612064657369676e61746564206d6173746572206e6f64652e000000604482015290519081900360640190fd5b6000602f5460ff16600581111561175a57fe5b14801561176957506015544210155b1561177657611776613b6a565b6001602f5460ff16600581111561178957fe5b14801561179857506016544210155b156117d75760295460115410156117cf576117ca60405180606001604052806033815260200161464b60339139613c44565b6117d7565b6117d7613b6a565b6003602f5460ff1660058111156117ea57fe5b1480156117f95750601f544210155b1561180657611806613b6a565b6002602f5460ff16600581111561181957fe5b14801561182c5750601a54601854014210155b1561185d5761185d604051806040016040528060208152602001600080516020614500833981519152815250613c44565b602f5460029060ff16600581111561187157fe5b81600581111561187d57fe5b146118bc5760405160e560020a62461bcd0281526004018080602001828103825260248152602001806144dc6024913960400191505060405180910390fd5b600060065460ff1660028111156118cf57fe5b1461190e5760405160e560020a62461bcd0281526004018080602001828103825260268152602001806146256026913960400191505060405180910390fd5b815161192190600890602085019061432a565b50600160098190556006805460ff19169091179055600f5460408051918252517f47c2e9e59e6d2347f314927d02f36b95696a09b5f0ac0bae119ff5ae937016559181900360200190a15050565b6060806060835160405190808252806020026020018201604052801561199f578160200160208202803883390190505b509050606084516040519080825280602002602001820160405280156119cf578160200160208202803883390190505b50905060005b8551811015611a9f576013600087838151811015156119f057fe5b602090810291909101810151600160a060020a0316825281810192909252604090810160009081208180529092529020548351849083908110611a2f57fe5b602090810290910101528551601390600090889084908110611a4d57fe5b602090810291909101810151600160a060020a031682528181019290925260409081016000908120600182529092529020548251839083908110611a8d57fe5b602090810290910101526001016119d5565b509092509050915091565b6000602f5460ff166005811115611abd57fe5b148015611acc57506015544210155b15611ad957611ad9613b6a565b6001602f5460ff166005811115611aec57fe5b148015611afb57506016544210155b15611b3a576029546011541015611b3257611b2d60405180606001604052806033815260200161464b60339139613c44565b611b3a565b611b3a613b6a565b6003602f5460ff166005811115611b4d57fe5b148015611b5c5750601f544210155b15611b6957611b69613b6a565b6002602f5460ff166005811115611b7c57fe5b148015611b8f5750601a54601854014210155b15611bc057611bc0604051806040016040528060208152602001600080516020614500833981519152815250613c44565b611bc93361330e565b1515611c1f576040805160e560020a62461bcd02815260206004820152601260248201527f4e6f742070617274696369706174696e672e0000000000000000000000000000604482015290519081900360640190fd5b602f5460039060ff166005811115611c3357fe5b816005811115611c3f57fe5b14611c7e5760405160e560020a62461bcd0281526004018080602001828103825260248152602001806144dc6024913960400191505060405180910390fd5b6000611c88610e16565b600154604080517fdd62ed3e00000000000000000000000000000000000000000000000000000000815233600482015230602482015290519293508392600160a060020a039092169163dd62ed3e91604480820192602092909190829003018186803b158015611cf757600080fd5b505afa158015611d0b573d6000803e3d6000fd5b505050506040513d6020811015611d2157600080fd5b50511015611d635760405160e560020a62461bcd0281526004018080602001828103825260258152602001806145206025913960400191505060405180910390fd5b3360009081526021602052604090205460ff1615611dcb576040805160e560020a62461bcd02815260206004820152601c60248201527f416c726561647920747269676765726564206120646973707574652e00000000604482015290519081900360640190fd5b601e5415611e5f57600154602254601c546040805160e060020a63a9059cbb028152600160a060020a039384166004820152602481019290925251919092169163a9059cbb9160448083019260209291908290030181600087803b158015611e3257600080fd5b505af1158015611e46573d6000803e3d6000fd5b505050506040513d6020811015611e5c57600080fd5b50505b601c818155601e80546001908101909155336000818152602160209081526040808320805460ff1916861790556022805473ffffffffffffffffffffffffffffffffffffffff1916851790559354945484517f23b872dd000000000000000000000000000000000000000000000000000000008152600481019490945230602485015260448401529251600160a060020a03909416936323b872dd936064808501949193918390030190829087803b158015611f1a57600080fd5b505af1158015611f2e573d6000803e3d6000fd5b505050506040513d6020811015611f4457600080fd5b50611f4f9050613d8a565b611f57613ea7565b602f805460ff191660011790556023544281016017819055601681905501601855611f80613f57565b602e805460ff191690556040805133815290517ff6d97c5e133e50668a6b3607d8748ef6599c3303babb2b08a515a5a67369f45f9181900360200190a15050565b606060148054806020026020016040519081016040528092919081815260200182805480156116db57602002820191906000526020600020905b8154600160a060020a03168152600190910190602001808311611ffb575050505050905090565b600181565b606060118054806020026020016040519081016040528092919081815260200182805480156116db57602002820191906000526020600020908154600160a060020a03168152600190910190602001808311611ffb575050505050905090565b602f54620100009004600160a060020a031681565b601b5481565b606060038054806020026020016040519081016040528092919081815260200182805480156116db57602002820191906000526020600020908154600160a060020a03168152600190910190602001808311611ffb575050505050905090565b6024805460408051602060026001851615610100026000190190941693909304601f810184900484028201840190925281815292918301828280156112b55780601f1061128a576101008083540402835291602001916112b5565b602f5460029060ff16600581111561217157fe5b81600581111561217d57fe5b146121bc5760405160e560020a62461bcd0281526004018080602001828103825260248152602001806144dc6024913960400191505060405180910390fd5b826121c633613f9f565b80156121d757506121d5610d46565b155b151561222d576040805160e560020a62461bcd02815260206004820152601b60248201527f4e6f7420612076616c69642073656e64657220616464726573732e0000000000604482015290519081900360640190fd5b600160065460ff16600281111561224057fe5b14612295576040805160e560020a62461bcd02815260206004820152601760248201527f4e6f742076616c69646174696e6720726577617264732e000000000000000000604482015290519081900360640190fd5b600f5481146122ee576040805160e560020a62461bcd02815260206004820152601a60248201527f56616c69646174696f6e20726f756e64206d69736d617463682e000000000000604482015290519081900360640190fd5b600f54336000908152600c602052604090205410612356576040805160e560020a62461bcd02815260206004820152601d60248201527f416c726561647920766f74656420666f72207468697320726f756e642e000000604482015290519081900360640190fd5b600a80546001019055600f54336000908152600c602090815260409182902092909255518451600e9286929182918401908083835b602083106123aa5780518252601f19909201916020918201910161238b565b51815160209384036101000a600019018019909216911617905292019485525060405193849003019092205460ff16151591506124bf905057600b8054600181018083556000929092528451612427917f0175b7a638427703f0dbe7bb9bbf987a2551717b34e79f33b5b1008d1fa01db90190602087019061432a565b50506007600601836040518082805190602001908083835b6020831061245e5780518252601f19909201916020918201910161243f565b51815160001960209485036101000a0190811690199190911617905292019485525060405193849003810190932080546001810182556000918252939020909201805473ffffffffffffffffffffffffffffffffffffffff19163317905550505b6124c7613ffc565b50505050565b6124d56143a8565b6040805160c0810182526029548152602a546020820152602b5491810191909152602c546060820152602d546080820152602e5460a082019060ff16600181111561251c57fe5b9052905090565b600054600160a060020a031681565b600154600160a060020a031681565b602f5460029060ff16600581111561255557fe5b81600581111561256157fe5b146125a05760405160e560020a62461bcd0281526004018080602001828103825260248152602001806144dc6024913960400191505060405180910390fd5b816125aa33613f9f565b80156125bb57506125b9610d46565b155b1515612611576040805160e560020a62461bcd02815260206004820152601b60248201527f4e6f7420612076616c69642073656e64657220616464726573732e0000000000604482015290519081900360640190fd5b600160065460ff16600281111561262457fe5b14612679576040805160e560020a62461bcd02815260206004820152601760248201527f4e6f742076616c69646174696e6720726577617264732e000000000000000000604482015290519081900360640190fd5b600f5481146126d2576040805160e560020a62461bcd02815260206004820152601a60248201527f56616c69646174696f6e20726f756e64206d69736d617463682e000000000000604482015290519081900360640190fd5b600f54336000908152600c60205260409020541061273a576040805160e560020a62461bcd02815260206004820152601d60248201527f416c726561647920766f74656420666f72207468697320726f756e642e000000604482015290519081900360640190fd5b600980546001019055600f54336000908152600c602052604090205561275e614017565b505050565b61276b6143c6565b6040518060a001604052806015548152602001601654815260200160175481526020016018548152602001601a54815250905090565b600754600160a060020a03163314612803576040805160e560020a62461bcd02815260206004820152601d60248201527f4e6f7420612064657369676e61746564206d6173746572206e6f64652e000000604482015290519081900360640190fd5b6000602f5460ff16600581111561281657fe5b14801561282557506015544210155b1561283257612832613b6a565b6001602f5460ff16600581111561284557fe5b14801561285457506016544210155b1561289357602954601154101561288b5761288660405180606001604052806033815260200161464b60339139613c44565b612893565b612893613b6a565b6003602f5460ff1660058111156128a657fe5b1480156128b55750601f544210155b156128c2576128c2613b6a565b6002602f5460ff1660058111156128d557fe5b1480156128e85750601a54601854014210155b1561291957612919604051806040016040528060208152602001600080516020614500833981519152815250613c44565b602f5460029060ff16600581111561292d57fe5b81600581111561293957fe5b146129785760405160e560020a62461bcd0281526004018080602001828103825260248152602001806144dc6024913960400191505060405180910390fd5b600060065460ff16600281111561298b57fe5b146129e0576040805160e560020a62461bcd02815260206004820152601e60248201527f4f6e6c79206265666f72652076616c69646174696f6e207374617274732e0000604482015290519081900360640190fd5b815161275e9060289060208501906143e4565b6129fc3361330e565b1515612a52576040805160e560020a62461bcd02815260206004820152601260248201527f4e6f742070617274696369706174696e672e0000000000000000000000000000604482015290519081900360640190fd5b6000602f5460ff166005811115612a6557fe5b148015612a7457506015544210155b15612a8157612a81613b6a565b6001602f5460ff166005811115612a9457fe5b148015612aa357506016544210155b15612ae2576029546011541015612ada57612ad560405180606001604052806033815260200161464b60339139613c44565b612ae2565b612ae2613b6a565b6003602f5460ff166005811115612af557fe5b148015612b045750601f544210155b15612b1157612b11613b6a565b6002602f5460ff166005811115612b2457fe5b148015612b375750601a54601854014210155b15612b6857612b68604051806040016040528060208152602001600080516020614500833981519152815250613c44565b602f5460049060ff166005811115612b7c57fe5b816005811115612b8857fe5b14612bc75760405160e560020a62461bcd0281526004018080602001828103825260248152602001806144dc6024913960400191505060405180910390fd5b336000908152601360209081526040808320838052909152808220546001835291205481158015612bf6575080155b15612c455733600160a060020a03166000805160206145458339815191526040518080602001828103825260258152602001806145656025913960400191505060405180910390a25050612e79565b33600090815260136020908152604080832083805290915290205430311080612d12575033600090815260136020908152604080832060018085529083529281902054925481517f70a082310000000000000000000000000000000000000000000000000000000081523060048201529151600160a060020a03909116926370a082319260248082019391829003018186803b158015612ce457600080fd5b505afa158015612cf8573d6000803e3d6000fd5b505050506040513d6020811015612d0e57600080fd5b5051105b15612d615733600160a060020a03166000805160206145458339815191526040518080602001828103825260458152602001806145e06045913960600191505060405180910390a25050612e79565b33600081815260136020908152604080832083805290915280822082905560018252808220829055516108fc85150291859190818181858888f19350505050158015612db1573d6000803e3d6000fd5b508015612e3c576001546040805160e060020a63a9059cbb028152336004820152602481018490529051600160a060020a039092169163a9059cbb916044808201926020929091908290030181600087803b158015612e0f57600080fd5b505af1158015612e23573d6000803e3d6000fd5b505050506040513d6020811015612e3957600080fd5b50505b6040805183815260208101839052815133927fe74e5c9d4ac1fc33412485f18c159a0a391efe287ab3fd271123f30e6bacf4e3928290030190a250505b50565b6000602f5460ff166005811115612e8f57fe5b148015612e9e57506015544210155b15612eab57612eab613b6a565b6001602f5460ff166005811115612ebe57fe5b148015612ecd57506016544210155b15612f0c576029546011541015612f0457612eff60405180606001604052806033815260200161464b60339139613c44565b612f0c565b612f0c613b6a565b6003602f5460ff166005811115612f1f57fe5b148015612f2e5750601f544210155b15612f3b57612f3b613b6a565b6002602f5460ff166005811115612f4e57fe5b148015612f615750601a54601854014210155b15610d2f57610d2f604051806040016040528060208152602001600080516020614500833981519152815250613c44565b612f9a6143c6565b506040805160a081018252601c548152601d546020808301919091525491810191909152601e546060820152601f546080820152602254600160a060020a03169091565b606060058054806020026020016040519081016040528092919081815260200182805480156116db57602002820191906000526020600020908154815260200190600101908083116116c7575050505050905090565b600054600160a060020a0316331461304b57600080fd5b6000602f5460ff16600581111561305e57fe5b14801561306d57506015544210155b1561307a5761307a613b6a565b6001602f5460ff16600581111561308d57fe5b14801561309c57506016544210155b156130db5760295460115410156130d3576130ce60405180606001604052806033815260200161464b60339139613c44565b6130db565b6130db613b6a565b6003602f5460ff1660058111156130ee57fe5b1480156130fd5750601f544210155b1561310a5761310a613b6a565b6002602f5460ff16600581111561311d57fe5b1480156131305750601a54601854014210155b1561316157613161604051806040016040528060208152602001600080516020614500833981519152815250613c44565b6004602f5460ff16600581111561317457fe5b148061319057506005602f5460ff16600581111561318e57fe5b145b151561319b57600080fd5b601a54601854016224ea00014210156131b357600080fd5b60008054604051600160a060020a0390911691303180156108fc02929091818181858888f193505050501580156131ee573d6000803e3d6000fd5b50600154604080517f70a082310000000000000000000000000000000000000000000000000000000081523060048201529051600092600160a060020a0316916370a08231916024808301926020929190829003018186803b15801561325357600080fd5b505afa158015613267573d6000803e3d6000fd5b505050506040513d602081101561327d57600080fd5b5051600154600080546040805160e060020a63a9059cbb028152600160a060020a03928316600482015260248101869052905194955092169263a9059cbb926044808201936020939283900390910190829087803b1580156132de57600080fd5b505af11580156132f2573d6000803e3d6000fd5b505050506040513d602081101561275e57600080fd5b601a5481565b600160a060020a03811660009081526010602052604090205460ff165b919050565b6000602f5460ff16600581111561334357fe5b14801561335257506015544210155b1561335f5761335f613b6a565b6001602f5460ff16600581111561337257fe5b14801561338157506016544210155b156133c05760295460115410156133b8576133b360405180606001604052806033815260200161464b60339139613c44565b6133c0565b6133c0613b6a565b6003602f5460ff1660058111156133d357fe5b1480156133e25750601f544210155b156133ef576133ef613b6a565b6002602f5460ff16600581111561340257fe5b1480156134155750601a54601854014210155b1561344657613446604051806040016040528060208152602001600080516020614500833981519152815250613c44565b6005541580159061352a575060048054604080517f35fe903400000000000000000000000000000000000000000000000000000000815233938101848152602482019283526005805460448401819052600160a060020a03909516956335fe9034959094919360640190849080156134dd57602002820191906000526020600020905b8154815260200190600101908083116134c9575b5050935050505060206040518083038186803b1580156134fc57600080fd5b505afa158015613510573d6000803e3d6000fd5b505050506040513d602081101561352657600080fd5b5051155b15613585576040805160208082526012908201527f5065726d697373696f6e2064656e6965642e00000000000000000000000000008183015290513391600080516020614545833981519152919081900360600190a2610d2f565b602d54601154106135e657604080516020808252600e908201527f4576656e742069732066756c6c2e0000000000000000000000000000000000008183015290513391600080516020614545833981519152919081900360600190a2610d2f565b6135ef3361330e565b1561364a57604080516020808252601e908201527f596f752061726520616c72656164792070617274696369706174696e672e00008183015290513391600080516020614545833981519152919081900360600190a2610d2f565b6001602f5460ff16600581111561365d57fe5b146136aa5733600160a060020a03166000805160206145458339815191526040518080602001828103825260308152602001806145b06030913960400191505060405180910390a2610d2f565b6000601b541180156137525750601b54600154604080517fdd62ed3e0000000000000000000000000000000000000000000000000000000081523360048201523060248201529051600160a060020a039092169163dd62ed3e91604480820192602092909190829003018186803b15801561372457600080fd5b505afa158015613738573d6000803e3d6000fd5b505050506040513d602081101561374e57600080fd5b5051105b156137ad576040805160208082526019908201527f4e6f7420656e6f75676820746f6b656e73207374616b65642e000000000000008183015290513391600080516020614545833981519152919081900360600190a2610d2f565b601b541561385857600154601b54604080517f23b872dd000000000000000000000000000000000000000000000000000000008152336004820152306024820152604481019290925251600160a060020a03909216916323b872dd916064808201926020929091908290030181600087803b15801561382b57600080fd5b505af115801561383f573d6000803e3d6000fd5b505050506040513d602081101561385557600080fd5b50505b33600081815260106020526040808220805460ff1916600190811790915560118054918201815583527f31ecc21a745e3968a04e9570e4425bc18fa8019c68028196b546d1669c200c6801805473ffffffffffffffffffffffffffffffffffffffff19168417905560025481517fb9d3514d00000000000000000000000000000000000000000000000000000000815260048101949094529051600160a060020a03919091169263b9d3514d92602480830193919282900301818387803b15801561392257600080fd5b505af1158015613936573d6000803e3d6000fd5b50506040805133815290517f0940fd5e528ae9fa6c086f42387c791c3854e0febdf0717c2da155c9dbf1e86c9350908190036020019150a1565b600054600160a060020a0316331461398757600080fd5b60175442106139e0576040805160e560020a62461bcd02815260206004820152601660248201527f4576656e7420616c726561647920737461727465642e00000000000000000000604482015290519081900360640190fd5b602f805461ff0019166101001790554260185560408051808201909152601a81527f4576656e742063616e63656c65642062792063726561746f722e0000000000006020820152613a3090613c44565b601b5415610d2f5760005b601154811015612e795760015460118054600160a060020a039092169163a9059cbb919084908110613a6957fe5b6000918252602080832090910154601b54604080517c010000000000000000000000000000000000000000000000000000000063ffffffff8816028152600160a060020a03909316600484015260248301919091525160448083019491928390030190829087803b158015613add57600080fd5b505af1158015613af1573d6000803e3d6000fd5b505050506040513d6020811015613b0757600080fd5b5050600101613a3b565b613b1961430c565b604080518082019182905260258054825290916002906026602085018083116116c7575050505050905090565b3660008037600080366000845af43d6000803e808015613b65573d6000f35b3d6000fd5b6004602f5460ff166005811115613b7d57fe5b10613bbc5760405160e560020a62461bcd02815260040180806020018281038252602681526020018061458a6026913960400191505060405180910390fd5b602f5460ff166005811115613bcd57fe5b6001016005811115613bdb57fe5b602f805460ff19166001836005811115613bf157fe5b0217905550602f546040517fb9eb8a309bf89f3159b39681f485b6430fec1035b2b457edbcdadcdece888c0b9160ff169080826005811115613c2f57fe5b60ff16815260200191505060405180910390a1565b6004602f5460ff166005811115613c5757fe5b10613c965760405160e560020a62461bcd02815260040180806020018281038252602681526020018061458a6026913960400191505060405180910390fd5b602f805460ff1916600517905560408051602080825283518183015283517f860b7e55e58bd6095b36c4b4016ed8a2e47cb8ebd020fa0e43b32649deb540c3938593928392918301919085019080838360005b83811015613d01578181015183820152602001613ce9565b50505050905090810190601f168015613d2e5780820380516001836020036101000a031916815260200191505b509250505060405180910390a1602f546040517fb9eb8a309bf89f3159b39681f485b6430fec1035b2b457edbcdadcdece888c0b9160ff169080826005811115613d7457fe5b60ff16815260200191505060405180910390a150565b60006009819055600a8190555b600b54811015613e3e57600b8054600d919083908110613db357fe5b906000526020600020016040518082805460018160011615610100020316600290048015613e185780601f10613df6576101008083540402835291820191613e18565b820191906000526020600020905b815481529060010190602001808311613e04575b50509283525050604051908190036020019020613e3690600061441e565b600101613d97565b50613e4b600b600061443c565b6006805460ff1916905560005b600354811015612e7957600060076005016000600384815481101515613e7a57fe5b6000918252602080832090910154600160a060020a03168352820192909252604001902055600101613e58565b60005b601454811015613f4a57600060136000601484815481101515613ec957fe5b600091825260208083209190910154600160a060020a03168352828101939093526040918201812081805290925281209190915560148054601391839185908110613f1057fe5b600091825260208083209190910154600160a060020a03168352828101939093526040918201812060018083529352209190915501613eaa565b50610d2f6014600061441e565b602b80546103e8606482810381028290049092019283905560298054808402929092049182019055602a805493820292909204928301909155602d8054929091019091019055565b6000805b600354811015613ff35782600160a060020a0316600382815481101515613fc657fe5b600091825260209091200154600160a060020a03161415613feb57600191505061332b565b600101613fa3565b50600092915050565b602b5460640361400a61405f565b10610d2f57610d2f61407b565b602b5461402261416b565b10610d2f576006805460ff191660021790556028541561405157601d544201601f5561404c613b6a565b610d2f565b42601f55610d2f6004614181565b600354600a546000919060640281151561407557fe5b04905090565b600160078001600760010160405180828054600181600116156101000203166002900480156140e15780601f106140bf5761010080835404028352918201916140e1565b820191906000526020600020905b8154815290600101906020018083116140cd575b50509283525050604051602091819003919091019020805460ff1916911515919091179055600b54600a54600f546009549290910360010191016000190111156141635761404c6040518060400160405280601a81526020017f436f6e73656e7375732063616e27742062652072656163686564000000000000815250613c44565b610d2f6141d8565b6003546009546000919060640281151561407557fe5b602f805482919060ff1916600183600581111561419a57fe5b0217905550602f546040517fb9eb8a309bf89f3159b39681f485b6430fec1035b2b457edbcdadcdece888c0b9160ff169080826005811115613d7457fe5b600f80546001019055600b8054600d919060009081106141f457fe5b9060005260206000200160405180828054600181600116156101000203166002900480156142595780601f10614237576101008083540402835291820191614259565b820191906000526020600020905b815481529060010190602001808311614245575b505092835250506040519081900360200190208054600090811061427957fe5b6000918252602090912001546007805473ffffffffffffffffffffffffffffffffffffffff1916600160a060020a039092169190911790556142b9613d8a565b6142c1613ea7565b600f5460075460408051928352600160a060020a03909116602083015280517f372d3c1251f28673c4ee2eaf015d5e07bf3145e2df993fd41cae9707f389eaa89281900390910190a1565b60405180604001604052806002906020820280388339509192915050565b828054600181600116156101000203166002900490600052602060002090601f016020900481019282601f1061436b57805160ff1916838001178555614398565b82800160010185558215614398579182015b8281111561439857825182559160200191906001019061437d565b506143a492915061445a565b5090565b6040518060c001604052806006906020820280388339509192915050565b6040518060a001604052806005906020820280388339509192915050565b828054828255906000526020600020908101928215614398579160200282018281111561439857825182559160200191906001019061437d565b5080546000825590600052602060002090810190612e79919061445a565b5080546000825590600052602060002090810190612e799190614474565b610d5591905b808211156143a45760008155600101614460565b610d5591905b808211156143a457600061448e8282614497565b5060010161447a565b50805460018160011615610100020316600290046000825580601f106144bd5750612e79565b601f016020900490600052602060002090810190612e79919061445a56fe4e6f7420706f737369626c6520696e2063757272656e74206576656e742073746174652e4576656e7420746f6f6b20746f6f206c6f6e6720746f20636f6d706c6574652e4e6f7420656e6f75676820746f6b656e73207374616b656420666f7220646973707574652ecfa5f641c29090a64bc13dcafdc8c23d82677807046c35d636ca9c57fc9cb257596f7520646f206e6f74206861766520616e79207265776172647320746f20636c61696d2e4576656e742073746174652063616e2774206265206d6f64696669656420616e796d6f72652e596f752063616e206e6f74206a6f696e20746865206576656e7420696e206974732063757272656e742073746174652e437269746963616c206572726f723a206e6f7420656e6f7567682062616c616e636520746f20706179206f7574207265776172642e20436f6e74616374205665726974792e4e6f7420706f737369626c6520696e20746869732076616c69646174696f6e2073746174652e4e6f7420656e6f756768207573657273206a6f696e656420666f72207265717569726564206d696e696d756d20766f7465732ea165627a7a72305820beebada33901b66a8772c3a5032c53fbb1af965163eb757a1b12926aafd16e8e0029",
  "source": "pragma solidity ^0.5.5;\n\n\nimport \"./verity_event/Implementation.sol\";\nimport \"./utility/Proxy.sol\";\n\n\ncontract VerityEvent is Implementation, Proxy {\n}\n",
  "sourcePath": "/Users/hiphop/code/verity-event/contracts/VerityEvent.sol",
  "compiler": {
    "name": "solc",
    "version": "0.5.5+commit.47a71e8f.Emscripten.clang"
  },
  "schemaVersion": "3.0.1",
  "updatedAt": "2019-03-11T12:12:41.922Z",
  "devdoc": {
    "methods": {
      "isParticipating(address)": {
        "params": {
          "_user": "The addres to check for participation"
        },
        "return": "{bool} Whether the given address is a participant of this event"
      },
      "setRewards(address[],uint256[],uint256[])": {
        "params": {
          "_addresses": "A list of addresses",
          "_etherRewards": "A list of ether rewards, must be the exact same length as addresses",
          "_tokenRewards": "A list of token rewards, must be the exact same length as addresses"
        }
      }
    }
  },
  "userdoc": {
    "methods": {
      "approveRewards(uint256)": {
        "notice": "Called by event resolver nodes if they agree with rewards"
      },
      "claimReward()": {
        "notice": "Claim a reward. Needs to be called by the users themselves. Only available in the Reward state, after rewards have been received from the validation nodes."
      },
      "getConsensusRules()": {
        "notice": "Returns an array of consensus rules. [minTotalVotes, minConsensusVotes, minConsensusRatio, minParticipantRatio, maxParticipants]"
      },
      "getDisputeData()": {
        "notice": "Returns an array of dispute rules. [dispute amount, dispute timeout, dispute round]"
      },
      "getEventResolvers()": {
        "notice": "Returns the whole array of event resolvers."
      },
      "getReward()": {
        "notice": "Returns the calling user's assigned rewards. Can be 0. Only available to participating users in the Reward state, since rewards are not assigned before that."
      },
      "getRewards(address[])": {
        "notice": "Returns rewards for specified addresses. [[ethRewards, tokenRewards], [ethRewards, tokenRewards], ...]"
      },
      "getRewardsIndex()": {
        "notice": "Returns all the addresses that have rewards set."
      },
      "isMasterNode()": {
        "notice": "Checks if the address is current master node."
      },
      "isParticipating(address)": {
        "notice": "Checks whether an address is participating in this event."
      },
      "joinEvent()": {
        "notice": "Apply for participation in this event. Available only during the Application state. A transaction to this function has to be done by the users themselves, registering their wallet address as a participent. The transaction does not have to include any funds."
      },
      "markRewardsSet(string)": {
        "notice": "Triggered by the master node once rewards are set and ready to validate"
      },
      "rejectRewards(uint256,string)": {
        "notice": "Called by event resolvers if they don't agree with rewards"
      },
      "setRewards(address[],uint256[],uint256[])": {
        "notice": "Assign the actual rewards. Receives a list of addresses and a list rewards. Mapping between the two is done by the addresses' and reward's numerical index in the list, so order is important."
      },
      "triggerDispute()": {
        "notice": "Trigger a dispute."
      }
    }
  }
}