{
  "contractName": "VerityEvent",
  "abi": [
    {
      "constant": true,
      "inputs": [],
      "name": "rewardsValidationRound",
      "outputs": [
        {
          "name": "",
          "type": "uint256"
        }
      ],
      "payable": false,
      "stateMutability": "view",
      "type": "function"
    },
    {
      "constant": true,
      "inputs": [],
      "name": "eventRegistryAddress",
      "outputs": [
        {
          "name": "",
          "type": "address"
        }
      ],
      "payable": false,
      "stateMutability": "view",
      "type": "function"
    },
    {
      "constant": true,
      "inputs": [],
      "name": "isMasterNode",
      "outputs": [
        {
          "name": "",
          "type": "bool"
        }
      ],
      "payable": false,
      "stateMutability": "view",
      "type": "function"
    },
    {
      "constant": true,
      "inputs": [],
      "name": "getBalance",
      "outputs": [
        {
          "name": "",
          "type": "uint256[2]"
        }
      ],
      "payable": false,
      "stateMutability": "view",
      "type": "function"
    },
    {
      "constant": true,
      "inputs": [],
      "name": "eventCanceled",
      "outputs": [
        {
          "name": "",
          "type": "bool"
        }
      ],
      "payable": false,
      "stateMutability": "view",
      "type": "function"
    },
    {
      "constant": true,
      "inputs": [],
      "name": "requiredNextDisputeAmount",
      "outputs": [
        {
          "name": "",
          "type": "uint256"
        }
      ],
      "payable": false,
      "stateMutability": "view",
      "type": "function"
    },
    {
      "constant": true,
      "inputs": [],
      "name": "getState",
      "outputs": [
        {
          "name": "",
          "type": "uint256"
        }
      ],
      "payable": false,
      "stateMutability": "view",
      "type": "function"
    },
    {
      "constant": false,
      "inputs": [
        {
          "name": "_addresses",
          "type": "address[]"
        },
        {
          "name": "_etherRewards",
          "type": "uint256[]"
        },
        {
          "name": "_tokenRewards",
          "type": "uint256[]"
        }
      ],
      "name": "setRewards",
      "outputs": [],
      "payable": false,
      "stateMutability": "nonpayable",
      "type": "function"
    },
    {
      "constant": true,
      "inputs": [],
      "name": "getReward",
      "outputs": [
        {
          "name": "",
          "type": "uint256[2]"
        }
      ],
      "payable": false,
      "stateMutability": "view",
      "type": "function"
    },
    {
      "constant": true,
      "inputs": [],
      "name": "dataFeedHash",
      "outputs": [
        {
          "name": "",
          "type": "string"
        }
      ],
      "payable": false,
      "stateMutability": "view",
      "type": "function"
    },
    {
      "constant": true,
      "inputs": [],
      "name": "ipfsEventHash",
      "outputs": [
        {
          "name": "",
          "type": "string"
        }
      ],
      "payable": false,
      "stateMutability": "view",
      "type": "function"
    },
    {
      "constant": false,
      "inputs": [
        {
          "name": "_hash",
          "type": "string"
        }
      ],
      "name": "setDataFeedHash",
      "outputs": [],
      "payable": false,
      "stateMutability": "nonpayable",
      "type": "function"
    },
    {
      "constant": false,
      "inputs": [],
      "name": "claimFailed",
      "outputs": [],
      "payable": false,
      "stateMutability": "nonpayable",
      "type": "function"
    },
    {
      "constant": true,
      "inputs": [],
      "name": "getResults",
      "outputs": [
        {
          "name": "",
          "type": "bytes32[]"
        }
      ],
      "payable": false,
      "stateMutability": "view",
      "type": "function"
    },
    {
      "constant": false,
      "inputs": [
        {
          "name": "rewardsHash",
          "type": "string"
        }
      ],
      "name": "markRewardsSet",
      "outputs": [],
      "payable": false,
      "stateMutability": "nonpayable",
      "type": "function"
    },
    {
      "constant": true,
      "inputs": [
        {
          "name": "_addresses",
          "type": "address[]"
        }
      ],
      "name": "getRewards",
      "outputs": [
        {
          "name": "",
          "type": "uint256[]"
        },
        {
          "name": "",
          "type": "uint256[]"
        }
      ],
      "payable": false,
      "stateMutability": "view",
      "type": "function"
    },
    {
      "constant": false,
      "inputs": [],
      "name": "triggerDispute",
      "outputs": [],
      "payable": false,
      "stateMutability": "nonpayable",
      "type": "function"
    },
    {
      "constant": true,
      "inputs": [],
      "name": "getRewardsIndex",
      "outputs": [
        {
          "name": "",
          "type": "address[]"
        }
      ],
      "payable": false,
      "stateMutability": "view",
      "type": "function"
    },
    {
      "constant": true,
      "inputs": [],
      "name": "getParticipants",
      "outputs": [
        {
          "name": "",
          "type": "address[]"
        }
      ],
      "payable": false,
      "stateMutability": "view",
      "type": "function"
    },
    {
      "constant": true,
      "inputs": [],
      "name": "stakingAmount",
      "outputs": [
        {
          "name": "",
          "type": "uint256"
        }
      ],
      "payable": false,
      "stateMutability": "view",
      "type": "function"
    },
    {
      "constant": true,
      "inputs": [],
      "name": "getEventResolvers",
      "outputs": [
        {
          "name": "",
          "type": "address[]"
        }
      ],
      "payable": false,
      "stateMutability": "view",
      "type": "function"
    },
    {
      "constant": true,
      "inputs": [],
      "name": "eventName",
      "outputs": [
        {
          "name": "",
          "type": "string"
        }
      ],
      "payable": false,
      "stateMutability": "view",
      "type": "function"
    },
    {
      "constant": false,
      "inputs": [
        {
          "name": "validationRound",
          "type": "uint256"
        },
        {
          "name": "altHash",
          "type": "string"
        }
      ],
      "name": "rejectRewards",
      "outputs": [],
      "payable": false,
      "stateMutability": "nonpayable",
      "type": "function"
    },
    {
      "constant": true,
      "inputs": [],
      "name": "getConsensusRules",
      "outputs": [
        {
          "name": "",
          "type": "uint256[6]"
        }
      ],
      "payable": false,
      "stateMutability": "view",
      "type": "function"
    },
    {
      "constant": true,
      "inputs": [],
      "name": "owner",
      "outputs": [
        {
          "name": "",
          "type": "address"
        }
      ],
      "payable": false,
      "stateMutability": "view",
      "type": "function"
    },
    {
      "constant": true,
      "inputs": [],
      "name": "tokenAddress",
      "outputs": [
        {
          "name": "",
          "type": "address"
        }
      ],
      "payable": false,
      "stateMutability": "view",
      "type": "function"
    },
    {
      "constant": false,
      "inputs": [
        {
          "name": "validationRound",
          "type": "uint256"
        }
      ],
      "name": "approveRewards",
      "outputs": [],
      "payable": false,
      "stateMutability": "nonpayable",
      "type": "function"
    },
    {
      "constant": true,
      "inputs": [],
      "name": "getEventTimes",
      "outputs": [
        {
          "name": "",
          "type": "uint256[5]"
        }
      ],
      "payable": false,
      "stateMutability": "view",
      "type": "function"
    },
    {
      "constant": false,
      "inputs": [
        {
          "name": "_results",
          "type": "bytes32[]"
        }
      ],
      "name": "setResults",
      "outputs": [],
      "payable": false,
      "stateMutability": "nonpayable",
      "type": "function"
    },
    {
      "constant": false,
      "inputs": [],
      "name": "claimReward",
      "outputs": [],
      "payable": false,
      "stateMutability": "nonpayable",
      "type": "function"
    },
    {
      "constant": true,
      "inputs": [],
      "name": "getDisputeData",
      "outputs": [
        {
          "name": "",
          "type": "uint256[5]"
        },
        {
          "name": "",
          "type": "address"
        }
      ],
      "payable": false,
      "stateMutability": "view",
      "type": "function"
    },
    {
      "constant": true,
      "inputs": [],
      "name": "getRequiredRoles",
      "outputs": [
        {
          "name": "",
          "type": "uint256[]"
        }
      ],
      "payable": false,
      "stateMutability": "view",
      "type": "function"
    },
    {
      "constant": false,
      "inputs": [],
      "name": "recoverLeftovers",
      "outputs": [],
      "payable": false,
      "stateMutability": "nonpayable",
      "type": "function"
    },
    {
      "constant": true,
      "inputs": [],
      "name": "leftoversRecoverableAfter",
      "outputs": [
        {
          "name": "",
          "type": "uint256"
        }
      ],
      "payable": false,
      "stateMutability": "view",
      "type": "function"
    },
    {
      "constant": true,
      "inputs": [
        {
          "name": "_user",
          "type": "address"
        }
      ],
      "name": "isParticipating",
      "outputs": [
        {
          "name": "",
          "type": "bool"
        }
      ],
      "payable": false,
      "stateMutability": "view",
      "type": "function"
    },
    {
      "constant": false,
      "inputs": [],
      "name": "joinEvent",
      "outputs": [],
      "payable": false,
      "stateMutability": "nonpayable",
      "type": "function"
    },
    {
      "constant": false,
      "inputs": [],
      "name": "cancelEvent",
      "outputs": [],
      "payable": false,
      "stateMutability": "nonpayable",
      "type": "function"
    },
    {
      "constant": true,
      "inputs": [],
      "name": "getEventCategory",
      "outputs": [
        {
          "name": "",
          "type": "bytes32[2]"
        }
      ],
      "payable": false,
      "stateMutability": "view",
      "type": "function"
    },
    {
      "payable": true,
      "stateMutability": "payable",
      "type": "fallback"
    },
    {
      "anonymous": false,
      "inputs": [
        {
          "indexed": false,
          "name": "newState",
          "type": "uint8"
        }
      ],
      "name": "StateTransition",
      "type": "event"
    },
    {
      "anonymous": false,
      "inputs": [
        {
          "indexed": false,
          "name": "wallet",
          "type": "address"
        }
      ],
      "name": "JoinEvent",
      "type": "event"
    },
    {
      "anonymous": false,
      "inputs": [
        {
          "indexed": false,
          "name": "recipient",
          "type": "address"
        }
      ],
      "name": "ClaimReward",
      "type": "event"
    },
    {
      "anonymous": false,
      "inputs": [
        {
          "indexed": true,
          "name": "byAddress",
          "type": "address"
        },
        {
          "indexed": false,
          "name": "description",
          "type": "string"
        }
      ],
      "name": "Error",
      "type": "event"
    },
    {
      "anonymous": false,
      "inputs": [
        {
          "indexed": false,
          "name": "description",
          "type": "string"
        }
      ],
      "name": "EventFailed",
      "type": "event"
    },
    {
      "anonymous": false,
      "inputs": [
        {
          "indexed": false,
          "name": "validationRound",
          "type": "uint256"
        }
      ],
      "name": "ValidationStarted",
      "type": "event"
    },
    {
      "anonymous": false,
      "inputs": [
        {
          "indexed": false,
          "name": "validationRound",
          "type": "uint256"
        }
      ],
      "name": "ValidationRestart",
      "type": "event"
    },
    {
      "anonymous": false,
      "inputs": [
        {
          "indexed": false,
          "name": "byAddress",
          "type": "address"
        }
      ],
      "name": "DisputeTriggered",
      "type": "event"
    },
    {
      "anonymous": false,
      "inputs": [
        {
          "indexed": false,
          "name": "recipient",
          "type": "address"
        }
      ],
      "name": "ClaimStake",
      "type": "event"
    }
  ],
  "bytecode": "0x60806040526006805460ff19908116909155602f8054909116905534801561002657600080fd5b506146cf806100366000396000f3fe6080604052600436106101d0577c01000000000000000000000000000000000000000000000000000000006000350462f1614281146101d2578063073f03fb146101f957806311e956c81461022a57806312065fe014610253578063148b597c146102a3578063181b3f5a146102b85780631865c57d146102cd5780631a0ddce9146102e25780633d18b9121461049a5780634227357c146104af57806342380eaf14610539578063437933cc1461054e57806345f99d51146106015780634717f97c146106165780634b766b951461067b578063510ccb431461072e57806352f91acf1461087757806354e33cf01461088c5780635aa68ac0146108a1578063739a3e02146108b657806374539f98146108cb5780638043c9c0146108e05780638126cb1e146108f557806381c2d875146109af5780638da5cb5b146109d95780639d76ea58146109ee578063a77ae83914610a03578063ab95b58614610a2d578063ac88490214610a57578063b88a802f14610b07578063d6e9b01914610b1c578063e0807f8914610b82578063efba9bd214610b97578063f38a803f14610bac578063f4caee8814610bc1578063f9010d1914610bf4578063fb6c953714610c09578063fce1a10c14610c1e575b005b3480156101de57600080fd5b506101e7610c33565b60408051918252519081900360200190f35b34801561020557600080fd5b5061020e610c39565b60408051600160a060020a039092168252519081900360200190f35b34801561023657600080fd5b5061023f610c48565b604080519115158252519081900360200190f35b34801561025f57600080fd5b50610268610c5a565b6040518082600260200280838360005b83811015610290578181015183820152602001610278565b5050505090500191505060405180910390f35b3480156102af57600080fd5b5061023f610d0a565b3480156102c457600080fd5b506101e7610d18565b3480156102d957600080fd5b506101e7610d63565b3480156102ee57600080fd5b506101d06004803603606081101561030557600080fd5b81019060208101813564010000000081111561032057600080fd5b82018360208201111561033257600080fd5b8035906020019184602083028401116401000000008311171561035457600080fd5b91908080602002602001604051908101604052809392919081815260200183836020028082843760009201919091525092959493602081019350359150506401000000008111156103a457600080fd5b8201836020820111156103b657600080fd5b803590602001918460208302840111640100000000831117156103d857600080fd5b919080806020026020016040519081016040528093929190818152602001838360200280828437600092019190915250929594936020810193503591505064010000000081111561042857600080fd5b82018360208201111561043a57600080fd5b8035906020019184602083028401116401000000008311171561045c57600080fd5b919080806020026020016040519081016040528093929190818152602001838360200280828437600092019190915250929550610d7c945050505050565b3480156104a657600080fd5b5061026861115e565b3480156104bb57600080fd5b506104c46111a0565b6040805160208082528351818301528351919283929083019185019080838360005b838110156104fe5781810151838201526020016104e6565b50505050905090810190601f16801561052b5780820380516001836020036101000a031916815260200191505b509250505060405180910390f35b34801561054557600080fd5b506104c461122e565b34801561055a57600080fd5b506101d06004803603602081101561057157600080fd5b81019060208101813564010000000081111561058c57600080fd5b82018360208201111561059e57600080fd5b803590602001918460018302840111640100000000831117156105c057600080fd5b91908080601f016020809104026020016040519081016040528093929190818152602001838380828437600092019190915250929550611289945050505050565b34801561060d57600080fd5b506101d06112b7565b34801561062257600080fd5b5061062b611632565b60408051602080825283518183015283519192839290830191858101910280838360005b8381101561066757818101518382015260200161064f565b505050509050019250505060405180910390f35b34801561068757600080fd5b506101d06004803603602081101561069e57600080fd5b8101906020810181356401000000008111156106b957600080fd5b8201836020820111156106cb57600080fd5b803590602001918460018302840111640100000000831117156106ed57600080fd5b91908080601f01602080910402602001604051908101604052809392919081815260200183838082843760009201919091525092955061168a945050505050565b34801561073a57600080fd5b506107de6004803603602081101561075157600080fd5b81019060208101813564010000000081111561076c57600080fd5b82018360208201111561077e57600080fd5b803590602001918460208302840111640100000000831117156107a057600080fd5b919080806020026020016040519081016040528093929190818152602001838360200280828437600092019190915250929550611983945050505050565b604051808060200180602001838103835285818151815260200191508051906020019060200280838360005b8381101561082257818101518382015260200161080a565b50505050905001838103825284818151815260200191508051906020019060200280838360005b83811015610861578181015183820152602001610849565b5050505090500194505050505060405180910390f35b34801561088357600080fd5b506101d0611abe565b34801561089857600080fd5b5061062b612047565b3480156108ad57600080fd5b5061062b6120a8565b3480156108c257600080fd5b506101e7612108565b3480156108d757600080fd5b5061062b61210e565b3480156108ec57600080fd5b506104c461216e565b34801561090157600080fd5b506101d06004803603604081101561091857600080fd5b8135919081019060408101602082013564010000000081111561093a57600080fd5b82018360208201111561094c57600080fd5b8035906020019184600183028401116401000000008311171561096e57600080fd5b91908080601f0160208091040260200160405190810160405280939291908181526020018383808284376000920191909152509295506121c9945050505050565b3480156109bb57600080fd5b506109c461254c565b60405181518152808260c08083836020610278565b3480156109e557600080fd5b5061020e6125a2565b3480156109fa57600080fd5b5061020e6125b1565b348015610a0f57600080fd5b506101d060048036036020811015610a2657600080fd5b50356125c0565b348015610a3957600080fd5b50610a426127f5565b60405181518152808260a08083836020610278565b348015610a6357600080fd5b506101d060048036036020811015610a7a57600080fd5b810190602081018135640100000000811115610a9557600080fd5b820183602082011115610aa757600080fd5b80359060200191846020830284011164010000000083111715610ac957600080fd5b919080806020026020016040519081016040528093929190818152602001838360200280828437600092019190915250929550612834945050505050565b348015610b1357600080fd5b506101d0612ab9565b348015610b2857600080fd5b50610b31612fff565b604051808360a080838360005b83811015610b56578181015183820152602001610b3e565b5050505090500182600160a060020a0316600160a060020a031681526020019250505060405180910390f35b348015610b8e57600080fd5b5061062b61304b565b348015610ba357600080fd5b506101d06130a1565b348015610bb857600080fd5b506101e7613395565b348015610bcd57600080fd5b5061023f60048036036020811015610be457600080fd5b5035600160a060020a031661339b565b348015610c0057600080fd5b506101d06133bd565b348015610c1557600080fd5b506101d0613a56565b348015610c2a57600080fd5b50610268613bfa565b600f5481565b600254600160a060020a031681565b600754600160a060020a031633145b90565b610c62614435565b604080518082018252308031825260015483517f70a08231000000000000000000000000000000000000000000000000000000008152600481019290925292519192602080850193600160a060020a03909216926370a082319260248083019392829003018186803b158015610cd757600080fd5b505afa158015610ceb573d6000803e3d6000fd5b505050506040513d6020811015610d0157600080fd5b50519052905090565b602f54610100900460ff1681565b601e546000901515610d2d5750601c54610c57565b60205460011415610d5657601e54601c54811515610d4757fe5b04601c60000154019050610c57565b50602054601c5402610c57565b602f5460009060ff166005811115610d7757fe5b905090565b600754600160a060020a03163314610dde576040805160e560020a62461bcd02815260206004820152601d60248201527f4e6f7420612064657369676e61746564206d6173746572206e6f64652e000000604482015290519081900360640190fd5b6000602f5460ff166005811115610df157fe5b148015610e0057506015544210155b15610e0d57610e0d613c2f565b6001602f5460ff166005811115610e2057fe5b148015610e2f57506016544210155b15610e8e576029546011541015610e8657610e81606060405190810160405280603381526020016000805160206146248339815191528152602001600080516020614664833981519152815250613d45565b610e8e565b610e8e613c2f565b6003602f5460ff166005811115610ea157fe5b148015610eb05750601f544210155b15610ebd57610ebd613c2f565b6002602f5460ff166005811115610ed057fe5b148015610ee35750601a54601854014210155b15610f1457610f14604080519081016040528060208152602001600080516020614604833981519152815250613d45565b602f5460029060ff166005811115610f2857fe5b816005811115610f3457fe5b14610f86576040805160e560020a62461bcd02815260206004820152602480820152600080516020614684833981519152604482015260e160020a6330ba329702606482015290519081900360840190fd5b82518451148015610f98575081518451145b1515610fa357600080fd5b600060065460ff166002811115610fb657fe5b14611031576040805160e560020a62461bcd02815260206004820152602660248201527f4e6f7420706f737369626c6520696e20746869732076616c69646174696f6e2060448201527f73746174652e0000000000000000000000000000000000000000000000000000606482015290519081900360840190fd5b60005b845181101561115757838181518110151561104b57fe5b9060200190602002015160136000878481518110151561106757fe5b602090810291909101810151600160a060020a03168252818101929092526040908101600090812081805290925290205582518390829081106110a657fe5b906020019060200201516013600087848151811015156110c257fe5b602090810291909101810151600160a060020a03168252818101929092526040908101600090812060018252909252902055845160149086908390811061110557fe5b602090810291909101810151825460018082018555600094855292909320909201805473ffffffffffffffffffffffffffffffffffffffff1916600160a060020a039093169290921790915501611034565b5050505050565b611166614435565b5060408051808201825233600090815260136020908152838220828052808252848320548452600183528152929020549181019190915290565b6027805460408051602060026001851615610100026000190190941693909304601f810184900484028201840190925281815292918301828280156112265780601f106111fb57610100808354040283529160200191611226565b820191906000526020600020905b81548152906001019060200180831161120957829003601f168201915b505050505081565b6019805460408051602060026001851615610100026000190190941693909304601f810184900484028201840190925281815292918301828280156112265780601f106111fb57610100808354040283529160200191611226565b600054600160a060020a031633146112a057600080fd5b80516112b3906027906020840190614450565b5050565b6112c03361339b565b1515611316576040805160e560020a62461bcd02815260206004820152601260248201527f4e6f742070617274696369706174696e672e0000000000000000000000000000604482015290519081900360640190fd5b6000602f5460ff16600581111561132957fe5b14801561133857506015544210155b1561134557611345613c2f565b6001602f5460ff16600581111561135857fe5b14801561136757506016544210155b156113c65760295460115410156113be576113b9606060405190810160405280603381526020016000805160206146248339815191528152602001600080516020614664833981519152815250613d45565b6113c6565b6113c6613c2f565b6003602f5460ff1660058111156113d957fe5b1480156113e85750601f544210155b156113f5576113f5613c2f565b6002602f5460ff16600581111561140857fe5b14801561141b5750601a54601854014210155b1561144c5761144c604080519081016040528060208152602001600080516020614604833981519152815250613d45565b602f5460059060ff168181111561145f57fe5b81600581111561146b57fe5b146114bd576040805160e560020a62461bcd02815260206004820152602480820152600080516020614684833981519152604482015260e160020a6330ba329702606482015290519081900360840190fd5b6000601b5411806114e55750601e5460001080156114e55750602254600160a060020a031633145b151561153b576040805160e560020a62461bcd02815260206004820152601160248201527f4e6f207374616b6520746f20636c61696d000000000000000000000000000000604482015290519081900360640190fd5b602254600090600160a060020a031633141561155657601c54015b601b546001546040805160e060020a63a9059cbb028152336004820152939092016024840181905291519192600160a060020a039091169163a9059cbb916044808201926020929091908290030181600087803b1580156115b657600080fd5b505af11580156115ca573d6000803e3d6000fd5b505050506040513d60208110156115e057600080fd5b505033600081815260106020908152604091829020805460ff19169055815192835290517f5a53668be860a256c7ff92bff48881a9db38994032e2b90e5a0bdd51921fbeb79281900390910190a15050565b6060602880548060200260200160405190810160405280929190818152602001828054801561168057602002820191906000526020600020905b81548152602001906001019080831161166c575b5050505050905090565b600754600160a060020a031633146116ec576040805160e560020a62461bcd02815260206004820152601d60248201527f4e6f7420612064657369676e61746564206d6173746572206e6f64652e000000604482015290519081900360640190fd5b6000602f5460ff1660058111156116ff57fe5b14801561170e57506015544210155b1561171b5761171b613c2f565b6001602f5460ff16600581111561172e57fe5b14801561173d57506016544210155b1561179c5760295460115410156117945761178f606060405190810160405280603381526020016000805160206146248339815191528152602001600080516020614664833981519152815250613d45565b61179c565b61179c613c2f565b6003602f5460ff1660058111156117af57fe5b1480156117be5750601f544210155b156117cb576117cb613c2f565b6002602f5460ff1660058111156117de57fe5b1480156117f15750601a54601854014210155b1561182257611822604080519081016040528060208152602001600080516020614604833981519152815250613d45565b602f5460029060ff16600581111561183657fe5b81600581111561184257fe5b14611894576040805160e560020a62461bcd02815260206004820152602480820152600080516020614684833981519152604482015260e160020a6330ba329702606482015290519081900360840190fd5b600060065460ff1660028111156118a757fe5b14611922576040805160e560020a62461bcd02815260206004820152602660248201527f4e6f7420706f737369626c6520696e20746869732076616c69646174696f6e2060448201527f73746174652e0000000000000000000000000000000000000000000000000000606482015290519081900360840190fd5b8151611935906008906020850190614450565b50600160098190556006805460ff19169091179055600f5460408051918252517f47c2e9e59e6d2347f314927d02f36b95696a09b5f0ac0bae119ff5ae937016559181900360200190a15050565b606080606083516040519080825280602002602001820160405280156119b3578160200160208202803883390190505b509050606084516040519080825280602002602001820160405280156119e3578160200160208202803883390190505b50905060005b8551811015611ab357601360008783815181101515611a0457fe5b602090810291909101810151600160a060020a0316825281810192909252604090810160009081208180529092529020548351849083908110611a4357fe5b602090810290910101528551601390600090889084908110611a6157fe5b602090810291909101810151600160a060020a031682528181019290925260409081016000908120600182529092529020548251839083908110611aa157fe5b602090810290910101526001016119e9565b509092509050915091565b6000602f5460ff166005811115611ad157fe5b148015611ae057506015544210155b15611aed57611aed613c2f565b6001602f5460ff166005811115611b0057fe5b148015611b0f57506016544210155b15611b6e576029546011541015611b6657611b61606060405190810160405280603381526020016000805160206146248339815191528152602001600080516020614664833981519152815250613d45565b611b6e565b611b6e613c2f565b6003602f5460ff166005811115611b8157fe5b148015611b905750601f544210155b15611b9d57611b9d613c2f565b6002602f5460ff166005811115611bb057fe5b148015611bc35750601a54601854014210155b15611bf457611bf4604080519081016040528060208152602001600080516020614604833981519152815250613d45565b611bfd3361339b565b1515611c53576040805160e560020a62461bcd02815260206004820152601260248201527f4e6f742070617274696369706174696e672e0000000000000000000000000000604482015290519081900360640190fd5b602f5460039060ff166005811115611c6757fe5b816005811115611c7357fe5b14611cc5576040805160e560020a62461bcd02815260206004820152602480820152600080516020614684833981519152604482015260e160020a6330ba329702606482015290519081900360840190fd5b6000611ccf610d18565b600154604080517fdd62ed3e00000000000000000000000000000000000000000000000000000000815233600482015230602482015290519293508392600160a060020a039092169163dd62ed3e91604480820192602092909190829003018186803b158015611d3e57600080fd5b505afa158015611d52573d6000803e3d6000fd5b505050506040513d6020811015611d6857600080fd5b50511015611de6576040805160e560020a62461bcd02815260206004820152602560248201527f4e6f7420656e6f75676820746f6b656e73207374616b656420666f722064697360448201527f707574652e000000000000000000000000000000000000000000000000000000606482015290519081900360840190fd5b3360009081526021602052604090205460ff1615611e4e576040805160e560020a62461bcd02815260206004820152601c60248201527f416c726561647920747269676765726564206120646973707574652e00000000604482015290519081900360640190fd5b601e5460001015611ee557600154602254601c546040805160e060020a63a9059cbb028152600160a060020a039384166004820152602481019290925251919092169163a9059cbb9160448083019260209291908290030181600087803b158015611eb857600080fd5b505af1158015611ecc573d6000803e3d6000fd5b505050506040513d6020811015611ee257600080fd5b50505b601c818155601e80546001908101909155336000818152602160209081526040808320805460ff1916861790556022805473ffffffffffffffffffffffffffffffffffffffff1916851790559354945484517f23b872dd000000000000000000000000000000000000000000000000000000008152600481019490945230602485015260448401529251600160a060020a03909416936323b872dd936064808501949193918390030190829087803b158015611fa057600080fd5b505af1158015611fb4573d6000803e3d6000fd5b505050506040513d6020811015611fca57600080fd5b50611fd59050613ec7565b611fdd613fe4565b602f805460ff191660011790556023544281016017819055601681905501601855612006614094565b602e805460ff191690556040805133815290517ff6d97c5e133e50668a6b3607d8748ef6599c3303babb2b08a515a5a67369f45f9181900360200190a15050565b6060601480548060200260200160405190810160405280929190818152602001828054801561168057602002820191906000526020600020905b8154600160a060020a03168152600190910190602001808311612081575050505050905090565b6060601180548060200260200160405190810160405280929190818152602001828054801561168057602002820191906000526020600020908154600160a060020a03168152600190910190602001808311612081575050505050905090565b601b5481565b6060600380548060200260200160405190810160405280929190818152602001828054801561168057602002820191906000526020600020908154600160a060020a03168152600190910190602001808311612081575050505050905090565b6024805460408051602060026001851615610100026000190190941693909304601f810184900484028201840190925281815292918301828280156112265780601f106111fb57610100808354040283529160200191611226565b602f5460029060ff1660058111156121dd57fe5b8160058111156121e957fe5b1461223b576040805160e560020a62461bcd02815260206004820152602480820152600080516020614684833981519152604482015260e160020a6330ba329702606482015290519081900360840190fd5b82612245336140dc565b80156122565750612254610c48565b155b15156122ac576040805160e560020a62461bcd02815260206004820152601b60248201527f4e6f7420612076616c69642073656e64657220616464726573732e0000000000604482015290519081900360640190fd5b600160065460ff1660028111156122bf57fe5b14612314576040805160e560020a62461bcd02815260206004820152601760248201527f4e6f742076616c69646174696e6720726577617264732e000000000000000000604482015290519081900360640190fd5b600f54811461236d576040805160e560020a62461bcd02815260206004820152601a60248201527f56616c69646174696f6e20726f756e64206d69736d617463682e000000000000604482015290519081900360640190fd5b600f54336000908152600c6020526040902054106123d5576040805160e560020a62461bcd02815260206004820152601d60248201527f416c726561647920766f74656420666f72207468697320726f756e642e000000604482015290519081900360640190fd5b600a80546001019055600f54336000908152600c602090815260409182902092909255518451600e9286929182918401908083835b602083106124295780518252601f19909201916020918201910161240a565b51815160209384036101000a600019018019909216911617905292019485525060405193849003019092205460ff161515915061253e905057600b80546001810180835560009290925284516124a6917f0175b7a638427703f0dbe7bb9bbf987a2551717b34e79f33b5b1008d1fa01db901906020870190614450565b50506007600601836040518082805190602001908083835b602083106124dd5780518252601f1990920191602091820191016124be565b51815160001960209485036101000a0190811690199190911617905292019485525060405193849003810190932080546001810182556000918252939020909201805473ffffffffffffffffffffffffffffffffffffffff19163317905550505b612546614139565b50505050565b6125546144ce565b6040805160c0810182526029548152602a546020820152602b5491810191909152602c546060820152602d546080820152602e5460a082019060ff16600181111561259b57fe5b9052905090565b600054600160a060020a031681565b600154600160a060020a031681565b602f5460029060ff1660058111156125d457fe5b8160058111156125e057fe5b14612632576040805160e560020a62461bcd02815260206004820152602480820152600080516020614684833981519152604482015260e160020a6330ba329702606482015290519081900360840190fd5b8161263c336140dc565b801561264d575061264b610c48565b155b15156126a3576040805160e560020a62461bcd02815260206004820152601b60248201527f4e6f7420612076616c69642073656e64657220616464726573732e0000000000604482015290519081900360640190fd5b600160065460ff1660028111156126b657fe5b1461270b576040805160e560020a62461bcd02815260206004820152601760248201527f4e6f742076616c69646174696e6720726577617264732e000000000000000000604482015290519081900360640190fd5b600f548114612764576040805160e560020a62461bcd02815260206004820152601a60248201527f56616c69646174696f6e20726f756e64206d69736d617463682e000000000000604482015290519081900360640190fd5b600f54336000908152600c6020526040902054106127cc576040805160e560020a62461bcd02815260206004820152601d60248201527f416c726561647920766f74656420666f72207468697320726f756e642e000000604482015290519081900360640190fd5b600980546001019055600f54336000908152600c60205260409020556127f0614154565b505050565b6127fd6144ed565b60a0604051908101604052806015548152602001601654815260200160175481526020016018548152602001601a54815250905090565b600754600160a060020a03163314612896576040805160e560020a62461bcd02815260206004820152601d60248201527f4e6f7420612064657369676e61746564206d6173746572206e6f64652e000000604482015290519081900360640190fd5b6000602f5460ff1660058111156128a957fe5b1480156128b857506015544210155b156128c5576128c5613c2f565b6001602f5460ff1660058111156128d857fe5b1480156128e757506016544210155b1561294657602954601154101561293e57612939606060405190810160405280603381526020016000805160206146248339815191528152602001600080516020614664833981519152815250613d45565b612946565b612946613c2f565b6003602f5460ff16600581111561295957fe5b1480156129685750601f544210155b1561297557612975613c2f565b6002602f5460ff16600581111561298857fe5b14801561299b5750601a54601854014210155b156129cc576129cc604080519081016040528060208152602001600080516020614604833981519152815250613d45565b602f5460029060ff1660058111156129e057fe5b8160058111156129ec57fe5b14612a3e576040805160e560020a62461bcd02815260206004820152602480820152600080516020614684833981519152604482015260e160020a6330ba329702606482015290519081900360840190fd5b600060065460ff166002811115612a5157fe5b14612aa6576040805160e560020a62461bcd02815260206004820152601e60248201527f4f6e6c79206265666f72652076616c69646174696f6e207374617274732e0000604482015290519081900360640190fd5b81516127f090602890602085019061450c565b612ac23361339b565b1515612b18576040805160e560020a62461bcd02815260206004820152601260248201527f4e6f742070617274696369706174696e672e0000000000000000000000000000604482015290519081900360640190fd5b6000602f5460ff166005811115612b2b57fe5b148015612b3a57506015544210155b15612b4757612b47613c2f565b6001602f5460ff166005811115612b5a57fe5b148015612b6957506016544210155b15612bc8576029546011541015612bc057612bbb606060405190810160405280603381526020016000805160206146248339815191528152602001600080516020614664833981519152815250613d45565b612bc8565b612bc8613c2f565b6003602f5460ff166005811115612bdb57fe5b148015612bea5750601f544210155b15612bf757612bf7613c2f565b6002602f5460ff166005811115612c0a57fe5b148015612c1d5750601a54601854014210155b15612c4e57612c4e604080519081016040528060208152602001600080516020614604833981519152815250613d45565b602f5460049060ff166005811115612c6257fe5b816005811115612c6e57fe5b14612cc0576040805160e560020a62461bcd02815260206004820152602480820152600080516020614684833981519152604482015260e160020a6330ba329702606482015290519081900360840190fd5b336000908152601360209081526040808320838052909152808220546001835291205481158015612cef575080155b15612d72576040805160208082526025908201527f596f7520646f206e6f74206861766520616e79207265776172647320746f2063818301527f6c61696d2e000000000000000000000000000000000000000000000000000000606082015290513391600080516020614644833981519152919081900360800190a25050612ffc565b33600090815260136020908152604080832083805290915290205430311080612e3f575033600090815260136020908152604080832060018085529083529281902054925481517f70a082310000000000000000000000000000000000000000000000000000000081523060048201529151600160a060020a03909116926370a082319260248082019391829003018186803b158015612e1157600080fd5b505afa158015612e25573d6000803e3d6000fd5b505050506040513d6020811015612e3b57600080fd5b5051105b15612ee8576040805160208082526045908201527f437269746963616c206572726f723a206e6f7420656e6f7567682062616c616e818301527f636520746f20706179206f7574207265776172642e20436f6e7461637420566560608201527f726974792e000000000000000000000000000000000000000000000000000000608082015290513391600080516020614644833981519152919081900360a00190a25050612ffc565b33600081815260136020908152604080832083805290915280822082905560018252808220829055516108fc85150291859190818181858888f19350505050158015612f38573d6000803e3d6000fd5b506000811115612fc6576001546040805160e060020a63a9059cbb028152336004820152602481018490529051600160a060020a039092169163a9059cbb916044808201926020929091908290030181600087803b158015612f9957600080fd5b505af1158015612fad573d6000803e3d6000fd5b505050506040513d6020811015612fc357600080fd5b50505b6040805133815290517f63e32091e4445d16e29c33a6b264577c2d86694021aa4e6f4dd590048f5792e89181900360200190a150505b50565b6130076144ed565b506040805160a081018252601c548152601d546020808301919091525491810191909152601e546060820152601f546080820152602254600160a060020a03169091565b60606005805480602002602001604051908101604052809291908181526020018280548015611680576020028201919060005260206000209081548152602001906001019080831161166c575050505050905090565b600054600160a060020a031633146130b857600080fd5b6000602f5460ff1660058111156130cb57fe5b1480156130da57506015544210155b156130e7576130e7613c2f565b6001602f5460ff1660058111156130fa57fe5b14801561310957506016544210155b156131685760295460115410156131605761315b606060405190810160405280603381526020016000805160206146248339815191528152602001600080516020614664833981519152815250613d45565b613168565b613168613c2f565b6003602f5460ff16600581111561317b57fe5b14801561318a5750601f544210155b1561319757613197613c2f565b6002602f5460ff1660058111156131aa57fe5b1480156131bd5750601a54601854014210155b156131ee576131ee604080519081016040528060208152602001600080516020614604833981519152815250613d45565b6004602f5460ff16600581111561320157fe5b148061321d57506005602f5460ff16600581111561321b57fe5b145b151561322857600080fd5b601a54601854016224ea000142101561324057600080fd5b60008054604051600160a060020a0390911691303180156108fc02929091818181858888f1935050505015801561327b573d6000803e3d6000fd5b50600154604080517f70a082310000000000000000000000000000000000000000000000000000000081523060048201529051600092600160a060020a0316916370a08231916024808301926020929190829003018186803b1580156132e057600080fd5b505afa1580156132f4573d6000803e3d6000fd5b505050506040513d602081101561330a57600080fd5b5051600154600080546040805160e060020a63a9059cbb028152600160a060020a03928316600482015260248101869052905194955092169263a9059cbb926044808201936020939283900390910190829087803b15801561336b57600080fd5b505af115801561337f573d6000803e3d6000fd5b505050506040513d60208110156127f057600080fd5b601a5481565b600160a060020a03811660009081526010602052604090205460ff165b919050565b6000602f5460ff1660058111156133d057fe5b1480156133df57506015544210155b156133ec576133ec613c2f565b6001602f5460ff1660058111156133ff57fe5b14801561340e57506016544210155b1561346d57602954601154101561346557613460606060405190810160405280603381526020016000805160206146248339815191528152602001600080516020614664833981519152815250613d45565b61346d565b61346d613c2f565b6003602f5460ff16600581111561348057fe5b14801561348f5750601f544210155b1561349c5761349c613c2f565b6002602f5460ff1660058111156134af57fe5b1480156134c25750601a54601854014210155b156134f3576134f3604080519081016040528060208152602001600080516020614604833981519152815250613d45565b60055460001080156135d8575060048054604080517f35fe903400000000000000000000000000000000000000000000000000000000815233938101848152602482019283526005805460448401819052600160a060020a03909516956335fe90349590949193606401908490801561358b57602002820191906000526020600020905b815481526020019060010190808311613577575b5050935050505060206040518083038186803b1580156135aa57600080fd5b505afa1580156135be573d6000803e3d6000fd5b505050506040513d60208110156135d457600080fd5b5051155b15613633576040805160208082526012908201527f5065726d697373696f6e2064656e6965642e00000000000000000000000000008183015290513391600080516020614644833981519152919081900360600190a2613a54565b602d546011541061369457604080516020808252600e908201527f4576656e742069732066756c6c2e0000000000000000000000000000000000008183015290513391600080516020614644833981519152919081900360600190a2613a54565b61369d3361339b565b156136f857604080516020808252601e908201527f596f752061726520616c72656164792070617274696369706174696e672e00008183015290513391600080516020614644833981519152919081900360600190a2613a54565b6001602f5460ff16600581111561370b57fe5b1461378c576040805160208082526030908201527f596f752063616e206e6f74206a6f696e20746865206576656e7420696e206974818301527f732063757272656e742073746174652e00000000000000000000000000000000606082015290513391600080516020614644833981519152919081900360800190a2613a54565b6000601b541180156138345750601b54600154604080517fdd62ed3e0000000000000000000000000000000000000000000000000000000081523360048201523060248201529051600160a060020a039092169163dd62ed3e91604480820192602092909190829003018186803b15801561380657600080fd5b505afa15801561381a573d6000803e3d6000fd5b505050506040513d602081101561383057600080fd5b5051105b1561388f576040805160208082526019908201527f4e6f7420656e6f75676820746f6b656e73207374616b65642e000000000000008183015290513391600080516020614644833981519152919081900360600190a2613a54565b6000601b54111561393d57600154601b54604080517f23b872dd000000000000000000000000000000000000000000000000000000008152336004820152306024820152604481019290925251600160a060020a03909216916323b872dd916064808201926020929091908290030181600087803b15801561391057600080fd5b505af1158015613924573d6000803e3d6000fd5b505050506040513d602081101561393a57600080fd5b50505b33600081815260106020526040808220805460ff1916600190811790915560118054918201815583527f31ecc21a745e3968a04e9570e4425bc18fa8019c68028196b546d1669c200c6801805473ffffffffffffffffffffffffffffffffffffffff19168417905560025481517fb9d3514d00000000000000000000000000000000000000000000000000000000815260048101949094529051600160a060020a03919091169263b9d3514d92602480830193919282900301818387803b158015613a0757600080fd5b505af1158015613a1b573d6000803e3d6000fd5b50506040805133815290517f0940fd5e528ae9fa6c086f42387c791c3854e0febdf0717c2da155c9dbf1e86c9350908190036020019150a15b565b600054600160a060020a03163314613a6d57600080fd5b6017544210613ac6576040805160e560020a62461bcd02815260206004820152601660248201527f4576656e7420616c726561647920737461727465642e00000000000000000000604482015290519081900360640190fd5b602f805461ff0019166101001790554260185560408051808201909152601a81527f4576656e742063616e63656c65642062792063726561746f722e0000000000006020820152613b1690613d45565b6000601b541115613a545760005b601154811015612ffc5760015460118054600160a060020a039092169163a9059cbb919084908110613b5257fe5b6000918252602080832090910154601b54604080517c010000000000000000000000000000000000000000000000000000000063ffffffff8816028152600160a060020a03909316600484015260248301919091525160448083019491928390030190829087803b158015613bc657600080fd5b505af1158015613bda573d6000803e3d6000fd5b505050506040513d6020811015613bf057600080fd5b5050600101613b24565b613c02614435565b6040805180820191829052602580548252909160029060266020850180831161166c575050505050905090565b6004602f5460ff166005811115613c4257fe5b10613cbd576040805160e560020a62461bcd02815260206004820152602660248201527f4576656e742073746174652063616e2774206265206d6f64696669656420616e60448201527f796d6f72652e0000000000000000000000000000000000000000000000000000606482015290519081900360840190fd5b602f5460ff166005811115613cce57fe5b6001016005811115613cdc57fe5b602f805460ff19166001836005811115613cf257fe5b0217905550602f546040517fb9eb8a309bf89f3159b39681f485b6430fec1035b2b457edbcdadcdece888c0b9160ff169080826005811115613d3057fe5b60ff16815260200191505060405180910390a1565b6004602f5460ff166005811115613d5857fe5b10613dd3576040805160e560020a62461bcd02815260206004820152602660248201527f4576656e742073746174652063616e2774206265206d6f64696669656420616e60448201527f796d6f72652e0000000000000000000000000000000000000000000000000000606482015290519081900360840190fd5b602f805460ff1916600517905560408051602080825283518183015283517f860b7e55e58bd6095b36c4b4016ed8a2e47cb8ebd020fa0e43b32649deb540c3938593928392918301919085019080838360005b83811015613e3e578181015183820152602001613e26565b50505050905090810190601f168015613e6b5780820380516001836020036101000a031916815260200191505b509250505060405180910390a1602f546040517fb9eb8a309bf89f3159b39681f485b6430fec1035b2b457edbcdadcdece888c0b9160ff169080826005811115613eb157fe5b60ff16815260200191505060405180910390a150565b60006009819055600a8190555b600b54811015613f7b57600b8054600d919083908110613ef057fe5b906000526020600020016040518082805460018160011615610100020316600290048015613f555780601f10613f33576101008083540402835291820191613f55565b820191906000526020600020905b815481529060010190602001808311613f41575b50509283525050604051908190036020019020613f73906000614546565b600101613ed4565b50613f88600b6000614564565b6006805460ff1916905560005b600354811015612ffc57600060076005016000600384815481101515613fb757fe5b6000918252602080832090910154600160a060020a03168352820192909252604001902055600101613f95565b60005b6014548110156140875760006013600060148481548110151561400657fe5b600091825260208083209190910154600160a060020a0316835282810193909352604091820181208180529092528120919091556014805460139183918590811061404d57fe5b600091825260208083209190910154600160a060020a03168352828101939093526040918201812060018083529352209190915501613fe7565b50613a5460146000614546565b602b80546103e8606482810381028290049092019283905560298054808402929092049182019055602a805493820292909204928301909155602d8054929091019091019055565b6000805b6003548110156141305782600160a060020a031660038281548110151561410357fe5b600091825260209091200154600160a060020a031614156141285760019150506133b8565b6001016140e0565b50600092915050565b602b5460640361414761419c565b10613a5457613a546141b8565b602b5461415f6142a8565b10613a54576006805460ff191660021790556028541561418e57601d544201601f55614189613c2f565b613a54565b42601f55613a5460046142be565b600354600a54600091906064028115156141b257fe5b04905090565b6001600780016007600101604051808280546001816001161561010002031660029004801561421e5780601f106141fc57610100808354040283529182019161421e565b820191906000526020600020905b81548152906001019060200180831161420a575b50509283525050604051602091819003919091019020805460ff1916911515919091179055600b54600a54600f546009549290910360010191016000190111156142a0576141896040805190810160405280601a81526020017f436f6e73656e7375732063616e27742062652072656163686564000000000000815250613d45565b613a54614315565b600354600954600091906064028115156141b257fe5b602f805482919060ff191660018360058111156142d757fe5b0217905550602f546040517fb9eb8a309bf89f3159b39681f485b6430fec1035b2b457edbcdadcdece888c0b9160ff169080826005811115613eb157fe5b600f80546001019055600b8054600d9190600090811061433157fe5b9060005260206000200160405180828054600181600116156101000203166002900480156143965780601f10614374576101008083540402835291820191614396565b820191906000526020600020905b815481529060010190602001808311614382575b50509283525050604051908190036020019020805460009081106143b657fe5b6000918252602090912001546007805473ffffffffffffffffffffffffffffffffffffffff1916600160a060020a039092169190911790556143f6613ec7565b6143fe613fe4565b600f5460408051918252517fc785d855a24b92cb8266e0a85180a9fa4fe03d182f82a8555b01e1f986d267df9181900360200190a1565b60408051808201825290600290829080388339509192915050565b828054600181600116156101000203166002900490600052602060002090601f016020900481019282601f1061449157805160ff19168380011785556144be565b828001600101855582156144be579182015b828111156144be5782518255916020019190600101906144a3565b506144ca929150614582565b5090565b60c0604051908101604052806006906020820280388339509192915050565b60a0604051908101604052806005906020820280388339509192915050565b8280548282559060005260206000209081019282156144be57916020028201828111156144be5782518255916020019190600101906144a3565b5080546000825590600052602060002090810190612ffc9190614582565b5080546000825590600052602060002090810190612ffc919061459c565b610c5791905b808211156144ca5760008155600101614588565b610c5791905b808211156144ca5760006145b682826145bf565b506001016145a2565b50805460018160011615610100020316600290046000825580601f106145e55750612ffc565b601f016020900490600052602060002090810190612ffc919061458256fe4576656e7420746f6f6b20746f6f206c6f6e6720746f20636f6d706c6574652e4e6f7420656e6f756768207573657273206a6f696e656420666f722072657175cfa5f641c29090a64bc13dcafdc8c23d82677807046c35d636ca9c57fc9cb25769726564206d696e696d756d20766f7465732e000000000000000000000000004e6f7420706f737369626c6520696e2063757272656e74206576656e74207374a165627a7a7230582071bfaed901eb2be16f49ea92b07d7c4cca04c6bf67d080b9ac6b53a97f46ef060029",
  "source": "pragma solidity ^0.5.0;\n\n\nimport \"./verity_event/Implementation.sol\";\n\n\ncontract VerityEvent is Implementation {\n}\n",
  "sourcePath": "/Users/hiphop/code/verity-event/contracts/VerityEvent.sol",
  "compiler": {
    "name": "solc",
    "version": "0.5.1+commit.c8a2cb62.Emscripten.clang"
  },
  "schemaVersion": "3.0.1",
  "updatedAt": "2019-01-25T10:01:52.092Z",
  "devdoc": {
    "methods": {
      "isParticipating(address)": {
        "params": {
          "_user": "The addres to check for participation"
        },
        "return": "{bool} Whether the given address is a participant of this event"
      },
      "setRewards(address[],uint256[],uint256[])": {
        "params": {
          "_addresses": "A list of addresses",
          "_etherRewards": "A list of ether rewards, must be the exact same length as addresses",
          "_tokenRewards": "A list of token rewards, must be the exact same length as addresses"
        }
      }
    }
  },
  "userdoc": {
    "methods": {
      "approveRewards(uint256)": {
        "notice": "Called by event resolver nodes if they agree with rewards"
      },
      "claimReward()": {
        "notice": "Claim a reward. Needs to be called by the users themselves. Only available in the Reward state, after rewards have been received from the validation nodes."
      },
      "getConsensusRules()": {
        "notice": "Returns an array of consensus rules. [minTotalVotes, minConsensusVotes, minConsensusRatio, minParticipantRatio, maxParticipants]"
      },
      "getDisputeData()": {
        "notice": "Returns an array of dispute rules. [dispute amount, dispute timeout, dispute round]"
      },
      "getEventResolvers()": {
        "notice": "Returns the whole array of event resolvers."
      },
      "getReward()": {
        "notice": "Returns the calling user's assigned rewards. Can be 0. Only available to participating users in the Reward state, since rewards are not assigned before that."
      },
      "getRewards(address[])": {
        "notice": "Returns rewards for specified addresses. [[ethRewards, tokenRewards], [ethRewards, tokenRewards], ...]"
      },
      "getRewardsIndex()": {
        "notice": "Returns all the addresses that have rewards set."
      },
      "isMasterNode()": {
        "notice": "Checks if the address is current master node."
      },
      "isParticipating(address)": {
        "notice": "Checks whether an address is participating in this event."
      },
      "joinEvent()": {
        "notice": "Apply for participation in this event. Available only during the Application state. A transaction to this function has to be done by the users themselves, registering their wallet address as a participent. The transaction does not have to include any funds."
      },
      "markRewardsSet(string)": {
        "notice": "Triggered by the master node once rewards are set and ready to validate"
      },
      "rejectRewards(uint256,string)": {
        "notice": "Called by event resolvers if they don't agree with rewards"
      },
      "setRewards(address[],uint256[],uint256[])": {
        "notice": "Assign the actual rewards. Receives a list of addresses and a list rewards. Mapping between the two is done by the addresses' and reward's numerical index in the list, so order is important."
      },
      "triggerDispute()": {
        "notice": "Trigger a dispute."
      }
    }
  }
}