{
  "contractName": "VerityEvent",
  "abi": [
    {
      "constant": true,
      "inputs": [],
      "name": "rewardsValidationRound",
      "outputs": [
        {
          "name": "",
          "type": "uint256"
        }
      ],
      "payable": false,
      "stateMutability": "view",
      "type": "function"
    },
    {
      "constant": true,
      "inputs": [],
      "name": "dataFeedHash",
      "outputs": [
        {
          "name": "",
          "type": "string"
        }
      ],
      "payable": false,
      "stateMutability": "view",
      "type": "function"
    },
    {
      "constant": true,
      "inputs": [],
      "name": "eventName",
      "outputs": [
        {
          "name": "",
          "type": "string"
        }
      ],
      "payable": false,
      "stateMutability": "view",
      "type": "function"
    },
    {
      "constant": true,
      "inputs": [],
      "name": "owner",
      "outputs": [
        {
          "name": "",
          "type": "address"
        }
      ],
      "payable": false,
      "stateMutability": "view",
      "type": "function"
    },
    {
      "constant": true,
      "inputs": [],
      "name": "tokenAddress",
      "outputs": [
        {
          "name": "",
          "type": "address"
        }
      ],
      "payable": false,
      "stateMutability": "view",
      "type": "function"
    },
    {
      "inputs": [
        {
          "name": "_eventName",
          "type": "string"
        },
        {
          "name": "_applicationStartTime",
          "type": "uint256"
        },
        {
          "name": "_applicationEndTime",
          "type": "uint256"
        },
        {
          "name": "_eventStartTime",
          "type": "uint256"
        },
        {
          "name": "_eventRunTime",
          "type": "uint256"
        },
        {
          "name": "_tokenAddress",
          "type": "address"
        },
        {
          "name": "_registry",
          "type": "address"
        },
        {
          "name": "_eventResolvers",
          "type": "address[]"
        },
        {
          "name": "_leftoversRecoverableAfter",
          "type": "uint256"
        },
        {
          "name": "_consensusRules",
          "type": "uint256[6]"
        },
        {
          "name": "_stakingAmount",
          "type": "uint256"
        },
        {
          "name": "_disputeRules",
          "type": "uint256[2]"
        }
      ],
      "payable": true,
      "stateMutability": "payable",
      "type": "constructor"
    },
    {
      "payable": true,
      "stateMutability": "payable",
      "type": "fallback"
    },
    {
      "anonymous": false,
      "inputs": [
        {
          "indexed": false,
          "name": "newState",
          "type": "uint8"
        }
      ],
      "name": "StateTransition",
      "type": "event"
    },
    {
      "anonymous": false,
      "inputs": [
        {
          "indexed": false,
          "name": "wallet",
          "type": "address"
        }
      ],
      "name": "JoinEvent",
      "type": "event"
    },
    {
      "anonymous": false,
      "inputs": [
        {
          "indexed": false,
          "name": "recipient",
          "type": "address"
        }
      ],
      "name": "ClaimReward",
      "type": "event"
    },
    {
      "anonymous": false,
      "inputs": [
        {
          "indexed": false,
          "name": "description",
          "type": "string"
        }
      ],
      "name": "Error",
      "type": "event"
    },
    {
      "anonymous": false,
      "inputs": [
        {
          "indexed": false,
          "name": "description",
          "type": "string"
        }
      ],
      "name": "EventFailed",
      "type": "event"
    },
    {
      "anonymous": false,
      "inputs": [
        {
          "indexed": false,
          "name": "validationRound",
          "type": "uint256"
        }
      ],
      "name": "ValidationStarted",
      "type": "event"
    },
    {
      "anonymous": false,
      "inputs": [
        {
          "indexed": false,
          "name": "validationRound",
          "type": "uint256"
        }
      ],
      "name": "ValidationRestart",
      "type": "event"
    },
    {
      "anonymous": false,
      "inputs": [
        {
          "indexed": false,
          "name": "byAddress",
          "type": "address"
        }
      ],
      "name": "DisputeTriggered",
      "type": "event"
    },
    {
      "constant": false,
      "inputs": [],
      "name": "joinEvent",
      "outputs": [],
      "payable": false,
      "stateMutability": "nonpayable",
      "type": "function"
    },
    {
      "constant": true,
      "inputs": [
        {
          "name": "_user",
          "type": "address"
        }
      ],
      "name": "isParticipating",
      "outputs": [
        {
          "name": "",
          "type": "bool"
        }
      ],
      "payable": false,
      "stateMutability": "view",
      "type": "function"
    },
    {
      "constant": true,
      "inputs": [],
      "name": "getParticipants",
      "outputs": [
        {
          "name": "",
          "type": "address[]"
        }
      ],
      "payable": false,
      "stateMutability": "view",
      "type": "function"
    },
    {
      "constant": true,
      "inputs": [],
      "name": "getEventTimes",
      "outputs": [
        {
          "name": "",
          "type": "uint256[5]"
        }
      ],
      "payable": false,
      "stateMutability": "view",
      "type": "function"
    },
    {
      "constant": false,
      "inputs": [
        {
          "name": "_addresses",
          "type": "address[]"
        },
        {
          "name": "_etherRewards",
          "type": "uint256[]"
        },
        {
          "name": "_tokenRewards",
          "type": "uint256[]"
        }
      ],
      "name": "setRewards",
      "outputs": [],
      "payable": false,
      "stateMutability": "nonpayable",
      "type": "function"
    },
    {
      "constant": false,
      "inputs": [
        {
          "name": "rewardsHash",
          "type": "string"
        }
      ],
      "name": "markRewardsSet",
      "outputs": [],
      "payable": false,
      "stateMutability": "nonpayable",
      "type": "function"
    },
    {
      "constant": false,
      "inputs": [
        {
          "name": "validationRound",
          "type": "uint256"
        }
      ],
      "name": "approveRewards",
      "outputs": [],
      "payable": false,
      "stateMutability": "nonpayable",
      "type": "function"
    },
    {
      "constant": false,
      "inputs": [
        {
          "name": "validationRound",
          "type": "uint256"
        },
        {
          "name": "altHash",
          "type": "string"
        }
      ],
      "name": "rejectRewards",
      "outputs": [],
      "payable": false,
      "stateMutability": "nonpayable",
      "type": "function"
    },
    {
      "constant": false,
      "inputs": [],
      "name": "triggerDispute",
      "outputs": [],
      "payable": false,
      "stateMutability": "nonpayable",
      "type": "function"
    },
    {
      "constant": true,
      "inputs": [],
      "name": "getEventResolvers",
      "outputs": [
        {
          "name": "",
          "type": "address[]"
        }
      ],
      "payable": false,
      "stateMutability": "view",
      "type": "function"
    },
    {
      "constant": true,
      "inputs": [],
      "name": "isMasterNode",
      "outputs": [
        {
          "name": "",
          "type": "bool"
        }
      ],
      "payable": false,
      "stateMutability": "view",
      "type": "function"
    },
    {
      "constant": true,
      "inputs": [],
      "name": "getReward",
      "outputs": [
        {
          "name": "",
          "type": "uint256[2]"
        }
      ],
      "payable": false,
      "stateMutability": "view",
      "type": "function"
    },
    {
      "constant": true,
      "inputs": [],
      "name": "getRewardsIndex",
      "outputs": [
        {
          "name": "",
          "type": "address[]"
        }
      ],
      "payable": false,
      "stateMutability": "view",
      "type": "function"
    },
    {
      "constant": true,
      "inputs": [
        {
          "name": "_addresses",
          "type": "address[]"
        }
      ],
      "name": "getRewards",
      "outputs": [
        {
          "name": "",
          "type": "uint256[]"
        },
        {
          "name": "",
          "type": "uint256[]"
        }
      ],
      "payable": false,
      "stateMutability": "view",
      "type": "function"
    },
    {
      "constant": false,
      "inputs": [],
      "name": "claimReward",
      "outputs": [],
      "payable": false,
      "stateMutability": "nonpayable",
      "type": "function"
    },
    {
      "constant": false,
      "inputs": [
        {
          "name": "_hash",
          "type": "string"
        }
      ],
      "name": "setDataFeedHash",
      "outputs": [],
      "payable": false,
      "stateMutability": "nonpayable",
      "type": "function"
    },
    {
      "constant": true,
      "inputs": [],
      "name": "getState",
      "outputs": [
        {
          "name": "",
          "type": "uint256"
        }
      ],
      "payable": false,
      "stateMutability": "view",
      "type": "function"
    },
    {
      "constant": true,
      "inputs": [],
      "name": "getBalance",
      "outputs": [
        {
          "name": "",
          "type": "uint256[2]"
        }
      ],
      "payable": false,
      "stateMutability": "view",
      "type": "function"
    },
    {
      "constant": true,
      "inputs": [],
      "name": "getConsensusRules",
      "outputs": [
        {
          "name": "",
          "type": "uint256[6]"
        }
      ],
      "payable": false,
      "stateMutability": "view",
      "type": "function"
    },
    {
      "constant": true,
      "inputs": [],
      "name": "getDisputeData",
      "outputs": [
        {
          "name": "",
          "type": "uint256[3]"
        },
        {
          "name": "",
          "type": "address"
        }
      ],
      "payable": false,
      "stateMutability": "view",
      "type": "function"
    },
    {
      "constant": false,
      "inputs": [],
      "name": "recoverLeftovers",
      "outputs": [],
      "payable": false,
      "stateMutability": "nonpayable",
      "type": "function"
    }
  ],
  "bytecode": "0x608060408190526003805460ff199081169091556014601d55602680549091169055620034133881900390819083398101604090815281516020830151918301516060840151608085015160a086015160c087015160e08801516101008901516101e08a0151978a01999697959694959394929391830192909161012082019161020001898b106200009057600080fd5b8989116200012557604080517f08c379a000000000000000000000000000000000000000000000000000000000815260206004820152602c60248201527f4576656e742063616e2774207374617274206265666f7265206170706c69636160448201527f74696f6e7320636c6f73652e0000000000000000000000000000000000000000606482015290519081900360840190fd5b60128b905560138a905560018054600160a060020a031916600160a060020a0389161790558b516200015f90601e9060208f0190620002f0565b50601489905587890160155584516200018090600290602088019062000375565b5060008054600160a060020a0319163317815560168590556001600c55600280549091908110620001ad57fe5b60009182526020909120015460048054600160a060020a031916600160a060020a039092169190911790556017829055620001f18364010000000062000288810204565b6200020581640100000000620002dd810204565b85600160a060020a031663c4130ae06040518163ffffffff167c0100000000000000000000000000000000000000000000000000000000028152600401600060405180830381600087803b1580156200025d57600080fd5b505af115801562000272573d6000803e3d6000fd5b5050505050505050505050505050505062000422565b8051602090815581015160215560408101516022556060810151602355608081015160245560a08101516000811115620002be57fe5b6025805460ff19166001836000811115620002d557fe5b021790555050565b8051601855602001516019556000601a55565b828054600181600116156101000203166002900490600052602060002090601f016020900481019282601f106200033357805160ff191683800117855562000363565b8280016001018555821562000363579182015b828111156200036357825182559160200191906001019062000346565b5062000371929150620003db565b5090565b828054828255906000526020600020908101928215620003cd579160200282015b82811115620003cd5782518254600160a060020a031916600160a060020a0390911617825560209092019160019091019062000396565b5062000371929150620003fb565b620003f891905b80821115620003715760008155600101620003e2565b90565b620003f891905b8082111562000371578054600160a060020a031916815560010162000402565b612fe180620004326000396000f3006080604052600436106101525763ffffffff7c0100000000000000000000000000000000000000000000000000000000600035041662f16142811461015457806311e956c81461017b57806312065fe0146101a45780631865c57d146101f45780631a0ddce9146102095780633d18b912146102d05780634227357c146102e5578063437933cc1461036f5780634b766b95146103c8578063510ccb431461042157806352f91acf1461050f57806354e33cf0146105245780635aa68ac01461058957806374539f981461059e5780638043c9c0146105b35780638126cb1e146105c857806381c2d875146106265780638da5cb5b146106505780639d76ea5814610681578063a77ae83914610696578063ab95b586146106ae578063b88a802f146106d8578063d6e9b019146106ed578063efba9bd214610753578063f4caee8814610768578063f9010d1914610789575b005b34801561016057600080fd5b5061016961079e565b60408051918252519081900360200190f35b34801561018757600080fd5b506101906107a4565b604080519115158252519081900360200190f35b3480156101b057600080fd5b506101b96107b6565b6040518082600260200280838360005b838110156101e15781810151838201526020016101c9565b5050505090500191505060405180910390f35b34801561020057600080fd5b50610169610868565b34801561021557600080fd5b506040805160206004803580820135838102808601850190965280855261015295369593946024949385019291829185019084908082843750506040805187358901803560208181028481018201909552818452989b9a998901989297509082019550935083925085019084908082843750506040805187358901803560208181028481018201909552818452989b9a9989019892975090820195509350839250850190849080828437509497506108819650505050505050565b3480156102dc57600080fd5b506101b9610be6565b3480156102f157600080fd5b506102fa610c28565b6040805160208082528351818301528351919283929083019185019080838360005b8381101561033457818101518382015260200161031c565b50505050905090810190601f1680156103615780820380516001836020036101000a031916815260200191505b509250505060405180910390f35b34801561037b57600080fd5b506040805160206004803580820135601f8101849004840285018401909552848452610152943694929360249392840191908190840183828082843750949750610cb59650505050505050565b3480156103d457600080fd5b506040805160206004803580820135601f8101849004840285018401909552848452610152943694929360249392840191908190840183828082843750949750610ce39650505050505050565b34801561042d57600080fd5b506040805160206004803580820135838102808601850190965280855261047695369593946024949385019291829185019084908082843750949750610f569650505050505050565b604051808060200180602001838103835285818151815260200191508051906020019060200280838360005b838110156104ba5781810151838201526020016104a2565b50505050905001838103825284818151815260200191508051906020019060200280838360005b838110156104f95781810151838201526020016104e1565b5050505090500194505050505060405180910390f35b34801561051b57600080fd5b50610152611094565b34801561053057600080fd5b50610539611487565b60408051602080825283518183015283519192839290830191858101910280838360005b8381101561057557818101518382015260200161055d565b505050509050019250505060405180910390f35b34801561059557600080fd5b506105396114e9565b3480156105aa57600080fd5b50610539611549565b3480156105bf57600080fd5b506102fa6115a9565b3480156105d457600080fd5b5060408051602060046024803582810135601f81018590048502860185019096528585526101529583359536956044949193909101919081908401838280828437509497506116049650505050505050565b34801561063257600080fd5b5061063b611987565b60405181518152808260c080838360206101c9565b34801561065c57600080fd5b506106656119dd565b60408051600160a060020a039092168252519081900360200190f35b34801561068d57600080fd5b506106656119ec565b3480156106a257600080fd5b506101526004356119fb565b3480156106ba57600080fd5b506106c3611c30565b60405181518152808260a080838360206101c9565b3480156106e457600080fd5b50610152611c6f565b3480156106f957600080fd5b506107026120aa565b6040518083606080838360005b8381101561072757818101518382015260200161070f565b5050505090500182600160a060020a0316600160a060020a031681526020019250505060405180910390f35b34801561075f57600080fd5b506101526120e4565b34801561077457600080fd5b50610190600160a060020a0360043516612278565b34801561079557600080fd5b50610152612296565b600c5481565b600454600160a060020a031633145b90565b6107be612d82565b604080518082018252308031825260015483517f70a08231000000000000000000000000000000000000000000000000000000008152600481019290925292519192602080850193600160a060020a03909216926370a0823192602480830193928290030181600087803b15801561083557600080fd5b505af1158015610849573d6000803e3d6000fd5b505050506040513d602081101561085f57600080fd5b50519052905090565b60265460009060ff16600481111561087c57fe5b905090565b600454600090600160a060020a031633146108e6576040805160e560020a62461bcd02815260206004820152601d60248201527f4e6f7420612064657369676e61746564206d6173746572206e6f64652e000000604482015290519081900360640190fd5b600060265460ff1660048111156108f957fe5b14801561090857506012544210155b1561091557610915612689565b600160265460ff16600481111561092857fe5b14801561093757506013544210155b1561099657602054600e54101561098e5761098960606040519081016040528060338152602001600080516020612f568339815191528152602001600080516020612f768339815191528152506127bf565b610996565b610996612689565b60265460029060ff1660048111156109aa57fe5b8160048111156109b657fe5b14610a08576040805160e560020a62461bcd02815260206004820152602480820152600080516020612f96833981519152604482015260e160020a6330ba329702606482015290519081900360840190fd5b83518551148015610a1a575082518551145b1515610a2557600080fd5b600060035460ff166002811115610a3857fe5b14610ab3576040805160e560020a62461bcd02815260206004820152602660248201527f4e6f7420706f737369626c6520696e20746869732076616c69646174696f6e2060448201527f73746174652e0000000000000000000000000000000000000000000000000000606482015290519081900360840190fd5b600091505b8451821015610bdf578382815181101515610acf57fe5b90602001906020020151601060008785815181101515610aeb57fe5b602090810291909101810151600160a060020a0316825281810192909252604090810160009081208180529092529020558251839083908110610b2a57fe5b90602001906020020151601060008785815181101515610b4657fe5b602090810291909101810151600160a060020a031682528181019290925260409081016000908120600182529092529020558451601190869084908110610b8957fe5b602090810291909101810151825460018082018555600094855292909320909201805473ffffffffffffffffffffffffffffffffffffffff1916600160a060020a03909316929092179091559190910190610ab8565b5050505050565b610bee612d82565b5060408051808201825233600090815260106020908152838220828052808252848320548452600183528152929020549181019190915290565b601f8054604080516020600260001961010060018716150201909416939093048085018490048402820184019092528181529291830182828015610cad5780601f10610c8257610100808354040283529160200191610cad565b820191906000526020600020905b815481529060010190602001808311610c9057829003601f168201915b505050505081565b600054600160a060020a03163314610ccc57600080fd5b8051610cdf90601f906020840190612d9d565b5050565b600454600160a060020a03163314610d45576040805160e560020a62461bcd02815260206004820152601d60248201527f4e6f7420612064657369676e61746564206d6173746572206e6f64652e000000604482015290519081900360640190fd5b600060265460ff166004811115610d5857fe5b148015610d6757506012544210155b15610d7457610d74612689565b600160265460ff166004811115610d8757fe5b148015610d9657506013544210155b15610df557602054600e541015610ded57610de860606040519081016040528060338152602001600080516020612f568339815191528152602001600080516020612f768339815191528152506127bf565b610df5565b610df5612689565b60265460029060ff166004811115610e0957fe5b816004811115610e1557fe5b14610e67576040805160e560020a62461bcd02815260206004820152602480820152600080516020612f96833981519152604482015260e160020a6330ba329702606482015290519081900360840190fd5b600060035460ff166002811115610e7a57fe5b14610ef5576040805160e560020a62461bcd02815260206004820152602660248201527f4e6f7420706f737369626c6520696e20746869732076616c69646174696f6e2060448201527f73746174652e0000000000000000000000000000000000000000000000000000606482015290519081900360840190fd5b8151610f08906005906020850190612d9d565b50600160068190556003805460ff19169091179055600c5460408051918252517f47c2e9e59e6d2347f314927d02f36b95696a09b5f0ac0bae119ff5ae937016559181900360200190a15050565b60608060608060008551604051908082528060200260200182016040528015610f89578160200160208202803883390190505b5092508551604051908082528060200260200182016040528015610fb7578160200160208202803883390190505b509150600090505b855181101561108957601060008783815181101515610fda57fe5b602090810291909101810151600160a060020a031682528181019290925260409081016000908120818052909252902054835184908390811061101957fe5b60209081029091010152855160109060009088908490811061103757fe5b602090810291909101810151600160a060020a03168252818101929092526040908101600090812060018252909252902054825183908390811061107757fe5b60209081029091010152600101610fbf565b509094909350915050565b600060265460ff1660048111156110a757fe5b1480156110b657506012544210155b156110c3576110c3612689565b600160265460ff1660048111156110d657fe5b1480156110e557506013544210155b1561114457602054600e54101561113c5761113760606040519081016040528060338152602001600080516020612f568339815191528152602001600080516020612f768339815191528152506127bf565b611144565b611144612689565b61114d33612278565b15156111a3576040805160e560020a62461bcd02815260206004820152601260248201527f4e6f742070617274696369706174696e672e0000000000000000000000000000604482015290519081900360640190fd5b601a54601854600154604080517fdd62ed3e000000000000000000000000000000000000000000000000000000008152336004820152306024820152905160029490940a90920292600160a060020a039091169163dd62ed3e9160448083019260209291908290030181600087803b15801561121e57600080fd5b505af1158015611232573d6000803e3d6000fd5b505050506040513d602081101561124857600080fd5b505110156112c6576040805160e560020a62461bcd02815260206004820152602560248201527f4e6f7420656e6f75676820746f6b656e73207374616b656420666f722064697360448201527f707574652e000000000000000000000000000000000000000000000000000000606482015290519081900360840190fd5b336000908152601b602052604090205460ff161561132e576040805160e560020a62461bcd02815260206004820152601c60248201527f416c726561647920747269676765726564206120646973707574652e00000000604482015290519081900360640190fd5b601a805460188054600283900a0281556001918201909255336000818152601b60209081526040808320805460ff191686179055601c805473ffffffffffffffffffffffffffffffffffffffff1916851790559354945484517f23b872dd000000000000000000000000000000000000000000000000000000008152600481019490945230602485015260448401529251600160a060020a03909416936323b872dd936064808501949193918390030190829087803b1580156113f057600080fd5b505af1158015611404573d6000803e3d6000fd5b505050506040513d602081101561141a57600080fd5b506114259050612915565b61142d6129e2565b6026805460ff19166001179055601d5442016013819055601481905562989680016015556040805133815290517ff6d97c5e133e50668a6b3607d8748ef6599c3303babb2b08a515a5a67369f45f916020908290030190a1565b606060118054806020026020016040519081016040528092919081815260200182805480156114df57602002820191906000526020600020905b8154600160a060020a031681526001909101906020018083116114c1575b5050505050905090565b6060600e8054806020026020016040519081016040528092919081815260200182805480156114df57602002820191906000526020600020908154600160a060020a031681526001909101906020018083116114c1575050505050905090565b606060028054806020026020016040519081016040528092919081815260200182805480156114df57602002820191906000526020600020908154600160a060020a031681526001909101906020018083116114c1575050505050905090565b601e805460408051602060026001851615610100026000190190941693909304601f81018490048402820184019092528181529291830182828015610cad5780601f10610c8257610100808354040283529160200191610cad565b60265460029060ff16600481111561161857fe5b81600481111561162457fe5b14611676576040805160e560020a62461bcd02815260206004820152602480820152600080516020612f96833981519152604482015260e160020a6330ba329702606482015290519081900360840190fd5b8261168033612a94565b8015611691575061168f6107a4565b155b15156116e7576040805160e560020a62461bcd02815260206004820152601b60248201527f4e6f7420612076616c69642073656e64657220616464726573732e0000000000604482015290519081900360640190fd5b600160035460ff1660028111156116fa57fe5b1461174f576040805160e560020a62461bcd02815260206004820152601760248201527f4e6f742076616c69646174696e6720726577617264732e000000000000000000604482015290519081900360640190fd5b600c5481146117a8576040805160e560020a62461bcd02815260206004820152601a60248201527f56616c69646174696f6e20726f756e64206d69736d617463682e000000000000604482015290519081900360640190fd5b600c543360009081526009602052604090205410611810576040805160e560020a62461bcd02815260206004820152601d60248201527f416c726561647920766f74656420666f72207468697320726f756e642e000000604482015290519081900360640190fd5b600780546001019055600c543360009081526009602090815260409182902092909255518451600b9286929182918401908083835b602083106118645780518252601f199092019160209182019101611845565b51815160209384036101000a600019018019909216911617905292019485525060405193849003019092205460ff1615159150611979905057600880546001810180835560009290925284516118e1917ff3f7a9fe364faab93b216da50a3214154f22a0a2b415b23a84c8169e8b636ee301906020870190612d9d565b50506004600601836040518082805190602001908083835b602083106119185780518252601f1990920191602091820191016118f9565b51815160001960209485036101000a0190811690199190911617905292019485525060405193849003810190932080546001810182556000918252939020909201805473ffffffffffffffffffffffffffffffffffffffff19163317905550505b611981612af2565b50505050565b61198f612e1b565b6040805160c08101825260208054825260215490820152602254918101919091526023546060820152602454608082015260255460a082019060ff1660008111156119d657fe5b9052905090565b600054600160a060020a031681565b600154600160a060020a031681565b60265460029060ff166004811115611a0f57fe5b816004811115611a1b57fe5b14611a6d576040805160e560020a62461bcd02815260206004820152602480820152600080516020612f96833981519152604482015260e160020a6330ba329702606482015290519081900360840190fd5b81611a7733612a94565b8015611a885750611a866107a4565b155b1515611ade576040805160e560020a62461bcd02815260206004820152601b60248201527f4e6f7420612076616c69642073656e64657220616464726573732e0000000000604482015290519081900360640190fd5b600160035460ff166002811115611af157fe5b14611b46576040805160e560020a62461bcd02815260206004820152601760248201527f4e6f742076616c69646174696e6720726577617264732e000000000000000000604482015290519081900360640190fd5b600c548114611b9f576040805160e560020a62461bcd02815260206004820152601a60248201527f56616c69646174696f6e20726f756e64206d69736d617463682e000000000000604482015290519081900360640190fd5b600c543360009081526009602052604090205410611c07576040805160e560020a62461bcd02815260206004820152601d60248201527f416c726561647920766f74656420666f72207468697320726f756e642e000000604482015290519081900360640190fd5b600680546001019055600c5433600090815260096020526040902055611c2b612b0d565b505050565b611c38612e3a565b60a0604051908101604052806012548152602001601354815260200160145481526020016015548152602001601654815250905090565b600080611c7b33612278565b1515611cd1576040805160e560020a62461bcd02815260206004820152601260248201527f4e6f742070617274696369706174696e672e0000000000000000000000000000604482015290519081900360640190fd5b60265460039060ff166004811115611ce557fe5b816004811115611cf157fe5b14611d43576040805160e560020a62461bcd02815260206004820152602480820152600080516020612f96833981519152604482015260e160020a6330ba329702606482015290519081900360840190fd5b336000908152601060209081526040808320838052909152902054158015611d84575033600090815260106020908152604080832060018452909152902054155b15611e02576040805160208082526025908201527f596f7520646f206e6f74206861766520616e79207265776172647320746f2063818301527f6c61696d2e00000000000000000000000000000000000000000000000000000060608201529051600080516020612f368339815191529181900360800190a1611c2b565b33600090815260106020908152604080832083805290915290205430311080611ed45750336000908152601060209081526040808320600180855290835281842054905482517f70a0823100000000000000000000000000000000000000000000000000000000815230600482015292519194600160a060020a03909116936370a08231936024808201949293918390030190829087803b158015611ea657600080fd5b505af1158015611eba573d6000803e3d6000fd5b505050506040513d6020811015611ed057600080fd5b5051105b15611f78576040805160208082526045908201527f437269746963616c206572726f723a206e6f7420656e6f7567682062616c616e818301527f636520746f20706179206f7574207265776172642e20436f6e7461637420566560608201527f726974792e00000000000000000000000000000000000000000000000000000060808201529051600080516020612f368339815191529181900360a00190a1611c2b565b3360008181526010602090815260408083208380529091528082208054601754600185528385208054938690558590559251909750910194506108fc86150291869190818181858888f19350505050158015611fd8573d6000803e3d6000fd5b50600154604080517fa9059cbb000000000000000000000000000000000000000000000000000000008152336004820152602481018590529051600160a060020a039092169163a9059cbb916044808201926020929091908290030181600087803b15801561204657600080fd5b505af115801561205a573d6000803e3d6000fd5b505050506040513d602081101561207057600080fd5b50506040805133815290517f63e32091e4445d16e29c33a6b264577c2d86694021aa4e6f4dd590048f5792e89181900360200190a1505050565b6120b2612e59565b506040805160608101825260185481526019546020820152601a5491810191909152601c54600160a060020a03169091565b60008054600160a060020a031633146120fc57600080fd5b60165442101561210b57600080fd5b60008054604051600160a060020a0390911691303180156108fc02929091818181858888f19350505050158015612146573d6000803e3d6000fd5b50600154604080517f70a082310000000000000000000000000000000000000000000000000000000081523060048201529051600160a060020a03909216916370a08231916024808201926020929091908290030181600087803b1580156121ad57600080fd5b505af11580156121c1573d6000803e3d6000fd5b505050506040513d60208110156121d757600080fd5b505160015460008054604080517fa9059cbb000000000000000000000000000000000000000000000000000000008152600160a060020a03928316600482015260248101869052905194955092169263a9059cbb926044808201936020939283900390910190829087803b15801561224e57600080fd5b505af1158015612262573d6000803e3d6000fd5b505050506040513d6020811015611c2b57600080fd5b600160a060020a03166000908152600d602052604090205460ff1690565b600060265460ff1660048111156122a957fe5b1480156122b857506012544210155b156122c5576122c5612689565b600160265460ff1660048111156122d857fe5b1480156122e757506013544210155b1561234657602054600e54101561233e5761233960606040519081016040528060338152602001600080516020612f568339815191528152602001600080516020612f768339815191528152506127bf565b612346565b612346612689565b61234f33612278565b156123a757604080516020808252601e908201527f596f752061726520616c72656164792070617274696369706174696e672e0000818301529051600080516020612f368339815191529181900360600190a1612687565b600160265460ff1660048111156123ba57fe5b1461243857604080516020808252602b908201527f596f752063616e206f6e6c79206a6f696e20696e20746865204170706c696361818301527f74696f6e2073746174652e00000000000000000000000000000000000000000060608201529051600080516020612f368339815191529181900360800190a1612687565b60006017541180156124e25750601754600154604080517fdd62ed3e0000000000000000000000000000000000000000000000000000000081523360048201523060248201529051600160a060020a039092169163dd62ed3e916044808201926020929091908290030181600087803b1580156124b457600080fd5b505af11580156124c8573d6000803e3d6000fd5b505050506040513d60208110156124de57600080fd5b5051105b1561253a576040805160208082526019908201527f4e6f7420656e6f75676820746f6b656e73207374616b65642e00000000000000818301529051600080516020612f368339815191529181900360600190a1612687565b600060175411156125e857600154601754604080517f23b872dd000000000000000000000000000000000000000000000000000000008152336004820152306024820152604481019290925251600160a060020a03909216916323b872dd916064808201926020929091908290030181600087803b1580156125bb57600080fd5b505af11580156125cf573d6000803e3d6000fd5b505050506040513d60208110156125e557600080fd5b50505b336000818152600d60209081526040808320805460ff19166001908117909155600e805491820181559093527fbb7b4a454dc3493923482f07822329ed19e8244eff582cc204f8554c3620c3fd909201805473ffffffffffffffffffffffffffffffffffffffff191684179055815192835290517f0940fd5e528ae9fa6c086f42387c791c3854e0febdf0717c2da155c9dbf1e86c9281900390910190a15b565b600360265460ff16600481111561269c57fe5b141580156126bb5750600460265460ff1660048111156126b857fe5b14155b1515612737576040805160e560020a62461bcd02815260206004820152602660248201527f4576656e742073746174652063616e2774206265206d6f64696669656420616e60448201527f796d6f72652e0000000000000000000000000000000000000000000000000000606482015290519081900360840190fd5b60265460ff16600481111561274857fe5b600101600481111561275657fe5b6026805460ff1916600183600481111561276c57fe5b02179055506026546040517fb9eb8a309bf89f3159b39681f485b6430fec1035b2b457edbcdadcdece888c0b9160ff1690808260048111156127aa57fe5b60ff16815260200191505060405180910390a1565b600360265460ff1660048111156127d257fe5b141580156127f15750600460265460ff1660048111156127ee57fe5b14155b151561286d576040805160e560020a62461bcd02815260206004820152602660248201527f4576656e742073746174652063616e2774206265206d6f64696669656420616e60448201527f796d6f72652e0000000000000000000000000000000000000000000000000000606482015290519081900360840190fd5b6026805460ff1916600417905560408051602080825283518183015283517f860b7e55e58bd6095b36c4b4016ed8a2e47cb8ebd020fa0e43b32649deb540c3938593928392918301919085019080838360005b838110156128d85781810151838201526020016128c0565b50505050905090810190601f1680156129055780820380516001836020036101000a031916815260200191505b509250505060405180910390a150565b6000600681905560078190555b6008548110156129c95760088054600a91908390811061293e57fe5b9060005260206000200160405180828054600181600116156101000203166002900480156129a35780601f106129815761010080835404028352918201916129a3565b820191906000526020600020905b81548152906001019060200180831161298f575b505092835250506040519081900360200190206129c1906000612e78565b600101612922565b6129d560086000612e96565b506003805460ff19169055565b60005b601154811015612a8557600060106000601184815481101515612a0457fe5b600091825260208083209190910154600160a060020a03168352828101939093526040918201812081805290925281209190915560118054601091839185908110612a4b57fe5b600091825260208083209190910154600160a060020a031683528281019390935260409182018120600180835293522091909155016129e5565b612a9160116000612e78565b50565b6000805b600254811015612ae75782600160a060020a0316600282815481101515612abb57fe5b600091825260209091200154600160a060020a03161415612adf5760019150612aec565b600101612a98565b600091505b50919050565b602254606403612b00612b3a565b1061268757612687612b56565b602254612b18612c4c565b1061268757600260035460ff166002811115612b3057fe5b5050612687612689565b60025460075460009190606402811515612b5057fe5b04905090565b6001600460070160046001016040518082805460018160011615610100020316600290048015612bbd5780601f10612b9b576101008083540402835291820191612bbd565b820191906000526020600020905b815481529060010190602001808311612ba9575b50509283525050604051602091819003919091019020805460ff1916911515919091179055600854600754600c54600654929091036001019101600019011115612c4457612c3f6040805190810160405280601a81526020017f436f6e73656e7375732063616e277420626520726561636865640000000000008152506127bf565b612687565b612687612c62565b60025460065460009190606402811515612b5057fe5b600c8054600101905560088054600a91906000908110612c7e57fe5b906000526020600020016040518082805460018160011615610100020316600290048015612ce35780601f10612cc1576101008083540402835291820191612ce3565b820191906000526020600020905b815481529060010190602001808311612ccf575b5050928352505060405190819003602001902080546000908110612d0357fe5b6000918252602090912001546004805473ffffffffffffffffffffffffffffffffffffffff1916600160a060020a03909216919091179055612d43612915565b612d4b6129e2565b600c5460408051918252517fc785d855a24b92cb8266e0a85180a9fa4fe03d182f82a8555b01e1f986d267df9181900360200190a1565b60408051808201825290600290829080388339509192915050565b828054600181600116156101000203166002900490600052602060002090601f016020900481019282601f10612dde57805160ff1916838001178555612e0b565b82800160010185558215612e0b579182015b82811115612e0b578251825591602001919060010190612df0565b50612e17929150612eb4565b5090565b60c0604051908101604052806006906020820280388339509192915050565b60a0604051908101604052806005906020820280388339509192915050565b6060604051908101604052806003906020820280388339509192915050565b5080546000825590600052602060002090810190612a919190612eb4565b5080546000825590600052602060002090810190612a919190612ece565b6107b391905b80821115612e175760008155600101612eba565b6107b391905b80821115612e17576000612ee88282612ef1565b50600101612ed4565b50805460018160011615610100020316600290046000825580601f10612f175750612a91565b601f016020900490600052602060002090810190612a919190612eb4560008c379a0afcc32b1a39302f7cb8073359698411ab5fd6e3edb2c02c0b5fba8aa4e6f7420656e6f756768207573657273206a6f696e656420666f72207265717569726564206d696e696d756d20766f7465732e000000000000000000000000004e6f7420706f737369626c6520696e2063757272656e74206576656e74207374a165627a7a72305820053871d2be06597a33959cb9c989b820c1ad7acd891f6defbd19ca531a94fb330029",
  "source": "pragma solidity 0.4.24;\n\n\nimport \"./EventRegistry.sol\";\nimport \"./VerityToken.sol\";\n\n\ncontract VerityEvent {\n    /// Contract's owner, used for permission management\n    address public owner;\n\n    /// Token contract address, used for tokend distribution\n    address public tokenAddress;\n\n    /// Designated validation nodes that will decide rewards.\n    address[] eventResolvers;\n\n    /// - WaitingForRewards: Waiting for current master to set rewards.\n    /// - Validating: Master has set rewards. Vaiting for node validation.\n    /// - Finished: Either successfully validated or failed.\n    enum ValidationState {\n        WaitingForRewards,\n        Validating,\n        Finished\n    }\n    ValidationState validationState = ValidationState.WaitingForRewards;\n\n    struct RewardsValidation {\n        address currentMasterNode;\n        string rewardsHash;\n        uint approvalCount;\n        uint rejectionCount;\n        string[] altHashes;\n        mapping(address => uint) votersRound;\n        mapping(string => address[]) altHashVotes;\n        mapping(string => bool) rejectedHashes;\n    }\n    RewardsValidation rewardsValidation;\n\n    /// Round of validation. Increases by each failed validation\n    uint public rewardsValidationRound;\n\n    /// A list of all the participating wallet addresses, implemented as a mapping\n    /// to provide constant lookup times.\n    mapping(address => bool) participants;\n    address[] participantsIndex;\n\n    enum RewardType {\n        Ether,\n        Token\n    }\n    RewardType rewardType;\n\n    /// A mapping of addresses to their assigned rewards\n    mapping(address => mapping(uint => uint)) rewards;\n    address[] rewardsIndex;\n\n    /// Event application start time, users cannot apply to participate before it\n    uint applicationStartTime;\n\n    /// Event application end time, users cannot apply after this time\n    uint applicationEndTime;\n\n    /// Event actual start time, votes before this should not be accepted\n    uint eventStartTime;\n\n    /// Event end time, it is calculated in the constructor\n    uint eventEndTime;\n\n    /// Event name, here for informational use - not used otherwise\n    /// owner can recover tokens and ether after this time\n    uint leftoversRecoverableAfter;\n\n    /// Amount of tokens that each user must stake before voting.\n    uint stakingAmount;\n\n    struct Dispute {\n        uint amount;\n        uint timeout;\n        uint round;\n        mapping(address => bool) disputers;\n        address currentDisputer;\n    }\n    Dispute dispute;\n\n    uint defaultDisputeTimeExtension = 20;\n\n    string public eventName;\n\n    /// Data feed hash, used for verification\n    string public dataFeedHash;\n\n    enum RewardsDistribution {\n        Linear // 0\n    }\n\n    struct ConsensusRules {\n        uint minTotalVotes;\n        uint minConsensuVotes;\n        uint minConsensusRatio;\n        uint minParticipantRatio;\n        uint maxParticipants;\n        RewardsDistribution rewardsDistribution;\n    }\n    ConsensusRules consensusRules;\n\n    /// Event's states\n    /// Events advance in the order defined here. Once the event reaches \"Reward\"\n    /// state, it cannot advance further.\n    /// Event states:\n    ///   - Waiting     -- Contract has been created, nothing is happening yet\n    ///   - Application -- After applicationStartTime, the event advances here\n    ///     new wallets can be added to the participats list during this state.\n    ///   - Running     -- Event is running, no new participants can be added\n    ///   - Reward      -- Participants can claim their payouts here - final state; can't be modified.\n    ///   - Failed      -- Event failed (no consensus, not enough users, timeout, ...) - final state; can't be modified\n    enum EventStates {\n        Waiting,\n        Application,\n        Running,\n        Reward,\n        Failed\n    }\n    EventStates eventState = EventStates.Waiting;\n\n    event StateTransition(EventStates newState);\n    event JoinEvent(address wallet);\n    event ClaimReward(address recipient);\n    event Error(string description);\n    event EventFailed(string description);\n    event ValidationStarted(uint validationRound);\n    event ValidationRestart(uint validationRound);\n    event DisputeTriggered(address byAddress);\n\n    constructor(\n        string _eventName,\n        uint _applicationStartTime,\n        uint _applicationEndTime,\n        uint _eventStartTime,\n        uint _eventRunTime, // in seconds\n        address _tokenAddress,\n        address _registry,\n        address[] _eventResolvers,\n        uint _leftoversRecoverableAfter, // with timestamp (in seconds)\n        uint[6] _consensusRules, // [minTotalVotes, minConsensusVotes, minConsensusRatio, minParticipantRatio, maxParticipants, distribution]\n        uint _stakingAmount,\n        uint[2] _disputeRules // [dispute amount, dispute timeout]\n    )\n        public\n        payable\n    {\n        require(_applicationStartTime < _applicationEndTime);\n        require(_eventStartTime > _applicationEndTime, \"Event can't start before applications close.\");\n\n        applicationStartTime = _applicationStartTime;\n        applicationEndTime = _applicationEndTime;\n        tokenAddress = _tokenAddress;\n\n        eventName = _eventName;\n        eventStartTime = _eventStartTime;\n        eventEndTime = _eventStartTime + _eventRunTime;\n\n        eventResolvers = _eventResolvers;\n\n        owner = msg.sender;\n        leftoversRecoverableAfter = _leftoversRecoverableAfter;\n\n        rewardsValidationRound = 1;\n        rewardsValidation.currentMasterNode = eventResolvers[0];\n\n        stakingAmount = _stakingAmount;\n\n        setConsensusRules(_consensusRules);\n        setDisputeData(_disputeRules);\n\n        EventRegistry(_registry).registerEvent();\n    }\n\n    /// A modifier signifiying that a certain method can only be used by the creator\n    /// of the contract.\n    /// Rollbacks the transaction on failure.\n    modifier onlyOwner() {\n        require(msg.sender == owner);\n        _;\n    }\n\n    /// A modifier signifiying that rewards can be set only by the designated master node.\n    /// Rollbacks the transaction on failure.\n    modifier onlyCurrentMaster() {\n        require(\n            msg.sender == rewardsValidation.currentMasterNode,\n            \"Not a designated master node.\"\n        );\n        _;\n    }\n\n    ///\tA modifier signifying that a certain method can only be used by a wallet\n    ///\tmarked as a participant.\n    ///\tRollbacks the transaction or failure.\n    modifier onlyParticipating() {\n        require(\n            isParticipating(msg.sender),\n            \"Not participating.\"\n        );\n        _;\n    }\n\n    /// A modifier signifying that a certain method can only be used when the event\n    /// is in a certain state.\n    /// @param _state The event's required state\n    /// Example:\n    /// \tfunction claimReward() onlyParticipanting onlyState(EventStates.Reward) {\n    /// \t\t// ... content\n    /// \t}\n    modifier onlyState(EventStates _state) {\n        require(\n            _state == eventState,\n            \"Not possible in current event state.\"\n        );\n        _;\n    }\n\n    /// A modifier taking care of all the timed state transitions.\n    /// Should always be used before all other modifiers, especially `onlyState`,\n    /// since it can change state.\n    /// Should probably be used in ALL non-constant (transaction) methods of\n    /// the contract.\n    modifier timedStateTransition() {\n        if (eventState == EventStates.Waiting && now >= applicationStartTime) {\n            advanceState();\n        }\n\n        if (eventState == EventStates.Application && now >= applicationEndTime) {\n            if (participantsIndex.length < consensusRules.minTotalVotes) {\n                markAsFailed(\"Not enough users joined for required minimum votes.\");\n            } else {\n                advanceState();\n            }\n        }\n        _;\n    }\n\n    modifier onlyChangeableState() {\n        require(\n            eventState != EventStates.Reward && eventState != EventStates.Failed,\n            \"Event state can't be modified anymore.\"\n        );\n\n        _;\n    }\n\n    modifier onlyAfterLefroversCanBeRecovered() {\n        require(now >= leftoversRecoverableAfter);\n        _;\n    }\n\n    modifier canValidateRewards(uint forRound) {\n        require(\n            isNode(msg.sender) && !isMasterNode(),\n            \"Not a valid sender address.\"\n        );\n\n        require(\n            validationState == ValidationState.Validating,\n            \"Not validating rewards.\"\n        );\n\n        require(\n            forRound == rewardsValidationRound,\n            \"Validation round mismatch.\"\n        );\n\n        require(\n            rewardsValidation.votersRound[msg.sender] < rewardsValidationRound,\n            \"Already voted for this round.\"\n        );\n        _;\n    }\n\n    /// Ensure we can receive money at any time.\n    /// Not used, but we might want to extend the reward fund while event is running.\n    function() public payable {}\n\n    /// Apply for participation in this event.\n    /// Available only during the Application state.\n    /// A transaction to this function has to be done by the users themselves,\n    /// registering their wallet address as a participent.\n    /// The transaction does not have to include any funds.\n    function joinEvent()\n        public\n        timedStateTransition\n    {\n        if (isParticipating(msg.sender)) {\n            emit Error(\"You are already participating.\");\n            return;\n        }\n\n        if (eventState != EventStates.Application) {\n            emit Error(\"You can only join in the Application state.\");\n            return;\n        }\n\n        if (\n            stakingAmount > 0 &&\n            VerityToken(tokenAddress).allowance(msg.sender, address(this)) < stakingAmount\n        ) {\n            emit Error(\"Not enough tokens staked.\");\n            return;\n        }\n\n        if (stakingAmount > 0) {\n            VerityToken(tokenAddress).transferFrom(msg.sender, address(this), stakingAmount);\n        }\n        participants[msg.sender] = true;\n        participantsIndex.push(msg.sender);\n        emit JoinEvent(msg.sender);\n    }\n\n    /// Checks whether an address is participating in this event.\n    /// @param _user The addres to check for participation\n    /// @return {bool} Whether the given address is a participant of this event\n    function isParticipating(address _user) public view returns(bool) {\n        return participants[_user];\n    }\n\n    function getParticipants() public view returns(address[]) {\n        return participantsIndex;\n    }\n\n    function getEventTimes() public view returns(uint[5]) {\n        return [\n            applicationStartTime,\n            applicationEndTime,\n            eventStartTime,\n            eventEndTime,\n            leftoversRecoverableAfter\n        ];\n    }\n\n    /// Assign the actual rewards.\n    /// Receives a list of addresses and a list rewards. Mapping between the two\n    /// is done by the addresses' and reward's numerical index in the list, so\n    /// order is important.\n    /// @param _addresses A list of addresses\n    /// @param _etherRewards A list of ether rewards, must be the exact same length as addresses\n    /// @param _tokenRewards A list of token rewards, must be the exact same length as addresses\n    function setRewards(\n        address[] _addresses,\n        uint[] _etherRewards,\n        uint[] _tokenRewards\n    )\n        public\n        onlyCurrentMaster\n        timedStateTransition\n        onlyState(EventStates.Running)\n    {\n        require(\n            _addresses.length == _etherRewards.length &&\n            _addresses.length == _tokenRewards.length\n        );\n\n        require(\n            validationState == ValidationState.WaitingForRewards,\n            \"Not possible in this validation state.\"\n        );\n\n        for (uint i = 0; i < _addresses.length; ++i) {\n            rewards[_addresses[i]][uint(RewardType.Ether)] = _etherRewards[i];\n            rewards[_addresses[i]][uint(RewardType.Token)] = _tokenRewards[i];\n            rewardsIndex.push(_addresses[i]);\n        }\n    }\n\n    /// Triggered by the master node once rewards are set and ready to validate\n    function markRewardsSet(string rewardsHash)\n        public\n        onlyCurrentMaster\n        timedStateTransition\n        onlyState(EventStates.Running)\n    {\n        require(\n            validationState == ValidationState.WaitingForRewards,\n            \"Not possible in this validation state.\"\n        );\n\n        rewardsValidation.rewardsHash = rewardsHash;\n        rewardsValidation.approvalCount = 1;\n        validationState = ValidationState.Validating;\n        emit ValidationStarted(rewardsValidationRound);\n    }\n\n    /// Called by event resolver nodes if they agree with rewards\n    function approveRewards(uint validationRound)\n        public\n        onlyState(EventStates.Running)\n        canValidateRewards(validationRound)\n    {\n        ++rewardsValidation.approvalCount;\n        rewardsValidation.votersRound[msg.sender] = rewardsValidationRound;\n        checkApprovalRatio();\n    }\n\n    /// Called by event resolvers if they don't agree with rewards\n    function rejectRewards(uint validationRound, string altHash)\n        public\n        onlyState(EventStates.Running)\n        canValidateRewards(validationRound)\n    {\n        ++rewardsValidation.rejectionCount;\n        rewardsValidation.votersRound[msg.sender] = rewardsValidationRound;\n\n        if (!rewardsValidation.rejectedHashes[altHash]) {\n            rewardsValidation.altHashes.push(altHash);\n            rewardsValidation.altHashVotes[altHash].push(msg.sender);\n        }\n\n        checkRejectionRatio();\n    }\n\n    /// Trigger a dispute.\n    function triggerDispute()\n        public\n        timedStateTransition\n        onlyParticipating\n        /// onlyState(EventStates.Running)\n    {\n        require(\n            VerityToken(tokenAddress).allowance(msg.sender, address(this)) >=\n            dispute.amount * 2**dispute.round,\n            \"Not enough tokens staked for dispute.\"\n        );\n\n        require(\n            dispute.disputers[msg.sender] == false,\n            \"Already triggered a dispute.\"\n        );\n\n        dispute.amount = dispute.amount * 2**dispute.round;\n        ++dispute.round;\n        dispute.disputers[msg.sender] = true;\n        dispute.currentDisputer = msg.sender;\n\n        VerityToken(tokenAddress).transferFrom(msg.sender, address(this), dispute.amount);\n\n        deleteValidationData();\n        deleteRewards();\n\n        eventState = EventStates.Application;\n        applicationEndTime = now + defaultDisputeTimeExtension;\n        eventStartTime = applicationEndTime;\n        eventEndTime = eventStartTime + 10000000;\n\n        emit DisputeTriggered(msg.sender);\n    }\n\n    /// Checks current approvals for threshold\n    function checkApprovalRatio() private {\n        if (approvalRatio() >= consensusRules.minConsensusRatio) {\n            validationState == ValidationState.Finished;\n            advanceState();\n        }\n    }\n\n    /// Checks current rejections for threshold\n    function checkRejectionRatio() private {\n        if (rejectionRatio() >= (100 - consensusRules.minConsensusRatio)) {\n            rejectCurrentValidation();\n        }\n    }\n\n    /// Handle the rejection of current rewards\n    function rejectCurrentValidation() private {\n        rewardsValidation.rejectedHashes[rewardsValidation.rewardsHash] = true;\n\n        // If approved votes are over the threshold all other hashes will also fail\n        if (\n            rewardsValidation.approvalCount + rewardsValidationRound - 1 >\n            rewardsValidation.rejectionCount - rewardsValidation.altHashes.length + 1\n        ) {\n            markAsFailed(\"Consensus can't be reached\");\n        } else {\n            restartValidation();\n        }\n    }\n\n    function restartValidation() private {\n        ++rewardsValidationRound;\n        rewardsValidation.currentMasterNode = rewardsValidation.altHashVotes[rewardsValidation.altHashes[0]][0];\n\n        deleteValidationData();\n        deleteRewards();\n\n        emit ValidationRestart(rewardsValidationRound);\n    }\n\n    /// Delete rewards.\n    function deleteRewards() private {\n        for (uint j = 0; j < rewardsIndex.length; ++j) {\n            rewards[rewardsIndex[j]][uint(RewardType.Ether)] = 0;\n            rewards[rewardsIndex[j]][uint(RewardType.Token)] = 0;\n        }\n        delete rewardsIndex;\n    }\n\n    /// Delete validation data\n    function deleteValidationData() private {\n        rewardsValidation.approvalCount = 0;\n        rewardsValidation.rejectionCount = 0;\n        for (uint i = 0; i < rewardsValidation.altHashes.length; ++i) {\n            delete rewardsValidation.altHashVotes[rewardsValidation.altHashes[i]];\n        }\n        delete rewardsValidation.altHashes;\n        validationState = ValidationState.WaitingForRewards;\n    }\n\n    /// Ratio of nodes that approved of current hash\n    function approvalRatio() private view returns(uint) {\n        return rewardsValidation.approvalCount * 100 / eventResolvers.length;\n    }\n\n    /// Ratio of nodes that rejected the current hash\n    function rejectionRatio() private view returns(uint) {\n        return rewardsValidation.rejectionCount * 100 / eventResolvers.length;\n    }\n\n    /// Returns the whole array of event resolvers.\n    function getEventResolvers() public view returns(address[]) {\n        return eventResolvers;\n    }\n\n    /// Checks if the address is current master node.\n    function isMasterNode() public view returns(bool) {\n        return rewardsValidation.currentMasterNode == msg.sender;\n    }\n\n    function isNode(address node) private view returns(bool) {\n        for(uint i = 0; i < eventResolvers.length; ++i) {\n            if(eventResolvers[i] == node) {\n                return true;\n            }\n        }\n        return false;\n    }\n\n    /// Returns the calling user's assigned rewards. Can be 0.\n    /// Only available to participating users in the Reward state, since rewards\n    /// are not assigned before that.\n    function getReward()\n        public\n        view\n        returns(uint[2])\n    {\n        return [\n            rewards[msg.sender][uint(RewardType.Ether)],\n            rewards[msg.sender][uint(RewardType.Token)]\n        ];\n    }\n\n    /// Returns all the addresses that have rewards set.\n    function getRewardsIndex() public view returns(address[]) {\n        return rewardsIndex;\n    }\n\n    /// Returns rewards for specified addresses.\n    /// [[ethRewards, tokenRewards], [ethRewards, tokenRewards], ...]\n    function getRewards(address[] _addresses)\n        public\n        view\n        returns(uint[], uint[])\n    {\n        uint[] memory ethRewards = new uint[](_addresses.length);\n        uint[] memory tokenRewards = new uint[](_addresses.length);\n\n        for(uint i = 0; i < _addresses.length; ++i) {\n            ethRewards[i] = rewards[_addresses[i]][uint(RewardType.Ether)];\n            tokenRewards[i] = rewards[_addresses[i]][uint(RewardType.Token)];\n        }\n\n        return (ethRewards, tokenRewards);\n    }\n\n    /// Claim a reward.\n    /// Needs to be called by the users themselves.\n    /// Only available in the Reward state, after rewards have been received from\n    /// the validation nodes.\n    function claimReward()\n        public\n        onlyParticipating\n        onlyState(EventStates.Reward)\n    {\n        if (\n            rewards[msg.sender][uint(RewardType.Ether)] == 0 &&\n            rewards[msg.sender][uint(RewardType.Token)] == 0\n        ) {\n            emit Error(\"You do not have any rewards to claim.\");\n            return;\n        }\n\n        if (\n            address(this).balance < rewards[msg.sender][uint(RewardType.Ether)] ||\n            VerityToken(tokenAddress).balanceOf(address(this)) < rewards[msg.sender][uint(RewardType.Token)]\n        ) {\n            emit Error(\"Critical error: not enough balance to pay out reward. Contact Verity.\");\n            return;\n        }\n\n        uint etherReward = rewards[msg.sender][uint(RewardType.Ether)];\n        uint tokenReward = rewards[msg.sender][uint(RewardType.Token)] + stakingAmount;\n        rewards[msg.sender][uint(RewardType.Ether)] = 0;\n        rewards[msg.sender][uint(RewardType.Token)] = 0;\n\n        msg.sender.transfer(etherReward);\n        VerityToken(tokenAddress).transfer(msg.sender, tokenReward);\n\n        emit ClaimReward(msg.sender);\n    }\n\n    function setDataFeedHash(string _hash) public onlyOwner {\n        dataFeedHash = _hash;\n    }\n\n    function getState() public view returns(uint) {\n        return uint(eventState);\n    }\n\n    function getBalance() public view returns(uint[2]) {\n        return [\n            address(this).balance,\n            VerityToken(tokenAddress).balanceOf(address(this))\n        ];\n    }\n\n    /// Returns an array of consensus rules.\n    /// [minTotalVotes, minConsensusVotes, minConsensusRatio, minParticipantRatio, maxParticipants]\n    function getConsensusRules() public view returns(uint[6]) {\n        return [\n            consensusRules.minTotalVotes,\n            consensusRules.minConsensuVotes,\n            consensusRules.minConsensusRatio,\n            consensusRules.minParticipantRatio,\n            consensusRules.maxParticipants,\n            uint(consensusRules.rewardsDistribution)\n        ];\n    }\n\n    /// Returns an array of dispute rules.\n    /// [dispute amount, dispute timeout, dispute round]\n    function getDisputeData() public view returns(uint[3], address) {\n        return ([\n            dispute.amount,\n            dispute.timeout,\n            dispute.round\n        ], dispute.currentDisputer);\n    }\n\n    function recoverLeftovers()\n        public\n        onlyOwner\n        onlyAfterLefroversCanBeRecovered\n    {\n        owner.transfer(address(this).balance);\n        uint tokenBalance = VerityToken(tokenAddress).balanceOf(address(this));\n        VerityToken(tokenAddress).transfer(owner, tokenBalance);\n    }\n\n    /// Advances the event's state to the next one. Only for internal use.\n    function advanceState() private onlyChangeableState {\n        eventState = EventStates(uint(eventState) + 1);\n        emit StateTransition(eventState);\n    }\n\n    /// Sets consensus rules. For internal use only.\n    function setConsensusRules(uint[6] rules) private {\n        consensusRules.minTotalVotes = rules[0];\n        consensusRules.minConsensuVotes = rules[1];\n        consensusRules.minConsensusRatio = rules[2];\n        consensusRules.minParticipantRatio = rules[3];\n        consensusRules.maxParticipants = rules[4];\n        consensusRules.rewardsDistribution = RewardsDistribution(rules[5]);\n    }\n\n    function markAsFailed(string description) private onlyChangeableState {\n        eventState = EventStates.Failed;\n        emit EventFailed(description);\n    }\n\n    function setDisputeData(uint[2] rules) private {\n        dispute.amount = rules[0];\n        dispute.timeout = rules[1];\n        dispute.round = 0;\n    }\n}\n",
  "sourcePath": "/Users/nejc/gitlab/verity/verity-contracts/verity-event/contracts/VerityEvent.sol",
  "compiler": {
    "name": "solc",
    "version": "0.4.24+commit.e67f0147.Emscripten.clang"
  },
  "schemaVersion": "2.0.1",
  "updatedAt": "2018-10-08T12:48:33.479Z"
}