{
  "contractName": "VerityEvent",
  "abi": [
    {
      "constant": true,
      "inputs": [],
      "name": "rewardsValidationRound",
      "outputs": [
        {
          "name": "",
          "type": "uint256"
        }
      ],
      "payable": false,
      "stateMutability": "view",
      "type": "function"
    },
    {
      "constant": true,
      "inputs": [],
      "name": "eventRegistryAddress",
      "outputs": [
        {
          "name": "",
          "type": "address"
        }
      ],
      "payable": false,
      "stateMutability": "view",
      "type": "function"
    },
    {
      "constant": true,
      "inputs": [],
      "name": "dataFeedHash",
      "outputs": [
        {
          "name": "",
          "type": "string"
        }
      ],
      "payable": false,
      "stateMutability": "view",
      "type": "function"
    },
    {
      "constant": true,
      "inputs": [],
      "name": "eventName",
      "outputs": [
        {
          "name": "",
          "type": "string"
        }
      ],
      "payable": false,
      "stateMutability": "view",
      "type": "function"
    },
    {
      "constant": true,
      "inputs": [],
      "name": "owner",
      "outputs": [
        {
          "name": "",
          "type": "address"
        }
      ],
      "payable": false,
      "stateMutability": "view",
      "type": "function"
    },
    {
      "constant": true,
      "inputs": [],
      "name": "tokenAddress",
      "outputs": [
        {
          "name": "",
          "type": "address"
        }
      ],
      "payable": false,
      "stateMutability": "view",
      "type": "function"
    },
    {
      "inputs": [
        {
          "name": "_eventName",
          "type": "string"
        },
        {
          "name": "_applicationStartTime",
          "type": "uint256"
        },
        {
          "name": "_applicationEndTime",
          "type": "uint256"
        },
        {
          "name": "_eventStartTime",
          "type": "uint256"
        },
        {
          "name": "_eventRunTime",
          "type": "uint256"
        },
        {
          "name": "_tokenAddress",
          "type": "address"
        },
        {
          "name": "_registry",
          "type": "address"
        },
        {
          "name": "_eventResolvers",
          "type": "address[]"
        },
        {
          "name": "_leftoversRecoverableAfter",
          "type": "uint256"
        },
        {
          "name": "_consensusRules",
          "type": "uint256[6]"
        },
        {
          "name": "_stakingAmount",
          "type": "uint256"
        },
        {
          "name": "_disputeRules",
          "type": "uint256[2]"
        },
        {
          "name": "_ipfsEventHash",
          "type": "string"
        }
      ],
      "payable": true,
      "stateMutability": "payable",
      "type": "constructor"
    },
    {
      "payable": true,
      "stateMutability": "payable",
      "type": "fallback"
    },
    {
      "anonymous": false,
      "inputs": [
        {
          "indexed": false,
          "name": "newState",
          "type": "uint8"
        }
      ],
      "name": "StateTransition",
      "type": "event"
    },
    {
      "anonymous": false,
      "inputs": [
        {
          "indexed": false,
          "name": "wallet",
          "type": "address"
        }
      ],
      "name": "JoinEvent",
      "type": "event"
    },
    {
      "anonymous": false,
      "inputs": [
        {
          "indexed": false,
          "name": "recipient",
          "type": "address"
        }
      ],
      "name": "ClaimReward",
      "type": "event"
    },
    {
      "anonymous": false,
      "inputs": [
        {
          "indexed": false,
          "name": "description",
          "type": "string"
        }
      ],
      "name": "Error",
      "type": "event"
    },
    {
      "anonymous": false,
      "inputs": [
        {
          "indexed": false,
          "name": "description",
          "type": "string"
        }
      ],
      "name": "EventFailed",
      "type": "event"
    },
    {
      "anonymous": false,
      "inputs": [
        {
          "indexed": false,
          "name": "validationRound",
          "type": "uint256"
        }
      ],
      "name": "ValidationStarted",
      "type": "event"
    },
    {
      "anonymous": false,
      "inputs": [
        {
          "indexed": false,
          "name": "validationRound",
          "type": "uint256"
        }
      ],
      "name": "ValidationRestart",
      "type": "event"
    },
    {
      "anonymous": false,
      "inputs": [
        {
          "indexed": false,
          "name": "byAddress",
          "type": "address"
        }
      ],
      "name": "DisputeTriggered",
      "type": "event"
    },
    {
      "constant": false,
      "inputs": [],
      "name": "joinEvent",
      "outputs": [],
      "payable": false,
      "stateMutability": "nonpayable",
      "type": "function"
    },
    {
      "constant": true,
      "inputs": [
        {
          "name": "_user",
          "type": "address"
        }
      ],
      "name": "isParticipating",
      "outputs": [
        {
          "name": "",
          "type": "bool"
        }
      ],
      "payable": false,
      "stateMutability": "view",
      "type": "function"
    },
    {
      "constant": true,
      "inputs": [],
      "name": "getParticipants",
      "outputs": [
        {
          "name": "",
          "type": "address[]"
        }
      ],
      "payable": false,
      "stateMutability": "view",
      "type": "function"
    },
    {
      "constant": true,
      "inputs": [],
      "name": "getEventTimes",
      "outputs": [
        {
          "name": "",
          "type": "uint256[5]"
        }
      ],
      "payable": false,
      "stateMutability": "view",
      "type": "function"
    },
    {
      "constant": false,
      "inputs": [
        {
          "name": "_addresses",
          "type": "address[]"
        },
        {
          "name": "_etherRewards",
          "type": "uint256[]"
        },
        {
          "name": "_tokenRewards",
          "type": "uint256[]"
        }
      ],
      "name": "setRewards",
      "outputs": [],
      "payable": false,
      "stateMutability": "nonpayable",
      "type": "function"
    },
    {
      "constant": false,
      "inputs": [
        {
          "name": "rewardsHash",
          "type": "string"
        }
      ],
      "name": "markRewardsSet",
      "outputs": [],
      "payable": false,
      "stateMutability": "nonpayable",
      "type": "function"
    },
    {
      "constant": false,
      "inputs": [
        {
          "name": "validationRound",
          "type": "uint256"
        }
      ],
      "name": "approveRewards",
      "outputs": [],
      "payable": false,
      "stateMutability": "nonpayable",
      "type": "function"
    },
    {
      "constant": false,
      "inputs": [
        {
          "name": "validationRound",
          "type": "uint256"
        },
        {
          "name": "altHash",
          "type": "string"
        }
      ],
      "name": "rejectRewards",
      "outputs": [],
      "payable": false,
      "stateMutability": "nonpayable",
      "type": "function"
    },
    {
      "constant": false,
      "inputs": [],
      "name": "triggerDispute",
      "outputs": [],
      "payable": false,
      "stateMutability": "nonpayable",
      "type": "function"
    },
    {
      "constant": true,
      "inputs": [],
      "name": "getEventResolvers",
      "outputs": [
        {
          "name": "",
          "type": "address[]"
        }
      ],
      "payable": false,
      "stateMutability": "view",
      "type": "function"
    },
    {
      "constant": true,
      "inputs": [],
      "name": "isMasterNode",
      "outputs": [
        {
          "name": "",
          "type": "bool"
        }
      ],
      "payable": false,
      "stateMutability": "view",
      "type": "function"
    },
    {
      "constant": true,
      "inputs": [],
      "name": "getReward",
      "outputs": [
        {
          "name": "",
          "type": "uint256[2]"
        }
      ],
      "payable": false,
      "stateMutability": "view",
      "type": "function"
    },
    {
      "constant": true,
      "inputs": [],
      "name": "getRewardsIndex",
      "outputs": [
        {
          "name": "",
          "type": "address[]"
        }
      ],
      "payable": false,
      "stateMutability": "view",
      "type": "function"
    },
    {
      "constant": true,
      "inputs": [
        {
          "name": "_addresses",
          "type": "address[]"
        }
      ],
      "name": "getRewards",
      "outputs": [
        {
          "name": "",
          "type": "uint256[]"
        },
        {
          "name": "",
          "type": "uint256[]"
        }
      ],
      "payable": false,
      "stateMutability": "view",
      "type": "function"
    },
    {
      "constant": false,
      "inputs": [],
      "name": "claimReward",
      "outputs": [],
      "payable": false,
      "stateMutability": "nonpayable",
      "type": "function"
    },
    {
      "constant": false,
      "inputs": [
        {
          "name": "_hash",
          "type": "string"
        }
      ],
      "name": "setDataFeedHash",
      "outputs": [],
      "payable": false,
      "stateMutability": "nonpayable",
      "type": "function"
    },
    {
      "constant": true,
      "inputs": [],
      "name": "getState",
      "outputs": [
        {
          "name": "",
          "type": "uint256"
        }
      ],
      "payable": false,
      "stateMutability": "view",
      "type": "function"
    },
    {
      "constant": true,
      "inputs": [],
      "name": "getBalance",
      "outputs": [
        {
          "name": "",
          "type": "uint256[2]"
        }
      ],
      "payable": false,
      "stateMutability": "view",
      "type": "function"
    },
    {
      "constant": true,
      "inputs": [],
      "name": "getConsensusRules",
      "outputs": [
        {
          "name": "",
          "type": "uint256[6]"
        }
      ],
      "payable": false,
      "stateMutability": "view",
      "type": "function"
    },
    {
      "constant": true,
      "inputs": [],
      "name": "getDisputeData",
      "outputs": [
        {
          "name": "",
          "type": "uint256[3]"
        },
        {
          "name": "",
          "type": "address"
        }
      ],
      "payable": false,
      "stateMutability": "view",
      "type": "function"
    },
    {
      "constant": false,
      "inputs": [],
      "name": "recoverLeftovers",
      "outputs": [],
      "payable": false,
      "stateMutability": "nonpayable",
      "type": "function"
    }
  ],
  "bytecode": "0x608060408190526004805460ff1990811690915561012c6020556029805490911690556200371a3881900390819083398101604090815281516020830151918301516060840151608085015160a086015160c087015160e08801516101008901516101e08a01516102408b0151988b019a97989697959694959394928401939192610120830192610200810191018a8c106200009a57600080fd5b8a8a116200012f57604080517f08c379a000000000000000000000000000000000000000000000000000000000815260206004820152602c60248201527f4576656e742063616e2774207374617274206265666f7265206170706c69636160448201527f74696f6e7320636c6f73652e0000000000000000000000000000000000000000606482015290519081900360840190fd5b8b6013819055508a60148190555087600160006101000a815481600160a060020a030219169083600160a060020a031602179055508c602190805190602001906200017c92919062000343565b5060158a9055888a0160165585516200019d906003906020890190620003c8565b5060008054600160a060020a0319163317815560188690556001600d55600380549091908110620001ca57fe5b6000918252602091829020015460058054600160a060020a031916600160a060020a03909216919091179055601984905581516200020f916017919084019062000343565b506200022484640100000000620002db810204565b620002388264010000000062000330810204565b60028054600160a060020a031916600160a060020a038981169190911791829055604080517fc4130ae00000000000000000000000000000000000000000000000000000000081529051929091169163c4130ae09160048082019260009290919082900301818387803b158015620002af57600080fd5b505af1158015620002c4573d6000803e3d6000fd5b505050505050505050505050505050505062000475565b8051602355602081015160245560408101516025556060810151602655608081015160275560a081015160008111156200031157fe5b6028805460ff191660018360008111156200032857fe5b021790555050565b8051601a5560200151601b556000601c55565b828054600181600116156101000203166002900490600052602060002090601f016020900481019282601f106200038657805160ff1916838001178555620003b6565b82800160010185558215620003b6579182015b82811115620003b657825182559160200191906001019062000399565b50620003c49291506200042e565b5090565b82805482825590600052602060002090810192821562000420579160200282015b82811115620004205782518254600160a060020a031916600160a060020a03909116178255602090920191600190910190620003e9565b50620003c49291506200044e565b6200044b91905b80821115620003c4576000815560010162000435565b90565b6200044b91905b80821115620003c4578054600160a060020a031916815560010162000455565b61329580620004856000396000f30060806040526004361061015d5763ffffffff7c0100000000000000000000000000000000000000000000000000000000600035041662f16142811461015f578063073f03fb1461018657806311e956c8146101b757806312065fe0146101e05780631865c57d146102305780631a0ddce9146102455780633d18b9121461030c5780634227357c14610321578063437933cc146103ab5780634b766b9514610404578063510ccb431461045d57806352f91acf1461054b57806354e33cf0146105605780635aa68ac0146105c557806374539f98146105da5780638043c9c0146105ef5780638126cb1e1461060457806381c2d875146106625780638da5cb5b1461068c5780639d76ea58146106a1578063a77ae839146106b6578063ab95b586146106ce578063b88a802f146106f8578063d6e9b0191461070d578063efba9bd214610773578063f4caee8814610788578063f9010d19146107a9575b005b34801561016b57600080fd5b506101746107be565b60408051918252519081900360200190f35b34801561019257600080fd5b5061019b6107c4565b60408051600160a060020a039092168252519081900360200190f35b3480156101c357600080fd5b506101cc6107d3565b604080519115158252519081900360200190f35b3480156101ec57600080fd5b506101f56107e5565b6040518082600260200280838360005b8381101561021d578181015183820152602001610205565b5050505090500191505060405180910390f35b34801561023c57600080fd5b50610174610897565b34801561025157600080fd5b506040805160206004803580820135838102808601850190965280855261015d95369593946024949385019291829185019084908082843750506040805187358901803560208181028481018201909552818452989b9a998901989297509082019550935083925085019084908082843750506040805187358901803560208181028481018201909552818452989b9a9989019892975090820195509350839250850190849080828437509497506108b09650505050505050565b34801561031857600080fd5b506101f5610c44565b34801561032d57600080fd5b50610336610c86565b6040805160208082528351818301528351919283929083019185019080838360005b83811015610370578181015183820152602001610358565b50505050905090810190601f16801561039d5780820380516001836020036101000a031916815260200191505b509250505060405180910390f35b3480156103b757600080fd5b506040805160206004803580820135601f810184900484028501840190955284845261015d943694929360249392840191908190840183828082843750949750610d149650505050505050565b34801561041057600080fd5b506040805160206004803580820135601f810184900484028501840190955284845261015d943694929360249392840191908190840183828082843750949750610d429650505050505050565b34801561046957600080fd5b50604080516020600480358082013583810280860185019096528085526104b295369593946024949385019291829185019084908082843750949750610fe49650505050505050565b604051808060200180602001838103835285818151815260200191508051906020019060200280838360005b838110156104f65781810151838201526020016104de565b50505050905001838103825284818151815260200191508051906020019060200280838360005b8381101561053557818101518382015260200161051d565b5050505090500194505050505060405180910390f35b34801561055757600080fd5b5061015d611122565b34801561056c57600080fd5b506105756115b5565b60408051602080825283518183015283519192839290830191858101910280838360005b838110156105b1578181015183820152602001610599565b505050509050019250505060405180910390f35b3480156105d157600080fd5b50610575611617565b3480156105e657600080fd5b50610575611677565b3480156105fb57600080fd5b506103366116d7565b34801561061057600080fd5b5060408051602060046024803582810135601f810185900485028601850190965285855261015d9583359536956044949193909101919081908401838280828437509497506117329650505050505050565b34801561066e57600080fd5b50610677611ab5565b60405181518152808260c08083836020610205565b34801561069857600080fd5b5061019b611b0b565b3480156106ad57600080fd5b5061019b611b1a565b3480156106c257600080fd5b5061015d600435611b29565b3480156106da57600080fd5b506106e3611d5e565b60405181518152808260a08083836020610205565b34801561070457600080fd5b5061015d611d9d565b34801561071957600080fd5b506107226122b7565b6040518083606080838360005b8381101561074757818101518382015260200161072f565b5050505090500182600160a060020a0316600160a060020a031681526020019250505060405180910390f35b34801561077f57600080fd5b5061015d6122f1565b34801561079457600080fd5b506101cc600160a060020a0360043516612485565b3480156107b557600080fd5b5061015d6124a3565b600d5481565b600254600160a060020a031681565b600554600160a060020a031633145b90565b6107ed613036565b604080518082018252308031825260015483517f70a08231000000000000000000000000000000000000000000000000000000008152600481019290925292519192602080850193600160a060020a03909216926370a0823192602480830193928290030181600087803b15801561086457600080fd5b505af1158015610878573d6000803e3d6000fd5b505050506040513d602081101561088e57600080fd5b50519052905090565b60295460009060ff1660058111156108ab57fe5b905090565b600554600090600160a060020a03163314610915576040805160e560020a62461bcd02815260206004820152601d60248201527f4e6f7420612064657369676e61746564206d6173746572206e6f64652e000000604482015290519081900360640190fd5b600060295460ff16600581111561092857fe5b14801561093757506013544210155b156109445761094461293d565b600160295460ff16600581111561095757fe5b14801561096657506014544210155b156109c557602354600f5410156109bd576109b86060604051908101604052806033815260200160008051602061320a833981519152815260200160008051602061322a833981519152815250612a73565b6109c5565b6109c561293d565b600360295460ff1660058111156109d857fe5b1480156109e75750601d544210155b156109f4576109f461293d565b60295460029060ff166005811115610a0857fe5b816005811115610a1457fe5b14610a66576040805160e560020a62461bcd0281526020600482015260248082015260008051602061324a833981519152604482015260e160020a6330ba329702606482015290519081900360840190fd5b83518551148015610a78575082518551145b1515610a8357600080fd5b600060045460ff166002811115610a9657fe5b14610b11576040805160e560020a62461bcd02815260206004820152602660248201527f4e6f7420706f737369626c6520696e20746869732076616c69646174696f6e2060448201527f73746174652e0000000000000000000000000000000000000000000000000000606482015290519081900360840190fd5b600091505b8451821015610c3d578382815181101515610b2d57fe5b90602001906020020151601160008785815181101515610b4957fe5b602090810291909101810151600160a060020a0316825281810192909252604090810160009081208180529092529020558251839083908110610b8857fe5b90602001906020020151601160008785815181101515610ba457fe5b602090810291909101810151600160a060020a031682528181019290925260409081016000908120600182529092529020558451601290869084908110610be757fe5b602090810291909101810151825460018082018555600094855292909320909201805473ffffffffffffffffffffffffffffffffffffffff1916600160a060020a03909316929092179091559190910190610b16565b5050505050565b610c4c613036565b5060408051808201825233600090815260116020908152838220828052808252848320548452600183528152929020549181019190915290565b6022805460408051602060026001851615610100026000190190941693909304601f81018490048402820184019092528181529291830182828015610d0c5780601f10610ce157610100808354040283529160200191610d0c565b820191906000526020600020905b815481529060010190602001808311610cef57829003601f168201915b505050505081565b600054600160a060020a03163314610d2b57600080fd5b8051610d3e906022906020840190613051565b5050565b600554600160a060020a03163314610da4576040805160e560020a62461bcd02815260206004820152601d60248201527f4e6f7420612064657369676e61746564206d6173746572206e6f64652e000000604482015290519081900360640190fd5b600060295460ff166005811115610db757fe5b148015610dc657506013544210155b15610dd357610dd361293d565b600160295460ff166005811115610de657fe5b148015610df557506014544210155b15610e5457602354600f541015610e4c57610e476060604051908101604052806033815260200160008051602061320a833981519152815260200160008051602061322a833981519152815250612a73565b610e54565b610e5461293d565b600360295460ff166005811115610e6757fe5b148015610e765750601d544210155b15610e8357610e8361293d565b60295460029060ff166005811115610e9757fe5b816005811115610ea357fe5b14610ef5576040805160e560020a62461bcd0281526020600482015260248082015260008051602061324a833981519152604482015260e160020a6330ba329702606482015290519081900360840190fd5b600060045460ff166002811115610f0857fe5b14610f83576040805160e560020a62461bcd02815260206004820152602660248201527f4e6f7420706f737369626c6520696e20746869732076616c69646174696f6e2060448201527f73746174652e0000000000000000000000000000000000000000000000000000606482015290519081900360840190fd5b8151610f96906006906020850190613051565b50600160078190556004805460ff19169091179055600d5460408051918252517f47c2e9e59e6d2347f314927d02f36b95696a09b5f0ac0bae119ff5ae937016559181900360200190a15050565b60608060608060008551604051908082528060200260200182016040528015611017578160200160208202803883390190505b5092508551604051908082528060200260200182016040528015611045578160200160208202803883390190505b509150600090505b85518110156111175760116000878381518110151561106857fe5b602090810291909101810151600160a060020a03168252818101929092526040908101600090812081805290925290205483518490839081106110a757fe5b6020908102909101015285516011906000908890849081106110c557fe5b602090810291909101810151600160a060020a03168252818101929092526040908101600090812060018252909252902054825183908390811061110557fe5b6020908102909101015260010161104d565b509094909350915050565b600060295460ff16600581111561113557fe5b14801561114457506013544210155b156111515761115161293d565b600160295460ff16600581111561116457fe5b14801561117357506014544210155b156111d257602354600f5410156111ca576111c56060604051908101604052806033815260200160008051602061320a833981519152815260200160008051602061322a833981519152815250612a73565b6111d2565b6111d261293d565b600360295460ff1660058111156111e557fe5b1480156111f45750601d544210155b156112015761120161293d565b61120a33612485565b1515611260576040805160e560020a62461bcd02815260206004820152601260248201527f4e6f742070617274696369706174696e672e0000000000000000000000000000604482015290519081900360640190fd5b60295460039060ff16600581111561127457fe5b81600581111561128057fe5b146112d2576040805160e560020a62461bcd0281526020600482015260248082015260008051602061324a833981519152604482015260e160020a6330ba329702606482015290519081900360840190fd5b601c54601a54600154604080517fdd62ed3e000000000000000000000000000000000000000000000000000000008152336004820152306024820152905160029490940a90920292600160a060020a039091169163dd62ed3e9160448083019260209291908290030181600087803b15801561134d57600080fd5b505af1158015611361573d6000803e3d6000fd5b505050506040513d602081101561137757600080fd5b505110156113f5576040805160e560020a62461bcd02815260206004820152602560248201527f4e6f7420656e6f75676820746f6b656e73207374616b656420666f722064697360448201527f707574652e000000000000000000000000000000000000000000000000000000606482015290519081900360840190fd5b336000908152601e602052604090205460ff161561145d576040805160e560020a62461bcd02815260206004820152601c60248201527f416c726561647920747269676765726564206120646973707574652e00000000604482015290519081900360640190fd5b601c8054601a8054600283900a0281556001918201909255336000818152601e60209081526040808320805460ff191686179055601f805473ffffffffffffffffffffffffffffffffffffffff1916851790559354945484517f23b872dd000000000000000000000000000000000000000000000000000000008152600481019490945230602485015260448401529251600160a060020a03909416936323b872dd936064808501949193918390030190829087803b15801561151f57600080fd5b505af1158015611533573d6000803e3d6000fd5b505050506040513d602081101561154957600080fd5b506115549050612bc9565b61155c612c96565b6029805460ff191660011790556020805442810160148190556015819055016016556040805133815290517ff6d97c5e133e50668a6b3607d8748ef6599c3303babb2b08a515a5a67369f45f929181900390910190a150565b6060601280548060200260200160405190810160405280929190818152602001828054801561160d57602002820191906000526020600020905b8154600160a060020a031681526001909101906020018083116115ef575b5050505050905090565b6060600f80548060200260200160405190810160405280929190818152602001828054801561160d57602002820191906000526020600020908154600160a060020a031681526001909101906020018083116115ef575050505050905090565b6060600380548060200260200160405190810160405280929190818152602001828054801561160d57602002820191906000526020600020908154600160a060020a031681526001909101906020018083116115ef575050505050905090565b6021805460408051602060026001851615610100026000190190941693909304601f81018490048402820184019092528181529291830182828015610d0c5780601f10610ce157610100808354040283529160200191610d0c565b60295460029060ff16600581111561174657fe5b81600581111561175257fe5b146117a4576040805160e560020a62461bcd0281526020600482015260248082015260008051602061324a833981519152604482015260e160020a6330ba329702606482015290519081900360840190fd5b826117ae33612d48565b80156117bf57506117bd6107d3565b155b1515611815576040805160e560020a62461bcd02815260206004820152601b60248201527f4e6f7420612076616c69642073656e64657220616464726573732e0000000000604482015290519081900360640190fd5b600160045460ff16600281111561182857fe5b1461187d576040805160e560020a62461bcd02815260206004820152601760248201527f4e6f742076616c69646174696e6720726577617264732e000000000000000000604482015290519081900360640190fd5b600d5481146118d6576040805160e560020a62461bcd02815260206004820152601a60248201527f56616c69646174696f6e20726f756e64206d69736d617463682e000000000000604482015290519081900360640190fd5b600d54336000908152600a60205260409020541061193e576040805160e560020a62461bcd02815260206004820152601d60248201527f416c726561647920766f74656420666f72207468697320726f756e642e000000604482015290519081900360640190fd5b600880546001019055600d54336000908152600a602090815260409182902092909255518451600c9286929182918401908083835b602083106119925780518252601f199092019160209182019101611973565b51815160209384036101000a600019018019909216911617905292019485525060405193849003019092205460ff1615159150611aa790505760098054600181018083556000929092528451611a0f917f6e1540171b6c0c960b71a7020d9f60077f6af931a8bbf590da0223dacf75c7af01906020870190613051565b50506005600601836040518082805190602001908083835b60208310611a465780518252601f199092019160209182019101611a27565b51815160001960209485036101000a0190811690199190911617905292019485525060405193849003810190932080546001810182556000918252939020909201805473ffffffffffffffffffffffffffffffffffffffff19163317905550505b611aaf612da6565b50505050565b611abd6130cf565b6040805160c08101825260235481526024546020820152602554918101919091526026546060820152602754608082015260285460a082019060ff166000811115611b0457fe5b9052905090565b600054600160a060020a031681565b600154600160a060020a031681565b60295460029060ff166005811115611b3d57fe5b816005811115611b4957fe5b14611b9b576040805160e560020a62461bcd0281526020600482015260248082015260008051602061324a833981519152604482015260e160020a6330ba329702606482015290519081900360840190fd5b81611ba533612d48565b8015611bb65750611bb46107d3565b155b1515611c0c576040805160e560020a62461bcd02815260206004820152601b60248201527f4e6f7420612076616c69642073656e64657220616464726573732e0000000000604482015290519081900360640190fd5b600160045460ff166002811115611c1f57fe5b14611c74576040805160e560020a62461bcd02815260206004820152601760248201527f4e6f742076616c69646174696e6720726577617264732e000000000000000000604482015290519081900360640190fd5b600d548114611ccd576040805160e560020a62461bcd02815260206004820152601a60248201527f56616c69646174696f6e20726f756e64206d69736d617463682e000000000000604482015290519081900360640190fd5b600d54336000908152600a602052604090205410611d35576040805160e560020a62461bcd02815260206004820152601d60248201527f416c726561647920766f74656420666f72207468697320726f756e642e000000604482015290519081900360640190fd5b600780546001019055600d54336000908152600a6020526040902055611d59612dc1565b505050565b611d666130ee565b60a0604051908101604052806013548152602001601454815260200160155481526020016016548152602001601854815250905090565b600080611da933612485565b1515611dff576040805160e560020a62461bcd02815260206004820152601260248201527f4e6f742070617274696369706174696e672e0000000000000000000000000000604482015290519081900360640190fd5b600060295460ff166005811115611e1257fe5b148015611e2157506013544210155b15611e2e57611e2e61293d565b600160295460ff166005811115611e4157fe5b148015611e5057506014544210155b15611eaf57602354600f541015611ea757611ea26060604051908101604052806033815260200160008051602061320a833981519152815260200160008051602061322a833981519152815250612a73565b611eaf565b611eaf61293d565b600360295460ff166005811115611ec257fe5b148015611ed15750601d544210155b15611ede57611ede61293d565b60295460049060ff166005811115611ef257fe5b816005811115611efe57fe5b14611f50576040805160e560020a62461bcd0281526020600482015260248082015260008051602061324a833981519152604482015260e160020a6330ba329702606482015290519081900360840190fd5b336000908152601160209081526040808320838052909152902054158015611f91575033600090815260116020908152604080832060018452909152902054155b1561200f576040805160208082526025908201527f596f7520646f206e6f74206861766520616e79207265776172647320746f2063818301527f6c61696d2e000000000000000000000000000000000000000000000000000000606082015290516000805160206131ea8339815191529181900360800190a1611d59565b336000908152601160209081526040808320838052909152902054303110806120e15750336000908152601160209081526040808320600180855290835281842054905482517f70a0823100000000000000000000000000000000000000000000000000000000815230600482015292519194600160a060020a03909116936370a08231936024808201949293918390030190829087803b1580156120b357600080fd5b505af11580156120c7573d6000803e3d6000fd5b505050506040513d60208110156120dd57600080fd5b5051105b15612185576040805160208082526045908201527f437269746963616c206572726f723a206e6f7420656e6f7567682062616c616e818301527f636520746f20706179206f7574207265776172642e20436f6e7461637420566560608201527f726974792e000000000000000000000000000000000000000000000000000000608082015290516000805160206131ea8339815191529181900360a00190a1611d59565b3360008181526011602090815260408083208380529091528082208054601954600185528385208054938690558590559251909750910194506108fc86150291869190818181858888f193505050501580156121e5573d6000803e3d6000fd5b50600154604080517fa9059cbb000000000000000000000000000000000000000000000000000000008152336004820152602481018590529051600160a060020a039092169163a9059cbb916044808201926020929091908290030181600087803b15801561225357600080fd5b505af1158015612267573d6000803e3d6000fd5b505050506040513d602081101561227d57600080fd5b50506040805133815290517f63e32091e4445d16e29c33a6b264577c2d86694021aa4e6f4dd590048f5792e89181900360200190a1505050565b6122bf61310d565b5060408051606081018252601a548152601b546020820152601c5491810191909152601f54600160a060020a03169091565b60008054600160a060020a0316331461230957600080fd5b60185442101561231857600080fd5b60008054604051600160a060020a0390911691303180156108fc02929091818181858888f19350505050158015612353573d6000803e3d6000fd5b50600154604080517f70a082310000000000000000000000000000000000000000000000000000000081523060048201529051600160a060020a03909216916370a08231916024808201926020929091908290030181600087803b1580156123ba57600080fd5b505af11580156123ce573d6000803e3d6000fd5b505050506040513d60208110156123e457600080fd5b505160015460008054604080517fa9059cbb000000000000000000000000000000000000000000000000000000008152600160a060020a03928316600482015260248101869052905194955092169263a9059cbb926044808201936020939283900390910190829087803b15801561245b57600080fd5b505af115801561246f573d6000803e3d6000fd5b505050506040513d6020811015611d5957600080fd5b600160a060020a03166000908152600e602052604090205460ff1690565b600060295460ff1660058111156124b657fe5b1480156124c557506013544210155b156124d2576124d261293d565b600160295460ff1660058111156124e557fe5b1480156124f457506014544210155b1561255357602354600f54101561254b576125466060604051908101604052806033815260200160008051602061320a833981519152815260200160008051602061322a833981519152815250612a73565b612553565b61255361293d565b600360295460ff16600581111561256657fe5b1480156125755750601d544210155b156125825761258261293d565b61258b33612485565b156125e357604080516020808252601e908201527f596f752061726520616c72656164792070617274696369706174696e672e00008183015290516000805160206131ea8339815191529181900360600190a161293b565b600160295460ff1660058111156125f657fe5b1461267457604080516020808252602b908201527f596f752063616e206f6e6c79206a6f696e20696e20746865204170706c696361818301527f74696f6e2073746174652e000000000000000000000000000000000000000000606082015290516000805160206131ea8339815191529181900360800190a161293b565b600060195411801561271e5750601954600154604080517fdd62ed3e0000000000000000000000000000000000000000000000000000000081523360048201523060248201529051600160a060020a039092169163dd62ed3e916044808201926020929091908290030181600087803b1580156126f057600080fd5b505af1158015612704573d6000803e3d6000fd5b505050506040513d602081101561271a57600080fd5b5051105b15612776576040805160208082526019908201527f4e6f7420656e6f75676820746f6b656e73207374616b65642e000000000000008183015290516000805160206131ea8339815191529181900360600190a161293b565b6000601954111561282457600154601954604080517f23b872dd000000000000000000000000000000000000000000000000000000008152336004820152306024820152604481019290925251600160a060020a03909216916323b872dd916064808201926020929091908290030181600087803b1580156127f757600080fd5b505af115801561280b573d6000803e3d6000fd5b505050506040513d602081101561282157600080fd5b50505b336000818152600e6020526040808220805460ff19166001908117909155600f8054918201815583527f8d1108e10bcb7c27dddfc02ed9d693a074039d026cf4ea4240b40f7d581ac80201805473ffffffffffffffffffffffffffffffffffffffff19168417905560025481517fb9d3514d00000000000000000000000000000000000000000000000000000000815260048101949094529051600160a060020a03919091169263b9d3514d92602480830193919282900301818387803b1580156128ee57600080fd5b505af1158015612902573d6000803e3d6000fd5b50506040805133815290517f0940fd5e528ae9fa6c086f42387c791c3854e0febdf0717c2da155c9dbf1e86c9350908190036020019150a15b565b600460295460ff16600581111561295057fe5b1415801561296f5750600560295460ff16600581111561296c57fe5b14155b15156129eb576040805160e560020a62461bcd02815260206004820152602660248201527f4576656e742073746174652063616e2774206265206d6f64696669656420616e60448201527f796d6f72652e0000000000000000000000000000000000000000000000000000606482015290519081900360840190fd5b60295460ff1660058111156129fc57fe5b6001016005811115612a0a57fe5b6029805460ff19166001836005811115612a2057fe5b02179055506029546040517fb9eb8a309bf89f3159b39681f485b6430fec1035b2b457edbcdadcdece888c0b9160ff169080826005811115612a5e57fe5b60ff16815260200191505060405180910390a1565b600460295460ff166005811115612a8657fe5b14158015612aa55750600560295460ff166005811115612aa257fe5b14155b1515612b21576040805160e560020a62461bcd02815260206004820152602660248201527f4576656e742073746174652063616e2774206265206d6f64696669656420616e60448201527f796d6f72652e0000000000000000000000000000000000000000000000000000606482015290519081900360840190fd5b6029805460ff1916600517905560408051602080825283518183015283517f860b7e55e58bd6095b36c4b4016ed8a2e47cb8ebd020fa0e43b32649deb540c3938593928392918301919085019080838360005b83811015612b8c578181015183820152602001612b74565b50505050905090810190601f168015612bb95780820380516001836020036101000a031916815260200191505b509250505060405180910390a150565b6000600781905560088190555b600954811015612c7d5760098054600b919083908110612bf257fe5b906000526020600020016040518082805460018160011615610100020316600290048015612c575780601f10612c35576101008083540402835291820191612c57565b820191906000526020600020905b815481529060010190602001808311612c43575b50509283525050604051908190036020019020612c7590600061312c565b600101612bd6565b612c896009600061314a565b506004805460ff19169055565b60005b601254811015612d3957600060116000601284815481101515612cb857fe5b600091825260208083209190910154600160a060020a03168352828101939093526040918201812081805290925281209190915560128054601191839185908110612cff57fe5b600091825260208083209190910154600160a060020a03168352828101939093526040918201812060018083529352209190915501612c99565b612d456012600061312c565b50565b6000805b600354811015612d9b5782600160a060020a0316600382815481101515612d6f57fe5b600091825260209091200154600160a060020a03161415612d935760019150612da0565b600101612d4c565b600091505b50919050565b602554606403612db4612dee565b1061293b5761293b612e0a565b602554612dcc612f00565b1061293b576004805460ff19166002179055601b544201601d5561293b61293d565b60035460085460009190606402811515612e0457fe5b04905090565b6001600560070160056001016040518082805460018160011615610100020316600290048015612e715780601f10612e4f576101008083540402835291820191612e71565b820191906000526020600020905b815481529060010190602001808311612e5d575b50509283525050604051602091819003919091019020805460ff1916911515919091179055600954600854600d54600754929091036001019101600019011115612ef857612ef36040805190810160405280601a81526020017f436f6e73656e7375732063616e27742062652072656163686564000000000000815250612a73565b61293b565b61293b612f16565b60035460075460009190606402811515612e0457fe5b600d8054600101905560098054600b91906000908110612f3257fe5b906000526020600020016040518082805460018160011615610100020316600290048015612f975780601f10612f75576101008083540402835291820191612f97565b820191906000526020600020905b815481529060010190602001808311612f83575b5050928352505060405190819003602001902080546000908110612fb757fe5b6000918252602090912001546005805473ffffffffffffffffffffffffffffffffffffffff1916600160a060020a03909216919091179055612ff7612bc9565b612fff612c96565b600d5460408051918252517fc785d855a24b92cb8266e0a85180a9fa4fe03d182f82a8555b01e1f986d267df9181900360200190a1565b60408051808201825290600290829080388339509192915050565b828054600181600116156101000203166002900490600052602060002090601f016020900481019282601f1061309257805160ff19168380011785556130bf565b828001600101855582156130bf579182015b828111156130bf5782518255916020019190600101906130a4565b506130cb929150613168565b5090565b60c0604051908101604052806006906020820280388339509192915050565b60a0604051908101604052806005906020820280388339509192915050565b6060604051908101604052806003906020820280388339509192915050565b5080546000825590600052602060002090810190612d459190613168565b5080546000825590600052602060002090810190612d459190613182565b6107e291905b808211156130cb576000815560010161316e565b6107e291905b808211156130cb57600061319c82826131a5565b50600101613188565b50805460018160011615610100020316600290046000825580601f106131cb5750612d45565b601f016020900490600052602060002090810190612d459190613168560008c379a0afcc32b1a39302f7cb8073359698411ab5fd6e3edb2c02c0b5fba8aa4e6f7420656e6f756768207573657273206a6f696e656420666f72207265717569726564206d696e696d756d20766f7465732e000000000000000000000000004e6f7420706f737369626c6520696e2063757272656e74206576656e74207374a165627a7a72305820e77a7c7c399f6e78e8cd1579ec220afea237d4f245571c52e5b01ec630d43bda0029",
  "source": "pragma solidity 0.4.24;\n\n\nimport \"./EventRegistry.sol\";\nimport \"./VerityToken.sol\";\n\n\ncontract VerityEvent {\n    /// Contract's owner, used for permission management\n    address public owner;\n\n    /// Token contract address, used for tokend distribution\n    address public tokenAddress;\n\n    /// Event registry contract address\n    address public eventRegistryAddress;\n\n    /// Designated validation nodes that will decide rewards.\n    address[] eventResolvers;\n\n    /// - WaitingForRewards: Waiting for current master to set rewards.\n    /// - Validating: Master has set rewards. Vaiting for node validation.\n    /// - Finished: Either successfully validated or failed.\n    enum ValidationState {\n        WaitingForRewards,\n        Validating,\n        Finished\n    }\n    ValidationState validationState = ValidationState.WaitingForRewards;\n\n    struct RewardsValidation {\n        address currentMasterNode;\n        string rewardsHash;\n        uint approvalCount;\n        uint rejectionCount;\n        string[] altHashes;\n        mapping(address => uint) votersRound;\n        mapping(string => address[]) altHashVotes;\n        mapping(string => bool) rejectedHashes;\n    }\n    RewardsValidation rewardsValidation;\n\n    /// Round of validation. Increases by each failed validation\n    uint public rewardsValidationRound;\n\n    /// A list of all the participating wallet addresses, implemented as a mapping\n    /// to provide constant lookup times.\n    mapping(address => bool) participants;\n    address[] participantsIndex;\n\n    enum RewardType {\n        Ether,\n        Token\n    }\n    RewardType rewardType;\n\n    /// A mapping of addresses to their assigned rewards\n    mapping(address => mapping(uint => uint)) rewards;\n    address[] rewardsIndex;\n\n    /// Event application start time, users cannot apply to participate before it\n    uint applicationStartTime;\n\n    /// Event application end time, users cannot apply after this time\n    uint applicationEndTime;\n\n    /// Event actual start time, votes before this should not be accepted\n    uint eventStartTime;\n\n    /// Event end time, it is calculated in the constructor\n    uint eventEndTime;\n\n    /// Ipfs event data hash\n    string ipfsEventHash;\n\n    /// Event name, here for informational use - not used otherwise\n    /// owner can recover tokens and ether after this time\n    uint leftoversRecoverableAfter;\n\n    /// Amount of tokens that each user must stake before voting.\n    uint stakingAmount;\n\n    struct Dispute {\n        uint amount;\n        uint timeout;\n        uint round;\n        uint expiresAt;\n        mapping(address => bool) disputers;\n        address currentDisputer;\n    }\n    Dispute dispute;\n\n    uint defaultDisputeTimeExtension = 300;\n\n    string public eventName;\n\n    /// Data feed hash, used for verification\n    string public dataFeedHash;\n\n    enum RewardsDistribution {\n        Linear // 0\n    }\n\n    struct ConsensusRules {\n        uint minTotalVotes;\n        uint minConsensuVotes;\n        uint minConsensusRatio;\n        uint minParticipantRatio;\n        uint maxParticipants;\n        RewardsDistribution rewardsDistribution;\n    }\n    ConsensusRules consensusRules;\n\n    /// Event's states\n    /// Events advance in the order defined here. Once the event reaches \"Reward\"\n    /// state, it cannot advance further.\n    /// Event states:\n    ///   - Waiting     -- Contract has been created, nothing is happening yet\n    ///   - Application -- After applicationStartTime, the event advances here\n    ///     new wallets can be added to the participats list during this state.\n    ///   - Running     -- Event is running, no new participants can be added\n    ///   - Reward      -- Participants can claim their payouts here - final state; can't be modified.\n    ///   - Failed      -- Event failed (no consensus, not enough users, timeout, ...) - final state; can't be modified\n    enum EventStates {\n        Waiting,\n        Application,\n        Running,\n        DisputeTimeout,\n        Reward,\n        Failed\n    }\n    EventStates eventState = EventStates.Waiting;\n\n    event StateTransition(EventStates newState);\n    event JoinEvent(address wallet);\n    event ClaimReward(address recipient);\n    event Error(string description);\n    event EventFailed(string description);\n    event ValidationStarted(uint validationRound);\n    event ValidationRestart(uint validationRound);\n    event DisputeTriggered(address byAddress);\n\n    constructor(\n        string _eventName,\n        uint _applicationStartTime,\n        uint _applicationEndTime,\n        uint _eventStartTime,\n        uint _eventRunTime, // in seconds\n        address _tokenAddress,\n        address _registry,\n        address[] _eventResolvers,\n        uint _leftoversRecoverableAfter, // with timestamp (in seconds)\n        uint[6] _consensusRules, // [minTotalVotes, minConsensusVotes, minConsensusRatio, minParticipantRatio, maxParticipants, distribution]\n        uint _stakingAmount,\n        uint[2] _disputeRules, // [dispute amount, dispute timeout]\n        string _ipfsEventHash\n    )\n        public\n        payable\n    {\n        require(_applicationStartTime < _applicationEndTime);\n        require(_eventStartTime > _applicationEndTime, \"Event can't start before applications close.\");\n\n        applicationStartTime = _applicationStartTime;\n        applicationEndTime = _applicationEndTime;\n        tokenAddress = _tokenAddress;\n\n        eventName = _eventName;\n        eventStartTime = _eventStartTime;\n        eventEndTime = _eventStartTime + _eventRunTime;\n\n        eventResolvers = _eventResolvers;\n\n        owner = msg.sender;\n        leftoversRecoverableAfter = _leftoversRecoverableAfter;\n\n        rewardsValidationRound = 1;\n        rewardsValidation.currentMasterNode = eventResolvers[0];\n\n        stakingAmount = _stakingAmount;\n\n        ipfsEventHash = _ipfsEventHash;\n\n        setConsensusRules(_consensusRules);\n        setDisputeData(_disputeRules);\n\n        eventRegistryAddress = _registry;\n\n        EventRegistry(eventRegistryAddress).registerEvent();\n    }\n\n    /// A modifier signifiying that a certain method can only be used by the creator\n    /// of the contract.\n    /// Rollbacks the transaction on failure.\n    modifier onlyOwner() {\n        require(msg.sender == owner);\n        _;\n    }\n\n    /// A modifier signifiying that rewards can be set only by the designated master node.\n    /// Rollbacks the transaction on failure.\n    modifier onlyCurrentMaster() {\n        require(\n            msg.sender == rewardsValidation.currentMasterNode,\n            \"Not a designated master node.\"\n        );\n        _;\n    }\n\n    ///\tA modifier signifying that a certain method can only be used by a wallet\n    ///\tmarked as a participant.\n    ///\tRollbacks the transaction or failure.\n    modifier onlyParticipating() {\n        require(\n            isParticipating(msg.sender),\n            \"Not participating.\"\n        );\n        _;\n    }\n\n    /// A modifier signifying that a certain method can only be used when the event\n    /// is in a certain state.\n    /// @param _state The event's required state\n    /// Example:\n    /// \tfunction claimReward() onlyParticipanting onlyState(EventStates.Reward) {\n    /// \t\t// ... content\n    /// \t}\n    modifier onlyState(EventStates _state) {\n        require(\n            _state == eventState,\n            \"Not possible in current event state.\"\n        );\n        _;\n    }\n\n    /// A modifier taking care of all the timed state transitions.\n    /// Should always be used before all other modifiers, especially `onlyState`,\n    /// since it can change state.\n    /// Should probably be used in ALL non-constant (transaction) methods of\n    /// the contract.\n    modifier timedStateTransition() {\n        if (eventState == EventStates.Waiting && now >= applicationStartTime) {\n            advanceState();\n        }\n\n        if (eventState == EventStates.Application && now >= applicationEndTime) {\n            if (participantsIndex.length < consensusRules.minTotalVotes) {\n                markAsFailed(\"Not enough users joined for required minimum votes.\");\n            } else {\n                advanceState();\n            }\n        }\n\n        if (eventState == EventStates.DisputeTimeout && now >= dispute.expiresAt) {\n            advanceState();\n        }\n        _;\n    }\n\n    modifier onlyChangeableState() {\n        require(\n            eventState != EventStates.Reward && eventState != EventStates.Failed,\n            \"Event state can't be modified anymore.\"\n        );\n\n        _;\n    }\n\n    modifier onlyAfterLefroversCanBeRecovered() {\n        require(now >= leftoversRecoverableAfter);\n        _;\n    }\n\n    modifier canValidateRewards(uint forRound) {\n        require(\n            isNode(msg.sender) && !isMasterNode(),\n            \"Not a valid sender address.\"\n        );\n\n        require(\n            validationState == ValidationState.Validating,\n            \"Not validating rewards.\"\n        );\n\n        require(\n            forRound == rewardsValidationRound,\n            \"Validation round mismatch.\"\n        );\n\n        require(\n            rewardsValidation.votersRound[msg.sender] < rewardsValidationRound,\n            \"Already voted for this round.\"\n        );\n        _;\n    }\n\n    /// Ensure we can receive money at any time.\n    /// Not used, but we might want to extend the reward fund while event is running.\n    function() public payable {}\n\n    /// Apply for participation in this event.\n    /// Available only during the Application state.\n    /// A transaction to this function has to be done by the users themselves,\n    /// registering their wallet address as a participent.\n    /// The transaction does not have to include any funds.\n    function joinEvent()\n        public\n        timedStateTransition\n    {\n        if (isParticipating(msg.sender)) {\n            emit Error(\"You are already participating.\");\n            return;\n        }\n\n        if (eventState != EventStates.Application) {\n            emit Error(\"You can only join in the Application state.\");\n            return;\n        }\n\n        if (\n            stakingAmount > 0 &&\n            VerityToken(tokenAddress).allowance(msg.sender, address(this)) < stakingAmount\n        ) {\n            emit Error(\"Not enough tokens staked.\");\n            return;\n        }\n\n        if (stakingAmount > 0) {\n            VerityToken(tokenAddress).transferFrom(msg.sender, address(this), stakingAmount);\n        }\n        participants[msg.sender] = true;\n        participantsIndex.push(msg.sender);\n        EventRegistry(eventRegistryAddress).addEventToUser(msg.sender);\n        emit JoinEvent(msg.sender);\n    }\n\n    /// Checks whether an address is participating in this event.\n    /// @param _user The addres to check for participation\n    /// @return {bool} Whether the given address is a participant of this event\n    function isParticipating(address _user) public view returns(bool) {\n        return participants[_user];\n    }\n\n    function getParticipants() public view returns(address[]) {\n        return participantsIndex;\n    }\n\n    function getEventTimes() public view returns(uint[5]) {\n        return [\n            applicationStartTime,\n            applicationEndTime,\n            eventStartTime,\n            eventEndTime,\n            leftoversRecoverableAfter\n        ];\n    }\n\n    /// Assign the actual rewards.\n    /// Receives a list of addresses and a list rewards. Mapping between the two\n    /// is done by the addresses' and reward's numerical index in the list, so\n    /// order is important.\n    /// @param _addresses A list of addresses\n    /// @param _etherRewards A list of ether rewards, must be the exact same length as addresses\n    /// @param _tokenRewards A list of token rewards, must be the exact same length as addresses\n    function setRewards(\n        address[] _addresses,\n        uint[] _etherRewards,\n        uint[] _tokenRewards\n    )\n        public\n        onlyCurrentMaster\n        timedStateTransition\n        onlyState(EventStates.Running)\n    {\n        require(\n            _addresses.length == _etherRewards.length &&\n            _addresses.length == _tokenRewards.length\n        );\n\n        require(\n            validationState == ValidationState.WaitingForRewards,\n            \"Not possible in this validation state.\"\n        );\n\n        for (uint i = 0; i < _addresses.length; ++i) {\n            rewards[_addresses[i]][uint(RewardType.Ether)] = _etherRewards[i];\n            rewards[_addresses[i]][uint(RewardType.Token)] = _tokenRewards[i];\n            rewardsIndex.push(_addresses[i]);\n        }\n    }\n\n    /// Triggered by the master node once rewards are set and ready to validate\n    function markRewardsSet(string rewardsHash)\n        public\n        onlyCurrentMaster\n        timedStateTransition\n        onlyState(EventStates.Running)\n    {\n        require(\n            validationState == ValidationState.WaitingForRewards,\n            \"Not possible in this validation state.\"\n        );\n\n        rewardsValidation.rewardsHash = rewardsHash;\n        rewardsValidation.approvalCount = 1;\n        validationState = ValidationState.Validating;\n        emit ValidationStarted(rewardsValidationRound);\n    }\n\n    /// Called by event resolver nodes if they agree with rewards\n    function approveRewards(uint validationRound)\n        public\n        onlyState(EventStates.Running)\n        canValidateRewards(validationRound)\n    {\n        ++rewardsValidation.approvalCount;\n        rewardsValidation.votersRound[msg.sender] = rewardsValidationRound;\n        checkApprovalRatio();\n    }\n\n    /// Called by event resolvers if they don't agree with rewards\n    function rejectRewards(uint validationRound, string altHash)\n        public\n        onlyState(EventStates.Running)\n        canValidateRewards(validationRound)\n    {\n        ++rewardsValidation.rejectionCount;\n        rewardsValidation.votersRound[msg.sender] = rewardsValidationRound;\n\n        if (!rewardsValidation.rejectedHashes[altHash]) {\n            rewardsValidation.altHashes.push(altHash);\n            rewardsValidation.altHashVotes[altHash].push(msg.sender);\n        }\n\n        checkRejectionRatio();\n    }\n\n    /// Trigger a dispute.\n    function triggerDispute()\n        public\n        timedStateTransition\n        onlyParticipating\n        onlyState(EventStates.DisputeTimeout)\n    {\n        require(\n            VerityToken(tokenAddress).allowance(msg.sender, address(this)) >=\n            dispute.amount * 2**dispute.round,\n            \"Not enough tokens staked for dispute.\"\n        );\n\n        require(\n            dispute.disputers[msg.sender] == false,\n            \"Already triggered a dispute.\"\n        );\n\n        dispute.amount = dispute.amount * 2**dispute.round;\n        ++dispute.round;\n        dispute.disputers[msg.sender] = true;\n        dispute.currentDisputer = msg.sender;\n\n        VerityToken(tokenAddress).transferFrom(msg.sender, address(this), dispute.amount);\n\n        deleteValidationData();\n        deleteRewards();\n\n        eventState = EventStates.Application;\n        applicationEndTime = now + defaultDisputeTimeExtension;\n        eventStartTime = applicationEndTime;\n        eventEndTime = eventStartTime + defaultDisputeTimeExtension;\n\n        emit DisputeTriggered(msg.sender);\n    }\n\n    /// Checks current approvals for threshold\n    function checkApprovalRatio() private {\n        if (approvalRatio() >= consensusRules.minConsensusRatio) {\n            validationState = ValidationState.Finished;\n            dispute.expiresAt = now + dispute.timeout;\n            advanceState();\n        }\n    }\n\n    /// Checks current rejections for threshold\n    function checkRejectionRatio() private {\n        if (rejectionRatio() >= (100 - consensusRules.minConsensusRatio)) {\n            rejectCurrentValidation();\n        }\n    }\n\n    /// Handle the rejection of current rewards\n    function rejectCurrentValidation() private {\n        rewardsValidation.rejectedHashes[rewardsValidation.rewardsHash] = true;\n\n        // If approved votes are over the threshold all other hashes will also fail\n        if (\n            rewardsValidation.approvalCount + rewardsValidationRound - 1 >\n            rewardsValidation.rejectionCount - rewardsValidation.altHashes.length + 1\n        ) {\n            markAsFailed(\"Consensus can't be reached\");\n        } else {\n            restartValidation();\n        }\n    }\n\n    function restartValidation() private {\n        ++rewardsValidationRound;\n        rewardsValidation.currentMasterNode = rewardsValidation.altHashVotes[rewardsValidation.altHashes[0]][0];\n\n        deleteValidationData();\n        deleteRewards();\n\n        emit ValidationRestart(rewardsValidationRound);\n    }\n\n    /// Delete rewards.\n    function deleteRewards() private {\n        for (uint j = 0; j < rewardsIndex.length; ++j) {\n            rewards[rewardsIndex[j]][uint(RewardType.Ether)] = 0;\n            rewards[rewardsIndex[j]][uint(RewardType.Token)] = 0;\n        }\n        delete rewardsIndex;\n    }\n\n    /// Delete validation data\n    function deleteValidationData() private {\n        rewardsValidation.approvalCount = 0;\n        rewardsValidation.rejectionCount = 0;\n        for (uint i = 0; i < rewardsValidation.altHashes.length; ++i) {\n            delete rewardsValidation.altHashVotes[rewardsValidation.altHashes[i]];\n        }\n        delete rewardsValidation.altHashes;\n        validationState = ValidationState.WaitingForRewards;\n    }\n\n    /// Ratio of nodes that approved of current hash\n    function approvalRatio() private view returns(uint) {\n        return rewardsValidation.approvalCount * 100 / eventResolvers.length;\n    }\n\n    /// Ratio of nodes that rejected the current hash\n    function rejectionRatio() private view returns(uint) {\n        return rewardsValidation.rejectionCount * 100 / eventResolvers.length;\n    }\n\n    /// Returns the whole array of event resolvers.\n    function getEventResolvers() public view returns(address[]) {\n        return eventResolvers;\n    }\n\n    /// Checks if the address is current master node.\n    function isMasterNode() public view returns(bool) {\n        return rewardsValidation.currentMasterNode == msg.sender;\n    }\n\n    function isNode(address node) private view returns(bool) {\n        for(uint i = 0; i < eventResolvers.length; ++i) {\n            if(eventResolvers[i] == node) {\n                return true;\n            }\n        }\n        return false;\n    }\n\n    /// Returns the calling user's assigned rewards. Can be 0.\n    /// Only available to participating users in the Reward state, since rewards\n    /// are not assigned before that.\n    function getReward()\n        public\n        view\n        returns(uint[2])\n    {\n        return [\n            rewards[msg.sender][uint(RewardType.Ether)],\n            rewards[msg.sender][uint(RewardType.Token)]\n        ];\n    }\n\n    /// Returns all the addresses that have rewards set.\n    function getRewardsIndex() public view returns(address[]) {\n        return rewardsIndex;\n    }\n\n    /// Returns rewards for specified addresses.\n    /// [[ethRewards, tokenRewards], [ethRewards, tokenRewards], ...]\n    function getRewards(address[] _addresses)\n        public\n        view\n        returns(uint[], uint[])\n    {\n        uint[] memory ethRewards = new uint[](_addresses.length);\n        uint[] memory tokenRewards = new uint[](_addresses.length);\n\n        for(uint i = 0; i < _addresses.length; ++i) {\n            ethRewards[i] = rewards[_addresses[i]][uint(RewardType.Ether)];\n            tokenRewards[i] = rewards[_addresses[i]][uint(RewardType.Token)];\n        }\n\n        return (ethRewards, tokenRewards);\n    }\n\n    /// Claim a reward.\n    /// Needs to be called by the users themselves.\n    /// Only available in the Reward state, after rewards have been received from\n    /// the validation nodes.\n    function claimReward()\n        public\n        onlyParticipating\n        timedStateTransition\n        onlyState(EventStates.Reward)\n    {\n        if (\n            rewards[msg.sender][uint(RewardType.Ether)] == 0 &&\n            rewards[msg.sender][uint(RewardType.Token)] == 0\n        ) {\n            emit Error(\"You do not have any rewards to claim.\");\n            return;\n        }\n\n        if (\n            address(this).balance < rewards[msg.sender][uint(RewardType.Ether)] ||\n            VerityToken(tokenAddress).balanceOf(address(this)) < rewards[msg.sender][uint(RewardType.Token)]\n        ) {\n            emit Error(\"Critical error: not enough balance to pay out reward. Contact Verity.\");\n            return;\n        }\n\n        uint etherReward = rewards[msg.sender][uint(RewardType.Ether)];\n        uint tokenReward = rewards[msg.sender][uint(RewardType.Token)] + stakingAmount;\n        rewards[msg.sender][uint(RewardType.Ether)] = 0;\n        rewards[msg.sender][uint(RewardType.Token)] = 0;\n\n        msg.sender.transfer(etherReward);\n        VerityToken(tokenAddress).transfer(msg.sender, tokenReward);\n\n        emit ClaimReward(msg.sender);\n    }\n\n    function setDataFeedHash(string _hash) public onlyOwner {\n        dataFeedHash = _hash;\n    }\n\n    function getState() public view returns(uint) {\n        return uint(eventState);\n    }\n\n    function getBalance() public view returns(uint[2]) {\n        return [\n            address(this).balance,\n            VerityToken(tokenAddress).balanceOf(address(this))\n        ];\n    }\n\n    /// Returns an array of consensus rules.\n    /// [minTotalVotes, minConsensusVotes, minConsensusRatio, minParticipantRatio, maxParticipants]\n    function getConsensusRules() public view returns(uint[6]) {\n        return [\n            consensusRules.minTotalVotes,\n            consensusRules.minConsensuVotes,\n            consensusRules.minConsensusRatio,\n            consensusRules.minParticipantRatio,\n            consensusRules.maxParticipants,\n            uint(consensusRules.rewardsDistribution)\n        ];\n    }\n\n    /// Returns an array of dispute rules.\n    /// [dispute amount, dispute timeout, dispute round]\n    function getDisputeData() public view returns(uint[3], address) {\n        return ([\n            dispute.amount,\n            dispute.timeout,\n            dispute.round\n        ], dispute.currentDisputer);\n    }\n\n    function recoverLeftovers()\n        public\n        onlyOwner\n        onlyAfterLefroversCanBeRecovered\n    {\n        owner.transfer(address(this).balance);\n        uint tokenBalance = VerityToken(tokenAddress).balanceOf(address(this));\n        VerityToken(tokenAddress).transfer(owner, tokenBalance);\n    }\n\n    /// Advances the event's state to the next one. Only for internal use.\n    function advanceState() private onlyChangeableState {\n        eventState = EventStates(uint(eventState) + 1);\n        emit StateTransition(eventState);\n    }\n\n    /// Sets consensus rules. For internal use only.\n    function setConsensusRules(uint[6] rules) private {\n        consensusRules.minTotalVotes = rules[0];\n        consensusRules.minConsensuVotes = rules[1];\n        consensusRules.minConsensusRatio = rules[2];\n        consensusRules.minParticipantRatio = rules[3];\n        consensusRules.maxParticipants = rules[4];\n        consensusRules.rewardsDistribution = RewardsDistribution(rules[5]);\n    }\n\n    function markAsFailed(string description) private onlyChangeableState {\n        eventState = EventStates.Failed;\n        emit EventFailed(description);\n    }\n\n    function setDisputeData(uint[2] rules) private {\n        dispute.amount = rules[0];\n        dispute.timeout = rules[1];\n        dispute.round = 0;\n    }\n}\n",
  "sourcePath": "/Users/nejc/gitlab/verity/verity-contracts/verity-event/contracts/VerityEvent.sol",
  "compiler": {
    "name": "solc",
    "version": "0.4.24+commit.e67f0147.Emscripten.clang"
  },
  "schemaVersion": "2.0.1",
  "updatedAt": "2018-10-10T09:00:52.490Z"
}