{
  "contractName": "VerityEvent",
  "abi": [
    {
      "constant": true,
      "inputs": [],
      "name": "rewardsValidationRound",
      "outputs": [
        {
          "name": "",
          "type": "uint256"
        }
      ],
      "payable": false,
      "stateMutability": "view",
      "type": "function"
    },
    {
      "constant": true,
      "inputs": [],
      "name": "eventRegistryAddress",
      "outputs": [
        {
          "name": "",
          "type": "address"
        }
      ],
      "payable": false,
      "stateMutability": "view",
      "type": "function"
    },
    {
      "constant": true,
      "inputs": [],
      "name": "dataFeedHash",
      "outputs": [
        {
          "name": "",
          "type": "string"
        }
      ],
      "payable": false,
      "stateMutability": "view",
      "type": "function"
    },
    {
      "constant": true,
      "inputs": [],
      "name": "stakingAmount",
      "outputs": [
        {
          "name": "",
          "type": "uint256"
        }
      ],
      "payable": false,
      "stateMutability": "view",
      "type": "function"
    },
    {
      "constant": true,
      "inputs": [],
      "name": "eventName",
      "outputs": [
        {
          "name": "",
          "type": "string"
        }
      ],
      "payable": false,
      "stateMutability": "view",
      "type": "function"
    },
    {
      "constant": true,
      "inputs": [],
      "name": "owner",
      "outputs": [
        {
          "name": "",
          "type": "address"
        }
      ],
      "payable": false,
      "stateMutability": "view",
      "type": "function"
    },
    {
      "constant": true,
      "inputs": [],
      "name": "tokenAddress",
      "outputs": [
        {
          "name": "",
          "type": "address"
        }
      ],
      "payable": false,
      "stateMutability": "view",
      "type": "function"
    },
    {
      "inputs": [
        {
          "name": "_eventName",
          "type": "string"
        },
        {
          "name": "_applicationStartTime",
          "type": "uint256"
        },
        {
          "name": "_applicationEndTime",
          "type": "uint256"
        },
        {
          "name": "_eventStartTime",
          "type": "uint256"
        },
        {
          "name": "_eventRunTime",
          "type": "uint256"
        },
        {
          "name": "_tokenAddress",
          "type": "address"
        },
        {
          "name": "_registry",
          "type": "address"
        },
        {
          "name": "_eventResolvers",
          "type": "address[]"
        },
        {
          "name": "_leftoversRecoverableAfter",
          "type": "uint256"
        },
        {
          "name": "_consensusRules",
          "type": "uint256[6]"
        },
        {
          "name": "_stakingAmount",
          "type": "uint256"
        },
        {
          "name": "_disputeRules",
          "type": "uint256[2]"
        },
        {
          "name": "_ipfsEventHash",
          "type": "string"
        }
      ],
      "payable": true,
      "stateMutability": "payable",
      "type": "constructor"
    },
    {
      "payable": true,
      "stateMutability": "payable",
      "type": "fallback"
    },
    {
      "anonymous": false,
      "inputs": [
        {
          "indexed": false,
          "name": "newState",
          "type": "uint8"
        }
      ],
      "name": "StateTransition",
      "type": "event"
    },
    {
      "anonymous": false,
      "inputs": [
        {
          "indexed": false,
          "name": "wallet",
          "type": "address"
        }
      ],
      "name": "JoinEvent",
      "type": "event"
    },
    {
      "anonymous": false,
      "inputs": [
        {
          "indexed": false,
          "name": "recipient",
          "type": "address"
        }
      ],
      "name": "ClaimReward",
      "type": "event"
    },
    {
      "anonymous": false,
      "inputs": [
        {
          "indexed": false,
          "name": "description",
          "type": "string"
        }
      ],
      "name": "Error",
      "type": "event"
    },
    {
      "anonymous": false,
      "inputs": [
        {
          "indexed": false,
          "name": "description",
          "type": "string"
        }
      ],
      "name": "EventFailed",
      "type": "event"
    },
    {
      "anonymous": false,
      "inputs": [
        {
          "indexed": false,
          "name": "validationRound",
          "type": "uint256"
        }
      ],
      "name": "ValidationStarted",
      "type": "event"
    },
    {
      "anonymous": false,
      "inputs": [
        {
          "indexed": false,
          "name": "validationRound",
          "type": "uint256"
        }
      ],
      "name": "ValidationRestart",
      "type": "event"
    },
    {
      "anonymous": false,
      "inputs": [
        {
          "indexed": false,
          "name": "byAddress",
          "type": "address"
        }
      ],
      "name": "DisputeTriggered",
      "type": "event"
    },
    {
      "anonymous": false,
      "inputs": [
        {
          "indexed": false,
          "name": "recipient",
          "type": "address"
        }
      ],
      "name": "ClaimStake",
      "type": "event"
    },
    {
      "constant": false,
      "inputs": [],
      "name": "joinEvent",
      "outputs": [],
      "payable": false,
      "stateMutability": "nonpayable",
      "type": "function"
    },
    {
      "constant": true,
      "inputs": [
        {
          "name": "_user",
          "type": "address"
        }
      ],
      "name": "isParticipating",
      "outputs": [
        {
          "name": "",
          "type": "bool"
        }
      ],
      "payable": false,
      "stateMutability": "view",
      "type": "function"
    },
    {
      "constant": true,
      "inputs": [],
      "name": "getParticipants",
      "outputs": [
        {
          "name": "",
          "type": "address[]"
        }
      ],
      "payable": false,
      "stateMutability": "view",
      "type": "function"
    },
    {
      "constant": true,
      "inputs": [],
      "name": "getEventTimes",
      "outputs": [
        {
          "name": "",
          "type": "uint256[5]"
        }
      ],
      "payable": false,
      "stateMutability": "view",
      "type": "function"
    },
    {
      "constant": false,
      "inputs": [
        {
          "name": "_addresses",
          "type": "address[]"
        },
        {
          "name": "_etherRewards",
          "type": "uint256[]"
        },
        {
          "name": "_tokenRewards",
          "type": "uint256[]"
        }
      ],
      "name": "setRewards",
      "outputs": [],
      "payable": false,
      "stateMutability": "nonpayable",
      "type": "function"
    },
    {
      "constant": false,
      "inputs": [
        {
          "name": "rewardsHash",
          "type": "string"
        }
      ],
      "name": "markRewardsSet",
      "outputs": [],
      "payable": false,
      "stateMutability": "nonpayable",
      "type": "function"
    },
    {
      "constant": false,
      "inputs": [
        {
          "name": "validationRound",
          "type": "uint256"
        }
      ],
      "name": "approveRewards",
      "outputs": [],
      "payable": false,
      "stateMutability": "nonpayable",
      "type": "function"
    },
    {
      "constant": false,
      "inputs": [
        {
          "name": "validationRound",
          "type": "uint256"
        },
        {
          "name": "altHash",
          "type": "string"
        }
      ],
      "name": "rejectRewards",
      "outputs": [],
      "payable": false,
      "stateMutability": "nonpayable",
      "type": "function"
    },
    {
      "constant": false,
      "inputs": [],
      "name": "triggerDispute",
      "outputs": [],
      "payable": false,
      "stateMutability": "nonpayable",
      "type": "function"
    },
    {
      "constant": true,
      "inputs": [],
      "name": "getEventResolvers",
      "outputs": [
        {
          "name": "",
          "type": "address[]"
        }
      ],
      "payable": false,
      "stateMutability": "view",
      "type": "function"
    },
    {
      "constant": true,
      "inputs": [],
      "name": "isMasterNode",
      "outputs": [
        {
          "name": "",
          "type": "bool"
        }
      ],
      "payable": false,
      "stateMutability": "view",
      "type": "function"
    },
    {
      "constant": true,
      "inputs": [],
      "name": "getReward",
      "outputs": [
        {
          "name": "",
          "type": "uint256[2]"
        }
      ],
      "payable": false,
      "stateMutability": "view",
      "type": "function"
    },
    {
      "constant": true,
      "inputs": [],
      "name": "getRewardsIndex",
      "outputs": [
        {
          "name": "",
          "type": "address[]"
        }
      ],
      "payable": false,
      "stateMutability": "view",
      "type": "function"
    },
    {
      "constant": true,
      "inputs": [
        {
          "name": "_addresses",
          "type": "address[]"
        }
      ],
      "name": "getRewards",
      "outputs": [
        {
          "name": "",
          "type": "uint256[]"
        },
        {
          "name": "",
          "type": "uint256[]"
        }
      ],
      "payable": false,
      "stateMutability": "view",
      "type": "function"
    },
    {
      "constant": false,
      "inputs": [],
      "name": "claimReward",
      "outputs": [],
      "payable": false,
      "stateMutability": "nonpayable",
      "type": "function"
    },
    {
      "constant": false,
      "inputs": [],
      "name": "claimFailed",
      "outputs": [],
      "payable": false,
      "stateMutability": "nonpayable",
      "type": "function"
    },
    {
      "constant": false,
      "inputs": [
        {
          "name": "_hash",
          "type": "string"
        }
      ],
      "name": "setDataFeedHash",
      "outputs": [],
      "payable": false,
      "stateMutability": "nonpayable",
      "type": "function"
    },
    {
      "constant": true,
      "inputs": [],
      "name": "getState",
      "outputs": [
        {
          "name": "",
          "type": "uint256"
        }
      ],
      "payable": false,
      "stateMutability": "view",
      "type": "function"
    },
    {
      "constant": true,
      "inputs": [],
      "name": "getBalance",
      "outputs": [
        {
          "name": "",
          "type": "uint256[2]"
        }
      ],
      "payable": false,
      "stateMutability": "view",
      "type": "function"
    },
    {
      "constant": true,
      "inputs": [],
      "name": "getConsensusRules",
      "outputs": [
        {
          "name": "",
          "type": "uint256[6]"
        }
      ],
      "payable": false,
      "stateMutability": "view",
      "type": "function"
    },
    {
      "constant": true,
      "inputs": [],
      "name": "getDisputeData",
      "outputs": [
        {
          "name": "",
          "type": "uint256[3]"
        },
        {
          "name": "",
          "type": "address"
        }
      ],
      "payable": false,
      "stateMutability": "view",
      "type": "function"
    },
    {
      "constant": false,
      "inputs": [],
      "name": "recoverLeftovers",
      "outputs": [],
      "payable": false,
      "stateMutability": "nonpayable",
      "type": "function"
    }
  ],
  "bytecode": "0x608060408190526004805460ff1990811690915561546060205560298054909116905562003a3b3881900390819083398101604090815281516020830151918301516060840151608085015160a086015160c087015160e08801516101008901516101e08a01516102408b0151988b019a97989697959694959394928401939192610120830192610200810191018a8c106200009a57600080fd5b8a8a116200012f57604080517f08c379a000000000000000000000000000000000000000000000000000000000815260206004820152602c60248201527f4576656e742063616e2774207374617274206265666f7265206170706c69636160448201527f74696f6e7320636c6f73652e0000000000000000000000000000000000000000606482015290519081900360840190fd5b8b6013819055508a60148190555087600160006101000a815481600160a060020a030219169083600160a060020a031602179055508c602190805190602001906200017c92919062000342565b5060158a9055888a0160165585516200019d906003906020890190620003c7565b5060008054600160a060020a0319163317815560188690556001600d55600380549091908110620001ca57fe5b6000918252602091829020015460058054600160a060020a031916600160a060020a03909216919091179055601984905581516200020f916017919084019062000342565b506200022484640100000000620002db810204565b62000238826401000000006200032f810204565b60028054600160a060020a031916600160a060020a038981169190911791829055604080517fc4130ae00000000000000000000000000000000000000000000000000000000081529051929091169163c4130ae09160048082019260009290919082900301818387803b158015620002af57600080fd5b505af1158015620002c4573d6000803e3d6000fd5b505050505050505050505050505050505062000474565b8051602355602081015160245560408101516025556060810151602655608081015160275560a081015160018111156200031157fe5b6028805460ff1916600183818111156200032757fe5b021790555050565b8051601a5560200151601b556000601c55565b828054600181600116156101000203166002900490600052602060002090601f016020900481019282601f106200038557805160ff1916838001178555620003b5565b82800160010185558215620003b5579182015b82811115620003b557825182559160200191906001019062000398565b50620003c39291506200042d565b5090565b8280548282559060005260206000209081019282156200041f579160200282015b828111156200041f5782518254600160a060020a031916600160a060020a03909116178255602090920191600190910190620003e8565b50620003c39291506200044d565b6200044a91905b80821115620003c3576000815560010162000434565b90565b6200044a91905b80821115620003c3578054600160a060020a031916815560010162000454565b6135b780620004846000396000f3006080604052600436106101735763ffffffff7c0100000000000000000000000000000000000000000000000000000000600035041662f161428114610175578063073f03fb1461019c57806311e956c8146101cd57806312065fe0146101f65780631865c57d146102465780631a0ddce91461025b5780633d18b912146103225780634227357c14610337578063437933cc146103c157806345f99d511461041a5780634b766b951461042f578063510ccb431461048857806352f91acf1461057657806354e33cf01461058b5780635aa68ac0146105f0578063739a3e021461060557806374539f981461061a5780638043c9c01461062f5780638126cb1e1461064457806381c2d875146106a25780638da5cb5b146106cc5780639d76ea58146106e1578063a77ae839146106f6578063ab95b5861461070e578063b88a802f14610738578063d6e9b0191461074d578063efba9bd2146107b3578063f4caee88146107c8578063f9010d19146107e9575b005b34801561018157600080fd5b5061018a6107fe565b60408051918252519081900360200190f35b3480156101a857600080fd5b506101b1610804565b60408051600160a060020a039092168252519081900360200190f35b3480156101d957600080fd5b506101e2610813565b604080519115158252519081900360200190f35b34801561020257600080fd5b5061020b610825565b6040518082600260200280838360005b8381101561023357818101518382015260200161021b565b5050505090500191505060405180910390f35b34801561025257600080fd5b5061018a6108d7565b34801561026757600080fd5b506040805160206004803580820135838102808601850190965280855261017395369593946024949385019291829185019084908082843750506040805187358901803560208181028481018201909552818452989b9a998901989297509082019550935083925085019084908082843750506040805187358901803560208181028481018201909552818452989b9a9989019892975090820195509350839250850190849080828437509497506108f09650505050505050565b34801561032e57600080fd5b5061020b610c84565b34801561034357600080fd5b5061034c610cc6565b6040805160208082528351818301528351919283929083019185019080838360005b8381101561038657818101518382015260200161036e565b50505050905090810190601f1680156103b35780820380516001836020036101000a031916815260200191505b509250505060405180910390f35b3480156103cd57600080fd5b506040805160206004803580820135601f8101849004840285018401909552848452610173943694929360249392840191908190840183828082843750949750610d549650505050505050565b34801561042657600080fd5b50610173610d82565b34801561043b57600080fd5b506040805160206004803580820135601f81018490048402850184019095528484526101739436949293602493928401919081908401838280828437509497506110769650505050505050565b34801561049457600080fd5b50604080516020600480358082013583810280860185019096528085526104dd953695939460249493850192918291850190849080828437509497506113189650505050505050565b604051808060200180602001838103835285818151815260200191508051906020019060200280838360005b83811015610521578181015183820152602001610509565b50505050905001838103825284818151815260200191508051906020019060200280838360005b83811015610560578181015183820152602001610548565b5050505090500194505050505060405180910390f35b34801561058257600080fd5b50610173611456565b34801561059757600080fd5b506105a0611924565b60408051602080825283518183015283519192839290830191858101910280838360005b838110156105dc5781810151838201526020016105c4565b505050509050019250505060405180910390f35b3480156105fc57600080fd5b506105a0611986565b34801561061157600080fd5b5061018a6119e6565b34801561062657600080fd5b506105a06119ec565b34801561063b57600080fd5b5061034c611a4c565b34801561065057600080fd5b5060408051602060046024803582810135601f8101859004850286018501909652858552610173958335953695604494919390910191908190840183828082843750949750611aa79650505050505050565b3480156106ae57600080fd5b506106b7611e2a565b60405181518152808260c0808383602061021b565b3480156106d857600080fd5b506101b1611e80565b3480156106ed57600080fd5b506101b1611e8f565b34801561070257600080fd5b50610173600435611e9e565b34801561071a57600080fd5b506107236120d3565b60405181518152808260a0808383602061021b565b34801561074457600080fd5b50610173612112565b34801561075957600080fd5b50610762612619565b6040518083606080838360005b8381101561078757818101518382015260200161076f565b5050505090500182600160a060020a0316600160a060020a031681526020019250505060405180910390f35b3480156107bf57600080fd5b50610173612653565b3480156107d457600080fd5b506101e2600160a060020a03600435166127e7565b3480156107f557600080fd5b50610173612805565b600d5481565b600254600160a060020a031681565b600554600160a060020a031633145b90565b61082d613358565b604080518082018252308031825260015483517f70a08231000000000000000000000000000000000000000000000000000000008152600481019290925292519192602080850193600160a060020a03909216926370a0823192602480830193928290030181600087803b1580156108a457600080fd5b505af11580156108b8573d6000803e3d6000fd5b505050506040513d60208110156108ce57600080fd5b50519052905090565b60295460009060ff1660058111156108eb57fe5b905090565b600554600090600160a060020a03163314610955576040805160e560020a62461bcd02815260206004820152601d60248201527f4e6f7420612064657369676e61746564206d6173746572206e6f64652e000000604482015290519081900360640190fd5b600060295460ff16600581111561096857fe5b14801561097757506013544210155b1561098457610984612c9f565b600160295460ff16600581111561099757fe5b1480156109a657506014544210155b15610a0557602354600f5410156109fd576109f86060604051908101604052806033815260200160008051602061352c833981519152815260200160008051602061354c833981519152815250612db5565b610a05565b610a05612c9f565b600360295460ff166005811115610a1857fe5b148015610a275750601d544210155b15610a3457610a34612c9f565b60295460029060ff166005811115610a4857fe5b816005811115610a5457fe5b14610aa6576040805160e560020a62461bcd0281526020600482015260248082015260008051602061356c833981519152604482015260e160020a6330ba329702606482015290519081900360840190fd5b83518551148015610ab8575082518551145b1515610ac357600080fd5b600060045460ff166002811115610ad657fe5b14610b51576040805160e560020a62461bcd02815260206004820152602660248201527f4e6f7420706f737369626c6520696e20746869732076616c69646174696f6e2060448201527f73746174652e0000000000000000000000000000000000000000000000000000606482015290519081900360840190fd5b600091505b8451821015610c7d578382815181101515610b6d57fe5b90602001906020020151601160008785815181101515610b8957fe5b602090810291909101810151600160a060020a0316825281810192909252604090810160009081208180529092529020558251839083908110610bc857fe5b90602001906020020151601160008785815181101515610be457fe5b602090810291909101810151600160a060020a031682528181019290925260409081016000908120600182529092529020558451601290869084908110610c2757fe5b602090810291909101810151825460018082018555600094855292909320909201805473ffffffffffffffffffffffffffffffffffffffff1916600160a060020a03909316929092179091559190910190610b56565b5050505050565b610c8c613358565b5060408051808201825233600090815260116020908152838220828052808252848320548452600183528152929020549181019190915290565b6022805460408051602060026001851615610100026000190190941693909304601f81018490048402820184019092528181529291830182828015610d4c5780601f10610d2157610100808354040283529160200191610d4c565b820191906000526020600020905b815481529060010190602001808311610d2f57829003601f168201915b505050505081565b600054600160a060020a03163314610d6b57600080fd5b8051610d7e906022906020840190613373565b5050565b610d8b336127e7565b1515610de1576040805160e560020a62461bcd02815260206004820152601260248201527f4e6f742070617274696369706174696e672e0000000000000000000000000000604482015290519081900360640190fd5b600060295460ff166005811115610df457fe5b148015610e0357506013544210155b15610e1057610e10612c9f565b600160295460ff166005811115610e2357fe5b148015610e3257506014544210155b15610e9157602354600f541015610e8957610e846060604051908101604052806033815260200160008051602061352c833981519152815260200160008051602061354c833981519152815250612db5565b610e91565b610e91612c9f565b600360295460ff166005811115610ea457fe5b148015610eb35750601d544210155b15610ec057610ec0612c9f565b60295460059060ff1681811115610ed357fe5b816005811115610edf57fe5b14610f31576040805160e560020a62461bcd0281526020600482015260248082015260008051602061356c833981519152604482015260e160020a6330ba329702606482015290519081900360840190fd5b601954600010610f8b576040805160e560020a62461bcd02815260206004820152601160248201527f4e6f207374616b6520746f20636c61696d000000000000000000000000000000604482015290519081900360640190fd5b600154601954604080517fa9059cbb000000000000000000000000000000000000000000000000000000008152336004820152602481019290925251600160a060020a039092169163a9059cbb916044808201926020929091908290030181600087803b158015610ffb57600080fd5b505af115801561100f573d6000803e3d6000fd5b505050506040513d602081101561102557600080fd5b5050336000818152600e6020908152604091829020805460ff19169055815192835290517f5a53668be860a256c7ff92bff48881a9db38994032e2b90e5a0bdd51921fbeb79281900390910190a150565b600554600160a060020a031633146110d8576040805160e560020a62461bcd02815260206004820152601d60248201527f4e6f7420612064657369676e61746564206d6173746572206e6f64652e000000604482015290519081900360640190fd5b600060295460ff1660058111156110eb57fe5b1480156110fa57506013544210155b1561110757611107612c9f565b600160295460ff16600581111561111a57fe5b14801561112957506014544210155b1561118857602354600f5410156111805761117b6060604051908101604052806033815260200160008051602061352c833981519152815260200160008051602061354c833981519152815250612db5565b611188565b611188612c9f565b600360295460ff16600581111561119b57fe5b1480156111aa5750601d544210155b156111b7576111b7612c9f565b60295460029060ff1660058111156111cb57fe5b8160058111156111d757fe5b14611229576040805160e560020a62461bcd0281526020600482015260248082015260008051602061356c833981519152604482015260e160020a6330ba329702606482015290519081900360840190fd5b600060045460ff16600281111561123c57fe5b146112b7576040805160e560020a62461bcd02815260206004820152602660248201527f4e6f7420706f737369626c6520696e20746869732076616c69646174696f6e2060448201527f73746174652e0000000000000000000000000000000000000000000000000000606482015290519081900360840190fd5b81516112ca906006906020850190613373565b50600160078190556004805460ff19169091179055600d5460408051918252517f47c2e9e59e6d2347f314927d02f36b95696a09b5f0ac0bae119ff5ae937016559181900360200190a15050565b6060806060806000855160405190808252806020026020018201604052801561134b578160200160208202803883390190505b5092508551604051908082528060200260200182016040528015611379578160200160208202803883390190505b509150600090505b855181101561144b5760116000878381518110151561139c57fe5b602090810291909101810151600160a060020a03168252818101929092526040908101600090812081805290925290205483518490839081106113db57fe5b6020908102909101015285516011906000908890849081106113f957fe5b602090810291909101810151600160a060020a03168252818101929092526040908101600090812060018252909252902054825183908390811061143957fe5b60209081029091010152600101611381565b509094909350915050565b60008060295460ff16600581111561146a57fe5b14801561147957506013544210155b1561148657611486612c9f565b600160295460ff16600581111561149957fe5b1480156114a857506014544210155b1561150757602354600f5410156114ff576114fa6060604051908101604052806033815260200160008051602061352c833981519152815260200160008051602061354c833981519152815250612db5565b611507565b611507612c9f565b600360295460ff16600581111561151a57fe5b1480156115295750601d544210155b1561153657611536612c9f565b61153f336127e7565b1515611595576040805160e560020a62461bcd02815260206004820152601260248201527f4e6f742070617274696369706174696e672e0000000000000000000000000000604482015290519081900360640190fd5b60295460039060ff1660058111156115a957fe5b8160058111156115b557fe5b14611607576040805160e560020a62461bcd0281526020600482015260248082015260008051602061356c833981519152604482015260e160020a6330ba329702606482015290519081900360840190fd5b601c54601a54600154604080517fdd62ed3e000000000000000000000000000000000000000000000000000000008152336004820152306024820152905160029490940a90920292600160a060020a039091169163dd62ed3e9160448083019260209291908290030181600087803b15801561168257600080fd5b505af1158015611696573d6000803e3d6000fd5b505050506040513d60208110156116ac57600080fd5b5051101561172a576040805160e560020a62461bcd02815260206004820152602560248201527f4e6f7420656e6f75676820746f6b656e73207374616b656420666f722064697360448201527f707574652e000000000000000000000000000000000000000000000000000000606482015290519081900360840190fd5b336000908152601e602052604090205460ff1615611792576040805160e560020a62461bcd02815260206004820152601c60248201527f416c726561647920747269676765726564206120646973707574652e00000000604482015290519081900360640190fd5b601c8054601a8054600283900a0281556001918201909255336000818152601e60209081526040808320805460ff191686179055601f805473ffffffffffffffffffffffffffffffffffffffff1916851790559354945484517f23b872dd000000000000000000000000000000000000000000000000000000008152600481019490945230602485015260448401529251600160a060020a03909416936323b872dd936064808501949193918390030190829087803b15801561185457600080fd5b505af1158015611868573d6000803e3d6000fd5b505050506040513d602081101561187e57600080fd5b506118899050612eeb565b611891612fb8565b6029805460ff19166001179055602080544281016015819055601481905501601655602580546103e8606482810381028290049092019283905560238054808402929092049182019055602480549382029290920490920190556040805133815290519194507ff6d97c5e133e50668a6b3607d8748ef6599c3303babb2b08a515a5a67369f45f92908290030190a15050565b6060601280548060200260200160405190810160405280929190818152602001828054801561197c57602002820191906000526020600020905b8154600160a060020a0316815260019091019060200180831161195e575b5050505050905090565b6060600f80548060200260200160405190810160405280929190818152602001828054801561197c57602002820191906000526020600020908154600160a060020a0316815260019091019060200180831161195e575050505050905090565b60195481565b6060600380548060200260200160405190810160405280929190818152602001828054801561197c57602002820191906000526020600020908154600160a060020a0316815260019091019060200180831161195e575050505050905090565b6021805460408051602060026001851615610100026000190190941693909304601f81018490048402820184019092528181529291830182828015610d4c5780601f10610d2157610100808354040283529160200191610d4c565b60295460029060ff166005811115611abb57fe5b816005811115611ac757fe5b14611b19576040805160e560020a62461bcd0281526020600482015260248082015260008051602061356c833981519152604482015260e160020a6330ba329702606482015290519081900360840190fd5b82611b233361306a565b8015611b345750611b32610813565b155b1515611b8a576040805160e560020a62461bcd02815260206004820152601b60248201527f4e6f7420612076616c69642073656e64657220616464726573732e0000000000604482015290519081900360640190fd5b600160045460ff166002811115611b9d57fe5b14611bf2576040805160e560020a62461bcd02815260206004820152601760248201527f4e6f742076616c69646174696e6720726577617264732e000000000000000000604482015290519081900360640190fd5b600d548114611c4b576040805160e560020a62461bcd02815260206004820152601a60248201527f56616c69646174696f6e20726f756e64206d69736d617463682e000000000000604482015290519081900360640190fd5b600d54336000908152600a602052604090205410611cb3576040805160e560020a62461bcd02815260206004820152601d60248201527f416c726561647920766f74656420666f72207468697320726f756e642e000000604482015290519081900360640190fd5b600880546001019055600d54336000908152600a602090815260409182902092909255518451600c9286929182918401908083835b60208310611d075780518252601f199092019160209182019101611ce8565b51815160209384036101000a600019018019909216911617905292019485525060405193849003019092205460ff1615159150611e1c90505760098054600181018083556000929092528451611d84917f6e1540171b6c0c960b71a7020d9f60077f6af931a8bbf590da0223dacf75c7af01906020870190613373565b50506005600601836040518082805190602001908083835b60208310611dbb5780518252601f199092019160209182019101611d9c565b51815160001960209485036101000a0190811690199190911617905292019485525060405193849003810190932080546001810182556000918252939020909201805473ffffffffffffffffffffffffffffffffffffffff19163317905550505b611e246130c8565b50505050565b611e326133f1565b6040805160c08101825260235481526024546020820152602554918101919091526026546060820152602754608082015260285460a082019060ff166001811115611e7957fe5b9052905090565b600054600160a060020a031681565b600154600160a060020a031681565b60295460029060ff166005811115611eb257fe5b816005811115611ebe57fe5b14611f10576040805160e560020a62461bcd0281526020600482015260248082015260008051602061356c833981519152604482015260e160020a6330ba329702606482015290519081900360840190fd5b81611f1a3361306a565b8015611f2b5750611f29610813565b155b1515611f81576040805160e560020a62461bcd02815260206004820152601b60248201527f4e6f7420612076616c69642073656e64657220616464726573732e0000000000604482015290519081900360640190fd5b600160045460ff166002811115611f9457fe5b14611fe9576040805160e560020a62461bcd02815260206004820152601760248201527f4e6f742076616c69646174696e6720726577617264732e000000000000000000604482015290519081900360640190fd5b600d548114612042576040805160e560020a62461bcd02815260206004820152601a60248201527f56616c69646174696f6e20726f756e64206d69736d617463682e000000000000604482015290519081900360640190fd5b600d54336000908152600a6020526040902054106120aa576040805160e560020a62461bcd02815260206004820152601d60248201527f416c726561647920766f74656420666f72207468697320726f756e642e000000604482015290519081900360640190fd5b600780546001019055600d54336000908152600a60205260409020556120ce6130e3565b505050565b6120db613410565b60a0604051908101604052806013548152602001601454815260200160155481526020016016548152602001601854815250905090565b60008061211e336127e7565b1515612174576040805160e560020a62461bcd02815260206004820152601260248201527f4e6f742070617274696369706174696e672e0000000000000000000000000000604482015290519081900360640190fd5b600060295460ff16600581111561218757fe5b14801561219657506013544210155b156121a3576121a3612c9f565b600160295460ff1660058111156121b657fe5b1480156121c557506014544210155b1561222457602354600f54101561221c576122176060604051908101604052806033815260200160008051602061352c833981519152815260200160008051602061354c833981519152815250612db5565b612224565b612224612c9f565b600360295460ff16600581111561223757fe5b1480156122465750601d544210155b1561225357612253612c9f565b60295460049060ff16600581111561226757fe5b81600581111561227357fe5b146122c5576040805160e560020a62461bcd0281526020600482015260248082015260008051602061356c833981519152604482015260e160020a6330ba329702606482015290519081900360840190fd5b33600090815260116020908152604080832083805290915280822054600183529120549093509150821580156122f9575081155b15612377576040805160208082526025908201527f596f7520646f206e6f74206861766520616e79207265776172647320746f2063818301527f6c61696d2e0000000000000000000000000000000000000000000000000000006060820152905160008051602061350c8339815191529181900360800190a16120ce565b336000908152601160209081526040808320838052909152902054303110806124495750336000908152601160209081526040808320600180855290835281842054905482517f70a0823100000000000000000000000000000000000000000000000000000000815230600482015292519194600160a060020a03909116936370a08231936024808201949293918390030190829087803b15801561241b57600080fd5b505af115801561242f573d6000803e3d6000fd5b505050506040513d602081101561244557600080fd5b5051105b156124ed576040805160208082526045908201527f437269746963616c206572726f723a206e6f7420656e6f7567682062616c616e818301527f636520746f20706179206f7574207265776172642e20436f6e7461637420566560608201527f726974792e0000000000000000000000000000000000000000000000000000006080820152905160008051602061350c8339815191529181900360a00190a16120ce565b33600081815260116020908152604080832083805290915280822082905560018252808220829055516108fc86150291869190818181858888f1935050505015801561253d573d6000803e3d6000fd5b5060008211156125e157600154604080517fa9059cbb000000000000000000000000000000000000000000000000000000008152336004820152602481018590529051600160a060020a039092169163a9059cbb916044808201926020929091908290030181600087803b1580156125b457600080fd5b505af11580156125c8573d6000803e3d6000fd5b505050506040513d60208110156125de57600080fd5b50505b6040805133815290517f63e32091e4445d16e29c33a6b264577c2d86694021aa4e6f4dd590048f5792e89181900360200190a1505050565b61262161342f565b5060408051606081018252601a548152601b546020820152601c5491810191909152601f54600160a060020a03169091565b60008054600160a060020a0316331461266b57600080fd5b60185442101561267a57600080fd5b60008054604051600160a060020a0390911691303180156108fc02929091818181858888f193505050501580156126b5573d6000803e3d6000fd5b50600154604080517f70a082310000000000000000000000000000000000000000000000000000000081523060048201529051600160a060020a03909216916370a08231916024808201926020929091908290030181600087803b15801561271c57600080fd5b505af1158015612730573d6000803e3d6000fd5b505050506040513d602081101561274657600080fd5b505160015460008054604080517fa9059cbb000000000000000000000000000000000000000000000000000000008152600160a060020a03928316600482015260248101869052905194955092169263a9059cbb926044808201936020939283900390910190829087803b1580156127bd57600080fd5b505af11580156127d1573d6000803e3d6000fd5b505050506040513d60208110156120ce57600080fd5b600160a060020a03166000908152600e602052604090205460ff1690565b600060295460ff16600581111561281857fe5b14801561282757506013544210155b1561283457612834612c9f565b600160295460ff16600581111561284757fe5b14801561285657506014544210155b156128b557602354600f5410156128ad576128a86060604051908101604052806033815260200160008051602061352c833981519152815260200160008051602061354c833981519152815250612db5565b6128b5565b6128b5612c9f565b600360295460ff1660058111156128c857fe5b1480156128d75750601d544210155b156128e4576128e4612c9f565b6128ed336127e7565b1561294557604080516020808252601e908201527f596f752061726520616c72656164792070617274696369706174696e672e000081830152905160008051602061350c8339815191529181900360600190a1612c9d565b600160295460ff16600581111561295857fe5b146129d657604080516020808252602b908201527f596f752063616e206f6e6c79206a6f696e20696e20746865204170706c696361818301527f74696f6e2073746174652e0000000000000000000000000000000000000000006060820152905160008051602061350c8339815191529181900360800190a1612c9d565b6000601954118015612a805750601954600154604080517fdd62ed3e0000000000000000000000000000000000000000000000000000000081523360048201523060248201529051600160a060020a039092169163dd62ed3e916044808201926020929091908290030181600087803b158015612a5257600080fd5b505af1158015612a66573d6000803e3d6000fd5b505050506040513d6020811015612a7c57600080fd5b5051105b15612ad8576040805160208082526019908201527f4e6f7420656e6f75676820746f6b656e73207374616b65642e0000000000000081830152905160008051602061350c8339815191529181900360600190a1612c9d565b60006019541115612b8657600154601954604080517f23b872dd000000000000000000000000000000000000000000000000000000008152336004820152306024820152604481019290925251600160a060020a03909216916323b872dd916064808201926020929091908290030181600087803b158015612b5957600080fd5b505af1158015612b6d573d6000803e3d6000fd5b505050506040513d6020811015612b8357600080fd5b50505b336000818152600e6020526040808220805460ff19166001908117909155600f8054918201815583527f8d1108e10bcb7c27dddfc02ed9d693a074039d026cf4ea4240b40f7d581ac80201805473ffffffffffffffffffffffffffffffffffffffff19168417905560025481517fb9d3514d00000000000000000000000000000000000000000000000000000000815260048101949094529051600160a060020a03919091169263b9d3514d92602480830193919282900301818387803b158015612c5057600080fd5b505af1158015612c64573d6000803e3d6000fd5b50506040805133815290517f0940fd5e528ae9fa6c086f42387c791c3854e0febdf0717c2da155c9dbf1e86c9350908190036020019150a15b565b600460295460ff166005811115612cb257fe5b10612d2d576040805160e560020a62461bcd02815260206004820152602660248201527f4576656e742073746174652063616e2774206265206d6f64696669656420616e60448201527f796d6f72652e0000000000000000000000000000000000000000000000000000606482015290519081900360840190fd5b60295460ff166005811115612d3e57fe5b6001016005811115612d4c57fe5b6029805460ff19166001836005811115612d6257fe5b02179055506029546040517fb9eb8a309bf89f3159b39681f485b6430fec1035b2b457edbcdadcdece888c0b9160ff169080826005811115612da057fe5b60ff16815260200191505060405180910390a1565b600460295460ff166005811115612dc857fe5b10612e43576040805160e560020a62461bcd02815260206004820152602660248201527f4576656e742073746174652063616e2774206265206d6f64696669656420616e60448201527f796d6f72652e0000000000000000000000000000000000000000000000000000606482015290519081900360840190fd5b6029805460ff1916600517905560408051602080825283518183015283517f860b7e55e58bd6095b36c4b4016ed8a2e47cb8ebd020fa0e43b32649deb540c3938593928392918301919085019080838360005b83811015612eae578181015183820152602001612e96565b50505050905090810190601f168015612edb5780820380516001836020036101000a031916815260200191505b509250505060405180910390a150565b6000600781905560088190555b600954811015612f9f5760098054600b919083908110612f1457fe5b906000526020600020016040518082805460018160011615610100020316600290048015612f795780601f10612f57576101008083540402835291820191612f79565b820191906000526020600020905b815481529060010190602001808311612f65575b50509283525050604051908190036020019020612f9790600061344e565b600101612ef8565b612fab6009600061346c565b506004805460ff19169055565b60005b60125481101561305b57600060116000601284815481101515612fda57fe5b600091825260208083209190910154600160a060020a0316835282810193909352604091820181208180529092528120919091556012805460119183918590811061302157fe5b600091825260208083209190910154600160a060020a03168352828101939093526040918201812060018083529352209190915501612fbb565b6130676012600061344e565b50565b6000805b6003548110156130bd5782600160a060020a031660038281548110151561309157fe5b600091825260209091200154600160a060020a031614156130b557600191506130c2565b60010161306e565b600091505b50919050565b6025546064036130d6613110565b10612c9d57612c9d61312c565b6025546130ee613222565b10612c9d576004805460ff19166002179055601b544201601d55612c9d612c9f565b6003546008546000919060640281151561312657fe5b04905090565b60016005600701600560010160405180828054600181600116156101000203166002900480156131935780601f10613171576101008083540402835291820191613193565b820191906000526020600020905b81548152906001019060200180831161317f575b50509283525050604051602091819003919091019020805460ff1916911515919091179055600954600854600d5460075492909103600101910160001901111561321a576132156040805190810160405280601a81526020017f436f6e73656e7375732063616e27742062652072656163686564000000000000815250612db5565b612c9d565b612c9d613238565b6003546007546000919060640281151561312657fe5b600d8054600101905560098054600b9190600090811061325457fe5b9060005260206000200160405180828054600181600116156101000203166002900480156132b95780601f106132975761010080835404028352918201916132b9565b820191906000526020600020905b8154815290600101906020018083116132a5575b50509283525050604051908190036020019020805460009081106132d957fe5b6000918252602090912001546005805473ffffffffffffffffffffffffffffffffffffffff1916600160a060020a03909216919091179055613319612eeb565b613321612fb8565b600d5460408051918252517fc785d855a24b92cb8266e0a85180a9fa4fe03d182f82a8555b01e1f986d267df9181900360200190a1565b60408051808201825290600290829080388339509192915050565b828054600181600116156101000203166002900490600052602060002090601f016020900481019282601f106133b457805160ff19168380011785556133e1565b828001600101855582156133e1579182015b828111156133e15782518255916020019190600101906133c6565b506133ed92915061348a565b5090565b60c0604051908101604052806006906020820280388339509192915050565b60a0604051908101604052806005906020820280388339509192915050565b6060604051908101604052806003906020820280388339509192915050565b5080546000825590600052602060002090810190613067919061348a565b508054600082559060005260206000209081019061306791906134a4565b61082291905b808211156133ed5760008155600101613490565b61082291905b808211156133ed5760006134be82826134c7565b506001016134aa565b50805460018160011615610100020316600290046000825580601f106134ed5750613067565b601f016020900490600052602060002090810190613067919061348a560008c379a0afcc32b1a39302f7cb8073359698411ab5fd6e3edb2c02c0b5fba8aa4e6f7420656e6f756768207573657273206a6f696e656420666f72207265717569726564206d696e696d756d20766f7465732e000000000000000000000000004e6f7420706f737369626c6520696e2063757272656e74206576656e74207374a165627a7a723058203a4fd0b1ce4a776ab7789e67e6bba33b862fca52a62209f99bc1b876dabfc7170029",
  "source": "pragma solidity 0.4.24;\n\n\nimport \"./EventRegistry.sol\";\nimport \"./VerityToken.sol\";\n\n\ncontract VerityEvent {\n    /// Contract's owner, used for permission management\n    address public owner;\n\n    /// Token contract address, used for tokend distribution\n    address public tokenAddress;\n\n    /// Event registry contract address\n    address public eventRegistryAddress;\n\n    /// Designated validation nodes that will decide rewards.\n    address[] eventResolvers;\n\n    /// - WaitingForRewards: Waiting for current master to set rewards.\n    /// - Validating: Master has set rewards. Vaiting for node validation.\n    /// - Finished: Either successfully validated or failed.\n    enum ValidationState {\n        WaitingForRewards,\n        Validating,\n        Finished\n    }\n    ValidationState validationState = ValidationState.WaitingForRewards;\n\n    struct RewardsValidation {\n        address currentMasterNode;\n        string rewardsHash;\n        uint approvalCount;\n        uint rejectionCount;\n        string[] altHashes;\n        mapping(address => uint) votersRound;\n        mapping(string => address[]) altHashVotes;\n        mapping(string => bool) rejectedHashes;\n    }\n    RewardsValidation rewardsValidation;\n\n    /// Round of validation. Increases by each failed validation\n    uint public rewardsValidationRound;\n\n    /// A list of all the participating wallet addresses, implemented as a mapping\n    /// to provide constant lookup times.\n    mapping(address => bool) participants;\n    address[] participantsIndex;\n\n    enum RewardType {\n        Ether,\n        Token\n    }\n    RewardType rewardType;\n\n    /// A mapping of addresses to their assigned rewards\n    mapping(address => mapping(uint => uint)) rewards;\n    address[] rewardsIndex;\n\n    /// Event application start time, users cannot apply to participate before it\n    uint applicationStartTime;\n\n    /// Event application end time, users cannot apply after this time\n    uint applicationEndTime;\n\n    /// Event actual start time, votes before this should not be accepted\n    uint eventStartTime;\n\n    /// Event end time, it is calculated in the constructor\n    uint eventEndTime;\n\n    /// Ipfs event data hash\n    string ipfsEventHash;\n\n    /// Event name, here for informational use - not used otherwise\n    /// owner can recover tokens and ether after this time\n    uint leftoversRecoverableAfter;\n\n    /// Amount of tokens that each user must stake before voting.\n    uint public stakingAmount;\n\n    struct Dispute {\n        uint amount;\n        uint timeout;\n        uint round;\n        uint expiresAt;\n        mapping(address => bool) disputers;\n        address currentDisputer;\n    }\n    Dispute dispute;\n\n    uint defaultDisputeTimeExtension = 21600; // 6 hours in seconds\n\n    string public eventName;\n\n    /// Data feed hash, used for verification\n    string public dataFeedHash;\n\n    enum RewardsDistribution {\n        Linear, // 0\n        Exponential // 1\n    }\n\n    struct ConsensusRules {\n        uint minTotalVotes;\n        uint minConsensusVotes;\n        uint minConsensusRatio;\n        uint minParticipantRatio;\n        uint maxParticipants;\n        RewardsDistribution rewardsDistribution;\n    }\n    ConsensusRules consensusRules;\n\n    /// Event's states\n    /// Events advance in the order defined here. Once the event reaches \"Reward\"\n    /// state, it cannot advance further.\n    /// Event states:\n    ///   - Waiting         -- Contract has been created, nothing is happening yet\n    ///   - Application     -- After applicationStartTime, the event advances here\n    ///                        new wallets can be added to the participats list during this state.\n    ///   - Running         -- Event is running, no new participants can be added\n    ///   - DisputeTimeout  -- Dispute possible\n    ///   - Reward          -- Participants can claim their payouts here - final state; can't be modified.\n    ///   - Failed          -- Event failed (no consensus, not enough users, timeout, ...) - final state; can't be modified\n    enum EventStates {\n        Waiting,\n        Application,\n        Running,\n        DisputeTimeout,\n        Reward,\n        Failed\n    }\n    EventStates eventState = EventStates.Waiting;\n\n    event StateTransition(EventStates newState);\n    event JoinEvent(address wallet);\n    event ClaimReward(address recipient);\n    event Error(string description);\n    event EventFailed(string description);\n    event ValidationStarted(uint validationRound);\n    event ValidationRestart(uint validationRound);\n    event DisputeTriggered(address byAddress);\n    event ClaimStake(address recipient);\n\n    constructor(\n        string _eventName,\n        uint _applicationStartTime,\n        uint _applicationEndTime,\n        uint _eventStartTime,\n        uint _eventRunTime, // in seconds\n        address _tokenAddress,\n        address _registry,\n        address[] _eventResolvers,\n        uint _leftoversRecoverableAfter, // with timestamp (in seconds)\n        uint[6] _consensusRules, // [minTotalVotes, minConsensusVotes, minConsensusRatio, minParticipantRatio, maxParticipants, distribution]\n        uint _stakingAmount,\n        uint[2] _disputeRules, // [dispute amount, dispute timeout]\n        string _ipfsEventHash\n    )\n        public\n        payable\n    {\n        require(_applicationStartTime < _applicationEndTime);\n        require(_eventStartTime > _applicationEndTime, \"Event can't start before applications close.\");\n\n        applicationStartTime = _applicationStartTime;\n        applicationEndTime = _applicationEndTime;\n        tokenAddress = _tokenAddress;\n\n        eventName = _eventName;\n        eventStartTime = _eventStartTime;\n        eventEndTime = _eventStartTime + _eventRunTime;\n\n        eventResolvers = _eventResolvers;\n\n        owner = msg.sender;\n        leftoversRecoverableAfter = _leftoversRecoverableAfter;\n\n        rewardsValidationRound = 1;\n        rewardsValidation.currentMasterNode = eventResolvers[0];\n\n        stakingAmount = _stakingAmount;\n\n        ipfsEventHash = _ipfsEventHash;\n\n        setConsensusRules(_consensusRules);\n        setDisputeData(_disputeRules);\n\n        eventRegistryAddress = _registry;\n\n        EventRegistry(eventRegistryAddress).registerEvent();\n    }\n\n    /// A modifier signifiying that a certain method can only be used by the creator\n    /// of the contract.\n    /// Rollbacks the transaction on failure.\n    modifier onlyOwner() {\n        require(msg.sender == owner);\n        _;\n    }\n\n    /// A modifier signifiying that rewards can be set only by the designated master node.\n    /// Rollbacks the transaction on failure.\n    modifier onlyCurrentMaster() {\n        require(\n            msg.sender == rewardsValidation.currentMasterNode,\n            \"Not a designated master node.\"\n        );\n        _;\n    }\n\n    ///\tA modifier signifying that a certain method can only be used by a wallet\n    ///\tmarked as a participant.\n    ///\tRollbacks the transaction or failure.\n    modifier onlyParticipating() {\n        require(\n            isParticipating(msg.sender),\n            \"Not participating.\"\n        );\n        _;\n    }\n\n    /// A modifier signifying that a certain method can only be used when the event\n    /// is in a certain state.\n    /// @param _state The event's required state\n    /// Example:\n    /// \tfunction claimReward() onlyParticipanting onlyState(EventStates.Reward) {\n    /// \t\t// ... content\n    /// \t}\n    modifier onlyState(EventStates _state) {\n        require(\n            _state == eventState,\n            \"Not possible in current event state.\"\n        );\n        _;\n    }\n\n    /// A modifier taking care of all the timed state transitions.\n    /// Should always be used before all other modifiers, especially `onlyState`,\n    /// since it can change state.\n    /// Should probably be used in ALL non-constant (transaction) methods of\n    /// the contract.\n    modifier timedStateTransition() {\n        if (eventState == EventStates.Waiting && now >= applicationStartTime) {\n            advanceState();\n        }\n\n        if (eventState == EventStates.Application && now >= applicationEndTime) {\n            if (participantsIndex.length < consensusRules.minTotalVotes) {\n                markAsFailed(\"Not enough users joined for required minimum votes.\");\n            } else {\n                advanceState();\n            }\n        }\n\n        if (eventState == EventStates.DisputeTimeout && now >= dispute.expiresAt) {\n            advanceState();\n        }\n        _;\n    }\n\n    modifier onlyChangeableState() {\n        require(\n            uint(eventState) < uint(EventStates.Reward),\n            \"Event state can't be modified anymore.\"\n        );\n        _;\n    }\n\n    modifier onlyAfterLefroversCanBeRecovered() {\n        require(now >= leftoversRecoverableAfter);\n        _;\n    }\n\n    modifier canValidateRewards(uint forRound) {\n        require(\n            isNode(msg.sender) && !isMasterNode(),\n            \"Not a valid sender address.\"\n        );\n\n        require(\n            validationState == ValidationState.Validating,\n            \"Not validating rewards.\"\n        );\n\n        require(\n            forRound == rewardsValidationRound,\n            \"Validation round mismatch.\"\n        );\n\n        require(\n            rewardsValidation.votersRound[msg.sender] < rewardsValidationRound,\n            \"Already voted for this round.\"\n        );\n        _;\n    }\n\n    /// Ensure we can receive money at any time.\n    /// Not used, but we might want to extend the reward fund while event is running.\n    function() public payable {}\n\n    /// Apply for participation in this event.\n    /// Available only during the Application state.\n    /// A transaction to this function has to be done by the users themselves,\n    /// registering their wallet address as a participent.\n    /// The transaction does not have to include any funds.\n    function joinEvent()\n        public\n        timedStateTransition\n    {\n        if (isParticipating(msg.sender)) {\n            emit Error(\"You are already participating.\");\n            return;\n        }\n\n        if (eventState != EventStates.Application) {\n            emit Error(\"You can only join in the Application state.\");\n            return;\n        }\n\n        if (\n            stakingAmount > 0 &&\n            VerityToken(tokenAddress).allowance(msg.sender, address(this)) < stakingAmount\n        ) {\n            emit Error(\"Not enough tokens staked.\");\n            return;\n        }\n\n        if (stakingAmount > 0) {\n            VerityToken(tokenAddress).transferFrom(msg.sender, address(this), stakingAmount);\n        }\n        participants[msg.sender] = true;\n        participantsIndex.push(msg.sender);\n        EventRegistry(eventRegistryAddress).addEventToUser(msg.sender);\n        emit JoinEvent(msg.sender);\n    }\n\n    /// Checks whether an address is participating in this event.\n    /// @param _user The addres to check for participation\n    /// @return {bool} Whether the given address is a participant of this event\n    function isParticipating(address _user) public view returns(bool) {\n        return participants[_user];\n    }\n\n    function getParticipants() public view returns(address[]) {\n        return participantsIndex;\n    }\n\n    function getEventTimes() public view returns(uint[5]) {\n        return [\n            applicationStartTime,\n            applicationEndTime,\n            eventStartTime,\n            eventEndTime,\n            leftoversRecoverableAfter\n        ];\n    }\n\n    /// Assign the actual rewards.\n    /// Receives a list of addresses and a list rewards. Mapping between the two\n    /// is done by the addresses' and reward's numerical index in the list, so\n    /// order is important.\n    /// @param _addresses A list of addresses\n    /// @param _etherRewards A list of ether rewards, must be the exact same length as addresses\n    /// @param _tokenRewards A list of token rewards, must be the exact same length as addresses\n    function setRewards(\n        address[] _addresses,\n        uint[] _etherRewards,\n        uint[] _tokenRewards\n    )\n        public\n        onlyCurrentMaster\n        timedStateTransition\n        onlyState(EventStates.Running)\n    {\n        require(\n            _addresses.length == _etherRewards.length &&\n            _addresses.length == _tokenRewards.length\n        );\n\n        require(\n            validationState == ValidationState.WaitingForRewards,\n            \"Not possible in this validation state.\"\n        );\n\n        for (uint i = 0; i < _addresses.length; ++i) {\n            rewards[_addresses[i]][uint(RewardType.Ether)] = _etherRewards[i];\n            rewards[_addresses[i]][uint(RewardType.Token)] = _tokenRewards[i];\n            rewardsIndex.push(_addresses[i]);\n        }\n    }\n\n    /// Triggered by the master node once rewards are set and ready to validate\n    function markRewardsSet(string rewardsHash)\n        public\n        onlyCurrentMaster\n        timedStateTransition\n        onlyState(EventStates.Running)\n    {\n        require(\n            validationState == ValidationState.WaitingForRewards,\n            \"Not possible in this validation state.\"\n        );\n\n        rewardsValidation.rewardsHash = rewardsHash;\n        rewardsValidation.approvalCount = 1;\n        validationState = ValidationState.Validating;\n        emit ValidationStarted(rewardsValidationRound);\n    }\n\n    /// Called by event resolver nodes if they agree with rewards\n    function approveRewards(uint validationRound)\n        public\n        onlyState(EventStates.Running)\n        canValidateRewards(validationRound)\n    {\n        ++rewardsValidation.approvalCount;\n        rewardsValidation.votersRound[msg.sender] = rewardsValidationRound;\n        checkApprovalRatio();\n    }\n\n    /// Called by event resolvers if they don't agree with rewards\n    function rejectRewards(uint validationRound, string altHash)\n        public\n        onlyState(EventStates.Running)\n        canValidateRewards(validationRound)\n    {\n        ++rewardsValidation.rejectionCount;\n        rewardsValidation.votersRound[msg.sender] = rewardsValidationRound;\n\n        if (!rewardsValidation.rejectedHashes[altHash]) {\n            rewardsValidation.altHashes.push(altHash);\n            rewardsValidation.altHashVotes[altHash].push(msg.sender);\n        }\n\n        checkRejectionRatio();\n    }\n\n    /// Trigger a dispute.\n    function triggerDispute()\n        public\n        timedStateTransition\n        onlyParticipating\n        onlyState(EventStates.DisputeTimeout)\n    {\n        require(\n            VerityToken(tokenAddress).allowance(msg.sender, address(this)) >=\n            dispute.amount * 2**dispute.round,\n            \"Not enough tokens staked for dispute.\"\n        );\n\n        require(\n            dispute.disputers[msg.sender] == false,\n            \"Already triggered a dispute.\"\n        );\n\n        /// Increase dispute amount for next dispute and store disputer\n        dispute.amount = dispute.amount * 2**dispute.round;\n        ++dispute.round;\n        dispute.disputers[msg.sender] = true;\n        dispute.currentDisputer = msg.sender;\n\n        /// Transfer staked amount\n        VerityToken(tokenAddress).transferFrom(msg.sender, address(this), dispute.amount);\n\n        /// Restart event\n        deleteValidationData();\n        deleteRewards();\n        eventState = EventStates.Application;\n        applicationEndTime = eventStartTime = now + defaultDisputeTimeExtension;\n        eventEndTime = eventStartTime + defaultDisputeTimeExtension;\n\n        /// Make consensus rules stricter\n        /// Increases by ~10% of consensus diff\n        consensusRules.minConsensusRatio += (100 - consensusRules.minConsensusRatio) * 100 / 1000;\n        /// Increase total votes required my ~10% and consensus votes by consensus ratio\n        uint votesIncrease = consensusRules.minTotalVotes * 100 / 1000;\n        consensusRules.minTotalVotes += votesIncrease;\n        consensusRules.minConsensusVotes += votesIncrease * consensusRules.minConsensusRatio / 100;\n\n        emit DisputeTriggered(msg.sender);\n    }\n\n    /// Checks current approvals for threshold\n    function checkApprovalRatio() private {\n        if (approvalRatio() >= consensusRules.minConsensusRatio) {\n            validationState = ValidationState.Finished;\n            dispute.expiresAt = now + dispute.timeout;\n            advanceState();\n        }\n    }\n\n    /// Checks current rejections for threshold\n    function checkRejectionRatio() private {\n        if (rejectionRatio() >= (100 - consensusRules.minConsensusRatio)) {\n            rejectCurrentValidation();\n        }\n    }\n\n    /// Handle the rejection of current rewards\n    function rejectCurrentValidation() private {\n        rewardsValidation.rejectedHashes[rewardsValidation.rewardsHash] = true;\n\n        // If approved votes are over the threshold all other hashes will also fail\n        if (\n            rewardsValidation.approvalCount + rewardsValidationRound - 1 >\n            rewardsValidation.rejectionCount - rewardsValidation.altHashes.length + 1\n        ) {\n            markAsFailed(\"Consensus can't be reached\");\n        } else {\n            restartValidation();\n        }\n    }\n\n    function restartValidation() private {\n        ++rewardsValidationRound;\n        rewardsValidation.currentMasterNode = rewardsValidation.altHashVotes[rewardsValidation.altHashes[0]][0];\n\n        deleteValidationData();\n        deleteRewards();\n\n        emit ValidationRestart(rewardsValidationRound);\n    }\n\n    /// Delete rewards.\n    function deleteRewards() private {\n        for (uint j = 0; j < rewardsIndex.length; ++j) {\n            rewards[rewardsIndex[j]][uint(RewardType.Ether)] = 0;\n            rewards[rewardsIndex[j]][uint(RewardType.Token)] = 0;\n        }\n        delete rewardsIndex;\n    }\n\n    /// Delete validation data\n    function deleteValidationData() private {\n        rewardsValidation.approvalCount = 0;\n        rewardsValidation.rejectionCount = 0;\n        for (uint i = 0; i < rewardsValidation.altHashes.length; ++i) {\n            delete rewardsValidation.altHashVotes[rewardsValidation.altHashes[i]];\n        }\n        delete rewardsValidation.altHashes;\n        validationState = ValidationState.WaitingForRewards;\n    }\n\n    /// Ratio of nodes that approved of current hash\n    function approvalRatio() private view returns(uint) {\n        return rewardsValidation.approvalCount * 100 / eventResolvers.length;\n    }\n\n    /// Ratio of nodes that rejected the current hash\n    function rejectionRatio() private view returns(uint) {\n        return rewardsValidation.rejectionCount * 100 / eventResolvers.length;\n    }\n\n    /// Returns the whole array of event resolvers.\n    function getEventResolvers() public view returns(address[]) {\n        return eventResolvers;\n    }\n\n    /// Checks if the address is current master node.\n    function isMasterNode() public view returns(bool) {\n        return rewardsValidation.currentMasterNode == msg.sender;\n    }\n\n    function isNode(address node) private view returns(bool) {\n        for(uint i = 0; i < eventResolvers.length; ++i) {\n            if(eventResolvers[i] == node) {\n                return true;\n            }\n        }\n        return false;\n    }\n\n    /// Returns the calling user's assigned rewards. Can be 0.\n    /// Only available to participating users in the Reward state, since rewards\n    /// are not assigned before that.\n    function getReward()\n        public\n        view\n        returns(uint[2])\n    {\n        return [\n            rewards[msg.sender][uint(RewardType.Ether)],\n            rewards[msg.sender][uint(RewardType.Token)]\n        ];\n    }\n\n    /// Returns all the addresses that have rewards set.\n    function getRewardsIndex() public view returns(address[]) {\n        return rewardsIndex;\n    }\n\n    /// Returns rewards for specified addresses.\n    /// [[ethRewards, tokenRewards], [ethRewards, tokenRewards], ...]\n    function getRewards(address[] _addresses)\n        public\n        view\n        returns(uint[], uint[])\n    {\n        uint[] memory ethRewards = new uint[](_addresses.length);\n        uint[] memory tokenRewards = new uint[](_addresses.length);\n\n        for(uint i = 0; i < _addresses.length; ++i) {\n            ethRewards[i] = rewards[_addresses[i]][uint(RewardType.Ether)];\n            tokenRewards[i] = rewards[_addresses[i]][uint(RewardType.Token)];\n        }\n\n        return (ethRewards, tokenRewards);\n    }\n\n    /// Claim a reward.\n    /// Needs to be called by the users themselves.\n    /// Only available in the Reward state, after rewards have been received from\n    /// the validation nodes.\n    function claimReward()\n        public\n        onlyParticipating\n        timedStateTransition\n        onlyState(EventStates.Reward)\n    {\n        uint etherReward = rewards[msg.sender][uint(RewardType.Ether)];\n        uint tokenReward = rewards[msg.sender][uint(RewardType.Token)];\n\n        if (etherReward == 0 && tokenReward == 0) {\n            emit Error(\"You do not have any rewards to claim.\");\n            return;\n        }\n\n        if (\n            address(this).balance < rewards[msg.sender][uint(RewardType.Ether)] ||\n            VerityToken(tokenAddress).balanceOf(address(this)) < rewards[msg.sender][uint(RewardType.Token)]\n        ) {\n            emit Error(\"Critical error: not enough balance to pay out reward. Contact Verity.\");\n            return;\n        }\n\n        rewards[msg.sender][uint(RewardType.Ether)] = 0;\n        rewards[msg.sender][uint(RewardType.Token)] = 0;\n\n        msg.sender.transfer(etherReward);\n        if (tokenReward > 0) {\n            VerityToken(tokenAddress).transfer(msg.sender, tokenReward);\n        }\n\n        emit ClaimReward(msg.sender);\n    }\n\n    function claimFailed()\n        public\n        onlyParticipating\n        timedStateTransition\n        onlyState(EventStates.Failed)\n    {\n        require(\n            stakingAmount > 0,\n            \"No stake to claim\"\n        );\n\n        VerityToken(tokenAddress).transfer(msg.sender, stakingAmount);\n        participants[msg.sender] = false;\n        emit ClaimStake(msg.sender);\n    }\n\n    function setDataFeedHash(string _hash) public onlyOwner {\n        dataFeedHash = _hash;\n    }\n\n    function getState() public view returns(uint) {\n        return uint(eventState);\n    }\n\n    function getBalance() public view returns(uint[2]) {\n        return [\n            address(this).balance,\n            VerityToken(tokenAddress).balanceOf(address(this))\n        ];\n    }\n\n    /// Returns an array of consensus rules.\n    /// [minTotalVotes, minConsensusVotes, minConsensusRatio, minParticipantRatio, maxParticipants]\n    function getConsensusRules() public view returns(uint[6]) {\n        return [\n            consensusRules.minTotalVotes,\n            consensusRules.minConsensusVotes,\n            consensusRules.minConsensusRatio,\n            consensusRules.minParticipantRatio,\n            consensusRules.maxParticipants,\n            uint(consensusRules.rewardsDistribution)\n        ];\n    }\n\n    /// Returns an array of dispute rules.\n    /// [dispute amount, dispute timeout, dispute round]\n    function getDisputeData() public view returns(uint[3], address) {\n        return ([\n            dispute.amount,\n            dispute.timeout,\n            dispute.round\n        ], dispute.currentDisputer);\n    }\n\n    function recoverLeftovers()\n        public\n        onlyOwner\n        onlyAfterLefroversCanBeRecovered\n    {\n        owner.transfer(address(this).balance);\n        uint tokenBalance = VerityToken(tokenAddress).balanceOf(address(this));\n        VerityToken(tokenAddress).transfer(owner, tokenBalance);\n    }\n\n    /// Advances the event's state to the next one. Only for internal use.\n    function advanceState() private onlyChangeableState {\n        eventState = EventStates(uint(eventState) + 1);\n        emit StateTransition(eventState);\n    }\n\n    /// Sets consensus rules. For internal use only.\n    function setConsensusRules(uint[6] rules) private {\n        consensusRules.minTotalVotes = rules[0];\n        consensusRules.minConsensusVotes = rules[1];\n        consensusRules.minConsensusRatio = rules[2];\n        consensusRules.minParticipantRatio = rules[3];\n        consensusRules.maxParticipants = rules[4];\n        consensusRules.rewardsDistribution = RewardsDistribution(rules[5]);\n    }\n\n    function markAsFailed(string description) private onlyChangeableState {\n        eventState = EventStates.Failed;\n        emit EventFailed(description);\n    }\n\n    function setDisputeData(uint[2] rules) private {\n        dispute.amount = rules[0];\n        dispute.timeout = rules[1];\n        dispute.round = 0;\n    }\n}\n",
  "sourcePath": "/Users/hiphop/code/verity-event/contracts/VerityEvent.sol",
  "compiler": {
    "name": "solc",
    "version": "0.4.24+commit.e67f0147.Emscripten.clang"
  },
  "schemaVersion": "2.0.1",
  "updatedAt": "2018-11-07T10:34:23.631Z"
}