{
  "contractName": "VerityEventProxy",
  "abi": [
    {
      "constant": true,
      "inputs": [],
      "name": "rewardsValidationRound",
      "outputs": [
        {
          "name": "",
          "type": "uint256"
        }
      ],
      "payable": false,
      "stateMutability": "view",
      "type": "function"
    },
    {
      "constant": true,
      "inputs": [],
      "name": "eventRegistryAddress",
      "outputs": [
        {
          "name": "",
          "type": "address"
        }
      ],
      "payable": false,
      "stateMutability": "view",
      "type": "function"
    },
    {
      "constant": true,
      "inputs": [],
      "name": "eventCanceled",
      "outputs": [
        {
          "name": "",
          "type": "bool"
        }
      ],
      "payable": false,
      "stateMutability": "view",
      "type": "function"
    },
    {
      "constant": true,
      "inputs": [],
      "name": "dataFeedHash",
      "outputs": [
        {
          "name": "",
          "type": "string"
        }
      ],
      "payable": false,
      "stateMutability": "view",
      "type": "function"
    },
    {
      "constant": true,
      "inputs": [],
      "name": "ipfsEventHash",
      "outputs": [
        {
          "name": "",
          "type": "string"
        }
      ],
      "payable": false,
      "stateMutability": "view",
      "type": "function"
    },
    {
      "constant": true,
      "inputs": [],
      "name": "implementation",
      "outputs": [
        {
          "name": "",
          "type": "address"
        }
      ],
      "payable": false,
      "stateMutability": "view",
      "type": "function"
    },
    {
      "constant": true,
      "inputs": [],
      "name": "stakingAmount",
      "outputs": [
        {
          "name": "",
          "type": "uint256"
        }
      ],
      "payable": false,
      "stateMutability": "view",
      "type": "function"
    },
    {
      "constant": true,
      "inputs": [],
      "name": "eventName",
      "outputs": [
        {
          "name": "",
          "type": "string"
        }
      ],
      "payable": false,
      "stateMutability": "view",
      "type": "function"
    },
    {
      "constant": true,
      "inputs": [],
      "name": "owner",
      "outputs": [
        {
          "name": "",
          "type": "address"
        }
      ],
      "payable": false,
      "stateMutability": "view",
      "type": "function"
    },
    {
      "constant": true,
      "inputs": [],
      "name": "tokenAddress",
      "outputs": [
        {
          "name": "",
          "type": "address"
        }
      ],
      "payable": false,
      "stateMutability": "view",
      "type": "function"
    },
    {
      "constant": true,
      "inputs": [],
      "name": "leftoversRecoverableAfter",
      "outputs": [
        {
          "name": "",
          "type": "uint256"
        }
      ],
      "payable": false,
      "stateMutability": "view",
      "type": "function"
    },
    {
      "inputs": [
        {
          "name": "_eventName",
          "type": "string"
        },
        {
          "name": "_applicationStartTime",
          "type": "uint256"
        },
        {
          "name": "_applicationEndTime",
          "type": "uint256"
        },
        {
          "name": "_eventStartTime",
          "type": "uint256"
        },
        {
          "name": "_eventRunTime",
          "type": "uint256"
        },
        {
          "name": "_cAddresses",
          "type": "address[4]"
        },
        {
          "name": "_eventResolvers",
          "type": "address[]"
        },
        {
          "name": "_leftoversRecoverableAfter",
          "type": "uint256"
        },
        {
          "name": "_consensusRules",
          "type": "uint256[6]"
        },
        {
          "name": "_stakingAmount",
          "type": "uint256"
        },
        {
          "name": "_disputeRules",
          "type": "uint256[4]"
        },
        {
          "name": "_ipfsEventHash",
          "type": "string"
        },
        {
          "name": "_requiredUserRoles",
          "type": "uint256[]"
        },
        {
          "name": "_eventCategory",
          "type": "bytes32[2]"
        }
      ],
      "payable": true,
      "stateMutability": "payable",
      "type": "constructor"
    },
    {
      "payable": true,
      "stateMutability": "payable",
      "type": "fallback"
    }
  ],
  "bytecode": "0x608060408190526006805460ff19908116909155602f8054909116905562000b7a3881900390819083398101806040526103408110156200003f57600080fd5b8101908080516401000000008111156200005857600080fd5b820160208101848111156200006c57600080fd5b81516401000000008111828201871017156200008757600080fd5b50506020820151604083015160608401516080850151610120860180519598949793969295919460a09093019391640100000000811115620000c857600080fd5b82016020810184811115620000dc57600080fd5b8151856020820283011164010000000082111715620000fa57600080fd5b505060208201516101008301516101a084018051939692956040860195929461012090930193929091906401000000008111156200013757600080fd5b820160208101848111156200014b57600080fd5b81516401000000008111828201871017156200016657600080fd5b505092919060200180516401000000008111156200018357600080fd5b820160208101848111156200019757600080fd5b8151856020820283011164010000000082111715620001b557600080fd5b509093505060200190508b8d10620001cc57600080fd5b8b8b1162000226576040517f08c379a000000000000000000000000000000000000000000000000000000000815260040180806020018281038252602c81526020018062000b4e602c913960400191505060405180910390fd5b885160018054600160a060020a0319908116600160a060020a039384161790915560208b0151600280549092169083161790819055604080517fc4130ae00000000000000000000000000000000000000000000000000000000081529051919092169163c4130ae091600480830192600092919082900301818387803b158015620002b057600080fd5b505af1158015620002c5573d6000803e3d6000fd5b508b925060029150620002d59050565b602002015160048054600160a060020a031916600160a060020a039092169190911790558860036020020151602f60026101000a815481600160a060020a030219169083600160a060020a031602179055508c6015819055508b6016819055508d602490805190602001906200034d929190620004d6565b506200035d60258260026200055b565b5060178b9055898b0160185587516200037e9060039060208b01906200058b565b5060008054600160a060020a03191633178155601a8890556001600f55600380549091908110620003ab57fe5b6000918252602091829020015460078054600160a060020a031916600160a060020a03909216919091179055601b8690558351620003f09160199190860190620004d6565b50620004058664010000000062000443810204565b620004198464010000000062000497810204565b81516200042e906005906020850190620005f1565b50505050505050505050505050505062000675565b80516029556020810151602a556040810151602b556060810151602c556080810151602d5560a081015160018111156200047957fe5b602e805460ff1916600183818111156200048f57fe5b021790555050565b6040810151606082015160018211620004af57600191505b801515620004bc57506154605b8251601c55602092830151601d5591556000601e55602355565b828054600181600116156101000203166002900490600052602060002090601f016020900481019282601f106200051957805160ff191683800117855562000549565b8280016001018555821562000549579182015b82811115620005495782518255916020019190600101906200052c565b50620005579291506200062e565b5090565b8260028101928215620005495791602002820182811115620005495782518255916020019190600101906200052c565b828054828255906000526020600020908101928215620005e3579160200282015b82811115620005e35782518254600160a060020a031916600160a060020a03909116178255602090920191600190910190620005ac565b50620005579291506200064e565b828054828255906000526020600020908101928215620005495791602002820182811115620005495782518255916020019190600101906200052c565b6200064b91905b8082111562000557576000815560010162000635565b90565b6200064b91905b8082111562000557578054600160a060020a031916815560010162000655565b6104c980620006856000396000f3fe6080604052600436106100b8576000357c0100000000000000000000000000000000000000000000000000000000900480635c60da1b116100815780635c60da1b146101ef578063739a3e02146102045780638043c9c0146102195780638da5cb5b1461022e5780639d76ea5814610243578063f38a803f14610258576100b8565b8062f16142146100c2578063073f03fb146100e9578063148b597c146101275780634227357c1461015057806342380eaf146101da575b6100c061026d565b005b3480156100ce57600080fd5b506100d761029f565b60408051918252519081900360200190f35b3480156100f557600080fd5b506100fe6102a5565b6040805173ffffffffffffffffffffffffffffffffffffffff9092168252519081900360200190f35b34801561013357600080fd5b5061013c6102c1565b604080519115158252519081900360200190f35b34801561015c57600080fd5b506101656102cf565b6040805160208082528351818301528351919283929083019185019080838360005b8381101561019f578181015183820152602001610187565b50505050905090810190601f1680156101cc5780820380516001836020036101000a031916815260200191505b509250505060405180910390f35b3480156101e657600080fd5b5061016561035d565b3480156101fb57600080fd5b506100fe6103b8565b34801561021057600080fd5b506100d76103da565b34801561022557600080fd5b506101656103e0565b34801561023a57600080fd5b506100fe61043b565b34801561024f57600080fd5b506100fe610457565b34801561026457600080fd5b506100d7610473565b61027561029d565b602f5461029d9062010000900473ffffffffffffffffffffffffffffffffffffffff16610479565b565b600f5481565b60025473ffffffffffffffffffffffffffffffffffffffff1681565b602f54610100900460ff1681565b6027805460408051602060026001851615610100026000190190941693909304601f810184900484028201840190925281815292918301828280156103555780601f1061032a57610100808354040283529160200191610355565b820191906000526020600020905b81548152906001019060200180831161033857829003601f168201915b505050505081565b6019805460408051602060026001851615610100026000190190941693909304601f810184900484028201840190925281815292918301828280156103555780601f1061032a57610100808354040283529160200191610355565b602f5462010000900473ffffffffffffffffffffffffffffffffffffffff1681565b601b5481565b6024805460408051602060026001851615610100026000190190941693909304601f810184900484028201840190925281815292918301828280156103555780601f1061032a57610100808354040283529160200191610355565b60005473ffffffffffffffffffffffffffffffffffffffff1681565b60015473ffffffffffffffffffffffffffffffffffffffff1681565b601a5481565b3660008037600080366000845af43d6000803e808015610498573d6000f35b3d6000fdfea165627a7a72305820d4b33a11acc3494b29d6e2744832814ae56711d7efcd25c4b50e5b270c91ca5f00294576656e742063616e2774207374617274206265666f7265206170706c69636174696f6e7320636c6f73652e",
  "source": "pragma solidity ^0.5.3;\n\nimport \"./VerityToken.sol\";\nimport \"./verity_event/Store.sol\";\nimport \"./utility/Proxy.sol\";\n\n\ninterface UserRolesI {\n    function hasAnyRole(address _user, uint[] calldata _roles) external view returns (bool);\n}\n\ncontract VerityEventProxy is Store, Proxy {\n\n    constructor(\n        string memory _eventName,\n        uint _applicationStartTime,\n        uint _applicationEndTime,\n        uint _eventStartTime,\n        uint _eventRunTime, // in seconds\n        address[4] memory _cAddresses, // [tokenAddress, eventRegistry, userRoles, implementation]\n        address[] memory _eventResolvers,\n        uint _leftoversRecoverableAfter, // with timestamp (in seconds)\n        uint[6] memory _consensusRules, // [minTotalVotes, minConsensusVotes, minConsensusRatio, minParticipantRatio, maxParticipants, distribution]\n        uint _stakingAmount,\n        uint[4] memory _disputeRules, // [dispute amount, dispute timeout, dispute multiplier, default extension in seconds]\n        string memory _ipfsEventHash,\n        uint[] memory _requiredUserRoles,\n        bytes32[2] memory _eventCategory\n    )\n        public\n        payable\n    {\n        require(_applicationStartTime < _applicationEndTime);\n        require(_eventStartTime > _applicationEndTime, \"Event can't start before applications close.\");\n\n        tokenAddress = _cAddresses[0];\n        eventRegistryAddress = _cAddresses[1];\n        EventRegistryI(eventRegistryAddress).registerEvent();\n        permissionRegistry = _cAddresses[2];\n        implementation = _cAddresses[3];\n\n        applicationStartTime = _applicationStartTime;\n        applicationEndTime = _applicationEndTime;\n\n        eventName = _eventName;\n        eventCategory = _eventCategory;\n        eventStartTime = _eventStartTime;\n        eventEndTime = _eventStartTime + _eventRunTime;\n\n        eventResolvers = _eventResolvers;\n\n        owner = msg.sender;\n        leftoversRecoverableAfter = _leftoversRecoverableAfter;\n\n        rewardsValidationRound = 1;\n        rewardsValidation.currentMasterNode = eventResolvers[0];\n\n        stakingAmount = _stakingAmount;\n\n        ipfsEventHash = _ipfsEventHash;\n\n        setConsensusRules(_consensusRules);\n        setDisputeData(_disputeRules);\n\n        requiredUserRoles = _requiredUserRoles;\n    }\n\n    /// Sets consensus rules. For internal use only.\n    function setConsensusRules(uint[6] memory rules) private {\n        consensusRules.minTotalVotes = rules[0];\n        consensusRules.minConsensusVotes = rules[1];\n        consensusRules.minConsensusRatio = rules[2];\n        consensusRules.minParticipantRatio = rules[3];\n        consensusRules.maxParticipants = rules[4];\n        consensusRules.rewardsDistribution = RewardsDistribution(rules[5]);\n    }\n\n    function setDisputeData(uint[4] memory rules) private {\n        uint _multiplier = rules[2];\n        uint _extension = rules[3];\n        if (_multiplier <= 1) {\n            _multiplier = 1;\n        }\n\n        if (_extension == 0) {\n            _extension = 21600; // 6h in seconds\n        }\n\n        dispute.amount = rules[0];\n        dispute.timeout = rules[1];\n        dispute.multiplier = _multiplier;\n        dispute.round = 0;\n        disputeTimeExtension = _extension;\n    }\n}\n",
  "sourcePath": "/Users/hiphop/code/verity-event/contracts/VerityEventProxy.sol",
  "compiler": {
    "name": "solc",
    "version": "0.5.3+commit.10d17f24.Emscripten.clang"
  },
  "schemaVersion": "3.0.1",
  "updatedAt": "2019-02-20T13:43:23.325Z",
  "devdoc": {
    "methods": {}
  },
  "userdoc": {
    "methods": {}
  }
}